:020000040800F2
:10000000482000204D020008612B0008F12A00085A
:10001000F32A0008AD110008912F0008000000002D
:10002000000000000000000000000000012D00089A
:10003000C912000800000000A52B0008032D0008CD
:1000400067020008670200086702000867020008EC
:1000500067020008670200086702000867020008DC
:1000600067020008670200086702000867020008CC
:1000700067020008670200086702000867020008BC
:10008000670200086702000800000000692E0008EF
:10009000670200086702000867020008670200089C
:1000A000670200086702000867020008670200088C
:1000B000670200080000000067020008000000005E
:1000C000670200080000000067020008000000004E
:1000D0000000000000000000000000000000000020
:1000E000000000000000000067020008000000009F
:1000F0000000000000000000000000000000000000
:10010000670200080000000000000000000000007E
:1001100000000000000000000000000000000000DF
:1001200000000000000000000000000000000000CF
:1001300000000000000000000000000000000000BF
:10014000000000000000000000000000670200083E
:1001500000F002F800F06AF80AA090E8000C82446F
:100160008344AAF10107DA4501D100F05FF8AFF24C
:10017000090EBAE80F0013F0010F18BFFB1A43F085
:10018000010318478CC30100ACC301000A444FF0BF
:10019000000C10F8013B13F0070408BF10F8014BE6
:1001A0001D1108BF10F8015B641E05D010F8016B2B
:1001B000641E01F8016BF9D113F0080F1EBF10F88F
:1001C000014BAD1C0C1B09D16D1E58BF01F801CBB2
:1001D000FAD505E014F8016B01F8016B6D1EF9D535
:1001E0009142D6D37047000000230024002500264A
:1001F000103A28BF78C1FBD8520728BF30C148BF8A
:100200000B607047642900F0A580732900F06B83B0
:10021000002070471FB507F064FE9DE8030000F062
:100220001DFD00F0BBFA1FBD10B510BD00F0D0FCE5
:100230001146FFF7EFFF06F0E9FC00F045FD03B4BF
:10024000FFF7F2FF03BC00F071FD00000948804792
:1002500009480047FEE7FEE7FEE7FEE7FEE7FEE7A8
:10026000FEE7FEE7FEE7FEE704480549054A064BC0
:1002700070470000112D00085101000848060020B9
:1002800048200020481C0020481C00200FB41CB54A
:10029000074B06AA7B4469460090059800F0F9FADE
:1002A0000020694600F008FB1CBC5DF814FB000050
:1002B0002106000070B5044685690068C10601D5B5
:1002C000302600E02026C00707D070BDD4E9012108
:1002D00030469047206A401C20626D1EF6D570BDE6
:1002E00070B5044685690078C00707D170BDD4E9B0
:1002F000012120209047206A401C20626D1EF6D507
:1003000070BD70B50C460546012A05D028788006D8
:1003100000D5EA69002302E0012305E05B1C93425B
:1003200002D2E05C0028F9D1A869E618C01AA861D9
:10033000286A184428622846FFF7BCFF04E0D5E984
:10034000012114F8010B9047B442F8D32846FFF777
:10035000C7FF70BD2DE9F0410646002410687529DD
:10036000314616A510D0AFF30080002802DA4042D3
:1003700013A507E031688A0701D512A502E04907F5
:1003800004D511A5012401E0AFF3008000210A2269
:1003900006F1240709E0B0FBF2FCB0FBF2F302FB2C
:1003A0001C00303078541846491C0028F3D12346ED
:1003B0002A463046BDE8F04100F00DBA00000000CA
:1003C0002D0000002B000000200000002DE9F05F50
:1003D000894604464FF0000ADFF824B1FB44C0F818
:1003E00020A02046E168884700287DD0252806D037
:1003F000D4E901219047206A401C2062F1E70025E2
:100400005F462046E16888472028064607DB312EF4
:1004100005D2B81910F8200C08B10543F1E7A80778
:1004200001D525F00405C4F81CA00027C4F818A0C5
:100430002A2E09D0304605F07FFB38B304EB87083D
:10044000303EC8F8186019E059F8041B204604EB48
:1004500087029161E1688847012F064618D1E0695B
:10046000002820DA25F020051DE0D8F8180000EB60
:10047000800006EB40003038C8F818002046E168DC
:100480008847064605F058FB0028EED1012F0AD018
:100490002E2E08D12046E16888477F1C0646022F91
:1004A00045F02005C4DBA069002803DA404245F08E
:1004B0000105A061E80701D025F01005A6B1A6F15D
:1004C0004100192802D8203645F400654A463146D5
:1004D000204625604D46FFF795FE60B1012807D004
:1004E000ED1D25F0070000E007E000F1080978E7BE
:1004F00005F1040975E730467AE7206ABDE8F09F08
:100500002EC0010010B5431C02E010F8011B71B1B0
:100510008107FAD14FF0013202C88C1A8C4314EAD9
:10052000C211F9D0C01A0A0603D0C01E10BDC01AED
:1005300010BD0A0401D0801E10BD0902FCD0401E6F
:1005400010BD032A40F2308010F0030C00F015803B
:1005500011F8013BBCF1020F624498BF11F801CBC6
:1005600000F8013B38BF11F8013BA2F1040298BF2B
:1005700000F801CB38BF00F8013B11F0030300F095
:10058000B681083AC0F0088051F8043B083A51F8A7
:1005900004CBA0E80810F5E7121D5CBF51F8043B3E
:1005A00040F8043BAFF30080D20724BF11F8013BB1
:1005B00011F801CB48BF11F8012B24BF00F8013B13
:1005C00000F801CB48BF00F8012B704702F0FF0391
:1005D00043EA032242EA024200F0BDB9014900F0B9
:1005E000DBB90000B805002010B503681C1404EB4B
:1005F00021449BB289B2194494FBF2F302FB1343EA
:1006000094FBF2F401EB034393FBF2F102FB113193
:1006100093FBF2F301E05B1E11440029FBDB016058
:1006200003EB044010BDF0B504464FF0FF3585B034
:100630000068049060680290A0680390E0680190F0
:1006400020690090666906F18040B0F1004F7CD8C7
:100650003C22002104A8FFF7C7FF3C22014602A864
:10066000FFF7C2FF1822014603A8FFF7BDFF411E96
:1006700040F2B55201A8FFF7B7FF0C2207466846C3
:100680000021FFF7B1FF414B00EB8700304400260B
:100690007B4411E0511A01910099491C02290091F3
:1006A00002D00C2908D105E0810705D00199491C29
:1006B000019101E0401C00960099019A595C914219
:1006C000E8DD0099012906D11C2A04D1810702D056
:1006D0000221CDE90016A0F146018B293CD2DDE9CB
:1006E0000061002202E09F5C521C3944B242FADBF6
:1006F000012E02DD820700D0491E40F2B55340F2C0
:100700006D16C21700EB927292105A4300F0030369
:1007100003FB062283070A4400D1521E039E02EB0C
:100720004203049F06EBC303029EC3EB031306EBD5
:100730008303174E33441E149BB2C6EB0616C3EB5D
:100740000313B60007EB830300E005E006EB134656
:1007500066F31F43360C02D0284605B0F0BD80C4B6
:10076000029E40C4039E40C4019E761C44F80C6B5C
:10077000009E44E902600720521C92FBF0F600FB49
:10078000162084E823001846E7E70000CCBD0100EE
:10079000A039CEFD704770477047000070B5064C19
:1007A0007C44064D7D4403E0206820448047241D9E
:1007B000AC42F9D170BD00008CBD01008CBD0100C0
:1007C00010B500F049F9006810BD10B5044600F0FE
:1007D00043F9046010BD2DE9F0470D469946924655
:1007E000044600F124080168880604D5E06921F078
:1007F0001001216000E00120A84201DD471B00E05C
:100800000027A1697A1902EB0900081AA061207873
:10081000C00602D42046FFF74DFD002608E0D4E9CB
:1008200001211AF806009047206A401C761C2062BD
:100830004E45F4DB2078C0060AD52046FFF73AFD86
:1008400006E0D4E9012130209047206A401C206254
:10085000381EA7F10107F4DC07E0D4E9012118F8FC
:1008600005009047206A401C2062281EA5F1010562
:10087000F3DC2046FFF734FD2078000602D5022085
:10088000BDE8F0870120FBE701694A1C0261087896
:10089000704700B58FB0CDE90131002105910549C0
:1008A0007944CDE9031011466846FFF78FFD0FB07C
:1008B00000BD0000E5FFFFFF0A6802F8010B0A60B7
:1008C000704710B5436913B1AFF3008001E0FFF743
:1008D00018FD012010BD127800F124010A700022D9
:1008E0004A700122EDE711684FF0FF32E9E710B5D9
:1008F000203AC0F00B80B1E81850203AA0E8185018
:10090000B1E81850A0E81850BFF4F5AF5FEA027CD8
:1009100024BFB1E81850A0E8185044BF18C918C047
:10092000BDE810405FEA827C24BF51F8043B40F8E8
:10093000043B08BF7047D20728BF31F8023B48BFCD
:1009400011F8012B28BF20F8023B48BF00F8012B0B
:1009500070474FF000020429C0F0128010F0030C21
:1009600000F0D680CCF1040CBCF1020F18BF00F8E7
:10097000012BA8BF20F8022BA1EB0C0100F0C8B896
:100980005FEAC17C24BF00F8012B00F8012B48BFAF
:1009900000F8012B7047000070B50C46016800207C
:1009A0004A1C3ED03C22B1FBF2F302FB1313B1FB15
:1009B000F2F12360B1FBF2F302FB1313B1FBF2F18E
:1009C00018226360B1FBF2F302FB1313B1FBF2F1E7
:1009D00046F2E0320A440721A360B2FBF1F301FBC7
:1009E000132140F2B553B2FBF3F5A161B2FBF3F171
:1009F00003FB15228900B2F5B77F08D39B10521E66
:100A0000B2FBF3F52944B2FBF3F503FB15220F4BC0
:100A1000E261616189077B440CD03B2A0AD3521CF6
:100A200008E02C21204600F071F80120E0600AE087
:100A3000521A401C195C9142FAD9521CC4E9032095
:100A40004FF0FF302062204670BD000046BA010022
:100A5000004870471806002000487047E405002051
:100A600070B5064600F0DAF8056806F10B0020F0D4
:100A70000704B4429CBF002070BD2B466A68BAB11F
:100A80001068A04210D304F1080188423CBF5068AE
:100A9000586007D35168101941601168091B016043
:100AA00058601460101D70BD13465268002AE7D1CB
:100AB0002146284600F0BEF80028DED170BD70B592
:100AC0000446051F00F0AAF80068002C14BF446813
:100AD00070BD002C18BFAC423CBF20466468F8D300
:100AE00001680A18AA4218BF456003D12A68054662
:100AF0001144016028684119A1421CBF6C6070BD9F
:100B00006168696021680844286070BD4FF0000288
:100B100000B5134694469646203922BFA0E80C50F3
:100B2000A0E80C50B1F12001BFF4F7AF090728BFCE
:100B3000A0E80C5048BF0CC05DF804EB890028BF4A
:100B400040F8042B08BF704748BF20F8022B11F073
:100B5000804F18BF00F8012B7047AFF3008010B52D
:100B600000F00DF8016919B100220261884701E027
:100B70008068804700F0B1F810B500F0AEF870B5AD
:100B800000F050F804680546A4B92020FFF768FF7C
:100B9000040011D0094900202C60C4E90001084973
:100BA000A1602073206160610649A06109B100F075
:100BB0009FF8E061204670BD00F08FF80000000053
:100BC000790B00080000000000487047E405002091
:100BD0007546FFF7F9FFAE4605006946534620F01B
:100BE0000700854618B020B5FFF73EFBBDE8204062
:100BF0004FF000064FF000074FF000084FF0000BD9
:100C000021F00701AC46ACE8C009ACE8C009ACE88B
:100C1000C009ACE8C0098D46704700000048704725
:100C2000EC05002000487047200600207047704700
:100C30007047704738B504460A4600206946AFF34E
:100C40000080002808BF38BD02460099204600F009
:100C500073F8012038BD012000F08FB8F8B5AFF36C
:100C60000080054600200C46102000BF0646A8194B
:100C7000A0420DD9324669460020AFF3008007003C
:100C800008BF00F07AF80098A04218BF0546C419C2
:100C9000FFF7C4FF05600746F01D20F00700461966
:100CA000284600F00AF8B44208BFF8BDA21B31463E
:100CB0003868BDE8F84000F03FB800210160C0E9A5
:100CC000011070471020704710B50446AFF3008044
:100CD0002046BDE81040FFF7B2BA10B5002000F082
:100CE00045F8FFF7A1FABDE81040012000F01EB85A
:100CF00010B58820FFF7B4FE002801D00021017054
:100D000010BD802902D808B1017809B100207047D0
:100D1000012100F8081B704718B100F10802914248
:100D200001D0002070470021017070470149182050
:100D3000ABBEFEE726000200034640688C46002852
:100D400018BF88423CBF03464068F8D3186818446F
:100D5000884207D00CF1030020F00700001D411A63
:100D6000521A0146081D0A60FFF7A9BE10B500F02F
:100D700011F8BDE8104000F008B810B500F022F8F6
:100D8000BDE8104000F001B87047002801D0FFF71F
:100D9000CDBF704710B5002102A000F03BF8012044
:100DA00010BD0000534947414252543A2041626EFF
:100DB0006F726D616C207465726D696E6174696FBC
:100DC0006E00000010B5012805D0002103A000F03E
:100DD00021F8012010BD09A1F8E70000534947524E
:100DE000544D454D3A204F7574206F6620686561FB
:100DF00070206D656D6F7279000000003A204865C3
:100E00006170206D656D6F727920636F727275709D
:100E10007465640070B505460C460A2000E06D1C40
:100E200000F011F835B128780028F8D102E0641CF0
:100E300000F009F814B120780028F8D1BDE870401E
:100E40000A20AFF3008008B569468DF80000032042
:100E5000ABBE08BD2DE9F04FCE4ECF4C06F11C03C2
:100E6000B06AA3F1020A002702689AF8011085B05F
:100E70004FF001094FF0780B04F10D0C04F144051B
:100E8000342A7DD022DC162A56D00FDCC1480B2A2A
:100E900000F15400807848D00C2A48D00D2A49D05F
:100EA000152A6ED167721420F0714AE01F2A4ED0C5
:100EB000202A55D02B2A7CD0332A62D190F91810E1
:100EC000197011F80C105970B4492DE1DFF8C48283
:100ED000B2F5D37F08F11A0898F901806AD012DCC4
:100EE000352A68D0A2F580729B3A65D0012A7DD060
:100EF0000A2A46D1B8F1000F79D00020A07100284D
:100F000076D0B77414E0A2F58072B93A71D0452A50
:100F100070D0462A6FD0592A33D1017EC06990F92A
:100F200018209D481430115402E0A07000E0E070D9
:100F3000012007E02071FBE784F80990007E401C47
:100F4000A072022005B0BDE8F04F02F07BBF84F82C
:100F50002C100029ECD0032800D1E7726771D4E08F
:100F6000017E491C49B2017601293CD12989A88812
:100F7000C1EB011100EB8100E0853083864801E080
:100F8000BDE0B2E0383804F021F88348844B02AA6F
:100F900001A9383803F026FFBDF90800BDF9041097
:100FA00000EBD072ABEB620002B201EBD171A0207A
:100FB00003E02CE0C7E0AAE02BE0A0EB610001B267
:100FC0007548774B383803F09FFD4FF47A7004F082
:100FD000D5FE7148383803F0F9FF01F083FD306326
:100FE00001F080FDF062B06A007E05E083E0A5E0DC
:100FF000A6E0AAE094E09BE0022876D12989A8889F
:10100000C1EB011100EB8100E085308390E7E171D5
:101010008EE7017E491C49B20176491E022948D259
:1010200005F10C0007C805F0BFF8A8B12869401EFB
:1010300028616869A0F26C70686157484430FFF716
:10104000F2FA00906846FFF7C9FA2869401C286147
:10105000686900F26C7068614F48383803F0B6FF79
:101060004D484F4B04AA03A9383803F0BBFEBDF925
:101070001010BDF90C0001EBD172ABEB62010AB2AA
:1010800000EBD071A020A0EB610001B24248444BBC
:10109000383803F039FD4FF47A7004F06FFE3E48A3
:1010A000383803F093FF01F01DFD306301F01AFDA5
:1010B000F062B06A007E032817D105F10C0007C862
:1010C00005F072F8A0B12869401E28616869A0F295
:1010D0006C70686130484430FFF7A5FA00906846AC
:1010E000FFF77CFA012002F0ADFE05B0BDE8F08FFD
:1010F000B06A0776F9E7017E491C0176F5E7617170
:10110000002985D0677284F82C70F77010E72349A6
:10111000027E4031C861A018B162007D0876E4E724
:10112000017E59701D492031C861B1620F76DCE73C
:1011300093F90010587801F80C00F9E60120DDE67B
:1011400086F81290F4E62172F2E65246B8F1000FEA
:1011500015D0017E491C49B20176012914D002291B
:10116000C3D101F09FFDBFF34F8F0E4801680E4AB7
:1011700001F4E06111430160BFF34F8FFEE705B05A
:10118000BDE8F04F01F0B6BC82F801908AF80090FB
:10119000ABE70000080000204805002060010020A7
:1011A000369300080CED00E00400FA05FEE70000AD
:1011B0000848816A8A88002A0AD091F91800431CDD
:1011C0005BB20B76934201DB00220A7602F0B2BCDE
:1011D00070470000080000200848816A8A88002AB9
:1011E0000AD091F91800431E5BB20B76002B01DA8E
:1011F000521E0A7602F09EBC7047000008000020D4
:10120000184810B5806A184C90F91800022803D0CD
:10121000012811D0B8B120E0E068401EE0601CD188
:101220001F2001E0E068401EE060D4E9041204F0F1
:10123000BBFF0028F6D010E02069401E20610CD1D1
:101240000C20206109E0606940F2E371401E60619A
:10125000884202DA40F633006061BDE8104000F0D9
:1012600035B80000080000208C05002070B5144837
:10127000144C0125806AD4E9041290F91800022860
:1012800003D0012809D070B116E0E068401CE0608E
:1012900004F08AFF80B9E5600EE0491C21610D2948
:1012A0000AD1256108E0521CA2F500606261343861
:1012B00002D140F2E3706061BDE8704000F006B812
:1012C000080000208C050020704700002DE9F04F39
:1012D000FE4EA7B0B06A00680B2807D00C2805D0D6
:1012E0000D2803D0FA4803F071FE17E000231A46D8
:1012F000194601A803F0F8FF0188ADF800108078C6
:101300008DF80200F248009903F0BAFEC8200346A7
:10131000462200901146EE4803F0A1FBB06AEB4F65
:1013200040F29B120168A0251A370024A1F29B10FD
:10133000914277D01EDC202975D012DCDFF88C8337
:101340006FF0180908F154080D2950D004DC0B295E
:101350004DD00C2928D144E0162951D01F2923D182
:101360000BE12B29FCD033297ED034297DD03529BF
:101370001AD1CFE34FF4A0781F2877D008DC0128DA
:10138000DAD00A2873D00B28EAD01E280CD10DE23F
:10139000CE4F1C3763286BD064286AD07824772816
:1013A00068D0B0F5137F01D0CAA0B4E3CD4B11AA29
:1013B00010A9C74803F016FDBDF94410BDF940005F
:1013C00001EBD171A4EB610100EBD0700AB2A5EB87
:1013D000600001B2C34BBE4803F096FB27B0BDE8E6
:1013E000F08F02F03BFCC0A001F0B0F901E002F088
:1013F00035FC98F902000F22494601F0D5F9EDE7D6
:10140000BDA001F045F9B06A90F91800411C01EB4C
:101410004101890000EB800001EB8000ADF8400045
:1014200000242DE0BCE1BEE1A94804EB4407C83824
:1014300038440188ADF8001080788DF80200A44887
:10144000009903F01DFEBDF940005A2100EBD07059
:10145000A5EB6000009100EB870004EB840100EB3A
:10146000810001B20C2306E0E4E212E088E2FDE034
:1014700031E3F3E3F3E34B22954803F0F0FA641C05
:10148000B06A90F91800401CA042CDDC02F0E6FBE7
:10149000A4E700219BA001F029F99D498C4803F0A5
:1014A000DBFD787818B1FF231A46194602E00023C5
:1014B0001A4619461AA803F017FF787818B138238E
:1014C000A522132102E0FF231A46194619A803F0AA
:1014D0000BFFBDF86800ADF814009DF86A008DF8A8
:1014E0001600BDF86400ADF810009DF866008DF898
:1014F0001200787800B1012086A10091CDE90104A5
:1015000064231A4619461420039401F09FF9787851
:1015100018B100231A46194602E0FF231A4619465D
:1015200019A803F0E1FE787818B1FF231A4619468E
:1015300002E03823A52213211AA803F0D5FEBDF836
:101540006400ADF814009DF866008DF81600BDF833
:101550006800ADF810009DF86A008DF812007878E8
:1015600048B100206CA10091CDE9010464231A4622
:101570001946039474E00120F4E76549544803F0E8
:101580006BFD787818B1FF231A46194602E0002354
:101590001A4619461CA803F0A7FE787818B138231C
:1015A000A522132102E0FF231A4619461BA803F0C7
:1015B0009BFEBDF87000ADF814009DF872008DF828
:1015C0001600BDF86C00ADF810009DF86E008DF8A7
:1015D0001200387800B10120797801B101214DA2C3
:1015E000CDE90021CDE9020464231A4646211420E6
:1015F00001F02CF9787818B100231A46194602E058
:10160000FF231A4619461BA803F06EFE787818B11E
:10161000FF231A46194602E03823A52213211CA8ED
:1016200003F062FEBDF86C00ADF814009DF86E008A
:101630008DF81600BDF87000ADF810009DF872002E
:101640008DF81200387868B10020797861B10021F6
:1016500031A2CDE900216423CDE902041A464621D6
:10166000C82088E10120F0E70121F1E72849184866
:1016700003F0F2FC787818B1FF231A46194602E00D
:1016800000231A4619461EA803F02EFE787818B1DA
:101690003823A522132102E0FF231A4619461DA86C
:1016A00003F022FEBDF87800ADF814009DF87A0032
:1016B0008DF81600BDF87400ADF810009DF87600A6
:1016C0008DF81200787800B1012027E00800002092
:1016D000100500204E6F7420696D706C656D656E2D
:1016E000746564003693000845636F203C20436FA7
:1016F0006D666F7274000000506F776572206C65C4
:1017000076656C0050726F6772616D6D65000000E8
:10171000177001084F4E00004F464600FEA1009191
:10172000CDE9010478231A463C211420039401F0EA
:101730008DF8787818B100231A46194602E0FF2385
:101740001A4619461DA803F0CFFD787818B1FF237B
:101750001A46194602E03823A52213211EA803F0D9
:10176000C3FDBDF87400ADF814009DF876008DF847
:101770001600BDF87800ADF810009DF87A008DF8DD
:101780001200787850B10020E4A10091CDE9010465
:1017900078233C211A46B4200394ECE00120F3E7BF
:1017A00001F05CFF1AE602F0A1F817E6DD49DE4819
:1017B00003F052FCB06A90F9180010B1012848D02B
:1017C0006BE000231A46194607A803F08DFDFF239E
:1017D00005461A46194606A803F086FD01462888E4
:1017E000ADF81400A8788DF816000888ADF8100040
:1017F00088788DF81200CDA0CDE900040021029474
:101800003C23464642460846039401F01FF8002355
:101810001A46194606A803F067FDFF2305461A4637
:10182000194607A803F060FD2988ADF81410A978BF
:101830008DF816100188ADF8101080788DF8120020
:10184000BFA0CDE900043C23029432462D2103942D
:1018500020E000231A46194607A803F045FDFF23A0
:1018600005461A46194606A803F03EFD2988ADF83C
:101870001410A9788DF816100188ADF81010807832
:101880008DF81200B1A0CDE900043C230294424639
:1018900000210394002000F0D9FFA249A24803F0E0
:1018A000DBFB787818B1FF231A46194602E00023C3
:1018B0001A46194620A803F017FD787818B1382386
:1018C000A522132102E0FF231A4619461FA803F0A0
:1018D0000BFDBDF88000ADF814009DF882008DF876
:1018E0001600BDF87C00ADF810009DF87E008DF864
:1018F0001200787800B1012098A10091CDE901048F
:101900005A231A4673211420039400F09FFF78781D
:1019100018B100231A46194602E0FF231A46194659
:101920001FA803F0E1FC787818B1FF231A46194686
:1019300002E03823A522132120A803F0D5FCBDF82E
:101940007C00ADF814009DF87E008DF81600BDF8FF
:101950008000ADF810009DF882008DF812007878B4
:1019600060B100207EA10091CDE901045A231A46FE
:101970007321D220039400F069FF2FE50120F1E7E5
:101980006849694803F068FB00231A46194622A8F3
:1019900003F0AAFCFF2305461A46194621A803F0C6
:1019A000A3FC2988ADF81410A9788DF816100188C9
:1019B000ADF8101080788DF812006AA0CDE900040F
:1019C00002943C234546424646210020039400F001
:1019D0003DFF69A36AA26DA112A8FEF757FC002281
:1019E00012A9514802F0BBFF0023ADF840001A468F
:1019F000194621A803F078FCFF2306461A4619462B
:101A000022A803F071FC01463088ADF81400B078CC
:101A10008DF816000888ADF8100088788DF812004F
:101A200012A8CDE900043C23732102942A46002029
:101A30000394A0E7DFF8F080564E002508F138083F
:101A400008EB0500417B072900D94473FF231A46A0
:101A5000194617A803F048FC0188ADF800108078FB
:101A60008DF802003048009903F00AFB4A492E48DD
:101A700003F0F2FA00231A46194618A803F034FCC2
:101A8000FF2307461A46194617A803F02DFC39888C
:101A9000ADF81410B9788DF816100188ADF8101053
:101AA00080788DF8120056F83500CDE9000406EB79
:101AB000C50002940394B0F90610B0F904001E2387
:101AC000322200F0C3FE3549174803F0C5FA6D1CF9
:101AD000072DB5DB82E497F9000007280CD2DFE878
:101AE00000F004078184878A8D0000212CA001E08A
:101AF00000212DA000F0FAFD28490B4803F0ACFAB4
:101B0000DFF8249000254FF0020B09F14509BA4691
:101B100000264DE04AE1CAE135302500313030255C
:101B2000000000005F7D010810050020526573650C
:101B30007420616C6C206465766963650000000048
:101B400073657474696E67733F00000041726520AD
:101B5000796F7520737572653F00000059657300D9
:101B60004E6F000043757272656E74206669726D07
:101B7000776172650000000031322E332E3700008D
:101B800076657273696F6E3A2000000025732573C5
:101B900000000000587F000876A8010881BF0108F6
:101BA0004D6F6E64617900005475657364617900EE
:101BB000C5EB051000EB80005030BE4F0FFA80F8E7
:101BC000C6EB061000EB8000163000B21890B86A21
:101BD00006EB850490F91800A04212D1FF231A46A3
:101BE000194611E00021B4A084E70021B5A081E7E7
:101BF0000021B7A07EE70021B7A07BE70021B9A0B4
:101C000078E700231A46194624A803F06DFBB86A4A
:101C100090F91800A04203D13823A522132102E035
:101C2000FF231A46194623A803F05EFBBDF8900077
:101C3000ADF814009DF892008DF81600BDF88C00E8
:101C4000ADF810009DF88E008DF812009AF9002072
:101C500012F80910A14203D1012202E01FE0AFE017
:101C60000022B96A91F91810A14201D1012300E0C4
:101C7000002390491898583151F82410CDE90013E9
:101C8000CDE9022B32231A46414600F0DFFD761CD7
:101C9000042E95DB6D1C022DFFF63AAF82E597F915
:101CA00001006FF0040108280AD2DFE800F0040602
:101CB00017191B1D1F218DA000E08FA000F016FD3D
:101CC0009049914803F0C8F997F90100072811DA03
:101CD0008E4900EB400001EBC0060DE08CA0EDE763
:101CE0008EA0EBE790A0E9E792A0E7E794A0E5E7F4
:101CF00096A0E3E7844E4C360025A34605EB45004D
:101D0000002400EB0511412000EB410005EB450AE2
:101D10000FFA80F904EB4401132000EB011804EBE7
:101D20004A073A468BA108A8FEF7B0FAF05D0328EF
:101D300003D94FF00100F05505E004D14FF0FF0347
:101D40001A46194603E04FF000031A46194624A824
:101D500003F0CAFAF05D6C4900EB4002B939114456
:101D600003280A88ADF8142089788DF81610BDF87C
:101D70009010ADF810109DF892108DF8121013D03D
:101D8000002208A9CDE9001BCDE902B220232A22B6
:101D900049460FFA88F000F059FD641C062CB9DBA7
:101DA0006D1C042DAADBFDE40222EAE76FF00201BC
:101DB00069A000F09BFC4FF0FF3001F0BBFEF1E4A6
:101DC00001F04CFFB06A90F9180058B1012824D0F6
:101DD00002283ED0634B11AA10A94B4803F002F829
:101DE000B0B363E0604B11AA10A9474802F0FAFFB4
:101DF00088B9BDF94410BDF9400001EBD171A4EBE5
:101E0000610100EBD0700AB2A5EB600001B2564B45
:101E10003D4802F079FE55A049E0564B11AA10A9A1
:101E2000394802F0DFFF88B9BDF94410BDF9400020
:101E300001EBD171A4EB610100EBD0700AB2A5EB0C
:101E4000600001B24B4B304802F05EFE4AA02EE02B
:101E50001AE04A4B11AA10A92B4802F0C3FF88B917
:101E6000BDF94410BDF9400001EBD171A4EB610153
:101E700000EBD0700AB2A5EB600001B23F4B2248E4
:101E800002F042FE3EA012E0BDF94410BDF9400050
:101E900001EBD171A4EB610100EBD0700AB2A5EBAC
:101EA000600001B22F4B184802F02EFE37A000F060
:101EB000EFFB77E4080000205765646E657364618A
:101EC0007900000054687572736461790000000045
:101ED0004672696461790000536174757264617956
:101EE0000000000053756E64617900005052455344
:101EF00045542031000000005052455345542032D3
:101F00000000000076A8010810050020907F00085E
:101F10005052455345542033000000005052455361
:101F2000455420340000000050524553455420359C
:101F30000000000050524553455420360000000078
:101F40005052455345542037000000004355535428
:101F50004F4D000025640000435553544F4D20322F
:101F6000346800007B220108DD840008436F6D6641
:101F70006F7274000289000845636F00DA8C0008F4
:101F8000416E74692D66726F737400004F6666004F
:101F90002DE9F043C34E8046C34DB06A89B010B1FD
:101FA000687800287ED0B8F1010F21D0002004F01D
:101FB000F5FFBD48383803F009F8FF231A461946E3
:101FC00006A803F091F90188ADF8001080788DF82B
:101FD0000200B5480099383803F052F8E87A002733
:101FE00008B3012827D0022833D0032875D138E060
:101FF00000231A46194601A803F076F90188ADF8C6
:10200000001080788DF80200A7480099383803F056
:1020100037F85F200090A448C8233C226421383858
:1020200002F01DFDC9E703F0BBFE0022114600F0DF
:10203000BBFB9E4B06E003F0B3FE0022114600F00E
:10204000B3FB9B4B98480F221621383802F05CFDF9
:1020500039E003F0A5FE0022114600F0A5FB954BE8
:10206000F0E79148944B3C229621383802F04CFD21
:102070008D489249383802F0EFFF00231A4619467E
:1020800008A803F031F9FF2304461A46194607A8A9
:1020900003F02AF92188ADF81410A1788DF81610F4
:1020A000018800E0F7E0ADF8101080788DF812009C
:1020B00083A0CDE9000702972D235222A0218C2076
:1020C000039700F0C3FBE87A032806D176487D4BDE
:1020D0003B221621383802F017FD00231A46194614
:1020E00001A803F001F90188ADF8001080788DF89F
:1020F00002006D480099383802F0C2FFE97A1A20D0
:1021000003294FF02B0300902CD0308C7D22801DB2
:1021100001B26548383802F0A2FCFF231A4619467E
:1021200001A803F0E1F80188ADF8001080788DF87F
:1021300002005D480099383802F0A2FF287B48B1C0
:10214000E87A032806D058485F4B81221621383898
:1021500002F0DAFC95F82C00012806D068790128F5
:1021600014D009E03B221621D3E7584B47224E48B2
:102170001621383802F0C8FCE87A03287CD0687A47
:1021800005244FF00C09012806D007E0E87A504BEF
:102190000328EBD19622EAE7687930B1307D132825
:1021A00029D80F281BD9042425E0AC7A052C09D0A6
:1021B000042C09D0032C0AD0022C0CD0012C0CD0FA
:1021C000F77119E0142000E01020F07101E086F8AA
:1021D0000790002612E00820F7E70420F5E70A2818
:1021E00001D3032407E0052801D9022403E008B144
:1021F000012400E00024B47000261FE0354906EBFE
:10220000460008440188ADF8001080788DF802007F
:1022100025480099383802F033FF06EB061000EB32
:10222000461000EBC600163001B21F483123CD2204
:102230003838CDF8009002F012FC761CA642DDDBA7
:10224000FF231A46194601A803F04EF80188ADF89D
:10225000001080788DF8020013480099383802F099
:102260000FFF11481C49383802F0F6FE687A012841
:1022700001D1687990B100E007E018A300970A48FF
:10228000B7221521383802F0CFFEB8F1010F02D085
:10229000012004F083FE09B0BDE8F08311A300978C
:1022A000EDE700000800002048050020D2020108E8
:1022B000AC000108BAFC00087B2201085F7D010820
:1022C0004F66660041510108B6F9000887F400081E
:1022D00081F7000848040020CDBC01084155544F47
:1022E00000000000435553544F4D0000F0B5844E9C
:1022F00087B0B06A00286ED08068E8B1814802F0EB
:1023000065FE01F0ABFCB06A816890F9180001EB42
:1023100040107C490068383129286FD022DC0C2815
:1023200056D00EDC0C2856D2DFE800F0E8404346D9
:10233000494CE8E8E8E8E84F07B0BDE8F040FEF7B0
:10234000C5BF16284BD006DC0D2845D0152842D134
:102350006D4D6EA47FE01F2844D020283BD16D4DE9
:102360006DA478E040F29B13A0F29B1298426AD0D1
:102370000BDCA0F12A000C282DD2DFE800F0545726
:102380005EBFBFBFBFBFBF40434E0B2A61D006DC5C
:10239000012A5BD00A2A1ED1624D63A45BE01E2A8B
:1023A0004ED01F2A17D1634D63A454E0654D66A437
:1023B00051E0684D68A44EE0694D6AA44BE06B4D56
:1023C0006BA448E06D4D6EA445E0704D70A442E0F2
:1023D000714D72A43FE091E0714D72A43BE0744DE9
:1023E00074A438E091F82C00002801D0734D00E06F
:1023F000734D01D073A42EE075A42CE010E0784D4D
:1024000078A428E04879002801D0784D00E0784D84
:1024100001D078A41FE078A41DE0784D78A41AE0DC
:102420007A4D7BA417E07D4D7DA414E0C87908B1F6
:102430007D4D00E07D4D7EA40DE07F4D7FA40AE040
:10244000804D81A407E04D4D81A404E0834D84A418
:1024500001E0864D86A4EDB32B4604AA03A92948C2
:1024600002F0C0FCA02790B9BDF91010BDF90C0016
:1024700001EBD1717822A2EB610100EBD0700AB2BE
:10248000A7EB600001B22B461E4802F03DFBB06A8C
:10249000816890F9180001EB40100068202825D1D0
:1024A0007749184802F0D8FD318B3C20B1FBF0F29F
:1024B00000FB1213B1FBF0F272A105A8FDF7E6FED6
:1024C000002205A90F4802F04AFA014600200090B8
:1024D000019000E00AE0029001EBD170A7EB6000F0
:1024E00000B2002305AA672100F046FA002C05D0AF
:1024F00007B02046BDE8F04000F0CAB807B0F0BD14
:1025000008000020100500203E9C00084175746FF3
:1025100000000000C14101085365742074696D65B5
:1025200072000000B1E100084272696768746E656C
:102530007373000018290108496E666F726D61742B
:10254000696F6E003880000848656174206D6F64A3
:1025500065000000FA980008506F7765720000006F
:102560007AA4000854696D65720000007AB300080F
:1025700053657474696E67730000000075BB0008D2
:1025800050726F6772616D6D65000000DD84000838
:10259000436F6D666F7274000289000845636F00B7
:1025A000DA8C0008416E74692D66726F73740000D6
:1025B00078A00008437573746F6D0000A2AE000828
:1025C0005AAA000854696D6572206973206F6E0005
:1025D00054696D6572206973206F666600000000A3
:1025E0002A0501085365747570000000240A01086B
:1025F000E61001084F6E00004F666600A117010843
:10260000437573746F6D206461790000BD440108E7
:102610004461746520262074696D6500D7D0000878
:10262000446973706C61790016C00008EBC600083D
:10263000536F756E640000007F1B0108536572764E
:1026400069636500142F010852657365740000000A
:10265000536574206461746500000000243C010827
:102660005365742074696D6500000000CED70008C2
:102670004175746F20737769746368206F666600B4
:1026800017700108253032643A25303264000000AA
:102690001CB5FF2304461A46194601A802F024FE81
:1026A0000188ADF8001080788DF802000D4800997F
:1026B00002F0E6FC0C490B4802F0CEFC0022214659
:1026C000084802F04CF90021009100EBD070A021E5
:1026D000A1EB600001B22346B922024802F0A4FC3B
:1026E0001CBD0000100500205F7D01087CB5FF23A4
:1026F0000C4605461A46194601A802F0F5FD018868
:10270000ADF8001080788DF802000E48009902F0B4
:10271000B7FC0D490B4802F09FFC002229460948EE
:1027200002F01DF90021009100EBD070A021A1EB77
:10273000600001B22B4604F11A02024802F074FC58
:102740007CBD0000100500205F7D01081CB5FF2343
:1027500004461A46194601A802F0C6FD0188ADF8E4
:10276000001080788DF802000D48009902F088FC76
:102770000C490B4802F070FC00222146084802F088
:10278000EEF80021009100EBD070A021A1EB6000D9
:1027900001B223461022024802F046FC1CBD000094
:1027A0001005002076A80108F0B5FF2387B0174672
:1027B0000D4604461A46194606A802F095FD018802
:1027C000ADF8001080788DF802001A48009902F0E8
:1027D00057FC224618A101A8FDF758FD17491548D6
:1027E00002F03AFC002201A9124802F0B8F80446AF
:1027F00000EBD470A521A1EB60000544002607F191
:102800003C0201AB174629B20A48009602F00CFCC4
:102810000B49084802F020FC281901B20C4609A314
:102820003A460448009602F0FFFB0748048407B0CC
:10283000F0BD000010050020256400004A54010886
:10284000836E0108B0430000080000202DE9FF4F0F
:102850008BB09346DDE91C54DDE918179946002238
:102860004448DDF86CA002F07AF80490414802F088
:1028700046F980460B990BEBDB72049801EB620181
:1028800000EBD070A1EB600000B202900C9909EB54
:10289000D97201EB620108EBD870A1EB600000B2C5
:1028A00001900FB1294600E02146324802F0E8FBD2
:1028B000CDF80090DDE90B125B462E4802F0CFF810
:1028C00047B121462B4802F0DBFBBAF1000F1AD0CA
:1028D00017B119E02946F5E7002611E0704209EB2F
:1028E00040010BEB400003B20C9809B2304402B235
:1028F0000B980091304401B21E4802F088F8761C13
:102900005645EBDB02E00FB1294600E021461948AD
:1029100002F0BEF800200090DDE901211548189B67
:1029200002F082FB1A9878B10FB32146114802F0E9
:10293000A7FB032000900198049B4044401D02B275
:102940000C48029902F08BF800231A46194609A890
:1029500002F0CAFC0188ADF8001080788DF8020002
:102960000448009902F094F80FB0BDE8F08F2946B2
:10297000DCE70000100500202DE9FF4F83B01C00AC
:10298000DDE91187DDF840B00E46824603D0FF2313
:102990001A46194602E000231A46194601A802F019
:1029A000A3FC3948019902F06BFB002236480599D7
:1029B00001F0D5FF8146344802F0A1F8054600EB4E
:1029C000470000B2009009EB480003B2F01B02B2CE
:1029D000AAEB080001B22C4802F041F874B10023C0
:1029E0001A46194601A802F07FFC2748019902F017
:1029F00047FB3CB1FF231A46194606E0FF231A465F
:102A00001946EFE700231A46194601A802F06CFCAC
:102A10001D48019902F03CF80020009032465146D2
:102A20001948059B02F000FBBBF1000F14D034B332
:102A300000231A46194602A802F056FC12480299D1
:102A400002F01EFB042000907019401D02B24B469C
:102A500051460D4802F003F800231A46194601A812
:102A600002F042FC0188ADF8001080788DF8020079
:102A70000548009902F00CF807B0BDE8F08FFF237D
:102A80001A461946D7E700001005002010B5124C71
:102A900000204FF09041A0740120886100F022F8DE
:102AA000A16B884216D9A07980F00100A07100F0D6
:102AB00019F800F5FA70A063084802F087FAA079C7
:102AC000002807D04022BDE81040054B6421034890
:102AD00002F01AB810BD0000080000201005002008
:102AE0000F4B0108014800687047000000000020FB
:102AF000FEE7FEE710B5174CA06AC06928B30020B6
:102B000004F04CFAA26A04F11A001168332910D0BB
:102B1000A1F58073B93B02D1002101704170D069E9
:102B2000C4F82800FFF7E2FBBDE81040012004F0E4
:102B300035BA09494B79002BF1D1D369074AA26212
:102B4000D361497901704170ECE7BDE8104000F0B5
:102B500021BA00000800002048050020E001002004
:102B600070470907090E002806DA00F00F0000F18F
:102B7000E02080F8141D704700F1E02080F8001478
:102B800070470000024900204870FEF79FBB00001C
:102B900022000020024901204870FEF797BB000088
:102BA0002200002070470000F0B43C483B4A00245B
:102BB000836A3B481A321968332957D01BDC16291F
:102BC00040D00FDC354A0B2902F154022CD00323EC
:102BD00007240C292ED00D292ED0152930D1F0BC78
:102BE000FEF738B91F2931D0202932D02B2927D11F
:102BF000C07910704EE040F2A516A1F2A515B142C1
:102C000038D00ADC342933D035292FD0A1F5807192
:102C10009B392BD0012913D128E0012D3CD0142D54
:102C200024D0592D0CD121E0807890700A201070AA
:102C300023202FE0C07800E000799070137054706A
:102C4000F0BC7047807A401E1876F9E790F82C00A7
:102C5000CFE7C28D3C21B2FBF1F5114844308560CD
:102C6000B2FBF1F501FB1521C0E900411C76E7E755
:102C70004079BEE78079002807D000BF4FF0000000
:102C8000107005D14FF0010004E04FF00100F7E7AC
:102C90004FF000005070D3E7007AAAE70800002048
:102CA0004805002070B5154C012000252070657086
:102CB000052121711821A1700421E1706571E5726F
:102CC00065722573A07284F82C504FF43471E1853D
:102CD000E071A071257203206073A073E07320740B
:102CE0006074A074E0740122182104F11400FDF74F
:102CF0006DFC25636563A563E56370BD4805002031
:102D0000704710B503F042F8BDE8104000F0A4B8D9
:102D1000484810B546494160474A42608160826038
:102D2000016941F020010161016941F04001016147
:102D3000C168C907FCD1016921F020010161016965
:102D400041F010010161C16911F0060F3B490AD041
:102D5000C269C2F34102012A07D0C269C2F341022B
:102D6000032A04D005E0A52202E0BB2200E0CC2229
:102D70000A80C169DF2202EA1121304A921C1180C7
:102D8000C169921CC1F307411180C169090E921CEF
:102D90001180016A921CC9B21180016A921CC1F3B0
:102DA00007211180016921F01001016124480168A7
:102DB00041F4700101602348016841F001010160A4
:102DC00001688907FCD541681F4A1140416041688C
:102DD0001E4A1140416001681D4A11400160C16AEC
:102DE0001C4A1140C162016B40F20312914301631E
:102DF000016B21F480310163016B21F0004101631B
:102E0000416B21F001014163D0F8C01021F4803101
:102E1000C0F8C01000218160C0F8CC1004F00CF99B
:102E2000BDE8104000214FF0006003F005BF000036
:102E30002301674500200240AB89EFCD00F8FF1F5A
:102E400088ED00E0001002400C00FF08FFFFC27791
:102E5000FFFFF2FEF0FFFF3F02480168491C0160DE
:102E6000704700000000002010B5084C01212046EA
:102E700004F025FB012807D10121204604F01CFBAA
:102E8000BDE8104000F004B810BD00000020004074
:102E90007047000006488178491E49B2817090F958
:102EA0000020914201DA41788170FEF70FBA0000EC
:102EB0005C00002006488178491C49B2817090F975
:102EC0000120914201DD01788170FEF7FFB9000019
:102ED0005C000020154830B4826A154892F9184009
:102EE000D0E9011314B1012C0FD018E05B1E8360F0
:102EF0001268202A00D123B1002B10DA172181603B
:102F00000DE061B90121416009E0491E416014688A
:102F10003B22202C00D12BB1002900DA426030BCCA
:102F2000FEF7D4B90129F9DBF9E700000800002019
:102F30008C050020F0B4144800250124836A13484E
:102F400093F91860D0E9011216B1012E0CD014E0EB
:102F5000521C8260172A00DD85601A68202A0CD175
:102F6000826852B971B108E0491C41601B68202B8E
:102F700000D12AB13B2900DD4560F0BCFEF7A6B9BF
:102F80003B29FADD4460F8E7080000208C050020AA
:102F9000FEE70000024900208862FEF7F9BF00004A
:102FA0000800002010B500214FF4807002F0B8FE38
:102FB0000121084602F0DAFD07220521002002F077
:102FC00051FE0121022002F0ABFE002002F08CFE37
:102FD0000121084602F002FE4FF46021012002F0B8
:102FE0001BFE002002F0E0FD02F0ECFD0A2002F0E2
:102FF000C5FE02F0A9FDBDE81040012002F080BE30
:1030000010B50B4C00220949204603F00DF80022B0
:1030100081231146204603F0B2F8204603F085F8DC
:103020002046BDE81040012102F0EABF801A0600E8
:10303000005400402DE9F041314C0126314DA07C77
:10304000022804D1287810B100F066FF0026FFF7AF
:1030500049FDE062687800274FF0010880B32878C6
:1030600020B1A07C012814D098B114E0254838384C
:1030700002F07EFAA87908B1A77401E084F8128002
:1030800000F04AFF8C20E08200F0A6FF0020BDE89F
:10309000F08100F041FF1B48383802F069FAA87946
:1030A00008B1A77401E084F8128000F095FFFFF7E3
:1030B00019FDA0F5D2407838E06268780026B0B9F2
:1030C0002878A0B1287A40B1A07C022805D1002040
:1030D000FEF75EFFFFF706FD60640A48383802F02D
:1030E00047FAA87908B1A77401E084F81280FFF7C5
:1030F000F9FC41F28831084460643046C7E70000BB
:10310000080000204805002010B540F2115003F0DF
:103110001BFF40F2125003F017FF40F20E7003F055
:1031200013FF40F2117003F00FFF40F2126003F042
:103130000BFF4FF4E06003F007FF40F2096003F07B
:1031400003FF40F2157003F0FFFEBDE810400620BB
:1031500003F0D4BD2DE9F04101224FF09046022347
:103160001146304602F0F2FE0223032200213046CF
:1031700002F00EFF202300220321304602F0E6FE7B
:1031800001220221304602F0AFFE0123002202217B
:10319000304602F0DBFE012303220021304602F01C
:1031A000F7FE3E4F4FF4007422460221384602F0EB
:1031B0009BFE022223461146384602F0C7FE00223B
:1031C00023461146384602F0E3FE224604213046EB
:1031D00002F08AFE65002A460421304602F084FE91
:1031E000234601220221304602F0B0FE234603228C
:1031F0000121304602F0CCFE2B460122022130464E
:1032000002F0A4FE2B4603220121304602F0C0FE4C
:103210004FF4204422460021384602F065FE234642
:1032200000220221384602F091FE234603220021AB
:10323000384602F0ADFE40F6044401222346114612
:10324000384602F083FE234603220021384602F06E
:103250009FFE04220121304602F046FE0822012191
:10326000304602F041FE042301220221304602F0E2
:103270006DFE042303220021304602F089FE08235C
:1032800001220221304602F061FE3046BDE8F041E5
:1032900008230322002102F07BBE00000004004846
:1032A0002DE9F043002391B01A4619460BA802F00D
:1032B0001BF80188ADF8001080788DF80200CD4829
:1032C000009901F0E5FBFF231A4619460BA802F00E
:1032D0000BF80188ADF8001080788DF80200C54821
:1032E000009901F0CDFEDFF80C83002508F13808C5
:1032F000C14C98F80600012608B1A57400E0A67438
:10330000BC4801F063FEBB4802F032F9002003F034
:1033100045FEBA4B0DAA0CA9B64801F063FDA027E3
:1033200090B9BDF93410BDF9300001EBD1716E22B6
:10333000A2EB610100EBD0700AB2A7EB600001B212
:10334000AE4BAC4801F0E0FB012003F027FE4FF448
:10335000FA69484602F012FD002003F01FFEA5485E
:1033600001F034FEA348C838B0F80F10ADF80010D3
:10337000407C8DF802009F48009901F081FEA04931
:103380009C4801F069FE8C20E08200229DA19948B2
:1033900001F0E5FA00EBD070A7EB600001B299A351
:1033A00035229448009501F03FFE00229AA19148F1
:1033B00001F0D5FA00EBD070A7EB600001B296A344
:1033C00053228C48009501F02FFEFF231A46194620
:1033D0000BA801F089FF0188ADF8001080788DF806
:1033E00002008448009901F04BFE00228DA1814823
:1033F00001F0B5FA00EBD070A7EB600001B289A331
:1034000089227C48009501F00FFE8AA38BA28CA133
:1034100006A8FCF73BFF002206A9764801F09FFAB8
:1034200000EBD070A7EB600001B206ABB922714887
:10343000009501F0F9FD012003F0B0FD484602F0CF
:103440009DFC002003F0AAFDA562656498F80510B4
:10345000012901D188F80B1002F0B8FC607010F15E
:103460007F0F4FF4A0772ED07F2857D030287DDDF6
:10347000002000F053FE032020716079002876D1EF
:1034800066715C4801F0A2FD6F495A4801F0E4FD05
:1034900000231A4619460FA801F026FFFF23044611
:1034A0001A4619460EA801F01FFF2188ADF8141026
:1034B000A1788DF816100188ADF8101080788DF87D
:1034C000120062A057E0002000F028FE267160790B
:1034D00000285AD16671474801F078FD5A4945489D
:1034E00001F0BAFD00231A4619460FA801F0FCFEB0
:1034F000FF2304461A4619460EA801F0F5FE0146C0
:103500002088ADF81400A0788DF816000888ADF872
:10351000100088788DF812004DA02CE0002000F0FB
:10352000FDFD02202071607900282ED1667131489E
:1035300001F04CFD44492F4801F08EFD00231A464E
:1035400019460FA801F0D0FEFF2304461A4619467B
:103550000EA801F0C9FE2188ADF81410A1788DF8ED
:1035600016100188ADF81010807801E010E00CE032
:103570008DF8120037A0CDE9000500210295F02357
:103580003A4608460395FFF761F911B0BDE8F083AC
:1035900010F11A0F4FF0000029DA00F0BFFD0420EF
:1035A000207160790028F0D16671124801F00EFD9B
:1035B0002549104801F050FD00231A4619460FA86E
:1035C00001F092FEFF2304461A4619460EA801F0A8
:1035D0008BFE2188ADF81410A1788DF816100188A3
:1035E000ADF8101080788DF812001BA0C3E7FEF72D
:1035F000CFFCCAE7100500200800002096E700086D
:1036000076A801086469676974616C20494E564563
:103610005254455200000000746563686E6F6C6F11
:1036200067790000454E4552475920534156494E4F
:103630004700000031322E332E370000562E000096
:1036400025732573000000004A540108453300002B
:10365000453100004532000045340000F0B5944C7F
:103660008DB094A10AA8E268FCF710FE91A10BA806
:103670002269FCF70BFE91A108A86269FCF706FE1F
:103680009049A4F17C0001F0E7FCA4F17C0001F07A
:1036900036FAC0F1780007B2002208A9A4F17C0034
:1036A00001F05DF9884CC6B2A06A007E00287DD08A
:1036B00000231A46194606A801F016FEA06A007EED
:1036C000002874D0FF231A46194607A801F00CFE03
:1036D000BDF81800ADF814009DF81A008DF816001A
:1036E000BDF81C00ADF810009DF81E008DF812000A
:1036F000A06A0025007E00287CD0002008A9009147
:10370000CDE901053C2306F1140239461920039541
:10371000FFF79CF8664800220BA97C3801F01FF9DE
:10372000C6B2A06A007E012865D000231A46194659
:1037300007A801F0D9FDA06A007E01287DD0FF23F3
:103740001A46194606A801F0CFFDBDF81C00ADF8D9
:1037500014009DF81E008DF81600BDF81800ADF895
:1037600010009DF81A008DF81200A06A007E012852
:1037700000D000200BA90091CDE9010506F114024B
:103780003C23164639469B200395FFF75FF84848CF
:1037900000220AA97C3801F0E2F8A06A007E022823
:1037A00077D000231A46194607A801E05EE061E0E1
:1037B00001F09AFDA06A007E02286FD0FF231A460E
:1037C000194606A801F090FDBDF81C00ADF81400E4
:1037D0009DF81E008DF81600BDF81800ADF8100019
:1037E0009DF81A008DF81200A06A007E022859D0B8
:1037F000002001E042E043E00AA90091CDE9010583
:103800003C2332463946EB200395FFF71FF8FF2390
:103810001A46194606A801F067FD0188ADF80010A8
:1038200080788DF80200224800997C3801F028FC4D
:1038300000231A46194606A800E026E001F054FDD0
:103840000188ADF8001080788DF8020018480099C2
:103850007C3801F01DF9A06A90F9180020B3012806
:1038600024D01AA0FEF714FF0DB0F0BDFF231A46B6
:10387000194620E73823A522132126E701203DE73A
:10388000FF231A46194653E703E03823A5221321E4
:1038900058E7FF231A46194686E7FFE73823A52293
:1038A00013218EE70120A4E70AA0DBE70CA0D9E7EB
:1038B0008C0500202530326400000000253034647F
:1038C00000000000177001080800002053657420F4
:1038D00064617900536574207965617200000000AD
:1038E000536574206D6F6E74680000002DE9F0431D
:1038F0008BB08449844801F0AFFB834801F0FFF8A6
:10390000814FC0F178007C370FFA80F97FA107A8BA
:10391000BA68FCF7BBFC002207A97B4801F01FF83E
:103920007C4DC6B2A86A007E00287CD000231A46CF
:10393000194606A801F0D8FCA86A007E002873D0BA
:10394000FF231A4619460AA801F0CEFCBDF818005C
:10395000ADF814009DF81A008DF81600BDF8280087
:10396000ADF810009DF82A008DF81200A86A002416
:10397000007E00287ED000210DF11C0840468DE815
:1039800013005720A0EB56003C23462249460394DF
:10399000FEF75CFF5DA107A87A68FCF777FC0022C0
:1039A00007A9594800F0DBFFC6B2A86A007E0128CB
:1039B0007DD000231A4619460AA801F095FCA86A92
:1039C000007E012874D0FF231A46194606A801F08C
:1039D0008BFCBDF82800ADF814009DF82A008DF886
:1039E0001600BDF81800ADF810009DF81A008DF80B
:1039F0001200A86A007E012871D00021CDF8008055
:103A0000CDE90114CB20A0EB56003C2346224946C9
:103A10000394FEF71BFFFF231A46194606A801F080
:103A200063FC018801E056E05AE0ADF800108078B0
:103A30008DF802003448009901F022FB00231A4659
:103A4000194606A801F050FC0188ADF800108078F6
:103A50008DF802002C48009901F01AF800231A464C
:103A600019460AA801F040FCFF2307461A461946EA
:103A700006A800E038E001F037FC0646002226A147
:103A8000214800F06CFF3988ADF81410B9788DF832
:103A900016103188ADF81010B1788DF812101EA1F3
:103AA000CDE90014029400EBD070A02101E01DE0EC
:103AB00020E0A1EB600000B23723042249460394C2
:103AC000FEF7C4FEA86A007ED0B114A0FEF7E0FDA8
:103AD0000BB0BDE8F083FF231A46194629E70DE035
:103AE0003823A52213212EE7012145E7FF231A469B
:103AF000194661E73823A522132167E701217DE7F5
:103B000009A0E3E717700108100500202530326492
:103B100000000000080000203A00000053657420F7
:103B20006D696E757465000053657420686F7572F9
:103B3000000000002DE9F14F8AB04449444801F0EB
:103B40008BFA434DDFF80CB14C35002707EB4700EB
:103B5000002600EB0711412007EB470A00EB410864
:103B600006EB4601132000EB011906EB4A0422463E
:103B700039A108A8FCF78AFB285D032801D9012098
:103B800028550A98844208D0DBF8280090F91800DC
:103B9000A04202D00A98401C49D1DBF8280090F9D5
:103BA0001800A04206D13823A522132106A801F04F
:103BB0009BFB0BE0285D264900EB4000B939084427
:103BC0000188ADF8181080788DF81A00285D032858
:103BD00036D000231A46194607A801F085FBBDF828
:103BE0001800ADF814009DF81A008DF81600BDF805
:103BF0001C00ADF810009DF81E008DF81200DBF8D7
:103C0000280090F91800A04202D0285D03281BD09C
:103C10000021002008AACDE90020CDE902011F23E0
:103C200029220FFA88F10FFA89F0FEF70FFE761CB1
:103C3000062E95DB7F1C042F88DB0BB0BDE8F08FD0
:103C4000FF231A461946C7E70221E2E776A80108D2
:103C500010050020080000202564000010B5084B66
:103C600065220C21074800F04FFF054BBDE81040CE
:103C7000463365224FF48F71024800F045BF0000C3
:103C8000F7F300081005002070B5244C0246D3B2AB
:103C9000607DFF2800D16375E079814208D1607DA5
:103CA000904205DD207AE17A884201D0401C2072E2
:103CB0001B48657A0179491B0025914217DBC17ABF
:103CC000022914D0617D914211DD2572FF216175B9
:103CD00005730221C1720121A1734571FEF702FF34
:103CE00000F57A7020630020FEF752F912E0607D43
:103CF00090420BDA02F054F8617A401A904205DBE8
:103D0000207AE17A884201D063752572207AE17ABF
:103D1000884201D1012070BD002070BD0800002044
:103D20004805002030B5234D89B0284603F030FB0C
:103D30005320ADF8100000244FF4FA60ADF81440A1
:103D40000690ADF81240ADF816408DF81C4004A95D
:103D5000284603F061FB01200090ADF80440ADF867
:103D60000840ADF80640ADF80A40ADF80C406A4690
:103D70000021284603F0B8F9A5220021284603F0C7
:103D8000D0FA60220021284603F0A4FA002211464E
:103D9000284603F0D5FA0121284603F09AFB28466D
:103DA00003F035FB012001F0E9FF284603F02AFB70
:103DB00009B030BD0048014030B54FF0804589B0B2
:103DC000284603F0E5FA5320ADF8100000244FF424
:103DD000FA70ADF814400690ADF81240ADF81640F8
:103DE0008DF81C4004A9284603F016FB0120009022
:103DF000ADF80440ADF80840ADF80640ADF80A4013
:103E0000ADF80C406A460021284603F06DF9002207
:103E10001146284603F085FA60220021284603F067
:103E200059FA08220021284603F08AFA012128467F
:103E300003F04FFB284603F051F9284603F0E7FA58
:103E400009B030BD2DE9FC418046FEF74BFE2E4CFB
:103E50007825A0262063A16A4FF4FA6704F1780060
:103E60000B68A3F580729B3A07D1CA69D2F81CC0CF
:103E70009CF818C0BCF1040F03D0B3F5CE7F06D078
:103E80000AE0C2612048B830A062C2610FE0CA698E
:103E9000D3691B7E042B05D0C969C161B8F1020F3B
:103EA0002AD02BE0C2611948A062216DC1610020B7
:103EB00003F074F8164801F089F8164B01AA694618
:103EC000134800F08FFFBDF90410BDF9000001EBAD
:103ED000D171A5EB610100EBD0700AB2A6EB6000D6
:103EE00001B20C4B0A4800F00FFE012003F056F817
:103EF000384601F043FF02E0C969C161A062FEF7E4
:103F0000F1FDE062BDE8FC8108000020A002002075
:103F10001005002036930008084810B5C079002825
:103F20000BD0074C204603F072FA142001F026FF54
:103F30002046BDE8104003F065BA10BD48050020DA
:103F400000480140194910B58220C882886A426938
:103F500012B1BDE81040104782684AB183883BB176
:103F600090F9183002EB43120023D0618A62137675
:103F70008A6A1368052B05D1D3690C4A0B65D832C0
:103F80008A62D361806810B1886A806858B1FCF792
:103F900061FF002003F002F8FEF7A8F9BDE8104029
:103FA000012002F0FBBFFEF7FFFDF2E70800002052
:103FB000810705D1642190FBF1F201FB120141B9A7
:103FC0004FF4C87190FBF1F201FB120008B1002020
:103FD000704701207047000030B5002385B01A46B5
:103FE000194601A801F080F90188ADF80010807829
:103FF0008DF802002448009900F04AFDFF231A467C
:10400000194601A801F070F90188ADF80010807818
:104010008DF802001C48009901F032F81A4800F0AF
:10402000D5FF1A4D8C241A4BEC8203AA02A916481C
:1040300000F0D8FE98B9BDF90C10782201EBD171CF
:10404000BDF90800A2EB61010AB200EBD070A0211B
:10405000A1EB600001B20E4B0B4800F055FD4FF490
:10406000FA6001F08BFE08483830007828B1EC8205
:104070000020FDF78DFF05B030BD034800F0A6FF1E
:10408000014801F061F9F6E7100500200800002062
:104090002734010810B50F4CA16A086910B1BDE8BA
:1040A000104000478888002813D0002002F076FFD7
:1040B000A06A017E491C49B201768288914201DBE7
:1040C00000210176FEF712F9BDE81040012002F050
:1040D00065BF10BD0800002010B50F4CA06AC16874
:1040E00011B1BDE8104008478088002813D0002097
:1040F00002F054FFA06A017E491E49B201760029F0
:1041000002DA0179491E0176FEF7F0F8BDE81040A9
:10411000012002F043BF10BD0800002070B50B4D18
:10412000040001D500240BE0142C01DD142401E06F
:104130000A2C05DD2C70BDE87040642001F01EBE25
:10414000642001F01BFE2C7070BD000008000020F0
:1041500070B50B4D01202870FFF7A2F8094C002024
:104160006071FEF7BFFC2063FEF7BCFCE063687A79
:10417000002804D1BDE870400A20FFF7CFBF70BD12
:10418000480500200800002010B5002002F006FFBE
:104190000648A0F52E71886200210176FEF7A6F888
:1041A000BDE81040012002F0F9BE0000C00200206E
:1041B00070B5104E0025104C86F82C50F08D2083E1
:1041C0002846FFF7ABFF3570012020742572FF20D1
:1041D0006075A5736573002002F0E0FEA6F138005B
:1041E00001F0B2F8A6F1380000F0F0FEFEF77AFC1C
:1041F000206370BD480500200800002010B588B07D
:1042000000204FF48271CDE9001002904FF400714C
:1042100005900690CDE90310064C6946204602F051
:10422000EAFE0021204602F0D7FE204602F0DEFE24
:1042300008B010BD0038004030B5002385B01A46E4
:10424000194601A801F050F80188ADF800108078F7
:104250008DF802002448009900F01AFCFF231A464A
:10426000194601A801F040F80188ADF800108078E7
:104270008DF802001C48009900F002FF1A4800F077
:10428000A5FE1A4D8C241A4BEC8203AA02A91648EB
:1042900000F0A8FD98B9BDF90C10782201EBD1719E
:1042A000BDF90800A2EB61010AB200EBD070A021B9
:1042B000A1EB600001B20E4B0B4800F025FC4FF45F
:1042C000FA6001F05BFD08483830007828B1EC82D4
:1042D0000020FDF75DFE05B030BD034800F076FE1E
:1042E000014801F031F8F6E7100500200800002031
:1042F000163801082DE9FF4F804600699BB0002861
:104300007CD082781792022A01D0012A76D1D8F87F
:1043100014200792002216926FF063020C92C0786C
:104320000D9002910020CFE21E98435C002009907E
:104330001890D8F810000524611C425C015D02EB66
:10434000012111F0FF0129D0E21C855CA21C9942D9
:10435000825C05EB02220FFA82F97CD1B9F1080FD9
:104360001CDB01211891211D04F1050B435C09930D
:1043700010F80B10E71D01F07F020492A21D00252A
:10438000825C0A92C05D049A00F07F0A9A1A17981C
:10439000A2EB0A06022802D0012871D06FE2C809F8
:1043A0006FD00A9A0D99A9F10800891A0026A1EB8D
:1043B0000A070E96119096E0D8F8100001190E9891
:1043C0000830085C95FBF7F10FFA81FB10F0C00F85
:1043D00058D000F03F0A05EB0A010DB2B14606EBDA
:1043E0000A010EB2000678D5289840B1404698F8E8
:1043F000193098F8182098F8171007E077E2079816
:10440000C0F30743C0F30722C1B2404600F040FEAC
:104410001D990A98084410903844401E00B2199023
:104420000299049808440B9018E01099199B01EB2D
:10443000090002B20B98584401B2404600F0FCFD5E
:10444000A7EB0901AAEB01000FFA80FA4FF000096F
:104450000BF1010000E046E20FFA80FB09EB0A00D5
:10446000B842E2DC1098484400EB0A0102B20B9813
:10447000491E0BB2584401B2404600F0DDFD2CE06D
:10448000D5E036E0289949B1404698F8193098F8B7
:10449000182098F8171000F0FBFD09E08006020EC6
:1044A0004046079900F026FA0146404600F0E8FD34
:1044B0001D990A980844304402B2049902980144B4
:1044C00001EB0B0001B2404600F0F2FD6D1C761CC2
:1044D0002DB236B201E0F01B06B2BE42FBDA0E98F6
:1044E000401C00B20E900E9911988142FFF664AF05
:1044F000C5E10027A9F1080011900E97384691E018
:10450000D8F8100001190E980830085C95FBF6F1F8
:104510000FFA81FB10F0C00F53D000F03F0A05EBFB
:104520000A010DB2B94607EB0A010FB2000673D5B6
:10453000289838B1404698F8193098F8182098F81B
:10454000171006E00798C0F30743C0F30722C1B273
:10455000404600F09DFD04990298084410903044B4
:10456000401E00B219900A991D9808440B9016E05D
:104570000B981099584402B201EB090001B2404671
:10458000199B00F041FDA6EB0901AAEB01000FFA0F
:1045900080FA0BF101004FF000090FFA80FB09EBE4
:1045A0000A00B042E4DC1098484400EB0A01491EBE
:1045B0000BB20B9959440AB201B2404600F024FDF7
:1045C0002AE0289949B1404698F8193098F81820FF
:1045D00098F8171000F05CFD09E08006020E4046D6
:1045E000079900F087F90146404600F049FD1D9902
:1045F0000A98014401EB0B0002B2029904980844A6
:10460000384401B2404600F053FD6D1C7F1C2DB2B2
:104610003FB201E0B81B07B2B742FBDA0E98401C6C
:1046200000B20E9011998842FFF66AAF27E12898F0
:1046300040B1404698F8193098F8182098F81710AB
:1046400000F026FDD8F81000C15DC9097ED010F831
:104650000B00C00962D00A9A0D99A9F10800891AC5
:1046600000261190A1EB0A070E96304652E000BFDB
:10467000D8F8100001190E980830085C00F07F0986
:10468000C00939D095FBF7F00FFA80FB0299049826
:10469000B246084410900A991D9808440B901BE0FC
:1046A000384403B20B981099504402B201EB0B004E
:1046B00001B2404600F0C0FCA7EB0A00A9EB0001E4
:1046C0000FFA81F92918304406B20BF101000DB23E
:1046D0004FF0000A0FFA80FB0AEB0900B8420B9872
:1046E000DEDC504400EB090102B210980BB25844D2
:1046F00001B2404600F0A0FC05EB090005B206EB54
:10470000090000E0F01B06B2BE42FBDA0E98401C26
:1047100000B20E9011998842AADBB0E00027A9F1FF
:1047200008000E97109055E0D8F81000BA4601190D
:104730000E980830085C95FBF6F100F07F09C0097F
:104740000FFA81FB38D00299049800E047E0084452
:104750000B900A991D980844CDF844000AEB090013
:10476000B0421CDD0B98304403B21198584402B299
:104770000B98504401B2404600F046FCA6EB0A00FC
:10478000A9EB00010FFA81F92918384407B20BF19F
:1047900001000DB24FF0000A0FFA80FBDEE70B9923
:1047A00001EB0A0000EB09010BB2119959440AB25E
:1047B00001B2404600F028FC05EB090005B207EB0A
:1047C000090000E0B81B07B2B742FBDA0E98401CA4
:1047D00000B20E900E9910988142A5DB4FE00027A1
:1047E000A9F108000597BB460F9045E0D8F81000E6
:1047F00001190BF10800085C0E9001E0B81B07B22C
:10480000B742FBDA0598B94690FBF6F00FFA80FA4A
:104810005FF0000509EB0500B04205D10AF1010087
:10482000C5F100090FFA80FAC5F10701012088409F
:104830000E9900B2014211D10A991D98014401EB71
:104840000A00411C0BB202B204990298014401EB28
:104850000900284401B2404600F0EEFB6D1CEDB2A9
:10486000082DD7D30BF101000FFA80FB0598083013
:1048700000B208373FB205900F998B45B6DB2998F7
:1048800080B1169940566FF0630188420ADD0C90A2
:10489000169A2998104490F90100884202DD501CB4
:1048A00000B21690189860B102990998084400B2B5
:1048B00002900C9810F1640F03DD0299084400B2D5
:1048C00002901598401C00B215901E98FBF71AFE36
:1048D000159988423FF628AD07991FB04046BDE8BC
:1048E000F04F00F0CDBB04EB09010CB224E51FB082
:1048F000BDE8F08F7FB5CCB2C2F1FF0314FB03F427
:10490000C57D15FB0245C1F3072414FB03F4067EA5
:1049100016FB0244C1F3074111FB03F1407E10FB7B
:104920000213C82295FBF2F094FBF2F193FBF2F232
:10493000FF2800DDFF20FF2900DDFF21FF2A00DD29
:10494000FF22D3B2CAB2C1B203A800F0CDFC0188E5
:10495000ADF80010827804B041EA024070BD2DE944
:10496000F74F0646006900284FD04FF000096FF05E
:10497000630B4D464C4642E001984FF0000A534607
:1049800010F804C0306905214A1C475C825C02EBC8
:10499000072212F0FF0212D0CF1C10F807808F1CE4
:1049A0006245C75D08EB07273FB205D1082F06DB3C
:1049B00001230A1D10F802A0394409B2E4E7029865
:1049C00088B110F909006FF0630188420BDD029A8B
:1049D000834602EB090090F90100884203DD09F1EA
:1049E00001000FFA80F943B105EB0A0005B21BF193
:1049F000640F02DD05EB0B0005B2641C24B20198C4
:104A0000FBF780FDA042B7D82846BDE8FE8F2DE910
:104A1000F0418046CD18A81E03B217460E46404608
:104A2000069C00F0F1FA3C44A01E6D1E03B22DB2AC
:104A30003A462946404600F0FFFA641E701C24B234
:104A400001B22B462246404600F0DEFA7F1C234688
:104A50003AB231464046BDE8F04100F0EDBA2DE9EA
:104A6000FC411E46054613460C461430089F00F0D4
:104A700030FC0146D819A219401E521E00B212B2D3
:104A8000CDE900202246284600F0EAF9BDE8FC8185
:104A900003B5BDF80410A0F817109DF80610417674
:104AA0000CBD10B5417300240473B0F90630B0F9A1
:104AB0000420012907D002290AD0032903D002814A
:104AC0004381447310BD038142810121017310BDF4
:104AD0000281438110BD704713B5034601A800F061
:104AE000F8FB1968C2B28C68C0F307211846A047CA
:104AF0001CBD0368CAB2C1F307219B68184700694F
:104B0000002800D0C07870472DE9FF4F95B01D00F8
:104B1000934607D028785A2807D06FF0010019B0C3
:104B2000BDE8F08F4FF0FF30F9E768780104A8780E
:104B300001EB0020E97808445FEA000A02D56FF033
:104B40000200ECE728790104687901EB0020A979DB
:104B500040180B9001D540B2E1E7EE79FF2E02D369
:104B60006FF00400DBE7687A297A00EB012000B2DD
:104B70005FEA000802D56FF00500D0E7E87AA97A6D
:104B800000EB012007B2002F02DA6FF00600C6E743
:104B9000304600F069FE0024039009940120069439
:104BA000CDE90F041598407B20B14FEA880000F052
:104BB0005BFE81468A494FF4006008601598407B8F
:104BC000C0B1CDF840B060210AF10C000C95CDE9E0
:104BD0000D010CA800F005FEE8B10CA800F0E9FDFD
:104BE000401EC0B20A900CA800F0E3FD401E00F089
:104BF000FF0AC7E00BEB0700401E00B216990090B9
:104C000001EB0800401E03B215985A460068076879
:104C10001598B847D7E708210CA800F0F1FD074622
:104C20000F9810B10020119733E011984FF6FF71E3
:104C300001EA002015993843497BB9B3069A49F82F
:104C400022000698401C0690404521D1109802B2DF
:104C5000169800924044401E03B2159800680568FB
:104C6000DDE91501A8471098401C10901598407B6D
:104C7000012821D0B8F1010508D400BF39F825007A
:104C800001B21598FFF735FF6D1EF7D5002006908D
:104C900001200F900998401C099003980755641C47
:104CA00024B2B44201DBA01B04B287E0FFE701B2EB
:104CB0001598FFF71EFFEBE7002506E039F8250001
:104CC00001B21598FFF715FF6D1C4545F6DBDDE7D2
:104CD0000A98201A00E0A81905B2002DFBDB01E0BC
:104CE000A81B05B2B542FBDAA34603E0ABEB060016
:104CF0000FFA80FBB345F9DA0998641C401C09904F
:104D00000F9824B220B10398405D1190002034E048
:104D100011984FF6FF7101EA00210398405D0843A6
:104D20001599497BA1B3069A49F822000698401CC0
:104D30000690404520D1109802B216980092404447
:104D4000401E03B2159800680768DDE91501B847F1
:104D50001098401C10901598407B01281ED0B8F187
:104D6000010707D439F8270001B21598FFF7C1FEF3
:104D70007F1EF7D50020069001200F900398425D1A
:104D800000F80B20BAF1010000F0FF0AA0D213E0F6
:104D9000FFE701B21598FFF7ACFEEDE7002706E04C
:104DA00039F8270001B21598FFF7A3FE7F1C47458D
:104DB000F6DBDFE7A01B04B2B442FBDA0B990998DB
:104DC00088427FF706AF06494FF40060103908604B
:104DD000039800F041FD484600F03EFD00209EE6AD
:104DE0002804004810B52BB118785A2805D06FF068
:104DF000010010BD4FF0FF3010BD58789C780004C2
:104E000000EB0420DC78E04202D56FF0020010BD18
:104E100018795C79000400EB04209C79001901D515
:104E200040B210BDD879FF2802D36FF0040010BD46
:104E3000587A1C7A00EB042000B20880002802DABD
:104E40006FF0050010BDD87A997A00EB012000B20E
:104E50001080002802DA6FF0060010BD002010BD9F
:104E60002DE9FC479046DDE90A5406461F4689466F
:104E70001046454501DAA8460546BC4201DA2746F8
:104E80001C46B6F9081041456FDDB6F90A00B84274
:104E90006BDDB8F1000F03DA002D66DB4FF0000880
:104EA000002F02DA002C60DB0027B27B002AB6F963
:104EB0002C200DD0F2B3337BEBB3954203DB90454E
:104EC0007CDA521E15B2A04244DC401E04B241E01E
:104ED00082B3A94201DC491E0DB2A04201DC401E92
:104EE00004B2707B40B3012803D002283ED00328CF
:104EF00064D102EB080001B2501903B2B6F9060002
:104F000091FBF0F200FB121293FBF0F100FB113564
:104F1000AA4255DD401E00B2CDE9000430683B4690
:104F20004946D0F804C03046E047CDE90054306827
:104F30003B4602E014E003E018E0002244683AE057
:104F4000944203DB974239DA521E14B2A94201DCC3
:104F5000491E0DB2CDE9005430683B46446829E053
:104F6000A942B0DC491E0DB2ADE727E0D01903B26B
:104F7000101901B2B6F9060093FBF0F200FB1233F0
:104F800091FBF0F200FB1214A3420FDD401E00B2B1
:104F9000CDE9005030684246494647683046B84738
:104FA000CDE9005430680023446803E0CDE90054A3
:104FB00030684468424649463046A047BDE8FC8711
:104FC000CDE9005430683B464468F4E738B5044600
:104FD0004569B0F81700ADF80000607E8DF802005A
:104FE0002046009900F04CF8B4F90A000090002225
:104FF000B4F9083011462046FFF731FD2946204616
:10500000BDE8384000F03CB87CB51E460446134667
:105010000D46143000F05DF9CDE9006301462A46E3
:105020002046FFF71DFF7CBD7CB50024069DCDE921
:105030000045FFF75FF97CBD7CB5054616460C467A
:10504000143000F046F9CDE90043014633462246CC
:105050002846FFF705FF7CBD30B50C7800234A7861
:105060005D1E5A2C06D1462A04D18A78022A04D021
:10507000012A02D00361284630BD0161002030BD05
:1050800003B5BDF8041081829DF8061081750CBD32
:105090001CB5044601A800F027F90188ADF80010FE
:1050A00080788DF8020020460099FFF7E9FF1CBDCB
:1050B000F8B50446002944DB002A42DBB4F90800B5
:1050C00088423EDDB4F90A0090423ADDA07B98B1F7
:1050D000B4F92C0020B3237B002B94F8303005D09A
:1050E0000BB981422DD081422BDC19E00BB98242F1
:1050F00027D0824225DC13E0207BA38D0028B4F961
:105100000600034406D0194400E0091A09B2884297
:10511000FBDB05E01A4400E0121A12B29042FBDBFE
:1051200008484FF400650560009220680B46066849
:105130002046B04720466169FFF7CEFC0148103891
:105140000560F8BD280400487047704738B504462C
:105150001D482060914201D2084600E01046A08020
:1051600001D9084600E01046E0802181628102D921
:105170004FF0010001E04FF0000060734FF00001BC
:105180004FF00100A073A18584F82A0084F82B0059
:105190009FED0E0B0B4684ED080B84F828100A4691
:1051A000684604F10C0400F09FF801888078A4F8A8
:1051B0000B106073FF230C3C1A4619462046FFF77C
:1051C00067FF204638BD000074C4010800000000DD
:1051D0000000F03F017B39B1817DCA0704D021F086
:1051E000010181750120704700207047017B39B1B2
:1051F000817D8A0704D521F0020181750120704765
:105200000020704770B50446007802F06DF900B1D7
:105210000120E073A17B884207D000206073FDF776
:1052200061FC6060FDF75EFCA060FDF75BFC6168FF
:105230000125401A618A88420AD9E07B217B884295
:1052400006D0207320B1A561A07D40F00100A075BB
:10525000A08A78B1607B68B9207B58B1FDF742FC29
:105260006168401AA18A884204D96573A07D40F024
:105270000200A075207CD0B1607BC0B1A0694FF462
:10528000FA750E2800D96425042800D9FA25FDF7FF
:1052900029FC6168401AA84209D9FDF723FC606027
:1052A000A07D40F00100A075A069401CA061E07BDA
:1052B000A07370BD10B50170002141608173C1738E
:1052C0006424448282828175017341730374816115
:1052D00010BD01784278C908C9029208807841EA75
:1052E000421141EAD00070470170427083707047EC
:1052F000034A4FF480601060024801F093BE000042
:105300002804004800380040034A4FF480601060D1
:10531000024801F087BE0000180400480038004031
:1053200070B51546064A4FF480601060054C204663
:1053300001F078FE29462046BDE8704001F072BEBB
:10534000180400480038004010B52821FFF7D0FFAE
:105350004FF090410120886210BDFFF7E1BF0000CF
:105360002DE9F041814C4FF400658046256004260C
:105370002660012000F002FD7C4F10373E60322095
:1053800000F0FCFC2660782000F0F8FC3D60112164
:105390004046FFF7ADFF3A214046FFF7A9FF052140
:1053A0004046FFF7B1FFB2214046FFF7A1FF0C21B5
:1053B0004046FFF7A9FF0C214046FFF7A5FF00215B
:1053C0004046FFF7A1FF33214046FFF79DFF332101
:1053D0004046FFF799FFB7214046FFF789FF352187
:1053E0004046FFF791FFBB214046FFF781FF282190
:1053F0004046FFF789FFC0214046FFF779FF2C2187
:105400004046FFF781FFC2214046FFF771FF0121AF
:105410004046FFF779FFC3214046FFF769FF0B21A4
:105420004046FFF771FFC4214046FFF761FF20218E
:105430004046FFF769FFC6214046FFF759FF0F219D
:105440004046FFF761FF20214046FFF751FFD02182
:105450004046FFF74DFFA4214046FFF755FFA1212D
:105460004046FFF751FFE0214046FFF741FFD021C2
:105470004046FFF749FF01214046FFF745FF08215D
:105480004046FFF741FF0F214046FFF73DFF112146
:105490004046FFF739FF2A214046FFF735FF362106
:1054A0004046FFF731FF55214046FFF72DFF4421CD
:1054B0004046FFF729FF3A214046FFF725FF0B2121
:1054C0004046FFF721FF06214046FFF71DFF11214F
:1054D0004046FFF719FF20214046FFF715FFE12165
:1054E0004046FFF705FFD0214046FFF70DFF0221A0
:1054F0004046FFF709FF07214046FFF705FF0A2155
:105500004046FFF701FF0B214046FFF7FDFE182143
:105510004046FFF7F9FE34214046FFF7F5FE4321F0
:105520004046FFF7F1FE4A214046FFF7EDFE2B21F2
:105530004046FFF7E9FE1B214046FFF7E5FE1C2130
:105540004046FFF7E1FE22214046FFF7DDFE1F2126
:105550004046FFF7D9FE13214046FFF7C9FE292137
:105560004046FFF7C5FE2560BDE8F08118040048FD
:1055700010B52921FFF7BCFE4FF090410120886152
:1055800010BD00002DE9F84F8246DDE90A964E482D
:105590004FF40067984615460C4607600096DAF807
:1055A00000004B464246D0F800C029465046E0472E
:1055B000A6EB0800A9EB0505401C6D1C04F0FF09D3
:1055C000C4F3072845430024142665E04A464146B3
:1055D0005046FFF7A5FE4A4641465046FFF7A0FE5B
:1055E0004A4641465046FFF79BFE4A4641465046D2
:1055F000FFF796FE4A4641465046FFF791FE4A465F
:1056000041465046FFF78CFE4A4641465046FFF75A
:1056100087FE4A4641465046FFF782FE4A464146CB
:105620005046FFF77DFE4A4641465046FFF778FE5A
:105630004A4641465046FFF773FE4A4641465046A9
:10564000FFF76EFE4A4641465046FFF769FE4A465E
:1056500041465046FFF764FE4A4641465046FFF732
:105660005FFE4A4641465046FFF75AFE4A464146CB
:105670005046FFF755FE4A4641465046FFF750FE5A
:105680004A4641465046FFF74BFE4A464146504681
:10569000FFF746FE641C24B295FBF6F0A04295DCB1
:1056A000002405E04A4641465046FFF739FE641C97
:1056B00095FBF6F006FB1050A042F3DC02481038D0
:1056C0000760BDE8F88F0000280400482DE9F0418C
:1056D0008046407B069F1D4614460E46B8B30128FF
:1056E00004D002280DD0032827D11BE0B8F804000D
:1056F0000C46821A521EC01B401E16B205B21F462F
:105700001BE0B8F80600811AC01B401E07B2491EF4
:10571000B8F804000CB2811B491EC01A401E0EB21C
:1057200005B20AE0B8F806001146821B521EC01AE4
:105730003D46401E14B20E4607B2B54202DA30466C
:105740002E460546A74202DA20463C4607462A2155
:105750004046FFF7CDFDC6F307214046FFF7D4FDD5
:10576000F1B24046FFF7D0FDC5F307214046FFF7F1
:10577000CBFDE9B24046FFF7C7FD2B214046FFF7BE
:10578000B7FDC4F307214046FFF7BEFDE1B2404636
:10579000FFF7BAFDC7F307214046FFF7B5FDF9B2A1
:1057A0004046FFF7B1FD4046BDE8F0412C21FFF730
:1057B0009FBD70B5012406460225304600F011F861
:1057C00068B1641C680064B205B2072CF5D10721EA
:1057D000304600F015F8284400B280B270BDE1B246
:1057E000F6E710B58268016802F0070401EBE201F8
:1057F00080230978E3401940521C8260084610BD9E
:1058000070B584684A1E2244C2F3CF0342689A42AC
:1058100001D8002070BD01228A40C4F3CF05521E7A
:105820009D4207D103685B5D04F007050D44C5F197
:1058300008050AE00668F35C755D03EB052304F0D8
:1058400007050D449BB2C5F11005EB401340214400
:10585000DAB28160104670BD10B500F001F810BDDD
:1058600010B5FBF72CF910BD10B500F001F810BD14
:1058700010B5040007D1012405E0FBF7E9F8006842
:1058800000B9044880472046FBF7EAF80028F4D026
:1058900010BD00005B0B000810EE100A10B50023CD
:1058A000A0F50001B1F1FE4F67D200BF00F5002165
:1058B0006FF07E0202EBE15CC1F302524FF07E51C9
:1058C00001EB025100EE901AA0EBCC5003EB0C015F
:1058D00000EE100A51EA020036D030EE601A70EE87
:1058E000200A9FED3D2A3E4881EE200A9FED3B1A9B
:1058F00060EE000A00EE821A60EE201A61EE810A64
:10590000784401EE101A00EB82009FED362AB8EEC3
:10591000C11AD0ED001A344841EE021A784401EE63
:10592000101A00EB8200B8EEC11A90ED002ADFEDEC
:105930002F2A01EE222AB0EE001A72EE200A40EE63
:10594000010A31EEA00A10BDF7EE000A9FED291AF8
:1059500030EE600ADFED260A00EE201ADFED260A9F
:1059600060EE001A40EE010A9FED241A00EE201AA4
:1059700061EE810A30EE200A10BD4FF07F41B1EB9D
:10598000400F03D2BDE8104000F04EB8B0F1FF4F19
:1059900008BF10BDB5EEC00AF1EE10FA06D2012024
:1059A000FAF713FFBDE8104000F042B8B5EEC00AA8
:1059B000F1EE10FA07D10220FAF707FF00F02AF8FB
:1059C000B1EE400A10BDDFED0E0A6FF0160320EEB7
:1059D000200A10EE100A69E766F1CC3EAAAA2A3F17
:1059E0001C6B01000070313F206B0100F4FD053895
:1059F00021ED423E0A1180BEC1ABAA3EFFFFFFBEB1
:105A00000000004B10B510EE100A02F075FA00EE1F
:105A1000100A10BDDFED030AB7EE001A81EE200A6E
:105A2000704700000000000030EE000A70470000E0
:105A3000DFED020A80EEA00A7047000000000000BF
:105A4000FF2310B51A4619463948FFF74DFC384C6C
:105A50005A23F222FF21E01CFFF746FC4F2393223A
:105A6000EB21A01DFFF740FC4F236D22E32104F141
:105A70000900FFF739FC4A235622E02104F10C000B
:105A8000FFF732FC0023ED22FF2104F10F00FFF7A6
:105A90002BFCFF230F341A461946E01CFFF724FCA9
:105AA000BC2375220E21A01DFFF71EFC00231A4601
:105AB000194604F10900FFF717FC1D484FF4FA647A
:105AC000002322460C211C30FFF7F4FB184800236A
:105AD00022460B213830FFF7EDFB15480023224604
