:020000040800F2
:10000000301B0020F5010008DB020008D7020008C1
:10001000D9020008D302000877040008000000009D
:10002000000000000000000000000000FF020008C7
:10003000D502000800000000FD02000801030008CE
:100040000F0200080F0200080F0200080F0200084C
:100050000F0200080F0200080F0200080F0200083C
:100060000F0200080F0200080F0200080F0200082C
:100070000F0200080F0200080F0200080F0200081C
:100080000F0200080F020008000000004D040008E5
:100090000F0200080F0200080F0200080F020008FC
:1000A0000F0200080F0200080F0200080F020008EC
:1000B0000F020008000000000F020008000000000E
:1000C0000F020008000000000F02000800000000FE
:1000D0000000000000000000000000000000000020
:1000E00000000000000000000F02000800000000F7
:1000F0000000000000000000000000000000000000
:100100000F020008000000000000000000000000D6
:1001100000000000000000000000000000000000DF
:1001200000000000000000000000000000000000CF
:1001300000000000000000000000000000000000BF
:100140000000000000000000000000000F02000896
:1001500000F002F800F03EF80AA090E8000C82449B
:100160008344AAF10107DA4501D100F033F8AFF278
:10017000090EBAE80F0013F0010F18BFFB1A43F085
:10018000010318473C0900005C090000103A24BF35
:1001900078C878C1FAD8520724BF30C830C144BFEC
:1001A00004680C607047000000230024002500262E
:1001B000103A28BF78C1FBD8520728BF30C148BFCA
:1001C0000B6070471FB500F042FC00F037F81FBD10
:1001D00010B510BD00F048F81146FFF7F3FF00F02E
:1001E00053FB00F066F803B4FFF7F2FF03BC00F026
:1001F00069F800000948804709480047FEE7FEE724
:10020000FEE7FEE7FEE7FEE7FEE7FEE7FEE7FEE7C6
:1002100004480549054A064B7047000005030008DD
:100220005101000830010020301B00203017002051
:1002300030170020704770477047000070B5064CBB
:100240007C44064D7D4403E0206820448047241D03
:10025000AC42F9D170BD00009C0800009C08000071
:1002600000487047D00000207546FFF7F9FFAE4602
:1002700005006946534620F00700854618B020B5B2
:10028000FFF7C6FFBDE820404FF000064FF0000723
:100290004FF000084FF0000B21F00701AC46ACE82E
:1002A000C009ACE8C009ACE8C009ACE8C0098D469B
:1002B000704710B50446AFF300802046BDE81040FB
:1002C000FFF791BF01491820ABBEFEE726000200F0
:1002D0007047FEE77047FEE7FEE770470907090E23
:1002E000002806DA00F00F0000F1E02080F8141D6D
:1002F000704700F1E02080F80014704770477047A5
:1003000000F02CBA484810B546494160474A42605F
:1003100081608260016941F020010161016941F061
:1003200040010161C168C907FCD1016921F02001C8
:100330000161016941F010010161C16911F0060F0D
:100340003B490AD0C269C2F34102012A07D0C269FF
:10035000C2F34102032A04D005E0A52202E0BB2239
:1003600000E0CC220A80C169DF2202EA1121304A72
:10037000921C1180C169921CC1F307411180C169AF
:10038000090E921C1180016A921CC9B21180016A87
:10039000921CC1F307211180016921F01001016154
:1003A0002448016841F4700101602348016841F06C
:1003B0000101016001688907FCD541681F4A1140AD
:1003C000416041681E4A1140416001681D4A114068
:1003D0000160C16A1C4A1140C162016B40F2031204
:1003E00091430163016B21F480310163016B21F0C2
:1003F00000410163416B21F001014163D0F8C0105D
:1004000021F48031C0F8C01000218160C0F8CC1008
:1004100000F0A8FABDE8104000214FF0006000F0A5
:1004200041BA00002301674500200240AB89EFCDAF
:1004300000F8FF1F88ED00E0001002400C00FF08EC
:10044000FFFFC277FFFFF2FEF0FFFF3F10B5084C41
:100450000121204600F0F1FA012807D101212046B0
:1004600000F0E8FABDE8104000F004B810BD00004C
:10047000002000407047FEE710B540F2115000F038
:1004800063FA40F2125000F05FFA40F20E7000F092
:100490005BFA40F2117000F057FA40F2126000F07F
:1004A00053FA4FF4E06000F04FFABDE81040062028
:1004B00000F002BA2DE9F04101224FF090460223EC
:1004C0001146304600F086F902230322002130460F
:1004D00000F0A2F9202300220321304600F07AF92F
:1004E00001220221304600F043F9012300220221BB
:1004F000304600F06FF9012303220021304600F05E
:100500008BF93E4F4FF4007422460221384600F02A
:100510002FF9234600220221384600F05BF92346DA
:1005200003220021384600F077F9224604213046A4
:1005300000F01EF965002A460421304600F018F943
:10054000234601220221304600F044F923460322CB
:100550000121304600F060F92B460122022130468D
:1005600000F038F92B4603220121304600F054F9FF
:100570004FF4204422460021384600F0F9F8234683
:1005800000220221384600F025F9234603220021EB
:10059000384600F041F940F6044401222346114652
:1005A000384600F017F9234603220021384600F0B0
:1005B00033F904220121304600F0DAF80822012143
:1005C000304600F0D5F8042301220221304600F025
:1005D00001F9042303220021304600F01DF908230D
:1005E00001220221304600F0F5F83046BDE8F04126
:1005F00008230322002100F00FB900000004004886
:1006000003B5BDF8041081829DF8061081750CBDFC
:100610001CB5044601A800F04FF80188ADF80010A1
:1006200080788DF8020020460099FFF7E9FF1CBD95
:1006300038B504461D482060914201D2084600E0CA
:100640001046A08001D9084600E01046E0802181D4
:10065000628102D94FF0010001E04FF000006073A9
:100660004FF000014FF00100A073A18584F82A002B
:1006700084F82B009FED0E0B0B4684ED080B84F8DD
:1006800028100A46684604F10C0400F015F80188A9
:100690008078A4F80B106073FF230C3C1A461946AF
:1006A0002046FFF7B5FF204638BD0000600A00086D
:1006B000000000000000F03F01704270837070473E
:1006C000FF2310B51A4619462248FFF7F5FF214CC3
:1006D0005A23F222FF21E01CFFF7EEFF4F23932263
:1006E000EB21A01DFFF7E8FF4F236D22E32104F16A
:1006F0000900FFF7E1FF4A235622E02104F10C0034
:10070000FFF7DAFF0023ED22FF2104F10F00FFF7CE
:10071000D3FFFF230F341A461946E01CFFF7CCFF26
:10072000BC2375220E21A01DFFF7C6FF00231A4629
:10073000194604F10900FFF7BFFF04F11100F02191
:100740004FF4A072FFF774FF03490160012180F8A4
:100750002A1010BD08000020940A00080348016810
:10076000002902D00168491E016070470000002086
:10077000F0B5036A446A002501260F2706FA05FC36
:100780001CEA020F09D04FEA850C07FA0CFE23EA97
:100790000E0301FA0CFE4EEA03036D1CADB2082DE8
:1007A000ECD3082506FA05FC1CEA020F0BD04FEA31
:1007B000850CACF1200C07FA0CFE24EA0E0401FAB9
:1007C0000CFE4EEA04046D1CADB2102DEAD3036298
:1007D0004462F0BD2DE9F047894601689246C2683F
:1007E000002401274FF0030C07FA04F51D420BD03B
:1007F00066000CFA06F5A943AA4309FA06F80AFAB4
:1008000006F548EA01012A43641CA4B2102CEBD37C
:100810000160C260BDE8F087F0B50129416831D0C0
:1008200099434160816801270325A2F57F44FF3C7D
:1008300013D0002407FA04F61E4208D0660005FA19
:1008400006FC21EA0C0102FA06FC4CEA0101641CD8
:10085000A4B2102CEED38160F0BDC66B5FF0000433
:1008600007FA04F21A4206D04FEA440C05FA0CFCCF
:100870004CEA01011643641CA4B2102CF0D3816031
:10088000C663F0BD1943CCE710B500F0B3F8FFF72D
:10089000F3FDFFF70FFE4FF090410220886100202A
:1008A00010BD0000024A1140014302480160704738
:1008B00080FFFF1F08ED00E021494A6822F4404212
:1008C0004A600A6B1F4B1A400A630A2827D2DFE8E6
:1008D00000F005091113151A272B2F33086B20F48C
:1008E000803002E0086B40F480300863086B20F42D
:1008F000807013E0486804E0486807E0486840F406
:100900008040486007E0486840F480404860086BD9
:1009100040F000400863086B40F480700863704743
:10092000486840F40040ECE7486840F40040EDE7D8
:10093000486840F44040E4E7486840F44040E5E758
:1009400000100240FFFEFE7F054901EB90110A688E
:1009500000F01F030120984002430A607047000026
:10096000001002401F480021026842F480320260F9
:10097000C3140268491C12F4003F01D19942F8D116
:10098000016889032DD541684160416841F40051F7
:100990004160416841F4806141604168124A114000
:1009A0004160C16A114A1140C1624168104A114355
:1009B0004160C16A41F00101C162C16AC16201685E
:1009C00041F08071016001688901FCD5416821F026
:1009D00003014160416841F002014160416809073B
:1009E000FCD5704700100240FFFFC0F7F0FFFF3F4B
:1009F0000000110870B50E484FF47A710068B0FB22
:100A0000F1F0401EB0F1807F11D24FF0E024606120
:100A100065170F212846FFF761FC0020A061072021
:100A200020612846BDE870400021FFF757BCFEE773
:100A300004000020C94301617047C26800690A4090
:100A4000084202D00AB101207047002070474FF0E1
:100A50004070E1EE100A7047000000000000000046
:100A60000000000000000000000000000000000086
:100A70000000000000000000000000000000000076
:100A80000000000000000000000000000000000066
:100A90000000000000000000000000000000000056
:100AA0000000000000000000000000000000000046
:100AB0000000000000000000000000000000000036
:100AC000E40A000800000020080000008C01000873
:100AD000EC0A000808000020281B0000A8010008FC
:0C0AE000E1FBFFFF0000000000BD01056D
:04000005080001519D
:00000001FF
