:020000040800F2
:10000000E02100204D020008893700084936000829
:100010001937000859150008293D000800000000A4
:10002000000000000000000000000000E5390008AA
:100030002517000800000000CD370008E739000848
:1000400067020008670200082D39000867020008EF
:1000500067020008670200086702000867020008DC
:1000600067020008670200086702000867020008CC
:1000700067020008670200086702000867020008BC
:100080006702000867020008000000004D3B0008FE
:10009000670200086702000867020008670200089C
:1000A000670200086702000867020008670200088C
:1000B000C93C0008000000006702000800000000C2
:1000C000670200080000000067020008000000004E
:1000D0000000000000000000000000000000000020
:1000E000000000000000000067020008000000009F
:1000F0000000000000000000000000000000000000
:10010000670200080000000000000000000000007E
:1001100000000000000000000000000000000000DF
:1001200000000000000000000000000000000000CF
:1001300000000000000000000000000000000000BF
:10014000000000000000000000000000670200083E
:1001500000F002F800F06AF80AA090E8000C82446F
:100160008344AAF10107DA4501D100F05FF8AFF24C
:10017000090EBAE80F0013F0010F18BFFB1A43F085
:100180000103184728FB010048FB01000A444FF017
:10019000000C10F8013B13F0070408BF10F8014BE6
:1001A0001D1108BF10F8015B641E05D010F8016B2B
:1001B000641E01F8016BF9D113F0080F1EBF10F88F
:1001C000014BAD1C0C1B09D16D1E58BF01F801CBB2
:1001D000FAD505E014F8016B01F8016B6D1EF9D535
:1001E0009142D6D37047000000230024002500264A
:1001F000103A28BF78C1FBD8520728BF30C148BF8A
:100200000B607047642900F0A580732900F08D838E
:10021000002070471FB50BF01EFA9DE8030000F0A8
:100220001DFD00F0DDFA1FBD10B510BD00F0D0FCC3
:100230001146FFF7EFFF08F023FD00F045FD03B482
:10024000FFF7F2FF03BC00F071FD00000948804792
:1002500009480047FEE7FEE7FEE7FEE7FEE7FEE7A8
:10026000FEE7FEE7FEE7FEE704480549054A064BC0
:1002700070470000F539000851010008E007002030
:10028000E0210020E01D0020E01D00200FB41CB57F
:10029000074B06AA7B4469460090059800F01BFBBB
:1002A0000020694600F02AFB1CBC5DF814FB00002E
:1002B0006506000070B5044685690068C10601D571
:1002C000302600E02026C00707D070BDD4E9012108
:1002D00030469047206A401C20626D1EF6D570BDE6
:1002E00070B5044685690078C00707D170BDD4E9B0
:1002F000012120209047206A401C20626D1EF6D507
:1003000070BD70B50C460546012A05D028788006D8
:1003100000D5EA69002302E0012305E05B1C93425B
:1003200002D2E05C0028F9D1A869E618C01AA861D9
:10033000286A184428622846FFF7BCFF04E0D5E984
:10034000012114F8010B9047B442F8D32846FFF777
:10035000C7FF70BD2DE9F0410646002410687529DD
:10036000314616A510D0AFF30080002802DA4042D3
:1003700013A507E031688A0701D512A502E04907F5
:1003800004D511A5012401E0AFF3008000210A2269
:1003900006F1240709E0B0FBF2FCB0FBF2F302FB2C
:1003A0001C00303078541846491C0028F3D12346ED
:1003B0002A463046BDE8F04100F02FBA00000000A8
:1003C0002D0000002B000000200000002DE9F05F50
:1003D000894604464FF0000ADFF824B1FB44C0F818
:1003E00020A02046E168884700287DD0252806D037
:1003F000D4E901219047206A401C2062F1E70025E2
:100400005F462046E16888472028064607DB312EF4
:1004100005D2B81910F8200C08B10543F1E7A80778
:1004200001D525F00405C4F81CA00027C4F818A0C5
:100430002A2E09D0304607F07DFA38B304EB87083E
:10044000303EC8F8186019E059F8041B204604EB48
:1004500087029161E1688847012F064618D1E0695B
:10046000002820DA25F020051DE0D8F8180000EB60
:10047000800006EB40003038C8F818002046E168DC
:100480008847064607F056FA0028EED1012F0AD019
:100490002E2E08D12046E16888477F1C0646022F91
:1004A00045F02005C4DBA069002803DA404245F08E
:1004B0000105A061E80701D025F01005A6B1A6F15D
:1004C0004100192802D8203645F400654A463146D5
:1004D000204625604D46FFF795FE60B1012807D004
:1004E000ED1D25F0070000E007E000F1080978E7BE
:1004F00005F1040975E730467AE7206ABDE8F09F08
:10050000BCF7010010B5431C02E010F8011B71B1EB
:100510008107FAD14FF0013202C88C1A8C4314EAD9
:10052000C211F9D0C01A0A0603D0C01E10BDC01AED
:1005300010BD0A0401D0801E10BD0902FCD0401E6F
:1005400010BD032A40F2308010F0030C00F015803B
:1005500011F8013BBCF1020F624498BF11F801CBC6
:1005600000F8013B38BF11F8013BA2F1040298BF2B
:1005700000F801CB38BF00F8013B11F0030300F095
:10058000D881083AC0F0088051F8043B083A51F885
:1005900004CBA0E80810F5E7121D5CBF51F8043B3E
:1005A00040F8043BAFF30080D20724BF11F8013BB1
:1005B00011F801CB48BF11F8012B24BF00F8013B13
:1005C00000F801CB48BF00F8012B704702F0FF0391
:1005D00043EA032242EA024200F002B84FF000026E
:1005E0000429C0F0128010F0030C00F0D681CCF189
:1005F000040CBCF1020F18BF00F8012BA8BF20F8B3
:10060000022BA1EB0C0100F0C8B95FEAC17C24BF4A
:1006100000F8012B00F8012B48BF00F8012B7047B0
:10062000014900F0DFB900005407002010B503684D
:100630001C1404EB21449BB289B2194494FBF2F3DD
:1006400002FB134394FBF2F401EB034393FBF2F13F
:1006500002FB113193FBF2F301E05B1E1144002910
:10066000FBDB016003EB044010BDF0B504464FF026
:10067000FF3585B00068049060680290A068039020
:10068000E068019020690090666906F18040B0F151
:10069000004F7CD83C22002104A8FFF7C7FF3C2272
:1006A000014602A8FFF7C2FF1822014603A8FFF780
:1006B000BDFF411E40F2B55201A8FFF7B7FF0C2263
:1006C000074668460021FFF7B1FF414B00EB87006A
:1006D000304400267B4411E0511A01910099491CD5
:1006E0000229009102D00C2908D105E0810705D02C
:1006F0000199491C019101E0401C00960099019A62
:10070000595C9142E8DD0099012906D11C2A04D1E7
:10071000810702D00221CDE90016A0F146018B2904
:100720003CD2DDE90061002202E09F5C521C3944AA
:10073000B242FADB012E02DD820700D0491E40F2F0
:10074000B55340F26D16C21700EB927292105A43E5
:1007500000F0030303FB062283070A4400D1521E64
:10076000039E02EB4203049F06EBC303029EC3EB0E
:10077000031306EB8303174E33441E149BB2C6EBE0
:100780000616C3EB0313B60007EB830300E005E096
:1007900006EB134666F31F43360C02D0284605B01D
:1007A000F0BD80C4029E40C4039E40C4019E761CDE
:1007B00044F80C6B009E44E902600720521C92FB37
:1007C000F0F600FB162084E823001846E7E7000057
:1007D00018F50100A039CEFD704770477047000042
:1007E00070B5064C7C44064D7D4403E020682044EF
:1007F0008047241DAC42F9D170BD0000E4F4010033
:10080000E8F4010010B500F04DF9006810BD10B516
:10081000044600F047F9046010BD2DE9F0470D468D
:1008200099469246044600F124080168880604D5DA
:10083000E06921F01001216000E00120A84201DD03
:10084000471B00E00027A1697A1902EB0900081A8A
:10085000A0612078C00602D42046FFF72BFD0026B9
:1008600008E0D4E901211AF806009047206A401CEC
:10087000761C20624E45F4DB2078C0060AD520465F
:10088000FFF718FD06E0D4E9012130209047206AE7
:10089000401C2062381EA7F10107F4DC07E0D4E910
:1008A000012118F805009047206A401C2062281E8C
:1008B000A5F10105F3DC2046FFF712FD20780006C4
:1008C00002D50220BDE8F0870120FBE701694A1C40
:1008D00002610878704700B58FB0CDE90131002181
:1008E000059105497944CDE9031011466846FFF7A3
:1008F0006DFD0FB000BD0000E5FFFFFF0A6802F8C4
:10090000010B0A60704710B5436913B1AFF3008063
:1009100001E0FFF7F6FC012010BD127800F1240180
:100920000A7000224A700122EDE711684FF0FF3291
:10093000E9E710B5203AC0F00B80B1E81850203A32
:10094000A0E81850B1E81850A0E81850BFF4F5AF6F
:100950005FEA027C24BFB1E81850A0E8185044BFF9
:1009600018C918C0BDE810405FEA827C24BF51F866
:10097000043B40F8043B08BF7047D20728BF31F85A
:10098000023B48BF11F8012B28BF20F8023B48BFAB
:1009900000F8012B70474FF0000200B51346944653
:1009A0009646203922BFA0E80C50A0E80C50B1F1C7
:1009B0002001BFF4F7AF090728BFA0E80C5048BFDB
:1009C0000CC05DF804EB890028BF40F8042B08BF79
:1009D000704748BF20F8022B11F0804F18BF00F875
:1009E000012B704770B50C46016800204A1C3ED0B0
:1009F0003C22B1FBF2F302FB1313B1FBF2F12360D3
:100A0000B1FBF2F302FB1313B1FBF2F118226360A6
:100A1000B1FBF2F302FB1313B1FBF2F146F2E03249
:100A20000A440721A360B2FBF1F301FB132140F25A
:100A3000B553B2FBF3F5A161B2FBF3F103FB152251
:100A40008900B2F5B77F08D39B10521EB2FBF3F5B5
:100A50002944B2FBF3F503FB15220F4BE261616100
:100A600089077B440CD03B2A0AD3521C08E02C2176
:100A70002046FFF790FF0120E0600AE0521A401C78
:100A8000195C9142FAD9521CC4E903204FF0FF309F
:100A90002062204670BD00008AF1010000487047C6
:100AA000B4070020004870478007002070B5064654
:100AB00000F0B4F8056806F10B0020F00704B4421A
:100AC0009CBF002070BD2B466A68BAB11068A04276
:100AD00010D304F1080188423CBF5068586007D326
:100AE0005168101941601168091B01605860146059
:100AF000101D70BD13465268002AE7D121462846D2
:100B000000F098F80028DED170BD70B50446051FCE
:100B100000F084F80068002C14BF446870BD002CFD
:100B200018BFAC423CBF20466468F8D301680A187D
:100B3000AA4218BF456003D12A68054611440160E6
:100B400028684119A1421CBF6C6070BD6168696072
:100B500021680844286070BDAFF3008010B500F034
:100B60000EF8016919B100220261884701E080682E
:100B7000804700F0B2F8000010B500F0AEF870B594
:100B800000F050F804680546A4B92020FFF78EFF56
:100B9000040011D0094900202C60C4E90001084973
:100BA000A1602073206160610649A06109B100F075
:100BB0009FF8E061204670BD00F08FF80000000053
:100BC000790B0008000000000048704780070020F3
:100BD0007546FFF7F9FFAE4605006946534620F01B
:100BE0000700854618B020B5FFF73EFBBDE8204062
:100BF0004FF000064FF000074FF000084FF0000BD9
:100C000021F00701AC46ACE8C009ACE8C009ACE88B
:100C1000C009ACE8C0098D46704700000048704725
:100C20008807002000487047BC07002070477047C5
:100C30007047704738B504460A4600206946AFF34E
:100C40000080002808BF38BD02460099204600F009
:100C500073F8012038BD012000F08FB8F8B5AFF36C
:100C60000080054600200C46102000BF0646A8194B
:100C7000A0420DD9324669460020AFF3008007003C
:100C800008BF00F07AF80098A04218BF0546C419C2
:100C9000FFF7C4FF05600746F01D20F00700461966
:100CA000284600F00AF8B44208BFF8BDA21B31463E
:100CB0003868BDE8F84000F03FB800210160C0E9A5
:100CC000011070471020704710B50446AFF3008044
:100CD0002046BDE81040FFF7B2BA10B5002000F082
:100CE00045F8FFF7A1FABDE81040012000F01EB85A
:100CF00010B58820FFF7DAFE002801D0002101702E
:100D000010BD802902D808B1017809B100207047D0
:100D1000012100F8081B704718B100F10802914248
:100D200001D0002070470021017070470149182050
:100D3000ABBEFEE726000200034640688C46002852
:100D400018BF88423CBF03464068F8D3186818446F
:100D5000884207D00CF1030020F00700001D411A63
:100D6000521A0146081D0A60FFF7CFBE10B500F009
:100D700011F8BDE8104000F008B810B500F022F8F6
:100D8000BDE8104000F001B87047002801D0FFF71F
:100D9000CDBF704710B5002102A000F03BF8012044
:100DA00010BD0000534947414252543A2041626EFF
:100DB0006F726D616C207465726D696E6174696FBC
:100DC0006E00000010B5012805D0002103A000F03E
:100DD00021F8012010BD09A1F8E70000534947524E
:100DE000544D454D3A204F7574206F6620686561FB
:100DF00070206D656D6F7279000000003A204865C3
:100E00006170206D656D6F727920636F727275709D
:100E10007465640070B505460C460A2000E06D1C40
:100E200000F011F835B128780028F8D102E0641CF0
:100E300000F009F814B120780028F8D1BDE870401E
:100E40000A20AFF3008008B569468DF80000032042
:100E5000ABBE08BD2DE9FE4FFE4DFF4E05F11C094E
:100E6000A86A99F80130002701684FF0010A4FF095
:100E70000C0B05F11E0206F10E0C06F14404342998
:100E800072D022DC16295AD00FDCF2480B2900F16F
:100E9000540080784CD00C294CD00D294DD0152908
:100EA0007DD1B772142068724EE01F2951D02029DD
:100EB0005BD02B2974D0332971D190F9181011709F
:100EC00011F80C105170E54905E3DFF88883B1F59E
:100ED000D37F08F11C0898F901807DD016DC3529F4
:100EE0007BD0DFF87493A1F5807109F170099B390B
:100EF00074D0012973D00A2951D1B8F1000F6FD0F5
:100F00000020B07100286CD02F7514E0A1F580711D
:100F1000B93967D0452966D046297DD059293ED1B7
:100F2000017EC06990F91820CB481530115402E0B9
:100F3000B07000E0F070012007E03071FBE786F848
:100F40000AA0007E401CF0720220BDE8FE4F03F0B4
:100F500037BF86F82D30002BEDD006F081FF032837
:100F600000D137737771A4E29EE2017E491C49B239
:100F7000017601297DD12189A088C1EB011100EB07
:100F80008100F0856883B448383805F01EFDFF23E2
:100F90001A46194602A806F043F8018801E018E154
:100FA000A9E0ADF8001080788DF80200AA480099F9
:100FB000383805F0F9FE5421CDE9001BA6485C2322
:100FC0004E227221383804F065FFA348A44938380E
:100FD00005F041FD002307E08CE270E28DE0A9E11D
:100FE00083E284E288E272E21A46194602A806F019
:100FF00017F80188ADF8001080788DF80200964847
:101000000099383805F0D0FEFF231A46194602A889
:1010100006F006F8018800E061E2ADF80010807883
:101020008DF802008C480099383804F0F7FE8A48A1
:1010300000228CA1383804F058FE804686483838A3
:1010400004F023FF00EBD0727821A1EB62010AB219
:1010500008EBD8719E20A0EB610001B27E4881A30D
:101060003838009705F0DFFCFF231A46194602A81E
:1010700000E02DE005F0D4FF0188ADF80010807885
:101080008DF8020074480099383805F08DFE002371
:101090001A46194602A805F0C3FF0188ADF80010F2
:1010A00080788DF802006C480099383804F0B6FE5C
:1010B0004FF47A7006F080FD6748383805F085FCFB
:1010C00002F0BCFA286302F0B9FAE86202F0BEFA54
:1010D000A86A007E02287CD12189A088C1EB011179
:1010E00000EB8100F0856883012003F069FEBDE814
:1010F000FE4F02F0ABBAF3711DE7017E491C017689
:101100005548703008F0D6FEA86A90F91800401EC5
:1011100002287CD204F10C0007C807F0DEF878B38F
:101120002069401E20616069A0F26C7060614A48CD
:101130004430FFF79AFA00906846FFF771FA806929
:1011400000B9072089F80300207D4B466438C0B2FF
:1011500006F026FD1870207C401CC0B206F020FD71
:101160005870207B06F01CFD98703B48703008F0EA
:1011700017FF2069401C2061606900F26C7060619B
:101180003548383805F021FCFF231A46194602A8D5
:1011900005F046FF0188ADF8001080788DF8020058
:1011A0002D480099383805F0FFFD5421CDE9001B8A
:1011B00029485C234E227221383804F06BFE264801
:1011C0002749383805F047FC00231A46194602A87B
:1011D00000E0AAE005F024FF0188ADF80010807857
:1011E0008DF802001C480099383805F0DDFDFF231A
:1011F0001A46194602A805F013FF0188ADF8001041
:1012000080788DF8020014480099383800E056E0E4
:1012100004F004FE1048002212A1383804F065FDE5
:1012200006460D48383804F030FE00EBD0717820C7
:10123000A0EB610002B206EBD6719E20A0EB61002C
:1012400001B2054807A33838009705F0ECFBFF23EF
:101250001A4609E008000020F8050020600100207F
:10126000B0A601084F4B0000194602A805F0D8FEB1
:101270000188ADF8001080788DF80200B14800991F
:1012800005F092FD00231A46194602A805F0C8FE93
:101290000188ADF8001080788DF80200A948009907
:1012A00004F0BCFD4FF47A7006F086FCA54805F00A
:1012B0008CFB02F0C3F9286302F0C0F9E862A86A67
:1012C000007E032831D104F10C0007C807F005F8AF
:1012D00068B32069401E20616069A0F26C70606193
:1012E00098487C30FFF7C1F900906846FFF798F9FD
:1012F000806900B9072089F80300207D4B466438D7
:10130000C0B206F04DFC1870207C401CC0B206F044
:1013100047FC5870207B06F043FC98708948A83041
:1013200008F03EFE012003F04BFDBDE8FE8FA86AE9
:101330000776FAE7017E491C01768248A83008F05A
:10134000B9FDA86A007E01287ED1207A06F028FC2B
:1013500089F804004B46207906F022FC5871794840
:101360009F71A83008F01CFE764805F02EFBFF2385
:101370001A46194602A805F053FE0188ADF8001080
:1013800080788DF802006F48009905F00DFD54211A
:10139000CDE9001B5C234E2272216A4804F07AFDDD
:1013A0006949684805F057FB00231A46194602A808
:1013B00005F036FE0188ADF8001080788DF8020047
:1013C0006048009905F0F0FCFF231A46194602A870
:1013D00005F026FE0188ADF8001080788DF8020037
:1013E0005848009904F01AFD0022AFF288115548C0
:1013F00004F07BFC0646534804F047FD00EBD07236
:101400007821A1EB62010AB206EBD6719E20A0EB17
:10141000610001B2AFF2B4134A48009705F003FB34
:10142000FF231A46194602A805F0FAFD0188ADF817
:10143000001080788DF802004248009905F0B4FC55
:1014400000231A46194600E019E002A805F0E8FD5D
:101450000188ADF8001080788DF8020039480099B5
:1014600004F0DCFC4FF47A7006F0A6FB354805F07A
:10147000ACFA02F0E3F8286302F0E0F8E862A86A48
:10148000007E02287FF455AF207A06F089FB89F8A8
:1014900004004B46207906F083FB587129489F7160
:1014A000A83008F07DFD46E5737133B1B77286F858
:1014B0002D706F7102F0CAF83DE537733BE52349A3
:1014C000027EC861B018A962407D08762DE7017ED2
:1014D00051701E492039C861A9620F7625E792F93B
:1014E0000010507801F80C0025E5012009E585F889
:1014F00014A020E533721EE54A46B8F1000F17D05C
:10150000017E491C49B20176012915D00229DDD19D
:1015100002F01CFA03F016FFBFF34F8F0C4801686E
:101520000C4A01F4E06111430160BFF34F8FFEE705
:10153000BDE8FE4F02F0F2B882F801A089F800A0E1
:10154000F3E60000C0050020B0A60108A0010020BD
:101550000CED00E00400FA05FEE7000070B5FF2383
:1015600088B015460E4604461A46194607A805F0E7
:1015700057FD0188ADF8001080788DF802001C48F6
:10158000009905F011FC22461AA101A8FEF77EFE83
:101590001949174805F05FFA002201A9144804F020
:1015A000A4FB044600EBD470A521A1EB6000064427
:1015B0000020009001AB05F13C0231B20C4805F06F
:1015C0000BFC0E490A4805F046FA0DA00DA3006871
:1015D000069006A80090301901B20C4605F13F02B2
:1015E000034805F0F9FB0848448408B070BD0000CA
:1015F000C005002025640000D58B0108E6A4010881
:10160000F99C0000B0430000080000200848816AEF
:101610008A88002A0AD091F91800431C5BB20B7625
:10162000934201DB00220A7603F074B97047000090
:10163000080000200848816A8A88002A0AD091F9A7
:101640001800431E5BB20B76002B01DA521E0A769D
:1016500003F060B97047000008000020184810B57A
:10166000806A184C90F91800022803D0012811D084
:10167000B8B120E0E068401EE0601CD11F2001E00E
:10168000E068401EE060D4E9041206F026FE00285F
:10169000F6D010E02069401E20610CD10C202061A2
:1016A00009E0606940F2E371401E6061884202DA3D
:1016B00040F633006061BDE8104000F035B800002E
:1016C000080000203C06002070B51448144C012589
:1016D000806AD4E9041290F91800022803D0012886
:1016E00009D070B116E0E068401CE06006F0F5FD3E
:1016F00080B9E5600EE0491C21610D290AD1256100
:1017000008E0521CA2F500606261343802D140F258
:10171000E3706061BDE8704000F006B8080000208A
:101720003C060020704700002DE9F04FFE4EABB0A4
:10173000B06A00680B2806D00C2804D00D2802D00F
:10174000FA4805F042F9B06AF74F40F29B12006880
:101750001C37A0250024A0F29B114FF0020807F1CE
:101760003C0A90427ED01EDC20287CD012DCDFF8C0
:10177000B8836FF0180908F154080D2874D004DC00
:101780000B28FBD00C282CD1B9E016286DD01F28CF
:1017900027D186E12B28FCD0332867D0342866D0A7
:1017A00035281ED1F8E34FF4A07920297DD00CDC38
:1017B0000B29EED004DC0129D7D00A2911D113E27C
:1017C0001E2973D01F290CD16DE3D74F1E37632913
:1017D0006DD064296CD0782777296AD0B1F5137F52
:1017E00001D0D3A0FAE3FF231A46194619A805F041
:1017F00017FC0188ADF8001080788DF80200CB4806
:10180000009905F0D1FA0C215420CDE900015C23A8
:101810004E227221C54804F03DFBC949C34805F07A
:101820001AF900231A46194619A805F0F9FB018890
:10183000ADF8001080788DF80200BC48009905F0E2
:10184000B3FAFF231A46194619A805F0E9FB0188E7
:10185000ADF8001080788DF80200B448009904F0CB
:10186000DDFA05E031E233E24FE057E0A1E3A4E026
:101870000022B4A1AD4804F038FAADF84400AB48FA
:1018800004F003FBADF8180000EBD070BDF9441074
:10189000A7EB600002B201EBD1709E21A1EB6000CA
:1018A00001B2A8A3A148009404E056E313E296E332
:1018B000FEE3FEE305F0B7F8FF231A46194619A820
:1018C00005F0AEFB0188ADF8001080788DF80200BD
:1018D0009648009905F068FA00231A46194619A897
:1018E00005F09EFB0188ADF8001080788DF80200AD
:1018F0008E48009904F092FA2BB0BDE8F08F03F007
:101900009DF891A001F026FC01E003F097F898F90A
:1019100002000F22494601F04BFCEDE78EA001F0DA
:10192000BBFBB06A90F91810481C00EB4000800027
:1019300001EB810100EB8100ADF84400002423E0BD
:101940007A4804EB4407E83838440188ADF80010C1
:1019500080788DF802007548009905F025FABDF9E8
:1019600044005A2100EBD070A5EB6000009100EB21
:10197000870004EB840100EB810001B20C234B22B1
:101980006A4804F032FA641CB06A90F91800401CEE
:10199000A042D5DCFF231A46194626A805F040FBD5
:1019A0000188ADF8001080788DF802005F4800993A
:1019B00005F0FAF903F042F89EE7002169A001F072
:1019C00099FB5F49594805F046F8787818B1FF232C
:1019D0001A46194602E000231A4619461BA805F0CC
:1019E0001FFB787818B13823A522132102E0FF23CA
:1019F0001A4619461AA805F013FBBDF86C00ADF89D
:101A000014009DF86E008DF81600BDF86800ADF862
:101A100010009DF86A008DF81200787800B101205E
:101A200053A10091CDE9010464231A4619461420FC
:101A3000039401F015FC787818B100231A46194672
:101A400002E0FF231A4619461AA805F0E9FA787849
:101A500018B1FF231A46194602E03823A5221321A4
:101A60001BA805F0DDFABDF86800ADF814009DF87C
:101A70006A008DF81600BDF86C00ADF810009DF8F6
:101A80006E008DF81200787848B1002039A10091DD
:101A9000CDE9010464231A46194603949EE001200F
:101AA000F4E72749214804F0D6FF787818B1FF23DE
:101AB0001A46194602E000231A4619461DA805F0E9
:101AC000AFFA787818B13823A522132102E0FF235A
:101AD0001A4619461CA805F0A3FABDF87400ADF823
:101AE00014009DF876008DF81600BDF87000ADF872
:101AF00010009DF872008DF81200387800B10120B6
:101B0000797801B101211AA2CDE90021CDE90204C1
:101B100064231A464621142001F0A2FB787858B3BA
:101B200000231A4619462BE008000020C0050020BB
:101B30004E6F7420696D706C656D656E74656400C0
:101B4000B0A601084F4B000045636F203C20436F57
:101B50006D666F7274000000506F776572206C655F
:101B600076656C0050726F6772616D6D6500000084
:101B70004F4E00004F464600FFE7FF231A46194626
:101B80001CA805F04DFA787818B1FF231A461946BB
:101B900002E03823A52213211DA805F041FABDF863
:101BA0007000ADF814009DF872008DF81600BDF8B5
:101BB0007400ADF810009DF876008DF812003878AA
:101BC00070B10020797869B10021AFF25802CDE9F7
:101BD00000216423CDE902041A464621C820E5E12C
:101BE0000120EFE70121F0E7FD49FE4804F033FF53
:101BF000787818B1FF231A46194602E000231A46E6
:101C000019461FA805F00CFA787818B13823A522D8
:101C1000132102E0FF231A4619461EA805F000FA18
:101C2000BDF87C00ADF814009DF87E008DF816001C
:101C3000BDF87800ADF810009DF87A008DF812001C
:101C4000787800B10120E8A10091CDE90104782362
:101C50001A463C211420039401F002FB787818B155
:101C600000231A46194602E0FF231A4619461EA809
:101C700005F0D6F9787818B1FF231A46194602E024
:101C80003823A52213211FA805F0CAF9BDF8780052
:101C9000ADF814009DF87A008DF81600BDF87C00B0
:101CA000ADF810009DF87E008DF81200787850B1E4
:101CB0000020CEA10091CDE9010478233C211A46F1
:101CC000B420039472E10120F3E702F0B7FB13E6BE
:101CD00002F0FCFC10E6C749C24804F0BCFEB06A42
:101CE00090F9180010B1012848D06BE000231A4683
:101CF000194610A805F094F9FF2305461A4619461F
:101D00000FA805F08DF92988ADF81410A9788DF881
:101D100016100188ADF8101080788DF81200B6A06A
:101D2000CDE90004002102943C234E464A46084671
:101D3000039401F095FA00231A4619460FA805F0FE
:101D40006FF9FF2305461A46194610A805F068F9F1
:101D500001462888ADF81400A8788DF81600088888
:101D6000ADF8100088788DF81200A8A0CDE9000425
:101D70003C23029432462D21039420E000231A468E
:101D8000194610A805F04CF9FF2305461A461946D6
:101D90000FA805F045F92988ADF81410A9788DF839
:101DA00016100188ADF8101080788DF812009AA0F6
:101DB000CDE900043C2302944A460021039400200C
:101DC00001F04EFA8B49874804F045FE787818B147
:101DD000FF231A46194602E000231A46194621A895
:101DE00005F01EF9787818B13823A522132102E0F6
:101DF000FF231A46194620A805F012F9BDF8840001
:101E0000ADF814009DF886008DF81600BDF880002E
:101E1000ADF810009DF882008DF81200787800B1BE
:101E2000012081A10091CDE901045A231A467321B2
:101E30001420039401F014FA787818B100231A469C
:101E4000194602E0FF231A46194620A805F0E8F8D3
:101E5000787818B1FF231A46194602E03823A522E4
:101E6000132121A805F0DCF8BDF88000ADF81400BE
:101E70009DF882008DF81600BDF88400ADF81000C2
:101E80009DF886008DF81200787850B1002067A187
:101E90000091CDE901045A2373211A46D2200394FC
:101EA00084E00120F3E753494E4804F0D4FD0023B9
:101EB0001A46194623A805F0B3F8FF2305461A462B
:101EC000194622A805F0ACF801462888ADF81400A0
:101ED000A8788DF816000888ADF8100088788DF87D
:101EE000120053A0CDE9000402943C234D464A461B
:101EF00046210020039401F0B3F952A353A256A146
:101F000012A8FEF7C3F9002212A9364803F0EDFE2D
:101F10000023ADF844001A46194622A805F080F8BF
:101F2000FF2306461A46194623A805F079F801460C
:101F30003088ADF81400B0788DF816000888ADF838
:101F4000100088788DF8120012A8CDE900043C2317
:101F500002942A467321039427E02649214804F07D
:101F60007AFD00231A46194628A805F059F8FF23E0
:101F700005461A46194627A805F052F80146288852
:101F8000ADF81400A8788DF816000888ADF8100098
:101F900088788DF8120000E01EE231A0CDE900043F
:101FA0003C2302944A4646210394002001F058F94C
:101FB000A2E40C48CC3807F07DFFDFF828B0C1461A
:101FC00000250BF1380BA0460BEB0504A07B07287E
:101FD00001D984F80E80FF231A464BE034E2E2E098
:101FE000B0A60108C005002035302500313030256D
:101FF000000000003CB50108526573657420616CF7
:102000006C20646576696365000000007365747414
:10201000696E67733F00000041726520796F75201B
:10202000737572653F000000596573004E6F0000C4
:1020300043757272656E74206669726D7761726540
:102040000000000031322E342E30000076657273AD
:10205000696F6E3A200000002573257300000000B0
:1020600046696E64206D6520696E20747579612003
:1020700061707000194624A804F0D2FF0188ADF801
:10208000001080788DF80200FD48009904F08CFE65
:10209000FC49FB4804F0DFFC00231A46194625A83A
:1020A00004F0BEFFFF2307461A46194624A801E0A4
:1020B0000AE19BE104F0B4FF3988ADF81410B97857
:1020C0008DF816100188ADF81010EF4980788DF862
:1020D000120051F83520CDE9002801EBC507CDF8F5
:1020E0000880CDF80C80B7F90610B7F904001E235C
:1020F000322201F0B5F8E549E14804F0ACFCB06AE1
:1021000090F91800A84203D1FF231A46194602E0AD
:1021100000231A46194624A804F082FFB06A90F9F9
:102120001800A84203D13823A522132102E0FF237F
:102130001A46194625A804F073FFBDF89000ADF8C3
:1021400014009DF892008DF81600BDF89400CC495B
:10215000ADF810009DF89600CC398DF81200C978C2
:10216000491EA94201D1012200E00022B16A91F981
:102170001810A94201D1012300E00023A47B5AF8E2
:102180002410CDE90013CDE90229F88832231E304E
:1021900001B2B7F904001A4601F062F86D1C072D70
:1021A000FFF612AF08E497F9000007280CD2DFE829
:1021B00000F004073134373A3D000021B4A001E0BB
:1021C0000021B5A000F096FFB049AD4804F043FCF3
:1021D000DFF8AC920025C34609F14609BA46C5EBC3
:1021E0000510002600EB80005030AD4F0FFA80F84C
:1021F000C6EB061000EB8000163000B21890B86AEB
:1022000006EB850490F91800A04212D1FF231A466C
:10221000194611E00021A3A0D4E70021A4A0D1E732
:102220000021A6A0CEE70021A6A0CBE70021A8A010
:10223000C8E700231A46194625A804F0F1FEB86A3B
:1022400090F91800A04203D13823A522132102E0FF
:10225000FF231A46194624A804F0E2FEBDF89400B4
:10226000ADF814009DF896008DF81600BDF89000AA
:10227000ADF810009DF892008DF812009AF9001048
:1022800011F80900A04201D1012100E00021B86A43
:1022900090F91800A04201D1012000E00020804BFD
:1022A000583353F82430CDE90030CDE9021B3223F6
:1022B0001A464146189800F0D3FF761C042E97DB8F
:1022C0006D1C022D8BDB02E597F901006FF0040114
:1022D00008280AD2DFE800F00406181A1C1E202283
:1022E0007DA000E07FA000F005FF6649644804F08F
:1022F000B2FB97F90100072812DA634900EB4000AE
:10230000383101EBC0060DE079A0ECE77BA0EAE7ED
:102310007DA0E8E77FA0E6E781A0E4E783A0E2E70D
:10232000574E4D360025A34605EB4500002400EB33
:102330000511412000EB410005EB450A0FFA80F939
:1023400004EB4401132000EB011804EB4A073A4662
:1023500078A107A8FDF79AFFF05D032803D94FF095
:102360000100F05505E004D14FF0FF031A4619466D
:1023700003E04FF000031A46194624A804F050FE6B
:10238000F05D3F4900EB4002D939114403280A8827
:10239000ADF8142089788DF81610BDF89010ADF8BE
:1023A00010109DF892108DF8121013D0002207A97A
:1023B000CDE9001BCDE902B220232A2249460FFABB
:1023C00088F000F04DFF641C062CB9DB6D1C042D59
:1023D000AADB7CE40222EAE76FF0020156A000F0DB
:1023E00089FE4FF0FF3002F095FA70E402F026FB10
:1023F000B06A90F9180058B1012826D002283ED0C2
:10240000504B06AA11A91E4803F080FFA8B3D2E0E2
:102410001D4B06AAE03311A9194803F077FF90B9C4
:10242000BDF91810BDF9440001EBD171A7EB6101B2
:1024300000EBD0700AB2A5EB6000134B01B2E033A1
:102440000F4803F0F5FD40A0B6E0414B06AA11A9E4
:102450000B4803F05BFF88B9BDF91810BDF94400C3
:1024600001EBD171A7EB610100EBD0700AB2A5EBD3
:10247000600001B2364B02486CE08AE06CE06DE02F
:10248000C005002092E40108CCB600089AD80108E3
:102490004D6F6E64617900005475657364617900F5
:1024A000080000205765646E657364617900000060
:1024B0005468757273646179000000004672696443
:1024C00061790000536174757264617900000000E5
:1024D00053756E6461790000505245534554203164
:1024E00000000000505245534554203200000000C7
:1024F000505245534554203300000000505245537C
:1025000045542034000000005052455345542035B6
:102510000000000050524553455420360000000092
:102520005052455345542037000000004355535442
:102530004F4D000025640000435553544F4D203249
:10254000346800007D580108436F6D666F72740037
:1025500063BE000803F06CFD19A02DE0194B06AA1C
:1025600011A9194803F0D2FE88B9BDF91810BDF9B8
:10257000440001EBD171A7EB610100EBD0700AB20E
:10258000A5EB600001B20F4B0F4803F051FD0FA007
:1025900012E0BDF91810BDF9440001EBD171A7EBB1
:1025A000610100EBD0700AB2A5EB600001B20A4BEA
:1025B000054803F03DFD09A000F06EFDF8E40000C1
:1025C00045636F003BC20008C0050020416E74697E
:1025D0002D66726F737400007D5801084F666600A7
:1025E0002DE9F043CB4C0746CB4EA06A89B010B121
:1025F000707800287ED0012F06D0002007F068FDFB
:10260000C548383804F0E1F9FF231A46194606A8F0
:1026100004F006FD0188ADF8001080788DF8020006
:10262000BD480099383804F0BFFB307B4FF00008FC
:1026300030B101280CD0022818D0032851D11EE057
:1026400005F032FC0F22002100F0B2FDB34B06E092
:1026500005F02AFC0F22002100F0AAFDB04B0F224A
:10266000AD480C21383803F0E3FC3AE005F01CFCDF
:102670000F22002100F09CFDAA4B0D22F0E7A64896
:10268000A94B3C229621383803F0D2FCA248A74936
:10269000383804F0E0F900231A46194608A804F077
:1026A000BFFCFF2305461A46194607A804F0B8FCEC
:1026B0002988ADF81410A9788DF816100188ADF8A6
:1026C000101080789AA1CDE900188DF81200CDF88D
:1026D00008802D235222A0219120CDF80C8000F0FB
:1026E000BFFD607D042801D1A06AE8B300231A462B
:1026F000194600E001E101A804F092FC0188ADF860
:10270000001080788DF8020083480099383804F072
:102710004BFB317B1A2003294FF02B0300903ED056
:10272000608C88220C3001B27B48383803F05DFBA6
:10273000FF231A46194601A804F072FC0188ADF87F
:10274000001080788DF8020073480099383804F042
:102750002BFB707B58B1307B032808D06E488C224D
:102760000C21744B383800E009E003F061FC96F866
:102770002D00012816D07079012816D01FE0307B7B
:102780006D4B032808D0608C89220C3001B262485E
:10279000383803F04DFCDCE732220C21F7E7322217
:1027A0000C21C1E7654B4D2204E0307B644B0328CC
:1027B0000FD0502258480C21383803F039FC307BB8
:1027C00003287CD0B07A05254FF00C09012802D0EF
:1027D00003E09322EEE7707930B1E07D13282AD828
:1027E0000F281CD9042526E0F57A052D0AD0042DE2
:1027F0000AD0032D0BD0022D0DD0012D0DD084F861
:10280000098019E0142000E01020607201E084F8D3
:102810000990002412E00820F7E70420F5E70A28D1
:1028200001D3032507E0052801D9022503E008B1FB
:10283000012500E00025E57000241DE0414904EB7E
:10284000440008440188ADF8001080788DF802003B
:1028500031480099383804F0A7FA3520604300EB7E
:10286000C4000B3001B22C483523D5223838CDF8BE
:10287000009003F0BAFA641CAC42DFDBFF231A4677
:10288000194603A804F0CCFB0188ADF8001080784D
:102890008DF8020020480099383804F085FA0023AA
:1028A0001A46194603A804F0BBFB0188ADF80010D6
:1028B00080788DF8020018480099383800E017E059
:1028C00003F0ACFA14482049383804F0C4F8B07A60
:1028D000012801D1707998B11CA01DA30068019056
:1028E00001A800900C48C2220B21383804F09BF854
:1028F000012F02D0012007F0EBFB09B0BDE8F08307
:1029000015A117A3D1E90001CDE9010101A80090AB
:10291000E8E7000008000020F8050020E82F010883
:10292000822D0108952801087D5801083CB5010851
:102930004F6666001B250108AC8301087D1B01085A
:1029400046200108D804002061F501080202029C1B
:102950004155544F0000000002020202029C000098
:10296000435553544F4D00002DE9F047FB4D88B0BF
:10297000A86A00287ED0806840B3F94804F025F8A2
:1029800002F05CF8A86AF64B0024816890F9180000
:10299000A02701EB40100C21026806203833A8461E
:1029A0004FF09F094FF03C0A26462B2A7CD021DCB1
:1029B0000D2A7AD00FDC0D2A75D2DFE802F07444BC
:1029C00078AFB2B57474747474B8BB0008B0BDE865
:1029D000F047FEF7A9BE202A68D006DC152A7DD074
:1029E000162A7CD01F2A5ED17EE1292A78D02A2A95
:1029F000F9D1A5E140F2A51CA2F2A515624570D05F
:102A000010DC352A6ED006DC2C2A6CD0332A6BD031
:102A1000342AE8D183E1A2F580729B3A65D0012A7D
:102A2000E1D16FE2162D75D006DC012D73D0142D87
:102A300072D0152DD7D122E2A5F57065AA3D6CD0D4
:102A4000012DD0D158E20E21CDE9001054235C2293
:102A50001946104605F0C2F8FF231A46194603A886
:102A600004F0DEFA0188ADF8001080788DF80200DD
:102A7000BB4800E0A9E2009904F096F9B949B848CA
:102A800003F0E9FF0022B8A1B54803F02EF900EBEE
:102A9000D071A9EB610001B2B3A36E22B0480096D9
:102AA00003F0C1FFB2A459E2DCE1BDE028E1CDE9C9
:102AB000001054235C221946104605F08FF81E20A2
:102AC00000900A2378228321A54803F08EF926205E
:102AD0000A23702200909321A14807E0A7E0D4E0E8
:102AE0002BE112E226E1C4E116E108E203F07DF9F0
:102AF0002E2000900A236822A321994803F075F93B
:102B0000362000900A236022B321954803F06DF926
:102B10009AA423E2BFE1FBE1AEE1BFE1994D9AA4A3
:102B200000E29B4D9BA4FDE19D4D9EA4FAE1A04DCA
:102B3000A0A4F7E1FF231A46194602A804F070FA90
:102B40000188ADF8001080788DF802008448009963
:102B500004F02AF900231A46194602A804F060FA84
:102B60000188ADF8001080788DF802007C4800994B
:102B700003F054F94E200346009051227921784801
:102B800003F07EFF00231A46194602A804F048FA13
:102B90000188ADF8001080788DF802007048009927
:102BA00004F002F9FF231A46194602A804F038FA85
:102BB0000188ADF8001080788DF80200684800990F
:102BC00003F02CF93C23462296216548CDF800A05D
:102BD00003F056FF322000903C234622A02160489B
:102BE00003F003F9FF231A46194602A804F018FA65
:102BF0000188ADF8001080788DF8020058480099DF
:102C000004F0D2F800231A46194602A804F008FA84
:102C10000188ADF8001080788DF8020050480099C6
:102C200003F0FCF865A499E1654D66A47AE1CDE96D
:102C3000001054235C221946104604F0CFFFFF23F6
:102C40001A46194604A804F0EBF90188ADF8001003
:102C500080788DF802004248009904F0A5F85C499C
:102C60003F4803F0F8FE00225AA13D4803F03DF82A
:102C700000EBD070A7EB600001B256A35D2238488C
:102C8000009603F0D0FE54A468E1CDE9001054236F
:102C90005C221946104604F0A1FFFF231A4619468C
:102CA00005A804F0BDF90188ADF8001080788DF812
:102CB00002002B48009904F077F84549284803F0B2
:102CC000CAFE002246A1264803F00FF800EBD070A0
:102CD0009D21A1EB600001B241A35C222048009637
:102CE00003F0A1FE3FA439E193F82D00002801D0A4
:102CF0003E4D00E03E4D01D03EA413E140A411E161
:102D0000CDE900104FF054034FF0850219461046EC
:102D100004F064FF3EA421E1404D41A402E1587952
:102D2000002801D0404D00E0404D01D040A4F9E022
:102D300040A4F7E0404D41A4F4E0434D43A4F1E04A
:102D4000CDE900104FF054034FF05C0219461046D5
:102D500004F044FF404D41A4E4E0000008000020DE
:102D6000C005002092E401084D4F444500000000DA
:102D700048656174206D6F6465000000506F776571
:102D800072000000F5C8000854696D65720000000B
:102D900089D9000853657474696E67730000000078
:102DA000FEE1000850726F6772616D6D6500000092
:102DB000ACB70008436F6D666F72740045636F00B7
:102DC0003BC20008416E74692D66726F7374000017
:102DD000CBD50108410000004175746F0000000070
:102DE00043000000437573746F6D0000B1D4000898
:102DF00069D0000854696D6572206973206F6E0098
:102E000054696D6572206973206F6666000000006A
:102E10005365742074696D65720000000234010806
:102E20005365747570000000623B0108F7430108A8
:102E30004F6E00004F666600734C01084375737453
:102E40006F6D2064617900005675010844617465F6
:102E500020262074696D650023F5000844697370AD
:102E60006C617900D87908B1594D00E0594D5AA4E8
:102E700058E05B4D5BA455E05C4D5DA452E0CDE9AC
:102E8000001054235C221946104604F0A7FE574D4B
:102E900059A4933D46E05B4D5BA443E0CDE90010AF
:102EA000542385221946104604F098FEFF231A4643
:102EB000194606A804F0B4F80188ADF8001080782F
:102EC0008DF802005348009903F06EFF52495148B3
:102ED00003F0C1FD002251A14E4802F006FF00EBB5
:102EE000D071A9EB610001B24CA36E224948009653
:102EF00003F099FD4BA431E03C4D4DA412E0514D3F
:102F000051A40FE0534D54A40CE0564D56A409E0D3
:102F1000CDE9001054235C221946104604F05EFEF1
:102F2000544D55A4D5B12B4601AA6946394803F042
:102F3000EDF9E8BBBDF90410BDF9000001EBD1715A
:102F40007822A2EB610100EBD0700AB2A7EB60001F
:102F500001B22B462F4803F06BF82EE0D8F828007A
:102F60004546816890F9180001EB40100068202860
:102F700023D14549274803F06EFD698B5046B1FBCC
:102F8000F0F20AFB1213B1FBFAF240A103A8FDF71D
:102F90007DF9002203A91F4802F0A7FE00EBD070C4
:102FA000A7EB60000096019600B2002303AA00E0A0
:102FB00003E06721029600F0E9F9002C05D008B083
:102FC0002046BDE8F04700F067B808B0BDE8F087DC
:102FD0002CE90008EFEF0008536F756E64000000E5
:102FE000815101085365727669636500AD5F010820
:102FF0005265736574000000496E666F726D61748E
:10300000696F6E00B5860108436F6E6E6563746903
:103010006F6E0000C005002092E401085354415235
:1030200054000000436F6E6E656374696E67000044
:10303000526573657420636F6E6E656374696F6E3D
:1030400000000000FEE100085365742064617465AF
:1030500000000000B96F01085365742074696D6544
:10306000000000002CFF00084272696768746E65FA
:103070007373000024F900084175746F2073776939
:10308000746368206F666600B0A60108253032645C
:103090003A253032640000001CB5FF2304461A466E
:1030A000194601A803F0BCFF0188ADF80010807834
:1030B0008DF802000D48009903F076FE0C490B488C
:1030C00003F0C9FC00222146084802F00EFE002150
:1030D000009100EBD070A021A1EB600001B223466B
:1030E000B922024803F09FFC1CBD0000C00500206F
:1030F0003CB501087CB5FF230C4605461A46194627
:1031000001A803F08DFF0188ADF8001080788DF8DC
:1031100002000E48009903F047FE0D490B4803F0EA
:103120009AFC00222946094802F0DFFD00210091A7
:1031300000EBD070A021A1EB600001B22B4604F19E
:103140001A02024803F06FFC7CBD0000C00500209D
:103150003CB501081CB5FF2304461A46194601A8D0
:1031600003F05EFF0188ADF8001080788DF8020052
:103170000D48009903F018FE0C490B4803F06BFC56
:1031800000222146084802F0B0FD0021009100EB2A
:10319000D070A021A1EB600001B2234610220248AA
:1031A00003F041FC1CBD0000C005002092E40108B2
:1031B00070B5FF2388B015460E4604461A461946D8
:1031C00007A803F02DFF0188ADF8001080788DF876
:1031D00002001C48009903F0E7FD22461AA101A84D
:1031E000FDF754F81949174803F035FC002201A9EE
:1031F000144802F07AFD044600EBD470A521A1EB3F
:10320000600006440020009001AB05F13C0231B2A1
:103210000C4803F008FC0E490A4803F01CFC0DA002
:103220000DA30068069006A80090301901B20C4664
:1032300005F13F02034803F0F6FB0848448408B058
:1032400070BD0000C005002025640000D58B01087A
:10325000E6A40108F99C0000B0430000080000202B
:103260002DE9FF4F8BB09346DDE91C54DDE91817BB
:10327000994600224448DDF86CA002F036FD049027
:10328000414802F002FE80460B990BEBDB7204987A
:1032900001EB620100EBD070A1EB600000B2029084
:1032A0000C9909EBD97201EB620108EBD870A1EB24
:1032B000600000B201900FB1294600E0214632487B
:1032C00003F072FDCDF80090DDE90B125B462E484D
:1032D00002F08BFD47B121462B4803F065FDBAF1A2
:1032E000000F1AD017B119E02946F5E7002611E0C2
:1032F000704209EB40010BEB400003B20C9809B29D
:10330000304402B20B980091304401B21E4802F0E2
:1033100044FD761C5645EBDB02E00FB1294600E088
:103320002146194802F07AFD00200090DDE90121D4
:103330001548189B03F077FB1A9878B10FB3214614
:10334000114803F031FD032000900198049B404494
:10335000401D02B20C48029902F047FD00231A46B4
:10336000194609A803F05CFE0188ADF800108078CA
:103370008DF802000448009902F050FD0FB0BDE83E
:10338000F08F2946DCE70000C00500202DE9FF4F43
:1033900083B01C00DDE91187DDF840B00E4682469F
:1033A00003D0FF231A46194602E000231A461946A5
:1033B00001A803F035FE3948019903F0F5FC00221D
:1033C0003648059902F091FC8146344802F05DFDD3
:1033D000054600EB470000B2009009EB480003B23D
:1033E000F01B02B2AAEB080001B22C4802F0FDFC6F
:1033F00074B100231A46194601A803F011FE2748AC
:10340000019903F0D1FC3CB1FF231A46194606E0AE
:10341000FF231A461946EFE700231A46194601A86A
:1034200003F0FEFD1D48019902F0F8FC0020009019
:10343000324651461948059B03F0F5FABBF1000FDF
:1034400014D034B300231A46194602A803F0E8FD4D
:103450001248029903F0A8FC042000907019401D46
:1034600002B24B4651460D4802F0BFFC00231A46FB
:10347000194601A803F0D4FD0188ADF8001080784A
:103480008DF802000548009902F0C8FC07B0BDE8BD
:10349000F08FFF231A461946D7E70000C005002029
:1034A0007CB500F0CBF84C4CA16B884276D900F08B
:1034B000C5F8A063617D494E1A25022905D039B3AC
:1034C000032925D0042927D029E000231A461946CC
:1034D00001A803F0A5FD0188ADF8001080788DF8F3
:1034E00002003E480099383803F05EFC307B4FF014
:1034F0002B030328009508D0608C89220B3001B281
:103500003648383802F071FC37E03B221621F7E7E5
:1035100000F5FA70A06302E0207A00283ED1207AFC
:103520004FF0000380F001002072307B1A46032820
:10353000194601A833D003F073FD0188ADF80010DF
:1035400080788DF8020025480099383803F02CFC6B
:103550000095608C2B230C3001B22048892238382A
:1035600002F043FC207A40B1608C89221C4B0C3065
:1035700001B21A48383802F05BFDFF231A4619469B
:1035800001A803F04DFD0188ADF8001080788DF89A
:10359000020012480099383803F006FC7CBD03F0A5
:1035A0003FFD0188ADF8001080788DF802000B48CF
:1035B0000099383803F0F8FB08482B233B221621EA
:1035C0003838009502F011FC207A0028D5D03B2233
:1035D000034B1621CDE7000008000020F80500206D
:1035E000AC83010810B5124C00204FF090412075BB
:1035F0000120886100F022F8A16B884216D9207A58
:1036000080F00100207200F019F800F5FA70A06354
:10361000084803F0DAF9207A002807D04022BDE8F4
:103620001040054B6421034802F002BD10BD0000AC
:1036300008000020C00500207A7D010801480068CC
:103640007047000000000020FEE700002DE9F04771
:103650002E4C2078D0B194F82D0008B96079A8B12B
:103660002B4806F027FC2A4E0025307800F00F0189
:10367000000900EB800001EB4000C0B2132809D222
:10368000607938B184F82D5065712573BDE8F04735
:1036900006F0DEBB06F0DCFB94F82D00DFF870903E
:1036A0004FF0804709F114094FF003084FF4807A76
:1036B00001281ED06079012826D189F8095089F89F
:1036C0000A5089F80B504FF08030C9F8000004F020
:1036D000C7FB2073C9F804700D4889F808801430BE
:1036E00006F08EFB504606F049FCBDE8F04706F0B8
:1036F000D1BB89F8095089F80A50B07989F80B00D4
:103700000448C9E90007E7E7BDE8F087F8050020AD
:10371000F404002000808080FEE7000010B5174C04
:10372000A06AC06928B3002006F0D2FCA26A04F1A6
:103730001C001168332910D0A1F58073B93B02D168
:10374000002101704170D069C4F82800FFF70CF91E
:10375000BDE81040012006F0BBBC09494B79002BA5
:10376000F1D1D369074AA262D361497901704170EE
:10377000ECE7BDE8104000F0D9BA000008000020D6
:10378000F8050020E001002070470907090E002815
:1037900006DA00F00F0000F1E02080F8141D7047F9
:1037A00000F1E02080F8001470470000024900207A
:1037B0004870FDF7B9BF0000240000200249012035
:1037C0004870FDF7B1BF00002400002070470000E2
:1037D0002DE9F041524E534C0025B36AA4F1440048
:1037E00006F11C021968332966D01CDC162951D059
:1037F00010DC4B4A0B2902F154023DD0032307246D
:103800000C293FD00D293FD0152941D1BDE8F04109
:10381000FDF720BB1F2941D0202942D02B2937D1C9
:10382000C079107078E040F2A51CA1F2A51761459F
:1038300062D01ADC34295DD035293DD03A4FA1F54C
:1038400080719B393AD0012922D1384606F032FBEB
:10385000387904F091F9A060787904F08DF960600E
:10386000B87904F089F9206041E0012F56D0142F77
:1038700022D0592F0CD11FE0807890700A20107050
:10388000232049E0C07800E00079907013705470F4
:10389000BDE8F081C07A401E1876F9E790F82D0057
:1038A000BFE7C18D3C20B1FBF0F2A260B1FBF0F2AA
:1038B00000FB1210C4E900501D76E9E71A4806F033
:1038C000F9FAB87804F058F9E060787804F054F91F
:1038D0002061387804F050F9132802D240F2E370E6
:1038E00004E0387804F048F900F5FA606061B06AE5
:1038F0000576CDE7407994E78079002807D000BFAE
:103900004FF00000107005D14FF0010004E04FF0BF
:103910000100F7E74FF000005070B9E7007A80E748
:10392000080000203C060020F404002010B54FF4ED
:103930008074204606F02AFB002806D0204606F0B8
:103940001DFBBDE8104006F043BA10BD2DE9F04163
:10395000234C01270025277065701820A0700420D3
:10396000E070052020716571A771E771257265729D
:10397000A572E772257365730326A673E673267432
:103980006674A674E67426750122182104F11500E8
:10399000FCF71CFE84F82D504FF43470E085A4F140
:1039A0002000056545658565C56506F0B1FAA4F595
:1039B00082707F210181FF21418120210170C67029
:1039C0004770877005611121C560017158214171EF
:1039D000857106F0E5FA002800D1FEE7BDE8F08128
:1039E000F8050020704710B504F0EEF8BDE810406F
:1039F00000F0A4B8484810B546494160474A4260C3
:103A000081608260016941F020010161016941F03A
:103A100040010161C168C907FCD1016921F02001A1
:103A20000161016941F010010161C16911F0060FE6
:103A30003B490AD0C269C2F34102012A07D0C269D8
:103A4000C2F34102032A04D005E0A52202E0BB2212
:103A500000E0CC220A80C169DF2202EA1121304A4B
:103A6000921C1180C169921CC1F307411180C16988
:103A7000090E921C1180016A921CC9B21180016A60
:103A8000921CC1F307211180016921F0100101612D
:103A90002448016841F4700101602348016841F045
:103AA0000101016001688907FCD541681F4A114086
:103AB000416041681E4A1140416001681D4A114041
:103AC0000160C16A1C4A1140C162016B40F20312DD
:103AD00091430163016B21F480310163016B21F09B
:103AE00000410163416B21F001014163D0F8C01036
:103AF00021F48031C0F8C01000218160C0F8CC10E2
:103B000006F034FBBDE8104000214FF0006005F0E6
:103B100035B900002301674500200240AB89EFCD95
:103B200000F8FF1F88ED00E0001002400C00FF08C5
:103B3000FFFFC277FFFFF2FEF0FFFF3F0248016880
:103B4000491C0160704700000000002010B5084CBF
:103B50000121204606F04DFD012807D10121204614
:103B600006F044FDBDE8104000F004B810BD0000B0
:103B70000020004009494FF480720879401EC0B20D
:103B800008714B78834201D9054B01E0044B103397
:103B90001A60002801D11420087170470800002025
:103BA0001804004810B50B4C0F226FF0180194F95F
:103BB0000200FDF7D3FCA078401E40B2A07094F93B
:103BC0000010884201DA6078A070BDE81040FDF76F
:103BD000ABBD00005C00002010B50B4C0F226FF055
:103BE000180194F90200FDF7B9FCA078401C40B21E
:103BF000A07094F90110884201DD2078A070BDE822
:103C00001040FDF791BD00005C000020154830B465
:103C1000826A154892F91840D0E9011314B1012CB9
:103C20000FD018E05B1E83601268202A00D123B1F8
:103C3000002B10DA172181600DE061B9012141608C
:103C400009E0491E416014683B22202C00D12BB1B1
:103C5000002900DA426030BCFDF766BD0129F9DBBE
:103C6000F9E70000080000203C060020F0B41448EA
:103C700000250124836A134893F91860D0E90112E2
:103C800016B1012E0CD014E0521C8260172A00DD00
:103C900085601A68202A0CD1826852B971B108E097
:103CA000491C41601B68202B00D12AB13B2900DD53
:103CB0004560F0BCFDF738BD3B29FADD4460F8E70C
:103CC000080000203C06002070B5124C1049204628
:103CD00006F032FD68B1204606F0D8FC0F490E4BC5
:103CE0000A789854521CD0B20870322801D10020B2
:103CF00008700B4D2046294606F01EFD002806D010
:103D00002946204606F004FD06490120087070BDD2
:103D100005000507004400407C060020A0040020A8
:103D200004000407A2040020FEE70000024900206E
:103D30008862FEF755BC00000800002010B540F274
:103D40001C7005F0FFFB05F07BF84FF40064204683
:103D500005F074FB204605F07FFBE01005F01CFC2D
:103D600040F60F0005F0EEFBBDE8104006F088B904
:103D700010B500214FF4807003F0D0FE01210846F9
:103D800003F0F2FD07220521002003F069FE012166
:103D9000022003F0C3FE002003F0A4FE0121084628
:103DA00003F01AFE4FF46021012003F033FE0020DF
:103DB00003F0F8FD03F004FE0A2003F0FDFE03F01B
:103DC000C1FDBDE81040012003F098BE10B5094CBC
:103DD00000220749204604F0B5F90022812311464C
:103DE000204604F05FFA2046BDE8104004F030BAE7
:103DF000801A0600005400402DE9F041304C0126A5
:103E0000304D207D022804D1287810B101F0F8F857
:103E10000026FFF713FCE062687800274FF00108E6
:103E200070B3287820B1207D012812D088B112E02B
:103E30002448383803F038FAA87908B1277501E02A
:103E400084F8148001F0DCF801F070F90020BDE87E
:103E5000F08101F0D5F81B48383803F025FAA8792D
:103E600008B1277501E084F8148001F05FF9FFF7CD
:103E7000E5FBA0F5D2407838E06268780026B0B95A
:103E80002878A0B1287A40B1207D022805D10020F1
:103E9000FEF7A6FBFFF7D2FB60640A48383803F050
:103EA00003FAA87908B1277501E084F81480FFF7B8
:103EB000C5FB41F28831084460643046C7E7000022
:103EC00008000020F805002010B540F2157005F03C
:103ED00039FB40F2115005F035FB40F2125005F06D
:103EE00031FB40F20E7005F02DFB40F2117005F031
:103EF00029FB40F2126005F025FB4FF4E06005F06D
:103F000021FB40F2096005F01DFB40F21C7005F03A
:103F100019FBBDE81040062005F05AB930B503463C
:103F20001046064C07E013F8015BC2B26A4054F831
:103F3000222082EA1020491EF5D230BD9CF70108EC
:103F40002DE9F04101224FF0904602231146304600
:103F500004F085F8022303220021304604F0A6F87D
:103F6000504F4FF4F074234602220121384604F0EA
:103F700076F8234603220021384604F097F82023E0
:103F800000220321304604F06AF801220221304663
:103F900004F02EF8012300220221304604F05FF8DD
:103FA000012303220021304604F080F84FF400740E
:103FB00022460221384604F01BF80222234611460D
:103FC000384604F04CF8002223461146384604F0E7
:103FD0006DF822460421304604F00AF865002A46AE
:103FE0000421304604F004F8234600220221304622
:103FF00004F035F8234603220121304604F056F838
:104000002B4600220221304604F029F82B460322D9
:104010000121304604F04AF84FF4204422460021A2
:10402000384603F0E5FF234600220221384604F01B
:1040300016F8234603220021384604F037F840F6EC
:104040000444012223461146384604F008F823466A
:1040500003220021384604F029F8042201213046C9
:1040600003F0C6FF08220121304603F0C1FF0423FC
:1040700001220221304603F0F2FF04230322002133
:10408000304604F013F8082301220221304603F0E1
:10409000E6FF3046BDE8F04108230322002104F08A
:1040A00005B80000000400482DE9F043002391B05A
:1040B0001A4619460BA802F0B3FF0188ADF80010AC
:1040C00080788DF80200C648009901F0A7FEFF2312
:1040D0001A4619460BA802F0A3FF0188ADF800109C
:1040E00080788DF80200BE48009902F05DFEDFF88E
:1040F000F082002508F13808BA4C98F8060001262D
:1041000008B1257500E02675B54802F05EFCB4489C
:1041100003F0CAF8002005F0DBFFB34B0DAA0CA991
:10412000AF4802F0F3F8A02790B9BDF93410BDF9FB
:10413000300001EBD1716E22A2EB610100EBD07077
:104140000AB2A7EB600001B2A74BA54801F070FFCF
:10415000012005F0BDFF4FF4FA69484603F02CFD3D
:10416000002005F0B5FF9E4802F02FFC9C48E8387F
:10417000C168E83002F018FE9C49994802F06BFCD7
:1041800000229BA1964801F0B0FD00EBD070A7EB98
:10419000600001B296A350229148009502F043FCC2
:1041A000002297A18E4801F0A0FD00EBD070A7EB94
:1041B000600001B292A378228948009502F033FC96
:1041C0009349874802F047FCFF231A4619460BA87B
:1041D00002F026FF0188ADF8001080788DF802000B
:1041E0007F48009902F0E0FD8AA38CA28CA106A86A
:1041F000FCF74CF8002206A9794801F076FD00EBA7
:10420000D070A7EB600001B206ABB92274480095EC
:1042100002F009FC012005F05BFF484603F0CCFCEE
:10422000002005F055FFA562656498F80500474633
:10423000012802D103F014FE387303F04BFEA07086
:1042400010F17F0F4FF4A0772ED07F2857D0302861
:104250007EDD002001F004F80320A071E079002841
:1042600077D1E6715E4802F0B0FB6F495C4802F01E
:10427000F2FB00231A4619460FA802F0D1FEFF23D5
:1042800004461A4619460EA802F0CAFE2188ADF867
:104290001410A1788DF816100188ADF810108078F0
:1042A0008DF8120061A058E0002000F0D9FFA6713F
:1042B000E07900285ED1E671494802F086FB5A4950
:1042C000474802F0C8FB00231A4619460FA802F01F
:1042D000A7FEFF2304461A4619460EA802F0A0FEC8
:1042E00001462088ADF81400A0788DF816000888E3
:1042F000ADF8100088788DF812004DA02DE0002058
:1043000000F0AEFF0220A071E079002832D1E67102
:10431000334802F05AFB4449314802F09CFB002329
:104320001A4619460FA802F07BFEFF2304461A46E0
:1043300019460EA802F074FE01462088ADF814005C
:10434000A0788DF816000888ADF81000887801E094
:1043500013E00FE08DF8120036A0CDE90005002132
:104360000295F0233A4608460395FEF779FF0120AF
:1043700005F0AEFE11B0BDE8F08310F11A0F4FF05A
:10438000000029DA00F06CFF0420A071E079002819
:10439000F0D1E671124802F018FB2349104802F0F0
:1043A0005AFB00231A4619460FA802F039FEFF23D4
:1043B00004461A4619460EA802F032FE2188ADF8CE
:1043C0001410A1788DF816100188ADF810108078BF
:1043D0008DF8120018A0C0E7FEF702F9CAE7000046
:1043E000C005002008000020000601081BDD0108B0
:1043F0004555524F54454348204D4554414C0000CB
:1044000050414E454C204845415445520000000063
:1044100092E4010831322E342E300000562E200056
:104420002573257300000000D58B0108453300007B
:10443000453100004532000045340000F0B5944C91
:104440008DB094A10AA8E268FBF720FF91A10BA808
:104450002269FBF71BFF91A108A86269FBF716FF11
:104460009049A4F17C0002F0F6FAA4F17C0001F07E
:104470000CFDC0F1780007B2002208A9A4F17C006D
:1044800001F033FC884CC6B2A06A007E00287DD0C3
:1044900000231A46194606A802F0C2FDA06A007E53
:1044A000002874D0FF231A46194607A802F0B8FD69
:1044B000BDF81800ADF814009DF81A008DF816002C
:1044C000BDF81C00ADF810009DF81E008DF812001C
:1044D000A06A0025007E00287CD0002008A9009159
:1044E000CDE901053C2306F1140239461920039554
:1044F000FEF7B6FE664800220BA97C3801F0F5FBFA
:10450000C6B2A06A007E012865D000231A4619466B
:1045100007A802F085FDA06A007E01287DD0FF2358
:104520001A46194606A802F07BFDBDF81C00ADF83E
:1045300014009DF81E008DF81600BDF81800ADF8A7
:1045400010009DF81A008DF81200A06A007E012864
:1045500000D000200BA90091CDE9010506F114025D
:104560003C23164639469B200395FEF779FE4848C2
:1045700000220AA97C3801F0B8FBA06A007E02285C
:1045800077D000231A46194607A801E05EE061E0F3
:1045900002F046FDA06A007E02286FD0FF231A4673
:1045A000194606A802F03CFDBDF81C00ADF8140049
:1045B0009DF81E008DF81600BDF81800ADF810002B
:1045C0009DF81A008DF81200A06A007E022859D0CA
:1045D000002001E042E043E00AA90091CDE9010595
:1045E0003C2332463946EB200395FEF739FEFF2384
:1045F0001A46194606A802F013FD0188ADF800100E
:1046000080788DF80200224800997C3802F0CCFBBB
:1046100000231A46194606A800E026E002F000FD35
:104620000188ADF8001080788DF8020018480099D4
:104630007C3801F0F3FBA06A90F9180020B3012840
:1046400024D01AA0FEF728FD0DB0F0BDFF231A46B6
:10465000194620E73823A522132126E701203DE74C
:10466000FF231A46194653E703E03823A5221321F6
:1046700058E7FF231A46194686E7FFE73823A522A5
:1046800013218EE70120A4E70AA0DBE70CA0D9E7FD
:104690003C060020253032640000000025303464E0
:1046A00000000000B0A60108080000205365742037
:1046B00064617900536574207965617200000000BF
:1046C000536574206D6F6E74680000002DE9F0432F
:1046D0008BB08449844802F0BEF9834801F0D5FBD1
:1046E000814FC0F178007C370FFA80F97FA107A8CD
:1046F000BA68FBF7CBFD002207A97B4801F0F5FA69
:104700007C4DC6B2A86A007E00287CD000231A46E1
:10471000194606A802F084FCA86A007E002873D01F
:10472000FF231A4619460AA802F07AFCBDF81800C1
:10473000ADF814009DF81A008DF81600BDF8280099
:10474000ADF810009DF82A008DF81200A86A002428
:10475000007E00287ED000210DF11C0840468DE827
:1047600013005720A0EB56003C23462249460394F1
:10477000FEF776FD5DA107A87A68FBF787FD0022AA
:1047800007A9594801F0B1FAC6B2A86A007E01280B
:104790007DD000231A4619460AA802F041FCA86AF7
:1047A000007E012874D0FF231A46194606A802F09D
:1047B00037FCBDF82800ADF814009DF82A008DF8EC
:1047C0001600BDF81800ADF810009DF81A008DF81D
:1047D0001200A86A007E012871D00021CDF8008067
:1047E000CDE90114CB20A0EB56003C2346224946DC
:1047F0000394FEF735FDFF231A46194606A802F07A
:104800000FFC018801E056E05AE0ADF80010807816
:104810008DF802003448009902F0C6FA00231A46C7
:10482000194606A802F0FCFB0188ADF8001080785C
:104830008DF802002C48009901F0F0FA00231A4686
:1048400019460AA802F0ECFBFF2307461A46194650
:1048500006A800E038E002F0E3FB0646002226A1AD
:10486000214801F042FA3988ADF81410B9788DF872
:1048700016103188ADF81010B1788DF812101EA105
:10488000CDE90014029400EBD070A02101E01DE0FE
:1048900020E0A1EB600000B23723042249460394D4
:1048A000FEF7DEFCA86A007ED0B114A0FEF7F4FB90
:1048B0000BB0BDE8F083FF231A46194629E70DE047
:1048C0003823A52213212EE7012145E7FF231A46AD
:1048D000194661E73823A522132167E701217DE707
:1048E00009A0E3E7B0A60108C00500202530326426
:1048F00000000000080000203A000000536574200A
:104900006D696E757465000053657420686F75720B
:10491000000000002DE9F14F8AB04449444802F0FC
:104920009AF8434DDFF80CB14D35002707EB4700EF
:10493000002600EB0711412007EB470A00EB410876
:1049400006EB4601132000EB011906EB4A04224650
:1049500039A108A8FBF79AFC285D032801D901209A
:1049600028550A98844208D0DBF8280090F91800EE
:10497000A04202D00A98401C49D1DBF8280090F9E7
:104980001800A04206D13823A522132106A802F060
:1049900047FB0BE0285D264900EB4000D93908446D
:1049A0000188ADF8181080788DF81A00285D03286A
:1049B00036D000231A46194607A802F031FBBDF88D
:1049C0001800ADF814009DF81A008DF81600BDF817
:1049D0001C00ADF810009DF81E008DF81200DBF8E9
:1049E000280090F91800A04202D0285D03281BD0AF
:1049F0000021002008AACDE90020CDE902011F23F3
:104A000029220FFA88F10FFA89F0FEF729FC761CAB
:104A1000062E95DB7F1C042F88DB0BB0BDE8F08FE2
:104A2000FF231A461946C7E70221E2E792E401088C
:104A3000C0050020080000202564000010B5084BC8
:104A400065220C21074801F0F3FA054BBDE8104040
:104A5000463365224FF48F71024801F0E9BA000035
:104A6000ED1A0108C005002070B5244C0246D3B2EF
:104A7000207EFF2800D12376607A814208D1207EF3
:104A8000904205DDA07A617B884201D0401CA07273
:104A90001B48E57A0179491B0025914217DB017B10
:104AA000022914D0217E914211DDA572FF212176C9
:104AB000457302210173012121744571FEF7BEFD8A
:104AC00000F57A7020630020FDF78AFD12E0207E59
:104AD00090420BDA03F0E8F9E17A401A904205DBE4
:104AE000A07A617B884201D02376A572A07A617B8F
:104AF000884201D1012070BD002070BD0800002057
:104B0000F80500201FB54FF4E16004F01BFD154CC3
:104B1000204605F0D7FC684605F07FFD44F61F00EF
:104B2000ADF800000021ADF8041040F2E730ADF818
:104B300002100290ADF806106946204605F002FD0D
:104B40000121204605F052FD0121204605F04AFDD5
:104B5000204605F0F1FC00221146132004F0C0F8B5
:104B60001FBD00000020004030B5224D89B028460E
:104B700005F0A8FC5320ADF8100000244FF4FA60B3
:104B8000ADF814400690ADF81240ADF816408DF81F
:104B90001C4004A9284605F0D5FC01200090ADF882
:104BA0000440ADF80840ADF80640ADF80A40ADF855
:104BB0000C406A460021284605F030FB00221146D1
:104BC000284605F048FC60220021284605F01CFC20
:104BD00000221146284605F04DFC0121284605F02B
:104BE00012FD284605F014FB284605F0A5FC09B087
:104BF00030BD00000048014030B54FF0804589B01D
:104C0000284605F05FFC5320ADF8100000244FF457
:104C1000FA70ADF814400690ADF81240ADF81640A9
:104C20008DF81C4004A9284605F08CFC012000905A
:104C3000ADF80440ADF80840ADF80640ADF80A40C4
:104C4000ADF80C406A460021284605F0E7FA00223C
:104C50001146284605F0FFFB60220021284605F09A
:104C6000D3FB08220021284605F004FC0121284638
:104C700005F0C9FC284605F0CBFA284605F05CFC97
:104C800009B030BD2DE9F0414B4F384603F0DBFA57
:104C90007D1501224FF090442B461146204603F02B
:104CA000DEF92B4603220021204603F0FFF9A5611F
:104CB0006E00012233461146204603F0D0F93346F8
:104CC00003220021204603F0F1F9A66100E000BFB5
:104CD0002946204603F0E5F90128F8D100E000BF9D
:104CE0002946204603F0DDF90128F8D1A56200E04D
:104CF00000BF2946204603F0D4F90028F8D1A66267
:104D000000E000BF3146204603F0CBF90028F8D17F
:104D1000A66100E000BF3146204603F0C2F9012839
:104D2000F8D1A56100E000BF2946204603F0B9F99B
:104D30000128F8D12A460421204603F059F93246C9
:104D40000421204603F054F92B460022022120467C
:104D500003F085F92B4603220121204603F0A6F932
:104D6000334600220221204603F079F9334603221C
:104D70000121204603F09AF94FF40041384603F030
:104D80009CFA00BF0021384603F097FA00BF38466E
:104D900003F05EFA4FF480420849384603F0D2F936
:104DA000002281231146384603F07CFA3846BDE8DC
:104DB000F04103F04DBA000000540040801A060094
:104DC0002DE9FE4F8346FEF739FC884C00250C2662
:104DD0002063A16A54274FF078080B684FF09E09B2
:104DE000A3F580724FF4FA6A04F178009B3A07D178
:104DF000CA69D2F81CC09CF818C0BCF1040F03D0DB
:104E0000B3F5CE7F57D05BE0C2617848B830A0627E
:104E1000C261002005F05CF9754801F0D6FDFF2362
:104E20001A46194602A802F0FBF80188ADF80010F6
:104E300080788DF802006E48009901F0B5FFCDE949
:104E400000765C234E227221694801F023F86949FB
:104E5000674801F000FE00231A46194602A802F036
:104E6000DFF80188ADF8001080788DF80200604806
:104E7000009901F099FFFF231A46194602A802F093
:104E8000CFF80188ADF8001080788DF802005848FE
:104E9000009900F0C3FF002257A1554800F025FFFC
:104EA0000646534800F0F1FF00EBD072A8EB620019
:104EB00002B2009560E0CA69D3691B7E042B05D05D
:104EC000C969C161BBF1020F7ED089E0C2614B4864
:104ED000A062216DC161002005F0FAF8444801F09C
:104EE00074FDFF231A46194602A802F099F80188BA
:104EF000ADF8001080788DF802003D48009901F06F
:104F000053FFCDE900765C234E227221384800F031
:104F1000C1FF3849364801F09EFD00231A46194664
:104F200002A802F07DF80188ADF8001080788DF8B5
:104F300002002F48009901F037FFFF231A46194657
:104F400002A802F06DF80188ADF8001080788DF8A5
:104F500002002748009900F061FF002226A12448A2
:104F600000F0C3FE0646224800F08FFF00EBD0722F
:104F7000A8EB62010AB2009506EBD671A9EB6100BD
:104F800001B21DA31A4801F04EFDFF231A4619462F
:104F900002A802F045F80188ADF8001080788DF87D
:104FA00002001348009901F0FFFE00231A4619463B
:104FB00002A802F035F80188ADF8001080788DF86D
:104FC00002000B48009900E008E000F027FF0120F4
:104FD00005F07EF8504602F0EFFD02E0C969C161BC
:104FE000A062FEF72BFBE062BDE8FE8F0800002008
:104FF000C0050020B0A601084F4B0000A002002011
:105000000A4810B5C07900280FD0094CA52200210C
:10501000204605F020FA142002F0CEFD20460022A2
:10502000BDE81040114605F016BA10BDF805002085
:10503000004801407CB5314CA56A686918B102B0DE
:10504000BDE870400047A86848B1A98839B195F912
:10505000181000EB41100021C561A0620176A06A22
:1050600000680B2803D00C2801D00D2817D100238D
:105070001A46194601A801F0D3FF0188ADF80010C7
:1050800080788DF802001E48009901F08DFEC8203E
:105090000346462200901146194800F0A6FEA06A79
:1050A0000068052816D11648CC3804F003FF144ACE
:1050B000CC3A107802F060FD13280BD8507802F03B
:1050C0005BFD0C2806D2A06A0C49C069D831A162E8
:1050D0002065C861A86810B1A06A806858B1FBF764
:1050E000B9FE002004F0F4FFFDF73EFCBDE87C4073
:1050F000012004F0EDBFFEF76BFBF2E70800002093
:10510000C0050020810705D1642190FBF1F201FB6D
:10511000120141B94FF4C87190FBF1F201FB12008A
:1051200008B1002070470120704700001FB5002320
:105130001A461946684601F073FF0188ADF80C1055
:1051400080788DF80E002248039900F067FEFF2357
:105150001A461946684601F063FF0188ADF80C1045
:1051600080788DF80E001A48039901F01DFE18484A
:1051700001F02BFC174B02AA01A9154801F0C6F853
:1051800098B9BDF90810782201EBD171BDF904007E
:10519000A2EB61010AB200EBD070A021A1EB60008C
:1051A00001B20C4B0A4800F043FF4FF4FA6002F0E2
:1051B00003FD07483830007818B10020FDF710FAD9
:1051C0001FBD034801F001FC014801F059FF1FBD5C
:1051D000C0050020C064010810B50F4CA16A086921
:1051E00010B1BDE8104000478888002813D0002087
:1051F00004F06EFFA06A017E491C49B201768288E4
:10520000914201DB00210176FDF7AEFBBDE81040C5
:10521000012004F05DBF10BD0800002010B50F4C48
:10522000A06AC16811B1BDE8104008478088002815
:1052300013D0002004F04CFFA06A017E491E49B241
:105240000176002902DA0179491E0176FDF78CFB0F
:10525000BDE81040012004F03BBF10BD0800002055
:105260002DE9F041040001D5002402E0142C00DDFA
:105270001424184D1848E7B22F70417ADFF85C808B
:105280001648202608F1280859B1202102F0E2FE34
:1052900020B1C8F80060642002F08EFC6F70BDE899
:1052A000F0810A2C09DD0D4818300660642002F0F8
:1052B00083FCEC2000EB440009E0202102F0CAFE50
:1052C00020B1C8F80060642002F076FC60006870CD
:1052D000E5E7000008000020F80500200004004871
:1052E00070B50C4D01202870FEF7DEFE0A4C002040
:1052F000E071FEF7ABF9FEF7A1F92063FEF79EF926
:10530000E063A87A002804D1BDE870400A20FFF7C6
:10531000A7BF70BDF80500200800002010B50020D0
:1053200004F0D6FE0648A0F52E71886200210176B1
:10533000FDF71AFBBDE81040012004F0C9BE0000D3
:10534000C002002070B502F061FD342002F012FDB1
:10535000104D284602F01CFD342002F00BFD0E4CCF
:105360004FF0FF3240212046FEF7D8FD214611269E
:10537000086405E02168284602F058FD241D2D1D13
:10538000761EF7D2342002F0F5FCBDE8704002F042
:10539000F7BC000000F80108F805002070B50F4EBA
:1053A00000250F4C86F82D50F08D60832846FFF7BE
:1053B00057FF35700120A074A572FF202076257458
:1053C000E573002004F084FEA6F1380001F058FED9
:1053D000A6F13800BDE8704001F0F7BAF8050020EA
:1053E0000800002010B588B000204FF48271CDE98C
:1053F000001002904FF4007105900690CDE9031063
:10540000064C6946204604F090FE0021204604F038
:105410007DFE204604F084FE08B010BD0038004038
:1054200070B5002211461C2003F05AFC1C4C20468B
:1054300005F034F90021204605F095F900212046B9
:1054400005F0D8F90021204605F0A1F904212046F5
:1054500005F095F90821204605F0A5F940212046E0
:1054600005F034F94FF41651204605F0E1F82046D6
:1054700005F034F940F206752946204605F033F967
:105480000028F9D00521204605F038F904212046EE
:1054900005F034F9BDE87040642002F08DBB0000D7
:1054A000004400401FB500231A461946684601F023
:1054B000B7FD0188ADF80C1080788DF80E002248F9
:1054C000039900F0ABFCFF231A461946684601F029
:1054D000A7FD0188ADF80C1080788DF80E001A48F1
:1054E000039901F061FC184801F06FFA174B02AA0A
:1054F00001A9154800F00AFF98B9BDF908107822F3
:1055000001EBD171BDF90400A2EB61010AB200EB1D
:10551000D070A021A1EB600001B20C4B0A4800F052
:1055200087FD4FF4FA6002F047FB074838300078F7
:1055300018B10020FDF754F81FBD034801F045FAEB
:10554000014801F09DFD1FBDC00500205A6A0108F9
:105550002DE9FF4F804600699BB000287CD08278FF
:105560001792022A01D0012A76D1D8F81420079286
:10557000002216926FF063020C92C0780D90029197
:105580000020CFE21E98435C002009901890D8F8C4
:1055900010000524611C425C015D02EB012111F049
:1055A000FF0129D0E21C855CA21C9942825C05EBBC
:1055B00002220FFA82F97CD1B9F1080F1CDB01211C
:1055C0001891211D04F1050B435C099310F80B1091
:1055D000E71D01F07F020492A21D0025825C0A9261
:1055E000C05D049A00F07F0A9A1A1798A2EB0A0687
:1055F000022802D0012871D06FE2C8096FD00A9A40
:105600000D99A9F10800891A0026A1EB0A070E9648
:10561000119096E0D8F8100001190E980830085C37
:1056200095FBF7F10FFA81FB10F0C00F58D000F096
:105630003F0A05EB0A010DB2B14606EB0A010EB2B4
:10564000000678D5289840B1404698F8193098F867
:10565000182098F8171007E077E20798C0F307437F
:10566000C0F30722C1B2404601F0A6FB1D990A987B
:10567000084410903844401E00B2199002990498D2
:1056800008440B9018E01099199B01EB090002B235
:105690000B98584401B2404601F0CDF9A7EB09013F
:1056A000AAEB01000FFA80FA4FF000090BF101009C
:1056B00000E046E20FFA80FB09EB0A00B842E2DCA8
:1056C0001098484400EB0A0102B20B98491E0BB235
:1056D000584401B2404601F0AEF92CE0D5E036E086
:1056E000289949B1404698F8193098F8182098F848
:1056F000171001F061FB09E08006020E4046079991
:1057000000F0BEFA0146404601F04EFB1D990A9892
:105710000844304402B204990298014401EB0B00A2
:1057200001B2404601F060FB6D1C761C2DB236B212
:1057300001E0F01B06B2BE42FBDA0E98401C00B23C
:105740000E900E9911988142FFF664AFC5E10027D3
:10575000A9F1080011900E97384691E0D8F8100092
:1057600001190E980830085C95FBF6F10FFA81FBE1
:1057700010F0C00F53D000F03F0A05EB0A010DB244
:10578000B94607EB0A010FB2000673D5289838B165
:10579000404698F8193098F8182098F8171006E045
:1057A0000798C0F30743C0F30722C1B2404601F097
:1057B00003FB04990298084410903044401E00B244
:1057C00019900A991D9808440B9016E00B981099AF
:1057D000584402B201EB090001B24046199B01F0A6
:1057E00012F9A6EB0901AAEB01000FFA80FA0BF1FE
:1057F00001004FF000090FFA80FB09EB0A00B042EC
:10580000E4DC1098484400EB0A01491E0BB20B99E6
:1058100059440AB201B2404601F0F5F82AE028994D
:1058200049B1404698F8193098F8182098F81710A0
:1058300001F0C2FA09E08006020E4046079900F026
:105840001FFA0146404601F0AFFA1D990A9801443B
:1058500001EB0B0002B2029904980844384401B2EB
:10586000404601F0C1FA6D1C7F1C2DB23FB201E031
:10587000B81B07B2B742FBDA0E98401C00B20E907C
:1058800011998842FFF66AAF27E1289840B1404657
:1058900098F8193098F8182098F8171001F08CFA39
:1058A000D8F81000C15DC9097ED010F80B00C009FE
:1058B00062D00A9A0D99A9F10800891A0026119060
:1058C000A1EB0A070E96304652E000BFD8F8100050
:1058D00001190E980830085C00F07F09C00939D022
:1058E00095FBF7F00FFA80FB02990498B246084442
:1058F00010900A991D9808440B901BE0384403B29D
:105900000B981099504402B201EB0B0001B24046D3
:1059100001F091F8A7EB0A00A9EB00010FFA81F959
:105920002918304406B20BF101000DB24FF0000A05
:105930000FFA80FB0AEB0900B8420B98DEDC5044FA
:1059400000EB090102B210980BB2584401B2404674
:1059500001F071F805EB090005B206EB090000E063
:10596000F01B06B2BE42FBDA0E98401C00B20E904D
:1059700011998842AADBB0E00027A9F108000E9730
:10598000109055E0D8F81000BA4601190E9808306A
:10599000085C95FBF6F100F07F09C0090FFA81FB66
:1059A00038D00299049800E047E008440B900A9927
:1059B0001D980844CDF844000AEB0900B0421CDDF4
:1059C0000B98304403B21198584402B20B985044DB
:1059D00001B2404601F017F8A6EB0A00A9EB00015E
:1059E0000FFA81F92918384407B20BF101000DB202
:1059F0004FF0000A0FFA80FBDEE70B9901EB0A007B
:105A000000EB09010BB2119959440AB201B24046A8
:105A100000F0F9FF05EB090005B207EB090000E013
:105A2000B81B07B2B742FBDA0E98401C00B20E90CA
:105A30000E9910988142A5DB4FE00027A9F10800DC
:105A40000597BB460F9045E0D8F8100001190BF1FF
:105A50000800085C0E9001E0B81B07B2B742FBDA01
:105A60000598B94690FBF6F00FFA80FA5FF0000552
:105A700009EB0500B04205D10AF10100C5F10009AA
:105A80000FFA80FAC5F10701012088400E9900B293
:105A9000014211D10A991D98014401EB0A00411CF1
:105AA0000BB202B204990298014401EB09002844A8
:105AB00001B2404600F0BFFF6D1CEDB2082DD7D3F8
:105AC0000BF101000FFA80FB0598083000B208378F
:105AD0003FB205900F998B45B6DB299880B1169996
