:020000040800F2
:10000000382300204D02000825330008E5310008A0
:10001000B53200084D150008053900080000000041
:10002000000000000000000000000000C1350008D2
:10003000191700080000000069330008C3350008E4
:100040006702000867020008F13400086702000830
:1000500067020008670200086702000867020008DC
:1000600067020008670200086702000867020008CC
:1000700067020008670200086702000867020008BC
:100080006702000867020008000000002937000826
:10009000670200086702000867020008670200089C
:1000A000670200086702000867020008670200088C
:1000B000A5380008000000006702000800000000EA
:1000C000670200080000000067020008000000004E
:1000D0000000000000000000000000000000000020
:1000E000000000000000000067020008000000009F
:1000F0000000000000000000000000000000000000
:10010000670200080000000000000000000000007E
:1001100000000000000000000000000000000000DF
:1001200000000000000000000000000000000000CF
:1001300000000000000000000000000000000000BF
:10014000000000000000000000000000670200083E
:1001500000F002F800F06AF80AA090E8000C82446F
:100160008344AAF10107DA4501D100F05FF8AFF24C
:10017000090EBAE80F0013F0010F18BFFB1A43F085
:1001800001031847DCE90100FCE901000A444FF0D3
:10019000000C10F8013B13F0070408BF10F8014BE6
:1001A0001D1108BF10F8015B641E05D010F8016B2B
:1001B000641E01F8016BF9D113F0080F1EBF10F88F
:1001C000014BAD1C0C1B09D16D1E58BF01F801CBB2
:1001D000FAD505E014F8016B01F8016B6D1EF9D535
:1001E0009142D6D37047000000230024002500264A
:1001F000103A28BF78C1FBD8520728BF30C148BF8A
:100200000B607047642900F0A580732900F08D838E
:10021000002070471FB50BF036FB9DE8030000F08F
:100220001DFD00F0DDFA1FBD10B510BD00F0D0FCC3
:100230001146FFF7EFFF08F0DFFA00F045FD03B4C9
:10024000FFF7F2FF03BC00F071FD00000948804792
:1002500009480047FEE7FEE7FEE7FEE7FEE7FEE7A8
:10026000FEE7FEE7FEE7FEE704480549054A064BC0
:1002700070470000D13500085101000838090020FE
:1002800038230020381F0020381F00200FB41CB571
:10029000074B06AA7B4469460090059800F01BFBBB
:1002A0000020694600F02AFB1CBC5DF814FB00002E
:1002B0006506000070B5044685690068C10601D571
:1002C000302600E02026C00707D070BDD4E9012108
:1002D00030469047206A401C20626D1EF6D570BDE6
:1002E00070B5044685690078C00707D170BDD4E9B0
:1002F000012120209047206A401C20626D1EF6D507
:1003000070BD70B50C460546012A05D028788006D8
:1003100000D5EA69002302E0012305E05B1C93425B
:1003200002D2E05C0028F9D1A869E618C01AA861D9
:10033000286A184428622846FFF7BCFF04E0D5E984
:10034000012114F8010B9047B442F8D32846FFF777
:10035000C7FF70BD2DE9F0410646002410687529DD
:10036000314616A510D0AFF30080002802DA4042D3
:1003700013A507E031688A0701D512A502E04907F5
:1003800004D511A5012401E0AFF3008000210A2269
:1003900006F1240709E0B0FBF2FCB0FBF2F302FB2C
:1003A0001C00303078541846491C0028F3D12346ED
:1003B0002A463046BDE8F04100F02FBA00000000A8
:1003C0002D0000002B000000200000002DE9F05F50
:1003D000894604464FF0000ADFF824B1FB44C0F818
:1003E00020A02046E168884700287DD0252806D037
:1003F000D4E901219047206A401C2062F1E70025E2
:100400005F462046E16888472028064607DB312EF4
:1004100005D2B81910F8200C08B10543F1E7A80778
:1004200001D525F00405C4F81CA00027C4F818A0C5
:100430002A2E09D0304606F0A1FF38B304EB870816
:10044000303EC8F8186019E059F8041B204604EB48
:1004500087029161E1688847012F064618D1E0695B
:10046000002820DA25F020051DE0D8F8180000EB60
:10047000800006EB40003038C8F818002046E168DC
:100480008847064606F07AFF0028EED1012F0AD0F1
:100490002E2E08D12046E16888477F1C0646022F91
:1004A00045F02005C4DBA069002803DA404245F08E
:1004B0000105A061E80701D025F01005A6B1A6F15D
:1004C0004100192802D8203645F400654A463146D5
:1004D000204625604D46FFF795FE60B1012807D004
:1004E000ED1D25F0070000E007E000F1080978E7BE
:1004F00005F1040975E730467AE7206ABDE8F09F08
:1005000090E6010010B5431C02E010F8011B71B128
:100510008107FAD14FF0013202C88C1A8C4314EAD9
:10052000C211F9D0C01A0A0603D0C01E10BDC01AED
:1005300010BD0A0401D0801E10BD0902FCD0401E6F
:1005400010BD032A40F2308010F0030C00F015803B
:1005500011F8013BBCF1020F624498BF11F801CBC6
:1005600000F8013B38BF11F8013BA2F1040298BF2B
:1005700000F801CB38BF00F8013B11F0030300F095
:10058000D881083AC0F0088051F8043B083A51F885
:1005900004CBA0E80810F5E7121D5CBF51F8043B3E
:1005A00040F8043BAFF30080D20724BF11F8013BB1
:1005B00011F801CB48BF11F8012B24BF00F8013B13
:1005C00000F801CB48BF00F8012B704702F0FF0391
:1005D00043EA032242EA024200F002B84FF000026E
:1005E0000429C0F0128010F0030C00F0D681CCF189
:1005F000040CBCF1020F18BF00F8012BA8BF20F8B3
:10060000022BA1EB0C0100F0C8B95FEAC17C24BF4A
:1006100000F8012B00F8012B48BF00F8012B7047B0
:10062000014900F0DFB90000AC08002010B50368F4
:100630001C1404EB21449BB289B2194494FBF2F3DD
:1006400002FB134394FBF2F401EB034393FBF2F13F
:1006500002FB113193FBF2F301E05B1E1144002910
:10066000FBDB016003EB044010BDF0B504464FF026
:10067000FF3585B00068049060680290A068039020
:10068000E068019020690090666906F18040B0F151
:10069000004F7CD83C22002104A8FFF7C7FF3C2272
:1006A000014602A8FFF7C2FF1822014603A8FFF780
:1006B000BDFF411E40F2B55201A8FFF7B7FF0C2263
:1006C000074668460021FFF7B1FF414B00EB87006A
:1006D000304400267B4411E0511A01910099491CD5
:1006E0000229009102D00C2908D105E0810705D02C
:1006F0000199491C019101E0401C00960099019A62
:10070000595C9142E8DD0099012906D11C2A04D1E7
:10071000810702D00221CDE90016A0F146018B2904
:100720003CD2DDE90061002202E09F5C521C3944AA
:10073000B242FADB012E02DD820700D0491E40F2F0
:10074000B55340F26D16C21700EB927292105A43E5
:1007500000F0030303FB062283070A4400D1521E64
:10076000039E02EB4203049F06EBC303029EC3EB0E
:10077000031306EB8303174E33441E149BB2C6EBE0
:100780000616C3EB0313B60007EB830300E005E096
:1007900006EB134666F31F43360C02D0284605B01D
:1007A000F0BD80C4029E40C4039E40C4019E761CDE
:1007B00044F80C6B009E44E902600720521C92FB37
:1007C000F0F600FB162084E823001846E7E7000057
:1007D000ECE30100A039CEFD704770477047000080
:1007E00070B5064C7C44064D7D4403E020682044EF
:1007F0008047241DAC42F9D170BD000098E3010090
:100800009CE3010010B500F04DF9006810BD10B573
:10081000044600F047F9046010BD2DE9F0470D468D
:1008200099469246044600F124080168880604D5DA
:10083000E06921F01001216000E00120A84201DD03
:10084000471B00E00027A1697A1902EB0900081A8A
:10085000A0612078C00602D42046FFF72BFD0026B9
:1008600008E0D4E901211AF806009047206A401CEC
:10087000761C20624E45F4DB2078C0060AD520465F
:10088000FFF718FD06E0D4E9012130209047206AE7
:10089000401C2062381EA7F10107F4DC07E0D4E910
:1008A000012118F805009047206A401C2062281E8C
:1008B000A5F10105F3DC2046FFF712FD20780006C4
:1008C00002D50220BDE8F0870120FBE701694A1C40
:1008D00002610878704700B58FB0CDE90131002181
:1008E000059105497944CDE9031011466846FFF7A3
:1008F0006DFD0FB000BD0000E5FFFFFF0A6802F8C4
:10090000010B0A60704710B5436913B1AFF3008063
:1009100001E0FFF7F6FC012010BD127800F1240180
:100920000A7000224A700122EDE711684FF0FF3291
:10093000E9E710B5203AC0F00B80B1E81850203A32
:10094000A0E81850B1E81850A0E81850BFF4F5AF6F
:100950005FEA027C24BFB1E81850A0E8185044BFF9
:1009600018C918C0BDE810405FEA827C24BF51F866
:10097000043B40F8043B08BF7047D20728BF31F85A
:10098000023B48BF11F8012B28BF20F8023B48BFAB
:1009900000F8012B70474FF0000200B51346944653
:1009A0009646203922BFA0E80C50A0E80C50B1F1C7
:1009B0002001BFF4F7AF090728BFA0E80C5048BFDB
:1009C0000CC05DF804EB890028BF40F8042B08BF79
:1009D000704748BF20F8022B11F0804F18BF00F875
:1009E000012B704770B50C46016800204A1C3ED0B0
:1009F0003C22B1FBF2F302FB1313B1FBF2F12360D3
:100A0000B1FBF2F302FB1313B1FBF2F118226360A6
:100A1000B1FBF2F302FB1313B1FBF2F146F2E03249
:100A20000A440721A360B2FBF1F301FB132140F25A
:100A3000B553B2FBF3F5A161B2FBF3F103FB152251
:100A40008900B2F5B77F08D39B10521EB2FBF3F5B5
:100A50002944B2FBF3F503FB15220F4BE261616100
:100A600089077B440CD03B2A0AD3521C08E02C2176
:100A70002046FFF790FF0120E0600AE0521A401C78
:100A8000195C9142FAD9521CC4E903204FF0FF309F
:100A90002062204670BD00005EE001000048704703
:100AA0000C09002000487047D808002070B50646A1
:100AB00000F0B4F8056806F10B0020F00704B4421A
:100AC0009CBF002070BD2B466A68BAB11068A04276
:100AD00010D304F1080188423CBF5068586007D326
:100AE0005168101941601168091B01605860146059
:100AF000101D70BD13465268002AE7D121462846D2
:100B000000F098F80028DED170BD70B50446051FCE
:100B100000F084F80068002C14BF446870BD002CFD
:100B200018BFAC423CBF20466468F8D301680A187D
:100B3000AA4218BF456003D12A68054611440160E6
:100B400028684119A1421CBF6C6070BD6168696072
:100B500021680844286070BDAFF3008010B500F034
:100B60000EF8016919B100220261884701E080682E
:100B7000804700F0B2F8000010B500F0AEF870B594
:100B800000F050F804680546A4B92020FFF78EFF56
:100B9000040011D0094900202C60C4E90001084973
:100BA000A1602073206160610649A06109B100F075
:100BB0009FF8E061204670BD00F08FF80000000053
:100BC000790B00080000000000487047D80800209A
:100BD0007546FFF7F9FFAE4605006946534620F01B
:100BE0000700854618B020B5FFF73EFBBDE8204062
:100BF0004FF000064FF000074FF000084FF0000BD9
:100C000021F00701AC46ACE8C009ACE8C009ACE88B
:100C1000C009ACE8C0098D46704700000048704725
:100C2000E008002000487047140900207047704712
:100C30007047704738B504460A4600206946AFF34E
:100C40000080002808BF38BD02460099204600F009
:100C500073F8012038BD012000F08FB8F8B5AFF36C
:100C60000080054600200C46102000BF0646A8194B
:100C7000A0420DD9324669460020AFF3008007003C
:100C800008BF00F07AF80098A04218BF0546C419C2
:100C9000FFF7C4FF05600746F01D20F00700461966
:100CA000284600F00AF8B44208BFF8BDA21B31463E
:100CB0003868BDE8F84000F03FB800210160C0E9A5
:100CC000011070471020704710B50446AFF3008044
:100CD0002046BDE81040FFF7B2BA10B5002000F082
:100CE00045F8FFF7A1FABDE81040012000F01EB85A
:100CF00010B58820FFF7DAFE002801D0002101702E
:100D000010BD802902D808B1017809B100207047D0
:100D1000012100F8081B704718B100F10802914248
:100D200001D0002070470021017070470149182050
:100D3000ABBEFEE726000200034640688C46002852
:100D400018BF88423CBF03464068F8D3186818446F
:100D5000884207D00CF1030020F00700001D411A63
:100D6000521A0146081D0A60FFF7CFBE10B500F009
:100D700011F8BDE8104000F008B810B500F022F8F6
:100D8000BDE8104000F001B87047002801D0FFF71F
:100D9000CDBF704710B5002102A000F03BF8012044
:100DA00010BD0000534947414252543A2041626EFF
:100DB0006F726D616C207465726D696E6174696FBC
:100DC0006E00000010B5012805D0002103A000F03E
:100DD00021F8012010BD09A1F8E70000534947524E
:100DE000544D454D3A204F7574206F6620686561FB
:100DF00070206D656D6F7279000000003A204865C3
:100E00006170206D656D6F727920636F727275709D
:100E10007465640070B505460C460A2000E06D1C40
:100E200000F011F835B128780028F8D102E0641CF0
:100E300000F009F814B120780028F8D1BDE870401E
:100E40000A20AFF3008008B569468DF80000032042
:100E5000ABBE08BD2DE9FE4FFE4DFF4C05F1200352
:100E6000E86AA3F1020E93F900C002689EF801102F
:100E700000264FF001094FF0780A4FF09E0BA4F1C5
:100E8000EC07342A70D028DC162A6ED015DCF14924
:100E90000D2A01F1500189787CD006DC0B2A77D02D
:100EA0000C2A18D1F970012088E00E2A7ED0152A6C
:100EB00011D1BE72142068727FE01F2A67D0202AE9
:100EC00072D02B2A71D0332A05D1017E1970E349E3
:100ED000C861E9620E76BDE8FE8FB2F5FF7F7CD077
:100EE00045DCDC4B40F2A51803F11E03A2F2A51C61
:100EF00093F90130424571D015DCD94FA2F58072CB
:100F00004FF00C084FF054099B3A68D0012AE2D107
:100F1000017E491C0176384609F0CEF8E86A007E69
:100F200001287DD0C4E2BCF1010F7AD0BCF1140FCE
:100F3000D1D17246002B75D0017E491C49B2017691
:100F4000012970D00229C6D102F0E2FA03F0F6FEC0
:100F5000BFF34F8FC3480168C34A01F4E0611143F6
:100F60000160BFF34F8FFEE7B5E221E012E0A2F58A
:100F70008072FF3A7ED0132A7DD0B2F5756F92D081
:100F8000A2F57062513AA6D18DE701E00EE019E0BA
:100F9000B97088E790F918000CEB4C022D23384407
:100FA00003EBC20281547EE71AE0D9E039717AE797
:100FB00087F80A90007E401CF8720220BDE8FE4FC0
:100FC00003F0F2BB87F8D5100029DDD006F06CFCE9
:100FD000032800D13E737E7182E28FE297E2C1E086
:100FE000017E491C49B2017601297DD12189A08861
:100FF000C1EB011100EB8100A7F8D600A883984847
:10100000C03005F0ECF9FF231A46194601A805F097
:1010100011FD0188ADF8001080788DF8020003E022
:10102000B3E17FE280E283E28D480099C03005F0B1
:10103000C5FB5F2003460090894849227121C030DA
:1010400005F028FA86488949C03005F00EFA0023D9
:101050001A46194601A805F0EDFC0188ADF800100C
:1010600080788DF802007E480099C03005F0A6FB1C
:10107000FF2301E045E239E21A46194601A805F0CE
:10108000D9FC0188ADF8001080788DF80200744812
:101090000099C03004F0CCFB7148002274A1C0302C
:1010A00004F02DFB80466E48C03004F0F8FB00EBE6
:1010B000D072AAEB62010AB208EBD871ABEB610007
:1010C00001B267486AA3C030009605F0B6F9FF2365
:1010D0001A46194601A805F0ADFC0188ADF80010CC
:1010E00080788DF8020000E025E05D480099C0306E
:1010F00005F064FB00231A46194601A805F09AFC86
:101100000188ADF8001080788DF8020054480099ED
:10111000C03004F08DFB4FF47A7006F071FA50483D
:10112000C03005F05CF902F057F8686302F054F83B
:10113000286302F059F8E86A007E02287FF4CBAEFB
:101140002189A088C1EB011100EB8100A7F8D6002E
:10115000A883012003F028FBBDE8FE4F02F044B84D
:10116000F971A0E6017E491C01763D4808F0A4FF14
:10117000E86A90F91800401E02286AD204F10C00B7
:1011800007C806F0EAFD58B32069401E2061606977
:10119000A0F26C7060613048FFF767FA0090684613
:1011A000FFF73EFA806900B90720F870207D6438A7
:1011B000C0B206F019FA3870207C401CC0B206F0AC
:1011C00013FA7870207B06F00FFAB870244808F004
:1011D000E9FF2069401C2061606900F26C70606169
:1011E0001F48C03005F0FBF8FF231A46194602A835
:1011F00005F020FC0188ADF8001080788DF8020021
:1012000017480099C03005F0D9FA1548CDE9009883
:101210005C234E227221C03004F046FB1048134973
:10122000C03005F022F900231A46194602A805F03D
:1012300001FC0188ADF8001080788DF802000848A4
:101240000099C03005F0BAFAFF231A46194602A8E1
:1012500010E062E0080000207C0600205C01002015
:10126000980400200CED00E00400FA05069A01083D
:101270004F4B000005F0DEFB0188ADF800108078D0
:101280008DF80200AD48009904F0D2FA0022AFF2C6
:101290002001AA4804F033FA8046A84804F0FFFA77
:1012A00000EBD072AAEB62010AB208EBD871ABEB8B
:1012B000610001B2AFF24803A048009605F0BDF806
:1012C000FF231A46194602A805F0B4FB0188ADF8C1
:1012D000001080788DF802009848009905F06EFAA9
:1012E00000231A46194602A805F0A4FB0188ADF8B0
:1012F000001080788DF802009048009904F098FA68
:101300004FF47A7006F07CF98C4805F068F801F02B
:1013100063FF686301F060FF2863E86A007E0328CA
:101320007FF4D9AD04F10C0007C806F016FD48B3F0
:101330002069401E20616069A0F26C706061804885
:10134000FFF793F900906846FFF76AF9806900B9E2
:101350000720F870207D6438C0B206F045F9387077
:10136000207C401CC0B206F03FF97870207B06F06C
:101370003BF9B8707148C03808F014FF012003F041
:1013800013FAA8E5E86A0676A5E5207A06F02CF9B6
:101390003871207906F028F978716848BE71C03834
:1013A00008F000FF654805F01AF8FF231A461946B1
:1013B00002A805F03FFB0188ADF8001080788DF899
:1013C00002005E48009905F0F9F9CDE900985C2328
:1013D0004E227221594804F067FA5A49574805F0DD
:1013E00044F800231A46194602A805F023FB018899
:1013F000ADF8001080788DF802005048009905F093
:10140000DDF9FF231A46194602A805F013FB0188EF
:10141000ADF8001080788DF802004848009904F07B
:1014200007FA0022AFF2B811444804F068F9804688
:10143000424804F034FA00EBD072AAEB62010AB21F
:1014400008EBD871ABEB610001B2AFF2DC133B48A3
:10145000009604F0F2FFFF231A46194602A805F091
:10146000E9FA0188ADF8001080788DF80200334861
:10147000009905F0A3F900231A46194602A805F0C1
:10148000D9FA0188ADF8001080788DF802002B4859
:10149000009904F0CDF94FF47A7006F0B1F82748BE
:1014A00004F09DFF01F098FE686301F095FE28634B
:1014B000E86A007E02287FF464AF207A06F094F890
:1014C0003871207906F090F878711C48BE71C038E8
:1014D00008F068FEE7E4797131B1BE7287F8D56033
:1014E0006E7101F081FEDEE43E73DCE4017EC069D2
:1014F00090F9182011484D301154D4E41248E86294
:1015000041E70E48597846300CF80010CBE423B17F
:101510000020B87118B12E75C5E40120F9E785F8EF
:101520001490C0E43972BEE4BDE8FE4F01F0C4BEC1
:1015300082F801908EF80090CDE40000580500205C
:101540007C060020069A01087C000020FEE70000CF
:1015500070B5FF2388B015460E4604461A46194654
:1015600007A805F067FA0188ADF8001080788DF8BB
:1015700002001C48009905F021F922461AA101A891
:10158000FEF784FE1949174804F06FFF002201A9F5
:10159000144804F0B4F8044600EBD470A521A1EB84
:1015A000600006440020009001AB05F13C0231B21E
:1015B0000C4805F01BF90E490A4804F056FF0DA02F
:1015C0000DA30068069006A80090301901B20C46E1
:1015D00005F13F02034805F009F90848848408B082
:1015E00070BD000058050020256400002B7F010815
:1015F0003C980108F99C0000B0430000080000205E
:101600000848C16A8A88002A0AD091F91800431C48
:101610005BB20B76934201DB00220A7602F064BED5
:1016200070470000080000200848C16A8A88002A24
:101630000AD091F91800431E5BB20B76002B01DA39
:10164000521E0A7602F050BE7047000008000020CB
:10165000184810B5C06A184C90F91800022803D039
:10166000012811D0B8B120E0E068401EE0601CD134
:101670001F2001E0E068401EE060D4E9041206F09B
:101680006CFB0028F6D010E02069401E20610CD1D0
:101690000C20206109E0606940F2E371401E606146
:1016A000884202DA40F633006061BDE8104000F085
:1016B00035B80000080000207C06002070B51448F2
:1016C000144C0125C06AD4E9041290F918000228CC
:1016D00003D0012809D070B116E0E068401CE0603A
:1016E00006F03BFB80B9E5600EE0491C21610D2945
:1016F0000AD1256108E0521CA2F50060626134380D
:1017000002D140F2E3706061BDE8704000F006B8BD
:10171000080000207C060020704700002DE9F04FF3
:10172000FE4F9DB0F86A00680B2806D00C2804D044
:101730000D2802D0FA4804F052FEF86AF74E002451
:1017400002681E360125342A7ED019DC162A7CD088
:101750000DDCF24C6FF0180504F150040B2A05D093
:101760000C2A73D00D2AFAD00E2A27D1B6E01F2AF0
:1017700019D0202A6BD02B2AFAD0332A1ED174E339
:1017800040F2B911A2F2B9104FF4A0788A427DD08C
:101790000ADCA2F580729B3A79D0012AEAD00A2AA3
:1017A00076D00B2A0AD146E1012872D0A0F500704C
:1017B0002E3809D0A0F5506068386BD0D9A001F060
:1017C000EBF91DB0BDE8F08FFF231A4619460FA8AC
:1017D00005F030F90188ADF8001080788DF802002E
:1017E000CF48009904F0EAFF0C215420CDE9000114
:1017F0005C234E227221CA4804F056F8CD49C848ED
:1018000004F033FE00231A4619460FA805F012F91A
:101810000188ADF8001080788DF80200C04800996A
:1018200004F0CCFFFF231A4619460FA805F002F971
:101830000188ADF8001080788DF80200B848009952
:1018400003F0F6FF002203E09DE050E040E0D2E12B
:10185000B9A1B34803F053FF0546B14804F01FF89F
:1018600000EBD0707822A2EB600002B205EBD570DD
:101870009E21A1EB600001B2AFA3A948009404F03F
:10188000DCFDFF231A4619460FA804E0B6E1AFE1DC
:101890002EE186E2DFE205F0CDF80188ADF8001018
:1018A00080788DF802009E48009904F087FF00239D
:1018B0001A4619460FA805F0BDF80188ADF80010CA
:1018C00080788DF802009648009903F0B1FF78E720
:1018D00002F0A8FD99A001F0BDF901E002F0A2FD1F
:1018E00094F902000F22294601F0E2F969E797A076
:1018F00001F052F9F86A90F91800411C01EB41011E
:10190000890000EB800001EB8005002422E000BF8D
:10191000914804EB440630440188ADF8001080780B
:101920008DF802007E48009904F048FF5A2000908C
:1019300005EBD570A021A1EB600000EB860004EB65
:10194000840100EB810001B20C234B22744803F0A8
:1019500056FF641CF86A90F91800401CA042D7DCBE
:10196000FF231A46194610A805F064F80188ADF85F
:10197000001080788DF802006948009904F01EFF7D
:1019800002F050FD1DE7002174A001F033F9694910
:10199000634804F06AFD00231A46194612A805F0B0
:1019A00049F8FF2307461A46194611A805F042F8E0
:1019B00006953988ADF81410B9788DF8161001889D
:1019C000ADF8101080788DF81200707800B1012009
:1019D00065A10091CDE9010464231A46194614203B
:1019E000039401F0BDF900231A46194611A805F029
:1019F00021F8FF2307461A46194612A805F01AF8DF
:101A000006953988ADF81410B9788DF8161001884C
:101A1000ADF8101080788DF81200707848B1002071
:101A200052A10091CDE9010464231A46194603949A
:101A300058E00120F4E73F49394804F016FD00233F
:101A40001A46194614A804F0F5FFFF2307461A4664
:101A5000194613A804F0EEFF06953988ADF8141066
:101A6000B9788DF816100188ADF8101080788DF8CF
:101A70001200307800B10120717801B101213AA241
:101A8000CDE90021CDE9020464231A464621142041
:101A900001F066F900231A46194613A804F0CAFF9C
:101AA000FF2307461A46194614A804F0C3FF0695FB
:101AB0003988ADF81410B9788DF816100188ADF892
:101AC000101080788DF81200307868B1002071789D
:101AD00061B1002125A2CDE900216423CDE90204F2
:101AE0001A464621C82057E10120F0E70121F1E71D
:101AF00010490B4804F0B9FC00231A46194616A8F1
:101B000004F098FFFF2307461A46194615A804F06B
:101B100091FF06953988ADF8141029E008000020DF
:101B2000580500204E6F7420696D706C656D656E90
:101B300074656400069A01084F4B000045636F20EE
:101B40003C20436F6D666F7274000000506F7765C4
:101B500072206C6576656C005804002050726F67C7
:101B600072616D6D650000004F4E00004F464600EB
:101B7000B9788DF816100188ADF8101080788DF8BE
:101B80001200707800B10120EDA10091CDE90104AF
:101B900078231A463C211420039401F0E1F8002335
:101BA0001A46194615A804F045FFFF2307461A46B2
:101BB000194616A804F03EFF06953988ADF81410B2
:101BC000B9788DF816100188ADF8101080788DF86E
:101BD0001200707850B10020DAA10091CDE9010423
:101BE00078233C211A46B4200394D5E00120F3E782
:101BF00002F066F9E5E502F073FAE2E5D349D4486C
:101C000004F033FCF86A90F9180010B101284CD0A8
:101C100070E000231A4619460CA804F00BFFFF23BE
:101C200007461A4619460DA804F004FF06953988A0
:101C3000ADF81410B9788DF816100188ADF81010B1
:101C400080788DF81200C3A0CDE900040021029431
:101C50003C23474642460846039401F081F800239E
:101C60001A4619460DA804F0E5FEFF2380461A46E1
:101C700019460CA804F0DEFE0695B8F80020ADF871
:101C80001420014698F802008DF816000888ADF877
:101C9000100088788DF81200B3A0CDE900043C2331
:101CA00002943A462D21039421E000231A46194656
:101CB0000DA804F0BFFEFF2307461A4619460CA8DC
:101CC00004F0B8FE06953988ADF81410B9788DF88F
:101CD00016100188ADF8101080788DF81200A5A0BC
:101CE000CDE900043C2302944246002103940020E5
:101CF00001F036F89549964804F0B7FB00231A46E0
:101D0000194618A804F096FEFF2307461A461946FE
:101D100017A804F08FFE06953988ADF81410B9782D
:101D20008DF816100188ADF8101080788DF812002B
:101D3000707800B1012093A10091CDE901045A23EC
:101D40001A4673211420039401F00AF800231A465E
:101D5000194617A804F06EFEFF2307461A461946D7
:101D600018A804F067FE06953988ADF81410B97804
:101D70008DF816100188ADF8101080788DF81200DB
:101D8000707860B1002080A10091CDE901045A2350
:101D90001A467321D220039400F0E2FF11E50120DE
:101DA000F1E76A496A4804F060FB00231A461946C5
:101DB0001AA804F03FFEFF2306461A46194619A842
:101DC00004F038FE014606953088ADF81400B0786E
:101DD0008DF816000888ADF8100088788DF812008C
:101DE0006AA0CDE9000402943C23474642464621BE
:101DF0000020039400F0B4FF69A36BA26DA107A8B3
:101E0000FEF744FA002207A9514803F078FC0023AA
:101E10001A46194619A804F00DFEFF2306461A4675
:101E200019461AA804F006FE06953188ADF814107C
:101E3000B1788DF816100188ADF8101080788DF803
:101E4000120007A8CDE900043C23732102943A460E
:101E500000200394A0E759A35A223C213C48009457
:101E600004F0EBFA08F058F8ABE43948E43808F02D
:101E700023F9DFF8DC90DFF850A1002609F13809DA
:101E8000A8464FF0020B00BF09EB0600817B072933
:101E900000D98473FF231A4619461BA804F0CAFD13
:101EA0000188ADF8001080788DF80200284800996C
:101EB00004F084FC4549264804F0D7FA00231A466A
:101EC00019461CA804F0B6FDFF2305461A4619461C
:101ED0001BA804F0AFFDCDF818802988ADF81410C8
:101EE000A9788DF816100188ADF8101080788DF85B
:101EF00012001748E438C078401EB04201D10123D7
:101F000000E00023F86A90F91800B04201D10125E1
:101F100000E000255AF83620CDE9023BCDE9002546
:101F20000AEBC6003C23C188B0F904001E3109B297
:101F30001A4600F015FF761C072EA5DB41E40000D1
:101F400035302500313030250000000092A801080E
:101F500058050020526573657420616C6C206465BF
:101F6000766963650000000073657474696E677359
:101F70003F00000041726520796F752073757265AE
:101F80003F000000596573004E6F00004375727288
:101F9000656E74206669726D77617265000000007D
:101FA00031322E352E37000076657273696F6E3AC6
:101FB000200000002573257300000000436F6E6E43
:101FC000656374696E670000FCB8000867D3010898
:101FD0002DE9F043E04C0746E04EE06A8BB010B1CB
:101FE000707800287ED0012F06D0002008F072F90A
:101FF000DA48383804F0F3F900231A46194607A8DE
:1020000004F018FD0188ADF8001080788DF802000A
:10201000D2480099383804F0D1FB1A250095A08CDD
:1020200053230C3001B2CD488922383803F0E7FB46
:10203000FF231A46194607A804F0FCFC0188ADF8F6
:10204000001080788DF80200C4480099383804F0F8
:10205000B5FB70794FF0000950B105F049FC40B272
:102060000F22002100F024FE607D042862D063E08E
:10207000307BC0B3012846D002284DD00328F3D1CD
:10208000B648B74B3C229621383803F0DBFCB34806
:10209000B449383804F0E9F900231A46194609A86A
:1020A00004F0C8FCFF2380461A46194608A804F02D
:1020B000C1FC014601200690B8F80020ADF81420BC
:1020C00098F802008DF816000888ADF8100088789E
:1020D000A5A1CDE900192D238DF81200CDF80890A7
:1020E000522201E02CE106E0A0219120CDF80C90D5
:1020F00000F036FEB8E705F017FC0F22002100F0D3
:10210000D7FD9A4B06E005F00FFC0F22002100F0EE
:10211000CFFD974B0F2207E005F006FC0F220021B0
:1021200000F0C6FD934B0D228C480C21383803F08B
:1021300089FC99E7E06AE8B300231A46194601A82A
:1021400004F078FC0188ADF8001080788DF802006A
:1021500082480099383804F031FB307B0095032821
:102160003FD0A08C532388220C3001B27B483838F2
:1021700003F045FBFF231A46194601A804F05AFC58
:102180000188ADF8001080788DF80200734800993E
:10219000383804F013FB707B48B1307B032806D03D
:1021A0006E48754B8C220C21383803F04BFC96F8A6
:1021B000D50000E005E0012817D07079012817D07C
:1021C00020E0307B6D4B032808D0A08C89220C3096
:1021D00001B26248383803F035FCDCE732220C21CA
:1021E000F7E72B2332220C21C0E7654B4D2204E098
:1021F000307B644B03280FD0502258480C213838CC
:1022000003F020FC307B03287ED0B07A05254FF008
:102210000C08012802D003E09322EEE7707930B178
:10222000607E13282AD80F281CD9042526E0F57AC9
:10223000052D0AD0042D0AD0032D0BD0022D0DD070
:10224000012D0DD084F8099019E0142000E0102031
:10225000607201E084F80980002412E00820F7E7AA
:102260000420F5E70A2801D3032507E0052801D952
:10227000022503E008B1012500E00025E5700024F7
:102280001DE0414904EB440008440188ADF800100A
:1022900080788DF8020031480099383804F08EFAC1
:1022A0003520604300EBC4000B3001B22B483523CE
:1022B000D5223838CDF8008003F0A1FA641CAC4276
:1022C000DFDBFF231A46194603A804F0B3FB01889D
:1022D000ADF8001080788DF8020020480099383859
:1022E00004F06CFA00231A46194603A804F0A2FB76
:1022F0000188ADF8001080788DF802001748009929
:10230000383803F095FA00E015E014481F493838D2
:1023100004F0ABF8B07A012801D1707998B11CA013
:102320001CA30068019001A800900C48C2220B2158
:10233000383804F082F8012F02D0012007F0CAFFDC
:102340000BB0BDE8F08315A116A3D1E90001CDE9DA
:10235000010101A80090E8E7080000209005002096
:10236000D34B010892A801084F666600402E010871
:10237000DA2B0108ED260108732301080277010812
:10238000D51901089E1E01085804002036E40108F2
:102390000202029C4155544F00000000020202025A
:1023A000029C0000435553544F4D00002DE9F04F5F
:1023B000FE4D89B0E86A00287DD0806850B3FC48A3
:1023C00004F00DF802F02EF8E86AA946F84D81688D
:1023D00090F91800002401EB40100C21026806203F
:1023E000A02738354FF09F0A4FF078084FF03C0B8C
:1023F00026462B2A7DD021DC0D2A7BD00FDC0D2A2E
:1024000079D2DFE802F078447EB3B6B9787878788C
:1024100078BCBF0009B0BDE8F04FFFF77FB9202AB4
:102420006AD006DC152A68D0162A67D01F2A62D126
:1024300086E1292A7ED02A2AF9D160E240F2A51C41
:10244000A2F2A513624576D010DC352A74D006DCE2
:102450002C2A72D0332A71D0342AE8D115E2A2F5A1
:1024600080729B3A6BD0012AE1D1A5E2162B67D08E
:1024700006DC012B77D0142B76D0152BD7D156E262
:10248000A3F57063AA3B70D0012BD0D18EE20E2150
:10249000CDE9001054235C221946104605F0C2F81D
:1024A000FF231A46194605A804F0C4FA0188ADF8BE
:1024B0000010807800E0E1E28DF80200BC4800994D
:1024C00004F07CF9BB49BA4803F0CFFF0022BAA15F
:1024D000B74803F014F9ADF8080000EBD071AAEB8F
:1024E000610001B2B4A36E22B148009603F0A5FFCB
:1024F00005E00FE2C0E058E22EE1C0E0EFE0B0A45A
:1025000085E2CDE9001054235C221946104605F0FF
:1025100089F81E2000900A2378228321A44803F022
:102520006EF9262000900A2370229321A04803F020
:1025300066F906E0E0E142E2DBE1F2E118E138E2CF
:1025400001E22E2000900A236822A321984803F07C
:1025500056F9362000900A236022B321944803F0F4
:102560004EF99AA453E22DE2DEE1EFE1994D9AA4EF
:1025700032E29B4D9BA42FE29D4D9EA42CE2A04DE8
:10258000A0A429E2FF231A46194604A804F052FA2F
:102590000188ADF8001080788DF802008448009919
:1025A00004F00CF900231A46194604A804F042FA74
:1025B0000188ADF8001080788DF802007C48009901
:1025C00003F036F94E2003460090512279217848D5
:1025D00003F060FF00231A46194604A804F02AFA03
:1025E0000188ADF8001080788DF8020070480099DD
:1025F00004F0E4F8FF231A46194604A804F01AFA76
:102600000188ADF8001080788DF8020068480099C4
:1026100003F00EF93C23462296216548CDF800B020
:1026200003F038FF322000903C234622A02160486E
:1026300003F0E5F8FF231A46194604A804F0FAF956
:102640000188ADF8001080788DF802005848009994
:1026500004F0B4F800231A46194604A804F0EAF975
:102660000188ADF8001080788DF80200504800997C
:1026700003F0DEF865A4CAE1654D66A4ACE1CDE9DE
:10268000001054235C221946104604F0CBFFFF23B0
:102690001A46194606A804F0CDF90188ADF80010D5
:1026A00080788DF802004248009904F087F85C4970
:1026B0003F4803F0DAFE00225AA13D4803F01FF81C
:1026C000ADF8080000EBD070A7EB600001B255A395
:1026D0005D223748009603F0B0FE53A497E1CDE9A0
:1026E000001054235C221946104604F09BFFFF2380
:1026F0001A46194607A804F09DF90188ADF80010A4
:1027000080788DF802002A48009904F057F844496F
:10271000274803F0AAFE002245A1254802F0EFFF5A
:10272000ADF8080000EBD0709D21A1EB600001B274
:102730003FA35C221E48009603F07FFE3DA466E1A5
:1027400095F8D500002801D03C4D00E03C4D01D06B
:102750003CA441E13EA43FE1CDE900104FF0540319
:102760004FF085021946104604F05CFF3CA44EE190
:102770003E4B03AA02A90E4803F0D2FA88B9BDF96C
:102780000C10BDF9080001EBD172A8EB620100EB5F
:10279000D0700AB2A7EB600001B2344B044803F0DA
:1027A00051F9334B03AA02A9014863E00800002055
:1027B0005805002067D301084D4F44450000000034
:1027C00048656174206D6F6465000000506F776527
:1027D000720000004DC7000854696D65720000006A
:1027E000E1D7000853657474696E677300000000D8
:1027F00056E0000850726F6772616D6D65000000F1
:10280000DCB90008436F6D666F72740045636F003A
:1028100093C00008416E74692D66726F7374000076
:1028200021C90108410000004175746F00000000DB
:1028300043000000437573746F6D000009D30008F6
:10284000C1CE000854696D6572206973206F6E00F7
:1028500054696D6572206973206F66660000000020
:102860005365742074696D65720000002F3401088F
:102870005A32010803F054FA28B9824B7922A32175
:10288000814803F0DFF881A4C1E0824B03AA02A9CA
:102890007D4803F045FA88B9BDF90C10BDF9080070
:1028A00001EBD172A8EB620100EBD0700AB2A7EB8A
:1028B000600001B2774B744803F0C4F8687908B13E
:1028C000754B00E0754B03AA02A96F4803F028FA84
:1028D00048B9687908B1704B00E0704B7B22A321A6
:1028E000694803F0AFF8687908B16DA48FE06DA472
:1028F0008DE06D4D6DA46FE06F4D70A46CE0CDE97F
:10290000001054235C221946104604F08BFE6E4DD5
:102910006EA461E0E87908B16E4D00E06E4D6FA4E1
:102920005AE0704D70A457E0714D72A454E0CDE9A7
:10293000001054235C221946104604F073FE6C4DBF
:102940006EA4933D48E0704D70A445E0CDE90010C1
:10295000542385221946104604F064FEFF231A46CC
:10296000194608A804F066F80188ADF800108078D0
:102970008DF802004448009903F020FF6649424860
:1029800003F073FD002265A13F4802F0B8FEADF8E8
:10299000080000EBD071AAEB610001B25FA36E22C8
:1029A0003948009603F049FD5EA430E0504D60A424
:1029B00012E0644D64A40FE0664D67A40CE0694D1D
:1029C00069A409E0CDE9001054235C2219461046A1
:1029D00004F028FE674D68A4CDB12B4601AA6946D4
:1029E000294803F09DF9E8BBBDF90410BDF90000CA
:1029F00001EBD172A8EB620100EBD0700AB2A7EB39
:102A0000600001B22B46204803F01CF82EE0D9F8F4
:102A10002C004D46816890F9180001EB40100068C9
:102A2000202823D15849184803F01FFDA98B584688
:102A3000B1FBF0F20BFB1213B1FBFBF253A103A8A5
:102A4000FDF724FC002203A90F4802F058FE00EB1A
:102A5000D070A7EB600000230096019600B203AA95
:102A6000672100E002E0029600F05EFA002C05D03B
:102A700009B02046BDE8F04F00F08EB809B0BDE8BF
:102A8000F08F00005A320108580500205365747514
:102A9000700000002F340108CB390108D23C010836
:102AA0004F6E00004F666600C93F0108437573749E
:102AB0006F6D206461790000AC6801084461746541
:102AC00020262074696D65007BF3000844697370EB
:102AD0006C61790084E7000847EE0008536F756E5B
:102AE00064000000D744010853657276696365008D
:102AF000035301085265736574000000496E666FE8
:102B0000726D6174696F6E000B7A0108436F6E6EAF
:102B1000656374696F6E000067D3010853544152B6
:102B200054000000436F6E6E656374696E67000049
:102B3000526573657420636F6E6E656374696F6E42
:102B40000000000056E0000853657420646174655D
:102B5000000000000F6301085365742074696D65FF
:102B60000000000084FD00084272696768746E65A9
:102B7000737300007CF700084175746F20737769E8
:102B8000746368206F666600069A01082530326417
:102B90003A253032640000001CB5FF2304461A4673
:102BA000194601A803F046FF0188ADF800108078AF
:102BB0008DF802000D48009903F000FE0C490B4807
:102BC00003F053FC00222146084802F098FD002142
:102BD000009100EBD070A021A1EB600001B2234670
:102BE000B922024803F029FC1CBD00005805002052
:102BF00092A801087CB5FF230C4605461A461946E3
:102C000001A803F017FF0188ADF8001080788DF857
:102C100002000E48009903F0D1FD0D490B4803F066
:102C200024FC00222946094802F069FD0021009198
:102C300000EBD070A021A1EB600001B22B4604F1A3
:102C40001A02024803F0F9FB7CBD00005805002081
:102C500092A801081CB5FF2304461A46194601A88C
:102C600003F0E8FE0188ADF8001080788DF80200CE
:102C70000D48009903F0A2FD0C490B4803F0F5FB49
:102C800000222146084802F03AFD0021009100EBA5
:102C9000D070A021A1EB600001B2234610220248AF
:102CA00003F0CBFB1CBD00005805002067D30108D2
:102CB00070B5FF2388B015460E4604461A461946DD
:102CC00007A803F0B7FE0188ADF8001080788DF8F2
:102CD00002001C48009903F071FD22461AA101A8C8
:102CE000FDF7D4FA1949174803F0BFFB002201A9E8
:102CF000144802F004FD044600EBD470A521A1EBBA
:102D0000600006440020009001AB05F13C0231B2A6
:102D10000C4803F092FB0E490A4803F0A6FB0DA0F5
:102D20000DA30068069006A80090301901B20C4669
:102D300005F13F02034803F080FB0848848408B093
:102D400070BD000058050020256400002B7F01089D
:102D50003C980108F99C0000B043000008000020E6
:102D60002DE9FF4F8BB09246DDE91C54DDE91819BF
:102D7000984600226B481B9F02F0C1FC05906948F1
:102D800002F08DFD83460B990AEBDA72059801EB90
:102D9000620100EBD070A1EB600000B20C9908EB6F
:102DA000D872039001EB62010BEBDB70A1EB6000CA
:102DB00000B20290B9F1000F01D0294600E021468F
:102DC000584803F0FBFC1E98072640B1CDE9008669
:102DD000DDE90B125346534802F066FD07E0CDF8DB
:102DE0000080DDE90B1253464E4802F008FDB9F1B0
:102DF000000F0AD021464B4803F0E0FC1E98C8B3F0
:102E0000CFB3B9F1000F02D054E02946F3E72946C9
:102E1000444803F0D3FC2146424802F009FDCDE9C5
:102E20000086DDE90B1253463E4802F03DFD214687
:102E30003C4803F0C3FC29463A4802F0F9FC7842CA
:102E400008EB40010AEB400003B209B20C98CDE94F
:102E50000016384402B20B98384401B2314802F0EF
:102E600023FD29462F4803F0A9FC21462D4802F0F6
:102E7000DFFC21E000E01AE0CFB1B9F1000F19D179
:102E8000002611E0704208EB40010AEB400003B25B
:102E90000C9809B2304402B20B980091304401B250
:102EA000204802F084FC761CBE42EBDB04E0B9F162
:102EB000000F01D0294600E021461A4802F0B8FC74
:102EC0000020DDE9022100901648189B03F0B5FAB6
:102ED0001A9888B1B9F1000F21D02146114803F0AA
:102EE0006DFC032000900298059B5844401D02B2DF
:102EF0000C48039902F083FC00231A46194609A8DE
:102F000003F098FD0188ADF8001080788DF802007C
:102F10000448009902F08CFC0FB0BDE8F08F294600
:102F2000DCE70000580500202DE9FF4F83B01C00AE
:102F3000DDE91187DDF840B00E46824603D0FF235D
:102F40001A46194602E000231A46194601A803F062
:102F500071FD3948019903F031FC0022364805998A
:102F600002F0CDFB8146344802F099FC054600EBA7
:102F7000470000B2009009EB480003B2F01B02B218
:102F8000AAEB080001B22C4802F039FC74B100230E
:102F90001A46194601A803F04DFD2748019903F090
:102FA0000DFC3CB1FF231A46194606E0FF231A46E2
:102FB0001946EFE700231A46194601A803F03AFD27
:102FC0001D48019902F034FC002000903246514621
:102FD0001948059B03F031FABBF1000F14D034B34C
:102FE00000231A46194602A803F024FD124802994C
:102FF00003F0E4FB042000907019401D02B24B4620
:1030000051460D4802F0FBFB00231A46194601A861
:1030100003F010FD0188ADF8001080788DF80200F3
:103020000548009902F004FC07B0BDE8F08FFF23CB
:103030001A461946D7E70000580500207CB500F075
:10304000CBF84D4CA16B884279D900F0C5F8A0634C
:10305000617D4A4E1A25022905D039B3032928D0AB
:1030600004292AD02CE000231A46194601A803F0AF
:10307000E1FC0188ADF8001080788DF802003F482F
:103080000099383803F09AFB307B0095032809D06B
:10309000A08C532389220B3001B23848383802F013
:1030A000AEFB3BE02B233B221621F6E700F57A70BE
:1030B00001E000F5FA70A06302E0207A00283ED11A
:1030C000207A4FF0000380F001002072307B1A4616
:1030D0000328194601A833D003F0ACFC0188ADF8F1
:1030E000001080788DF8020024480099383803F0E9
:1030F00065FB0095A08C53230C3001B21F48892238
:10310000383802F07CFB207A40B1A08C89221C4B1D
:103110000C3001B21948383802F094FCFF231A46EB
:10312000194601A803F086FC0188ADF800108078EC
:103130008DF8020011480099383803F03FFB7CBD40
:1031400003F078FC0188ADF8001080788DF802005B
:103150000A480099383803F031FB08482B233B22FA
:1031600016213838009502F04AFB207A0028D5D085
:103170003B22034B1621CDE70800002090050020DC
:103180000277010810B5114C00202075012007F0CE
:10319000A1F800F021F8A16B884216D9207A80F0BE
:1031A0000100207200F018F800F5FA70A0630848DA
:1031B00003F015F9207A002807D04022BDE810401E
:1031C000044B6421024802F03DBC10BD0800002001
:1031D00058050020D07001080148006870470000C1
:1031E00000000020FEE700002DE9F0472E4C20787B
:1031F000D0B194F8D50008B96079A8B12B4806F091
:103200005BFF2A4E0025307800F00F01000900EB2B
:10321000800001EB4000C0B2132809D2607938B1B8
:1032200084F8D55065712573BDE8F04706F012BFEC
:1032300006F010FF94F8D500DFF870904FF080474B
:1032400009F114094FF003084FF4807A01281ED0C9
:103250006079012826D189F8095089F80A5089F83F
:103260000B504FF08030C9F8000004F01DFB2073B4
:10327000C9F804700D4889F80880143006F0C2FEC1
:10328000504606F07DFFBDE8F04706F005BF89F81F
:10329000095089F80A50B07989F80B000448C9E947
:1032A0000007E7E7BDE8F0879005002074040020E0
:1032B00000808080FEE7000010B5174CE06AC0690E
:1032C00028B3002007F006F8E26A04F11E00116836
:1032D000332910D0A1F58073B93B02D100210170D0
:1032E0004170D069C4F82C00FFF760F8BDE81040C9
:1032F000012006F0EFBF09494B79002BF1D1D369CA
:10330000074AE262D361497901704170ECE7BDE898
:10331000104000F0F9BA00000800002090050020DD
:103320009C01002070470907090E002806DA00F00A
:103330000F0000F1E02080F8141D704700F1E0203C
:1033400080F8001470470000024900204870FEF722
:10335000E5B9000026000020024901204870FEF770
:10336000DDB9000026000020704700002DE9F04183
:103370005C4E5D4C0025F26AA4F1EC0006F11E01E2
:103380001368332B7AD02BDC152B60D01DDC55490C
:103390000B2B01F150014CD0032407260C2B4ED0EF
:1033A0000D2B4ED00E2B50D192F918202D23104406
:1033B000A1F1300292F9002002EB420203EBC202BB
:1033C000805C88700D70282088E0162B43D01F2B5E
:1033D00045D0202B46D02B2B37D1C07908707DE00B
:1033E00040F2A51CA3F2A517634567D01ADC342B65
:1033F00062D0352B42D03D4FA3F580739B3B3FD02D
:10340000012B22D1384606F057FE387904F0D8F85F
:10341000A060787904F0D4F86060B87904F0D0F84E
:10342000206046E0012F5BD0142F27D0592F0CD1FC
:1034300024E0807888700A20087023204EE0C0784D
:1034400000E0007988700C704E70BDE8F081BDE836
:10345000F041FDF7FFBCC07A401E1076F5E790F80A
:10346000D500BBE7B0F8D6103C20B1FBF0F3A36069
:10347000B1FBF0F300FB1310C4E900501576E4E74C
:103480001A4806F019FEB87804F09AF8E0607878E7
:1034900004F096F82061387804F092F8132802D2EC
:1034A00040F2E37004E0387804F08AF800F5FA603E
:1034B0006061F06A0576C8E740798FE78079002877
:1034C00007D000BF4FF00000087005D14FF0010099
:1034D00004E04FF00100F7E74FF000004870B4E758
:1034E000007A7BE7080000207C060020740400209E
:1034F00010B54FF48074204606F04AFE002806D02E
:10350000204606F03DFEBDE8104006F065BD10BD4A
:103510002DE9F041294C01270025277065701820FE
:10352000A0700420E070052020716571A771E7711B
:1035300025726572A572E772257365730326A673FB
:10354000E67326746674A674E67426750522A821AF
:1035500004F12D00FDF73AF81E2084F830000A200F
:1035600084F831000122182104F11500FDF72EF82E
:1035700084F8D5504FF43470A4F8D60004F1C80094
:10358000056145618561C56106F0C4FDA4F58E70D5
:103590007F210181FF21418120210170C670477088
:1035A000877005611221C56001714571857106F052
:1035B000F9FD002800D1FEE7BDE8F081900500206C
:1035C000704710B504F024F8BDE8104000F0A4B82E
:1035D000484810B546494160474A42608160826070
:1035E000016941F020010161016941F0400101617F
:1035F000C168C907FCD1016921F02001016101699D
:1036000041F010010161C16911F0060F3B490AD078
:10361000C269C2F34102012A07D0C269C2F3410262
:10362000032A04D005E0A52202E0BB2200E0CC2260
:103630000A80C169DF2202EA1121304A921C1180FE
:10364000C169921CC1F307411180C169090E921C26
:103650001180016A921CC9B21180016A921CC1F3E7
:1036600007211180016921F01001016124480168DE
:1036700041F4700101602348016841F001010160DB
:1036800001688907FCD541681F4A114041604168C3
:103690001E4A1140416001681D4A11400160C16A23
:1036A0001C4A1140C162016B40F203129143016355
:1036B000016B21F480310163016B21F00041016352
:1036C000416B21F001014163D0F8C01021F4803139
:1036D000C0F8C01000218160C0F8CC1006F05EFE7A
:1036E000BDE8104000214FF0006005F003B9000074
:1036F0002301674500200240AB89EFCD00F8FF1F92
:1037000088ED00E0001002400C00FF08FFFFC277C8
:10371000FFFFF2FEF0FFFF3F02480168491C016015
:10372000704700000000002010B5084C0121204621
:1037300007F077F8012807D10121204607F06EF83D
:10374000BDE8104000F004B810BD000000200040AB
:1037500009494FF480720879401EC0B208714B7855
:10376000834201D9054B01E0044B10331A60002855
:1037700001D1142008717047080000201804004887
:1037800010B50B4C0F226FF0180194F90200FDF7F1
:10379000DFFEA078401E40B2A07094F9001088426D
:1037A00001DA6078A070BDE81040FDF7B7BF0000F7
:1037B0005800002010B50B4C0F226FF0180194F93F
:1037C0000200FDF7C5FEA078401C40B2A07094F93D
:1037D0000110884201DD2078A070BDE81040FDF79F
:1037E0009DBF000058000020154830B4C26A15483B
:1037F00092F91840D0E9011314B1012C0FD018E050
:103800005B1E83601268202A00D123B1002B10DADE
:10381000172181600DE061B90121416009E0491E75
:10382000416014683B22202C00D12BB1002900DA22
:10383000426030BCFDF772BF0129F9DBF9E70000F7
:10384000080000207C060020F0B414480025012464
:10385000C36A134893F91860D0E9011216B1012E1A
:103860000CD014E0521C8260172A00DD85601A68B3
:10387000202A0CD1826852B971B108E0491C41601C
:103880001B68202B00D12AB13B2900DD4560F0BC2C
:10389000FDF744BF3B29FADD4460F8E7080000204B
:1038A0007C06002070B5124C1049204607F05CF8E9
:1038B00068B1204607F002F80F490E4B0A78985479
:1038C000521CD0B20870C82801D1002008700B4DDE
:1038D0002046294607F048F8002806D02946204609
:1038E00007F02EF806490120087070BD0500050795
:1038F00000440040A80600201C0400200400040727
:103900001E040020FEE7000002490020C862FEF706
:103910005FBB00000800002010B540F21C7005F0ED
:103920001DFD05F049F84FF40064204605F092FCB7
:10393000204605F09DFCE01005F03AFD40F60F0032
:1039400005F00CFDBDE8104006F09CBC10B5002150
:103950004FF4807003F006FE0121084603F028FDB5
:1039600007220521002003F09FFD0121022003F022
:10397000F9FD002003F0DAFD0121084603F050FDB7
:103980004FF46021012003F069FD002003F02EFDBB
:1039900003F03AFD0A2003F033FE03F0F7FCBDE824
:1039A0001040012003F0CEBD10B5094C002207499C
:1039B000204604F007F9002281231146204604F036
:1039C000B1F92046BDE8104004F082B9801A060023
:1039D000005400402DE9F041334C0126334D207D49
:1039E000022804D1287810B100F0FEFF0026FFF76E
:1039F000F3FB2063687800274FF00108A0B3287814
:103A000020B1207D012815D0A0B115E02748383815
:103A100003F054F9A87908B1277501E084F81480FF
:103A200000F0E2FF002006F055FC01F073F80020E2
:103A3000BDE8F08100F0D8FF1C48383803F03EF9AB
:103A4000A87908B1277501E084F81480002006F0F9
:103A500041FC01F05FF8FFF7BFFBA0F5D2407838DA
:103A6000206368780026B0B92878A0B1287A70B1B0
:103A7000207D02280BD1A87908B1277501E084F8D0
:103A800014800020FEF7A4FAFFF7A6FB6064074845
:103A9000383803F013F9FFF79FFB41F288310844EF
:103AA00060643046C4E70000080000209005002054
:103AB00010B540F2157005F051FC40F2115005F0C0
:103AC0004DFC40F2125005F049FC40F20E7005F03A
:103AD00045FC40F2117005F041FC40F2126005F027
:103AE0003DFC4FF4E06005F039FC40F2096005F060
:103AF00035FC40F21C7005F031FCBDE8104006209A
:103B000005F072BA30B503461046064C07E013F8CC
:103B1000015BC2B26A4054F8222082EA1020491E9A
:103B2000F5D230BD70E601082DE9F04101224FF0D9
:103B3000904602231146304603F0D1FF02230322B0
:103B40000021304603F0F2FF504F4FF4F07423464B
:103B500002220121384603F0C2FF2346032200213E
:103B6000384603F0E3FF202300220321304603F010
:103B7000B6FF01220221304603F07AFF0123002222
:103B80000221304603F0ABFF01230322002130461F
:103B900003F0CCFF4FF4007422460221384603F0B4
:103BA00067FF022223461146384603F098FF0022A1
:103BB00023461146384603F0B9FF22460421304619
:103BC00003F056FF65002A460421304603F050FFFB
:103BD000234600220221304603F081FF23460322C0
:103BE0000121304603F0A2FF2B460022022130467D
:103BF00003F075FF2B4603220121304603F096FFA8
:103C00004FF4204422460021384603F031FF23467A
:103C100000220221384603F062FF234603220021DE
:103C2000384603F083FF40F6044401222346114640
:103C3000384603F054FF234603220021384603F0A0
:103C400075FF04220121304603F012FF08220121F2
:103C5000304603F00DFF042301220221304603F019
:103C60003EFF042303220021304603F05FFF0823B8
:103C700001220221304603F032FF3046BDE8F04118
:103C800008230322002103F051BF00000004004874
:103C90002DE9F04300238BB01A46194606A802F01E
:103CA000C9FE0188ADF8001080788DF802007148D7
:103CB000009901F0BDFDFF231A46194606A802F03F
:103CC000B9FE0188ADF8001080788DF802006948CF
:103CD000009902F073FD674F674C38374FF00108C9
:103CE000B879002508B1257501E084F81480614891
:103CF00002F075FB5F4802F0E1FF002006F0EAFAEF
:103D00005E4B08AA07A95B4802F00AF8A02690B902
:103D1000BDF92010BDF91C0001EBD1716E22A2EBA0
:103D2000610100EBD0700AB2A6EB600001B2534B08
:103D3000504801F087FE012006F0CCFA4FF4FA69F2
:103D4000484603F05DFC002006F0C4FA494802F042
:103D500046FB4B48C168474802F030FD4949454899
:103D600002F083FB002248A1424801F0C8FC00EBAE
:103D7000D070A6EB600001B243A350223D480095ED
:103D800002F05BFB002244A13A4801F0B8FC00EBD2
:103D9000D070A6EB600001B23FA3782235480095B1
:103DA00002F04BFB4049334802F05FFBFF231A4609
:103DB000194606A802F03EFE0188ADF80010807892
:103DC0008DF802002B48009902F0F8FC37A339A2C5
:103DD00039A101A8FCF75AFA002201A9254801F0EF
:103DE0008EFC00EBD070A6EB600001B201ABB922F3
:103DF0002048009502F021FB012006F06BFA4846AE
:103E000003F0FEFB002006F065FAE5626564787950
:103E1000012802D103F048FD387303F09BFDA07028
:103E200010F17F0F0CD07F2811D0302815DD002035
:103E300000F012FFE5700320A0710BB0BDE8F08325
:103E4000002000F009FFE57084F80680F5E7002007
:103E500000F002FFE5700220EEE710F11A0F4FF0BC
:103E6000000004DA00F0F8FEE5700420E4E7FEF755
:103E7000AFF8E2E7580500200800002058040108C8
:103E800058040020F0CB01084555524F5445434893
:103E9000204D4554414C000050414E454C20484572
:103EA000415445520000000067D3010831322E35DD
:103EB0002E370000562E20002573257300000000C9
:103EC0002DE9F043764C8DB076A10BA8E268FCF7A3
:103ED000DDF974A10CA82269FCF7D8F973A108A830
:103EE0006269FCF7D3F97349A4F5927002F0BDFA48
:103EF000A4F5927001F0D3FCC0F178000FFA80F9BC
:103F0000002208A9A4F5927001F0F9FB0023C7B2C2
:103F10001A46194607A802F08DFDFF2304461A46EB
:103F200019460AA802F086FD012606962188ADF8FA
:103F30001410A1788DF816100188ADF810105E4DA0
:103F400080788DF81200E86A0024007E00287DD079
:103F5000002008A90091CDE901043C2307F11402D7
:103F600049460F200394FEF7FBFE00220CA953489C
:103F700001F0C5FB0023C7B21A4619460AA802F091
:103F800059FDFF2380461A46194607A802F052FD44
:103F90000696B8F80020ADF8142098F802108DF8B5
:103FA00016100188ADF8101080788DF81200E86ABC
:103FB000007E012800D000200CA90091CDE9010469
:103FC00007F114023C239046494696200394FEF7DD
:103FD000C7FE00220BA9394801F091FB00231A46C5
:103FE00019460AA802F026FDFF2307461A4619467D
:103FF00007A802F01FFD06963988ADF81410B978AD
:104000008DF816100188ADF8101080788DF8120028
:10401000E86A007E02283CD000200BA90091CDE97F
:1040200001043C2342464946E6200394FEF798FEED
:10403000FF231A46194607A802F0FCFC0188ADF8D8
:10404000001080788DF802001C4800E01FE0009905
:1040500002F0B4FB00231A46194607A802F0EAFC56
:104060000188ADF8001080788DF80200134800999F
:1040700001F0DEFBE86A90F9180060B101280CD06D
:104080000FA000BFFEF788FD0DB0BDE8F083012052
:104090005FE70120C1E70CA0F4E70EA0F2E7000003
:1040A0007C06002025303264000000002530346496
:1040B00000000000069A01080800002058050020B2
:1040C0005365742064617900536574207965617269
:1040D00000000000536574206D6F6E74680000006E
:1040E0002DE9F0478CB07349734802F0BEF972486D
:1040F00001F0D5FB714FC0F178000FFA80FA70A182
:1041000007A8BA68FCF7C2F8002207A96A4801F0BC
:10411000F6FA0023C6B21A4619460AA802F08AFC2B
:10412000FF2304461A4619460BA802F083FC01251A
:1041300006952188ADF81410A1788DF81610018825
:10414000ADF81010DFF8808180788DF81200D8F873
:104150002C000024007E00287ED000210DF11C09D7
:1041600048468DE813005720A0EB56003C2346221A
:1041700051460394FEF7F4FD51A107A87A68FCF7B5
:1041800085F8002207A94C4801F0B9FA0023C6B20D
:104190001A4619460BA802F04DFCFF2307461A46A3
:1041A00019460AA802F046FC06953988ADF81410A5
:1041B000B9788DF816100188ADF8101080788DF858
:1041C0001200D8F82C004746007E01286DD000214F
:1041D000CDF80090CDE90114CB20A0EB56003C2394
:1041E000462251460394FEF7BBFDFF231A461946AB
:1041F0000AA802F01FFC0188ADF8001080788DF845
:1042000002002D48009902F0D9FA00231A461946F7
:104210000AA802F00FFC0188ADF8001080788DF834
:1042200002002548009901F003FB00231A461946B5
:104230000BA802F0FFFBFF2380461A4619460AA886
:1042400002F0F8FB0646002220A11B4801F057FAB5
:104250000695B8F8002000E025E0ADF8142098F8A5
:1042600002108DF816103188ADF81010B1788DF865
:10427000121016A1CDE9001400EBD070A021A1EB23
:104280006000029400B23723042251460394FEF7E3
:1042900067FDF86A007E50B10DA000BFFEF77CFC00
:1042A0000CB0BDE8F087012158E7012190E70BA091
:1042B000F4E70000069A0108580500207C0600205B
:1042C0002530326400000000080000203A000000A1
:1042D000536574206D696E757465000053657420B4
:1042E000686F7572000000002DE9F14F8AB04849EF
:1042F000484802F0BAF848484649DFF81CB190F93E
:104300000000383100EB400001EBC0070026ABF1A4
:10431000200B2D37002506EB460000EB061041214F
:1043200006EB460A01EB400805EB4501132005EBBF
:104330004A0400EB01193A5D38A109A8FBF7A6FF72
:104340000A98844208D0DBF82C0090F91800A042AB
:1043500002D00A98401C51D1DBF82C0090F91800CB
:10436000A04203D1FF231A46194609E0385D0A2806
:1043700003D92B48C068079005E000231A46194668
:1043800007A802F057FBDBF82C0090F91800A042B8
:1043900003D100231A46194602E0FF231A461946A4
:1043A00008A802F047FBBDF81C10ADF814109DF8EA
:1043B0001E108DF81610BDF82010ADF8101000205A
:1043C0009DF8221006908DF81210DBF82C1091F950
:1043D0001810A14202D0395D0A2901D9002100E05C
:1043E000022109AACDE90020CDE9020120232A22D9
:1043F0000FFA88F10FFA89F0FEF7B2FC6D1C062D5A
:1044000092DB761C042E85DB0BB0BDE8F08F00003C
:1044100067D301085805002028000020256400000B
:104420005804002010B5084B65220C21074801F004
:1044300009FB054BBDE81040463365224FF48F71F0
:10444000024801F0FFBA0000451901085805002094
:1044500070B5244C0246D3B2A07EFF2800D1A376CB
:10446000607A814208D1A07E904205DDA07A617B0E
:10447000884201D0401CA0721B48E57A0179491B93
:104480000025914217DB017B022914D0A17E9142C5
:1044900011DDA572FF21A17645730221017301216F
:1044A00021744571FEF798FE00F57A706063002074
:1044B000FDF78EFD12E0A07E90420BDA03F034FA95
:1044C000E17A401A904205DBA07A617B884201D0F4
:1044D000A376A572A07A617B884201D1012070BDCC
:1044E000002070BD08000020900500201FB54FF48B
:1044F000E16004F033FF154C204606F0FBF86846F7
:1045000006F0A3F944F61F00ADF800000021ADF855
:10451000041040F2E730ADF802100290ADF806103A
:104520006946204606F026F90121204606F076F974
:104530000121204606F06EF9204606F015F900220A
:104540001146132004F088F91FBD00000020004030
:1045500030B5224D89B0284606F0CCF85320ADF88E
:10456000100000244FF4FA60ADF814400690ADF846
:104570001240ADF816408DF81C4004A9284606F0FC
:10458000F9F801200090ADF80440ADF80840ADF80E
:104590000640ADF80A40ADF80C406A4600212846B6
:1045A00005F054FF00221146284606F06CF8602200
:1045B0000021284606F040F800221146284606F061
:1045C00071F80121284606F036F9284605F038FF33
:1045D000284606F0C9F809B030BD00000048014087
:1045E00030B54FF0804589B0284606F083F8532057
:1045F000ADF8100000244FF4FA70ADF814400690A6
:10460000ADF81240ADF816408DF81C4004A92846BC
:1046100006F0B0F801200090ADF80440ADF8084075
:10462000ADF80640ADF80A40ADF80C406A460021EE
:10463000284605F00BFF00221146284606F023F815
:1046400060220021284605F0F7FF082200212846B5
:1046500006F028F80121284606F0EDF8284605F076
:10466000EFFE284606F080F809B030BD2DE9F04194
:104670004B4F384603F027FB7D1501224FF0904445
:104680002B461146204603F02AFA2B46032200212E
:10469000204603F04BFAA5616E0001223346114615
:1046A000204603F01CFA334603220021204603F083
:1046B0003DFAA66100E000BF2946204603F031FA2A
:1046C0000128F8D100E000BF2946204603F029FA6E
:1046D0000128F8D1A56200E000BF2946204603F07A
:1046E00020FA0028F8D1A66200E000BF314620463B
:1046F00003F017FA0028F8D1A66100E000BF3146A8
:10470000204603F00EFA0128F8D1A56100E000BFB1
:104710002946204603F005FA0128F8D12A4604214B
:10472000204603F0A5F932460421204603F0A0F903
:104730002B4600220221204603F0D1F92B4603220A
:104740000121204603F0F2F93346002202212046DF
:1047500003F0C5F9334603220121204603F0E6F9B0
:104760004FF40041384603F0E8FA00BF0021384614
:1047700003F0E3FA00BF384603F0AAFA4FF4804290
:104780000849384603F01EFA0022812311463846B4
:1047900003F0C8FA3846BDE8F04103F099BA0000CA
:1047A00000540040801A06002DE9FE4F8346FEF7B4
:1047B00013FD884C00250C266063E16A54274FF0F6
:1047C00078080B684FF09E09A3F580724FF4FA6ADF
:1047D00004F154009B3A07D1CA69D2F81CC09CF876
:1047E00018C0BCF1040F03D0B3F5CE7F57D05BE007
:1047F000C2617848B430E062C261002005F06AFD11
:10480000754801F0ECFDFF231A46194602A802F094
:1048100011F90188ADF8001080788DF802006E481B
:10482000009901F0CBFFCDE900765C234E22722186
:10483000694801F039F86949674801F016FE00231C
:104840001A46194602A802F0F5F80188ADF80010E2
:1048500080788DF802006048009901F0AFFFFF23D7
:104860001A46194602A802F0E5F80188ADF80010D2
:1048700080788DF802005848009900F0D9FF002296
:1048800057A1554800F03BFF0646534801F007F892
:1048900000EBD072A8EB620002B2009560E0CA693A
:1048A000D3691B7E042B05D0C969C161BBF1020F1E
:1048B0007ED089E0C2614B48E062E16CC1610020BA
:1048C00005F008FD444801F08AFDFF231A46194609
:1048D00002A802F0AFF80188ADF8001080788DF8DA
:1048E00002003D48009901F069FFCDE900765C23A4
:1048F0004E227221384800F0D7FF3849364801F07F
:10490000B4FD00231A46194602A802F093F8018864
:10491000ADF8001080788DF802002F48009901F062
:104920004DFFFF231A46194602A802F083F80188BA
:10493000ADF8001080788DF802002748009900F04B
:1049400077FF002226A1244800F0D9FE064622481F
:1049500000F0A5FF00EBD072A8EB62010AB200954F
:1049600006EBD671A9EB610001B21DA31A4801F054
:1049700064FDFF231A46194602A802F05BF801887D
:10498000ADF8001080788DF802001348009901F00E
:1049900015FF00231A46194602A802F04BF80188B9
:1049A000ADF8001080788DF802000B48009900E007
:1049B00008E000F03DFF012005F08CFC504602F0BD
:1049C0001FFE02E0C969C161E062FEF705FC2063D9
:1049D000BDE8FE8F0800002058050020069A010857
:1049E0004F4B00003C0200200A4810B5C079002857
:1049F0000FD0094CA5220021204605F044FE1420CA
:104A000002F0FEFD20460022BDE81040114605F0F0
:104A10003ABE10BD90050020004801407CB5314CE5
:104A2000E56A686918B102B0BDE870400047A8683F
:104A300048B1A98839B195F9181000EB411000214F
:104A4000C561E0620176E06A00680B2803D00C289B
:104A500001D00D2817D100231A46194601A801F0EC
:104A6000E9FF0188ADF8001080788DF802001E483B
:104A7000009901F0A3FEC82003464622009011468B
:104A8000194800F0BCFEE06A0068052816D11648F7
:104A9000E43805F011FB144AE43A107802F090FD76
:104AA00013280BD8507802F08BFD0C2806D2E06A50
:104AB0000C49C069D431E162E064C861A86810B1F2
:104AC000E06A806858B1FCF7C5F9002005F002FCE7
:104AD000FDF76CFCBDE87C40012005F0FBBBFEF758
:104AE00045FCF2E70800002058050020810705D1A9
:104AF000642190FBF1F201FB120141B94FF4C8713E
:104B000090FBF1F201FB120008B100207047012078
:104B1000704700001FB500231A461946684601F089
:104B200089FF0188ADF80C1080788DF80E002648BA
:104B3000039900F07DFEFF231A461946684601F0EE
:104B400079FF0188ADF80C1080788DF80E001E48B2
:104B5000039901F033FE1C4801F041FC1B4B02AAF3
:104B600001A9194801F0DCF898B9BDF908107822BC
:104B700001EBD171BDF90400A2EB61010AB200EBB7
:104B8000D070A021A1EB600001B2104B0E4800F0E4
:104B900059FF012005F09EFB4FF4FA6002F030FD52
:104BA00009483830007800284FF0000002D0FDF7A7
:104BB0000FFA1FBD05F08EFB034801F010FC024800
:104BC00001F068FF1FBD00005805002016580108BD
:104BD00010B50F4CE16A086910B1BDE810400047FC
:104BE0008888002813D0002005F074FBE06A017E5D
:104BF000491C49B201768288914201DB002101768D
:104C0000FDF7D4FBBDE81040012005F063BB10BDEB
:104C10000800002010B50F4CE06AC16811B1BDE872
:104C2000104008478088002813D0002005F052FB70
:104C3000E06A017E491E49B20176002902DA017953
:104C4000491E0176FDF7B2FBBDE81040012005F0DA
:104C500041BB10BD080000202DE9F041040001D542
:104C6000002402E0142C00DD1424184D1848E7B28B
:104C70002F70417ADFF85C801648202608F128085A
:104C800059B1202102F026FF20B1C8F8006064204D
:104C900002F0B6FC6F70BDE8F0810A2C09DD0D480A
:104CA00018300660642002F0ABFCEC2000EB4400FE
:104CB00009E0202102F00EFF20B1C8F80060642056
:104CC00002F09EFC60006870E5E70000080000202C
:104CD000900500200004004870B50C4D012028709C
:104CE000FEF7D6FF0A4C0020E071FEF77DFAFEF7D2
:104CF00073FA6063FEF770FAE063A87A002804D1C3
:104D0000BDE870400A20FFF7A7BF70BD90050020E6
:104D10000800002010B5002005F0DCFA0648A0F5D8
:104D20001571C86200210176FDF740FBBDE8104017
:104D3000012005F0CFBA00005C02002070B502F03F
:104D400089FD342002F03AFD104D284602F044FD62
:104D5000342002F033FD0E4C4FF0FF32E8212046A4
:104D6000FEF7D0FE21463B26C1F8E80005E02168A9
:104D7000284602F07FFD241D2D1D761EF7D234201B
:104D800002F01CFDBDE8704002F01EBD00F80108F5
:104D90009005002070B5124E0025124C86F8D550B3
:104DA000B6F8D600A0832846FFF756FF35700120DD
:104DB000A074A572FF20A0762574E573002005F08D
:104DC00089FAA6F1380001F065FEA6F1380001F07D
:104DD00006FB03F0A9FEFEF7FFF9606370BD00005B
:104DE000900500200800002010B588B000204FF486
:104DF0008271CDE9001002904FF400710590069089
:104E0000CDE90310064C6946204605F0A6FA0021BC
:104E1000204605F093FA204605F09AFA08B010BD36
:104E20000038004070B5002211461C2003F014FD2C
:104E30001C4C204605F04AFD0021204605F0ABFD44
:104E40000021204605F0EEFD0021204605F0B7FDCB
:104E50000421204605F0ABFD0821204605F0BBFDEE
:104E60004021204605F04AFD4FF41651204605F03A
:104E7000F7FC204605F04AFD40F20675294620461B
:104E800005F049FD0028F9D00521204605F04EFD2A
:104E90000421204605F04AFDBDE87040642002F080
:104EA000AFBB0000004400401FB500231A4619465E
:104EB000684601F0BFFD0188ADF80C1080788DF8D0
:104EC0000E002648039900F0B3FCFF231A4619464A
:104ED000684601F0AFFD0188ADF80C1080788DF8C0
:104EE0000E001E48039901F069FC1C4801F077FA96
:104EF0001B4B02AA01A9194800F012FF98B9BDF98D
:104F00000810782201EBD171BDF90400A2EB610118
:104F10000AB200EBD070A021A1EB600001B2104BEF
:104F20000E4800F08FFD012005F0D4F94FF4FA602F
:104F300002F066FB09483830007800284FF0000086
:104F400002D0FDF745F81FBD05F0C4F9034801F094
:104F500046FA024801F09EFD1FBD000058050020E2
:104F6000B05D01082DE9FF4F804600699BB0002825
:104F70007CD082781792022A01D0012A76D1D8F803
:104F800014200792002216926FF063020C92C078F0
:104F90000D9002910020CFE21E98435C0020099002
:104FA0001890D8F810000524611C425C015D02EBEA
:104FB000012111F0FF0129D0E21C855CA21C99425D
:104FC000825C05EB02220FFA82F97CD1B9F1080F5D
:104FD0001CDB01211891211D04F1050B435C099391
:104FE00010F80B10E71D01F07F020492A21D0025AE
:104FF000825C0A92C05D049A00F07F0A9A1A1798A0
:10500000A2EB0A06022802D0012871D06FE2C8097B
:105010006FD00A9A0D99A9F10800891A0026A1EB10
:105020000A070E96119096E0D8F8100001190E9814
:105030000830085C95FBF7F10FFA81FB10F0C00F08
:1050400058D000F03F0A05EB0A010DB2B14606EB5D
:105050000A010EB2000678D5289840B1404698F86B
:10506000193098F8182098F8171007E077E2079899
:10507000C0F30743C0F30722C1B2404601F0A6FBCC
:105080001D990A98084410903844401E00B21990A7
:105090000299049808440B9018E01099199B01EBB1
:1050A000090002B20B98584401B2404601F0CDF914
:1050B000A7EB0901AAEB01000FFA80FA4FF00009F3
:1050C0000BF1010000E046E20FFA80FB09EB0A0059
:1050D000B842E2DC1098484400EB0A0102B20B9897
:1050E000491E0BB2584401B2404601F0AEF92CE023
:1050F000D5E036E0289949B1404698F8193098F83B
:10510000182098F8171001F061FB09E08006020EE4
:105110004046079900F0BEFA0146404601F04EFBBA
:105120001D990A980844304402B204990298014437
:1051300001EB0B0001B2404601F060FB6D1C761CD8
:105140002DB236B201E0F01B06B2BE42FBDA0E9879
:10515000401C00B20E900E9911988142FFF664AF88
:10516000C5E10027A9F1080011900E97384691E09B
:10517000D8F8100001190E980830085C95FBF6F17C
:105180000FFA81FB10F0C00F53D000F03F0A05EB7F
:105190000A010DB2B94607EB0A010FB2000673D53A
:1051A000289838B1404698F8193098F8182098F89F
:1051B000171006E00798C0F30743C0F30722C1B2F7
:1051C000404601F003FB04990298084410903044D3
:1051D000401E00B219900A991D9808440B9016E0E1
:1051E0000B981099584402B201EB090001B24046F5
:1051F000199B01F012F9A6EB0901AAEB01000FFAC5
:1052000080FA0BF101004FF000090FFA80FB09EB67
:105210000A00B042E4DC1098484400EB0A01491E41
:105220000BB20B9959440AB201B2404601F0F5F8AD
:105230002AE0289949B1404698F8193098F8182082
:1052400098F8171001F0C2FA09E08006020E4046F5
:10525000079900F01FFA0146404601F0AFFA1D9988
:105260000A98014401EB0B0002B202990498084429
:10527000384401B2404601F0C1FA6D1C7F1C2DB2CA
:105280003FB201E0B81B07B2B742FBDA0E98401CF0
:1052900000B20E9011998842FFF66AAF27E1289874
:1052A00040B1404698F8193098F8182098F817102F
:1052B00001F08CFAD8F81000C15DC9097ED010F851
:1052C0000B00C00962D00A9A0D99A9F10800891A49
:1052D00000261190A1EB0A070E96304652E000BF5F
:1052E000D8F8100001190E980830085C00F07F090A
:1052F000C00939D095FBF7F00FFA80FB02990498AA
:10530000B246084410900A991D9808440B901BE07F
:10531000384403B20B981099504402B201EB0B00D1
:1053200001B2404601F091F8A7EB0A00A9EB000199
:105330000FFA81F92918304406B20BF101000DB2C1
:105340004FF0000A0FFA80FB0AEB0900B8420B98F5
:10535000DEDC504400EB090102B210980BB2584455
:1053600001B2404601F071F805EB090005B206EB09
:10537000090000E0F01B06B2BE42FBDA0E98401CAA
:1053800000B20E9011998842AADBB0E00027A9F183
:1053900008000E97109055E0D8F81000BA46011991
:1053A0000E980830085C95FBF6F100F07F09C00903
:1053B0000FFA81FB38D00299049800E047E00844D6
:1053C0000B900A991D980844CDF844000AEB090097
:1053D000B0421CDD0B98304403B21198584402B21D
:1053E0000B98504401B2404601F017F8A6EB0A00B2
:1053F000A9EB00010FFA81F92918384407B20BF123
:1054000001000DB24FF0000A0FFA80FBDEE70B99A6
:1054100001EB0A0000EB09010BB2119959440AB2E1
:1054200001B2404600F0F9FF05EB090005B207EBB9
:10543000090000E0B81B07B2B742FBDA0E98401C27
:1054400000B20E900E9910988142A5DB4FE0002724
:10545000A9F108000597BB460F9045E0D8F8100069
:1054600001190BF10800085C0E9001E0B81B07B2AF
:10547000B742FBDA0598B94690FBF6F00FFA80FACE
:105480005FF0000509EB0500B04205D10AF101000B
:10549000C5F100090FFA80FAC5F107010120884023
:1054A0000E9900B2014211D10A991D98014401EBF5
:1054B0000A00411C0BB202B204990298014401EBAC
:1054C0000900284401B2404600F0BFFF6D1CEDB258
:1054D000082DD7D30BF101000FFA80FB0598083097
:1054E00000B208373FB205900F998B45B6DB29987B
:1054F00080B1169940566FF0630188420ADD0C9026
:10550000169A2998104490F90100884202DD501C37
:1055100000B21690189860B102990998084400B238
:1055200002900C9810F1640F03DD0299084400B258
:1055300002901598401C00B215901E98FAF7E2FFF1
:10554000159988423FF628AD07991FB04046BDE83F
:10555000F04F01F033B904EB09010CB224E51FB0A0
:10556000BDE8F08F2DE9F34705462DED020B2DED3B
:10557000068BB0EE408AF0EE608A88B09FED410B5A
:105580009FED429B9DF8469053EC102B51EC180B6D
:1055900005F0E2FD09D2BDF8440040EA094008B038
:1055A000BDEC068B04B0BDE8F08753EC192B51EC31
:1055B000180B05F00BFF03D2B0EE498AF0EE698AB2
:1055C000287D05F0B5FD53EC182B05F001FE41ECEC
:1055D0001A0B53EC182B51EC190B05F0F9FF884608
:1055E000044648EC190B9DF8440005F0A1FD53EC6E
:1055F000192B05F0EDFD53EC1A2B05F0DDFA05F043
:1056000023FD0646687D05F093FD53EC182B05F04D
:10561000DFFD41EC1A0B48EC194B9DF8450005F0F5
:1056200087FD53EC192B05F0D3FD53EC1A2B05F035
:10563000C3FA05F009FD0746A87D05F079FD53EC96
:10564000182B05F0C5FD41EC180B48EC194B4846EA
:1056500005F06EFD53EC192B05F0BAFD53EC182B39
:1056600005F0AAFA05F0F0FCC3B2FAB2F1B205A84F
:1056700001F0E0F90188ADF80010827841EA0240BB
:105680008DE70000000000000000000000000000A6
:105690000000F03F7FB5CCB2C2F1FF0314FB03F46E
:1056A000C57D15FB0245C1F3072414FB03F4067EF8
:1056B00016FB0244C1F3074111FB03F1407E10FBCE
:1056C0000213C82295FBF2F094FBF2F193FBF2F285
:1056D000FF2800DDFF20FF2900DDFF21FF2A00DD7C
:1056E000FF22D3B2CAB2C1B203A801F0A3F9018864
:1056F000ADF80010827804B041EA024070BD2DE997
:10570000F74F0646006900284FD04FF000096FF0B0
:10571000630B4D464C4642E001984FF0000A534659
:1057200010F804C0306905214A1C475C825C02EB1A
:10573000072212F0FF0212D0CF1C10F807808F1C36
:105740006245C75D08EB07273FB205D1082F06DB8E
:1057500001230A1D10F802A0394409B2E4E70298B7
:1057600088B110F909006FF0630188420BDD029ADD
:10577000834602EB090090F90100884203DD09F13C
:1057800001000FFA80F943B105EB0A0005B21BF1E5
:10579000640F02DD05EB0B0005B2641C24B2019816
:1057A000FAF7B0FEA042B7D82846BDE8FE8F2DE933
:1057B000F0418046CD18A81E03B217460E4640465B
:1057C000069C00F02AFE3C44A01E6D1E03B22DB2C2
:1057D0003A462946404600F038FE641E701C24B24A
:1057E00001B22B462246404600F017FE7F1C23469E
:1057F0003AB231464046BDE8F04100F026BE2DE900
:10580000FC411E46054613460C461430089F01F025
:1058100006F90146D819A219401E521E00B212B252
:10582000CDE900202246284600F023FDBDE8FC819A
:1058300003B5BDF80410A0F817109DF806104176C6
:105840000CBD10B5417300240473B0F90630B0F9F3
:105850000420012907D002290AD0032903D002819C
:105860004381447310BD038142810121017310BD46
:105870000281438110BD704713B5034601A801F0B2
:10588000CEF81968C2B28C68C0F307211846A04749
:105890001CBD0368CAB2C1F307219B6818470069A1
:1058A000002800D0C07870472DE9FF4F87B01E4612
:1058B000DDE914749246012C07DA0097DDE907014F
:1058C000FFF79DFF0BB0BDE8F08FB4EB670F00DD75
:1058D0007C10B4EB660F00DD7410079890F8291067
:1058E000781E0FFA80F9701E0FFA80F859B1012165
:1058F000CDE90241CDE90094079843460068C569A7
:10590000DDE90701A847A6EB440003B20AEB070054
:10591000001B02B208989B46204405B20094294619
:105920000798FFF76CFFA7EB440000B200900AEB6A
:10593000040007B2DDE9070133463A46FFF75FFF8F
:105940005B462946524600940798FFF758FFA8EB9C
:10595000440000B20490A9EB440000B20390C4F1EB
:1059600001000FFA80F86000404200B24FF0010AD7
:105970000026029063E000BFB8F1000F08DB641E50
:10598000029824B2801C00B2029040440FFA80F8C2
:105990000AF102000FFA80FA08EB0A000FFA80F809
:1059A0000498761C05EB000B36B20BEB060003B235
:1059B000381B02B20FFA8BF189460092079800F06B
:1059C0002CFDA81B01B2009A2B460591079800F008
:1059D00024FD0BEB040003B2B81B02B29346494608
:1059E0000093079800F019FD281B01B25A462B4678
:1059F0000191079800F011FD0498A919084403B219
:105A000003983919084402B293464946079800F0B2
:105A100004FD0398B919084402B2009B494600925C
:105A2000079800F0FAFC5A462B460599079800F0B3
:105A3000F4FCDDE900212B46079800F0EEFCA642BD
:105A40009ADB3FE72DE9FF4F95B01D00934607D045
:105A500028785A2807D06FF0010019B0BDE8F08F00
:105A60004FF0FF30F9E768780104A87801EB0020D7
:105A7000E97808445FEA000A02D56FF00200ECE71B
:105A800028790104687901EB0020A97940180B906E
:105A900001D540B2E1E7EE79FF2E02D36FF00400AA
:105AA000DBE7687A297A00EB012000B25FEA0008A0
:105AB00002D56FF00500D0E7E87AA97A00EB012063
:105AC00007B2002F02DA6FF00600C6E7304601F099
:105AD0009EFA00240390099401200694CDE90F0456
