:020000040800F2
:10000000502300204D0200088D2F00084D2E0008BF
:100010001D2F0008211400084135000800000000D1
:10002000000000000000000000000000FD3100089A
:10003000ED15000800000000D12F0008FF31000876
:1000400067020008670200082931000867020008FB
:1000500067020008670200086702000867020008DC
:1000600067020008670200086702000867020008CC
:1000700067020008670200086702000867020008BC
:1000800067020008670200080000000065330008EE
:10009000670200086702000867020008670200089C
:1000A000670200086702000867020008670200088C
:1000B000E1340008000000006702000800000000B2
:1000C000670200080000000067020008000000004E
:1000D0000000000000000000000000000000000020
:1000E000000000000000000067020008000000009F
:1000F0000000000000000000000000000000000000
:10010000670200080000000000000000000000007E
:1001100000000000000000000000000000000000DF
:1001200000000000000000000000000000000000CF
:1001300000000000000000000000000000000000BF
:10014000000000000000000000000000670200083E
:1001500000F002F800F06AF80AA090E8000C82446F
:100160008344AAF10107DA4501D100F05FF8AFF24C
:10017000090EBAE80F0013F0010F18BFFB1A43F085
:100180000103184764D2010084D201000A444FF0F1
:10019000000C10F8013B13F0070408BF10F8014BE6
:1001A0001D1108BF10F8015B641E05D010F8016B2B
:1001B000641E01F8016BF9D113F0080F1EBF10F88F
:1001C000014BAD1C0C1B09D16D1E58BF01F801CBB2
:1001D000FAD505E014F8016B01F8016B6D1EF9D535
:1001E0009142D6D37047000000230024002500264A
:1001F000103A28BF78C1FBD8520728BF30C148BF8A
:100200000B607047642900F0A580732900F08D838E
:10021000002070471FB50BF0E2F89DE8030000F0E6
:100220001DFD00F0DDFA1FBD10B510BD00F0D0FCC3
:100230001146FFF7EFFF08F00FF900F045FD03B49A
:10024000FFF7F2FF03BC00F071FD00000948804792
:1002500009480047FEE7FEE7FEE7FEE7FEE7FEE7A8
:10026000FEE7FEE7FEE7FEE704480549054A064BC0
:10027000704700000D3200085101000850090020AD
:1002800050230020501F0020501F00200FB41CB529
:10029000074B06AA7B4469460090059800F01BFBBB
:1002A0000020694600F02AFB1CBC5DF814FB00002E
:1002B0006506000070B5044685690068C10601D571
:1002C000302600E02026C00707D070BDD4E9012108
:1002D00030469047206A401C20626D1EF6D570BDE6
:1002E00070B5044685690078C00707D170BDD4E9B0
:1002F000012120209047206A401C20626D1EF6D507
:1003000070BD70B50C460546012A05D028788006D8
:1003100000D5EA69002302E0012305E05B1C93425B
:1003200002D2E05C0028F9D1A869E618C01AA861D9
:10033000286A184428622846FFF7BCFF04E0D5E984
:10034000012114F8010B9047B442F8D32846FFF777
:10035000C7FF70BD2DE9F0410646002410687529DD
:10036000314616A510D0AFF30080002802DA4042D3
:1003700013A507E031688A0701D512A502E04907F5
:1003800004D511A5012401E0AFF3008000210A2269
:1003900006F1240709E0B0FBF2FCB0FBF2F302FB2C
:1003A0001C00303078541846491C0028F3D12346ED
:1003B0002A463046BDE8F04100F02FBA00000000A8
:1003C0002D0000002B000000200000002DE9F05F50
:1003D000894604464FF0000ADFF824B1FB44C0F818
:1003E00020A02046E168884700287DD0252806D037
:1003F000D4E901219047206A401C2062F1E70025E2
:100400005F462046E16888472028064607DB312EF4
:1004100005D2B81910F8200C08B10543F1E7A80778
:1004200001D525F00405C4F81CA00027C4F818A0C5
:100430002A2E09D0304606F0D3FD38B304EB8708E6
:10044000303EC8F8186019E059F8041B204604EB48
:1004500087029161E1688847012F064618D1E0695B
:10046000002820DA25F020051DE0D8F8180000EB60
:10047000800006EB40003038C8F818002046E168DC
:100480008847064606F0ACFD0028EED1012F0AD0C1
:100490002E2E08D12046E16888477F1C0646022F91
:1004A00045F02005C4DBA069002803DA404245F08E
:1004B0000105A061E80701D025F01005A6B1A6F15D
:1004C0004100192802D8203645F400654A463146D5
:1004D000204625604D46FFF795FE60B1012807D004
:1004E000ED1D25F0070000E007E000F1080978E7BE
:1004F00005F1040975E730467AE7206ABDE8F09F08
:1005000034CF010010B5431C02E010F8011B71B19B
:100510008107FAD14FF0013202C88C1A8C4314EAD9
:10052000C211F9D0C01A0A0603D0C01E10BDC01AED
:1005300010BD0A0401D0801E10BD0902FCD0401E6F
:1005400010BD032A40F2308010F0030C00F015803B
:1005500011F8013BBCF1020F624498BF11F801CBC6
:1005600000F8013B38BF11F8013BA2F1040298BF2B
:1005700000F801CB38BF00F8013B11F0030300F095
:10058000D881083AC0F0088051F8043B083A51F885
:1005900004CBA0E80810F5E7121D5CBF51F8043B3E
:1005A00040F8043BAFF30080D20724BF11F8013BB1
:1005B00011F801CB48BF11F8012B24BF00F8013B13
:1005C00000F801CB48BF00F8012B704702F0FF0391
:1005D00043EA032242EA024200F002B84FF000026E
:1005E0000429C0F0128010F0030C00F0D681CCF189
:1005F000040CBCF1020F18BF00F8012BA8BF20F8B3
:10060000022BA1EB0C0100F0C8B95FEAC17C24BF4A
:1006100000F8012B00F8012B48BF00F8012B7047B0
:10062000014900F0DFB90000C008002010B50368E0
:100630001C1404EB21449BB289B2194494FBF2F3DD
:1006400002FB134394FBF2F401EB034393FBF2F13F
:1006500002FB113193FBF2F301E05B1E1144002910
:10066000FBDB016003EB044010BDF0B504464FF026
:10067000FF3585B00068049060680290A068039020
:10068000E068019020690090666906F18040B0F151
:10069000004F7CD83C22002104A8FFF7C7FF3C2272
:1006A000014602A8FFF7C2FF1822014603A8FFF780
:1006B000BDFF411E40F2B55201A8FFF7B7FF0C2263
:1006C000074668460021FFF7B1FF414B00EB87006A
:1006D000304400267B4411E0511A01910099491CD5
:1006E0000229009102D00C2908D105E0810705D02C
:1006F0000199491C019101E0401C00960099019A62
:10070000595C9142E8DD0099012906D11C2A04D1E7
:10071000810702D00221CDE90016A0F146018B2904
:100720003CD2DDE90061002202E09F5C521C3944AA
:10073000B242FADB012E02DD820700D0491E40F2F0
:10074000B55340F26D16C21700EB927292105A43E5
:1007500000F0030303FB062283070A4400D1521E64
:10076000039E02EB4203049F06EBC303029EC3EB0E
:10077000031306EB8303174E33441E149BB2C6EBE0
:100780000616C3EB0313B60007EB830300E005E096
:1007900006EB134666F31F43360C02D0284605B01D
:1007A000F0BD80C4029E40C4039E40C4019E761CDE
:1007B00044F80C6B009E44E902600720521C92FB37
:1007C000F0F600FB162084E823001846E7E7000057
:1007D00090CC0100A039CEFD7047704770470000F3
:1007E00070B5064C7C44064D7D4403E020682044EF
:1007F0008047241DAC42F9D170BD000020CC01001F
:1008000024CC010010B500F04DF9006810BD10B502
:10081000044600F047F9046010BD2DE9F0470D468D
:1008200099469246044600F124080168880604D5DA
:10083000E06921F01001216000E00120A84201DD03
:10084000471B00E00027A1697A1902EB0900081A8A
:10085000A0612078C00602D42046FFF72BFD0026B9
:1008600008E0D4E901211AF806009047206A401CEC
:10087000761C20624E45F4DB2078C0060AD520465F
:10088000FFF718FD06E0D4E9012130209047206AE7
:10089000401C2062381EA7F10107F4DC07E0D4E910
:1008A000012118F805009047206A401C2062281E8C
:1008B000A5F10105F3DC2046FFF712FD20780006C4
:1008C00002D50220BDE8F0870120FBE701694A1C40
:1008D00002610878704700B58FB0CDE90131002181
:1008E000059105497944CDE9031011466846FFF7A3
:1008F0006DFD0FB000BD0000E5FFFFFF0A6802F8C4
:10090000010B0A60704710B5436913B1AFF3008063
:1009100001E0FFF7F6FC012010BD127800F1240180
:100920000A7000224A700122EDE711684FF0FF3291
:10093000E9E710B5203AC0F00B80B1E81850203A32
:10094000A0E81850B1E81850A0E81850BFF4F5AF6F
:100950005FEA027C24BFB1E81850A0E8185044BFF9
:1009600018C918C0BDE810405FEA827C24BF51F866
:10097000043B40F8043B08BF7047D20728BF31F85A
:10098000023B48BF11F8012B28BF20F8023B48BFAB
:1009900000F8012B70474FF0000200B51346944653
:1009A0009646203922BFA0E80C50A0E80C50B1F1C7
:1009B0002001BFF4F7AF090728BFA0E80C5048BFDB
:1009C0000CC05DF804EB890028BF40F8042B08BF79
:1009D000704748BF20F8022B11F0804F18BF00F875
:1009E000012B704770B50C46016800204A1C3ED0B0
:1009F0003C22B1FBF2F302FB1313B1FBF2F12360D3
:100A0000B1FBF2F302FB1313B1FBF2F118226360A6
:100A1000B1FBF2F302FB1313B1FBF2F146F2E03249
:100A20000A440721A360B2FBF1F301FB132140F25A
:100A3000B553B2FBF3F5A161B2FBF3F103FB152251
:100A40008900B2F5B77F08D39B10521EB2FBF3F5B5
:100A50002944B2FBF3F503FB15220F4BE261616100
:100A600089077B440CD03B2A0AD3521C08E02C2176
:100A70002046FFF790FF0120E0600AE0521A401C78
:100A8000195C9142FAD9521CC4E903204FF0FF309F
:100A90002062204670BD000002C901000048704776
:100AA0002009002000487047EC08002070B5064679
:100AB00000F0B4F8056806F10B0020F00704B4421A
:100AC0009CBF002070BD2B466A68BAB11068A04276
:100AD00010D304F1080188423CBF5068586007D326
:100AE0005168101941601168091B01605860146059
:100AF000101D70BD13465268002AE7D121462846D2
:100B000000F098F80028DED170BD70B50446051FCE
:100B100000F084F80068002C14BF446870BD002CFD
:100B200018BFAC423CBF20466468F8D301680A187D
:100B3000AA4218BF456003D12A68054611440160E6
:100B400028684119A1421CBF6C6070BD6168696072
:100B500021680844286070BDAFF3008010B500F034
:100B60000EF8016919B100220261884701E080682E
:100B7000804700F0B2F8000010B500F0AEF870B594
:100B800000F050F804680546A4B92020FFF78EFF56
:100B9000040011D0094900202C60C4E90001084973
:100BA000A1602073206160610649A06109B100F075
:100BB0009FF8E061204670BD00F08FF80000000053
:100BC000790B00080000000000487047EC08002086
:100BD0007546FFF7F9FFAE4605006946534620F01B
:100BE0000700854618B020B5FFF73EFBBDE8204062
:100BF0004FF000064FF000074FF000084FF0000BD9
:100C000021F00701AC46ACE8C009ACE8C009ACE88B
:100C1000C009ACE8C0098D46704700000048704725
:100C2000F4080020004870472809002070477047EA
:100C30007047704738B504460A4600206946AFF34E
:100C40000080002808BF38BD02460099204600F009
:100C500073F8012038BD012000F08FB8F8B5AFF36C
:100C60000080054600200C46102000BF0646A8194B
:100C7000A0420DD9324669460020AFF3008007003C
:100C800008BF00F07AF80098A04218BF0546C419C2
:100C9000FFF7C4FF05600746F01D20F00700461966
:100CA000284600F00AF8B44208BFF8BDA21B31463E
:100CB0003868BDE8F84000F03FB800210160C0E9A5
:100CC000011070471020704710B50446AFF3008044
:100CD0002046BDE81040FFF7B2BA10B5002000F082
:100CE00045F8FFF7A1FABDE81040012000F01EB85A
:100CF00010B58820FFF7DAFE002801D0002101702E
:100D000010BD802902D808B1017809B100207047D0
:100D1000012100F8081B704718B100F10802914248
:100D200001D0002070470021017070470149182050
:100D3000ABBEFEE726000200034640688C46002852
:100D400018BF88423CBF03464068F8D3186818446F
:100D5000884207D00CF1030020F00700001D411A63
:100D6000521A0146081D0A60FFF7CFBE10B500F009
:100D700011F8BDE8104000F008B810B500F022F8F6
:100D8000BDE8104000F001B87047002801D0FFF71F
:100D9000CDBF704710B5002102A000F03BF8012044
:100DA00010BD0000534947414252543A2041626EFF
:100DB0006F726D616C207465726D696E6174696FBC
:100DC0006E00000010B5012805D0002103A000F03E
:100DD00021F8012010BD09A1F8E70000534947524E
:100DE000544D454D3A204F7574206F6620686561FB
:100DF00070206D656D6F7279000000003A204865C3
:100E00006170206D656D6F727920636F727275709D
:100E10007465640070B505460C460A2000E06D1C40
:100E200000F011F835B128780028F8D102E0641CF0
:100E300000F009F814B120780028F8D1BDE870401E
:100E40000A20AFF3008008B569468DF80000032042
:100E5000ABBE08BD2DE9FE4FFE4DFF4F05F11E0A4A
:100E6000E86A9AF80120002601684FF0010905F1AF
:100E7000200307F10E0C07F1EC0435297CD030DC9F
:100E80001F297AD01BDCF34A0D2902F15002927817
:100E900074D006DC0B2972D00C2971D1FA700120B4
:100EA00009E015296DD016296AD187F80A90007ECD
:100EB000401CF8720220BDE8FE4F03F0CFBA202993
:100EC00070D02B296FD033296ED0342958D17A7144
:100ED000002A6AD0BE7287F8D5606E7101F0B8FF43
:100EE000DDE7B1F5FF7F72D04CDCDA4B40F2A5189C
:100EF00003F11E03A1F2A51C93F90130414567D00F
:100F000019DCD64FA1F580714FF00C084FF0540951
:100F10004FF0780A4FF09E0B9B3974D001292FD1E6
:100F2000017E491C0176384608F072FEE86A007EB0
:100F3000012867D01BE2BCF1010F7DD0BCF1140F7A
:100F40001ED15246002B78D0017E491C49B2017651
:100F5000012973D0022913D102F0F6F803F048FDFD
:100F6000BFF34F8FBE480168BE4A01F4E0611143F0
:100F70000160BFF34F8FFEE70DE21DE016E00FE0CA
:100F800084E015E0A1F58071FF397DD013297CD074
:100F9000B1F5756F83D0A1F57061513976D17EE7D7
:100FA000BA707CE715E02AE005E2F2E13A7176E7F3
:100FB000BE72142068727DE787F8D520002A8FD092
:100FC00006F0A4FA032800D13E737E7185E7FBE1A9
:100FD00008E22189A088C1EB011100EB8100A7F88C
:100FE000D600A883012003F039FA01F029FF6863D5
:100FF00001F026FF2863BDE8FE4F01F029BFFA711A
:101000004DE700E011E1017E491C0176934808F0AC
:10101000FFFDE86A90F91800401E02287ED204F114
:101020000C0007C806F0CBFC88B32069401E206185
:101030006069A0F26C7002E0DFE1E0E1E3E1606191
:1010400086482C38FFF711FB00906846FFF7E8FA56
:10105000806900B90720F870207D6438C0B206F0BE
:10106000F5F83870207C401CC0B206F0EFF87870BC
:10107000207B06F0EBF8B870784808F03FFE206956
:10108000401C2061606903E0A6E18CE1C8E002E059
:1010900000F26C7060617048383804F0D2FFFF23B2
:1010A0001A46194602A805F0F7FA0188ADF80010B3
:1010B00080788DF8020068480099383805F0B0F95A
:1010C0006548CDE900985C234E227221383804F03F
:1010D0001DFA61486449383804F0F9FF00231A46C4
:1010E000194602A805F0D8FA0188ADF800108078FA
:1010F0008DF8020058480099383805F091F9FF231F
:101100001A46194602A805F0C7FA0188ADF8001082
:1011100080788DF802005048383800E04DE00099A2
:1011200004F0B8F94C48002250A1383804F041F9D5
:1011300080464948383804F0E4F900EBD072AAEB55
:1011400062010AB208EBD871ABEB610001B2424810
:1011500046A33838009604F0A2FFFF231A4619462A
:1011600002A805F099FA0188ADF8001080788DF892
:10117000020039480099383805F052F900231A4620
:10118000194602A805F088FA0188ADF800108078A9
:101190008DF8020030480099383804F07BF94FF49C
:1011A0007A7006F05FF82C48383804F04AFF01F0F6
:1011B00047FE686301F044FE2863E86A007E032866
:1011C0002ED104F10C0007C806F0F9FB50B32069DA
:1011D000401E20616069A0F26C7060611F482C386D
:1011E000FFF743FA00906846FFF71AFA806900B9E2
:1011F0000720F870207D6438C0B206F027F83870F8
:10120000207C401CC0B206F021F87870207B06F0EC
:101210001DF8B870114808F071FD012003F01EF9A7
:10122000BDE8FE8FE86A0676FAE7207A06F00EF847
:101230003871207906F00AF87871BE71074808F015
:101240005DFD0548383804F0FCFEFF231A461946B8
:1012500002A80DE00800002090050020A80600204C
:101260000CED00E00400FA05A98201084F4B0000D4
:1012700005F012FA0188ADF8001080788DF80200B0
:101280006348009905F0CCF8CDE900985C234E2224
:1012900072215F4804F03AF95E495D4804F017FF97
:1012A00000231A46194602A805F0F6F90188ADF8A0
:1012B000001080788DF802005548009905F0B0F8CC
:1012C000FF231A46194602A805F0E6F90188ADF891
:1012D000001080788DF802004D48009904F0DAF88B
:1012E0000022AFF278014A4804F063F8804648488B
:1012F00004F007F900EBD072AAEB62010AB208EB26
:10130000D871ABEB610001B2AFF2A0034048009688
:1013100004F0C5FEFF231A46194602A805F0BCF9E1
:101320000188ADF8001080788DF8020038480099E7
:1013300005F076F800231A46194602A805F0ACF924
:101340000188ADF8001080788DF8020030480099CF
:1013500004F0A0F84FF47A7005F084FF2C4804F0F4
:1013600070FE01F06DFD686301F06AFD2863E86AB4
:10137000007E02287FF458AF207A05F067FF3871AD
:10138000207905F063FF7871BE71234808F0B6FC40
:1013900085E53E7383E52149027EC861B818E9629C
:1013A000407D08763CE7017EC06990F91820184816
:1013B0004D30115473E590F91810197011F80C1094
:1013C00059701649403903E0017E5970134920399C
:1013D000C861E9620E7623E793F90010587801F8A6
:1013E0000C005CE523B10020B87118B12E7556E5EC
:1013F0000120F9E785F8149051E53A724FE5BDE810
:10140000FE4F01F08DBD82F801908AF8009007E749
:1014100058050020A9820108A80600207C010020B0
:10142000FEE7000070B5FF2388B015460E4604465F
:101430001A46194607A805F02FF90188ADF80010E3
:1014400080788DF802001C48009904F0E9FF2246DC
:101450001AA101A8FEF71AFF1949174804F037FE30
:10146000002201A9144803F0A4FF044600EBD47045
:10147000A521A1EB600006440020009001AB05F11E
:101480003C0231B20C4804F0E3FF0E490A4804F074
:101490001EFE0DA00DA30068069006A8009030194E
:1014A00001B20C4605F13F02034804F0D1FF0848A1
:1014B000848408B070BD0000580500202564000039
:1014C000CE670108DF800108F99C0000B0430000EE
:1014D000080000200848C16A8A88002A0AD091F9C9
:1014E0001800431C5BB20B76934201DB00220A76A4
:1014F00002F07CBD70470000080000200848C16A67
:101500008A88002A0AD091F91800431E5BB20B7634
:10151000002B01DA521E0A7602F068BD7047000007
:1015200008000020184810B5C06A184C90F918003F
:10153000022803D0012811D0B8B120E0E068401E95
:10154000E0601CD11F2001E0E068401EE060D4E9AB
:10155000041206F034FA0028F6D010E02069401E8C
:1015600020610CD10C20206109E0606940F2E37138
:10157000401E6061884202DA40F633006061BDE8D7
:10158000104000F035B80000080000207C06002064
:1015900070B51448144C0125C06AD4E9041290F9BE
:1015A0001800022803D0012809D070B116E0E068C5
:1015B000401CE06006F003FA80B9E5600EE0491CCB
:1015C00021610D290AD1256108E0521CA2F50060B5
:1015D0006261343802D140F2E3706061BDE870406E
:1015E00000F006B8080000207C06002070470000CC
:1015F0002DE9F041FE4F98B0F86A00680B2806D03C
:101600000C2804D00D2802D0FA4804F01AFDF86A1C
:10161000F74E40F29B120068002401251E36A0F20E
:101620009B1190427ED017DC1F2820D00DDCF04C9F
:101630006FF0180504F150040B2874D00C2873D0F7
:101640000D28FAD016281CD1B3E020286DD02B2805
:10165000EBD0342815D1F9E04FF4A0781E2965D0DD
:1016600006DC0129F2D00A297ED00B2909D145E1F7
:101670001F297AD0B1F5137F09D0A1F57061B43973
:1016800074D0DDA001F0EAF818B0BDE8F081FF23C6
:101690001A4619460CA804F0FFFF0188ADF80010A7
:1016A00080788DF80200D348009904F0B9FE0C212F
:1016B0005420CDE900015C234E227221CD4803F075
:1016C00025FFD149CB4804F002FD00231A461946F4
:1016D0000CA804F0E1FF0188ADF8001080788DF8C7
:1016E0000200C448009904F09BFEFF231A461946E5
:1016F0000CA804F0D1FF0188ADF8001080788DF8B7
:101700000200BC48009903F0C5FE0022BFA1B94801
:1017100003F04FFE0546B74803F0F3FE00EBD07030
:10172000782204E0C5E13BE034E0C5E1C7E1A2EB8B
:10173000600002B205EBD5709E21A1EB600001B202
:10174000B2A3AC48009404F0AAFCFF231A46194641
:101750000CA804F0A1FF0188ADF8001080788DF886
:101760000200A448009902E025E17BE2D3E204F004
:1017700057FE00231A4619460CA804F08DFF018875
:10178000ADF8001080788DF802009A48009903F0B7
:1017900081FE79E702F0A0FC9DA001F0BDF801E018
:1017A00002F09AFC94F902000F22294601F0E2F8B7
:1017B0006AE79BA001F052F8F86A90F91800411C02
:1017C00001EB4101890000EB800001EB8005002462
:1017D00023E000BF874804EB4406E8383044018822
:1017E000ADF8001080788DF802008248009904F06E
:1017F00017FE5A20009005EBD570A021A1EB6000E8
:1018000000EB860004EB840100EB810001B20C23A5
:101810004B22784803F025FE641CF86A90F9180002
:10182000401CA042D6DCFF231A4619460DA804F03E
:1018300033FF0188ADF8001080788DF802006D4804
:10184000009904F0EDFD02F047FC1DE7002177A0B0
:1018500001F032F86C49674804F039FC00231A465D
:1018600019460FA804F018FFFF2307461A46194629
:101870000EA804F011FF06953988ADF81410B97858
:101880008DF816100188ADF8101080788DF81200D0
:10189000707800B1012068A10091CDE901046423B2
:1018A0001A4619461420039401F0BCF800231A4686
:1018B00019460EA804F0F0FEFF2307461A46194603
:1018C0000FA804F0E9FE06953988ADF81410B97830
:1018D0008DF816100188ADF8101080788DF8120080
:1018E000707848B1002055A10091CDE9010464232E
:1018F0001A461946039458E00120F4E742493D484E
:1019000004F0E5FB00231A46194611A804F0C4FEB2
:10191000FF2307461A46194610A804F0BDFE069597
:101920003988ADF81410B9788DF816100188ADF823
:10193000101080788DF81200307800B10120717895
:1019400001B101213CA2CDE90021CDE902046423CB
:101950001A464621142001F065F800231A4619465C
:1019600010A804F099FEFF2307461A46194611A84D
:1019700004F092FE06953988ADF81410B9788DF808
:1019800016100188ADF8101080788DF812003078AC
:1019900068B10020717861B1002128A2CDE9002151
:1019A0006423CDE902041A464621C82055E10120EE
:1019B000F0E70121F1E714490E4804F088FB002309
:1019C0001A46194613A804F067FEFF2307461A4675
:1019D000194612A804F060FE06953988ADF8141077
:1019E000B9788DF816100188ADF81010807827E0CE
:1019F00008000020580500204E6F7420696D706C3F
:101A0000656D656E74656400A98201084F4B000026
:101A100045636F203C20436F6D666F727400000059
:101A2000506F776572206C6576656C0050726F67D9
:101A300072616D6D650000004F4E00004F4646001C
:101A40008DF81200707800B10120B8A10091CDE9A5
:101A5000010478231A463C211420039400F0E2FF8D
:101A600000231A46194612A804F016FEFF23074663
:101A70001A46194613A804F00FFE06953988ADF8EA
:101A80001410B9788DF816100188ADF81010807810
:101A90008DF81200707850B10020A5A10091CDE919
:101AA000010478233C211A46B4200394D5E0012098
:101AB000F3E702F023F8E7E502F030F9E4E59E49A8
:101AC0009E4804F004FBF86A90F9180010B1012850
:101AD0004CD070E000231A46194617A804F0DCFD2C
:101AE000FF2307461A46194616A804F0D5FD0695A9
:101AF0003988ADF81410B9788DF816100188ADF852
:101B0000101080788DF812008DA0CDE9000400211E
:101B100002943C23474642460846039400F082FF65
:101B200000231A46194616A804F0B6FDFF23804686
:101B30001A46194617A804F0AFFD0695B8F800201C
:101B4000ADF81420014698F802008DF816000888B8
:101B5000ADF8100088788DF812007EA0CDE9000461
:101B60003C2302943A462D21039421E000231A4697
:101B7000194617A804F090FDFF2307461A46194698
:101B800016A804F089FD06953988ADF81410B978C7
:101B90008DF816100188ADF8101080788DF81200BD
:101BA0006FA0CDE900043C23029442460021039437
:101BB000002000F037FF6049604804F088FA0023F5
:101BC0001A46194615A804F067FDFF2307461A4672
:101BD000194614A804F060FD06953988ADF8141074
:101BE000B9788DF816100188ADF8101080788DF84E
:101BF0001200707800B101205DA10091CDE90104CF
:101C00005A231A4673211420039400F00BFF00237B
:101C10001A46194614A804F03FFDFF2307461A464A
:101C2000194615A804F038FD06953988ADF814104A
:101C3000B9788DF816100188ADF8101080788DF8FD
:101C40001200707860B100204AA10091CDE9010432
:101C50005A231A467321D220039400F0E3FE13E5C1
:101C60000120F1E73449354804F031FA00231A46DF
:101C7000194617A804F010FDFF2306461A46194618
:101C800016A804F009FD06953188ADF81410B17856
:101C90008DF816100188ADF8101080788DF81200BC
:101CA00035A0CDE9000402943C2347464246462134
:101CB0000020039400F0B6FE34A336A238A107A892
:101CC000FEF7E4FA002207A91C4803F072FB002388
:101CD0001A46194616A804F0DFFCFF2306461A46EA
:101CE000194617A804F0D8FC06953188ADF81410F1
:101CF000B1788DF816100188ADF8101080788DF845
:101D0000120007A8CDE900043C23732102943A464F
:101D100000200394A1E724A35A223C210748009401
:101D200004F0BDF907F0A4FEAEE400003530250054
:101D300031303025000000003591010858050020A1
:101D4000526573657420616C6C20646576696365A7
:101D50000000000073657474696E67733F000000D3
:101D600041726520796F7520737572653F000000C0
:101D7000596573004E6F000043757272656E742072
:101D80006669726D776172650000000031322E3530
:101D90002E35000076657273696F6E3A2000000080
:101DA0002573257300000000436F6E6E65637469D0
:101DB0006E6700002DE9F043E04C0746E04EE06A14
:101DC0008BB010B1707800287ED0012F06D0002093
:101DD00008F02CF8DA48383804F033F900231A46B2
:101DE000194607A804F058FC0188ADF80010807867
:101DF0008DF80200D2480099383804F011FB1A25FA
:101E00000095A08C53230C3001B2CD48892238387C
:101E100003F027FBFF231A46194607A804F03CFCF1
:101E20000188ADF8001080788DF80200C448009950
:101E3000383804F0F5FA70794FF0000950B105F028
:101E400089FB40B20F22002100F094FD607D042840
:101E500062D063E0307BC0B3012846D002284DD069
:101E60000328F3D1B648B74B3C229621383803F00B
:101E70001BFCB348B449383804F029F900231A464A
:101E8000194609A804F008FCFF2380461A461946A3
:101E900008A804F001FC014601200690B8F80020D3
:101EA000ADF8142098F802008DF816000888ADF8F7
:101EB00010008878A5A1CDE900192D238DF8120016
:101EC000CDF80890522201E02CE106E0A0219120FB
:101ED000CDF80C9000F0A6FDB8E705F057FB0F22F7
:101EE000002100F047FD9A4B06E005F04FFB0F2262
:101EF000002100F03FFD974B0F2207E005F046FB65
:101F00000F22002100F036FD934B0D228C480C214E
:101F1000383803F0C9FB99E7E06AE8B300231A46B2
:101F2000194601A804F0B8FB0188ADF800108078CC
:101F30008DF8020082480099383804F071FA307B3D
:101F4000009503283FD0A08C532388220C3001B287
:101F50007B48383803F085FAFF231A46194601A852
:101F600004F09AFB0188ADF8001080788DF802002B
:101F700073480099383804F053FA707B48B1307BCD
:101F8000032806D06E48754B8C220C21383803F09C
:101F90008BFB96F8D50000E005E0012817D070799A
:101FA000012817D020E0307B6D4B032808D0A08C8F
:101FB00089220C3001B26248383803F075FBDCE747
:101FC00032220C21F7E72B2332220C21C0E7654B8C
:101FD0004D2204E0307B644B03280FD05022584838
:101FE0000C21383803F060FB307B03287ED0B07AB8
:101FF00005254FF00C08012802D003E09322EEE7FC
:10200000707930B1607E13282AD80F281CD9042596
:1020100026E0F57A052D0AD0042D0AD0032D0BD029
:10202000022D0DD0012D0DD084F8099019E0142057
:1020300000E01020607201E084F80980002412E0C2
:102040000820F7E70420F5E70A2801D3032507E075
:10205000052801D9022503E008B1012500E000258B
:10206000E57000241DE0414904EB44000844018868
:10207000ADF8001080788DF80200314800993838AA
:1020800004F0CEF93520604300EBC4000B3001B200
:102090002B483523D5223838CDF8008003F0E1F9FC
:1020A000641CAC42DFDBFF231A46194603A804F088
:1020B000F3FA0188ADF8001080788DF8020020480E
:1020C0000099383804F0ACF900231A46194603A8E1
:1020D00004F0E2FA0188ADF8001080788DF8020073
:1020E00017480099383803F0D5F900E015E0144896
:1020F0001F49383803F0EBFFB07A012801D170791D
:1021000098B11CA01CA30068019001A800900C4885
:10211000C2220B21383803F0C2FF012F02D0012068
:1021200007F084FE0BB0BDE8F08315A116A3D1E93A
:102130000001CDE9010101A80090E8E708000020B6
:102140009005002076340108359101084F6666003D
:1021500060290108FA2601080D220108931E0108D2
:10216000A55F0108F5140108BE19010870040020DC
:10217000D9CC01080202029C4155544F00000000D6
:1021800002020202029C0000435553544F4D0000CE
:102190002DE9F043F94D87B0E86A00287ED08068C9
:1021A00038B3F74803F04DFF01F096FFE86AF44BAF
:1021B0000024816890F91800A84601EB40109F2583
:1021C000026806200C21A02738334FF03C09264630
:1021D0002B2A78D021DC0D2A76D00FDC0D2A71D283
:1021E000DFE802F0704073A8ABAE7070707070B032
:1021F000B30007B0BDE8F043FFF7FAB9202A7DD05D
:1022000006DC152A7BD0162A7AD01F2A5AD176E10D
:10221000292A76D02A2AF9D18CE140F2A51CA2F213
:10222000A51362456ED00CDC352A4BD002DC2C2A7B
:10223000ECD191E1A2F580729B3A76D0012AE5D1EA
:1022400059E2162B72D006DC012B70D0142B6FD004
:10225000152BDBD186E1A3F57063AA3B69D0012B76
:10226000D4D142E20E21CDE9001054235C2219465C
:10227000104605F009F8FF231A46194603A804F092
:102280000BFA0188ADF8001080788DF80200BC4888
:10229000009904F0C5F8BB49B94800E08EE203F0AC
:1022A00016FF0022B8A1B64803F083F800EBD07007
:1022B000A5EB600001B2B4A36E22B148009603F012
:1022C000EEFEB3A443E240E1B9E0CDE900105423AF
:1022D0005C221946104604F0D7FF1E2000900A2306
:1022E00078228321A64803F0BCF8262000900A2318
:1022F00070229321A24803F0B4F804E00BE1A1E0BE
:10230000CEE014E1FAE12E2000900A236822A321F6
:102310009B4803F0A6F8362000900A236022B321E0
:10232000974803F09EF89DA411E2E1E1ACE1E8E1F9
:1023300015E1ACE19B4D9CA4EDE19D4D9DA4EAE12E
:102340009FA404E2A14DA2A4E5E1FF231A46194689
:1023500002A804F0A1F90188ADF8001080788DF88A
:1023600002008748009904F05BF800231A461946DA
:1023700002A804F091F90188ADF8001080788DF87A
:1023800002007F48009903F085F84E200346009034
:10239000512279217A4803F0AFFE00231A461946EC
:1023A00002A804F079F90188ADF8001080788DF862
:1023B00002007348009904F033F8FF231A461946C7
:1023C00002A804F069F90188ADF8001080788DF852
:1023D00002006B48009903F05DF83C2346229621E9
:1023E0006748CDF8009003F087FE322000903C2330
:1023F0004622A021624803F034F8FF231A4619460A
:1024000002A804F049F90188ADF8001080788DF831
:1024100002005B48009904F003F800231A461946AD
:1024200002A804F039F90188ADF8001080788DF821
:1024300002005348009903F02DF867A487E1674D27
:1024400067A468E1CDE9001054235C2219461046C8
:1024500004F01AFFFF231A46194604A804F01CF9D9
:102460000188ADF8001080788DF80200444800998A
:1024700003F0D6FF5D49424803F029FE00225CA12B
:102480003F4802F096FF00EBD070A7EB600001B26E
:1024900057A35D223A48009603F001FE55A456E189
:1024A000CDE9001054235C221946104604F0ECFEDE
:1024B000FF231A46194605A804F0EEF80188ADF886
:1024C000001080788DF802002D48009903F0A8FFD5
:1024D00046492B4803F0FBFD002248A1284802F0A2
:1024E00068FF00EBD0709D21A1EB600001B243A317
:1024F0005C222348009603F0D2FD41A427E193F823
:10250000D500002801D0404D00E0404D01D040A44E
:1025100001E142A4FFE0CDE900104FF054034FF079
:1025200085021946104604F0AFFE40A40FE1424D6B
:1025300042A4F0E0CDE9001054235C221946104675
:1025400004F0A2FE404D41A4E5E0D87908B1414D28
:1025500000E0414D41A4DEE0424D43A4DBE0444DA8
:1025600044A4D8E0CDE9001054235C22194610465B
:1025700004F08AFE3E4D41A4933DCCE008000020CB
:10258000580500200ABC01084D4F444500000000DA
:1025900048656174206D6F6465000000506F776559
:1025A000720000006DC2000854696D657200000081
:1025B00001D3000853657474696E677300000000EE
:1025C00050726F6772616D6D65000000FCB40008A9
:1025D000436F6D666F72740045636F00B3BB000894
:1025E000416E74692D66726F73740000C4B1010886
:1025F000410000004175746F0000000043000000BE
:10260000437573746F6D000029CE0008E1C900089E
:1026100054696D6572206973206F6E0054696D6531
:1026200072206973206F6666000000005365742095
:1026300074696D65720000004F5101084461746552
:1026400020262074696D65009BEE00084469737054
:102650006C617900A4E2000867E90008536F756EA9
:10266000640000007A2D0108536572766963650085
:10267000A63B01085265736574000000496E666FE1
:10268000726D6174696F6E004E4D4FA443E0CDE9E9
:102690000010542385221946104604F0F5FDFF234F
:1026A0001A46194606A803F0F7FF0188ADF8001096
:1026B00080788DF802004748009903F0B1FE464942
:1026C000444803F004FD002244A1424802F071FE98
:1026D00000EBD070A5EB600001B240A36E223D4834
:1026E000009603F0DCFC3FA431E0414D41A412E030
:1026F000454D46A40FE0484D48A40CE04A4D4BA47C
:1027000009E0CDE9001054235C221946104604F07C
:10271000BBFD494D49A4D5B12B4601AA69462D48B8
:1027200003F030F9F0BBBDF90410BDF9000001EB76
:10273000D1717822A2EB610100EBD0700AB2A7EB55
:10274000600001B22B46234802F0AEFF2EE0D8F81D
:102750002C004546816890F9180001EB4010006894
:10276000202823D139491B4803F0B1FCA98B4846E6
:10277000B1FBF0F209FB1213B1FBF9F234A103A88B
:10278000FDF784FD002203A9124802F012FE00EBBF
:10279000D070A7EB600000230096019600B203AA58
:1027A000672100E002E0029600F0F2F9002C05D06B
:1027B00007B02046BDE8F04300F050B807B0BDE8D0
:1027C000F0830000AE620108436F6E6E656374694A
:1027D0006F6E0000580500200ABC01085354415296
:1027E00054000000436F6E6E656374696E6700008D
:1027F000A63B0108526573657420636F6E6E656356
:1028000074696F6E0000000076DB00085365742069
:102810006461746500000000B24B010853657420C8
:1028200074696D6500000000A4F8000842726967D1
:1028300068746E65737300009CF200084175746FD4
:1028400020737769746368206F666600A982010847
:10285000253032643A253032640000001CB5FF2375
:1028600004461A46194601A803F016FF0188ADF880
:10287000001080788DF802000D48009903F0D0FD1B
:102880000C490B4803F023FC00222146084802F0C3
:1028900090FD0021009100EBD070A021A1EB600021
:1028A00001B22346B922024803F0F9FB1CBD000027
:1028B00058050020359101087CB5FF230C460546DC
:1028C0001A46194601A803F0E7FE0188ADF800108A
:1028D00080788DF802000E48009903F0A1FD0D49A3
:1028E0000B4803F0F4FB00222946094802F061FD81
:1028F0000021009100EBD070A021A1EB600001B29B
:102900002B4604F11A02024803F0C9FB7CBD00000B
:1029100058050020359101081CB5FF2304461A46CE
:10292000194601A803F0B8FE0188ADF800108078C0
:102930008DF802000D48009903F072FD0C490B4818
:1029400003F0C5FB00222146084802F032FD0021B9
:10295000009100EBD070A021A1EB600001B22346F2
:102960001022024803F09BFB1CBD0000580500200C
:102970000ABC010870B5FF2388B015460E46044610
:102980001A46194607A803F087FE0188ADF8001023
:1029900080788DF802001C48009903F041FD224622
:1029A0001AA101A8FDF772FC1949174803F08FFB23
:1029B000002201A9144802F0FCFC044600EBD4708C
:1029C000A521A1EB600006440020009001AB05F1B9
:1029D0003C0231B20C4803F062FB0E490A4803F096
:1029E00076FB0DA00DA30068069006A80090301994
:1029F00001B20C4605F13F02034803F050FB0848C2
:102A0000848408B070BD00005805002025640000D3
:102A1000CE670108DF800108F99C0000B043000088
:102A2000080000202DE9FF4F8BB08B46DDE91C54D8
:102A3000DDE9181792461E4600225448DDF86C80E6
:102A400002F0B7FC0590514802F05BFD81460B99FE
:102A50000AEBDA72059801EB620100EBD070A1EB92
:102A6000600000B206EBD67203900BEB620109EB3B
:102A7000D970A1EB600000B202900FB1294600E0CE
:102A80002146424803F0CCFC0720CDE900605346C4
:102A90005A463E480B9902F039FD47B121463B4862
:102AA00003F0BEFCB8F1000F39D017B138E0294669
:102AB000F5E72946354803F0B3FC2146334802F0D8
:102AC000E9FC0720CDE9006053465A462F480B9990
:102AD00002F01CFD21462D4803F0A2FC29462B489C
:102AE00002F0D8FCC8F1000006EB4002072112B248
:102AF0000AEB4000CDE9002103B20BEB080002B263
:102B00000B98404401B2214802F000FD29461F48BD
:102B100003F086FC21461D4802F0BCFC02E00FB128
:102B2000294600E02146194802F0B4FC0020DDE906
:102B3000022100901548189B03F0B1FA1A9878B159
:102B40000FB32146114803F06BFC0320009002985C
:102B5000059B4844401D02B20C48039902F081FCD9
:102B600000231A46194609A803F096FD0188ADF81E
:102B7000001080788DF802000448009902F08AFC69
:102B80000FB0BDE8F08F2946DCE7000058050020B3
:102B90002DE9FF4F83B01C00DDE91187DDF840B05F
:102BA0000E46824603D0FF231A46194602E0002350
:102BB0001A46194601A803F06FFD3948019903F040
:102BC0002FFC00223648059902F0F3FB8146344879
:102BD00002F097FC054600EB470000B2009009EBBD
:102BE000480003B2F01B02B2AAEB080001B22C4865
:102BF00002F037FC74B100231A46194601A803F00D
:102C00004BFD2748019903F00BFC3CB1FF231A460A
:102C1000194606E0FF231A461946EFE700231A4635
:102C2000194601A803F038FD1D48019902F032FC55
:102C300000200090324651461948059B03F02FFAB8
:102C4000BBF1000F14D034B300231A46194602A872
:102C500003F022FD1248029903F0E2FB04200090E9
:102C60007019401D02B24B4651460D4802F0F9FB67
:102C700000231A46194601A803F00EFD0188ADF89D
:102C8000001080788DF802000548009902F002FCDF
:102C900007B0BDE8F08FFF231A461946D7E70000BA
:102CA000580500207CB500F0CBF84D4CA16B884254
:102CB00079D900F0C5F8A063617D4A4E1A25022932
:102CC00005D039B3032928D004292AD02CE00023C9
:102CD0001A46194601A803F0DFFC0188ADF8001080
:102CE00080788DF802003F480099383803F098FB4F
:102CF000307B0095032809D0A08C532389220B3008
:102D000001B23848383802F0ACFB3BE02B233B22C1
:102D10001621F6E700F57A7001E000F5FA70A0637D
:102D200002E0207A00283ED1207A4FF0000380F0A4
:102D300001002072307B1A460328194601A833D0BF
:102D400003F0AAFC0188ADF8001080788DF802002D
:102D500024480099383803F063FB0095A08C532376
:102D60000C3001B21F488922383802F07AFB207AF1
:102D700040B1A08C89221C4B0C3001B21948383864
:102D800002F092FCFF231A46194601A803F084FCC6
:102D90000188ADF8001080788DF802001148009984
:102DA000383803F03DFB7CBD03F076FC0188ADF8BC
:102DB000001080788DF802000A480099383803F036
:102DC0002FFB08482B233B2216213838009502F0B0
:102DD00048FB207A0028D5D03B22034B1621CDE7B3
:102DE0000800002090050020A55F010810B5114CD7
:102DF00000202075012007F019F800F021F8A16BE0
:102E0000884216D9207A80F00100207200F018F86C
:102E100000F5FA70A063084803F013F9207A00283F
:102E200007D04022BDE81040044B6421024802F064
:102E30003BBC10BD08000020580500207359010854
:102E4000014800687047000000000020FEE7000015
:102E50002DE9F0472E4C2078D0B194F8D50008B970
:102E60006079A8B12B4806F0D3FE2A4E00253078B1
:102E700000F00F01000900EB800001EB4000C0B240
:102E8000132809D2607938B184F8D550657125735B
:102E9000BDE8F04706F08ABE06F088FE94F8D5003B
:102EA000DFF870904FF0804709F114094FF00308E4
:102EB0004FF4807A01281ED06079012826D189F844
:102EC000095089F80A5089F80B504FF08030C9F842
:102ED000000004F01BFB2073C9F804700D4889F84A
:102EE0000880143006F03AFE504606F0F5FEBDE8C4
:102EF000F04706F07DBE89F8095089F80A50B0798C
:102F000089F80B000448C9E90007E7E7BDE8F08746
:102F1000900500208C04002000808080FEE70000E7
:102F200010B5174CE06AC06928B3002006F07EFF98
:102F3000E26A04F11E001168332910D0A1F58073F4
:102F4000B93B02D1002101704170D069C4F82C0056
:102F5000FFF71EF9BDE81040012006F067BF0949E0
:102F60004B79002BF1D1D369074AE262D3614979E9
:102F700001704170ECE7BDE8104000F0E3BA0000DA
:102F80000800002090050020BC01002070470907C0
:102F9000090E002806DA00F00F0000F1E02080F8AA
:102FA000141D704700F1E02080F800147047000005
:102FB000024900204870FEF71BBB000026000020DD
:102FC000024901204870FEF713BB000026000020D4
:102FD000704700002DE9F041504E514C0025F36A36
:102FE000A4F1EC0006F11E021968332963D01CDC41
:102FF000162951D010DC494A0B2902F150023DD06C
:10300000032307240C293FD00D293FD0152941D196
:10301000BDE8F041FDF71EBF1F2941D0202942D055
:103020002B2937D1C079107074E040F2A51CA1F2B1
:10303000A51761455FD01ADC34295AD035293AD01A
:10304000384FA1F580719B3937D0012922D13846FC
:1030500006F0DEFD387904F0E5F8A060787904F038
:10306000E1F86060B87904F0DDF820603EE0012FFF
:1030700052D0142F1FD0592F0CD11CE080789070A3
:103080000A201070232045E0C07800E0007990709D
:1030900013705470BDE8F081C07A401E1876F9E7CD
:1030A00090F8D500BFE7B0F8D6003C21B0FBF1F0B6
:1030B000C4E9015025601D76ECE71A4806F0A8FD2A
:1030C000B87804F0AFF8E060787804F0ABF82061ED
:1030D000387804F0A7F8132802D240F2E37004E035
:1030E000387804F09FF800F5FA606061F06A0576C0
:1030F000D0E7407997E78079002806D04FF00000AC
:10310000107005D14FF0010004E04FF00100F7E727
:103110004FF000005070BDE7007A84E708000020FF
:103120007C0600208C04002010B54FF480742046EB
:1031300006F0DAFD002806D0204606F0CDFDBDE8F9
:10314000104006F0F5BC10BD2DE9F0412A4C0127D6
:103150000025277065701820A0700420E0700520FD
:1031600020716571A771E77125726572A572E772AA
:10317000257365730326A673E67326746674A674B6
:10318000E67426750522A82104F12D00FDF71EFA2C
:103190001E2084F859000A2084F85A0001221821C0
:1031A00004F11500FDF712FA84F8D5504FF434708D
:1031B000A4F8D60004F1600040F8785F45608560AF
:1031C000C56006F053FDA4F582707F210181FF21C7
:1031D000418120210170C6704770877005611221FE
:1031E000C56001714571857106F088FD002800D128
:1031F000FEE7BDE8F081000090050020704710B5A3
:1032000004F038F8BDE8104000F0A4B8484810B504
:1032100046494160474A426081608260016941F0ED
:1032200020010161016941F040010161C168C907E4
:10323000FCD1016921F020010161016941F0100117
:103240000161C16911F0060F3B490AD0C269C2F39E
:103250004102012A07D0C269C2F34102032A04D005
:1032600005E0A52202E0BB2200E0CC220A80C16971
:10327000DF2202EA1121304A921C1180C169921C9E
:10328000C1F307411180C169090E921C1180016AC6
:10329000921CC9B21180016A921CC1F307211180EE
:1032A000016921F0100101612448016841F47001B5
:1032B00001602348016841F001010160016889074C
:1032C000FCD541681F4A1140416041681E4A1140C7
:1032D000416001681D4A11400160C16A1C4A1140E9
:1032E000C162016B40F2031291430163016B21F44F
:1032F00080310163016B21F000410163416B21F0DA
:1033000001014163D0F8C01021F48031C0F8C01031
:1033100000218160C0F8CC1006F0ECFDBDE8104043
:1033200000214FF0006005F015B90000230167454A
:1033300000200240AB89EFCD00F8FF1F88ED00E0D0
:10334000001002400C00FF08FFFFC277FFFFF2FEF3
:10335000F0FFFF3F02480168491C01607047000010
:103360000000002010B5084C0121204607F005F8A8
:10337000012807D10121204606F0FCFFBDE81040DE
:1033800000F004B810BD00000020004009494FF4CF
:1033900080720879401EC0B208714B78834201D90F
:1033A000054B01E0044B10331A60002801D11420B2
:1033B00008717047080000201804004810B50B4C35
:1033C0000F226FF0180194F90200FEF72BF8A07895
:1033D000401E40B2A07094F90010884201DA607873
:1033E000A070BDE81040FEF703B9000058000020AF
:1033F00010B50B4C0F226FF0180194F90200FEF784
:1034000011F8A078401C40B2A07094F901108842D5
:1034100001DD2078A070BDE81040FEF7E9B800009B
:1034200058000020154830B4C26A154892F9184077
:10343000D0E9011314B1012C0FD018E05B1E83609A
:103440001268202A00D123B1002B10DA17218160E5
:103450000DE061B90121416009E0491E4160146835
:103460003B22202C00D12BB1002900DA426030BC75
:10347000FEF7BEB80129F9DBF9E7000008000020DB
:103480007C060020F0B4144800250124C36A1348C8
:1034900093F91860D0E9011216B1012E0CD014E096
:1034A000521C8260172A00DD85601A68202A0CD120
:1034B000826852B971B108E0491C41601B68202B39
:1034C00000D12AB13B2900DD4560F0BCFEF790B881
:1034D0003B29FADD4460F8E7080000207C06002064
:1034E00070B5124C1049204606F0EAFF68B120463C
:1034F00006F090FF0F490E4B0A789854521CD0B238
:103500000870C82801D1002008700B4D20462946BC
:1035100006F0D6FF002806D02946204606F0BCFF5C
:1035200006490120087070BD0500050700440040F1
:10353000BC0600203C040020040004073E040020D8
:10354000FEE7000002490020C862FEF733BC00001D
:103550000800002010B540F21C7005F0DFFC05F0FB
:103560005BF84FF40064204605F054FC204605F05B
:103570005FFCE01005F0FCFC40F60F0005F0CEFC0F
:10358000BDE8104006F02ABC10B500214FF4807051
:1035900003F01AFE0121084603F03CFD0722052135
:1035A000002003F0B3FD0121022003F00DFE0020F6
:1035B00003F0EEFD0121084603F064FD4FF46021A5
:1035C000012003F07DFD002003F042FD03F04EFDDD
:1035D0000A2003F047FE03F00BFDBDE81040012078
:1035E00003F0E2BD10B5094C00220749204604F063
:1035F0001BF9002281231146204604F0C5F920461C
:10360000BDE8104004F096B9801A0600005400404E
:103610002DE9F041334C0126334D207D022804D1A1
:10362000287810B101F03AF80026FFF709FC206372
:10363000687800274FF00108A0B3287820B1207DDA
:10364000012815D0A0B115E02748383803F068F9F3
:10365000A87908B1277501E084F8148001F01EF8FC
:10366000002006F0E3FB01F0AFF80020BDE8F08198
:1036700001F014F81C48383803F052F9A87908B161
:10368000277501E084F81480002006F0CFFB01F0DC
:103690009BF8FFF7D5FBA0F5D24078382063687817
:1036A0000026B0B92878A0B1287A70B1207D022810
:1036B0000BD1A87908B1277501E084F814800020A7
:1036C000FEF778FBFFF7BCFB60640748383803F06F
:1036D00027F9FFF7B5FB41F28831084460643046B2
:1036E000C4E70000080000209005002010B540F25B
:1036F000157005F013FC40F2115005F00FFC40F27C
:10370000125005F00BFC40F20E7005F007FC40F281
:10371000117005F003FC40F2126005F0FFFB4FF45E
:10372000E06005F0FBFB40F2096005F0F7FB40F2BA
:103730001C7005F0F3FBBDE81040062005F034BA1C
:1037400030B503461046064C07E013F8015BC2B2E1
:103750006A4054F8222082EA1020491EF5D230BD7A
:1037600014CF01082DE9F04101224FF090460223C9
:103770001146304603F0E5FF0223032200213046C4
:1037800004F006F8504F4FF4F07423460222012152
:10379000384603F0D6FF234603220021384603F0C3
:1037A000F7FF202300220321304603F0CAFF012245
:1037B0000221304603F08EFF012300220221304611
:1037C00003F0BFFF012303220021304603F0E0FF96
:1037D0004FF4007422460221384603F07BFF022298
:1037E00023461146384603F0ACFF0022234611461B
:1037F000384603F0CDFF22460421304603F06AFF2D
:1038000065002A460421304603F064FF2346002267
:103810000221304603F095FF234603220121304662
:1038200003F0B6FF2B4600220221304603F089FF49
:103830002B4603220121304603F0AAFF4FF4204417
:1038400022460021384603F045FF2346002202218C
:10385000384603F076FF234603220021384603F062
:1038600097FF40F60444012223461146384603F0F0
:1038700068FF234603220021384603F089FF042213
:103880000121304603F026FF08220121304603F0D3
:1038900021FF042301220221304603F052FF0423BA
:1038A00003220021304603F073FF08230122022186
:1038B000304603F046FF3046BDE8F04108230322BE
:1038C000002103F065BF0000000400482DE9F0432B
:1038D00000238BB01A46194606A802F0DDFE0188C7
:1038E000ADF8001080788DF802007248009901F060
:1038F000D1FDFF231A46194606A802F0CDFE018825
:10390000ADF8001080788DF802006A48009902F046
:1039100087FD684F684C38374FF00108B8790025AB
:1039200008B1257501E084F81480624802F089FB33
:10393000604802F0F5FF002006F078FA5F4B08AA15
:1039400007A95C4802F01EF8A02690B9BDF9201026
:10395000BDF91C0001EBD1716E22A2EB610100EBFD
:10396000D0700AB2A6EB600001B2544B514801F08E
:103970009BFE012006F05AFA4FF4FA69484603F01C
:1039800071FC002006F052FA4A4802F05AFB4948FE
:10399000E838C168E83002F043FD4949454802F083
:1039A00096FB002247A1434801F003FD00EBD070D5
:1039B000A6EB600001B243A350223E48009502F0FE
:1039C0006EFB002243A13B4801F0F3FC00EBD070FA
:1039D000A6EB600001B23FA378223648009502F0C2
:1039E0005EFB4049334802F072FBFF231A4619463A
:1039F00006A802F051FE0188ADF8001080788DF81D
:103A000002002C48009902F00BFD37A338A239A11F
:103A100001A8FCF73BFC002201A9264801F0C9FCE3
:103A200000EBD070A6EB600001B201ABB9222148D7
:103A3000009502F034FB012006F0F8F9484603F047
:103A400011FC002006F0F2F9E5626564787901283E
:103A500002D103F05BFD387303F0AEFDA07010F1EE
:103A60007F0F0CD07F2811D0302815DD002000F00A
:103A70004DFFE5700320A0710BB0BDE8F08300207E
:103A800000F044FFE57084F80680F5E7002000F0C0
:103A90003DFFE5700220EEE710F11A0F4FF0000035
:103AA00004DA00F033FFE5700420E4E7FEF782F962
:103AB000E2E70000580500200800002078FF000819
:103AC00093B401084555524F54454348204D455441
:103AD000414C000050414E454C2048454154455210
:103AE000000000000ABC010831322E352E350000DE
:103AF000562E200025732573000000002DE9F043A9
:103B0000764C8DB076A10BA8E268FCF7BFFB74A1E0
:103B10000CA82269FCF7BAFB73A108A86269FCF73C
:103B2000B5FB7349A4F5927002F0D1FAA4F5927036
:103B300001F0E7FCC0F178000FFA80F9002208A933
:103B4000A4F5927001F035FC0023C7B21A4619465D
:103B500007A802F0A1FDFF2304461A4619460AA849
:103B600002F09AFD012606962188ADF81410A1787E
:103B70008DF816100188ADF810105E4D80788DF824
:103B80001200E86A0024007E00287DD0002008A9E9
:103B90000091CDE901043C2307F1140249460F20AE
:103BA0000394FEF73FFF00220CA9534801F001FCEB
:103BB0000023C7B21A4619460AA802F06DFDFF237A
:103BC00080461A46194607A802F066FD0696B8F820
:103BD0000020ADF8142098F802108DF81610018816
:103BE000ADF8101080788DF81200E86A007E012888
:103BF00000D000200CA90091CDE9010407F11402C6
:103C00003C239046494696200394FEF70BFF002282
:103C10000BA9394801F0CDFB00231A4619460AA822
:103C200002F03AFDFF2307461A46194607A802F09C
:103C300033FD06963988ADF81410B9788DF8161052
:103C40000188ADF8101080788DF81200E86A007EC7
:103C500002283CD000200BA90091CDE901043C23AF
:103C600042464946E6200394FEF7DCFEFF231A464F
:103C7000194607A802F010FD0188ADF80010807801
:103C80008DF802001C4800E01FE0009902F0C8FB1C
:103C900000231A46194607A802F0FEFC0188ADF879
:103CA000001080788DF802001348009901F0F2FBB3
:103CB000E86A90F9180060B101280CD00FA000BF8D
:103CC000FEF7CCFD0DB0BDE8F08301205FE70120D9
:103CD000C1E70CA0F4E70EA0F2E700007C0600208C
:103CE00025303264000000002530346400000000FC
:103CF000A98201080800002058050020536574209F
:103D00006461790053657420796561720000000078
:103D1000536574206D6F6E74680000002DE9F04FDC
:103D20008DB0A549A54802F0D2F9A44801F0E9FBFD
:103D3000DFF88CA2C0F1780005B2DAF82C0000247C
:103D4000012701689F484FF0A00B0DF11C092029A5
:103D50007DD0804682689CA14846FCF797FA0022F5
:103D600007A9964801F025FB0023C6B21A4619465A
:103D70000AA802F091FCFF2300901A4619460BA8EE
:103D800002F08AFC009906970A88ADF81420897819
:103D90008DF816100188ADF8101080788DF812009B
:103DA000DAF82C00007E00287DD00021CDF80090AC
:103DB000CDE901145720A0EB56003C2346222946AA
:103DC0000394FEF72FFE80A107A8D8F80420FCF783
:103DD0005DFA002207A9794801F0EBFA0023C6B288
:103DE0001A4619460BA802F057FCFF2300901A460A
:103DF00019460AA802F050FC00990697B8460A88AE
:103E0000ADF8142089788DF816100188ADF81010DF
:103E100080788DF81200DAF82C005746007E0128D1
:103E20007DD00021CDF80090CDE90114CB20A0EB8E
:103E300056003C23462229460394FEF7F3FDFF2358
:103E40001A4619460AA802F027FC018800E056E04D
:103E5000ADF8001080788DF802005848009902F003
:103E6000DFFA00231A4619460AA802F015FC018859
:103E7000ADF8001080788DF802005048009901F0EC
:103E800009FB00231A4619460BA802F005FCFF2384
:103E900006461A4619460AA802F0FEFB8146002291
:103EA0004BA1464800E082E001F083FACDF818808B
:103EB0003188ADF81410B1788DF81610B9F80020DB
:103EC000ADF8102099F802108DF8121040A1CDE93C
:103ED000001400EBD071ABEB6100029400B2372309
:103EE000042229460394FEF79DFDF86A007E00280F
:103EF0005BD038A0FEF7B2FC0DB0BDE8F08F826851
:103F000031A14846FCF7C2F9002207A92B4801F06D
:103F100050FA0023C6B21A4619460AA800E048E043
:103F200002F0BAFBFF2380461A4619460BA802F09E
:103F3000B3FB0697B8F80020ADF81420014698F8B6
:103F400002008DF816000888ADF8100088788DF80A
:103F50001200CDF80090CDE90174ABEB56003C2384
:103F6000462229460394FEF75DFDFF231A461946B3
:103F70000AA802F091FB0188ADF8001080788DF856
:103F800002000E48009902F04BFA00231A46194627
:103F90000AA802F081FB0188ADF8001080788DF846
:103FA00002000648009901F075FA0DA0A2E7012170
:103FB000FCE6012136E70000A9820108580500202F
:103FC000080000207C06002025303264000000003C
:103FD0003A000000536574206D696E7574650000C9
:103FE00053657420686F7572000000002DE9F04F72
:103FF000834689B03449354802F069F8334F4D376C
:10400000002606EB4600002500EB0611412006EBDA
:10401000460A00EB410800BF05EB4501132000EB09
:10402000011905EB4A04224629A107A8FCF72EF93D
:10403000385D032801D9012038555C4508D0254852
:10404000C06A90F91800A04202D0BBF1FF3F30D106
:1040500000231A46194608A802F01EFB012106910A
:10406000395D1A4B01EB4102D93B1A441388ADF874
:10407000143092788DF816200288ADF810208078E0
:104080008DF812001348C06A90F91800A04219D0A8
:10409000032917D00021002007AACDE90020CDE98F
:1040A000020120232A220FFA88F10FFA89F0FEF785
:1040B000B9FC6D1C062DAFDB761C042EA1DB09B00C
:1040C000BDE8F08F0221E6E70ABC01085805002090
:1040D000256400000800002010B5084B65220C2163
:1040E000074801F0E1FA054BBDE810404633652270
:1040F0004FF48F71024801F0D7BA0000651401082F
:104100005805002070B5244C0246D3B2A07EFF288B
:1041100000D1A376607A814208D1A07E904205DD6D
:10412000A07A617B884201D0401CA0721B48E57ACE
:104130000179491B0025914217DB017B022914D02C
:10414000A17E914211DDA572FF21A1764573022166
:104150000173012121744571FEF772FE00F57A703A
:1041600060630020FDF726FE12E0A07E90420BDA8D
:1041700003F00CFAE17A401A904205DBA07A617BE9
:10418000884201D0A376A572A07A617B884201D1D2
:10419000012070BD002070BD0800002090050020A7
:1041A0001FB54FF4E16004F0B9FE154C204606F04F
:1041B0004DF8684606F0F5F844F61F00ADF800002B
:1041C0000021ADF8041040F2E730ADF80210029083
:1041D000ADF806106946204606F078F80121204621
:1041E00006F0C8F80121204606F0C0F8204606F087
:1041F00067F800221146132004F05EF91FBD00008D
:104200000020004030B5224D89B0284606F01EF847
:104210005320ADF8100000244FF4FA60ADF81440BC
:104220000690ADF81240ADF816408DF81C4004A978
:10423000284606F04BF801200090ADF80440ADF898
:104240000840ADF80640ADF80A40ADF80C406A46AB
:104250000021284605F0A6FE00221146284605F05A
:10426000BEFF60220021284605F092FF0022114681
:10427000284605F0C3FF0121284606F088F82846A5
:1042800005F08AFE284606F01BF809B030BD000094
:104290000048014030B54FF0804589B0284605F010
:1042A000D5FF5320ADF8100000244FF4FA70ADF89C
:1042B00014400690ADF81240ADF816408DF81C4041
:1042C00004A9284606F002F801200090ADF8044049
:1042D000ADF80840ADF80640ADF80A40ADF80C4026
:1042E0006A460021284605F05DFE00221146284658
:1042F00005F075FF60220021284605F049FF0822DD
:104300000021284605F07AFF0121284606F03FF8F3
:10431000284605F041FE284605F0D2FF09B030BD21
:104320002DE9F0414B4F384603F0FFFA7D1501228D
:104330004FF090442B461146204603F002FA2B46DC
:1043400003220021204603F023FAA5616E0001221A
:1043500033461146204603F0F4F933460322002188
:10436000204603F015FAA66100E000BF294620466A
:1043700003F009FA0128F8D100E000BF29462046E1
:1043800003F001FA0128F8D1A56200E000BF294638
:10439000204603F0F8F90028F8D1A66200E000BF3B
:1043A0003146204603F0EFF90028F8D1A66100E07D
:1043B00000BF3146204603F0E6F90128F8D1A56197
:1043C00000E000BF2946204603F0DDF90128F8D1BE
:1043D0002A460421204603F07DF932460421204676
:1043E00003F078F92B4600220221204603F0A9F9B8
:1043F0002B4603220121204603F0CAF9334600224E
:104400000221204603F09DF9334603220121204674
:1044100003F0BEF94FF40041384603F0C0FA00BF84
:104420000021384603F0BBFA00BF384603F082FA99
:104430004FF480420849384603F0F6F90022812300
:104440001146384603F0A0FA3846BDE8F04103F0C3
:1044500071BA000000540040801A06002DE9FE4F9A
:104460008346FEF7EDFC884C00250C266063E16A6C
:1044700054274FF078080B684FF09E09A3F580721F
:104480004FF4FA6A04F154009B3A07D1CA69D2F892
:104490001CC09CF818C0BCF1040F03D0B3F5CE7F4C
:1044A00057D05BE0C26178489430E062C26100207E
:1044B00005F0BCFC754801F0C4FDFF231A461946FF
:1044C00002A802F0E9F80188ADF8001080788DF8B4
:1044D00002006E48009901F0A3FFCDE900765C234D
:1044E0004E227221694801F011F86949674801F0CC
:1044F000EEFD00231A46194602A802F0CDF8018805
:10450000ADF8001080788DF802006048009901F045
:1045100087FFFF231A46194602A802F0BDF801885A
:10452000ADF8001080788DF802005848009900F02E
:10453000B1FF002257A1554800F03BFF0646534803
:1045400000F0DFFF00EBD072A8EB620002B2009532
:1045500060E0CA69D3691B7E042B05D0C969C161BB
:10456000BBF1020F7ED089E0C2614B48E062E16C92
:10457000C161002005F05AFC444801F062FDFF23B0
:104580001A46194602A802F087F80188ADF8001013
:1045900080788DF802003D48009901F041FFCDE997
:1045A00000765C234E227221384800F0AFFF384974
:1045B000364801F08CFD00231A46194602A802F085
:1045C0006BF80188ADF8001080788DF802002F4854
:1045D000009901F025FFFF231A46194602A802F0B0
:1045E0005BF80188ADF8001080788DF8020027484C
:1045F000009900F04FFF002226A1244800F0D9FEC8
:104600000646224800F07DFF00EBD072A8EB620165
:104610000AB2009506EBD671A9EB610001B21DA3A9
:104620001A4801F03CFDFF231A46194602A802F081
:1046300033F80188ADF8001080788DF80200134837
:10464000009901F0EDFE00231A46194602A802F077
:1046500023F80188ADF8001080788DF802000B482F
:10466000009900E008E000F015FF012005F0DEFBF6
:10467000504602F0F7FD02E0C969C161E062FEF751
:10468000DFFB2063BDE8FE8F0800002058050020F6
:10469000A98201084F4B00007C0200200A4810B597
:1046A000C07900280FD0094CA5220021204605F032
:1046B00096FD142002F0D6FD20460022BDE81040F1
:1046C000114605F08CBD10BD90050020004801404A
:1046D0007CB5314CE56A686918B102B0BDE870403C
:1046E0000047A86848B1A98839B195F9181000EBBE
:1046F00041100021C561E0620176E06A00680B2884
:1047000003D00C2801D00D2817D100231A461946D2
:1047100001A801F0C1FF0188ADF8001080788DF884
:1047200002001E48009901F07BFEC8200346462285
:1047300000901146194800F094FEE06A00680528D0
:1047400016D11648CC3805F063FA144ACC3A1078E2
:1047500002F068FD13280BD8507802F063FD0C2896
:1047600006D2E06A0C49C069B431E162E064C86114
:10477000A86810B1E06A806858B1FCF76BFB0020B4
:1047800005F054FBFDF704FDBDE87C40012005F079
:104790004DBBFEF71FFCF2E7080000205805002083
:1047A000810705D1642190FBF1F201FB120141B9AF
:1047B0004FF4C87190FBF1F201FB120008B1002028
:1047C00070470120704700001FB500231A461946A4
:1047D000684601F061FF0188ADF80C1080788DF813
:1047E0000E002648039900F055FEFF231A4619468D
:1047F000684601F051FF0188ADF80C1080788DF803
:104800000E001E48039901F00BFE1C4801F019FC34
:104810001B4B02AA01A9194801F0B4F898B9BDF9D7
:104820000810782201EBD171BDF90400A2EB6101FF
:104830000AB200EBD070A021A1EB600001B2104BD6
:104840000E4800F031FF012005F0F0FA4FF4FA6055
:1048500002F008FD09483830007800284FF00000C9
:1048600002D0FDF7A7FA1FBD05F0E0FA034801F0FA
:10487000E8FB024801F040FF1FBD00005805002082
:10488000B940010810B50F4CE16A086910B1BDE8E4
:10489000104000478888002813D0002005F0C6FA91
:1048A000E06A017E491C49B201768288914201DBAF
:1048B00000210176FDF76CFCBDE81040012005F0F9
:1048C000B5BA10BD0800002010B50F4CE06AC168F1
:1048D00011B1BDE8104008478088002813D000209F
:1048E00005F0A4FAE06A017E491E49B2017600296A
:1048F00002DA0179491E0176FDF74AFCBDE8104055
:10490000012005F093BA10BD080000202DE9F04108
:10491000040001D5002402E0142C00DD1424184DFD
:104920001848E7B22F70417ADFF85C8016482026DD
:1049300008F1280859B1202102F0FEFE20B1C8F884
:104940000060642002F08EFC6F70BDE8F0810A2CDC
:1049500009DD0D4818300660642002F083FCEC206D
:1049600000EB440009E0202102F0E6FE20B1C8F887
:104970000060642002F076FC60006870E5E70000EB
:1049800008000020900500200004004870B50C4D80
:1049900001202870FEF79AFF0A4C0020E071FEF714
:1049A00057FAFEF74DFA6063FEF74AFAE063A87A19
:1049B000002804D1BDE870400A20FFF7A7BF70BDF2
:1049C000900500200800002010B5002005F02EFA08
:1049D0000648A0F51D71C86200210176FDF7D8FBDD
:1049E000BDE81040012005F021BA00007C02002043
:1049F00070B502F061FD342002F012FD104D284622
:104A000002F01CFD342002F00BFD0E4C4FF0FF3283
:104A1000E8212046FEF794FE21463B26C1F8E80037
:104A200005E02168284602F057FD241D2D1D761E45
:104A3000F7D2342002F0F4FCBDE8704002F0F6BC7E
:104A400000F801089005002070B5124E0025124CA8
:104A500086F8D550B6F8D600A0832846FFF756FF53
:104A600035700120A074A572FF20A0762574E5732F
:104A7000002005F0DBF9A6F1380001F03DFEA6F1BB
:104A8000380001F0DEFA03F035FEFEF7D9F9606375
:104A900070BD0000900500200800002010B588B00F
:104AA00000204FF48271CDE9001002904FF40071A4
:104AB00005900690CDE90310064C6946204605F0A6
:104AC000F8F90021204605F0E5F9204605F0ECF95B
:104AD00008B010BD0038004070B5002211461C20FF
:104AE00003F0EAFC1C4C204605F09CFC002120460B
:104AF00005F0FDFC0021204605F040FD0021204688
:104B000005F009FD0421204605F0FDFC08212046A2
:104B100005F00DFD4021204605F09CFC4FF4165198
:104B2000204605F049FC204605F09CFC40F2067545
:104B30002946204605F09BFC0028F9D00521204697
:104B400005F0A0FC0421204605F09CFCBDE8704067
:104B5000642002F087BB0000004400401FB5002322
:104B60001A461946684601F097FD0188ADF80C1009
:104B700080788DF80E002648039900F08BFCFF2307
:104B80001A461946684601F087FD0188ADF80C10F9
:104B900080788DF80E001E48039901F041FC1C48F6
:104BA00001F04FFA1B4B02AA01A9194800F0EAFED6
:104BB00098B9BDF90810782201EBD171BDF9040054
:104BC000A2EB61010AB200EBD070A021A1EB600062
:104BD00001B2104B0E4800F067FD012005F026F9E8
:104BE0004FF4FA6002F03EFB0948383000780028A4
:104BF0004FF0000002D0FDF7DDF81FBD05F016F9FB
:104C0000034801F01EFA024801F076FD1FBD0000C6
:104C100058050020534601082DE9FF4F80460069E2
:104C20009BB000287CD082781792022A01D0012AFA
:104C300076D1D8F814200792002216926FF0630202
:104C40000C92C0780D9002910020CFE21E98435C38
:104C5000002009901890D8F810000524611C425CCF
:104C6000015D02EB012111F0FF0129D0E21C855CFE
:104C7000A21C9942825C05EB02220FFA82F97CD1D8
:104C8000B9F1080F1CDB01211891211D04F1050B5E
:104C9000435C099310F80B10E71D01F07F020492AA
:104CA000A21D0025825C0A92C05D049A00F07F0A72
:104CB0009A1A1798A2EB0A06022802D0012871D08E
:104CC0006FE2C8096FD00A9A0D99A9F10800891AF4
:104CD0000026A1EB0A070E96119096E0D8F8100076
:104CE00001190E980830085C95FBF7F10FFA81FB6B
:104CF00010F0C00F58D000F03F0A05EB0A010DB2CA
:104D0000B14606EB0A010EB2000678D5289840B1EC
:104D1000404698F8193098F8182098F8171007E0CE
:104D200077E20798C0F30743C0F30722C1B24046B9
:104D300001F07EFB1D990A98084410903844401EEB
:104D400000B219900299049808440B9018E0109949
:104D5000199B01EB090002B20B98584401B240467E
:104D600001F0A5F9A7EB0901AAEB01000FFA80FAFF
:104D70004FF000090BF1010000E046E20FFA80FB62
:104D800009EB0A00B842E2DC1098484400EB0A0143
:104D900002B20B98491E0BB2584401B2404601F0D2
:104DA00086F92CE0D5E036E0289949B1404698F8DC
:104DB000193098F8182098F8171001F039FB09E01D
:104DC0008006020E4046079900F0BEFA01464046B2
:104DD00001F026FB1D990A980844304402B2049958
:104DE0000298014401EB0B0001B2404601F038FB90
:104DF0006D1C761C2DB236B201E0F01B06B2BE422D
:104E0000FBDA0E98401C00B20E900E991198814268
:104E1000FFF664AFC5E10027A9F1080011900E97D5
:104E2000384691E0D8F8100001190E980830085C57
:104E300095FBF6F10FFA81FB10F0C00F53D000F094
:104E40003F0A05EB0A010DB2B94607EB0A010FB2A2
:104E5000000673D5289838B1404698F8193098F86C
:104E6000182098F8171006E00798C0F30743C0F31E
:104E70000722C1B2404601F0DBFA049902980844C7
:104E800010903044401E00B219900A991D980844B1
:104E90000B9016E00B981099584402B201EB0900F0
:104EA00001B24046199B01F0EAF8A6EB0901AAEB12
:104EB00001000FFA80FA0BF101004FF000090FFA20
:104EC00080FB09EB0A00B042E4DC1098484400EB98
:104ED0000A01491E0BB20B9959440AB201B240466D
:104EE00001F0CDF82AE0289949B1404698F81930E8
:104EF00098F8182098F8171001F09AFA09E080063F
:104F0000020E4046079900F01FFA0146404601F0A4
:104F100087FA1D990A98014401EB0B0002B202992D
:104F200004980844384401B2404601F099FA6D1CD7
:104F30007F1C2DB23FB201E0B81B07B2B742FBDACB
:104F40000E98401C00B20E9011998842FFF66AAF8D
:104F500027E1289840B1404698F8193098F8182071
:104F600098F8171001F064FAD8F81000C15DC9096B
:104F70007ED010F80B00C00962D00A9A0D99A9F1F1
:104F80000800891A00261190A1EB0A070E963046F8
:104F900052E000BFD8F8100001190E980830085CE4
:104FA00000F07F09C00939D095FBF7F00FFA80FBBC
:104FB00002990498B246084410900A991D98084432
:104FC0000B901BE0384403B20B981099504402B286
:104FD00001EB0B0001B2404601F069F8A7EB0A00B3
:104FE000A9EB00010FFA81F92918304406B20BF140
:104FF00001000DB24FF0000A0FFA80FB0AEB090026
:10500000B8420B98DEDC504400EB090102B2109864
:105010000BB2584401B2404601F049F805EB0900D3
:1050200005B206EB090000E0F01B06B2BE42FBDA57
:105030000E98401C00B20E9011998842AADBB0E095
:105040000027A9F108000E97109055E0D8F810003D
:10505000BA4601190E980830085C95FBF6F100F08D
:105060007F09C0090FFA81FB38D00299049800E04B
:1050700047E008440B900A991D980844CDF8440075
:105080000AEB0900B0421CDD0B98304403B21198C2
:10509000584402B20B98504401B2404600F0EFFF72
:1050A000A6EB0A00A9EB00010FFA81F92918384490
:1050B00007B20BF101000DB24FF0000A0FFA80FBAE
:1050C000DEE70B9901EB0A0000EB09010BB2119925
:1050D00059440AB201B2404600F0D1FF05EB090085
:1050E00005B207EB090000E0B81B07B2B742FBDAD4
:1050F0000E98401C00B20E900E9910988142A5DBCC
:105100004FE00027A9F108000597BB460F9045E046
:10511000D8F8100001190BF10800085C0E9001E0AE
:10512000B81B07B2B742FBDA0598B94690FBF6F018
:105130000FFA80FA5FF0000509EB0500B04205D1D7
:105140000AF10100C5F100090FFA80FAC5F1070163
:10515000012088400E9900B2014211D10A991D9890
:10516000014401EB0A00411C0BB202B204990298FF
:10517000014401EB0900284401B2404600F097FFCA
:105180006D1CEDB2082DD7D30BF101000FFA80FB97
:105190000598083000B208373FB205900F998B454B
:1051A000B6DB299880B1169940566FF063018842AA
:1051B0000ADD0C90169A2998104490F90100884253
:1051C00002DD501C00B21690189860B1029909983F
:1051D000084400B202900C9810F1640F03DD0299AC
:1051E000084400B202901598401C00B215901E9819
:1051F000FBF788F9159988423FF628AD07991FB04B
:105200004046BDE8F04F01F00BB904EB09010CB2C8
:1052100024E51FB0BDE8F08F2DE9F34705462DEDDD
:10522000020B2DED068BB0EE408AF0EE608A88B05E
:105230009FED410B9FED429B9DF8469053EC102B48
:1052400051EC180B05F034FD09D2BDF8440040EADA
:10525000094008B0BDEC068B04B0BDE8F08753EC04
:10526000192B51EC180B05F05DFE03D2B0EE498A04
:10527000F0EE698A287D05F007FD53EC182B05F048
:1052800053FD41EC1A0B53EC182B51EC190B05F0A4
:105290004BFF8846044648EC190B9DF8440005F086
:1052A000F3FC53EC192B05F03FFD53EC1A2B05F0E2
:1052B0002FFA05F075FC0646687D05F0E5FC53EC19
:1052C000182B05F031FD41EC1A0B48EC194B9DF8F9
:1052D000450005F0D9FC53EC192B05F025FD53ECE6
:1052E0001A2B05F015FA05F05BFC0746A87D05F0C2
:1052F000CBFC53EC182B05F017FD41EC180B48ECD8
:10530000194B484605F0C0FC53EC192B05F00CFD79
:1053100053EC182B05F0FCF905F042FCC3B2FAB2CD
:10532000F1B205A801F0B8F90188ADF80010827853
:1053300041EA02408DE7000000000000000000008C
:10534000000000000000F03F7FB5CCB2C2F1FF03C7
:1053500014FB03F4C57D15FB0245C1F3072414FBC0
:1053600003F4067E16FB0244C1F3074111FB03F16F
:10537000407E10FB0213C82295FBF2F094FBF2F181
:1053800093FBF2F2FF2800DDFF20FF2900DDFF2163
:10539000FF2A00DDFF22D3B2CAB2C1B203A801F0D6
:1053A0007BF90188ADF80010827804B041EA024030
:1053B00070BD2DE9F74F0646006900284FD04FF029
:1053C00000096FF0630B4D464C4642E001984FF0E8
:1053D000000A534610F804C0306905214A1C475C96
:1053E000825C02EB072212F0FF0212D0CF1C10F8F1
:1053F00007808F1C6245C75D08EB07273FB205D1C8
:10540000082F06DB01230A1D10F802A0394409B257
:10541000E4E7029888B110F909006FF0630188424F
:105420000BDD029A834602EB090090F901008842E5
:1054300003DD09F101000FFA80F943B105EB0A0021
:1054400005B21BF1640F02DD05EB0B0005B2641C15
:1054500024B20198FBF756F8A042B7D82846BDE819
:10546000FE8F2DE9FC411E46054613460C461430BE
:10547000089F01F006F90146D819A219401E521ED4
:1054800000B212B2CDE900202246284600F023FDEA
:10549000BDE8FC8103B5BDF80410A0F817109DF815
:1054A000061041760CBD10B5417300240473B0F9A9
:1054B0000630B0F90420012907D002290AD00329B7
:1054C00003D002814381447310BD038142810121D5
:1054D000017310BD0281438110BD704713B50346AF
:1054E00001A801F0CEF81968C2B28C68C0F3072198
:1054F0001846A0471CBD0368CAB2C1F307219B68C8
:1055000018470069002800D0C07870472DE9FF4F88
:1055100087B01E46DDE914749246012C07DA009725
:10552000DDE90701FFF79DFF0BB0BDE8F08FB4EB9D
:10553000670F00DD7C10B4EB660F00DD7410079878
:1055400090F82910781E0FFA80F9701E0FFA80F873
:1055500059B10121CDE90241CDE9009407984346B4
:105560000068C569DDE90701A847A6EB440003B25E
:105570000AEB0700001B02B208989B46204405B2C4
:10558000009429460798FFF76CFFA7EB440000B290
:1055900000900AEB040007B2DDE9070133463A4602
:1055A000FFF75FFF5B462946524600940798FFF7D6
:1055B00058FFA8EB440000B20490A9EB440000B2ED
:1055C0000390C4F101000FFA80F86000404200B27D
:1055D0004FF0010A0026029063E000BFB8F1000F0F
:1055E00008DB641E029824B2801C00B20290404482
:1055F0000FFA80F80AF102000FFA80FA08EB0A00AD
:105600000FFA80F80498761C05EB000B36B20BEB12
:10561000060003B2381B02B20FFA8BF189460092E2
:10562000079800F02CFDA81B01B2009A2B460591AB
:10563000079800F024FD0BEB040003B2B81B02B284
:10564000934649460093079800F019FD281B01B2C4
:105650005A462B460191079800F011FD0498A919AC
:10566000084403B203983919084402B293464946E4
:10567000079800F004FD0398B919084402B2009B92
:1056800049460092079800F0FAFC5A462B460599C5
:10569000079800F0F4FCDDE900212B46079800F0A4
:1056A000EEFCA6429ADB3FE72DE9FF4F95B01D00C7
:1056B000934607D028785A2807D06FF0010019B018
:1056C000BDE8F08F4FF0FF30F9E768780104A87863
:1056D00001EB0020E97808445FEA000A02D56FF088
:1056E0000200ECE728790104687901EB0020A97930
:1056F00040180B9001D540B2E1E7EE79FF2E02D3BE
:105700006FF00400DBE7687A297A00EB012000B231
:105710005FEA000802D56FF00500D0E7E87AA97AC1
:1057200000EB012007B2002F02DA6FF00600C6E797
:10573000304601F09EFA002403900994012006945B
:10574000CDE90F041598407B20B14FEA880001F0A5
:1057500090FA81468A494FF4006008601598407BB2
:10576000C0B1CDF840B060210AF10C000C95CDE934
:105770000D010CA801F037FAE8B10CA801F01BFAF2
:10578000401EC0B20A900CA801F015FA401E00F0AD
:10579000FF0AC7E00BEB0700401E00B2169900900D
:1057A00001EB0800401E03B215985A4600680768CE
:1057B0001598B847D7E708210CA801F023FA074647
:1057C0000F9810B10020119733E011984FF6FF7138
:1057D00001EA002015993843497BB9B3069A49F884
:1057E00022000698401C0690404521D1109802B234
:1057F000169800924044401E03B215980068056850
:10580000DDE91501A8471098401C10901598407BC1
:10581000012821D0B8F1010508D400BF39F82500CE
:1058200001B21598FFF767FE6D1EF7D500200690B0
:1058300001200F900998401C099003980755641C9B
:1058400024B2B44201DBA01B04B287E0FFE701B23F
:105850001598FFF750FEEBE7002506E039F8250024
:1058600001B21598FFF747FE6D1C4545F6DBDDE7F5
:105870000A98201A00E0A81905B2002DFBDB01E010
:10588000A81B05B2B542FBDAA34603E0ABEB06006A
:105890000FFA80FBB345F9DA0998641C401C0990A3
:1058A0000F9824B220B10398405D1190002034E09D
:1058B00011984FF6FF7101EA00210398405D0843FB
:1058C0001599497BA1B3069A49F822000698401C15
:1058D0000690404520D1109802B21698009240449C
:1058E000401E03B2159800680768DDE91501B84746
:1058F0001098401C10901598407B01281ED0B8F1DC
:10590000010707D439F8270001B21598FFF7F3FD16
:105910007F1EF7D50020069001200F900398425D6E
:1059200000F80B20BAF1010000F0FF0AA0D213E04A
:10593000FFE701B21598FFF7DEFDEDE7002706E06F
:1059400039F8270001B21598FFF7D5FD7F1C4745B0
:10595000F6DBDFE7A01B04B2B442FBDA0B9909982F
:1059600088427FF706AF06494FF40060103908609F
:10597000039801F076F9484601F073F900209EE69D
:105980002804004810B52BB118785A2805D06FF0BC
:10599000010010BD4FF0FF3010BD58789C78000416
:1059A00000EB0420DC78E04202D56FF0020010BD6D
:1059B00018795C79000400EB04209C79001901D56A
:1059C00040B210BDD879FF2802D36FF0040010BD9B
:1059D000587A1C7A00EB042000B20880002802DA12
:1059E0006FF0050010BDD87A997A00EB012000B263
:1059F0001080002802DA6FF0060010BD002010BDF4
:105A00002DE9FF4F14462DED0E8B8BB0DDE927B845
:105A10005FEA0B007ED45FEA08007BD404EB080049
:105A200000B25FEA0B0102907ED01A9A5FEA080189
:105A300002EB0B0000B281466ED00BFB0BFA4FEA73
:105A40004A0008FB08F106904800CDE90410500018
:105A500000B20190600000B200900AEB010005F076
:105A6000FCF841EC100B01F0DBF9B0EE40BAF0EEBF
:105A700060BA9FEDFE0B51EC1B0B53EC102B05F0A5
:105A800053F99FEDFCEB53EC1E2B04F041FE05F0A7
:105A900087F8401C01B25046079105F0DEF853EC40
:105AA0001B2B04F0E9FE53EC1E2B04F031FE05F035
:105AB00077F807990027084408900AFB08F040008F
:105AC00046421C991A983D4608440390A0EB0B00EF
:105AD00003B226989B46204402B209904946199881
