:020000040800F2
:10000000382300204D020008C5340008853300085D
:100010005534000805140008A13A0008000000004B
:100020000000000000000000000000005D37000834
:10003000D115000800000000093500085F370008EE
:100040006702000867020008893600086702000896
:1000500067020008670200086702000867020008DC
:1000600067020008670200086702000867020008CC
:1000700067020008670200086702000867020008BC
:10008000670200086702000800000000C538000889
:10009000670200086702000867020008670200089C
:1000A000670200086702000867020008670200088C
:1000B000413A00080000000067020008000000004C
:1000C000670200080000000067020008000000004E
:1000D0000000000000000000000000000000000020
:1000E000000000000000000067020008000000009F
:1000F0000000000000000000000000000000000000
:10010000670200080000000000000000000000007E
:1001100000000000000000000000000000000000DF
:1001200000000000000000000000000000000000CF
:1001300000000000000000000000000000000000BF
:10014000000000000000000000000000670200083E
:1001500000F002F800F06AF80AA090E8000C82446F
:100160008344AAF10107DA4501D100F05FF8AFF24C
:10017000090EBAE80F0013F0010F18BFFB1A43F085
:100180000103184748EF010068EF01000A444FF0EF
:10019000000C10F8013B13F0070408BF10F8014BE6
:1001A0001D1108BF10F8015B641E05D010F8016B2B
:1001B000641E01F8016BF9D113F0080F1EBF10F88F
:1001C000014BAD1C0C1B09D16D1E58BF01F801CBB2
:1001D000FAD505E014F8016B01F8016B6D1EF9D535
:1001E0009142D6D37047000000230024002500264A
:1001F000103A28BF78C1FBD8520728BF30C148BF8A
:100200000B607047642900F0A580732900F08D838E
:10021000002070471FB50BF000FC9DE8030000F0C4
:100220001DFD00F0DDFA1FBD10B510BD00F0D0FCC3
:100230001146FFF7EFFF08F00BFC00F045FD03B49B
:10024000FFF7F2FF03BC00F071FD00000948804792
:1002500009480047FEE7FEE7FEE7FEE7FEE7FEE7A8
:10026000FEE7FEE7FEE7FEE704480549054A064BC0
:10027000704700006D370008510100083809002060
:1002800038230020381F0020381F00200FB41CB571
:10029000074B06AA7B4469460090059800F01BFBBB
:1002A0000020694600F02AFB1CBC5DF814FB00002E
:1002B0006506000070B5044685690068C10601D571
:1002C000302600E02026C00707D070BDD4E9012108
:1002D00030469047206A401C20626D1EF6D570BDE6
:1002E00070B5044685690078C00707D170BDD4E9B0
:1002F000012120209047206A401C20626D1EF6D507
:1003000070BD70B50C460546012A05D028788006D8
:1003100000D5EA69002302E0012305E05B1C93425B
:1003200002D2E05C0028F9D1A869E618C01AA861D9
:10033000286A184428622846FFF7BCFF04E0D5E984
:10034000012114F8010B9047B442F8D32846FFF777
:10035000C7FF70BD2DE9F0410646002410687529DD
:10036000314616A510D0AFF30080002802DA4042D3
:1003700013A507E031688A0701D512A502E04907F5
:1003800004D511A5012401E0AFF3008000210A2269
:1003900006F1240709E0B0FBF2FCB0FBF2F302FB2C
:1003A0001C00303078541846491C0028F3D12346ED
:1003B0002A463046BDE8F04100F02FBA00000000A8
:1003C0002D0000002B000000200000002DE9F05F50
:1003D000894604464FF0000ADFF824B1FB44C0F818
:1003E00020A02046E168884700287DD0252806D037
:1003F000D4E901219047206A401C2062F1E70025E2
:100400005F462046E16888472028064607DB312EF4
:1004100005D2B81910F8200C08B10543F1E7A80778
:1004200001D525F00405C4F81CA00027C4F818A0C5
:100430002A2E09D0304607F0D1F838B304EB8708EC
:10044000303EC8F8186019E059F8041B204604EB48
:1004500087029161E1688847012F064618D1E0695B
:10046000002820DA25F020051DE0D8F8180000EB60
:10047000800006EB40003038C8F818002046E168DC
:100480008847064607F0AAF80028EED1012F0AD0C7
:100490002E2E08D12046E16888477F1C0646022F91
:1004A00045F02005C4DBA069002803DA404245F08E
:1004B0000105A061E80701D025F01005A6B1A6F15D
:1004C0004100192802D8203645F400654A463146D5
:1004D000204625604D46FFF795FE60B1012807D004
:1004E000ED1D25F0070000E007E000F1080978E7BE
:1004F00005F1040975E730467AE7206ABDE8F09F08
:10050000FCEB010010B5431C02E010F8011B71B1B7
:100510008107FAD14FF0013202C88C1A8C4314EAD9
:10052000C211F9D0C01A0A0603D0C01E10BDC01AED
:1005300010BD0A0401D0801E10BD0902FCD0401E6F
:1005400010BD032A40F2308010F0030C00F015803B
:1005500011F8013BBCF1020F624498BF11F801CBC6
:1005600000F8013B38BF11F8013BA2F1040298BF2B
:1005700000F801CB38BF00F8013B11F0030300F095
:10058000D881083AC0F0088051F8043B083A51F885
:1005900004CBA0E80810F5E7121D5CBF51F8043B3E
:1005A00040F8043BAFF30080D20724BF11F8013BB1
:1005B00011F801CB48BF11F8012B24BF00F8013B13
:1005C00000F801CB48BF00F8012B704702F0FF0391
:1005D00043EA032242EA024200F002B84FF000026E
:1005E0000429C0F0128010F0030C00F0D681CCF189
:1005F000040CBCF1020F18BF00F8012BA8BF20F8B3
:10060000022BA1EB0C0100F0C8B95FEAC17C24BF4A
:1006100000F8012B00F8012B48BF00F8012B7047B0
:10062000014900F0DFB90000A808002010B50368F8
:100630001C1404EB21449BB289B2194494FBF2F3DD
:1006400002FB134394FBF2F401EB034393FBF2F13F
:1006500002FB113193FBF2F301E05B1E1144002910
:10066000FBDB016003EB044010BDF0B504464FF026
:10067000FF3585B00068049060680290A068039020
:10068000E068019020690090666906F18040B0F151
:10069000004F7CD83C22002104A8FFF7C7FF3C2272
:1006A000014602A8FFF7C2FF1822014603A8FFF780
:1006B000BDFF411E40F2B55201A8FFF7B7FF0C2263
:1006C000074668460021FFF7B1FF414B00EB87006A
:1006D000304400267B4411E0511A01910099491CD5
:1006E0000229009102D00C2908D105E0810705D02C
:1006F0000199491C019101E0401C00960099019A62
:10070000595C9142E8DD0099012906D11C2A04D1E7
:10071000810702D00221CDE90016A0F146018B2904
:100720003CD2DDE90061002202E09F5C521C3944AA
:10073000B242FADB012E02DD820700D0491E40F2F0
:10074000B55340F26D16C21700EB927292105A43E5
:1007500000F0030303FB062283070A4400D1521E64
:10076000039E02EB4203049F06EBC303029EC3EB0E
:10077000031306EB8303174E33441E149BB2C6EBE0
:100780000616C3EB0313B60007EB830300E005E096
:1007900006EB134666F31F43360C02D0284605B01D
:1007A000F0BD80C4029E40C4039E40C4019E761CDE
:1007B00044F80C6B009E44E902600720521C92FB37
:1007C000F0F600FB162084E823001846E7E7000057
:1007D00058E90100A039CEFD70477047704700000E
:1007E00070B5064C7C44064D7D4403E020682044EF
:1007F0008047241DAC42F9D170BD000004E901001E
:1008000008E9010010B500F04DF9006810BD10B501
:10081000044600F047F9046010BD2DE9F0470D468D
:1008200099469246044600F124080168880604D5DA
:10083000E06921F01001216000E00120A84201DD03
:10084000471B00E00027A1697A1902EB0900081A8A
:10085000A0612078C00602D42046FFF72BFD0026B9
:1008600008E0D4E901211AF806009047206A401CEC
:10087000761C20624E45F4DB2078C0060AD520465F
:10088000FFF718FD06E0D4E9012130209047206AE7
:10089000401C2062381EA7F10107F4DC07E0D4E910
:1008A000012118F805009047206A401C2062281E8C
:1008B000A5F10105F3DC2046FFF712FD20780006C4
:1008C00002D50220BDE8F0870120FBE701694A1C40
:1008D00002610878704700B58FB0CDE90131002181
:1008E000059105497944CDE9031011466846FFF7A3
:1008F0006DFD0FB000BD0000E5FFFFFF0A6802F8C4
:10090000010B0A60704710B5436913B1AFF3008063
:1009100001E0FFF7F6FC012010BD127800F1240180
:100920000A7000224A700122EDE711684FF0FF3291
:10093000E9E710B5203AC0F00B80B1E81850203A32
:10094000A0E81850B1E81850A0E81850BFF4F5AF6F
:100950005FEA027C24BFB1E81850A0E8185044BFF9
:1009600018C918C0BDE810405FEA827C24BF51F866
:10097000043B40F8043B08BF7047D20728BF31F85A
:10098000023B48BF11F8012B28BF20F8023B48BFAB
:1009900000F8012B70474FF0000200B51346944653
:1009A0009646203922BFA0E80C50A0E80C50B1F1C7
:1009B0002001BFF4F7AF090728BFA0E80C5048BFDB
:1009C0000CC05DF804EB890028BF40F8042B08BF79
:1009D000704748BF20F8022B11F0804F18BF00F875
:1009E000012B704770B50C46016800204A1C3ED0B0
:1009F0003C22B1FBF2F302FB1313B1FBF2F12360D3
:100A0000B1FBF2F302FB1313B1FBF2F118226360A6
:100A1000B1FBF2F302FB1313B1FBF2F146F2E03249
:100A20000A440721A360B2FBF1F301FB132140F25A
:100A3000B553B2FBF3F5A161B2FBF3F103FB152251
:100A40008900B2F5B77F08D39B10521EB2FBF3F5B5
:100A50002944B2FBF3F503FB15220F4BE261616100
:100A600089077B440CD03B2A0AD3521C08E02C2176
:100A70002046FFF790FF0120E0600AE0521A401C78
:100A8000195C9142FAD9521CC4E903204FF0FF309F
:100A90002062204670BD0000CAE501000048704792
:100AA0000809002000487047D408002070B50646A9
:100AB00000F0B4F8056806F10B0020F00704B4421A
:100AC0009CBF002070BD2B466A68BAB11068A04276
:100AD00010D304F1080188423CBF5068586007D326
:100AE0005168101941601168091B01605860146059
:100AF000101D70BD13465268002AE7D121462846D2
:100B000000F098F80028DED170BD70B50446051FCE
:100B100000F084F80068002C14BF446870BD002CFD
:100B200018BFAC423CBF20466468F8D301680A187D
:100B3000AA4218BF456003D12A68054611440160E6
:100B400028684119A1421CBF6C6070BD6168696072
:100B500021680844286070BDAFF3008010B500F034
:100B60000EF8016919B100220261884701E080682E
:100B7000804700F0B2F8000010B500F0AEF870B594
:100B800000F050F804680546A4B92020FFF78EFF56
:100B9000040011D0094900202C60C4E90001084973
:100BA000A1602073206160610649A06109B100F075
:100BB0009FF8E061204670BD00F08FF80000000053
:100BC000790B00080000000000487047D40800209E
:100BD0007546FFF7F9FFAE4605006946534620F01B
:100BE0000700854618B020B5FFF73EFBBDE8204062
:100BF0004FF000064FF000074FF000084FF0000BD9
:100C000021F00701AC46ACE8C009ACE8C009ACE88B
:100C1000C009ACE8C0098D46704700000048704725
:100C2000DC0800200048704710090020704770471A
:100C30007047704738B504460A4600206946AFF34E
:100C40000080002808BF38BD02460099204600F009
:100C500073F8012038BD012000F08FB8F8B5AFF36C
:100C60000080054600200C46102000BF0646A8194B
:100C7000A0420DD9324669460020AFF3008007003C
:100C800008BF00F07AF80098A04218BF0546C419C2
:100C9000FFF7C4FF05600746F01D20F00700461966
:100CA000284600F00AF8B44208BFF8BDA21B31463E
:100CB0003868BDE8F84000F03FB800210160C0E9A5
:100CC000011070471020704710B50446AFF3008044
:100CD0002046BDE81040FFF7B2BA10B5002000F082
:100CE00045F8FFF7A1FABDE81040012000F01EB85A
:100CF00010B58820FFF7DAFE002801D0002101702E
:100D000010BD802902D808B1017809B100207047D0
:100D1000012100F8081B704718B100F10802914248
:100D200001D0002070470021017070470149182050
:100D3000ABBEFEE726000200034640688C46002852
:100D400018BF88423CBF03464068F8D3186818446F
:100D5000884207D00CF1030020F00700001D411A63
:100D6000521A0146081D0A60FFF7CFBE10B500F009
:100D700011F8BDE8104000F008B810B500F022F8F6
:100D8000BDE8104000F001B87047002801D0FFF71F
:100D9000CDBF704710B5002102A000F03BF8012044
:100DA00010BD0000534947414252543A2041626EFF
:100DB0006F726D616C207465726D696E6174696FBC
:100DC0006E00000010B5012805D0002103A000F03E
:100DD00021F8012010BD09A1F8E70000534947524E
:100DE000544D454D3A204F7574206F6620686561FB
:100DF00070206D656D6F7279000000003A204865C3
:100E00006170206D656D6F727920636F727275709D
:100E10007465640070B505460C460A2000E06D1C40
:100E200000F011F835B128780028F8D102E0641CF0
:100E300000F009F814B120780028F8D1BDE870401E
:100E40000A20AFF3008008B569468DF80000032042
:100E5000ABBE08BD2DE9FE4FFE4DFF4C05F1200352
:100E6000E86AA3F1020A93F900C001689AF8012028
:100E700000264FF00109A4F1EC07342976D028DCD4
:100E8000162974D015DCF34A0D2902F1500292782C
:100E90006ED006DC0B297FD00C2918D1FA70012006
:100EA0008EE00E2974D0152911D1BE7214206872FB
:100EB00085E01F296DD020296CD02B296BD03329D8
:100EC00005D1017E1970E549C861E9620E76BDE879
:100ED000FE8FB1F5FF7F7CD04CDCDE4B40F2A518D5
:100EE00003F11E03A1F2A51C93F90130414571D015
:100EF0001BDCD94FA1F580714FF00C084FF054095D
:100F00004FF0780A4FF09E0B07F12C079B397CD0ED
:100F10000129DCD1017E491C0176384609F096F999
:100F2000E86A007E012871D020E2BCF1010F6ED08A
:100F3000BCF1140FCBD15246002B69D0017E491C65
:100F400049B2017601297DD00229C0D102F0ACFB63
:100F500004F024F8BFF34F8FC1480168C14A01F47F
:100F6000E06111430160BFF34F8FFEE710E221E023
:100F700014E011E0A1F58071FF397DD013297CD0F8
:100F8000B1F5756F8BD0A1F5706151399FD186E7AE
:100F90000EE019E026E040E0BA7080E790F9180012
:100FA0000CEB4C012D23384403EBC101425476E78E
:100FB0003A7174E787F80A90007E401CF8720220AC
:100FC000BDE8FE4F03F020BD87F8D520002ADED013
:100FD00001E0F0E1F8E106F097FD032800D13E734F
:100FE0007E71DAE12189A088C1EB011100EB81005B
:100FF000A7F8D600A883012003F006FD02F0BCF993
:10100000686302F0B9F9286303E008E00AE1E6E169
:10101000E7E1BDE8FE4F02F0B7B9FA713FE7017EA4
:10102000491C01768C482C3009F010F9E86A90F9D7
:101030001800401E02287DD204F10C0007C806F0FB
:10104000BCFF00E0D1E178B32069401E20616069F7
:10105000A0F26C7060618048FFF707FB0090684663
:10106000FFF7DEFA806900B90720F870207D643848
:10107000C0B206F0E9FB01E0A0E194E13870207C09
:10108000401CC0B206F0E0FB7870207B06F0DCFB71
:10109000B87071482C3009F04FF92069401C20616C
:1010A000606900F26C7060616F4805F0C8FAFF2358
:1010B0001A46194602A805F0EDFD0188ADF80010AA
:1010C00080788DF802006848009905F0A7FCCDE90A
:1010D00000985C234E227221634804F015FD634999
:1010E000614805F0F2FA00231A46194602A805F0F5
:1010F000D1FD0188ADF8001080788DF802005A48C3
:10110000009905F08BFCFF231A46194602A805F04A
:10111000C1FD0188ADF8001080788DF802005248BA
:10112000009904F0B5FC002251A14F4804F017FCCF
:10113000804600E03EE04C4804F0E1FC00EBD07259
:10114000AAEB62010AB208EBD871ABEB610001B205
:1011500047A34548009605F0A0FAFF231A46194612
:1011600002A805F097FD0188ADF8001080788DF891
:1011700002003D48009905F051FC00231A4619462B
:1011800002A805F087FD0188ADF8001080788DF881
:1011900002003548009904F07BFC4FF47A7006F0A9
:1011A0005FFB314805F04BFA02F0E6F8686302F0A5
:1011B000E3F82863E86A007E03287FF488AE04F130
:1011C0000C0007C806F0F9FE48B32069401E2061F4
:1011D0006069A0F26C7060611F48FFF746FA0090EA
:1011E0006846FFF71DFA806900B90720F870207D76
:1011F0006438C0B206F028FB3870207C401CC0B2B6
:1012000006F022FB7870207B06F01EFBB8701248B7
:101210002C3009F091F8012003F0F6FB57E6E86A5C
:10122000067654E6207A06F00FFB3871207906F036
:101230000BFB78710848BE712C3009F07DF80A4824
:1012400005F0FDF9FF231A46194602A805F022FD14
:1012500001880FE008000020640600205C010020E7
:101260000CED00E00400FA0540050020729F010823
:101270004F4B0000ADF8001080788DF802005D48FB
:10128000009905F0CBFBCDE900985C234E2272213A
:10129000584804F039FC5849564805F016FA00231E
:1012A0001A46194602A805F0F5FC0188ADF80010B1
:1012B00080788DF802004F48009905F0AFFBFF23BE
:1012C0001A46194602A805F0E5FC0188ADF80010A1
:1012D00080788DF802004748009904F0D9FB00227D
:1012E000AFF27401434804F03AFB8046414804F0F1
:1012F00006FC00EBD072AAEB62010AB208EBD871CF
:10130000ABEB610001B2AFF298033A48009605F0EA
:10131000C4F9FF231A46194602A805F0BBFC018850
:10132000ADF8001080788DF802003248009905F081
:1013300075FB00231A46194602A805F0ABFC01888C
:10134000ADF8001080788DF802002A48009904F06A
:101350009FFB4FF47A7006F083FA264805F06FF988
:1013600002F00AF8686302F007F82863E86A007E72
:1013700002287FF453AF207A06F066FA387120799C
:1013800006F062FA7871BE711C4808F0D5FF86E558
:101390007A7132B1BE7287F8D5606E7101F0F4FFD8
:1013A0007DE53E737BE5017EC06990F91820114808
:1013B0004D30115473E51248E86231E70D48597811
:1013C00046300CF800106AE523B10020B87118B15E
:1013D0002E7564E50120F9E785F814905FE53A720F
:1013E0005DE5BDE8FE4F02F037B882F801908AF85B
:1013F00000906CE540050020729F010890060020D7
:101400007C000020FEE7000070B5FF2388B0154681
:101410000E4604461A46194607A805F03BFC01880B
:10142000ADF8001080788DF802001C48009905F096
:10143000F5FA22461AA101A8FEF728FF1949174814
:1014400005F043F9002201A9144804F088FA044683
:1014500000EBD470A521A1EB6000064400200090B1
:1014600001AB05F13C0231B20C4805F0EFFA0E4930
:101470000A4805F02AF90DA00DA30068069006A8F9
:101480000090301901B20C4605F13F02034805F007
:10149000DDFA0848848408B070BD000040050020D3
:1014A0002564000097840108A89D0108F99C0000AC
:1014B000B0430000080000200848C16A8A88002A5A
:1014C0000AD091F91800431C5BB20B76934201DB02
:1014D00000220A7603F03AB87047000008000020A6
:1014E0000848C16A8A88002A0AD091F91800431E68
:1014F0005BB20B76002B01DA521E0A7603F026B897
:101500007047000008000020184810B5C06A184C49
:1015100090F91800022803D0012811D0B8B120E0BA
:10152000E068401EE0601CD11F2001E0E068401E22
:10153000E060D4E9041206F040FD0028F6D010E087
:101540002069401E20610CD10C20206109E06069F7
:1015500040F2E371401E6061884202DA40F63300D7
:101560006061BDE8104000F035B8000008000020C0
:101570006406002070B51448144C0125C06AD4E9F3
:10158000041290F91800022803D0012809D070B184
:1015900016E0E068401CE06006F00FFD80B9E560F1
:1015A0000EE0491C21610D290AD1256108E0521C79
:1015B000A2F500606261343802D140F2E3706061EC
:1015C000BDE8704000F006B8080000206406002066
:1015D000704700002DE9F04FFC4FA9B0F86A006891
:1015E0000B2806D00C2804D00D2802D0F84805F0AE
:1015F00026F8F86ADFF8D48340F29B120068A02630
:1016000001250024A0F29B1108F11E0890427DD014
:101610001DDC1F287BD011DCEC4C6FF0180504F1A9
:1016200050040D2874D004DC0B28FBD00C282CD1DE
:10163000B9E00E28F6D0162827D1C3E0202868D0BC
:101640002B28E7D033287CD034281ED109E1632928
:1016500078D00EDC0B29DDD004DC0129EFD00A297B
:1016600013D1E1E14FF4A0761E296CD01F290CD1D3
:1016700008E3642968D07825772966D0B1F5137F0F
:1016800005D0A1F57061B4397DD0D2A0C6E3FF23A7
:101690001A46194618A805F0FDFA0188ADF80010A1
:1016A00080788DF80200CA48009905F0B7F90C213E
:1016B0005420CDE900015C234E227221C44804F07D
:1016C00023FAC849C24805F000F800231A46194613
:1016D00018A805F0DFFA0188ADF8001080788DF8C1
:1016E0000200BB48009905F099F9FF231A461946F4
:1016F00018A805F0CFFA0188ADF8001080788DF8B1
:101700000200B348009904F0C3F903E0E3E102E109
:101710004FE0E3E10022B4A1AD4804F020F9ADF8B8
:101720004800AB4804F0EBF9ADF81C0000EBD070BA
:10173000BDF94810A5EB600002B201EBD1709E210B
:1017400004E004E3BBE3CCE1BEE3FCE3A1EB600017
:1017500001B2A5A39E48009404F09FFFFF231A4600
:10176000194618A805F096FA0188ADF8001080789F
:101770008DF802009648009905F050F900231A46AA
:10178000194618A800E0D8E205F084FA0188ADF8FF
:10179000001080788DF802008D48009904F078F9E7
:1017A00029B0BDE8F08F02F06DFF90A001F022FBA0
:1017B00001E002F067FF94F902000F22294601F0D0
:1017C00047FBEDE78DA001F0B7FAF86A90F9181021
:1017D000481C00EB4000800001EB810100EB810020
:1017E000ADF84800002423E0794804EB4405E838CC
:1017F00028440188ADF8001080788DF80200744804
:10180000009905F00BF9BDF948005A2100EBD070A2
:10181000A6EB6000009100EB850004EB840100EB77
:10182000810001B20C234B22694804F018F9641CB2
:10183000F86A90F91800401CA042D5DCFF231A4634
:1018400019461AA805F026FA0188ADF8001080782C
:101850008DF802005E48009905F0E0F802F012FFF2
:101860009EE7002168A001F095FA5E49584804F00F
:101870002CFF00231A4619461CA805F00BFAFF237B
:1018800006461A4619461BA805F004FA0695318843
:10189000ADF81410B1788DF816100188ADF810105D
:1018A00080788DF8120098F80100464600B10120BA
:1018B00058A10091CDE9010464231A461946142069
:1018C000039401F01DFB00231A4619461BA805F0DE
:1018D000E1F9FF2307461A4619461CA805F0DAF974
:1018E00006953988ADF81410B9788DF8161001886E
:1018F000ADF8101080788DF81200707848B1002093
:1019000045A10091CDE9010464231A4619460394C8
:101910005AE00120F4E733492D4804F0D6FE0023B5
:101920001A4619461EA805F0B5F9FF2306461A46C1
:1019300019461DA805F0AEF906953188ADF81410CA
:10194000B1788DF816100188ADF8101080788DF8F8
:10195000120098F80000464600B10120717801B1EC
:1019600001212CA2CDE90021CDE9020464231A460D
:101970004621142001F0C4FA00231A4619461DA876
:1019800005F088F9FF2307461A4619461EA805F0F8
:1019900081F906953988ADF81410B9788DF81610CC
:1019A0000188ADF8101080788DF812003078A8B357
:1019B0000020717899B3002117A2CDE9002164239A
:1019C000CDE902041A464621C82056E1080000204D
:1019D000400500204E6F7420696D706C656D656EFA
:1019E00074656400729F01084F4B000045636F20CF
:1019F0003C20436F6D666F7274000000506F776516
:101A000072206C6576656C0050726F6772616D6DE7
:101A1000650000004F4E00004F46460000E001E028
:101A20000120C6E70121C7E7FD49FE4804F04DFE4D
:101A300000231A46194620A805F02CF9FF23064674
:101A40001A4619461FA805F025F906953188ADF804
:101A50001410B1788DF816100188ADF81010807848
:101A60008DF8120098F80100464600B10120EEA161
:101A70000091CDE9010478231A463C2114200394F7
:101A800001F03EFA00231A4619461FA805F002F994
:101A9000FF2307461A46194620A805F0FBF80695CD
:101AA0003988ADF81410B9788DF816100188ADF8A2
:101AB000101080788DF81200707850B10020DBA1F2
:101AC0000091CDE9010478233C211A46B420039407
:101AD000D3E00120F3E702F0C1FA61E602F0CEFBA9
:101AE0005EE6D449CF4804F0F0FDF86A90F918009A
:101AF00010B1012848D06CE000231A46194609A805
:101B000005F0C8F8FF2307461A46194608A805F04D
:101B1000C1F806953988ADF81410B9788DF816100B
:101B20000188ADF8101080788DF81200C2A0CDE9C0
:101B30000004002102943C2332460846039401F03D
:101B4000DFF900231A46194608A805F0A3F8FF2379
:101B500007461A46194609A805F09CF806953988E3
:101B6000ADF81410B9788DF816100188ADF8101082
:101B700080788DF81200B5A0CDE900043C230294D2
:101B800032462D21039421E000231A46194609A864
:101B900005F080F8FF2307461A46194608A805F005
:101BA00079F806953988ADF81410B9788DF81610C3
:101BB0000188ADF8101080788DF81200A6A0CDE94C
:101BC00000043C230294324600210394002001F0DB
:101BD00097F99849934804F078FD00231A4619466E
:101BE00022A805F057F8FF2306461A46194621A8F1
:101BF00005F050F806953188ADF81410B1788DF8DD
:101C000016100188ADF8101080788DF8120098F841
:101C10000100464600B1012093A10091CDE90104E5
:101C20005A231A4673211420039401F069F9002302
:101C30001A46194621A805F02DF8FF2307461A4633
:101C4000194622A805F026F806953988ADF8141033
:101C5000B9788DF816100188ADF8101080788DF8DD
:101C60001200707860B1002080A10091CDE90104DC
:101C70005A231A467321D220039401F041F98FE5CB
:101C80000120F1E76B49674804F01FFD00231A4665
:101C9000194624A804F0FEFFFF2307461A461946FA
:101CA00023A804F0F7FF06953988ADF81410B97829
:101CB0008DF816100188ADF8101080788DF812009C
:101CC0006BA0CDE9000402943C23374632464621FE
:101CD0000020039401F014F96AA36CA26EA113A86A
:101CE000FEF7D4FA002213A94E4803F038FE002371
:101CF000ADF848001A46194623A804F0CBFFFF238D
:101D000006461A46194624A804F0C4FF06953188F1
:101D1000ADF81410B1788DF816100188ADF81010D8
:101D200080788DF8120013A8CDE900043C237321BC
:101D300002943A46002003949FE759A35A223C217B
:101D40003848009404F0A9FC08F0B0F928E53548BB
:101D5000CC3808F07BFADFF8CC90DFF850A10026F1
:101D600009F138094FF0020BB84600BF09EB060035
:101D7000817B072900D98473FF231A46194625A8B9
:101D800004F088FF0188ADF8001080788DF802001B
:101D90002448009904F042FE4549224804F095FC8D
:101DA00000231A46194626A804F074FFFF230746AD
:101DB0001A46194625A804F06DFF06953988ADF836
:101DC0001410B9788DF816100188ADF810108078CD
:101DD0008DF812001348CC38C078401EB04201D1B3
:101DE000012100E00021D8F82C0090F91800B04241
:101DF00001D1012000E000205AF8367001AB0097B5
:101E000083E803080AEBC6023C23D0881E3001B2E7
:101E1000B2F904001A4601F073F84BE059E10000F2
:101E2000729F0108400500203530250031303025F3
:101E300000000000FEAD0108526573657420616CFE
:101E40006C206465766963650000000073657474D6
:101E5000696E67733F00000041726520796F7520DD
:101E6000737572653F000000596573004E6F000086
:101E700043757272656E74206669726D7761726502
:101E80000000000031322E352E3500007665727369
:101E9000696F6E3A20000000257325730000000072
:101EA000436F6E6E656374696E67000090BA0008D8
:101EB000D3D80108761C072EFFF658AF70E44FF018
:101EC000FF3002F043FB6BE4834E6FF0040196F9A0
:101ED000010008280AD2DFE800F0040617191B1DCC
:101EE0001F217EA000E080A000F054FF81498248BD
:101EF00004F0EBFB96F90100072811DA7F4900EBAB
:101F0000400001EBC0070DE07DA0EDE77FA0EBE70F
:101F100081A0E9E783A0E7E785A0E5E787A0E3E7FD
:101F2000754F4D370026AB4606EB4600002400EB0C
:101F30000611412000EB410006EB460A0FFA80F93A
:101F400004EB4A0500E04BE004EB4401132000EBF6
:101F500001182A467BA10AA8FEF798F9785D0328A4
:101F600002D907F805B005E004D14FF0FF031A4687
:101F7000194603E04FF000031A46194626A804F05C
:101F800089FECDF818B0795D5B4801EB4102D93884
:101F9000104403290288ADF8142080788DF81600CB
:101FA000BDF89800ADF810009DF89A008DF8120069
:101FB00014D0002200200AA9CDE90010CDE90202C8
:101FC00020232A2249460FFA88F000F099FF641C6A
:101FD000062CB5DB761C042EA6DB41E40222E9E7E1
:101FE00002F050FBF86A90F9180058B1012826D089
:101FF000022840D0544B07AA12A93F4803F0C0FF63
:10200000C0B365E03D4B07AAA83312A93A4803F0D4
:10201000B7FF90B9BDF91C00BDF9481000EBD070B6
:10202000A5EB600002B201EBD170A6EB6000334B70
:1020300001B2A833304803F035FE44A049E0454BD7
:1020400007AA12A92C4803F09BFF88B9BDF91C0010
:10205000BDF9481000EBD070A5EB600002B201EBB7
:10206000D170A6EB600001B23A4B234803F01AFE90
:1020700039A02EE01AE0394B07AA12A91E4803F036
:102080007FFF88B9BDF91C10BDF9480001EBD17183
:10209000A5EB610100EBD0700AB2A6EB600001B2C3
:1020A0002E4B154803F0FEFD2DA012E0BDF91C10CB
:1020B000BDF9480001EBD171A5EB610100EBD070D7
:1020C0000AB2A6EB600001B21F4B0B4803F0EAFD19
:1020D00026A000F031FE00E52800002050524553B4
:1020E00045542031000000005052455345542032E1
:1020F00000000000D3D8010840050020C8BA00083D
:10210000505245534554203300000000505245536F
:1021100045542034000000005052455345542035AA
:102120000000000050524553455420360000000086
:102130005052455345542037000000004355535436
:102140004F4D0000256400003F510108436F6D664C
:102150006F72740027C2000845636F00FFC5000856
:10216000416E74692D66726F737400004F6666006D
:102170002DE9F043E04C0746E04EE06A8BB010B129
:10218000707800287ED0012F06D0002008F06CF96E
:10219000DA48383804F053FA00231A46194607A8DB
:1021A00004F078FD0188ADF8001080788DF8020009
:1021B000D2480099383804F031FC1A250095A08CDB
:1021C00053230C3001B2CD488922383803F047FC44
:1021D000FF231A46194607A804F05CFD0188ADF8F4
:1021E000001080788DF80200C4480099383804F057
:1021F00015FC70794FF0000950B105F0A9FC40B210
:102200000F22002100F024FE607D042862D063E0EC
:10221000307BC0B3012846D002284DD00328F3D12B
:10222000B648B74B3C229621383803F03BFDB34803
:10223000B449383804F049FA00231A46194609A867
:1022400004F028FDFF2380461A46194608A804F02A
:1022500021FD014601200690B8F80020ADF81420B9
:1022600098F802008DF816000888ADF810008878FC
:10227000A5A1CDE900192D238DF81200CDF8089005
:10228000522201E02CE106E0A0219120CDF80C9033
:1022900000F036FEB8E705F077FC0F22002100F0D1
:1022A000D7FD9A4B06E005F06FFC0F22002100F0ED
:1022B000CFFD974B0F2207E005F066FC0F220021AF
:1022C00000F0C6FD934B0D228C480C21383803F0EA
:1022D000E9FC99E7E06AE8B300231A46194601A829
:1022E00004F0D8FC0188ADF8001080788DF8020069
:1022F00082480099383804F091FB307B0095032820
:102300003FD0A08C532388220C3001B27B48383850
:1023100003F0A5FBFF231A46194601A804F0BAFCF6
:102320000188ADF8001080788DF80200734800999C
:10233000383804F073FB707B48B1307B032806D03B
:102340006E48754B8C220C21383803F0ABFC96F8A4
:10235000D50000E005E0012817D07079012817D0DA
:1023600020E0307B6D4B032808D0A08C89220C30F4
:1023700001B26248383803F095FCDCE732220C21C8
:10238000F7E72B2332220C21C0E7654B4D2204E0F6
:10239000307B644B03280FD0502258480C2138382A
:1023A00003F080FC307B03287ED0B07A05254FF007
:1023B0000C08012802D003E09322EEE7707930B1D7
:1023C000607E13282AD80F281CD9042526E0F57A28
:1023D000052D0AD0042D0AD0032D0BD0022D0DD0CF
:1023E000012D0DD084F8099019E0142000E0102090
:1023F000607201E084F80980002412E00820F7E709
:102400000420F5E70A2801D3032507E0052801D9B0
:10241000022503E008B1012500E00025E570002455
:102420001DE0414904EB440008440188ADF8001068
:1024300080788DF8020031480099383804F0EEFABF
:102440003520604300EBC4000B3001B22B4835232C
:10245000D5223838CDF8008003F001FB641CAC4273
:10246000DFDBFF231A46194603A804F013FC01889A
:10247000ADF8001080788DF80200204800993838B7
:1024800004F0CCFA00231A46194603A804F002FC13
:102490000188ADF8001080788DF802001748009987
:1024A000383803F0F5FA00E015E014481F493838D1
:1024B00004F00BF9B07A012801D1707998B11CA011
:1024C0001CA30068019001A800900C48C2220B21B7
:1024D000383804F0E2F8012F02D0012007F0C4FFE1
:1024E0000BB0BDE8F08315A116A3D1E90001CDE939
:1024F000010101A80090E8E708000020780500200D
:102500003F510108FEAD01084F666600AC3301087B
:1025100046310108592C0108DF2801086E7C0108AA
:10252000411F01080A24010858040020A2E90108FB
:102530000202029C4155544F0000000002020202B8
:10254000029C0000435553544F4D00002DE9F04FBD
:10255000FE4D89B0E86A00287DD0806850B3FC4801
:1025600004F06DF802F08EF8E86AA946F84D81682B
:1025700090F91800002401EB40100C21026806209D
:10258000A02738354FF09F0A4FF078084FF03C0BEA
:1025900026462B2A7DD021DC0D2A7BD00FDC0D2A8C
:1025A00079D2DFE802F078447EB3B6B978787878EB
:1025B00078BCBF0009B0BDE8F04FFFF70BB8202A88
:1025C0006AD006DC152A68D0162A67D01F2A62D185
:1025D00086E1292A7ED02A2AF9D160E240F2A51CA0
:1025E000A2F2A513624576D010DC352A74D006DC41
:1025F0002C2A72D0332A71D0342AE8D115E2A2F500
:1026000080729B3A6BD0012AE1D1A5E2162B67D0EC
:1026100006DC012B77D0142B76D0152BD7D156E2C0
:10262000A3F57063AA3B70D0012BD0D18EE20E21AE
:10263000CDE9001054235C221946104605F022F91A
:10264000FF231A46194605A804F024FB0188ADF8BB
:102650000010807800E0E1E28DF80200BC480099AB
:1026600004F0DCF9BB49BA4804F02FF80022BAA103
:10267000B74803F074F9ADF8080000EBD071AAEB8D
:10268000610001B2B4A36E22B148009604F005F8CF
:1026900005E00FE2C0E058E22EE1C0E0EFE0B0A4B8
:1026A00085E2CDE9001054235C221946104605F05E
:1026B000E9F81E2000900A2378228321A44803F021
:1026C000CEF9262000900A2370229321A04803F01F
:1026D000C6F906E0E0E142E2DBE1F2E118E138E2CE
:1026E00001E22E2000900A236822A321984803F0DB
:1026F000B6F9362000900A236022B321944803F0F3
:10270000AEF99AA453E22DE2DEE1EFE1994D9AA4ED
:1027100032E29B4D9BA42FE29D4D9EA42CE2A04D46
:10272000A0A429E2FF231A46194604A804F0B2FA2D
:102730000188ADF8001080788DF802008448009977
:1027400004F06CF900231A46194604A804F0A2FA12
:102750000188ADF8001080788DF802007C4800995F
:1027600003F096F94E2003460090512279217848D3
:1027700003F0C0FF00231A46194604A804F08AFAA1
:102780000188ADF8001080788DF80200704800993B
:1027900004F044F9FF231A46194604A804F07AFA13
:1027A0000188ADF8001080788DF802006848009923
:1027B00003F06EF93C23462296216548CDF800B01F
:1027C00003F098FF322000903C234622A02160486D
:1027D00003F045F9FF231A46194604A804F05AFAF3
:1027E0000188ADF8001080788DF8020058480099F3
:1027F00004F014F900231A46194604A804F04AFA12
:102800000188ADF8001080788DF8020050480099DA
:1028100003F03EF965A4CAE1654D66A4ACE1CDE9DB
:10282000001054235C221946104605F02BF8FF23B4
:102830001A46194606A804F02DFA0188ADF80010D2
:1028400080788DF802004248009904F0E7F85C496E
:102850003F4803F03AFF00225AA13D4803F07FF8B9
:10286000ADF8080000EBD070A7EB600001B255A3F3
:102870005D223748009603F010FF53A497E1CDE99D
:10288000001054235C221946104604F0FBFFFF237E
:102890001A46194607A804F0FDF90188ADF80010A2
:1028A00080788DF802002A48009904F0B7F844496E
:1028B000274803F00AFF002245A1254803F04FF8FE
:1028C000ADF8080000EBD0709D21A1EB600001B2D3
:1028D0003FA35C221E48009603F0DFFE3DA466E1A4
:1028E00095F8D500002801D03C4D00E03C4D01D0CA
:1028F0003CA441E13EA43FE1CDE900104FF0540378
:102900004FF085021946104604F0BCFF3CA44EE18E
:102910003E4B03AA02A90E4803F032FB88B9BDF969
:102920000C10BDF9080001EBD172A8EB620100EBBD
:10293000D0700AB2A7EB600001B2344B044803F038
:10294000B1F9334B03AA02A9014863E00800002053
:1029500040050020D3D801084D4F44450000000039
:1029600048656174206D6F6465000000506F776585
:1029700072000000B9CC000854696D657200000057
:102980004DDD000853657474696E677300000000C4
:10299000C2E5000850726F6772616D6D65000000DE
:1029A00070BB0008436F6D666F72740045636F0003
:1029B000FFC50008416E74692D66726F7374000064
:1029C0008DCE0108410000004175746F00000000C9
:1029D00043000000437573746F6D000075D80008E4
:1029E0002DD4000854696D6572206973206F6E00E4
:1029F00054696D6572206973206F6666000000007F
:102A00005365742074696D65720000009B3901087C
:102A1000C637010803F0B4FA28B9824B7922A32102
:102A2000814803F03FF981A4C1E0824B03AA02A9C7
:102A30007D4803F0A5FA88B9BDF90C10BDF908006E
:102A400001EBD172A8EB620100EBD0700AB2A7EBE8
:102A5000600001B2774B744803F024F9687908B13B
:102A6000754B00E0754B03AA02A96F4803F088FA82
:102A700048B9687908B1704B00E0704B7B22A32104
:102A8000694803F00FF9687908B16DA48FE06DA46F
:102A90008DE06D4D6DA46FE06F4D70A46CE0CDE9DD
:102AA000001054235C221946104604F0EBFE6E4DD4
:102AB0006EA461E0E87908B16E4D00E06E4D6FA440
:102AC0005AE0704D70A457E0714D72A454E0CDE906
:102AD000001054235C221946104604F0D3FE6C4DBE
:102AE0006EA4933D48E0704D70A445E0CDE9001020
:102AF000542385221946104604F0C4FEFF231A46CB
:102B0000194608A804F0C6F80188ADF800108078CE
:102B10008DF802004448009903F080FF664942485E
:102B200003F0D3FD002265A13F4802F018FFADF885
:102B3000080000EBD071AAEB610001B25FA36E2226
:102B40003948009603F0A9FD5EA430E0504D60A422
:102B500012E0644D64A40FE0664D67A40CE0694D7B
:102B600069A409E0CDE9001054235C2219461046FF
:102B700004F088FE674D68A4CDB12B4601AA6946D2
:102B8000294803F0FDF9E8BBBDF90410BDF90000C8
:102B900001EBD172A8EB620100EBD0700AB2A7EB97
:102BA000600001B22B46204803F07CF82EE0D9F8F3
:102BB0002C004D46816890F9180001EB4010006828
:102BC000202823D15849184803F07FFDA98B584687
:102BD000B1FBF0F20BFB1213B1FBFBF253A103A804
:102BE000FDF754FB002203A90F4802F0B8FE00EBEA
:102BF000D070A7EB600000230096019600B203AAF4
:102C0000672100E002E0029600F05EFA002C05D099
:102C100009B02046BDE8F04F00F08EB809B0BDE81D
:102C2000F08F0000C6370108400500205365747519
:102C3000700000009B390108373F01083E4201083F
:102C40004F6E00004F66660035450108437573748A
:102C50006F6D206461790000186E0108446174652D
:102C600020262074696D6500E7F8000844697370D8
:102C70006C617900F0EC0008B3F30008536F756ED7
:102C800064000000434A0108536572766963650079
:102C90006F5801085265736574000000496E666FD5
:102CA000726D6174696F6E00777F0108436F6E6E9D
:102CB000656374696F6E0000D3D8010853544152A4
:102CC00054000000436F6E6E656374696E670000A8
:102CD000526573657420636F6E6E656374696F6EA1
:102CE00000000000C2E5000853657420646174654B
:102CF000000000007B6801085365742074696D65ED
:102D000000000000F00201084272696768746E6595
:102D100073730000E8FC00084175746F20737769D5
:102D2000746368206F666600729F01082530326404
:102D30003A253032640000001CB5FF2304461A46D1
:102D4000194601A803F0A6FF0188ADF800108078AD
:102D50008DF802000D48009903F060FE0C490B4805
:102D600003F0B3FC00222146084802F0F8FD0021E0
:102D7000009100EBD070A021A1EB600001B22346CE
:102D8000B922024803F089FC1CBD00004005002068
:102D9000FEAD01087CB5FF230C4605461A461946D0
:102DA00001A803F077FF0188ADF8001080788DF856
:102DB00002000E48009903F031FE0D490B4803F064
:102DC00084FC00222946094802F0C9FD0021009137
:102DD00000EBD070A021A1EB600001B22B4604F102
:102DE0001A02024803F059FC7CBD00004005002097
:102DF000FEAD01081CB5FF2304461A46194601A87A
:102E000003F048FF0188ADF8001080788DF80200CB
:102E10000D48009903F002FE0C490B4803F055FCE5
:102E200000222146084802F09AFD0021009100EBA3
:102E3000D070A021A1EB600001B22346102202480D
:102E400003F02BFC1CBD000040050020D3D8010876
:102E500070B5FF2388B015460E4604461A4619463B
:102E600007A803F017FF0188ADF8001080788DF8EF
:102E700002001C48009903F0D1FD22461AA101A8C6
:102E8000FDF704FA1949174803F01FFC002201A9B5
:102E9000144802F064FD044600EBD470A521A1EBB8
:102EA000600006440020009001AB05F13C0231B205
:102EB0000C4803F0F2FB0E490A4803F006FC0DA093
:102EC0000DA30068069006A80090301901B20C46C8
:102ED00005F13F02034803F0E0FB0848848408B092
:102EE00070BD0000400500202564000097840108A3
:102EF000A89D0108F99C0000B043000008000020D4
:102F00002DE9FF4F8BB09246DDE91C54DDE918191D
:102F1000984600226B481B9F02F021FD05906948EE
:102F200002F0EDFD83460B990AEBDA72059801EB8E
:102F3000620100EBD070A1EB600000B20C9908EBCD
:102F4000D872039001EB62010BEBDB70A1EB600028
:102F500000B20290B9F1000F01D0294600E02146ED
:102F6000584803F05BFD1E98072640B1CDE9008666
:102F7000DDE90B125346534802F0C6FD07E0CDF8D9
:102F80000080DDE90B1253464E4802F068FDB9F1AE
:102F9000000F0AD021464B4803F040FD1E98C8B3ED
:102FA000CFB3B9F1000F02D054E02946F3E7294628
:102FB000444803F033FD2146424802F069FDCDE963
:102FC0000086DDE90B1253463E4802F09DFD214686
:102FD0003C4803F023FD29463A4802F059FD784267
:102FE00008EB40010AEB400003B209B20C98CDE9AE
:102FF0000016384402B20B98384401B2314802F04E
:1030000083FD29462F4803F009FD21462D4802F093
:103010003FFD21E000E01AE0CFB1B9F1000F19D176
:10302000002611E0704208EB40010AEB400003B2B9
:103030000C9809B2304402B20B980091304401B2AE
:10304000204802F0E4FC761CBE42EBDB04E0B9F160
:10305000000F01D0294600E021461A4802F018FD71
:103060000020DDE9022100901648189B03F015FBB3
:103070001A9888B1B9F1000F21D02146114803F008
:10308000CDFC032000900298059B5844401D02B2DD
:103090000C48039902F0E3FC00231A46194609A8DC
:1030A00003F0F8FD0188ADF8001080788DF802007B
:1030B0000448009902F0ECFC0FB0BDE8F08F2946FF
:1030C000DCE70000400500202DE9FF4F83B01C0025
:1030D000DDE91187DDF840B00E46824603D0FF23BC
:1030E0001A46194602E000231A46194601A803F0C1
:1030F000D1FD3948019903F091FC00223648059929
:1031000002F02DFC8146344802F0F9FC054600EB44
:10311000470000B2009009EB480003B2F01B02B276
:10312000AAEB080001B22C4802F099FC74B100230C
:103130001A46194601A803F0ADFD2748019903F08E
:103140006DFC3CB1FF231A46194606E0FF231A46E0
:103150001946EFE700231A46194601A803F09AFD25
:103160001D48019902F094FC00200090324651461F
:103170001948059B03F091FABBF1000F14D034B34A
:1031800000231A46194602A803F084FD124802994A
:1031900003F044FC042000907019401D02B24B461D
:1031A00051460D4802F05BFC00231A46194601A85F
:1031B00003F070FD0188ADF8001080788DF80200F2
:1031C0000548009902F064FC07B0BDE8F08FFF23CA
:1031D0001A461946D7E70000400500207CB500F0EC
:1031E000CBF84D4CA16B884279D900F0C5F8A063AB
:1031F000617D4A4E1A25022905D039B3032928D00A
:1032000004292AD02CE000231A46194601A803F00D
:1032100041FD0188ADF8001080788DF802003F482C
:103220000099383803F0FAFB307B0095032809D069
:10323000A08C532389220B3001B23848383802F071
:103240000EFC3BE02B233B221621F6E700F57A70BB
:1032500001E000F5FA70A06302E0207A00283ED178
:10326000207A4FF0000380F001002072307B1A4674
:103270000328194601A833D003F00CFD0188ADF8EE
:10328000001080788DF8020024480099383803F047
:10329000C5FB0095A08C53230C3001B21F48892236
:1032A000383802F0DCFB207A40B1A08C89221C4B1C
:1032B0000C3001B21948383802F0F4FCFF231A46EA
:1032C000194601A803F0E6FC0188ADF800108078EB
:1032D0008DF8020011480099383803F09FFB7CBD3F
:1032E00003F0D8FC0188ADF8001080788DF802005A
:1032F0000A480099383803F091FB08482B233B22F9
:1033000016213838009502F0AAFB207A0028D5D083
:103310003B22034B1621CDE7080000207805002052
:103320006E7C010810B5114C00202075012007F0BB
:103330009BF800F021F8A16B884216D9207A80F022
:103340000100207200F018F800F5FA70A063084838
:1033500003F075F9207A002807D04022BDE810401C
:10336000044B6421024802F09DBC10BD08000020FF
:10337000400500203C7601080148006870470000C5
:1033800000000020FEE700002DE9F0472E4C2078D9
:10339000D0B194F8D50008B96079A8B12B4806F0EF
:1033A00055FF2A4E0025307800F00F01000900EB90
:1033B000800001EB4000C0B2132809D2607938B117
:1033C00084F8D55065712573BDE8F04706F00CBF51
:1033D00006F00AFF94F8D500DFF870904FF08047B0
:1033E00009F114094FF003084FF4807A01281ED028
:1033F0006079012826D189F8095089F80A5089F89E
:103400000B504FF08030C9F8000004F07DFB2073B2
:10341000C9F804700D4889F80880143006F0BCFE25
:10342000504606F077FFBDE8F04706F0FFBE89F88A
:10343000095089F80A50B07989F80B000448C9E9A5
:103440000007E7E7BDE8F087780500207404002056
:1034500000808080FEE7000010B5174CE06AC0696C
:1034600028B3002007F000F8E26A04F11E0011689A
:10347000332910D0A1F58073B93B02D1002101702E
:103480004170D069C4F82C00FFF760F8BDE8104027
:10349000012006F0E9BF09494B79002BF1D1D3692E
:1034A000074AE262D361497901704170ECE7BDE8F7
:1034B000104000F0F7BA0000080000207805002056
:1034C0009C01002070470907090E002806DA00F069
:1034D0000F0000F1E02080F8141D704700F1E0209B
:1034E00080F8001470470000024900204870FEF781
:1034F00071B8000026000020024901204870FEF744
:1035000069B8000026000020704700002DE9F04156
:103510005A4E5B4C0025F36AA4F1EC0006F11E0242
:103520001968332976D02BDC152960D01DDC534A6D
:103530000B2902F150024CD0032407260C294ED04F
:103540000D294ED00E2950D193F918102D2308447F
:10355000A2F1300191F9001001EB410103EBC1012F
:10356000405C90701570282084E0162943D01F29F4
:1035700045D0202946D02B2937D1C079107079E069
:1035800040F2A51CA1F2A517614563D01ADC3429CD
:103590005ED035293ED03B4FA1F580719B393BD0A1
:1035A000012922D1384606F051FE387904F038F965
:1035B000A060787904F034F96060B87904F030F9EB
:1035C000206042E0012F57D0142F23D0592F0CD167
:1035D00020E0807890700A20107023204AE0C078A4
:1035E00000E00079907014705670BDE8F081BDE87D
:1035F000F041FDF72FBCC07A401E1876F5E790F831
:10360000D500BBE7B0F8D6003C21B0FBF1F0C4E92F
:10361000015025601D76E8E71A4806F017FEB878D5
:1036200004F0FEF8E060787804F0FAF82061387869
:1036300004F0F6F8132802D240F2E37004E0387880
:1036400004F0EEF800F5FA606061F06A0576CCE708
:10365000407993E78079002807D000BF4FF0000041
:10366000107005D14FF0010004E04FF00100F7E7C2
:103670004FF000005070B8E7007A7FE708000020A4
:10368000640600207404002010B54FF480742046B6
:1036900006F048FE002806D0204606F03BFEBDE8B6
:1036A000104006F063BD10BD2DE9F0412A4C012702
:1036B0000025277065701820A0700420E070052098
:1036C00020716571A771E77125726572A572E77245
:1036D000257365730326A673E67326746674A67451
:1036E000E67426750522A82104F12D00FCF76EFF73
:1036F0001E2084F830000A2084F8310001221821AD
:1037000004F11500FCF762FF84F8D5504FF43470D3
:10371000A4F8D60004F1600040F8785F4560856049
:10372000C56006F0C1FDA4F582707F210181FF21F3
:10373000418120210170C670477087700561122198
:10374000C56001714571857106F0F6FD002800D154
:10375000FEE7BDE8F081000078050020704710B555
:1037600004F086F8BDE8104000F0A4B8484810B551
:1037700046494160474A426081608260016941F088
:1037800020010161016941F040010161C168C9077F
:10379000FCD1016921F020010161016941F01001B2
:1037A0000161C16911F0060F3B490AD0C269C2F339
:1037B0004102012A07D0C269C2F34102032A04D0A0
:1037C00005E0A52202E0BB2200E0CC220A80C1690C
:1037D000DF2202EA1121304A921C1180C169921C39
:1037E000C1F307411180C169090E921C1180016A61
:1037F000921CC9B21180016A921CC1F30721118089
:10380000016921F0100101612448016841F470014F
:1038100001602348016841F00101016001688907E6
:10382000FCD541681F4A1140416041681E4A114061
:10383000416001681D4A11400160C16A1C4A114083
:10384000C162016B40F2031291430163016B21F4E9
:1038500080310163016B21F000410163416B21F074
:1038600001014163D0F8C01021F48031C0F8C010CC
:1038700000218160C0F8CC1006F05AFEBDE810406F
:1038800000214FF0006005F061B900002301674599
:1038900000200240AB89EFCD00F8FF1F88ED00E06B
:1038A000001002400C00FF08FFFFC277FFFFF2FE8E
:1038B000F0FFFF3F02480168491C016070470000AB
:1038C0000000002010B5084C0121204607F073F8D5
:1038D000012807D10121204607F06AF8BDE8104011
:1038E00000F004B810BD00000020004009494FF46A
:1038F00080720879401EC0B208714B78834201D9AA
:10390000054B01E0044B10331A60002801D114204C
:1039100008717047080000201804004810B50B4CCF
:103920000F226FF0180194F90200FDF76DFDA078E9
:10393000401E40B2A07094F90010884201DA60780D
:10394000A070BDE81040FDF745BE00005800002003
:1039500010B50B4C0F226FF0180194F90200FDF71F
:1039600053FDA078401C40B2A07094F90110884229
:1039700001DD2078A070BDE81040FDF72BBE0000EF
:1039800058000020154830B4C26A154892F9184012
:10399000D0E9011314B1012C0FD018E05B1E836035
:1039A0001268202A00D123B1002B10DA1721816080
:1039B0000DE061B90121416009E0491E41601468D0
:1039C0003B22202C00D12BB1002900DA426030BC10
:1039D000FDF700BE0129F9DBF9E70000080000202F
:1039E00064060020F0B4144800250124C36A13487B
:1039F00093F91860D0E9011216B1012E0CD014E031
:103A0000521C8260172A00DD85601A68202A0CD1BA
:103A1000826852B971B108E0491C41601B68202BD3
:103A200000D12AB13B2900DD4560F0BCFDF7D2BDD5
:103A30003B29FADD4460F8E7080000206406002016
:103A400070B5124C1049204607F058F868B120466E
:103A500006F0FEFF0F490E4B0A789854521CD0B264
:103A60000870C82801D1002008700B4D2046294657
:103A700007F044F8002806D02946204607F02AF827
:103A800006490120087070BD05000507004400408C
:103A9000A40600201C040020040004071E040020CB
:103AA000FEE7000002490020C862FEF761BB00008B
:103AB0000800002010B540F21C7005F04DFD05F027
:103AC000A7F84FF40064204605F0C2FC204605F03C
:103AD000CDFCE01005F06AFD40F60F0005F03CFD5E
:103AE000BDE8104006F098BC10B500214FF480707E
:103AF00003F068FE0121084603F08AFD0722052134
:103B0000002003F001FE0121022003F05BFE0020F3
:103B100003F03CFE0121084603F0B2FD4FF46021A2
:103B2000012003F0CBFD002003F090FD03F09CFD8D
:103B30000A2003F095FE03F059FDBDE81040012076
:103B400003F030BE10B5094C00220749204604F0AE
:103B500069F9002281231146204604F013FA204619
:103B6000BDE8104004F0E4B9801A0600005400409B
:103B70002DE9F041334C0126334D207D022804D13C
:103B8000287810B101F060F80026FFF7F5FB2063FC
:103B9000687800274FF00108A0B3287820B1207D75
:103BA000012815D0A0B115E02748383803F0B6F940
:103BB000A87908B1277501E084F8148001F044F871
:103BC000002006F051FC01F0D5F80020BDE8F0819E
:103BD00001F03AF81C48383803F0A0F9A87908B188
:103BE000277501E084F81480002006F03DFC01F008
:103BF000C1F8FFF7C1FBA0F5D240783820636878A0
:103C00000026B0B92878A0B1287A70B1207D0228AA
:103C10000BD1A87908B1277501E084F81480002041
:103C2000FEF7A6FAFFF7A8FB60640748383803F0F0
:103C300075F9FFF7A1FB41F2883108446064304612
:103C4000C4E70000080000207805002010B540F20D
:103C5000157005F081FC40F2115005F07DFC40F23A
:103C6000125005F079FC40F20E7005F075FC40F240
:103C7000117005F071FC40F2126005F06DFC4FF41C
:103C8000E06005F069FC40F2096005F065FC40F277
:103C90001C7005F061FCBDE81040062005F0A2BADA
:103CA00030B503461046064C07E013F8015BC2B27C
:103CB0006A4054F8222082EA1020491EF5D230BD15
:103CC000DCEB01082DE9F04101224FF09046022380
:103CD0001146304604F033F8022303220021304617
:103CE00004F054F8504F4FF4F0742346022201219F
:103CF000384604F024F8234603220021384604F015
:103D000045F8202300220321304604F018F8012250
:103D10000221304603F0DCFF01230022022130465D
:103D200004F00DF8012303220021304604F02EF8A0
:103D30004FF4007422460221384603F0C9FF0222E4
:103D400023461146384603F0FAFF00222346114667
:103D5000384604F01BF822460421304603F0B8FF31
:103D600065002A460421304603F0B2FF23460022B4
:103D70000221304603F0E3FF2346032201213046AF
:103D800004F004F82B4600220221304603F0D7FF4E
:103D90002B4603220121304603F0F8FF4FF4204464
:103DA00022460021384603F093FF234600220221D9
:103DB000384603F0C4FF234603220021384603F0AF
:103DC000E5FF40F60444012223461146384603F03D
:103DD000B6FF234603220021384603F0D7FF042212
:103DE0000121304603F074FF08220121304603F020
:103DF0006FFF042301220221304603F0A0FF0423B9
:103E000003220021304603F0C1FF082301220221D2
:103E1000304603F094FF3046BDE8F041082303220A
:103E2000002103F0B3BF0000000400482DE9F04377
:103E300000238BB01A46194606A802F02BFF018812
:103E4000ADF8001080788DF802007248009901F0FA
:103E50001FFEFF231A46194606A802F01BFF018821
:103E6000ADF8001080788DF802006A48009902F0E1
:103E7000D5FD684F684C38374FF00108B8790025F8
:103E800008B1257501E084F81480624802F0D7FB80
:103E9000604803F043F8002006F0E6FA5F4B08AAFA
:103EA00007A95C4802F06CF8A02690B9BDF9201073
:103EB000BDF91C0001EBD1716E22A2EB610100EB98
:103EC000D0700AB2A6EB600001B2544B514801F029
:103ED000E9FE012006F0C8FA4FF4FA69484603F0FB
:103EE000BFFC002006F0C0FA4A4802F0A8FB49488F
:103EF000E838C168E83002F091FD4949454802F0D0
:103F0000E4FB002247A1434801F029FD00EBD070FB
:103F1000A6EB600001B243A350223E48009502F098
:103F2000BCFB002243A13B4801F019FD00EBD0701F
:103F3000A6EB600001B23FA378223648009502F05C
:103F4000ACFB4049334802F0C0FBFF231A46194638
:103F500006A802F09FFE0188ADF8001080788DF869
:103F600002002C48009902F059FD37A338A239A16C
:103F700001A8FCF78BF9002201A9264801F0EFFC0B
:103F800000EBD070A6EB600001B201ABB922214872
:103F9000009502F082FB012006F066FA484603F025
:103FA0005FFC002006F060FAE5626564787901281C
:103FB00002D103F0A9FD387303F0FCFDA07010F1ED
:103FC0007F0F0CD07F2811D0302815DD002000F0A5
:103FD00073FFE5700320A0710BB0BDE8F0830020F3
:103FE00000F06AFFE57084F80680F5E7002000F035
:103FF00063FFE5700220EEE710F11A0F4FF00000AA
:1040000004DA00F059FFE5700420E4E7FEF7B0F8A9
:10401000E2E700004005002008000020C409010874
:104020005CD101084555524F54454348204D4554F5
:10403000414C000050414E454C20484541544552AA
:1040400000000000D3D8010831322E352E35000093
:10405000562E200025732573000000002DE9F04343
:10406000764C8DB076A10BA8E268FCF70FF974A12D
:104070000CA82269FCF70AF973A108A86269FCF789
:1040800005F97349A4F5927002F01FFBA4F5927034
:1040900001F035FDC0F178000FFA80F9002208A97F
:1040A000A4F5927001F05BFC0023C7B21A461946D2
:1040B00007A802F0EFFDFF2304461A4619460AA896
:1040C00002F0E8FD012606962188ADF81410A178CB
:1040D0008DF816100188ADF810105E4D80788DF8BF
:1040E0001200E86A0024007E00287DD0002008A984
:1040F0000091CDE901043C2307F1140249460F2049
:104100000394FEF7FDFE00220CA9534801F027FCA2
:104110000023C7B21A4619460AA802F0BBFDFF23C6
:1041200080461A46194607A802F0B4FD0696B8F86C
:104130000020ADF8142098F802108DF816100188B0
:10414000ADF8101080788DF81200E86A007E012822
:1041500000D000200CA90091CDE9010407F1140260
:104160003C239046494696200394FEF7C9FE002260
:104170000BA9394801F0F3FB00231A4619460AA897
:1041800002F088FDFF2307461A46194607A802F0E9
:1041900081FD06963988ADF81410B9788DF816109F
:1041A0000188ADF8101080788DF81200E86A007E62
:1041B00002283CD000200BA90091CDE901043C234A
:1041C00042464946E6200394FEF79AFEFF231A462C
:1041D000194607A802F05EFD0188ADF8001080784E
:1041E0008DF802001C4800E01FE0009902F016FC68
:1041F00000231A46194607A802F04CFD0188ADF8C5
:10420000001080788DF802001348009901F040FCFE
:10421000E86A90F9180060B101280CD00FA000BF27
:10422000FEF78AFD0DB0BDE8F08301205FE70120B5
:10423000C1E70CA0F4E70EA0F2E70000640600203E
:104240002530326400000000253034640000000096
:10425000729F01080800002040050020536574206B
:104260006461790053657420796561720000000013
:10427000536574206D6F6E74680000002DE9F04F77
:104280008DB0A549A54802F020FAA44801F037FCFA
:10429000DFF88CA2C0F1780005B2DAF82C00002417
:1042A000012701689F484FF0A00B0DF11C09202940
:1042B0007DD0804682689CA14846FBF7E7FF00223C
:1042C00007A9964801F04BFB0023C6B21A461946CF
:1042D0000AA802F0DFFCFF2300901A4619460BA83B
:1042E00002F0D8FC009906970A88ADF81420897866
:1042F0008DF816100188ADF8101080788DF8120036
:10430000DAF82C00007E00287DD00021CDF8009046
:10431000CDE901145720A0EB56003C234622294644
:104320000394FEF7EDFD80A107A8D8F80420FBF761
:10433000ADFF002207A9794801F011FB0023C6B2A6
:104340001A4619460BA802F0A5FCFF2300901A4656
:1043500019460AA802F09EFC00990697B8460A88FA
:10436000ADF8142089788DF816100188ADF810107A
:1043700080788DF81200DAF82C005746007E01286C
:104380007DD00021CDF80090CDE90114CB20A0EB29
:1043900056003C23462229460394FEF7B1FDFF2335
:1043A0001A4619460AA802F075FC018800E056E09A
:1043B000ADF8001080788DF802005848009902F09E
:1043C0002DFB00231A4619460AA802F063FC018857
:1043D000ADF8001080788DF802005048009901F087
:1043E00057FB00231A4619460BA802F053FCFF2383
:1043F00006461A4619460AA802F04CFC81460022DD
:104400004BA1464800E082E001F0A9FACDF81880FF
:104410003188ADF81410B1788DF81610B9F8002075
:10442000ADF8102099F802108DF8121040A1CDE9D6
:10443000001400EBD071ABEB6100029400B23723A3
:10444000042229460394FEF75BFDF86A007E0028EB
:104450005BD038A0FEF770FC0DB0BDE8F08F82682D
:1044600031A14846FBF712FF002207A92B4801F0B3
:1044700076FA0023C6B21A4619460AA800E048E0B8
:1044800002F008FCFF2380461A4619460BA802F0EA
:1044900001FC0697B8F80020ADF81420014698F802
:1044A00002008DF816000888ADF8100088788DF8A5
:1044B0001200CDF80090CDE90174ABEB56003C231F
:1044C000462229460394FEF71BFDFF231A46194690
:1044D0000AA802F0DFFB0188ADF8001080788DF8A3
:1044E00002000E48009902F099FA00231A46194674
:1044F0000AA802F0CFFB0188ADF8001080788DF893
:1045000002000648009901F0C3FA0DA0A2E70121BC
:10451000FCE6012136E70000729F010840050020FB
:1045200008000020640600202530326400000000EE
:104530003A000000536574206D696E757465000063
:1045400053657420686F7572000000002DE9F14F0B
:104550008AB04849484802F0B8F848484649DFF868
:104560001CB190F90000383100EB400001EBC007AE
:104570000026ABF1200B2D37002506EB460000EBA3
:104580000610412106EB460A01EB400805EB450108
:10459000132005EB4A0400EB01193A5D38A109A884
:1045A000FBF774FE0A98844208D0DBF82C0090F9DF
:1045B0001800A04202D00A98401C52D1DBF82C000F
:1045C00090F91800A04203D1FF231A4619460AE0C9
:1045D000385D0A2804D92848E838C068079005E003
:1045E00000231A46194607A802F054FBDBF82C00FA
:1045F00090F91800A04203D100231A46194602E0A0
:10460000FF231A46194608A802F044FBBDF81C1007
:10461000ADF814109DF81E108DF81610BDF820107E
:10462000ADF8101000209DF8221006908DF81210A1
:10463000DBF82C1091F91810A14202D0395D0A293B
:1046400001D9002100E0022109AACDE90020CDE92D
:10465000020120232A220FFA88F10FFA89F0FEF7CF
:104660004FFC6D1C062D91DB761C042E84DB0BB0F9
:10467000BDE8F08FD3D801084005002028000020B5
:104680002564000010B5084B65220C21074801F095
:1046900009FB054BBDE81040463365224FF48F718E
:1046A000024801F0FFBA0000B11E010840050020D9
:1046B00070B5244C0246D3B2A07EFF2800D1A37669
:1046C000607A814208D1A07E904205DDA07A617BAC
:1046D000884201D0401CA0721B48E57A0179491B31
:1046E0000025914217DB017B022914D0A17E914263
:1046F00011DDA572FF21A17645730221017301210D
:1047000021744571FEF738FE00F57A706063002071
:10471000FDF72EFD12E0A07E90420BDA03F034FA92
:10472000E17A401A904205DBA07A617B884201D091
:10473000A376A572A07A617B884201D1012070BD69
:10474000002070BD08000020780500201FB54FF440
:10475000E16004F001FF154C204606F095F868462C
:1047600006F03DF944F61F00ADF800000021ADF859
:10477000041040F2E730ADF802100290ADF80610D8
:104780006946204606F0C0F80121204606F010F9DF
:104790000121204606F008F9204606F0AFF8002275
:1047A0001146132004F084F91FBD000000200040D2
:1047B00030B5224D89B0284606F066F85320ADF892
:1047C000100000244FF4FA60ADF814400690ADF8E4
:1047D0001240ADF816408DF81C4004A9284606F09A
:1047E00093F801200090ADF80440ADF80840ADF812
:1047F0000640ADF80A40ADF80C406A460021284654
:1048000005F0EEFE00221146284606F006F860226A
:104810000021284605F0DAFF00221146284606F05E
:104820000BF80121284606F0D0F8284605F0D2FE04
:10483000284606F063F809B030BD0000004801408A
:1048400030B54FF0804589B0284606F01DF853205A
:10485000ADF8100000244FF4FA70ADF81440069043
:10486000ADF81240ADF816408DF81C4004A928465A
:1048700006F04AF801200090ADF80440ADF8084079
:10488000ADF80640ADF80A40ADF80C406A4600218C
:10489000284605F0A5FE00221146284605F0BDFF7A
:1048A00060220021284605F091FF082200212846B9
:1048B00005F0C2FF0121284606F087F8284605F0DA
:1048C00089FE284606F01AF809B030BD2DE9F041FE
:1048D0004B4F384603F027FB7D1501224FF09044E3
:1048E0002B461146204603F02AFA2B4603220021CC
:1048F000204603F04BFAA5616E00012233461146B3
:10490000204603F01CFA334603220021204603F020
:104910003DFAA66100E000BF2946204603F031FAC7
:104920000128F8D100E000BF2946204603F029FA0B
:104930000128F8D1A56200E000BF2946204603F017
:1049400020FA0028F8D1A66200E000BF31462046D8
:1049500003F017FA0028F8D1A66100E000BF314645
:10496000204603F00EFA0128F8D1A56100E000BF4F
:104970002946204603F005FA0128F8D12A460421E9
:10498000204603F0A5F932460421204603F0A0F9A1
:104990002B4600220221204603F0D1F92B460322A8
:1049A0000121204603F0F2F933460022022120467D
:1049B00003F0C5F9334603220121204603F0E6F94E
:1049C0004FF40041384603F0E8FA00BF00213846B2
:1049D00003F0E3FA00BF384603F0AAFA4FF480422E
:1049E0000849384603F01EFA002281231146384652
:1049F00003F0C8FA3846BDE8F04103F099BA000068
:104A000000540040801A06002DE9FE4F8346FEF751
:104A1000B3FC884C00250C266063E16A54274FF0F4
:104A200078080B684FF09E09A3F580724FF4FA6A7C
:104A300004F154009B3A07D1CA69D2F81CC09CF813
:104A400018C0BCF1040F03D0B3F5CE7F57D05BE0A4
:104A5000C2617848B430E062C261002005F004FD14
:104A6000754801F0ECFDFF231A46194602A802F032
:104A700011F90188ADF8001080788DF802006E48B9
:104A8000009901F0CBFFCDE900765C234E22722124
:104A9000694801F039F86949674801F016FE0023BA
:104AA0001A46194602A802F0F5F80188ADF8001080
:104AB00080788DF802006048009901F0AFFFFF2375
:104AC0001A46194602A802F0E5F80188ADF8001070
:104AD00080788DF802005848009900F0D9FF002234
:104AE00057A1554800F03BFF0646534801F007F830
:104AF00000EBD072A8EB620002B2009560E0CA69D8
:104B0000D3691B7E042B05D0C969C161BBF1020FBB
:104B10007ED089E0C2614B48E062E16CC161002057
:104B200005F0A2FC444801F08AFDFF231A4619460D
:104B300002A802F0AFF80188ADF8001080788DF877
:104B400002003D48009901F069FFCDE900765C2341
:104B50004E227221384800F0D7FF3849364801F01C
:104B6000B4FD00231A46194602A802F093F8018802
:104B7000ADF8001080788DF802002F48009901F000
:104B80004DFFFF231A46194602A802F083F8018858
:104B9000ADF8001080788DF802002748009900F0E9
:104BA00077FF002226A1244800F0D9FE06462248BD
:104BB00000F0A5FF00EBD072A8EB62010AB20095ED
:104BC00006EBD671A9EB610001B21DA31A4801F0F2
:104BD00064FDFF231A46194602A802F05BF801881B
:104BE000ADF8001080788DF802001348009901F0AC
:104BF00015FF00231A46194602A802F04BF8018857
:104C0000ADF8001080788DF802000B48009900E0A4
:104C100008E000F03DFF012005F026FC504602F0C0
:104C20001FFE02E0C969C161E062FEF7A5FB2063D7
:104C3000BDE8FE8F0800002040050020729F01089B
:104C40004F4B00003C0200200A4810B5C0790028F4
:104C50000FD0094CA5220021204605F0DEFD1420CE
:104C600002F0FEFD20460022BDE81040114605F08E
:104C7000D4BD10BD78050020004801407CB5314C02
:104C8000E56A686918B102B0BDE870400047A868DD
:104C900048B1A98839B195F9181000EB41100021ED
:104CA000C561E0620176E06A00680B2803D00C2839
:104CB00001D00D2817D100231A46194601A801F08A
:104CC000E9FF0188ADF8001080788DF802001E48D9
:104CD000009901F0A3FEC820034646220090114629
:104CE000194800F0BCFEE06A0068052816D1164895
:104CF000CC3805F0ABFA144ACC3A107802F090FDAB
:104D000013280BD8507802F08BFD0C2806D2E06AED
:104D10000C49C069D431E162E064C861A86810B18F
:104D2000E06A806858B1FCF795F8002005F09CFB1C
:104D3000FDF70CFCBDE87C40012005F095BBFEF7BB
:104D4000E5FBF2E70800002040050020810705D1BF
:104D5000642190FBF1F201FB120141B94FF4C871DB
:104D600090FBF1F201FB120008B100207047012016
:104D7000704700001FB500231A461946684601F027
:104D800089FF0188ADF80C1080788DF80E00264858
:104D9000039900F07DFEFF231A461946684601F08C
:104DA00079FF0188ADF80C1080788DF80E001E4850
:104DB000039901F033FE1C4801F041FC1B4B02AA91
:104DC00001A9194801F0DCF898B9BDF9081078225A
:104DD00001EBD171BDF90400A2EB61010AB200EB55
:104DE000D070A021A1EB600001B2104B0E4800F082
:104DF00059FF012005F038FB4FF4FA6002F030FD56
:104E000009483830007800284FF0000002D0FDF744
:104E1000AFF91FBD05F028FB034801F010FC024864
:104E200001F068FF1FBD000040050020825D010801
:104E300010B50F4CE16A086910B1BDE81040004799
:104E40008888002813D0002005F00EFBE06A017E60
:104E5000491C49B201768288914201DB002101762A
:104E6000FDF774FBBDE81040012005F0FDBA10BD50
:104E70000800002010B50F4CE06AC16811B1BDE810
:104E8000104008478088002813D0002005F0ECFA75
:104E9000E06A017E491E49B20176002902DA0179F1
:104EA000491E0176FDF752FBBDE81040012005F0D8
:104EB000DBBA10BD080000202DE9F041040001D547
:104EC000002402E0142C00DD1424184D1848E7B229
:104ED0002F70417ADFF85C801648202608F12808F8
:104EE00059B1202102F026FF20B1C8F800606420EB
:104EF00002F0B6FC6F70BDE8F0810A2C09DD0D48A8
:104F000018300660642002F0ABFCEC2000EB44009B
:104F100009E0202102F00EFF20B1C8F800606420F3
:104F200002F09EFC60006870E5E7000008000020C9
:104F3000780500200004004870B50C4D0120287051
:104F4000FEF774FF0A4C0020E071FEF71DFAFEF731
:104F500013FA6063FEF710FAE063A87A002804D120
:104F6000BDE870400A20FFF7A7BF70BD780500209C
:104F70000800002010B5002005F076FA0648A0F5DC
:104F80001571C86200210176FDF7E0FABDE8104016
:104F9000012005F069BA00005C02002070B502F043
:104FA00089FD342002F03AFD104D284602F044FD00
:104FB000342002F033FD0E4C4FF0FF32E821204642
:104FC000FEF76EFE21463B26C1F8E80005E02168A9
:104FD000284602F07FFD241D2D1D761EF7D23420B9
:104FE00002F01CFDBDE8704002F01EBD00F8010893
:104FF0007805002070B5124E0025124C86F8D55069
:10500000B6F8D600A0832846FFF756FF357001207A
:10501000A074A572FF20A0762574E573002005F02A
:1050200023FAA6F1380001F065FEA6F1380001F080
:1050300006FB03F075FEFEF79FF9606370BD00008C
:10504000780500200800002010B588B000204FF43B
:105050008271CDE9001002904FF400710590069026
:10506000CDE90310064C6946204605F040FA0021C0
:10507000204605F02DFA204605F034FA08B010BDA0
:105080000038004070B5002211461C2003F010FDCE
:105090001C4C204605F0E4FC0021204605F045FDAF
:1050A0000021204605F088FD0021204605F051FD35
:1050B0000421204605F045FD0821204605F055FD58
:1050C0004021204605F0E4FC4FF41651204605F03F
:1050D00091FC204605F0E4FC40F206752946204686
:1050E00005F0E3FC0028F9D00521204605F0E8FC96
:1050F0000421204605F0E4FCBDE87040642002F085
:10510000AFBB0000004400401FB500231A461946FB
:10511000684601F0BFFD0188ADF80C1080788DF86D
:105120000E002648039900F0B3FCFF231A461946E7
:10513000684601F0AFFD0188ADF80C1080788DF85D
:105140000E001E48039901F069FC1C4801F077FA33
:105150001B4B02AA01A9194800F012FF98B9BDF92A
:105160000810782201EBD171BDF90400A2EB6101B6
:105170000AB200EBD070A021A1EB600001B2104B8D
:105180000E4800F08FFD012005F06EF94FF4FA6033
:1051900002F066FB09483830007800284FF0000024
:1051A00002D0FCF7E5FF1FBD05F05EF9034801F0F2
:1051B00046FA024801F09EFD1FBD00004005002098
:1051C0001C6301082DE9FF4F804600699BB0002851
:1051D0007CD082781792022A01D0012A76D1D8F8A1
:1051E00014200792002216926FF063020C92C0788E
:1051F0000D9002910020CFE21E98435C00200990A0
:105200001890D8F810000524611C425C015D02EB87
:10521000012111F0FF0129D0E21C855CA21C9942FA
:10522000825C05EB02220FFA82F97CD1B9F1080FFA
:105230001CDB01211891211D04F1050B435C09932E
:1052400010F80B10E71D01F07F020492A21D00254B
:10525000825C0A92C05D049A00F07F0A9A1A17983D
:10526000A2EB0A06022802D0012871D06FE2C80919
:105270006FD00A9A0D99A9F10800891A0026A1EBAE
:105280000A070E96119096E0D8F8100001190E98B2
:105290000830085C95FBF7F10FFA81FB10F0C00FA6
:1052A00058D000F03F0A05EB0A010DB2B14606EBFB
:1052B0000A010EB2000678D5289840B1404698F809
:1052C000193098F8182098F8171007E077E2079837
:1052D000C0F30743C0F30722C1B2404601F0A6FB6A
:1052E0001D990A98084410903844401E00B2199045
:1052F0000299049808440B9018E01099199B01EB4F
:10530000090002B20B98584401B2404601F0CDF9B1
:10531000A7EB0901AAEB01000FFA80FA4FF0000990
:105320000BF1010000E046E20FFA80FB09EB0A00F6
:10533000B842E2DC1098484400EB0A0102B20B9834
:10534000491E0BB2584401B2404601F0AEF92CE0C0
:10535000D5E036E0289949B1404698F8193098F8D8
:10536000182098F8171001F061FB09E08006020E82
:105370004046079900F0BEFA0146404601F04EFB58
:105380001D990A980844304402B2049902980144D5
:1053900001EB0B0001B2404601F060FB6D1C761C76
:1053A0002DB236B201E0F01B06B2BE42FBDA0E9817
:1053B000401C00B20E900E9911988142FFF664AF26
:1053C000C5E10027A9F1080011900E97384691E039
:1053D000D8F8100001190E980830085C95FBF6F11A
:1053E0000FFA81FB10F0C00F53D000F03F0A05EB1D
:1053F0000A010DB2B94607EB0A010FB2000673D5D8
:10540000289838B1404698F8193098F8182098F83C
:10541000171006E00798C0F30743C0F30722C1B294
:10542000404601F003FB0499029808441090304470
:10543000401E00B219900A991D9808440B9016E07E
:105440000B981099584402B201EB090001B2404692
:10545000199B01F012F9A6EB0901AAEB01000FFA62
:1054600080FA0BF101004FF000090FFA80FB09EB05
:105470000A00B042E4DC1098484400EB0A01491EDF
:105480000BB20B9959440AB201B2404601F0F5F84B
:105490002AE0289949B1404698F8193098F8182020
:1054A00098F8171001F0C2FA09E08006020E404693
:1054B000079900F01FFA0146404601F0AFFA1D9926
:1054C0000A98014401EB0B0002B2029904980844C7
:1054D000384401B2404601F0C1FA6D1C7F1C2DB268
:1054E0003FB201E0B81B07B2B742FBDA0E98401C8E
:1054F00000B20E9011998842FFF66AAF27E1289812
:1055000040B1404698F8193098F8182098F81710CC
:1055100001F08CFAD8F81000C15DC9097ED010F8EE
:105520000B00C00962D00A9A0D99A9F10800891AE6
:1055300000261190A1EB0A070E96304652E000BFFC
:10554000D8F8100001190E980830085C00F07F09A7
:10555000C00939D095FBF7F00FFA80FB0299049847
:10556000B246084410900A991D9808440B901BE01D
:10557000384403B20B981099504402B201EB0B006F
:1055800001B2404601F091F8A7EB0A00A9EB000137
:105590000FFA81F92918304406B20BF101000DB25F
:1055A0004FF0000A0FFA80FB0AEB0900B8420B9893
:1055B000DEDC504400EB090102B210980BB25844F3
:1055C00001B2404601F071F805EB090005B206EBA7
:1055D000090000E0F01B06B2BE42FBDA0E98401C48
:1055E00000B20E9011998842AADBB0E00027A9F121
:1055F00008000E97109055E0D8F81000BA4601192F
:105600000E980830085C95FBF6F100F07F09C009A0
:105610000FFA81FB38D00299049800E047E0084473
:105620000B900A991D980844CDF844000AEB090034
:10563000B0421CDD0B98304403B21198584402B2BA
:105640000B98504401B2404601F017F8A6EB0A004F
:10565000A9EB00010FFA81F92918384407B20BF1C0
:1056600001000DB24FF0000A0FFA80FBDEE70B9944
:1056700001EB0A0000EB09010BB2119959440AB27F
:1056800001B2404600F0F9FF05EB090005B207EB57
:10569000090000E0B81B07B2B742FBDA0E98401CC5
:1056A00000B20E900E9910988142A5DB4FE00027C2
:1056B000A9F108000597BB460F9045E0D8F8100007
:1056C00001190BF10800085C0E9001E0B81B07B24D
:1056D000B742FBDA0598B94690FBF6F00FFA80FA6C
:1056E0005FF0000509EB0500B04205D10AF10100A9
:1056F000C5F100090FFA80FAC5F1070101208840C1
:105700000E9900B2014211D10A991D98014401EB92
:105710000A00411C0BB202B204990298014401EB49
:105720000900284401B2404600F0BFFF6D1CEDB2F5
:10573000082DD7D30BF101000FFA80FB0598083034
:1057400000B208373FB205900F998B45B6DB299818
:1057500080B1169940566FF0630188420ADD0C90C3
:10576000169A2998104490F90100884202DD501CD5
:1057700000B21690189860B102990998084400B2D6
:1057800002900C9810F1640F03DD0299084400B2F6
:1057900002901598401C00B215901E98FAF7B2FEC0
:1057A000159988423FF628AD07991FB04046BDE8DD
:1057B000F04F01F033B904EB09010CB224E51FB03E
:1057C000BDE8F08F2DE9F34705462DED020B2DEDD9
:1057D000068BB0EE408AF0EE608A88B09FED410BF8
:1057E0009FED429B9DF8469053EC102B51EC180B0B
:1057F00005F07CFD09D2BDF8440040EA094008B03C
:10580000BDEC068B04B0BDE8F08753EC192B51ECCE
:10581000180B05F0A5FE03D2B0EE498AF0EE698AB6
:10582000287D05F04FFD53EC182B05F09BFD41EC56
:105830001A0B53EC182B51EC190B05F093FF88460B
:10584000044648EC190B9DF8440005F03BFD53EC71
:10585000192B05F087FD53EC1A2B05F077FA05F0AC
:10586000BDFC0646687D05F02DFD53EC182B05F0B8
:1058700079FD41EC1A0B48EC194B9DF8450005F0F9
:1058800021FD53EC192B05F06DFD53EC1A2B05F09F
:105890005DFA05F0A3FC0746A87D05F013FD53EC67
:1058A000182B05F05FFD41EC180B48EC194B4846EE
:1058B00005F008FD53EC192B05F054FD53EC182BA3
:1058C00005F044FA05F08AFCC3B2FAB2F1B205A8B9
:1058D00001F0E0F90188ADF80010827841EA024059
:1058E0008DE7000000000000000000000000000044
:1058F0000000F03F7FB5CCB2C2F1FF0314FB03F40C
:10590000C57D15FB0245C1F3072414FB03F4067E95
:1059100016FB0244C1F3074111FB03F1407E10FB6B
:105920000213C82295FBF2F094FBF2F193FBF2F222
:10593000FF2800DDFF20FF2900DDFF21FF2A00DD19
:10594000FF22D3B2CAB2C1B203A801F0A3F9018801
:10595000ADF80010827804B041EA024070BD2DE934
:10596000F74F0646006900284FD04FF000096FF04E
:10597000630B4D464C4642E001984FF0000A5346F7
:1059800010F804C0306905214A1C475C825C02EBB8
:10599000072212F0FF0212D0CF1C10F807808F1CD4
:1059A0006245C75D08EB07273FB205D1082F06DB2C
:1059B00001230A1D10F802A0394409B2E4E7029855
:1059C00088B110F909006FF0630188420BDD029A7B
:1059D000834602EB090090F90100884203DD09F1DA
:1059E00001000FFA80F943B105EB0A0005B21BF183
:1059F000640F02DD05EB0B0005B2641C24B20198B4
:105A0000FAF780FDA042B7D82846BDE8FE8F2DE901
:105A1000F0418046CD18A81E03B217460E464046F8
:105A2000069C00F02AFE3C44A01E6D1E03B22DB25F
:105A30003A462946404600F038FE641E701C24B2E7
:105A400001B22B462246404600F017FE7F1C23463B
:105A50003AB231464046BDE8F04100F026BE2DE99D
:105A6000FC411E46054613460C461430089F01F0C3
:105A700006F90146D819A219401E521E00B212B2F0
:105A8000CDE900202246284600F023FDBDE8FC8138
:105A900003B5BDF80410A0F817109DF80610417664
:105AA0000CBD10B5417300240473B0F90630B0F991
:105AB0000420012907D002290AD0032903D002813A
:105AC0004381447310BD038142810121017310BDE4
:105AD0000281438110BD704713B5034601A801F050
