:020000040800F2
:10000000D82100204D0200088D3700084D36000829
:100010001D3700086D1500082D3D00080000000088
:10002000000000000000000000000000E9390008A6
:100030003917000800000000D1370008EB3900082C
:1000400067020008670200083139000867020008EB
:1000500067020008670200086702000867020008DC
:1000600067020008670200086702000867020008CC
:1000700067020008670200086702000867020008BC
:10008000670200086702000800000000513B0008FA
:10009000670200086702000867020008670200089C
:1000A000670200086702000867020008670200088C
:1000B000CD3C0008000000006702000800000000BE
:1000C000670200080000000067020008000000004E
:1000D0000000000000000000000000000000000020
:1000E000000000000000000067020008000000009F
:1000F0000000000000000000000000000000000000
:10010000670200080000000000000000000000007E
:1001100000000000000000000000000000000000DF
:1001200000000000000000000000000000000000CF
:1001300000000000000000000000000000000000BF
:10014000000000000000000000000000670200083E
:1001500000F002F800F06AF80AA090E8000C82446F
:100160008344AAF10107DA4501D100F05FF8AFF24C
:10017000090EBAE80F0013F0010F18BFFB1A43F085
:10018000010318472CDE01004CDE01000A444FF049
:10019000000C10F8013B13F0070408BF10F8014BE6
:1001A0001D1108BF10F8015B641E05D010F8016B2B
:1001B000641E01F8016BF9D113F0080F1EBF10F88F
:1001C000014BAD1C0C1B09D16D1E58BF01F801CBB2
:1001D000FAD505E014F8016B01F8016B6D1EF9D535
:1001E0009142D6D37047000000230024002500264A
:1001F000103A28BF78C1FBD8520728BF30C148BF8A
:100200000B607047642900F0A580732900F08D838E
:10021000002070471FB50BF098FB9DE8030000F02D
:100220001DFD00F0DDFA1FBD10B510BD00F0D0FCC3
:100230001146FFF7EFFF08F083FC00F045FD03B423
:10024000FFF7F2FF03BC00F071FD00000948804792
:1002500009480047FEE7FEE7FEE7FEE7FEE7FEE7A8
:10026000FEE7FEE7FEE7FEE704480549054A064BC0
:1002700070470000F939000851010008D807002034
:10028000D8210020D81D0020D81D00200FB41CB597
:10029000074B06AA7B4469460090059800F01BFBBB
:1002A0000020694600F02AFB1CBC5DF814FB00002E
:1002B0006506000070B5044685690068C10601D571
:1002C000302600E02026C00707D070BDD4E9012108
:1002D00030469047206A401C20626D1EF6D570BDE6
:1002E00070B5044685690078C00707D170BDD4E9B0
:1002F000012120209047206A401C20626D1EF6D507
:1003000070BD70B50C460546012A05D028788006D8
:1003100000D5EA69002302E0012305E05B1C93425B
:1003200002D2E05C0028F9D1A869E618C01AA861D9
:10033000286A184428622846FFF7BCFF04E0D5E984
:10034000012114F8010B9047B442F8D32846FFF777
:10035000C7FF70BD2DE9F0410646002410687529DD
:10036000314616A510D0AFF30080002802DA4042D3
:1003700013A507E031688A0701D512A502E04907F5
:1003800004D511A5012401E0AFF3008000210A2269
:1003900006F1240709E0B0FBF2FCB0FBF2F302FB2C
:1003A0001C00303078541846491C0028F3D12346ED
:1003B0002A463046BDE8F04100F02FBA00000000A8
:1003C0002D0000002B000000200000002DE9F05F50
:1003D000894604464FF0000ADFF824B1FB44C0F818
:1003E00020A02046E168884700287DD0252806D037
:1003F000D4E901219047206A401C2062F1E70025E2
:100400005F462046E16888472028064607DB312EF4
:1004100005D2B81910F8200C08B10543F1E7A80778
:1004200001D525F00405C4F81CA00027C4F818A0C5
:100430002A2E09D0304607F0D1F938B304EB8708EB
:10044000303EC8F8186019E059F8041B204604EB48
:1004500087029161E1688847012F064618D1E0695B
:10046000002820DA25F020051DE0D8F8180000EB60
:10047000800006EB40003038C8F818002046E168DC
:100480008847064607F0AAF90028EED1012F0AD0C6
:100490002E2E08D12046E16888477F1C0646022F91
:1004A00045F02005C4DBA069002803DA404245F08E
:1004B0000105A061E80701D025F01005A6B1A6F15D
:1004C0004100192802D8203645F400654A463146D5
:1004D000204625604D46FFF795FE60B1012807D004
:1004E000ED1D25F0070000E007E000F1080978E7BE
:1004F00005F1040975E730467AE7206ABDE8F09F08
:10050000C0DA010010B5431C02E010F8011B71B104
:100510008107FAD14FF0013202C88C1A8C4314EAD9
:10052000C211F9D0C01A0A0603D0C01E10BDC01AED
:1005300010BD0A0401D0801E10BD0902FCD0401E6F
:1005400010BD032A40F2308010F0030C00F015803B
:1005500011F8013BBCF1020F624498BF11F801CBC6
:1005600000F8013B38BF11F8013BA2F1040298BF2B
:1005700000F801CB38BF00F8013B11F0030300F095
:10058000D881083AC0F0088051F8043B083A51F885
:1005900004CBA0E80810F5E7121D5CBF51F8043B3E
:1005A00040F8043BAFF30080D20724BF11F8013BB1
:1005B00011F801CB48BF11F8012B24BF00F8013B13
:1005C00000F801CB48BF00F8012B704702F0FF0391
:1005D00043EA032242EA024200F002B84FF000026E
:1005E0000429C0F0128010F0030C00F0D681CCF189
:1005F000040CBCF1020F18BF00F8012BA8BF20F8B3
:10060000022BA1EB0C0100F0C8B95FEAC17C24BF4A
:1006100000F8012B00F8012B48BF00F8012B7047B0
:10062000014900F0DFB900004C07002010B5036855
:100630001C1404EB21449BB289B2194494FBF2F3DD
:1006400002FB134394FBF2F401EB034393FBF2F13F
:1006500002FB113193FBF2F301E05B1E1144002910
:10066000FBDB016003EB044010BDF0B504464FF026
:10067000FF3585B00068049060680290A068039020
:10068000E068019020690090666906F18040B0F151
:10069000004F7CD83C22002104A8FFF7C7FF3C2272
:1006A000014602A8FFF7C2FF1822014603A8FFF780
:1006B000BDFF411E40F2B55201A8FFF7B7FF0C2263
:1006C000074668460021FFF7B1FF414B00EB87006A
:1006D000304400267B4411E0511A01910099491CD5
:1006E0000229009102D00C2908D105E0810705D02C
:1006F0000199491C019101E0401C00960099019A62
:10070000595C9142E8DD0099012906D11C2A04D1E7
:10071000810702D00221CDE90016A0F146018B2904
:100720003CD2DDE90061002202E09F5C521C3944AA
:10073000B242FADB012E02DD820700D0491E40F2F0
:10074000B55340F26D16C21700EB927292105A43E5
:1007500000F0030303FB062283070A4400D1521E64
:10076000039E02EB4203049F06EBC303029EC3EB0E
:10077000031306EB8303174E33441E149BB2C6EBE0
:100780000616C3EB0313B60007EB830300E005E096
:1007900006EB134666F31F43360C02D0284605B01D
:1007A000F0BD80C4029E40C4039E40C4019E761CDE
:1007B00044F80C6B009E44E902600720521C92FB37
:1007C000F0F600FB162084E823001846E7E7000057
:1007D0001CD80100A039CEFD70477047704700005B
:1007E00070B5064C7C44064D7D4403E020682044EF
:1007F0008047241DAC42F9D170BD0000E8D701004C
:10080000ECD7010010B500F04DF9006810BD10B52F
:10081000044600F047F9046010BD2DE9F0470D468D
:1008200099469246044600F124080168880604D5DA
:10083000E06921F01001216000E00120A84201DD03
:10084000471B00E00027A1697A1902EB0900081A8A
:10085000A0612078C00602D42046FFF72BFD0026B9
:1008600008E0D4E901211AF806009047206A401CEC
:10087000761C20624E45F4DB2078C0060AD520465F
:10088000FFF718FD06E0D4E9012130209047206AE7
:10089000401C2062381EA7F10107F4DC07E0D4E910
:1008A000012118F805009047206A401C2062281E8C
:1008B000A5F10105F3DC2046FFF712FD20780006C4
:1008C00002D50220BDE8F0870120FBE701694A1C40
:1008D00002610878704700B58FB0CDE90131002181
:1008E000059105497944CDE9031011466846FFF7A3
:1008F0006DFD0FB000BD0000E5FFFFFF0A6802F8C4
:10090000010B0A60704710B5436913B1AFF3008063
:1009100001E0FFF7F6FC012010BD127800F1240180
:100920000A7000224A700122EDE711684FF0FF3291
:10093000E9E710B5203AC0F00B80B1E81850203A32
:10094000A0E81850B1E81850A0E81850BFF4F5AF6F
:100950005FEA027C24BFB1E81850A0E8185044BFF9
:1009600018C918C0BDE810405FEA827C24BF51F866
:10097000043B40F8043B08BF7047D20728BF31F85A
:10098000023B48BF11F8012B28BF20F8023B48BFAB
:1009900000F8012B70474FF0000200B51346944653
:1009A0009646203922BFA0E80C50A0E80C50B1F1C7
:1009B0002001BFF4F7AF090728BFA0E80C5048BFDB
:1009C0000CC05DF804EB890028BF40F8042B08BF79
:1009D000704748BF20F8022B11F0804F18BF00F875
:1009E000012B704770B50C46016800204A1C3ED0B0
:1009F0003C22B1FBF2F302FB1313B1FBF2F12360D3
:100A0000B1FBF2F302FB1313B1FBF2F118226360A6
:100A1000B1FBF2F302FB1313B1FBF2F146F2E03249
:100A20000A440721A360B2FBF1F301FB132140F25A
:100A3000B553B2FBF3F5A161B2FBF3F103FB152251
:100A40008900B2F5B77F08D39B10521EB2FBF3F5B5
:100A50002944B2FBF3F503FB15220F4BE261616100
:100A600089077B440CD03B2A0AD3521C08E02C2176
:100A70002046FFF790FF0120E0600AE0521A401C78
:100A8000195C9142FAD9521CC4E903204FF0FF309F
:100A90002062204670BD00008ED4010000487047DF
:100AA000AC070020004870477807002070B5064664
:100AB00000F0B4F8056806F10B0020F00704B4421A
:100AC0009CBF002070BD2B466A68BAB11068A04276
:100AD00010D304F1080188423CBF5068586007D326
:100AE0005168101941601168091B01605860146059
:100AF000101D70BD13465268002AE7D121462846D2
:100B000000F098F80028DED170BD70B50446051FCE
:100B100000F084F80068002C14BF446870BD002CFD
:100B200018BFAC423CBF20466468F8D301680A187D
:100B3000AA4218BF456003D12A68054611440160E6
:100B400028684119A1421CBF6C6070BD6168696072
:100B500021680844286070BDAFF3008010B500F034
:100B60000EF8016919B100220261884701E080682E
:100B7000804700F0B2F8000010B500F0AEF870B594
:100B800000F050F804680546A4B92020FFF78EFF56
:100B9000040011D0094900202C60C4E90001084973
:100BA000A1602073206160610649A06109B100F075
:100BB0009FF8E061204670BD00F08FF80000000053
:100BC000790B0008000000000048704778070020FB
:100BD0007546FFF7F9FFAE4605006946534620F01B
:100BE0000700854618B020B5FFF73EFBBDE8204062
:100BF0004FF000064FF000074FF000084FF0000BD9
:100C000021F00701AC46ACE8C009ACE8C009ACE88B
:100C1000C009ACE8C0098D46704700000048704725
:100C20008007002000487047B407002070477047D5
:100C30007047704738B504460A4600206946AFF34E
:100C40000080002808BF38BD02460099204600F009
:100C500073F8012038BD012000F08FB8F8B5AFF36C
:100C60000080054600200C46102000BF0646A8194B
:100C7000A0420DD9324669460020AFF3008007003C
:100C800008BF00F07AF80098A04218BF0546C419C2
:100C9000FFF7C4FF05600746F01D20F00700461966
:100CA000284600F00AF8B44208BFF8BDA21B31463E
:100CB0003868BDE8F84000F03FB800210160C0E9A5
:100CC000011070471020704710B50446AFF3008044
:100CD0002046BDE81040FFF7B2BA10B5002000F082
:100CE00045F8FFF7A1FABDE81040012000F01EB85A
:100CF00010B58820FFF7DAFE002801D0002101702E
:100D000010BD802902D808B1017809B100207047D0
:100D1000012100F8081B704718B100F10802914248
:100D200001D0002070470021017070470149182050
:100D3000ABBEFEE726000200034640688C46002852
:100D400018BF88423CBF03464068F8D3186818446F
:100D5000884207D00CF1030020F00700001D411A63
:100D6000521A0146081D0A60FFF7CFBE10B500F009
:100D700011F8BDE8104000F008B810B500F022F8F6
:100D8000BDE8104000F001B87047002801D0FFF71F
:100D9000CDBF704710B5002102A000F03BF8012044
:100DA00010BD0000534947414252543A2041626EFF
:100DB0006F726D616C207465726D696E6174696FBC
:100DC0006E00000010B5012805D0002103A000F03E
:100DD00021F8012010BD09A1F8E70000534947524E
:100DE000544D454D3A204F7574206F6620686561FB
:100DF00070206D656D6F7279000000003A204865C3
:100E00006170206D656D6F727920636F727275709D
:100E10007465640070B505460C460A2000E06D1C40
:100E200000F011F835B128780028F8D102E0641CF0
:100E300000F009F814B120780028F8D1BDE870401E
:100E40000A20AFF3008008B569468DF80000032042
:100E5000ABBE08BD2DE9FE4FFE4DFF4E05F11C0E49
:100E6000A86A9EF80120002701684FF0010B05F1E8
:100E70001E0A06F10E0906F14404352970D030DC53
:100E80001F2962D01BDCF34A0D2902F1500292782F
:100E900055D006DC0B2950D00C297CD1F2700120F2
:100EA00009E015294DD0162975D186F80AB0007EC3
:100EB000401CF0720220BDE8FE4F03F0F5BE202971
:100EC0004FD02B2968D0332967D0342963D1727170
:100ED000002A7CD0B77286F82D706F7102F0B8FBD3
:100EE000DDE7DC4B40F2B9181C33A1F2B91C93F9D1
:100EF000013041456CD00FDCDFF85C83A1F58071D7
:100F000008F170089B397CD001297BD00A297AD05E
:100F10000B2940D13272C2E7BCF1450F74D0BCF14D
:100F2000460F72D0BCF1590F70D0ACF5606CBCF5B7
:100F3000CB7C30D109F050F8B1E7B270AFE7327135
:100F4000ADE7B77214206872B4E786F82D20002A46
:100F5000A5D006F0D9FE032800D137737771BCE71E
:100F6000A1E2017E491C49B2017601297ED1218985
:100F7000A088C1EB011100EB8100F0856883B648C1
:100F8000383805F06EFCFF231A46194602A805F012
:100F900093FF018802E01AE1AAE094E2ADF80010A4
:100FA00080788DF80200AC480099383805F048FE8A
:100FB0000C215420CDE90001A7485C234E22722168
:100FC000383804F0B3FEA448A449383801E068E298
:100FD0009FE205F08CFC00231A46194602A805F092
:100FE0006BFF0188ADF8001080788DF802009A48F8
:100FF0000099383805F024FEFF231A46194602A846
:1010000005E077E092E179E268E270E253E205F010
:1010100053FF0188ADF8001080788DF802008E48EB
:101020000099383804F046FE8B4800228CA13838ED
:1010300004F0CFFD80468848383804F072FE00EB9B
:10104000D0727821A1EB62010AB208EBD8719E2020
:10105000A0EB610001B2804881A33838009705F009
:101060002EFCFF231A46194602A800E02DE005F0E9
:1010700023FF0188ADF8001080788DF802007648D3
:101080000099383805F0DCFD00231A46194602A8FD
:1010900005F012FF0188ADF8001080788DF802008D
:1010A0006D480099383804F005FE4FF47A7006F068
:1010B000D7FC6948383805F0D4FB02F0C1FA286340
:1010C00002F0BEFAE86202F0C3FAA86A007E0228C3
:1010D0007DD12189A088C1EB011100EB8100F08551
:1010E0006883012003F0E0FDBDE8FE4F02F0B0BAD6
:1010F000F271D4E6017E491C01765748703009F040
:101100003DF8A86A90F91800401E02287DD204F12B
:101110000C0007C807F035F878B32069401E20613D
:101120006069A0F26C7060614B484430FFF79DFA33
:1011300000906846FFF774FA806900B9072088F8C4
:101140000300207D43466438C0B206F07DFC187071
:10115000207C401CC0B206F077FC5870207B06F063
:1011600073FC98703C48703009F07EF82069401C90
:101170002061606900F26C7060613748383805F0B2
:1011800070FBFF231A46194602A805F095FE018858
:10119000ADF8001080788DF802002F48009938389B
:1011A00005F04EFD0C215420CDE900012A485C23B6
:1011B0004E227221383804F0B9FD274827493838C3
:1011C00005F095FB00231A46194602A800E0A8E0A6
:1011D00005F072FE0188ADF8001080788DF80200ED
:1011E0001D480099383805F02BFDFF231A46194693
:1011F00002A805F061FE0188ADF8001080788DF836
:10120000020015480099383800E054E004F052FD1F
:101210001148002212A1383804F0DBFC06460E48C3
:10122000383804F07EFD00EBD0717820A0EB61002F
:1012300002B206EBD6719E20A0EB610001B2064817
:1012400007A33838009705F03AFBFF231A461946E2
:1012500002A807E008000020F0050020B589010879
:101260004F4B000005F028FE0188ADF80010807893
:101270008DF80200B848009905F0E2FC00231A46F8
:10128000194602A805F018FE0188ADF80010807814
:101290008DF80200B048009904F00CFD4FF47A700C
:1012A00006F0DEFBAC4805F0DCFA02F0C9F9286371
:1012B00002F0C6F9E862A86A007E032831D104F181
:1012C0000C0007C806F05DFF68B32069401E20616E
:1012D0006069A0F26C7060619F487C30FFF7C5F9CF
:1012E00000906846FFF79CF9806900B9072088F8EC
:1012F0000300207D43466438C0B206F0A5FB187099
:10130000207C401CC0B206F09FFB5870207B06F08A
:101310009BFB98709048A83008F0A6FF012003F0CE
:10132000C3FCBDE8FE8FA86A0776FAE7017E491C78
:1013300001768948A83008F021FFA86A007E0128BC
:101340007ED1207A06F080FB88F80400434620799D
:1013500006F07AFB587180489F71A83008F084FF2E
:101360007D4805F07EFAFF231A46194602A805F0CB
:10137000A3FD0188ADF8001080788DF80200764852
:10138000009905F05DFC0C215420CDE900015C239F
:101390004E227221704804F0C9FC70496E4805F075
:1013A000A6FA00231A46194602A805F085FD018811
:1013B000ADF8001080788DF802006748009905F0BC
:1013C0003FFCFF231A46194602A805F075FD018867
:1013D000ADF8001080788DF802005F48009904F0A5
:1013E00069FC0022AFF288115B4804F0F2FB06466C
:1013F000594804F096FC00EBD0717820A0EB610016
:1014000002B206EBD6719E20A0EB610001B2AFF2F2
:10141000B0135148009705F052FAFF231A461946B7
:1014200002A805F049FD0188ADF8001080788DF81C
:1014300002004948009905F003FC00231A4600E029
:101440001AE0194602A805F037FD0188ADF8001032
:1014500080788DF802004048009904F02BFC4FF48E
:101460007A7006F0FDFA3C4805F0FBF902F0E8F866
:10147000286302F0E5F8E862A86A007E02287FF49B
:1014800054AF207A06F0E0FA88F804004346207949
:1014900006F0DAFA587130489F71A83008F0E4FE7F
:1014A000FDE43773FBE42E49027EC861B018A962DF
:1014B000407D087635E7017EC06990F918202648FE
:1014C0004D301154EBE490F918208AF8002024499B
:1014D00012F809208AF80120403904E02049027EF0
:1014E0008AF801202039C861A9620F7619E79AF9B4
:1014F00000209AF8011002F80910D0E423B100206E
:10150000B07118B12F75CAE40120F9E785F814B05D
:10151000C5E47146BBB1027E521C52B20276012A6A
:1015200015D0022AC6D102F013FA03F07FFEBFF3F2
:101530004F8F0C4801680C4A01F4E06111430160CF
:10154000BFF34F8FFEE7BDE8FE4F02F0E9B881F828
:1015500001B08EF800B0E4E6B8050020B5890108B6
:101560009C0100200CED00E00400FA05FEE70000FD
:1015700070B5FF2388B015460E4604461A46194634
:1015800007A805F099FC0188ADF8001080788DF867
:1015900002001C48009905F053FB22461AA101A83D
:1015A000FEF774FE1949174805F0A1F9002201A9B8
:1015B000144804F00EFB044600EBD470A521A1EB07
:1015C000600006440020009001AB05F13C0231B2FE
:1015D0000C4805F04DFB0E490A4805F088F90DA0AE
:1015E0000DA30068069006A80090301901B20C46C1
:1015F00005F13F02034805F03BFB0848448408B06E
:1016000070BD0000B805002025640000DA6E0108F6
:10161000EB870108F99C0000B0430000080000209F
:101620000848816A8A88002A0AD091F91800431C68
:101630005BB20B76934201DB00220A7603F0FCB822
:1016400070470000080000200848816A8A88002A44
:101650000AD091F91800431E5BB20B76002B01DA19
:10166000521E0A7603F0E8B8704700000800002018
:10167000184810B5806A184C90F91800022803D059
:10168000012811D0B8B120E0E068401EE0601CD114
:101690001F2001E0E068401EE060D4E9041206F07B
:1016A00070FD0028F6D010E02069401E20610CD1AA
:1016B0000C20206109E0606940F2E371401E606126
:1016C000884202DA40F633006061BDE8104000F065
:1016D00035B80000080000203406002070B514481A
:1016E000144C0125806AD4E9041290F918000228EC
:1016F00003D0012809D070B116E0E068401CE0601A
:1017000006F03FFD80B9E5600EE0491C21610D291E
:101710000AD1256108E0521CA2F5006062613438EC
:1017200002D140F2E3706061BDE8704000F006B89D
:101730000800002034060020704700002DE9F04F1B
:10174000FE4FADB0B86A00680B2806D00C2804D054
:101750000D2802D0FA4805F084F8B86AF74C40F238
:101760009B1200681C3401250026A0F29B114FF04B
:10177000A0094FF0020A04F1380B90427ED01EDC23
:1017800020287CD012DCDFF8B4836FF0180A08F14F
:1017900050080D2874D004DC0B28FBD00C282ED167
:1017A000BBE016286DD01F2829D16DE12B28FCD075
:1017B000332867D0342866D0352820D1E5E3DFF818
:1017C0007C83632908F11E087DD00CDC0B29ECD04A
:1017D00004DC0129D5D00A2911D1DCE11E2973D0FE
:1017E0001F290CD107E364296FD0782477296DD0A5
:1017F000B1F5137F05D0A1F57061B43967D0D1A0E0
:10180000C4E3FF231A4619461AA805F055FB0188C0
:10181000ADF8001080788DF80200C948009905F0F5
:101820000FFA0C215420CDE900015C234E227221D5
:10183000C34804F07BFAC749C14805F058F80023B3
:101840001A4619461AA805F037FB0188ADF80010B2
:1018500080788DF80200BA48009905F0F1F9FF236D
:101860001A4619461AA805F027FB0188ADF80010A2
:1018700080788DF80200B248009905E0E1E1E3E1EB
:1018800051E059E03EE3A6E004F014FA0022B2A1D0
:10189000AB4804F09EF9ADF82800A94804F041FADD
:1018A000ADF81C0000EBD070BDF92810A4EB60006F
:1018B00002B201EBD1709E21A1EB600001B2A6A3A0
:1018C0009F48009604E0F0E3C1E1EFE3EFE3EDE2CF
:1018D00004F0F5FFFF231A4619461AA805F0ECFAA2
:1018E0000188ADF8001080788DF8020094480099C6
:1018F00005F0A6F900231A4619461AA805F0DCFAE5
:101900000188ADF8001080788DF802008C480099AD
:1019100004F0D0F92DB0BDE8F08F03F003F88FA0EC
:1019200001F0F8FB01E002F0FDFF98F902000F2240
:10193000514601F01DFCEDE78CA001F08DFBB86A6B
:1019400090F91800411C01EB4101890000EB800077
:1019500001EB8000ADF82800002423E0784804EB78
:101960004405E83828440188ADF8001080788DF8E7
:1019700002007348009905F063F9BDF928005A2167
:10198000009100EBD071A9EB610000EB850004EB46
:10199000840100EB810001B20C234B22684804F063
:1019A00070F9641CB86A90F91800401CA042D5DC9C
:1019B000FF231A4619461BA805F07EFA0188ADF8E8
:1019C000001080788DF802005D48009905F038F924
:1019D00002F0A8FF9EE7002167A001F06BFB5D49C4
:1019E000574804F084FF00231A4619461DA805F045
:1019F00063FAFF2307461A4619461CA805F05CFA4D
:101A0000014606953888ADF81400B8788DF81600B0
:101A10000888ADF8100088788DF81200607800B161
:101A2000012058A10091CDE9010664231A46194608
:101A30001420039601F0F4FB00231A4619461CA853
:101A400005F03AFAFF2307461A4619461DA805F085
:101A500033FA06953988ADF81410B9788DF8161058
:101A60000188ADF8101080788DF81200607848B1C8
:101A7000002045A10091CDE9010664231A461946CC
:101A8000039658E00120F4E732492D4804F02FFF77
:101A900000231A4619461FA805F00EFAFF23074631
:101AA0001A4619461EA805F007FA06953988ADF8BA
:101AB0001410B9788DF816100188ADF810108078E0
:101AC0008DF81200207800B10120617801B1012168
:101AD0002CA2CDE90021CDE9020664231A46462155
:101AE000142001F09DFB00231A4619461EA805F09C
:101AF000E3F9FF2307461A4619461FA805F0DCF94B
:101B000006953988ADF81410B9788DF8161001884B
:101B1000ADF8101080788DF81200207868B10020A0
:101B2000617899B3002118A2CDE900216423CDE9A1
:101B300002061A464621C820E1E128E008000020FC
:101B4000B80500204E6F7420696D706C656D656E10
:101B500074656400B58901084F4B000045636F2030
:101B60003C20436F6D666F7274000000506F7765A4
:101B700072206C6576656C0050726F6772616D6D76
:101B8000650000004F4E00004F46460001E0012076
:101B9000C6E70121C7E7FE49FE4804F0A8FE00237E
:101BA0001A46194621A805F087F9FF2307461A4669
:101BB000194620A805F080F906953988ADF814106B
:101BC000B9788DF816100188ADF8101080788DF86E
:101BD0001200607800B10120EFA10091CDE901066B
:101BE00078231A463C211420039601F019FB0023A8
:101BF0001A46194620A805F05FF9FF2307461A4642
:101C0000194621A805F058F9014606953888ADF81F
:101C10001400B8788DF816000888ADF810008878A0
:101C20008DF81200607850B10020DCA10091CDE960
:101C3000010678233C211A46B42003965FE1012077
:101C4000F3E702F0E3FB65E602F0F2FC62E6D54959
:101C5000D04804F04CFEB86A90F9180010B1012881
:101C60004DD072E000231A46194609A805F024F960
:101C7000FF2307461A46194608A805F01DF9014634
:101C800006953888ADF81400B8788DF816000888E5
:101C9000ADF8100088788DF81200C3A0CDE90006D9
:101CA0004FF4A077002102963C233A46084603965B
:101CB00001F0B6FA00231A46194608A805F0FCF808
:101CC000FF2380461A46194609A805F0F5F806953F
:101CD000B8F80020ADF8142098F802108DF816100E
:101CE0000188ADF8101080788DF81200B3A0CDE90E
:101CF00000063C2302963A462D21039622E000235B
:101D00001A46194609A805F0D7F8FF2307461A46D0
:101D1000194608A805F0D0F806953988ADF81410D2
:101D2000B9788DF816100188ADF8101080788DF80C
:101D30001200A5A0CDE900063C2302964FF4A07244
:101D400000210396002001F06BFA9649914804F0B7
:101D5000CEFD00231A46194623A805F0ADF8FF234F
:101D600007461A46194622A805F0A6F806953988AE
:101D7000ADF81410B9788DF816100188ADF8101070
:101D800080788DF81200607800B1012092A1009156
:101D9000CDE901065A231A4673211420039601F057
:101DA0003FFA00231A46194622A805F085F8FF23BA
:101DB00007461A46194623A805F07EF801460695FF
:101DC0003888ADF81400B8788DF816000888ADF89A
:101DD000100088788DF81200607850B100207FA143
:101DE0000091CDE901065A2373211A46D2200396A9
:101DF00085E00120F3E76B49664804F078FD002395
:101E00001A46194625A805F057F8FF2304461A4636
:101E1000194624A805F050F806952188ADF814104D
:101E2000A1788DF816100188ADF8101080788DF823
:101E300012006BA0CDE900064FF4A07702963C2378
:101E40003A4646210020039601F0EAF969A36BA205
:101E50006DA115A8FEF71AFA002215A94D4803F046
:101E6000B8FE0023ADF828001A46194624A805F04C
:101E700023F8FF2304461A46194625A805F01CF846
:101E800006952188ADF81410A1788DF816100188F8
:101E9000ADF8101080788DF8120015A8CDE9000675
:101EA0003C2302963A467321039627E03D49394880
:101EB00004F01DFD00231A46194627A804F0FCFF74
:101EC000FF2304461A46194626A804F0F5FF0146EA
:101ED00006952088ADF81400A0788DF816000888C3
:101EE000ADF8100088788DF8120049A0CDE9000601
:101EF0003C2302964FF4A07246210396002001F085
:101F00008FF907E52348CC3808F038F90024BA46A1
:101F1000B046204838300719B87B072801D987F820
:101F20000E80FF231A46194628A804F0C5FF018831
:101F3000ADF8001080788DF802001648009904F082
:101F40007FFE3749134804F0D2FC00231A46194695
:101F500029A804F0B1FFFF2306461A46194628A80F
:101F600004F0AAFF06953188ADF81410B1788DF809
:101F700016100188ADF810102A4980788DF81200EB
:101F800051F83420CDE900284EE0ADE1FFE100003A
:101F9000B5890108B80500203530250031303025DD
:101FA0000000000041980108526573657420616C5F
:101FB0006C20646576696365000000007365747465
:101FC000696E67733F00000041726520796F75206C
:101FD000737572653F000000596573004E6F000015
:101FE00043757272656E74206669726D7761726591
:101FF0000000000031322E352E30000076657273FD
:10200000696F6E3A20000000257325730000000000
:10201000436F6E6E656374696E672E2E2E0000002E
:1020200097C70108C0B9000801EBC406CDF80880C5
:10203000CDF80C80B6F90610B6F904001E23322242
:1020400001F0EEF8EB49EC4804F051FC00231A468D
:10205000194628A804F030FFFF2381461A46194686
:1020600029A804F029FF0695B9F800200146ADF82B
:10207000142099F802008DF816000888ADF81000B9
:102080008878DD498DF81200CC390220C978491EC4
:10209000A14201D1012200E00022DAF8281091F9D2
:1020A0001810A14204D1012303E017E092E025E1DA
:1020B0000023BF7B5BF82710CDE90013CDE9022098
:1020C000F08832231E3001B2B6F904001A4601F03E
:1020D000A7F8641C072CFFF61CAF1BE498F900005E
:1020E00007280CD2DFE800F004074A4D5053560091
:1020F0000021C2A001E00021C2A000F0DBFFBD4929
:10210000BD4804F0F4FBDFF8F092002409F1460921
:10211000C4EB0410002500EB800050300FFA80F76C
:10212000C5EB051000EB8000163000B200231490C0
:1021300005EB84061A4619462BA804F0BDFEFF23C2
:1021400002901A4619462AA804F0B6FE014601205C
:10215000069002980288ADF8142080788DF8160059
:102160000888ADF8100088788DF8120098F90020E2
:1021700012F80910B14210D101220FE00021A3A0F2
:10218000BBE70021A4A0B8E70021A6A0B5E7002185
:10219000A6A0B2E70021A8A0AFE70022A849896A5B
:1021A00091F91810B14201D1012300E000235BF83E
:1021B0002610CDE90013CDE9022A32231A4639460A
:1021C000149801F02DF86D1C042DA9DB641C022C61
:1021D0009EDB38E598F901006FF0040108280AD267
:1021E000DFE800F0040617191B1D1F2195A000E071
:1021F00097A000F05FFF99497F4804F078FB98F9B9
:102200000100072811DA964900EB400001EBC007F6
:102210000DE094A0EDE796A0EBE798A0E9E79AA07F
:10222000E7E79CA0E5E79EA0E3E7734F4D37002466
:10223000AB46002504EB440000EB0410412101EB08
:10224000400004EB440A0FFA80F900BF05EB45019A
:10225000132000EB011805EB4A06324692A10BA8A9
:10226000FEF714F8B85D032802D907F806B005E0B8
:1022700004D14FF0FF031A46194603E04FF0000364
:102280001A46194629A804F017FECDF818B0B85D13
:10229000594900EB4002D939114403280A88ADF8A6
:1022A000142089788DF81610BDF8A410ADF8101020
:1022B0009DF8A6108DF8121014D0002200200BA952
:1022C000CDE90010CDE9020220232A2249460FFA67
:1022D00088F000F0A5FF6D1C062DB7DB641C042CF4
:1022E000A7DBB0E40222E9E76FF002016FA000F083
:1022F000E1FE4FF0FF3002F09FFAA4E402F012FB7F
:10230000B86A90F9180058B1012826D0022840D0A8
:10231000694B07AA0AA9384803F044FFC0B365E037
:102320004F4B07AAA8330AA9334803F03BFF90B9E3
:10233000BDF91C10BDF9280001EBD171A4EB6101BE
:102340000AB200EBD071A9EB6100454B01B2A83392
:10235000294803F0B9FD59A049E05A4B07AA0AA938
:10236000254803F01FFF88B9BDF91C10BDF92800EE
:1023700001EBD171A4EB61010AB200EBD071A9EBC2
:10238000610001B24F4B1C4803F09EFD4EA02EE0B1
:102390001AE04E4B07AA0AA9174803F003FF88B9B1
:1023A000BDF91C10BDF9280001EBD171A4EB61014E
:1023B0000AB200EBD071A9EB610001B2434B0E48A9
:1023C00003F082FD42A012E0BDF91C10BDF9280007
:1023D00001EBD171A4EB61010AB200EBD071A9EB62
:1023E000610001B2344B044803F06EFD3BA000F0E5
:1023F00033FE28E49FBB0108B80500204D6F6E64D2
:102400006179000054756573646179005765646E85
:102410006573646179000000546875727364617952
:1024200000000000467269646179000053617475B0
:10243000726461790000000053756E646179000078
:102440000800002050524553455420310000000040
:1024500050524553455420320000000097C70108F0
:10246000F8B900085052455345542033000000008D
:1024700050524553455420340000000050524553FB
:102480004554203500000000505245534554203635
:102490000000000050524553455420370000000012
:1024A000435553544F4D0000256400004355535489
:1024B0004F4D203234680000823B0108436F6D6647
:1024C0006F72740057C1000845636F002FC5000884
:1024D000416E74692D66726F737400004F666600FA
:1024E0002DE9F043CC4C0746CC4EA06A8BB010B11E
:1024F000707800287ED0012F06D0002007F04CFF16
:10250000C648383804F0ADF9FF231A46194607A823
:1025100004F0D2FC0188ADF8001080788DF802003C
:10252000BE480099383804F08BFB307B4FF0000830
:1025300030B101280CD0022818D0032853D11EE056
:1025400005F006FC0F22002100F012FEB44B06E05D
:1025500005F0FEFB0F22002100F00AFEB14B0F2216
:10256000AE480C21383803F0AFFC3CE005F0F0FB3E
:102570000F22002100F0FCFDAB4B0D22F0E7A74835
:10258000AA4B3C229621383803F09EFCA348A84968
:10259000383804F0ACF900231A46194609A804F0AB
:1025A0008BFCFF2305461A46194608A804F084FC54
:1025B000012106912988ADF81410A9788DF816101C
:1025C0000188ADF8101080789AA1CDE900188DF837
:1025D0001200CDF808802D235222A0219120CDF8A1
:1025E0000C8000F01DFE607D042801D1A06AE8B3D4
:1025F000002300E003E11A46194601A804F05CFC40
:102600000188ADF8001080788DF8020083480099A9
:10261000383804F015FB317B1A2003294FF02B03C7
:1026200000903ED0608C88220C3001B27B48383854
:1026300003F027FBFF231A46194601A804F03CFCCF
:102640000188ADF8001080788DF802007348009979
:10265000383804F0F5FA707B58B1307B032808D085
:102660006E488C220C21744B383800E009E003F0EE
:102670002BFC96F82D00012816D07079012816D071
:102680001FE0307B6D4B032808D0608C89220C3012
:1026900001B26248383803F017FCDCE732220C2123
:1026A000F7E732220C21C1E7654B4D2204E0307B75
:1026B000644B03280FD0502258480C21383803F0BF
:1026C00003FC307B03287CD0B07A05254FF00C0941
:1026D000012802D003E09322EEE7707930B1E07D6B
:1026E00013282AD80F281CD9042526E0F57A052DB1
:1026F0000AD0042D0AD0032D0BD0022D0DD0012DB0
:102700000DD084F8098019E0142000E010206072D8
:1027100001E084F80990002412E00820F7E7042083
:10272000F5E70A2801D3032507E0052801D902258A
:1027300003E008B1012500E00025E57000241DE05C
:10274000414904EB440008440188ADF8001080784A
:102750008DF8020031480099383804F071FA3520BC
:10276000604300EBC4000B3001B22C483523D52266
:102770003838CDF8009003F084FA641CAC42DFDBFB
:10278000FF231A46194603A804F096FB0188ADF80A
:10279000001080788DF8020020480099383804F045
:1027A0004FFA00231A46194603A804F085FB018856
:1027B000ADF8001080788DF802001848009938387C
:1027C00000E017E003F076FA14482049383804F0A6
:1027D0008EF8B07A012801D1707998B11CA01DA3A0
:1027E0000068019001A800900C48C2220B213838E3
:1027F00004F065F8012F02D0012007F0CDFD0BB0E9
:10280000BDE8F08315A117A3D1E90001CDE90101CD
:1028100001A80090E8E7000008000020F005002073
:10282000EF1D0108891B01089C160108823B010865
:10283000419801084F66660022130108B16601083D
:10284000840901084D0E0108D004002066D8010853
:102850000202029C4155544F000000000202020295
:10286000029C0000435553544F4D00002DE9F04F9A
:10287000FE4D89B0A86A00287DD0806850B3FC481E
:1028800003F0EFFF02F04EF8A86AA946F84D816800
:1028900090F91800002401EB40100C21026806207A
:1028A000A02738354FF09F0A4FF078084FF03C0BC7
:1028B00026462B2A7DD021DC0D2A7BD00FDC0D2A69
:1028C00079D2DFE802F078447EB3B6B978787878C8
:1028D00078BCBF0009B0BDE8F04FFEF72FBF202A3B
:1028E0006AD006DC152A68D0162A67D01F2A62D162
:1028F00086E1292A7ED02A2AF9D160E240F2A51C7D
:10290000A2F2A513624576D010DC352A74D006DC1D
:102910002C2A72D0332A71D0342AE8D115E2A2F5DC
:1029200080729B3A6BD0012AE1D1A5E2162B67D0C9
:1029300006DC012B77D0142B76D0152BD7D156E29D
:10294000A3F57063AA3B70D0012BD0D18EE20E218B
:10295000CDE9001054235C221946104605F092F888
:10296000FF231A46194605A804F0A6FA0188ADF817
:102970000010807800E0E1E28DF80200BC48009988
:1029800004F05EF9BB49BA4803F0B1FF0022BAA1D6
:10299000B74803F01EF9ADF8080000EBD071AAEBC0
:1029A000610001B2B4A36E22B148009603F087FF24
:1029B00005E00FE2C0E058E22EE1C0E0EFE0B0A495
:1029C00085E2CDE9001054235C221946104605F03B
:1029D00059F81E2000900A2378228321A44803F08E
:1029E00050F9262000900A2370229321A04803F07A
:1029F00048F906E0E0E142E2DBE1F2E118E138E229
:102A000001E22E2000900A236822A321984803F0B7
:102A100038F9362000900A236022B321944803F04D
:102A200030F99AA453E22DE2DEE1EFE1994D9AA448
:102A300032E29B4D9BA42FE29D4D9EA42CE2A04D23
:102A4000A0A429E2FF231A46194604A804F034FA88
:102A50000188ADF8001080788DF802008448009954
:102A600004F0EEF800231A46194604A804F024FAEC
:102A70000188ADF8001080788DF802007C4800993C
:102A800003F018F94E20034600905122792178482E
:102A900003F042FF00231A46194604A804F00CFA7A
:102AA0000188ADF8001080788DF802007048009918
:102AB00004F0C6F8FF231A46194604A804F0FCF9EE
:102AC0000188ADF8001080788DF802006848009900
:102AD00003F0F0F83C23462296216548CDF800B07B
:102AE00003F01AFF322000903C234622A0216048C8
:102AF00003F0C7F8FF231A46194604A804F0DCF9CE
:102B00000188ADF8001080788DF8020058480099CF
:102B100004F096F800231A46194604A804F0CCF9EC
:102B20000188ADF8001080788DF8020050480099B7
:102B300003F0C0F865A4CAE1654D66A4ACE1CDE937
:102B4000001054235C221946104604F09BFFFF231B
:102B50001A46194606A804F0AFF90188ADF800102E
:102B600080788DF802004248009904F069F85C49C9
:102B70003F4803F0BCFE00225AA13D4803F029F86B
:102B8000ADF8080000EBD070A7EB600001B255A3D0
:102B90005D223748009603F092FE53A497E1CDE9F9
:102BA000001054235C221946104604F06BFFFF23EB
:102BB0001A46194607A804F07FF90188ADF80010FD
:102BC00080788DF802002A48009904F039F84449C9
:102BD000274803F08CFE002245A1254802F0F9FFAA
:102BE000ADF8080000EBD0709D21A1EB600001B2B0
:102BF0003FA35C221E48009603F061FE3DA466E1FF
:102C000095F82D00002801D03C4D00E03C4D01D04E
:102C10003CA441E13EA43FE1CDE900104FF0540354
:102C20004FF085021946104604F02CFF3CA44EE1FB
:102C30003E4B03AA02A90E4803F0B4FA88B9BDF9C5
:102C40000C10BDF9080001EBD172A8EB620100EB9A
:102C5000D0700AB2A7EB600001B2344B044803F015
:102C600033F9334B03AA02A9014863E008000020AE
:102C7000B805002097C701084D4F444500000000EB
:102C800048656174206D6F6465000000506F776562
:102C900072000000E9CB000854696D657200000005
:102CA0007DDC000853657474696E67730000000072
:102CB000F2E4000850726F6772616D6D650000008C
:102CC000A0BA0008436F6D666F72740045636F00B1
:102CD0002FC50008416E74692D66726F7374000011
:102CE000D0B80108410000004175746F0000000079
:102CF00043000000437573746F6D0000A5D7000892
:102D00005DD3000854696D6572206973206F6E0091
:102D100054696D6572206973206F6666000000005B
:102D20005365742074696D6572000000DE2301082C
:102D30000922010803F036FA28B9824B7922A3212F
:102D4000814803F0C1F881A4C1E0824B03AA02A923
:102D50007D4803F027FA88B9BDF90C10BDF90800C9
:102D600001EBD172A8EB620100EBD0700AB2A7EBC5
:102D7000600001B2774B744803F0A6F8687908B197
:102D8000754B00E0754B03AA02A96F4803F00AFADD
:102D900048B9687908B1704B00E0704B7B22A321E1
:102DA000694803F091F8687908B16DA48FE06DA4CB
:102DB0008DE06D4D6DA46FE06F4D70A46CE0CDE9BA
:102DC000001054235C221946104604F05BFE6E4D41
:102DD0006EA461E0E87908B16E4D00E06E4D6FA41D
:102DE0005AE0704D70A457E0714D72A454E0CDE9E3
:102DF000001054235C221946104604F043FE6C4D2B
:102E00006EA4933D48E0704D70A445E0CDE90010FC
:102E1000542385221946104604F034FEFF231A4637
:102E2000194608A804F048F80188ADF80010807829
:102E30008DF802004448009903F002FF66494248B9
:102E400003F055FD002265A13F4802F0C2FEADF837
:102E5000080000EBD071AAEB610001B25FA36E2203
:102E60003948009603F02BFD5EA430E0504D60A47D
:102E700012E0644D64A40FE0664D67A40CE0694D58
:102E800069A409E0CDE9001054235C2219461046DC
:102E900004F0F8FD674D68A4CDB12B4601AA694640
:102EA000294803F07FF9E8BBBDF90410BDF9000023
:102EB00001EBD172A8EB620100EBD0700AB2A7EB74
:102EC000600001B22B46204802F0FEFF2EE0D9F848
:102ED00028004D46816890F9180001EB4010006809
:102EE000202823D15849184803F001FD698B584622
:102EF000B1FBF0F20BFB1213B1FBFBF253A103A8E1
:102F0000FDF7C4F9002203A90F4802F062FE00EBAE
:102F1000D070A7EB600000230096019600B203AAD0
:102F2000672100E002E0029600F030FA002C05D0A4
:102F300009B02046BDE8F04F00F08EB809B0BDE8FA
:102F4000F08F000009220108B80500205365747550
:102F500070000000DE2301087A290108812C010895
:102F60004F6E00004F666600782F0108437573743A
:102F70006F6D2064617900005B58010844617465DD
:102F800020262074696D650017F800084469737085
:102F90006C61790020EC0008E3F20008536F756E55
:102FA0006400000086340108536572766963650029
:102FB000B24201085265736574000000496E666F85
:102FC000726D6174696F6E00BA690108436F6E6E4D
:102FD000656374696F6E000097C7010853544152CE
:102FE00054000000436F6E6E656374696E67000085
:102FF000526573657420636F6E6E656374696F6E7E
:1030000000000000F2E400085365742064617465F8
:1030100000000000BE5201085365742074696D659C
:1030200000000000200201084272696768746E6542
:103030007373000018FC00084175746F2073776982
:10304000746368206F666600B589010825303264B4
:103050003A253032640000001CB5FF2304461A46AE
:10306000194601A803F028FF0188ADF80010807808
:103070008DF802000D48009903F0E2FD0C490B4861
:1030800003F035FC00222146084802F0A2FD002191
:10309000009100EBD070A021A1EB600001B22346AB
:1030A000B922024803F00BFC1CBD0000B80500204B
:1030B000419801087CB5FF230C4605461A4619467F
:1030C00001A803F0F9FE0188ADF8001080788DF8B2
:1030D00002000E48009903F0B3FD0D490B4803F0C0
:1030E00006FC00222946094802F073FD00210091E8
:1030F00000EBD070A021A1EB600001B22B4604F1DF
:103100001A02024803F0DBFB7CBD0000B80500207A
:10311000419801081CB5FF2304461A46194601A828
:1031200003F0CAFE0188ADF8001080788DF8020027
:103130000D48009903F084FD0C490B4803F0D7FBC0
:1031400000222146084802F044FD0021009100EBD6
:10315000D070A021A1EB600001B2234610220248EA
:1031600003F0ADFB1CBD0000B805002097C70108A7
:1031700070B5FF2388B015460E4604461A46194618
:1031800007A803F099FE0188ADF8001080788DF84B
:1031900002001C48009903F053FD22461AA101A821
:1031A000FDF774F81949174803F0A1FB002201A9A3
:1031B000144802F00EFD044600EBD470A521A1EBEB
:1031C000600006440020009001AB05F13C0231B2E2
:1031D0000C4803F074FB0E490A4803F088FB0DA06D
:1031E0000DA30068069006A80090301901B20C46A5
:1031F00005F13F02034803F062FB0848448408B02D
:1032000070BD0000B805002025640000DA6E0108DA
:10321000EB870108F99C0000B04300000800002083
:103220002DE9FF4F8BB08B46DDE91C54DDE9181703
:1032300092461E4600225448DDF86C8002F0C9FC1C
:103240000590514802F06DFD81460B990AEBDA7248
:10325000059801EB620100EBD070A1EB600000B2B9
:1032600006EBD67203900BEB620109EBD970A1EB70
:10327000600000B202900FB1294600E021464248AA
:1032800003F0DEFC0720CDE9006053465A463E4875
:103290000B9902F04BFD47B121463B4803F0D0FCAF
:1032A000B8F1000F39D017B138E02946F5E72946C3
:1032B000354803F0C5FC2146334802F0FBFC0720EB
:1032C000CDE9006053465A462F480B9902F02EFD77
:1032D00021462D4803F0B4FC29462B4802F0EAFCB5
:1032E000C8F1000006EB4002072112B20AEB4000D1
:1032F000CDE9002103B20BEB080002B20B98404469
:1033000001B2214802F012FD29461F4803F098FC43
:1033100021461D4802F0CEFC02E00FB1294600E034
:103320002146194802F0C6FC0020DDE90221009088
:103330001548189B03F0C3FA1A9878B10FB32146C9
:10334000114803F07DFC032000900298059B48443F
:10335000401D02B20C48039902F093FC00231A4668
:10336000194609A803F0A8FD0188ADF8001080787F
:103370008DF802000448009902F09CFC0FB0BDE8F3
:10338000F08F2946DCE70000B80500202DE9FF4F4B
:1033900083B01C00DDE91187DDF840B00E4682469F
:1033A00003D0FF231A46194602E000231A461946A5
:1033B00001A803F081FD3948019903F041FC002286
:1033C0003648059902F005FC8146344802F0A9FC14
:1033D000054600EB470000B2009009EB480003B23D
:1033E000F01B02B2AAEB080001B22C4802F049FC23
:1033F00074B100231A46194601A803F05DFD274861
:10340000019903F01DFC3CB1FF231A46194606E062
:10341000FF231A461946EFE700231A46194601A86A
:1034200003F04AFD1D48019902F044FC0020009081
:10343000324651461948059B03F041FABBF1000F93
:1034400014D034B300231A46194602A803F034FD01
:103450001248029903F0F4FB042000907019401DFB
:1034600002B24B4651460D4802F00BFC00231A46AF
:10347000194601A803F020FD0188ADF800108078FE
:103480008DF802000548009902F014FC07B0BDE871
:10349000F08FFF231A461946D7E70000B805002031
:1034A0007CB500F0CDF84D4CA16B884279D900F085
:1034B000C7F8A063617D4A4E1A25022905D039B3A9
:1034C000032928D004292AD02CE000231A461946C3
:1034D00001A803F0F1FC0188ADF8001080788DF8A8
:1034E00002003F480099383803F0AAFB307B4FF0C8
:1034F0002B030328009508D0608C89220B3001B281
:103500003748383802F0BDFB3AE03B221621F7E796
:1035100000F57A7001E000F5FA70A06302E0207A0D
:1035200000283ED1207A4FF0000380F00100207285
:10353000307B1A460328194601A833D003F0BCFC9F
:103540000188ADF8001080788DF8020024480099B9
:10355000383803F075FB0095608C2B230C3001B2DA
:103560001F488922383802F08CFB207A40B1608CE9
:1035700089221C4B0C3001B21948383802F0A4FCE7
:10358000FF231A46194601A803F096FC0188ADF8FE
:10359000001080788DF8020011480099383803F047
:1035A0004FFB7CBD03F088FC0188ADF800108078EB
:1035B0008DF802000A480099383803F041FB0848AA
:1035C0002B233B2216213838009502F05AFB207A33
:1035D0000028D5D03B22034B1621CDE70800002060
:1035E000F0050020B166010810B5124C00204FF024
:1035F000904120750120886100F022F8A16B88427B
:1036000016D9207A80F00100207200F019F800F538
:10361000FA70A063084803F024F9207A002807D044
:103620004022BDE81040054B6421034802F04CBC29
:1036300010BD000008000020B80500207F600108D0
:10364000014800687047000000000020FEE700000D
:103650002DE9F0472E4C2078D0B194F82D0008B910
:103660006079A8B12B4806F089FD2A4E00253078F4
:1036700000F00F01000900EB800001EB4000C0B238
:10368000132809D2607938B184F82D5065712573FB
:10369000BDE8F04706F040BD06F03EFD94F82D0071
:1036A000DFF870904FF0804709F114094FF00308DC
:1036B0004FF4807A01281ED06079012826D189F83C
:1036C000095089F80A5089F80B504FF08030C9F83A
:1036D000000004F019FB2073C9F804700D4889F844
:1036E0000880143006F0F0FC504606F0ABFDBDE853
:1036F000F04706F033BD89F8095089F80A50B079CF
:1037000089F80B000448C9E90007E7E7BDE8F0873E
:10371000F0050020EC04002000808080FEE700001F
:1037200010B5174CA06AC06928B3002006F034FE1B
:10373000A26A04F11C001168332910D0A1F580732E
:10374000B93B02D1002101704170D069C4F8280052
:10375000FFF78CF8BDE81040012006F01DBE0949B6
:103760004B79002BF1D1D369074AA262D361497921
:1037700001704170ECE7BDE8104000F0D9BA0000DC
:1037800008000020F0050020DC0100207047090738
:10379000090E002806DA00F00F0000F1E02080F8A2
:1037A000141D704700F1E02080F8001470470000FD
:1037B000024900204870FDF7C1BF0000240000202E
:1037C000024901204870FDF7B9BF00002400002025
:1037D000704700002DE9F041524E534C0025B36A6A
:1037E000A4F1440006F11C021968332966D01CDCE0
:1037F000162951D010DC4B4A0B2902F150023DD062
:10380000032307240C293FD00D293FD0152941D18E
:10381000BDE8F041FDF71EBB1F2941D0202942D051
:103820002B2937D1C079107078E040F2A51CA1F2A5
:10383000A517614562D01ADC34295DD035293DD009
:103840003A4FA1F580719B393AD0012922D13846EF
:1038500006F094FC387904F0E3F8A060787904F07D
:10386000DFF86060B87904F0DBF8206041E0012FF8
:1038700056D0142F22D0592F0CD11FE08078907091
:103880000A201070232049E0C07800E00079907091
:1038900013705470BDE8F081C07A401E1876F9E7C5
:1038A00090F82D00BFE7C18D3C20B1FBF0F2A26083
:1038B000B1FBF0F200FB1210C4E900501D76E9E7FD
:1038C0001A4806F05BFCB87804F0AAF8E060787853
:1038D00004F0A6F82061387804F0A2F8132802D288
:1038E00040F2E37004E0387804F09AF800F5FA60EA
:1038F0006061B06A0576CDE7407994E78079002869
:1039000007D000BF4FF00000107005D14FF001004C
:1039100004E04FF00100F7E74FF000005070B9E706
:10392000007A80E70800002034060020EC04002024
:1039300010B54FF48074204606F08CFC002806D0A9
:10394000204606F07FFCBDE8104006F0A5BB10BD88
:103950002DE9F041234C01270025277065701820C0
:10396000A0700420E070052020716571A771E771D7
:1039700025726572A572E772257365730326A673B7
:10398000E67326746674A674E674267501221821FF
:1039900004F11500FCF71AFE84F82D504FF4347032
:1039A000E085A4F12000056545658565C56506F0DF
:1039B00013FCA4F582707F210181FF214181202128
:1039C0000170C6704770877005611121C560017173
:1039D00058214171857106F047FC002800D1FEE7AF
:1039E000BDE8F081F0050020704710B504F040F804
:1039F000BDE8104000F0A4B8484810B54649416001
:103A0000474A426081608260016941F020010161A2
:103A1000016941F040010161C168C907FCD1016938
:103A200021F020010161016941F010010161C169CA
:103A300011F0060F3B490AD0C269C2F34102012AC4
:103A400007D0C269C2F34102032A04D005E0A522CF
:103A500002E0BB2200E0CC220A80C169DF2202EA38
:103A60001121304A921C1180C169921CC1F3074197
:103A70001180C169090E921C1180016A921CC9B2A1
:103A80001180016A921CC1F307211180016921F0A4
:103A9000100101612448016841F47001016023486C
:103AA000016841F00101016001688907FCD54168A6
:103AB0001F4A1140416041681E4A1140416001683F
:103AC0001D4A11400160C16A1C4A1140C162016B6C
:103AD00040F2031291430163016B21F480310163D1
:103AE000016B21F000410163416B21F00101416351
:103AF000D0F8C01021F48031C0F8C01000218160DE
:103B0000C0F8CC1006F0ACFCBDE8104000214FF02E
:103B1000006005F093B800002301674500200240D3
:103B2000AB89EFCD00F8FF1F88ED00E000100240E8
:103B30000C00FF08FFFFC277FFFFF2FEF0FFFF3F20
:103B400002480168491C0160704700000000002025
:103B500010B5084C0121204606F0C5FE012807D10A
:103B60000121204606F0BCFEBDE8104000F004B87C
:103B700010BD00000020004009494FF48072087910
:103B8000401EC0B208714B78834201D9054B01E059
:103B9000044B10331A60002801D1142008717047BB
:103BA000080000201804004810B50B4C0F226FF0DD
:103BB000180194F90200FDF7DBFCA078401E40B22A
:103BC000A07094F90010884201DA6078A070BDE816
:103BD0001040FDF7B3BD00005800002010B50B4C9D
:103BE0000F226FF0180194F90200FDF7C1FCA078D4
:103BF000401C40B2A07094F90110884201DD207889
:103C0000A070BDE81040FDF799BD000058000020ED
:103C1000154830B4826A154892F91840D0E901136A
:103C200014B1012C0FD018E05B1E83601268202AAB
:103C300000D123B1002B10DA172181600DE061B9AA
:103C40000121416009E0491E416014683B22202C9B
:103C500000D12BB1002900DA426030BCFDF76EBD07
:103C60000129F9DBF9E700000800002034060020F4
:103C7000F0B4144800250124836A134893F91860AE
:103C8000D0E9011216B1012E0CD014E0521C826052
:103C9000172A00DD85601A68202A0CD1826852B983
:103CA00071B108E0491C41601B68202B00D12AB18A
:103CB0003B2900DD4560F0BCFDF740BD3B29FADD46
:103CC0004460F8E7080000203406002070B5124C6C
:103CD0001049204606F0AAFE68B1204606F050FEC4
:103CE0000F490E4B0A789854521CD0B208703228F3
:103CF00001D1002008700B4D2046294606F096FEA3
:103D0000002806D02946204606F07CFE0649012000
:103D1000087070BD050005070044004074060020CF
:103D20009C040020040004079E040020FEE700001D
:103D3000024900208862FEF7D3BB00000800002083
:103D400010B540F21C7005F0A5FB04F0D9FF4FF44C
:103D50000064204605F01AFB204605F025FBE01024
:103D600005F0C2FB40F60F0005F094FBBDE81040E3
:103D700006F0EABA10B500214FF4807003F022FE7D
:103D80000121084603F044FD07220521002003F02D
:103D9000BBFD0121022003F015FE002003F0F6FD1B
:103DA0000121084603F06CFD4FF46021012003F06F
:103DB00085FD002003F04AFD03F056FD0A2003F0C4
:103DC0004FFE03F013FDBDE81040012003F0EABDF3
:103DD00010B5094C00220749204604F007F90022DB
:103DE00081231146204604F0B1F92046BDE8104079
:103DF00004F082B9801A0600005400402DE9F04119
:103E0000304C0126304D207D022804D1287810B195
:103E100001F06AF80026FFF713FCE06268780027DB
:103E20004FF0010870B3287820B1207D012812D00E
:103E300088B112E02448383803F082F9A87908B133
:103E4000277501E084F8148001F04EF801F0E2F8E3
:103E50000020BDE8F08101F047F81B48383803F036
:103E60006FF9A87908B1277501E084F8148001F092
:103E7000D1F8FFF7E5FBA0F5D2407838E06268782A
:103E80000026B0B92878A0B1287A40B1207D022858
:103E900005D10020FEF724FBFFF7D2FB60640A483F
:103EA000383803F04DF9A87908B1277501E084F896
:103EB0001480FFF7C5FB41F2883108446064304646
:103EC000C7E7000008000020F005002010B540F210
:103ED000157005F0DFFA40F2115005F0DBFA40F200
:103EE000125005F0D7FA40F20E7005F0D3FA40F206
:103EF000117005F0CFFA40F2126005F0CBFA4FF4E2
:103F0000E06005F0C7FA40F2096005F0C3FA40F23C
:103F10001C7005F0BFFABDE81040062005F000B99E
:103F200030B503461046064C07E013F8015BC2B2F9
:103F30006A4054F8222082EA1020491EF5D230BD92
:103F4000A0DA01082DE9F04101224FF0904602234A
:103F50001146304603F0D7FF0223032200213046EA
:103F600003F0F8FF504F4FF4F07423460222012172
:103F7000384603F0C8FF234603220021384603F0E9
:103F8000E9FF202300220321304603F0BCFF012279
:103F90000221304603F080FF012300220221304637
:103FA00003F0B1FF012303220021304603F0D2FFCA
:103FB0004FF4007422460221384603F06DFF0222BE
:103FC00023461146384603F09EFF00222346114641
:103FD000384603F0BFFF22460421304603F05CFF61
:103FE00065002A460421304603F056FF234600228E
:103FF0000221304603F087FF234603220121304689
:1040000003F0A8FF2B4600220221304603F07BFF7D
:104010002B4603220121304603F09CFF4FF420443D
:1040200022460021384603F037FF234600220221B2
:10403000384603F068FF234603220021384603F088
:1040400089FF40F60444012223461146384603F016
:104050005AFF234603220021384603F07BFF042247
:104060000121304603F018FF08220121304603F0F9
:1040700013FF042301220221304603F044FF0423EE
:1040800003220021304603F065FF082301220221AC
:10409000304603F038FF3046BDE8F04108230322E4
:1040A000002103F057BF0000000400482DE9F04351
:1040B00000238FB01A4619460CA802F0FDFE0188B5
:1040C000ADF8001080788DF80200BA48009901F030
:1040D000F1FDFF231A4619460CA802F0EDFE0188F7
:1040E000ADF8001080788DF80200B248009902F017
:1040F000A7FDDFF8C082002508F13808AE4C98F81B
:104100000600012608B1257500E02675A94802F0D1
:10411000A8FBA84803F014F8002006F03DF90120A0
:1041200006F03AF94FF4FA69484603F099FC00208A
:1041300006F032F99F4802F094FB9E48E838C168C7
:10414000E83002F07DFD9D499A4802F0D0FB002244
:104150009BA1984801F03DFD00EBD070A027A7EB94
:10416000600001B296A350229248009502F0A7FB8E
:10417000002297A18F4801F02CFD00EBD070A7EB37
:10418000600001B292A378228A48009502F097FB62
:104190009349884802F0ABFBFF231A4619460CA846
:1041A00002F08AFE0188ADF8001080788DF80200D8
:1041B0008048009902F044FD8AA38CA28CA107A834
:1041C000FCF764F8002207A97A4801F002FD00EB31
:1041D000D070A7EB600001B207ABB922754800951B
:1041E00002F06DFB012006F0D7F8484603F038FCDA
:1041F000002006F0D1F8A562656498F805004746EE
:10420000012802D103F080FD387303F0B7FDA070E0
:1042100010F17F0F4FF4A0772FD07F2858D030288F
:104220007EDD002000F090FF0320A071E0790028DF
:1042300077D1E6715F4802F014FB6F495D4802F0E8
:1042400056FB00231A4619460EA802F035FEFF233E
:1042500004461A4619460DA802F02EFE069621883D
:10426000ADF81410A1788DF816100188ADF8101073
:1042700080788DF8120061A058E0002000F064FF03
:10428000A671E07900285ED1E6714A4802F0E9FAA9
:104290005949484802F02BFB00231A4619460EA83C
:1042A00002F00AFEFF2304461A4619460DA802F042
:1042B00003FE06962188ADF81410A1788DF816102B
:1042C0000188ADF8101080788DF812004CA02DE018
:1042D000002000F039FF0220A071E079002832D1DF
:1042E000E671344802F0BDFA4349324802F0FFFA61
:1042F00000231A4619460EA802F0DEFDFF230446ED
:104300001A4619460DA802F0D7FD06962188ADF889
:104310001410A1788DF816100188ADF8101001E086
:1043200014E010E080788DF8120036A0CDE9000589
:1043300000210295F0233A4608460395FEF770FFE8
:10434000012006F029F80FB0BDE8F08310F11A0F34
:104350004FF000002ADA00F0F7FE0420A071E079A7
:104360000028F0D1E671134802F07BFA2249114887
:1043700002F0BDFA00231A4619460EA802F09CFD71
:10438000FF2304461A4619460DA802F095FD06962D
:104390002188ADF81410A1788DF816100188ADF8B9
:1043A000101080788DF8120017A0BFE7FEF798F87C
:1043B000C9E70000B80500200800002020C001085F
:1043C0004555524F54454348204D4554414C0000FB
:1043D00050414E454C204845415445520000000094
:1043E00097C7010831322E352E300000562E20009E
:1043F0002573257300000000DA6E010845330000C4
:104400004531000045320000453400002DE9F043FD
:10441000784C8DB078A10BA8E268FBF737FF76A146
:104420000CA82269FBF732FF75A108A86269FBF7A7
:104430002DFF7549A4F17C0002F059FAA4F17C002B
:1044400001F06FFCC0F178000FFA80F9002208A992
:10445000A4F17C0001F0BDFB0023C7B21A46194647
:1044600007A802F029FDFF2304461A4619460AA8A8
:1044700002F022FD012606962188ADF81410A178DD
:104480008DF816100188ADF81010604D80788DF809
:104490001200A86A0024007E00287CD0002008A911
:1044A0000091CDE901043C2307F1140249460F2095
:1044B0000394FEF7B5FE4F4800220CA97C3801F0AA
:1044C00088FB0023C7B21A4619460AA802F0F4FC7A
:1044D000FF2380461A46194607A802F0EDFC06960F
:1044E000B8F80020ADF8142098F802108DF81610D6
:1044F0000188ADF8101080788DF81200A86A007E4F
:10450000012800D000200CA90091CDE9010407F199
:1045100014023C239046494696200394FEF780FE01
:10452000344800220BA97C3801F053FB00231A46C3
:1045300019460AA802F0C0FCFF2307461A4619468E
:1045400007A802F0B9FC06963988ADF81410B978BE
:104550008DF816100188ADF8101080788DF81200D3
:10456000A86A007E02283ED000200BA90091CDE968
:1045700001043C2342464946E6200394FEF750FEE0
:10458000FF231A46194607A802F096FC0188ADF8E9
:104590000010807800E024E08DF8020015480099B2
:1045A0007C3802F04DFB00231A46194607A802F09A
:1045B00083FC0188ADF8001080788DF802000D486A
:1045C00000997C3801F076FBA86A90F9180060B178
:1045D00001280CD00EA000BFFEF73EFD0DB0BDE8D7
:1045E000F08301205BE70120BFE70BA0F4E70DA0FB
:1045F000F2E700003406002025303264000000009D
:104600002530346400000000B5890108080000204E
:104610005365742064617900536574207965617213
:1046200000000000536574206D6F6E746800000018
:104630002DE9F0478CB07449744802F058F973487A
:1046400001F06FFB714FC0F178007C370FFA80FAF0
:104650006FA107A8BA68FBF719FE002207A96B48EB
:1046600001F0B7FA0023C6B21A4619460AA802F0AA
:1046700023FCFF2304461A4619460BA802F01CFC33
:10468000012506952188ADF81410A1788DF8161033
:104690000188ADF81010DFF8808180788DF8120065
:1046A000D8F828000024007E00287DD05FF00001AB
:1046B0000DF11C0948468DE813005720A0EB560069
:1046C0003C23462251460394FEF7AAFD50A107A8B9
:1046D0007A68FBF7DBFD002207A94C4801F079FA64
:1046E0000023C6B21A4619460BA802F0E5FBFF23C9
:1046F00007461A4619460AA802F0DEFB06953988D5
:10470000ADF81410B9788DF816100188ADF81010B6
:1047100080788DF81200D8F828004746007E0128DE
:104720006DD00021CDF80090CDE90114CB20A0EB95
:1047300056003C23462251460394FEF771FDFF23A9
:104740001A4619460AA802F0B7FB0188ADF8001016
:1047500080788DF802002D48009902F071FA00234C
:104760001A4619460AA802F0A7FB0188ADF8001006
:1047700080788DF802002548009901F09BFA00230B
:104780001A4619460BA802F097FBFF2380461A46EB
:1047900019460AA802F090FB064600221FA11B48FA
:1047A00001F017FA069500E027E0B8F80020ADF810
:1047B000142098F802108DF816103188ADF81010FA
:1047C000B1788DF8121015A1CDE9001400EBD0706E
:1047D000A021A1EB6000029400B2372304225146CD
:1047E0000394FEF71DFDB86A007E50B10CA000BF17
:1047F000FEF732FC0CB0BDE8F087012158E701213B
:1048000090E70AA0F4E70000B5890108B805002088
:104810002530326400000000080000203A0000004B
:10482000536574206D696E7574650000536574205E
:10483000686F7572000000002DE9F04F834689B063
:104840003449354802F053F8334F4D37002606EB14
:104850004600002500EB0611412006EB460A00EB5E
:10486000410800BF05EB4501132000EB011905EBE2
:104870004A04224629A107A8FBF708FD385D032852
:1048800001D9012038555C4508D02548806A90F947
:104890001800A04202D0BBF1FF3F30D100231A46DE
:1048A000194608A802F008FB01210691395D1A4B50
:1048B00001EB4102D93B1A441388ADF814309278C9
:1048C0008DF816200288ADF8102080788DF812003F
:1048D0001348806A90F91800A04219D0032917D014
:1048E0000021002007AACDE90020CDE90201202304
:1048F0002A220FFA88F10FFA89F0FEF791FC6D1C5D
:10490000062DAFDB761C042EA1DB09B0BDE8F08FCD
:104910000221E6E797C70108B805002025640000DA
:104920000800002010B5084B65220C21074801F053
:10493000CBFA054BBDE81040463365224FF48F712A
:10494000024801F0C1BA0000F4080108B8050020CF
:1049500070B5244C0246D3B2207EFF2800D12376C6
:10496000607A814208D1207E904205DDA07A617B89
:10497000884201D0401CA0721B48E57A0179491B8E
:104980000025914217DB017B022914D0217E914240
:1049900011DDA572FF2121764573022101730121EA
:1049A00021744571FEF74CFE00F57A7020630020FB
:1049B000FDF796FD12E0207E90420BDA03F0C8F975
:1049C000E17A401A904205DBA07A617B884201D0EF
:1049D0002376A572A07A617B884201D1012070BD47
:1049E000002070BD08000020F00500201FB54FF426
:1049F000E16004F04FFD154C204605F0DDFE6846F1
:104A000005F085FF44F61F00ADF800000021ADF869
:104A1000041040F2E730ADF802100290ADF8061035
:104A20006946204605F008FF0121204605F058FFA1
:104A30000121204605F050FF204605F0F7FE002238
:104A40001146132004F0ACF81FBD00000020004008
:104A500030B5224D89B0284605F0AEFE5320ADF8A2
:104A6000100000244FF4FA60ADF814400690ADF841
:104A70001240ADF816408DF81C4004A9284605F0F8
:104A8000DBFE01200090ADF80440ADF80840ADF821
:104A90000640ADF80A40ADF80C406A4600212846B1
:104AA00005F036FD00221146284605F04EFE602234
:104AB0000021284605F022FE00221146284605F076
:104AC00053FE0121284605F018FF284605F01AFD7F
:104AD000284605F0ABFE09B030BD0000004801409B
:104AE00030B54FF0804589B0284605F065FE53206B
:104AF000ADF8100000244FF4FA70ADF814400690A1
:104B0000ADF81240ADF816408DF81C4004A92846B7
:104B100005F092FE01200090ADF80440ADF8084089
:104B2000ADF80640ADF80A40ADF80C406A460021E9
:104B3000284605F0EDFC00221146284605F005FE4A
:104B400060220021284605F0D9FD082200212846D0
:104B500005F00AFE0121284605F0CFFE284605F0A3
:104B6000D1FC284605F062FE09B030BD2DE9F041C8
:104B70004B4F384603F0BBFA7D1501224FF09044AD
:104B80002B461146204603F0BEF92B460322002196
:104B9000204603F0DFF9A5616E000122334611467D
:104BA000204603F0B0F9334603220021204603F0EB
:104BB000D1F9A66100E000BF2946204603F0C5F9FF
:104BC0000128F8D100E000BF2946204603F0BDF9D6
:104BD0000128F8D1A56200E000BF2946204603F075
:104BE000B4F90028F8D1A66200E000BF31462046A3
:104BF00003F0ABF90028F8D1A66100E000BF314610
:104C0000204603F0A2F90128F8D1A56100E000BF19
:104C10002946204603F099F90128F8D12A460421B3
:104C2000204603F039F932460421204603F034F9D6
:104C30002B4600220221204603F065F92B46032271
:104C40000121204603F086F9334600220221204646
:104C500003F059F9334603220121204603F07AF983
:104C60004FF40041384603F07CFA00BF002138467B
:104C700003F077FA00BF384603F03EFA4FF4804263
:104C80000849384603F0B2F900228123114638461C
:104C900003F05CFA3846BDE8F04103F02DBA00009D
:104CA00000540040801A06002DE9FE4F8346FEF7AF
:104CB000C7FC884C00250C262063A16A54274FF0BE
:104CC00078080B684FF09E09A3F580724FF4FA6ADA
:104CD00004F174009B3A07D1CA69D2F81CC09CF851
:104CE00018C0BCF1040F03D0B3F5CE7F57D05BE002
:104CF000C2617848B430A062C261002005F04CFB6C
:104D0000754801F0AEFDFF231A46194602A802F0CD
:104D1000D3F80188ADF8001080788DF802006E4855
:104D2000009901F08DFFCDE900765C234E227221BF
:104D3000694800F0FBFF6949674801F0D8FD00238E
:104D40001A46194602A802F0B7F80188ADF800101B
:104D500080788DF802006048009901F071FFFF2310
:104D60001A46194602A802F0A7F80188ADF800100B
:104D700080788DF802005848009900F09BFF0022CF
:104D800057A1554800F025FF0646534800F0C9FFDB
:104D900000EBD072A8EB620002B2009560E0CA6935
:104DA000D3691B7E042B05D0C969C161BBF1020F19
:104DB0007ED089E0C2614B48A062E16CC1610020F5
:104DC00005F0EAFA444801F04CFDFF231A46194663
:104DD00002A802F071F80188ADF8001080788DF813
:104DE00002003D48009901F02BFFCDE900765C23DD
:104DF0004E227221384800F099FF3849364801F0B8
:104E000076FD00231A46194602A802F055F80188DB
:104E1000ADF8001080788DF802002F48009901F05D
:104E20000FFFFF231A46194602A802F045F8018831
:104E3000ADF8001080788DF802002748009900F046
:104E400039FF002226A1244800F0C3FE064622486E
:104E500000F067FF00EBD072A8EB62010AB2009588
:104E600006EBD671A9EB610001B21DA31A4801F04F
:104E700026FDFF231A46194602A802F01DF80188F4
:104E8000ADF8001080788DF802001348009901F009
:104E9000D7FE00231A46194602A802F00DF8018831
:104EA000ADF8001080788DF802000B48009900E002
:104EB00008E000F0FFFE012005F06EFA504602F017
:104EC000CFFD02E0C969C161A062FEF7B9FBE062F3
:104ED000BDE8FE8F08000020B8050020B589010854
:104EE0004F4B00009C0200200A4810B5C0790028F2
:104EF0000FD0094CA5220021204605F026FC1420E5
:104F000002F0AEFD20460022BDE81040114605F03B
:104F10001CBC10BDF0050020004801407CB5314CA0
:104F2000A56A686918B102B0BDE870400047A8687A
:104F300048B1A98839B195F9181000EB411000214A
:104F4000C561A0620176A06A00680B2803D00C2816
:104F500001D00D2817D100231A46194601A801F0E7
:104F6000ABFF0188ADF8001080788DF802001E4874
:104F7000009901F065FEC8200346462200901146C4
:104F8000194800F07EFEA06A0068052816D1164870
:104F9000CC3805F0F3F8144ACC3A107802F040FD12
:104FA00013280BD8507802F03BFD0C2806D2A06ADB
:104FB0000C49C069D431A162E064C861A86810B12D
:104FC000A06A806858B1FBF745FF002005F0E4F9BE
:104FD000FDF74CFCBDE87C40012005F0DDB9FEF793
:104FE000F9FBF2E708000020B8050020810705D191
:104FF000642190FBF1F201FB120141B94FF4C87139
:1050000090FBF1F201FB120008B100207047012073
:10501000704700001FB500231A461946684601F084
:105020004BFF0188ADF80C1080788DF80E002248F7
:10503000039900F03FFEFF231A461946684601F027
:105040003BFF0188ADF80C1080788DF80E001A48EF
:10505000039901F0F5FD184801F003FC174B02AA73
:1050600001A9154801F09EF898B9BDF908107822F9
:1050700001EBD171BDF90400A2EB61010AB200EBB2
:10508000D070A021A1EB600001B20C4B0A4800F0E7
:105090001BFF4FF4FA6002F0E3FC07483830007859
:1050A00018B10020FDF71CFA1FBD034801F0D9FB21
:1050B000014801F031FF1FBDB8050020C5470108B8
:1050C00010B50F4CA16A086910B1BDE81040004747
:1050D0008888002813D0002005F05EF9A06A017EC0
:1050E000491C49B201768288914201DB0021017698
:1050F000FDF7BCFBBDE81040012005F04DB910BD27
:105100000800002010B50F4CA06AC16811B1BDE8BD
:10511000104008478088002813D0002005F03CF993
:10512000A06A017E491E49B20176002902DA01799E
:10513000491E0176FDF79AFBBDE81040012005F0FD
:105140002BB910BD080000202DE9F041040001D565
:10515000002402E0142C00DD1424184D1848E7B296
:105160002F70417ADFF85C801648202608F1280865
:1051700059B1202102F0C2FE20B1C8F800606420BD
:1051800002F06EFC6F70BDE8F0810A2C09DD0D485D
:1051900018300660642002F063FCEC2000EB440051
:1051A00009E0202102F0AAFE20B1C8F800606420C6
:1051B00002F056FC60006870E5E70000080000207F
:1051C000F00500200004004870B50C4D0120287047
:1051D000FEF76CFF0A4C0020E071FEF739FAFEF78B
:1051E0002FFA2063FEF72CFAE063A87A002804D196
:1051F000BDE870400A20FFF7A7BF70BDF005002092
:105200000800002010B5002005F0C6F80648A0F5FB
:105210002D71886200210176FDF728FBBDE8104062
:10522000012005F0B9B80000BC02002070B502F002
:1052300041FD342002F0F2FC104D284602F0FCFC47
:10524000342002F0EBFC0E4C4FF0FF3240212046A0
:10525000FEF766FE21461126086405E0216828460F
:1052600002F038FD241D2D1D761EF7D2342002F0E9
:10527000D5FCBDE8704002F0D7BC000000F8010882
:10528000F005002070B50F4E00250F4C86F82D500C
:10529000F08D60832846FFF757FF35700120A0741A
:1052A000A572FF2020762574E573002005F074F8C0
:1052B000A6F1380001F030FEA6F13800BDE87040DC
:1052C00001F0CFBAF00500200800002010B588B02A
:1052D00000204FF48271CDE9001002904FF400716C
:1052E00005900690CDE90310064C6946204605F06E
:1052F00096F80021204605F083F8204605F08AF84C
:1053000008B010BD0038004070B5002211461C20C6
:1053100003F046FC1C4C204605F03AFB00212046D9
:1053200005F09BFB0021204605F0DEFB0021204616
:1053300005F0A7FB0421204605F09BFB0821204631
:1053400005F0ABFB4021204605F03AFB4FF4165127
:10535000204605F0E7FA204605F03AFB40F20675D4
:105360002946204605F039FB0028F9D005212046C2
:1053700005F03EFB0421204605F03AFBBDE87040F5
:10538000642002F06DBB0000004400401FB5002304
:105390001A461946684601F08FFD0188ADF80C10D9
:1053A00080788DF80E002248039900F083FCFF23DB
:1053B0001A461946684601F07FFD0188ADF80C10C9
:1053C00080788DF80E001A48039901F039FC1848CE
:1053D00001F047FA174B02AA01A9154800F0E2FEB6
:1053E00098B9BDF90810782201EBD171BDF904001C
:1053F000A2EB61010AB200EBD070A021A1EB60002A
:1054000001B20C4B0A4800F05FFD4FF4FA6002F065
:1054100027FB07483830007818B10020FDF760F806
:105420001FBD034801F01DFA014801F075FD1FBDC5
:10543000B80500205F4D01082DE9FF4F8046006947
:105440009BB000287CD082781792022A01D0012AD2
:1054500076D1D8F814200792002216926FF06302DA
:105460000C92C0780D9002910020CFE21E98435C10
:10547000002009901890D8F810000524611C425CA7
:10548000015D02EB012111F0FF0129D0E21C855CD6
:10549000A21C9942825C05EB02220FFA82F97CD1B0
:1054A000B9F1080F1CDB01211891211D04F1050B36
:1054B000435C099310F80B10E71D01F07F02049282
:1054C000A21D0025825C0A92C05D049A00F07F0A4A
:1054D0009A1A1798A2EB0A06022802D0012871D066
:1054E0006FE2C8096FD00A9A0D99A9F10800891ACC
:1054F0000026A1EB0A070E96119096E0D8F810004E
:1055000001190E980830085C95FBF7F10FFA81FB42
:1055100010F0C00F58D000F03F0A05EB0A010DB2A1
:10552000B14606EB0A010EB2000678D5289840B1C4
:10553000404698F8193098F8182098F8171007E0A6
:1055400077E20798C0F30743C0F30722C1B2404691
:1055500001F07EFB1D990A98084410903844401EC3
:1055600000B219900299049808440B9018E0109921
:10557000199B01EB090002B20B98584401B2404656
:1055800001F0A5F9A7EB0901AAEB01000FFA80FAD7
:105590004FF000090BF1010000E046E20FFA80FB3A
:1055A00009EB0A00B842E2DC1098484400EB0A011B
:1055B00002B20B98491E0BB2584401B2404601F0AA
:1055C00086F92CE0D5E036E0289949B1404698F8B4
:1055D000193098F8182098F8171001F039FB09E0F5
:1055E0008006020E4046079900F0BEFA014640468A
:1055F00001F026FB1D990A980844304402B2049930
:105600000298014401EB0B0001B2404601F038FB67
:105610006D1C761C2DB236B201E0F01B06B2BE4204
:10562000FBDA0E98401C00B20E900E991198814240
:10563000FFF664AFC5E10027A9F1080011900E97AD
:10564000384691E0D8F8100001190E980830085C2F
:1056500095FBF6F10FFA81FB10F0C00F53D000F06C
:105660003F0A05EB0A010DB2B94607EB0A010FB27A
:10567000000673D5289838B1404698F8193098F844
:10568000182098F8171006E00798C0F30743C0F3F6
:105690000722C1B2404601F0DBFA0499029808449F
:1056A00010903044401E00B219900A991D98084489
:1056B0000B9016E00B981099584402B201EB0900C8
:1056C00001B24046199B01F0EAF8A6EB0901AAEBEA
:1056D00001000FFA80FA0BF101004FF000090FFAF8
:1056E00080FB09EB0A00B042E4DC1098484400EB70
:1056F0000A01491E0BB20B9959440AB201B2404645
:1057000001F0CDF82AE0289949B1404698F81930BF
:1057100098F8182098F8171001F09AFA09E0800616
:10572000020E4046079900F01FFA0146404601F07C
:1057300087FA1D990A98014401EB0B0002B2029905
:1057400004980844384401B2404601F099FA6D1CAF
:105750007F1C2DB23FB201E0B81B07B2B742FBDAA3
:105760000E98401C00B20E9011998842FFF66AAF65
:1057700027E1289840B1404698F8193098F8182049
:1057800098F8171001F064FAD8F81000C15DC90943
:105790007ED010F80B00C00962D00A9A0D99A9F1C9
:1057A0000800891A00261190A1EB0A070E963046D0
:1057B00052E000BFD8F8100001190E980830085CBC
:1057C00000F07F09C00939D095FBF7F00FFA80FB94
:1057D00002990498B246084410900A991D9808440A
:1057E0000B901BE0384403B20B981099504402B25E
:1057F00001EB0B0001B2404601F069F8A7EB0A008B
:10580000A9EB00010FFA81F92918304406B20BF117
:1058100001000DB24FF0000A0FFA80FB0AEB0900FD
:10582000B8420B98DEDC504400EB090102B210983C
:105830000BB2584401B2404601F049F805EB0900AB
:1058400005B206EB090000E0F01B06B2BE42FBDA2F
:105850000E98401C00B20E9011998842AADBB0E06D
:105860000027A9F108000E97109055E0D8F8100015
:10587000BA4601190E980830085C95FBF6F100F065
:105880007F09C0090FFA81FB38D00299049800E023
:1058900047E008440B900A991D980844CDF844004D
:1058A0000AEB0900B0421CDD0B98304403B211989A
:1058B000584402B20B98504401B2404600F0EFFF4A
:1058C000A6EB0A00A9EB00010FFA81F92918384468
:1058D00007B20BF101000DB24FF0000A0FFA80FB86
:1058E000DEE70B9901EB0A0000EB09010BB21199FD
:1058F00059440AB201B2404600F0D1FF05EB09005D
:1059000005B207EB090000E0B81B07B2B742FBDAAB
:105910000E98401C00B20E900E9910988142A5DBA3
:105920004FE00027A9F108000597BB460F9045E01E
:10593000D8F8100001190BF10800085C0E9001E086
:10594000B81B07B2B742FBDA0598B94690FBF6F0F0
:105950000FFA80FA5FF0000509EB0500B04205D1AF
:105960000AF10100C5F100090FFA80FAC5F107013B
:10597000012088400E9900B2014211D10A991D9868
:10598000014401EB0A00411C0BB202B204990298D7
:10599000014401EB0900284401B2404600F097FFA2
:1059A0006D1CEDB2082DD7D30BF101000FFA80FB6F
:1059B0000598083000B208373FB205900F998B4523
:1059C000B6DB299880B1169940566FF06301884282
:1059D0000ADD0C90169A2998104490F9010088422B
:1059E00002DD501C00B21690189860B10299099817
:1059F000084400B202900C9810F1640F03DD029984
:105A0000084400B202901598401C00B215901E98F0
:105A1000FAF778FD159988423FF628AD07991FB02F
:105A20004046BDE8F04F01F00BB904EB09010CB2A0
:105A300024E51FB0BDE8F08F2DE9F34705462DEDB5
:105A4000020B2DED068BB0EE408AF0EE608A88B036
:105A50009FED410B9FED429B9DF8469053EC102B20
:105A600051EC180B05F0DAFB09D2BDF8440040EA0E
:105A7000094008B0BDEC068B04B0BDE8F08753ECDC
:105A8000192B51EC180B05F003FD03D2B0EE498A37
:105A9000F0EE698A287D05F0ADFB53EC182B05F07C
:105AA000F9FB41EC1A0B53EC182B51EC190B05F0D8
:105AB000F1FD8846044648EC190B9DF8440005F0BA
:105AC00099FB53EC192B05F0E5FB53EC1A2B05F071
:105AD000D5F805F01BFB0646687D05F08BFB53EC03
