:020000040800F2
:10000000401E0020FD0100080D0800080908000836
:100010000B080008050800081D0A00080000000081
:10002000000000000000000000000000310800088F
:1000300007080008000000002F0800083308000827
:10004000170200081702000817020008170200082C
:10005000170200081702000817020008170200081C
:10006000170200081702000817020008170200080C
:1000700017020008170200081702000817020008FC
:100080001702000817020008000000009909000884
:1000900017020008170200081702000817020008DC
:1000A00017020008170200081702000817020008CC
:1000B000C509000800000000170200080000000049
:1000C00017020008000000001702000800000000EE
:1000D0000000000000000000000000000000000020
:1000E00000000000000000001702000800000000EF
:1000F0000000000000000000000000000000000000
:1001000017020008000000000000000000000000CE
:1001100000000000000000000000000000000000DF
:1001200000000000000000000000000000000000CF
:1001300000000000000000000000000000000000BF
:10014000000000000000000000000000170200088E
:1001500000F002F800F042F80AA090E8000C824497
:100160008344AAF10107DA4501D100F037F8AFF274
:10017000090EBAE80F0013F0010F18BFFB1A43F085
:10018000010318472816000048160000103A24BF43
:1001900078C878C1FAD8520724BF30C830C144BFEC
:1001A00004680C607047000000230024002500262E
:1001B000103A28BF78C1FBD8520728BF30C148BFCA
:1001C0000B6070471FB501F0B7FA9DE8030000F01F
:1001D0001DFA00F0BDF81FBD10B510BD00F0D0F93C
:1001E0001146FFF7EFFF00F0E3FE00F045FA03B41D
:1001F000FFF7F2FF03BC00F071FA000009488047E6
:1002000009480047FEE7FEE7FEE7FEE7FEE7FEE7F8
:10021000FEE7FEE7FEE7FEE704480549054A064B10
:100220007047000041080008510100084004002008
:10023000401E0020401A0020401A0020032A40F2ED
:10024000308010F0030C00F0158011F8013BBCF178
:10025000020F624498BF11F801CB00F8013B38BF90
:1002600011F8013BA2F1040298BF00F801CB38BF9E
:1002700000F8013B11F0030300F07C80083AC0F065
:10028000088051F8043B083A51F804CBA0E8081064
:10029000F5E7121D5CBF51F8043B40F8043BAFF397
:1002A0000080D20724BF11F8013B11F801CB48BFF1
:1002B00011F8012B24BF00F8013B00F801CB48BF27
:1002C00000F8012B7047431A28BF9A427FF6B6AF59
:1002D000032A1044114440F2268010F0030F1EBF81
:1002E00011F8013D521E00F8013D10F0030F7FF49C
:1002F000F6AF11F0030300F08280083AC0F00B80E3
:1003000051F8043D083A51F804CD40F8043D40F856
:1003100004CDFFF7F3BF121D5CBF51F8043D40F858
:10032000043DAFF30080D20724BF11F8013D11F85E
:1003300001CD48BF11F8012C24BF00F8013D00F8A1
:1003400001CD48BF00F8012C7047704770477047D7
:1003500070B5064C7C44064D7D4403E02068204483
:100360008047241DAC42F9D170BD00007414000018
:100370007414000010B5203AC0F00B80B1E818509A
:10038000203AA0E81850B1E81850A0E81850BFF47F
:10039000F5AF5FEA027C24BFB1E81850A0E818501E
:1003A00044BF18C918C0BDE810405FEA827C24BF72
:1003B00051F8043B40F8043B08BF7047D20728BF00
:1003C00031F8023B48BF11F8012B28BF20F8023B4F
:1003D00048BF00F8012B7047431A28BF9A427FF6A6
:1003E000C9AF104410F0030F11441EBF11F8013DB6
:1003F000521E00F8013D10F0030F7FF4F6AF103AE3
:10040000C0F00A8010B531E91850103A20E91850B0
:10041000BFF4F9AFBDE81040530724BF31E908101D
:1004200020E9081044BF51F8043D40F8043D12F0A3
:10043000030F08BF7047D20728BF31F8023D48BFFD
:1004400011F8012C28BF20F8023D48BF00F8012C0C
:1004500070470000004870471404002070B506463D
:1004600000F0B4F8056806F10B0020F00704B44270
:100470009CBF002070BD2B466A68BAB11068A042CC
:1004800010D304F1080188423CBF5068586007D37C
:100490005168101941601168091B016058601460AF
:1004A000101D70BD13465268002AE7D12146284628
:1004B00000F098F80028DED170BD70B50446051F25
:1004C00000F084F80068002C14BF446870BD002C54
:1004D00018BFAC423CBF20466468F8D301680A18D4
:1004E000AA4218BF456003D12A680546114401603D
:1004F00028684119A1421CBF6C6070BD61686960C9
:1005000021680844286070BDAFF3008010B500F08A
:100510000EF8016919B100220261884701E0806884
:10052000804700F0B2F8000010B500F0AEF870B5EA
:1005300000F050F804680546A4B92020FFF78EFFAC
:10054000040011D0094900202C60C4E900010849C9
:10055000A1602073206160610649A06109B100F0CB
:100560009FF8E061204670BD00F08FF800000000A9
:10057000290500080000000000487047E003002043
:100580007546FFF7F9FFAE4605006946534620F071
:100590000700854618B020B5FFF73EFEBDE82040B5
:1005A0004FF000064FF000074FF000084FF0000B2F
:1005B00021F00701AC46ACE8C009ACE8C009ACE8E2
:1005C000C009ACE8C0098D4670470000004870477C
:1005D000E8030020004870471C0400207047704763
:1005E0007047704738B504460A4600206946AFF3A5
:1005F0000080002808BF38BD02460099204600F060
:1006000073F8012038BD012000F08FB8F8B5AFF3C2
:100610000080054600200C46102000BF0646A819A1
:10062000A0420DD9324669460020AFF30080070092
:1006300008BF00F07AF80098A04218BF0546C41918
:10064000FFF7C4FF05600746F01D20F007004619BC
:10065000284600F00AF8B44208BFF8BDA21B314694
:100660003868BDE8F84000F03FB800210160C0E9FB
:10067000011070471020704710B50446AFF300809A
:100680002046BDE81040FFF7B2BD10B5002000F0D5
:1006900045F8FFF7A1FDBDE81040012000F01EB8AD
:1006A00010B58820FFF7DAFE002801D00021017084
:1006B00010BD802902D808B1017809B10020704727
:1006C000012100F8081B704718B100F1080291429F
:1006D00001D00020704700210170704701491820A7
:1006E000ABBEFEE726000200034640688C460028A9
:1006F00018BF88423CBF03464068F8D318681844C6
:10070000884207D00CF1030020F00700001D411AB9
:10071000521A0146081D0A60FFF7CFBE10B500F05F
:1007200011F8BDE8104000F008B810B500F022F84C
:10073000BDE8104000F001B87047002801D0FFF775
:10074000CDBF704710B5002102A000F03BF801209A
:1007500010BD0000534947414252543A2041626E55
:100760006F726D616C207465726D696E6174696F12
:100770006E00000010B5012805D0002103A000F094
:1007800021F8012010BD09A1F8E7000053494752A4
:10079000544D454D3A204F7574206F662068656151
:1007A00070206D656D6F7279000000003A20486519
:1007B0006170206D656D6F727920636F72727570F4
:1007C0007465640070B505460C460A2000E06D1C97
:1007D00000F011F835B128780028F8D102E0641C47
:1007E00000F009F814B120780028F8D1BDE8704075
:1007F0000A20AFF3008008B569468DF80000032099
:10080000ABBE08BDFEE77047FEE7FEE7704709078D
:10081000090E002806DA00F00F0000F1E02080F851
:10082000141D704700F1E02080F8001470477047F5
:10083000704710B500F026FBBDE8104000F0A4B8EA
:10084000484810B546494160474A4260816082602D
:10085000016941F020010161016941F0400101613C
:10086000C168C907FCD1016921F02001016101695A
:1008700041F010010161C16911F0060F3B490AD036
:10088000C269C2F34102012A07D0C269C2F3410220
:10089000032A04D005E0A52202E0BB2200E0CC221E
:1008A0000A80C169DF2202EA1121304A921C1180BC
:1008B000C169921CC1F307411180C169090E921CE4
:1008C0001180016A921CC9B21180016A921CC1F3A5
:1008D00007211180016921F010010161244801689C
:1008E00041F4700101602348016841F00101016099
:1008F00001688907FCD541681F4A11404160416881
:100900001E4A1140416001681D4A11400160C16AE0
:100910001C4A1140C162016B40F203129143016312
:10092000016B21F480310163016B21F0004101630F
:10093000416B21F001014163D0F8C01021F48031F6
:10094000C0F8C01000218160C0F8CC1000F0A6FDF6
:10095000BDE8104000214FF0006000F085BB0000B2
:100960002301674500200240AB89EFCD00F8FF1F4F
:1009700088ED00E0001002400C00FF08FFFFC27786
:10098000FFFFF2FEF0FFFF3F02480168491C0160D3
:10099000704700000000002010B5084C01212046DF
:1009A00000F0D1FD012807D10121204600F0C8FD4B
:1009B000BDE8104000F004B810BD00000020004069
:1009C0007047000070B5114D0F49284600F04AFEEF
:1009D00018B1BDE8704000F0A1BC0D4E284631466C
:1009E00000F040FE50B10B4C207838B93146284613
:1009F00000F024FE0120207000F090FC2846BDE8A5
:100A00007040054900F02EBE050005070044004077
:100A1000040004070B00002007000707FEE710B5DD
:100A200040F2115000F050FC40F2125000F04CFC2B
:100A300040F20E7000F048FC40F2117000F044FCEF
:100A400040F2126000F040FC4FF4E06000F03CFC2B
:100A500040F2096000F038FC40F2157000F034FC00
:100A600040F21C7000F030FCBDE81040062000F0A1
:100A700005BB00002DE9F04101224FF09046022312
:100A80001146304600F03AFA022303220021304694
:100A900000F056FA202300220321304600F02EFAFF
:100AA00001220221304600F0F7F901230022022141
:100AB000304600F023FA012303220021304600F0E3
:100AC0003FFA3E4F4FF4007422460221384600F0B0
:100AD000E3F9022223461146384600F00FFA0022BD
:100AE00023461146384600F02BFA224604213046B0
:100AF00000F0D2F965002A460421304600F0CCF916
:100B0000234601220221304600F0F8F92346032251
:100B10000121304600F014FA2B4601220221304612
:100B200000F0ECF92B4603220121304600F008FAD0
:100B30004FF4204422460021384600F0ADF9234608
:100B400000220221384600F0D9F923460322002171
:100B5000384600F0F5F940F60444012223461146D8
:100B6000384600F0CBF9234603220021384600F036
:100B7000E7F904220121304600F08EF90822012114
:100B8000304600F089F9042301220221304600F0AA
:100B9000B5F9042303220021304600F0D1F90823DF
:100BA00001220221304600F0A9F93046BDE8F041AB
:100BB00008230322002100F0C3B90000000400480C
:100BC00070B5002211461C2000F000FA1C4C204693
:100BD00000F0FAFC0021204600F05BFD00212046D9
:100BE00000F09EFD0021204600F067FD0421204614
:100BF00000F05BFD0821204600F06BFD40212046FF
:100C000000F0FAFC4FF41651204600F0A7FC2046F5
:100C100000F0FAFC40F206752946204600F0F9FC87
:100C20000028F9D00521204600F0FEFC04212046D2
:100C300000F0FAFCBDE87040642000F01BB9000031
:100C40000044004003B5BDF8041081829DF80610F1
:100C500081750CBD1CB5044601A800F05EF8018842
:100C6000ADF8001080788DF8020020460099FFF75B
:100C7000E9FF1CBD38B504461D482060914201D2F1
:100C8000084600E01046A08001D9084600E0104662
:100C9000E0802181628102D94FF0010001E04FF034
:100CA000000060734FF000014FF00100A073A185B8
:100CB00084F82A0084F82B009FED0E0B0B4684ED80
:100CC000080B84F828100A46684604F10C0400F06A
:100CD00024F801888078A4F80B106073FF230C3C83
:100CE0001A4619462046FFF7B5FF204638BD0000DA
:100CF0004C170008000000000000F03F10B5017024
:100D0000002141608173C1736424448282828175B1
:100D1000017341730374816110BD0170427083706F
:100D2000704710B500F001F810BD10B5FFF7C5FB16
:100D300010BD10B500F002F810BD000010B50400A1
:100D400007D1012405E0FFF785FB006800B90448DE
:100D500080472046FFF782FB0028F4D010BD00003A
:100D600009050008FF2310B51A4619463948FFF750
:100D7000D4FF384C5A23F222FF21E01CFFF7CDFFAD
:100D80004F239322EB21A01DFFF7C7FF4F236D22B6
:100D9000E32104F10900FFF7C0FF4A235622E021B6
:100DA00004F10C00FFF7B9FF0023ED22FF2104F14D
:100DB0000F00FFF7B2FFFF230F341A461946E01C5D
:100DC000FFF7ABFFBC2375220E21A01DFFF7A5FF87
:100DD00000231A46194604F10900FFF79EFF1D483B
:100DE0004FF4FA64002322460C211C30FFF786FFE3
:100DF0001848002322460B213830FFF77FFF1548A3
:100E0000002322460A215430FFF778FF11480023BF
:100E1000224609217030FFF771FF0E48A41001230C
:100E2000224607218C30FFF769FF0A48012322463A
:100E30000621A830FFF762FF0648F021C8304FF4C2
:100E4000A072FFF717FF04490160012180F82A1002
:100E500010BD00007000002080170008024600202E
:100E6000002905D012F8013B491E1844C0B2F9D13F
:100E7000704700000249486048680028FCD170476C
:100E80000000002003484168002902D04168491E43
:100E90004160704700000020F0B5036A446A0025F5
:100EA00001260F2706FA05FC1CEA020F09D04FEABB
:100EB000850C07FA0CFE23EA0E0301FA0CFE4EEA3B
:100EC00003036D1CADB2082DECD3082506FA05FC12
:100ED0001CEA020F0BD04FEA850CACF1200C07FA8C
:100EE0000CFE24EA0E0401FA0CFE4EEA04046D1C0A
:100EF000ADB2102DEAD303624462F0BD2DE9F04794
:100F0000894601689246C268002401274FF0030C0D
:100F100007FA04F51D420BD066000CFA06F5A9434A
:100F2000AA4309FA06F80AFA06F548EA01012A4333
:100F3000641CA4B2102CEBD30160C260BDE8F08742
:100F4000F0B50129416831D099434160816801279A
:100F50000325A2F57F44FF3C13D0002407FA04F6D2
:100F60001E4208D0660005FA06FC21EA0C0102FACE
:100F700006FC4CEA0101641CA4B2102CEED3816083
:100F8000F0BDC66B5FF0000407FA04F21A4206D007
:100F90004FEA440C05FA0CFC4CEA01011643641CB0
:100FA000A4B2102CF0D38160C663F0BD1943CCE726
:100FB00000F0A6FAFFF733FDFFF75CFD4FF090411C
:100FC00002208861FFF7FCFDFEE7000070B50546D2
:100FD0001F4800240E460068234600F4E0614FF4E9
:100FE000A06081420FD006DCB1F5407F16D0B1F58C
:100FF000806F06D10FE0B1F5C06F09D0B1F5E06F99
:1010000004D000F027F80224234608E0042306E079
:101010000124032303E00324012300E00424C4F19A
:1010200004008640C3F104010F20C8401040304343
:1010300005F1E021000181F8000405F01F01012005
:1010400088406909890001F1E021C1F8000170BD03
:101050000CED00E0024908430249086070470000B7
:101060000000FA050CED00E0024A1140014302487D
:101070000160704780FFFF1F08ED00E021494A68CA
:1010800022F440424A600A6B1F4B1A400A630A2846
:1010900027D2DFE800F005091113151A272B2F338B
:1010A000086B20F4803002E0086B40F48030086365
:1010B000086B20F4807013E0486804E0486807E09B
:1010C000486840F48040486007E0486840F4804049
:1010D0004860086B40F000400863086B40F4807083
:1010E00008637047486840F40040ECE7486840F403
:1010F0000040EDE7486840F44040E4E7486840F4C9
:101100004040E5E700100240FFFEFE7F2DE9F0477A
:1011100063A688B056CE8DE8560062A28046D2E91A
:101120000012CDE904125FA20020D2E90012CDE93D
:1011300006125F4A0546034651685E4EC1F38101BF
:1011400019B1012901D0022901D0314627E05168A7
:101150005468C1F38341C4F3C067D46AE40F0FB18C
:10116000113102E00F2913D0891C04B11F315468DA
:10117000D76AC4F30044C7F3807774B1D46A04F02B
:101180000F04641C37B14C4FB7FBF4F4614306E025
:101190001021EAE7B6FBF4F4F8E7484C61435468E1
:1011A000C4F303141DF8047021FA07F457680DF115
:1011B000100CC7F302271CF8077024FA07F95768C8
:1011C0000DF1180CC7F3C2274FF4004A1CF8077042
:1011D00024FA07F7B8F1070F06D2DFE808F0040891
:1011E0000A0C0E3E4600084608B0BDE8F0872046CF
:1011F000FAE74846F8E73846F6E7106BC00506D42C
:10120000106BC00301D42E4D25E02E4D23E0506815
:10121000C0F38131106BC00F31B1012909D002290F
:101220000ED0032917D112E008B1032003E07D0896
:1012300011E018B10520B4FBF0F50CE0BD080AE0A0
:1012400008B10720F7E70620B7FBF0F503E008B187
:101250000920F0E7FD082846C6E7106B400602D4D7
:1012600048F21200C0E75046BEE7106B80070ED070
:10127000106B00F0030001280BD0106B00F003008E
:10128000022808D0106BC043800706D006E03B461A
:1012900004E00B4602E0534600E033461846A3E75D
:1012A0000000000000000000010203040607080916
:1012B0000010024000127A00006CDC0200093D00C0
:1012C000809FD500003FAB01054901EB90110A68F2
:1012D00000F01F030120984002430A60704700009D
:1012E00000100240054901EB90110A6800F01F034D
:1012F0000120984082430A607047000000100240BD
:10130000054901EB90110A6800F01F030120984085
:1013100002430A6070470000001002402DE9F84FB8
:101320005B4C5C4DE07848B95B4800F045F961786A
:101330006854491C6170E07800287DD0554E00202B
:101340006278FF36904207D02B5CA178401CC0B277
:101350007354491CA170F5E7DFF834A100254FF064
:10136000010BA8460AF1040A85E0705D55287DD17D
:1013700070194178AA297CD1C1780091808890FAAF
:1013800090F909F10700FFF7D4FC0746002109F1A5
:10139000070004E06A18B25C7A54491CC9B2814261
:1013A000F8D309F106013846FFF758FD07EB0901AC
:1013B00020708979814257D1009820B1012813D03B
:1013C000022828D050E08AF803808AF80480304848
:1013D0008AF805B08AF806B00721001DFFF73EFD28
:1013E0008AF8070008213BE08AF803B02A218AF82E
:1013F00004808AF805100A4625490AF106003631AC
:10140000FEF761FF22483021001DFFF727FD8AF813
:101410003000312124E002208AF803001C488AF8B9
:101420000480D1468AF805800621001DFFF716FDCD
:1014300089F80600072100E027E01548001D00F0AC
:1014400051F9032189F80310114889F8048089F8BB
:1014500005800621001DFFF701FD89F80600072120
:101460000B48001D00F03EF9384600E001E0FFF7B0
:1014700058FC6D1CEDB2A07885427FF476AF84F8FD
:10148000028084F8018084F80380BDE8F88F0000B2
:1014900008000020E0010020004400401548416899
:1014A0004160416841F400514160416841F480610C
:1014B00041604168104A11404160C16A0F4A1140C1
:1014C000C162416841F001614160C16AC162016865
:1014D00041F08071016001688901FCD5416821F00B
:1014E00003014160416841F0020141604168090720
:1014F000FCD5704700100240FFFFC0F7F0FFFF3F30
:1015000070B50E484FF47A710068B0FBF1F0401EE0
:10151000B0F1807F11D24FF0E024606165170F2198
:101520002846FFF774F90020A061072020612846B3
:10153000BDE870400021FFF76AB9FEE76C000020AB
:10154000C94301617047C26800690A40084202D07D
:101550000AB10120704700207047000070B50D46A9
:10156000044614490020611804D0B1F5744F04D129
:10157000062000E00220FFF7C9FD21684FF6F07257
:1015800009040BD5400000EB5500B0FBF5F000EA74
:101590000201C0F3420241EA020008E000EB5500FC
:1015A000B0FBF5F101EA020001F00F010843E06031
:1015B00070BD000000BCFFBF406AC0F30800704768
:1015C000C1F30801816270470A4910B5401805D07F
:1015D000B0F5744F0CD140F20E3401E040F21144EA
:1015E0002046FFF78DFE2046BDE81040FFF77ABE8B
:1015F00010BD000000BCFFBF826822F04002826084
:1016000082680A4382607047016841F0010101600D
:10161000704700EB9110006801F01F02012191401A
:10162000084000D00120704700EB9110026801F0E3
:101630001F03012199400A4302607047084A914202
:1016400005D150F8D01F21F4004101607047026AB3
:10165000C1F30443012199400A430262704700002C
:1016600009340F3410B5C1F38912835800EB91503F
:1016700001F01F04012202FA04F400682340C1F3C0
:1016800004418A40104202D00BB1012010BD00205D
:1016900010BD026822F001020260026822F4C062FA
:1016A000026002680A4302607047026822F0040286
:1016B000026002680A4302607047026822F0010279
:1016C0000260426822F44052426042680A4342602B
:1016D0007047026822F00802026002680A43026052
:1016E000704700002DE9F0410E46804600240B4D66
:1016F00040F207770DE000BF18F804102846FFF706
:101700005FFF39462846FFF784FF0028F9D0641CA4
:10171000A4B2B442F0D3BDE8F08100000044004020
:10172000026822F001020260026822F48052026024
:1017300002680A43026070474FF04070E1EE100A01
:1017400070470000000000000000000000000000E2
:101750000000000000000000000000000000000089
:101760000000000000000000000000000000000079
:101770000000000000000000000000000000000069
:101780000000000000000000000000000000000059
:101790000000000000000000000000000000000049
:1017A000000000000000000000000000D01700084A
:1017B00000000020700000008C01000840180008A4
:1017C00070000020D01D0000A801000899F5FFFF5F
:1017D00000000000000000000000000055AA030007
:1017E00000000000000000000000000000000000F9
:1017F00000000000000000000000000000000000E9
:1018000000000000000000000000000000007B223B
:1018100070223A22697437613867716D716572326E
:101820007162667A222C2276223A22312E312E31B2
:10183000222C226D223A307D0000000000BD0105FF
:04000005080001519D
:00000001FF
