:020000040800F2
:10000000A02100204D020008352F0008112E000805
:10001000C52E00084D120008AD3400080000000095
:100020000000000000000000000000009131000806
:100030006913000800000000792F000893310008C0
:100040006702000867020008D9300008670200084C
:1000500067020008670200086702000867020008DC
:1000600067020008670200086702000867020008CC
:1000700067020008670200086702000867020008BC
:10008000670200086702000800000000F93200085B
:10009000670200086702000867020008670200089C
:1000A000670200086702000867020008670200088C
:1000B0004D34000800000000670200080000000046
:1000C000670200080000000067020008000000004E
:1000D0000000000000000000000000000000000020
:1000E000000000000000000067020008000000009F
:1000F0000000000000000000000000000000000000
:10010000670200080000000000000000000000007E
:1001100000000000000000000000000000000000DF
:1001200000000000000000000000000000000000CF
:1001300000000000000000000000000000000000BF
:10014000000000000000000000000000670200083E
:1001500000F002F800F06AF80AA090E8000C82446F
:100160008344AAF10107DA4501D100F05FF8AFF24C
:10017000090EBAE80F0013F0010F18BFFB1A43F085
:1001800001031847E8E5010008E601000A444FF0C2
:10019000000C10F8013B13F0070408BF10F8014BE6
:1001A0001D1108BF10F8015B641E05D010F8016B2B
:1001B000641E01F8016BF9D113F0080F1EBF10F88F
:1001C000014BAD1C0C1B09D16D1E58BF01F801CBB2
:1001D000FAD505E014F8016B01F8016B6D1EF9D535
:1001E0009142D6D37047000000230024002500264A
:1001F000103A28BF78C1FBD8520728BF30C148BF8A
:100200000B607047642900F0A580732900F04983D2
:10021000002070471FB509F08AFD9DE8030000F03B
:10022000A7FC00F099FA1FBD10B510BD00F05AFCF4
:100230001146FFF7EFFF07F059FA00F0CFFC03B4C7
:10024000FFF7F2FF03BC00F0FBFC00000948804709
:1002500009480047FEE7FEE7FEE7FEE7FEE7FEE7A8
:10026000FEE7FEE7FEE7FEE704480549054A064BC0
:1002700070470000A131000851010008A0070020CC
:10028000A0210020A01D0020A01D00200FB41CB53F
:10029000074B06AA7B4469460090059800F0D7FA00
:1002A0000020694600F0E6FA1CBC5DF814FB000073
:1002B000DD05000070B5044685690068C10601D5FA
:1002C000302600E02026C00707D070BDD4E9012108
:1002D00030469047206A401C20626D1EF6D570BDE6
:1002E00070B5044685690078C00707D170BDD4E9B0
:1002F000012120209047206A401C20626D1EF6D507
:1003000070BD70B50C460546012A05D028788006D8
:1003100000D5EA69002302E0012305E05B1C93425B
:1003200002D2E05C0028F9D1A869E618C01AA861D9
:10033000286A184428622846FFF7BCFF04E0D5E984
:10034000012114F8010B9047B442F8D32846FFF777
:10035000C7FF70BD2DE9F0410646002410687529DD
:10036000314616A510D0AFF30080002802DA4042D3
:1003700013A507E031688A0701D512A502E04907F5
:1003800004D511A5012401E0AFF3008000210A2269
:1003900006F1240709E0B0FBF2FCB0FBF2F302FB2C
:1003A0001C00303078541846491C0028F3D12346ED
:1003B0002A463046BDE8F04100F0EBB900000000ED
:1003C0002D0000002B000000200000002DE9F05F50
:1003D000894604464FF0000ADFF824B1FB44C0F818
:1003E00020A02046E168884700287DD0252806D037
:1003F000D4E901219047206A401C2062F1E70025E2
:100400005F462046E16888472028064607DB312EF4
:1004100005D2B81910F8200C08B10543F1E7A80778
:1004200001D525F00405C4F81CA00027C4F818A0C5
:100430002A2E09D0304605F0E1FF38B304EB8708D7
:10044000303EC8F8186019E059F8041B204604EB48
:1004500087029161E1688847012F064618D1E0695B
:10046000002820DA25F020051DE0D8F8180000EB60
:10047000800006EB40003038C8F818002046E168DC
:100480008847064605F0BAFF0028EED1012F0AD0B2
:100490002E2E08D12046E16888477F1C0646022F91
:1004A00045F02005C4DBA069002803DA404245F08E
:1004B0000105A061E80701D025F01005A6B1A6F15D
:1004C0004100192802D8203645F400654A463146D5
:1004D000204625604D46FFF795FE60B1012807D004
:1004E000ED1D25F0070000E007E000F1080978E7BE
:1004F00005F1040975E730467AE7206ABDE8F09F08
:100500007CE2010010B5431C02E010F8011B71B140
:100510008107FAD14FF0013202C88C1A8C4314EAD9
:10052000C211F9D0C01A0A0603D0C01E10BDC01AED
:1005300010BD0A0401D0801E10BD0902FCD0401E6F
:1005400010BD02F0FF0343EA032242EA024200F038
:1005500002B84FF000020429C0F0128010F0030C22
:1005600000F0A581CCF1040CBCF1020F18BF00F81B
:10057000012BA8BF20F8022BA1EB0C0100F097B9CA
:100580005FEAC17C24BF00F8012B00F8012B48BFB3
:1005900000F8012B70470000014900F0ADB90000E0
:1005A0001407002010B503681C1404EB21449BB20F
:1005B00089B2194494FBF2F302FB134394FBF2F467
:1005C00001EB034393FBF2F102FB113193FBF2F3D6
:1005D00001E05B1E11440029FBDB016003EB0440DA
:1005E00010BDF0B504464FF0FF3585B000680490AB
:1005F00060680290A0680390E06801902069009014
:10060000666906F18040B0F1004F7CD83C220021A1
:1006100004A8FFF7C7FF3C22014602A8FFF7C2FF6C
:100620001822014603A8FFF7BDFF411E40F2B55254
:1006300001A8FFF7B7FF0C22074668460021FFF725
:10064000B1FF414B00EB8700304400267B4411E0B2
:10065000511A01910099491C0229009102D00C29DC
:1006600008D105E0810705D00199491C019101E0FD
:10067000401C00960099019A595C9142E8DD00996E
:10068000012906D11C2A04D1810702D00221CDE91B
:100690000016A0F146018B293CD2DDE90061002261
:1006A00002E09F5C521C3944B242FADB012E02DDAB
:1006B000820700D0491E40F2B55340F26D16C217B2
:1006C00000EB927292105A4300F0030303FB0622E0
:1006D00083070A4400D1521E039E02EB4203049F8B
:1006E00006EBC303029EC3EB031306EB8303174E13
:1006F00033441E149BB2C6EB0616C3EB0313B600BD
:1007000007EB830300E005E006EB134666F31F43A7
:10071000360C02D0284605B0F0BD80C4029E40C40D
:10072000039E40C4019E761C44F80C6B009E44E975
:1007300002600720521C92FBF0F600FB162084E8B2
:1007400023001846E7E7000060E00100A039CEFD75
:10075000704770477047000070B5064C7C44064DEA
:100760007D4403E0206820448047241DAC42F9D139
:1007700070BD00002CE0010030E0010010B500F079
:100780001BF9006810BD10B5044600F015F90460AF
:1007900010BD2DE9F0470D4699469246044600F1FA
:1007A00024080168880604D5E06921F01001216061
:1007B00000E00120A84201DD471B00E00027A169FD
:1007C0007A1902EB0900081AA0612078C00602D449
:1007D0002046FFF76FFD002608E0D4E901211AF852
:1007E00006009047206A401C761C20624E45F4DBD0
:1007F0002078C0060AD52046FFF75CFD06E0D4E964
:10080000012130209047206A401C2062381EA7F149
:100810000107F4DC07E0D4E9012118F8050090474E
:10082000206A401C2062281EA5F10105F3DC204649
:10083000FFF756FD2078000602D50220BDE8F087BC
:100840000120FBE701694A1C02610878704700B586
:100850008FB0CDE901310021059105497944CDE9F9
:10086000031011466846FFF7B1FD0FB000BD000050
:10087000E5FFFFFF0A6802F8010B0A60704710B538
:10088000436913B1AFF3008001E0FFF73AFD0120A7
:1008900010BD127800F124010A7000224A70012272
:1008A000EDE711684FF0FF32E9E74FF0000200B5C5
:1008B000134694469646203922BFA0E80C50A0E883
:1008C0000C50B1F12001BFF4F7AF090728BFA0E831
:1008D0000C5048BF0CC05DF804EB890028BF40F8FD
:1008E000042B08BF704748BF20F8022B11F0804F3F
:1008F00018BF00F8012B704770B50C460168002046
:100900004A1C3ED03C22B1FBF2F302FB1313B1FBB5
:10091000F2F12360B1FBF2F302FB1313B1FBF2F12E
:1009200018226360B1FBF2F302FB1313B1FBF2F187
:1009300046F2E0320A440721A360B2FBF1F301FB67
:10094000132140F2B553B2FBF3F5A161B2FBF3F111
:1009500003FB15228900B2F5B77F08D39B10521E06
:10096000B2FBF3F52944B2FBF3F503FB15220F4B61
:10097000E261616189077B440CD03B2A0AD3521C97
:1009800008E02C212046FFF790FF0120E0600AE0FC
:10099000521A401C195C9142FAD9521CC4E9032036
:1009A0004FF0FF302062204670BD000036DD0100B0
:1009B0000048704774070020004870474007002037
:1009C00070B5064600F0B4F8056806F10B0020F09B
:1009D0000704B4429CBF002070BD2B466A68BAB1C0
:1009E0001068A04210D304F1080188423CBF50684F
:1009F000586007D35168101941601168091B0160E4
:100A000058601460101D70BD13465268002AE7D16B
:100A10002146284600F098F80028DED170BD70B558
:100A20000446051F00F084F80068002C14BF4468D9
:100A300070BD002C18BFAC423CBF20466468F8D3A0
:100A400001680A18AA4218BF456003D12A68054602
:100A50001144016028684119A1421CBF6C6070BD3F
:100A60006168696021680844286070BDAFF3008048
:100A700010B500F00EF8016919B100220261884733
:100A800001E08068804700F0B2F8000010B500F087
:100A9000AEF870B500F050F804680546A4B92020FF
:100AA000FFF78EFF040011D0094900202C60C4E933
:100AB00000010849A1602073206160610649A061BE
:100AC00009B100F09FF8E061204670BD00F08FF89A
:100AD000000000008D0A0008000000000048704778
:100AE000400700207546FFF7F9FFAE46050069464E
:100AF000534620F00700854618B020B5FFF7B4FB39
:100B0000BDE820404FF000064FF000074FF000080E
:100B10004FF0000B21F00701AC46ACE8C009ACE88F
:100B2000C009ACE8C009ACE8C0098D4670470000B8
:100B30000048704748070020004870477C070020A5
:100B4000704770477047704738B504460A46002022
:100B50006946AFF30080002808BF38BD02460099FF
:100B6000204600F073F8012038BD012000F08FB856
:100B7000F8B5AFF30080054600200C46102000BFFA
:100B80000646A819A0420DD9324669460020AFF3A7
:100B90000080070008BF00F07AF80098A04218BF54
:100BA0000546C419FFF7C4FF05600746F01D20F095
:100BB00007004619284600F00AF8B44208BFF8BDFD
:100BC000A21B31463868BDE8F84000F03FB800216C
:100BD0000160C0E9011070471020704710B504464D
:100BE000AFF300802046BDE81040FFF728BB10B5EA
:100BF000002000F045F8FFF717FBBDE8104001208A
:100C000000F01EB810B58820FFF7DAFE002801D0EA
:100C10000021017010BD802902D808B1017809B106
:100C200000207047012100F8081B704718B100F13F
:100C30000802914201D000207047002101707047E6
:100C400001491820ABBEFEE72600020003464068BB
:100C50008C46002818BF88423CBF03464068F8D342
:100C600018681844884207D00CF1030020F00700F0
:100C7000001D411A521A0146081D0A60FFF7CFBE37
:100C800010B500F011F8BDE8104000F008B810B53C
:100C900000F022F8BDE8104000F001B870470028CD
:100CA00001D0FFF7CDBF704710B5002102A000F0C2
:100CB0003BF8012010BD0000534947414252543ACD
:100CC0002041626E6F726D616C207465726D696E29
:100CD0006174696F6E00000010B5012805D0002115
:100CE00003A000F021F8012010BD09A1F8E70000E1
:100CF00053494752544D454D3A204F7574206F6605
:100D00002068656170206D656D6F7279000000006C
:100D10003A2048656170206D656D6F727920636F50
:100D2000727275707465640070B505460C460A20D1
:100D300000E06D1C00F011F835B128780028F8D1DA
:100D400002E0641C00F009F814B120780028F8D102
:100D5000BDE870400A20AFF3008008B569468DF801
:100D600000000320ABBE08BD2DE9F04FFE4DFF4F44
:100D700005F11E0EE86A9EF801100026026885B093
:100D80004FF0010B05F1200A07F10E0907F14404A9
:100D9000352A78D031DC1F2A6AD01CDCF2490D2AB2
:100DA00001F1580189785DD006DC0B2A58D00C2A55
:100DB0006AD1F970012009E0152A55D0162A63D1AD
:100DC00087F80AB0007E401CF872022005B0BDE82A
:100DD000F04F03F0D1BB202A57D02B2A7ED0332AE4
:100DE0007DD0342A50D179710029E3D0BE7287F8C2
:100DF0002D606E7102F00EF8DCE7DB4B40F2B918A3
:100E00001E33A2F2B91C93F90130424568D013DCBD
:100E1000DFF85883A2F5807208F170084FF07F095F
:100E20004FF0FF0A9B3A7DD0012A7CD00A2A7BD062
:100E30000B2A29D13972BDE7BCF1020F75D0BCF184
:100E4000450F73D0BCF1460F71D0BCF1590F1BD1C7
:100E5000017EC06990F91820C44815301154A9E7E3
:100E6000B970A7E73971A5E7BE7214206872ACE7C4
:100E700087F82D1000299DD005F0BEFC032800D175
:100E80003E737E71B5E783E1C4E0017E491C49B23F
:100E9000017601293BD12189A088C1EB011100EB2A
:100EA0008100F885A883B148383804F0D1FCAF48F8
:100EB000AF4B02AA01A9383804F0D6FBBDF90810DF
:100EC000BDF9040001EBD1727821A1EB62010AB2F5
:100ED00000EBD071A020A0EB610002E032E05FE106
:100EE00084E101B2A148A24B383804F04FFA4FF424
:100EF0007A7005F0C5FB9D48383804F0A9FC01F074
:100F000081FF686301F07EFF286301F083FFE86AD8
:100F1000007E02287ED12189A088C1EB011100EB5F
:100F2000810005E010E0CBE055E183E143E14BE1D6
:100F3000F885A883012003F01FFB05B0BDE8F04F42
:100F400001F068BFF97135E7017E8A4F491C49B24B
:100F50000176491E02296ED204F10C0007C805F083
:100F600088FEC0B32069401E20616069A0F26C70E9
:100F7000606107F5A470FFF734FB00906846FFF747
:100F80000BFB834607F02AFDDBF8180000B90720A9
:100F900088F80300207D43466438C0B205F064FB46
:100FA0001870207C401CC0B205F05EFB5870207B9E
:100FB00005F05AFB9870A3F808906C48A3F80AA0B3
:100FC00070303E6107F052FD2069401C206160696D
:100FD00000F26C7060616548383804F039FC634891
:100FE000634B04AA03A9383804F03EFBBDF9101086
:100FF000BDF90C0001EBD1727821A1EB62010AB2BC
:1010000000EBD071A020A0EB610001B25748584B13
:10101000383800E04DE004F0B9F94FF47A7005F08B
:101020002FFB5248383804F013FC01F0EBFE6863E4
:1010300001F0E8FE2863E86A007E032839D104F154
:101040000C0007C805F015FEB0B32069401E2061F2
:101050006069A0F26C70606144484430FFF7C1FAE7
:1010600000906846FFF798FA054607F0B7FCA869B4
:1010700000B9072088F80300207D43466438C0B2D9
:1010800005F0F2FA1870207C401CC0B205F0ECFAB2
:101090005870207B05F0E8FA9870A3F80890334860
:1010A000A3F80AA070303E6107F0E0FC012003F0D5
:1010B00063FA05B0BDE8F08FFFE7E86A0676F8E767
:1010C000017E491C49B20176012940D1207A05F000
:1010D000CBFA88F804004346207905F0C5FA587128
:1010E0009E712248A3F80890A3F80AA0703007F078
:1010F000BDFC1E48383804F0ABFB1C481C4B03AA4F
:1011000002A9383804F0B0FABDF90C10BDF9080096
:1011100001EBD1727821A1EB62010AB200EBD07130
:10112000A020A0EB610001B21048114B383804F048
:101130002DF94FF47A7005F0A3FA0C48383804F012
:1011400087FB01F05FFE686301F05CFE2863E86ADC
:10115000007E0228ADD1207A05F086FA88F80400D6
:101160004346207908E0000008000020B805002070
:1011700082B10008B404002005F076FA58719E711F
:10118000A3F80890A3F80AA02C4807F06FFC11E61A
:101190002B49027EC861B818E962407D087688E76D
:1011A00090F918108AF8001011F809108AF8011047
:1011B0002349403904E02249027E8AF8012020397F
:1011C000C861E9620E7674E79AF900209AF8011076
:1011D00002F80910EEE523B10020B87118B12E75A0
:1011E000E8E50120F9E785F814B0E3E57246BBB104
:1011F000017E491C49B20176012916D00229CED1BF
:1012000001F07AFF03F0AAFBBFF34F8F0D4801688E
:101210000D4A01F4E06111430160BFF34F8FFEE717
:1012200005B0BDE8F04F01F04FBE82F801B08EF876
:1012300000B03EE707F002FBBCE5000028060020F6
:10124000A40100200CED00E00400FA05FEE7000018
:101250000848C16A8A88002A0AD091F91800431CFC
:101260005BB20B76934201DB00220A7602F02EBFBE
:1012700070470000080000200848C16A8A88002AD8
:101280000AD091F91800431E5BB20B76002B01DAED
:10129000521E0A7602F01ABF7047000008000020B4
:1012A000184810B5C06A184C90F91800022803D0ED
:1012B000012811D0B8B120E0E068401EE0601CD1E8
:1012C0001F2001E0E068401EE060D4E9041205F050
:1012D000D0FC0028F6D010E02069401E20610CD11F
:1012E0000C20206109E0606940F2E371401E6061FA
:1012F000884202DA40F633006061BDE8104000F039
:1013000035B8000008000020FC05002070B5144826
:10131000144C0125C06AD4E9041290F9180002287F
:1013200003D0012809D070B116E0E068401CE060ED
:1013300005F09FFC80B9E5600EE0491C21610D2994
:101340000AD1256108E0521CA2F5006062613438C0
:1013500002D140F2E3706061BDE8704000F006B871
:1013600008000020FC050020704700002DE9F04F28
:10137000FE4EA9B0F06A00680B2807D00C2805D0F3
:101380000D2803D0FA4804F063FA17E000231A4648
:10139000194601A804F0EAFB0188ADF80010807836
:1013A0008DF80200F248009904F0ACFAC820034618
:1013B000462200901146EE4803F093FFF06AEB4D91
:1013C00040F29B1201681E35A0270024A1F29B1059
:1013D0004FF0020805F13E0A91427BD01EDC202925
:1013E00079D012DCDFF884836FF0180908F158080F
:1013F0000D2954D004DC0B2951D00C292CD148E004
:10140000162955D01F2927D10FE12B29FCD03329CC
:101410007ED034297DD035291ED1D3E34FF4A07975
:10142000202877D00CDC0B28EED004DC0128D7D0A4
:101430000A2811D172E11E286DD01F280CD1F8E2C4
:10144000CA4D2035632867D0642866D07824772871
:1014500076D0B0F5137F01D0C6A0B4E3C94B11AA72
:1014600010A9C34804F000F9BDF94410BDF94000CB
:1014700001EBD171A4EB610100EBD0700AB2A7EBD4
:10148000600001B2BF4BBA4803F080FF29B0BDE84D
:10149000F08F02F0AFFEBCA001F046FA01E002F0CE
:1014A000A9FE98F902000F22494601F06BFAEDE718
:1014B000B9A001F0DBF9F06A90F91800411C01EBCA
:1014C0004101890000EB800001EB8000ADF8400095
:1014D00000242CE0BDE1BFE1A54804EB4405E83859
:1014E00028440188ADF8001080788DF80200A048EB
:1014F000009904F007FABDF940005A2100EBD070C2
:10150000A7EB6000009100EB850004EB840105E08F
:1015100013E316E0E7E2A2E1F2E3F2E300EB81007D
:1015200001B20C234B22924803F0DBFE641CF06AEC
:1015300090F91800401CA042CEDC02F05BFEA5E74B
:10154000F7E3002197A001F0BFF99949884804F01A
:10155000C5F9687818B1FF231A46194602E000233E
:101560001A4619461AA804F001FB687818B1382306
:10157000A522132102E0FF231A46194619A804F0F8
:10158000F5FABDF86800ADF814009DF86A008DF812
:101590001600BDF86400ADF810009DF866008DF8E7
:1015A0001200687800B1012082A10091CDE9010408
:1015B00064231A4619461420039401F035FA68781A
:1015C00018B100231A46194602E0FF231A461946AD
:1015D00019A804F0CBFA687818B1FF231A46194607
:1015E00002E03823A52213211AA804F0BFFABDF89F
:1015F0006400ADF814009DF866008DF81600BDF883
:101600006800ADF810009DF86A008DF81200687847
:1016100048B1002068A10091CDE9010464231A4675
:101620001946039474E00120F4E76149504804F03E
:1016300055F9687818B1FF231A46194602E00023CD
:101640001A4619461CA804F091FA687818B1382394
:10165000A522132102E0FF231A4619461BA804F015
:1016600085FABDF87000ADF814009DF872008DF891
:101670001600BDF86C00ADF810009DF86E008DF8F6
:101680001200287800B10120697801B1012149A236
:10169000CDE90021CDE9020464231A464621142035
:1016A00001F0C2F9687818B100231A46194602E021
:1016B000FF231A4619461BA804F058FA687818B197
:1016C000FF231A46194602E03823A52213211CA83D
:1016D00004F04CFABDF86C00ADF814009DF86E00F3
:1016E0008DF81600BDF87000ADF810009DF872007E
:1016F0008DF81200287868B10020697861B1002166
:101700002DA2CDE900216423CDE902041A46462129
:10171000C8200FE20120F0E70121F1E72449144835
:1017200004F0DCF8687818B1FF231A46194602E085
:1017300000231A4619461EA804F018FA687818B152
:101740003823A522132102E0FF231A4619461DA8BB
:1017500004F00CFABDF87800ADF814009DF87A009A
:101760008DF81600BDF8740028E000000800002085
:10177000800500204E6F7420696D706C656D656E1C
:101780007465640082B1000845636F203C20436F9C
:101790006D666F7274000000506F776572206C6523
:1017A00076656C0050726F6772616D6D6500000048
:1017B000638E01084F4E00004F464600ADF8100002
:1017C0009DF876008DF81200687800B10120FEA126
:1017D0000091CDE9010478231A463C21142003949A
:1017E00001F022F9687818B100231A46194602E080
:1017F000FF231A4619461DA804F0B8F9687818B1F5
:10180000FF231A46194602E03823A52213211EA8F9
:1018100004F0ACF9BDF87400ADF814009DF8760042
:101820008DF81600BDF87800ADF810009DF87A002C
:101830008DF81200687850B10020E4A10091CDE944
:10184000010478233C211A46B420039472E101205C
:10185000F3E702F0CFF919E602F014FB16E6DD49D2
:10186000DD4804F03BF8F06A90F9180010B1012847
:1018700049D06DE000231A46194607A804F076F90E
:10188000FF2306461A46194606A804F06FF90146DA
:101890003088ADF81400B0788DF816000888ADF8DF
:1018A000100088788DF81200CCA0CDE9000400214A
:1018B00002943C234F464A460846039401F0B4F88C
:1018C00000231A46194606A804F050F9FF230646DD
:1018D0001A46194607A804F049F901463088ADF8C0
:1018E0001400B0788DF816000888ADF810008878DC
:1018F0008DF81200BEA0CDE900043C2302943A46C4
:101900002D21039421E000231A46194606A804F06D
:101910002DF9FF2306461A46194607A804F026F9B2
:1019200001463088ADF81400B0788DF816000888AC
:10193000ADF8100088788DF81200B0A0CDE9000451
:101940003C2302944A4600210394002001F06CF8E5
:10195000A049A14803F0C2FF687818B1FF231A46D6
:10196000194602E000231A46194620A804F0FEF8A2
:10197000687818B13823A522132102E0FF231A4604
:1019800019461FA804F0F2F8BDF88000ADF8140065
:101990009DF882008DF81600BDF87C00ADF81000AF
:1019A0009DF87E008DF81200687800B1012097A1A3
:1019B0000091CDE901045A231A467321142003949F
:1019C00001F032F8687818B100231A46194602E08F
:1019D000FF231A4619461FA804F0C8F8687818B102
:1019E000FF231A46194602E03823A522132120A816
:1019F00004F0BCF8BDF87C00ADF814009DF87E0042
:101A00008DF81600BDF88000ADF810009DF882003A
:101A10008DF81200687850B100207DA10091CDE9C9
:101A200001045A2373211A46D220039482E0012034
:101A3000F3E76849684803F051FF00231A46194646
:101A400022A804F093F8FF2305461A46194621A858
:101A500004F08CF801462888ADF81400A8788DF8B9
:101A600016000888ADF8100088788DF8120069A07B
:101A7000CDE9000402943C234D464A46462100200D
:101A8000039400F0D1FF68A369A26CA112A8FEF72D
:101A9000FDFB002212A9504803F0A3FB0023ADF880
:101AA00040001A46194621A804F060F8FF230646B4
:101AB0001A46194622A804F059F801463088ADF8B4
:101AC0001400B0788DF816000888ADF810008878FA
:101AD0008DF8120012A8CDE900043C2302942A4696
:101AE0007321039425E03B493B4803F0F7FE0023B4
:101AF0001A46194626A804F039F8FF2305461A4667
:101B0000194625A804F032F801462888ADF81400DB
:101B1000A8788DF816000888ADF8100088788DF840
:101B2000120048A0CDE900043C2302944A46462115
:101B30000394002000F078FFA8E42748CC3806F092
:101B40001FFFDFF894B0C14600250BF1380BA0460B
:101B50000BEB0507B87B072801D987F80E80FF2318
:101B60001A46194623A804F001F80188ADF80010C0
:101B700080788DF802001848009903F0C3FE3649BA
:101B8000154803F0ABFE00231A46194624A803F0BB
:101B9000EDFFFF2304461A46194623A803F0E6FF8B
:101BA0002188ADF81410A1788DF816100188ADF8D1
:101BB00010102A4980788DF8120051F83520CDE9AF
:101BC00000284DE0CCE101E23530250031303025F0
:101BD00000000000AB9B0108800500205265736582
:101BE0007420616C6C206465766963650000000098
:101BF00073657474696E67733F00000041726520FD
:101C0000796F7520737572653F0000005965730028
:101C10004E6F000043757272656E74206669726D56
:101C2000776172650000000031322E332E370000DC
:101C300076657273696F6E3A200000002573257314
:101C40000000000046696E64206D6520696E207496
:101C50007579612061707000C2C60108A49D0008FA
:101C600001EBC504CDF80880CDF80C80B4F906105E
:101C7000B4F904001E23322200F0D6FEFA49FB48D4
:101C800003F02CFEF06A90F91800A84203D1FF235C
:101C90001A46194602E000231A46194623A803F003
:101CA00065FFF06A90F91800A84203D13823A522F5
:101CB000132102E0FF231A46194624A803F056FF19
:101CC000BDF88C00ADF814009DF88E008DF816005C
:101CD000BDF89000E549ADF810009DF89200CC39B0
:101CE0008DF81200C978491EA94201D1012100E0F6
:101CF0000021F26A92F91820AA4203D1012202E0DF
:101D000018E0A6E00022BF7B5AF827300093CDF8F8
:101D10000C90CDE90121E08832231E3001B2B4F9E4
:101D200004001A4600F080FE6D1C072DFFF610AF70
:101D300005E41FE195F9000007280CD2DFE800F068
:101D40000407303336393C000021C9A001E00021EE
:101D5000C9A000F0B9FDC449C44803F0BFFDDFF8D5
:101D60000C93002409F146093746AB46C4EB041036
:101D7000002600EB800050300FFA80F8C6EB06100A
:101D800000EB8000163000B21790F86A06EB84056D
:101D900090F91800A84212D1FF231A46194611E003
:101DA0000021B7A0D5E70021B8A0D2E70021BAA052
:101DB000CFE70021BAA0CCE70021BCA0C9E70023EF
:101DC0001A46194627A803F0D1FEF86A90F91800C0
:101DD000A84203D13823A522132102E0FF231A468B
:101DE000194624A803F0C2FEBDF89C00ADF814000B
:101DF0009DF89E008DF81600BDF89000ADF810001B
:101E00009DF892008DF812009BF90020022112F833
:101E10000900A84201D1012200E00022F86A90F9ED
:101E20001800A84201D1012300E000235AF8250040
:101E3000CDE90003CDE9022132231A464146179825
:101E400000F0F2FD761C042E98DB641C022C8DDB66
:101E500001E595F901006FF0040108280AD2DFE8D6
:101E600000F0040617191B1D1F2192A000E094A08A
:101E700000F02AFD95497D4803F030FD95F90100F9
:101E8000072811DA924900EB400001EBC0060DE093
:101E900090A0EDE792A0EBE794A0E9E796A0E7E732
:101EA00098A0E5E79AA0E3E7704E4D360025A346DB
:101EB00005EB4500002400EB0511412000EB41003B
:101EC00005EB450A0FFA80F904EB4401132000EBFF
:101ED000011804EB4A073A468FA108A8FEF7D6F985
:101EE000F05D032803D94FF00100F05505E004D15F
:101EF0004FF0FF031A46194603E04FF000031A465D
:101F0000194627A803F032FEF05D584900EB400265
:101F1000D939114403280A88ADF8142089788DF83E
:101F20001610BDF89C10ADF810109DF89E108DF89D
:101F3000121013D0002208A9CDE9001BCDE902B28E
:101F400020232A2249460FFA88F000F06DFD641C18
:101F5000062CB9DB6D1C042DAADB7CE40222EAE727
:101F60006FF002016DA000F0AFFC4FF0FF3002F007
:101F7000ADF870E402F03EF9F06A90F9180058B13B
:101F8000012824D002283ED0674B11AA10A9374857
:101F900003F06AFBB0B363E0644B11AA10A93348A5
:101FA00003F062FB88B9BDF94410BDF9400001EBB4
:101FB000D171A4EB610100EBD0700AB2A7EB600015
:101FC00001B25A4B294803F0E1F959A049E05A4BB4
:101FD00011AA10A9254803F047FB88B9BDF94410A0
:101FE000BDF9400001EBD171A4EB610100EBD070B1
:101FF0000AB2A7EB600001B24F4B1C4803F0C6F9D0
:102000004EA02EE01AE04E4B11AA10A9174803F07B
:102010002BFB88B9BDF94410BDF9400001EBD1712B
:10202000A4EB610100EBD0700AB2A7EB600001B233
:10203000434B0E4803F0AAF942A012E0BDF9441048
:10204000BDF9400001EBD171A4EB610100EBD07050
:102050000AB2A7EB600001B2334B044803F096F9D3
:102060003BA000F003FC67E5CDDD01088005002002
:102070004D6F6E6461790000547565736461790019
:102080005765646E65736461790000005468757209
:102090007364617900000000467269646179000030
:1020A00053617475726461790000000053756E6449
:1020B0006179000050524553455420310000000022
:1020C000505245534554203200000000C2C601085A
:1020D000DC9D000850524553455420330000000059
:1020E000505245534554203400000000505245538F
:1020F00045542035000000005052455345542036C9
:1021000000000000505245534554203700000000A5
:10211000435553544F4D000025640000435553541C
:102120004F4D203234680000C740010829A3000841
:10213000436F6D666F7274004EA7000845636F00B1
:1021400026AB0008416E74692D66726F73740000CF
:102150004F6666002DE9F043C94E8046C94DF06ACE
:1021600089B010B1687800287ED0B8F1010F21D075
:10217000002006F013FDC348383803F069FBFF2345
:102180001A46194606A803F0F1FC0188ADF80010C4
:1021900080788DF80200BB480099383803F0B2FB14
:1021A000287B002708B3012827D0022833D0032832
:1021B0006BD138E000231A46194601A803F0D6FC7B
:1021C0000188ADF8001080788DF80200AD480099C4
:1021D000383803F097FB5F200090AA48C8233C22C0
:1021E0006421383803F07DF8C9E704F029FB0022A8
:1021F000114600F0C7FBA44B06E004F021FB0022CF
:10220000114600F0BFFBA14B9E480F221621383823
:1022100003F0BCF839E004F013FB0022114600F093
:10222000B1FB9B4BF0E797489A4B3C2296213838FC
:1022300003F0ACF893489849383803F04FFB00237B
:102240001A46194608A803F091FCFF2304461A46D3
:10225000194607A803F08AFC2188ADF81410A1786C
:102260008DF81610018800E004E1ADF810108078B8
:102270008DF8120089A0CDE9000702972D23522284
:10228000A0218C20039700F0CFFB707D042801D1A2
:10229000F06AE8B300231A46194601A803F066FC69
:1022A0000188ADF8001080788DF80200754800991B
:1022B000383803F027FB297B1A2003294FF02B0322
:1022C00000903ED0B08C7D22801D01B26D48383820
:1022D00003F007F8FF231A46194601A803F046FC4D
:1022E0000188ADF8001080788DF8020065480099EB
:1022F000383803F007FB687B48B1287B032806D0F9
:102300006048674B81221621383803F03FF800E01F
:1023100007E095F82D00012816D06879012824D00F
:1023200019E0287B5F4B032808D0B08C7D22801DEC
:1023300001B25448383803F029F8DCE73B22162173
:10234000F7E73B221621C1E7574B47224D4816219C
:10235000383803F01BF8287B03287CD0A87A0524A2
:102360004FF00C09012806D007E0287B4F4B0328CB
:10237000EBD19622EAE7687930B1F07D132829D8AD
:102380000F281BD9042425E0EC7A052C09D0042C55
:1023900009D0032C0AD0022C0CD0012C0CD077725F
:1023A00019E0142000E01020707201E086F8099016
:1023B000002612E00820F7E70420F5E70A2801D3F9
:1023C000032407E0052801D9022403E008B1012411
:1023D00000E00024F47000261FE0354906EB4600BB
:1023E00008440188ADF8001080788DF80200254877
:1023F0000099383803F086FA06EB061000EB461019
:1024000000EBC600163001B21E483123CD22383809
:10241000CDF8009002F065FF761CA642DDDBFF23BD
:102420001A46194601A803F0A1FB0188ADF8001077
:1024300080788DF8020013480099383803F062FA6A
:1024400010481C49383803F049FAA87A012801D10C
:10245000687990B100E007E017A300970948B72218
:102460001521383803F022FAB8F1010F02D001200B
:1024700006F094FB09B0BDE8F08311A30097EDE7E7
:1024800008000020B80500201E210108F81E0108E0
:10249000061B0108C7400108AB9B01084F66660098
:1024A000021801088D6F0108D3120108CD1501082B
:1024B0009804002019DB01084155544F000000002A
:1024C000435553544F4D0000F0B5844E87B0F06A29
:1024D00000286ED08068E8B1814803F0B9F901F0B6
:1024E00089FEF06A816890F9180001EB40107C4980
:1024F0000068383129286FD022DC0C2856D00EDC39
:102500000C2856D2DFE800F0E8404346494CE8E8A2
:10251000E8E8E84F07B0BDE8F040FEF727BF16280F
:102520004BD006DC0D2845D0152842D16D4D6EA448
:102530007FE01F2844D020283BD16D4D6DA478E06A
:1025400040F29B13A0F29B1298426AD00BDCA0F1E0
:102550002A000C282DD2DFE800F054575EBFBFBF21
:10256000BFBFBF40434E0B2A61D006DC012A5BD0BF
:102570000A2A1ED1624D63A45BE01E2A4ED01F2A98
:1025800017D1634D63A454E0654D66A451E0684DD6
:1025900068A44EE0694D6AA44BE06B4D6BA448E023
:1025A0006D4D6EA445E0704D70A442E0714D72A473
:1025B0003FE091E0714D72A43BE0744D74A438E0AB
:1025C00091F82D00002801D0734D00E0734D01D02B
:1025D00073A42EE075A42CE010E0784D78A428E0D8
:1025E0004879002801D0784D00E0784D01D078A4DA
:1025F0001FE078A41DE0784D78A41AE07A4D7BA402
:1026000017E07D4D7DA414E0C87908B17D4D00E050
:102610007D4D7EA40DE07F4D7FA40AE0804D81A416
:1026200007E04D4D81A404E0834D84A401E0864D74
:1026300086A4EDB32B4604AA03A9294803F014F895
:10264000A02790B9BDF91010BDF90C0001EBD171B4
:102650007822A2EB610100EBD0700AB2A7EB600018
:1026600001B22B461E4802F091FEF06A816890F993
:10267000180001EB40100068202825D17749184840
:1026800003F02CF9B18B3C20B1FBF0F200FB1213EC
:10269000B1FBF0F272A105A8FDF7F8FD002205A933
:1026A0000F4802F09EFD014600200090019000E0DE
:1026B0000AE0029001EBD170A7EB600000B20023AA
:1026C00005AA672100F046FA002C05D007B0204685
:1026D000BDE8F04000F0CAB807B0F0BD0800002027
:1026E000800500208ABA00084175746F0000000060
:1026F0000D6001085365742074696D6572000000F7
:10270000FDFF00084272696768746E6573730000AC
:1027100064470108496E666F726D6174696F6E007F
:10272000849E000848656174206D6F646500000038
:1027300046B70008506F776572000000C6C20008F7
:1027400054696D6572000000C6D100085365747449
:10275000696E677300000000C1D9000850726F678E
:1027600072616D6D6500000029A30008436F6D66FE
:102770006F7274004EA7000845636F0026AB000817
:10278000416E74692D66726F73740000C4BE0008D8
:10279000437573746F6D0000EECC0008A6C8000886
:1027A00054696D6572206973206F6E0054696D65A0
:1027B00072206973206F66660000000076230108AE
:1027C000536574757000000070280108322F0108ED
:1027D0004F6E00004F666600ED3501084375737457
:1027E0006F6D2064617900000963010844617465BC
:1027F00020262074696D650023EF0008446973701A
:102800006C61790062DE000837E50008536F756E71
:1028100064000000CB390108536572766963650076
:10282000604D0108526573657400000053657420A3
:102830006461746500000000705A010853657420DB
:1028400074696D65000000001AF600084175746F28
:1028500020737769746368206F666600638E010871
:10286000253032643A253032640000001CB5FF2365
:1028700004461A46194601A803F078F90188ADF814
:10288000001080788DF802000D48009903F03AF8A6
:102890000C490B4803F022F800222146084802F0B8
:1028A000A0FC0021009100EBD070A021A1EB600002
:1028B00001B22346B922024802F0F8FF1CBD000015
:1028C00080050020AB9B01087CB5FF230C46054624
:1028D0001A46194601A803F049F90188ADF800101D
:1028E00080788DF802000E48009903F00BF80D492E
:1028F0000B4802F0F3FF00222946094802F071FC60
:102900000021009100EBD070A021A1EB600001B28A
:102910002B4604F11A02024802F0C8FF7CBD0000F9
:1029200080050020AB9B01081CB5FF2304461A4616
:10293000194601A803F01AF90188ADF80010807853
:102940008DF802000D48009902F0DCFF0C490B489D
:1029500002F0C4FF00222146084802F042FC002198
:10296000009100EBD070A021A1EB600001B22346E2
:102970001022024802F09AFF1CBD000080050020D2
:10298000C2C60108F0B5FF2387B017460D460446BE
:102990001A46194606A803F0E9F80188ADF80010B8
:1029A00080788DF802001A48009902F0ABFF2246A9
:1029B00018A101A8FDF76AFC1749154802F08EFF1F
:1029C000002201A9124802F00CFC044600EBD4706E
:1029D000A521A1EB60000544002607F13C0201ABF4
:1029E000174629B20A48009602F060FF0B490848D2
:1029F00002F074FF281901B20C4609A33A460448B4
:102A0000009602F053FF0748848407B0F0BD000031
:102A1000800500202564000096720108CF8C010813
:102A2000B0430000080000202DE9FF4F8BB0934613
:102A3000DDE91C54DDE91817994600224448DDF809
:102A40006CA002F0CEFB0490414802F09AFC804654
:102A50000B990BEBDB72049801EB620100EBD07079
:102A6000A1EB600000B202900C9909EBD97201EB66
:102A7000620108EBD870A1EB600000B201900FB1C9
:102A8000294600E02146324802F03CFFCDF8009094
:102A9000DDE90B125B462E4802F023FC47B12146CC
:102AA0002B4802F02FFFBAF1000F1AD017B119E02E
:102AB0002946F5E7002611E0704209EB40010BEBD7
:102AC000400003B20C9809B2304402B20B98009156
:102AD000304401B21E4802F0DCFB761C5645EBDBAD
:102AE00002E00FB1294600E02146194802F012FC2D
:102AF00000200090DDE901211548189B02F0D6FE68
:102B00001A9878B10FB32146114802F0FBFE03205A
:102B100000900198049B4044401D02B20C48029969
:102B200002F0DFFB00231A46194609A803F01EF83D
:102B30000188ADF8001080788DF8020004480099F3
:102B400002F0E8FB0FB0BDE8F08F2946DCE700009B
:102B5000800500202DE9FF4F83B01C00DDE91187BF
:102B6000DDF840B00E46824603D0FF231A461946D0
:102B700002E000231A46194601A802F0F7FF39487F
:102B8000019902F0BFFE00223648059902F029FBA8
:102B90008146344802F0F5FB054600EB470000B2E1
:102BA000009009EB480003B2F01B02B2AAEB080048
:102BB00001B22C4802F095FB74B100231A46194665
:102BC00001A802F0D3FF2748019902F09BFE3CB117
:102BD000FF231A46194606E0FF231A461946EFE777
:102BE00000231A46194601A802F0C0FF1D480199AA
:102BF00002F090FB00200090324651461948059B98
:102C000002F054FEBBF1000F14D034B300231A4677
:102C1000194602A802F0AAFF1248029902F072FEB9
:102C2000042000907019401D02B24B4651460D48D9
:102C300002F057FB00231A46194601A802F096FF3E
:102C40000188ADF8001080788DF8020005480099E1
:102C500002F060FB07B0BDE8F08FFF231A4619466B
:102C6000D7E70000800500207CB500F0CBF84C4C85
:102C7000E16B884276D900F0C5F8E063617D494E8A
:102C80001A25022905D039B3032925D0042927D0D4
:102C900029E000231A46194601A802F067FF0188BF
:102CA000ADF8001080788DF802003E480099383861
:102CB00002F028FE307B4FF02B030328009508D04C
:102CC000A08C7D22801D01B23648383802F009FB05
:102CD00037E03B221621F7E700F5FA70E06302E0E7
:102CE000207A00283ED1207A4FF0000380F00100C6
:102CF0002072307B1A460328194601A833D002F00F
:102D000035FF0188ADF8001080788DF80200254865
:102D10000099383802F0F6FD0095A08C2B23801D19
:102D200001B220487D22383802F0DBFA207A40B127
:102D3000A08C7D221C4B801D01B21A48383802F04D
:102D400025FBFF231A46194601A802F00FFF018850
:102D5000ADF8001080788DF80200124800993838DC
:102D600002F0D0FD7CBD02F001FF0188ADF800103B
:102D700080788DF802000B480099383802F0C2FDC7
:102D800008482B233B2216213838009502F0A9FA77
:102D9000207A0028D5D03B22034B1621CDE7000036
:102DA00008000020B80500208D6F010810B5124CF6
:102DB00000204FF0904120750120886100F022F83A
:102DC000E16B884216D9207A80F00100207200F071
:102DD00019F800F5FA70E063084802F039FD207A2E
:102DE000002807D04022BDE81040054B642103486D
:102DF00002F0CCBA10BD00000800002080050020C1
:102E00005B6901080148006870470000000000206D
:102E1000FEE700002DE9F041274C2078D0B194F86E
:102E20002D0008B96079A8B1244805F0A9FD234F09
:102E30000026387800F00F01000900EB800001EB5C
:102E40004000C0B2132809D2607938B184F82D60EF
:102E500066712673BDE8F04105F060BD05F05EFDCA
:102E6000164D94F82D001435012803D060790128FF
:102E700007D00FE06E72AE72B879E8721048286021
:102E800008E06E720E48AE72EE728030286003F079
:102E9000B3FC20734FF0804068600320287207481D
:102EA000143005F013FD4FF4807005F0CDFDBDE842
:102EB000F04105F055BD0000B8050020B404002025
:102EC00000808000FEE7000010B5174CE06AC06982
:102ED00028B3002005F062FEE26A04F11E001168CA
:102EE000332910D0A1F58073B93B02D100210170C4
:102EF0004170D069C4F82C00FFF7E6FABDE8104035
:102F0000012005F04BBE09494B79002BF1D1D36963
:102F1000074AE262D361497901704170ECE7BDE88C
:102F2000104000F0C5BA000008000020B8050020DD
:102F3000E401002070470907090E002806DA00F0B6
:102F40000F0000F1E02080F8141D704700F1E02030
:102F500080F8001470470000024900204870FEF716
:102F600005BA000026000020024901204870FEF743
:102F7000FDB9000026000020704700002DE9F04157
:102F8000524E534C0025F36AA4F1440006F11E0290
:102F90001968332966D01CDC162951D010DC4B4A45
:102FA0000B2902F158023DD0032307240C293FD0FE
:102FB0000D293FD0152941D1BDE8F041FDF7D4BE20
:102FC0001F2941D0202942D02B2937D1C079107038
:102FD00078E040F2A51CA1F2A517614562D01ADC89
:102FE00034295DD035293DD03A4FA1F580719B3908
:102FF0003AD0012922D1384605F0C2FC387903F0D5
:103000001FFBA060787903F01BFB6060B87903F0C8
:1030100017FB206041E0012F56D0142F22D0592FEA
:103020000CD11FE0807890700A201070232049E0B6
:10303000C07800E00079907013705470BDE8F081A2
:10304000C07A401E1876F9E790F82D00BFE7C18DD1
:103050003C20B1FBF0F2A260B1FBF0F200FB1210D9
:10306000C4E900501D76E9E71A4805F089FCB878F4
:1030700003F0E6FAE060787803F0E2FA206138784D
:1030800003F0DEFA132802D240F2E37004E038784D
:1030900003F0D6FA00F5FA606061F06A0576CDE7D4
:1030A000407994E78079002807D000BF4FF00000F6
:1030B000107005D14FF0010004E04FF00100F7E778
:1030C0004FF000005070B9E7007A80E70800002058
:1030D000FC050020B404002010B54FF48074204695
:1030E00005F0BAFC002806D0204605F0ADFCBDE88E
:1030F000104005F0D3BB10BD2DE9F041234C012752
:103100000025277065701820A0700420E07005204D
:1031100020716571A771E77125726572A572E772FA
:10312000257365730326A673E67326746674A67406
:10313000E67426750122182104F11500FDF701FA45
:1031400084F82D504FF43470E085A4F1200005651B
:1031500045658565C56505F041FCA4F582707F2154
:103160000181FF21418120210170C6704770877065
:1031700005611221C56001714571857105F076FC0C
:10318000002800D1FEE7BDE8F0810000B80500206E
:10319000704710B503F07CFABDE8104000F0A4B809
:1031A000484810B546494160474A426081608260A4
:1031B000016941F020010161016941F040010161B3
:1031C000C168C907FCD1016921F0200101610169D1
:1031D00041F010010161C16911F0060F3B490AD0AD
:1031E000C269C2F34102012A07D0C269C2F3410297
:1031F000032A04D005E0A52202E0BB2200E0CC2295
:103200000A80C169DF2202EA1121304A921C118032
:10321000C169921CC1F307411180C169090E921C5A
:103220001180016A921CC9B21180016A921CC1F31B
:1032300007211180016921F0100101612448016812
:1032400041F4700101602348016841F0010101600F
:1032500001688907FCD541681F4A114041604168F7
:103260001E4A1140416001681D4A11400160C16A57
:103270001C4A1140C162016B40F203129143016389
:10328000016B21F480310163016B21F00041016386
:10329000416B21F001014163D0F8C01021F480316D
:1032A000C0F8C01000218160C0F8CC1005F0C4FC4B
:1032B000BDE8104000214FF0006004F095BA000016
:1032C0002301674500200240AB89EFCD00F8FF1FC6
:1032D00088ED00E0001002400C00FF08FFFFC277FD
:1032E000FFFFF2FEF0FFFF3F02480168491C01604A
:1032F000704700000000002010B5084C0121204656
:1033000005F0DDFE012807D10121204605F0D4FE9D
:10331000BDE8104000F004B810BD000000200040DF
:1033200009494FF480720879401EC0B208714B7889
:10333000834201D9054B01E0044B10331A60002889
:1033400001D11420087170470800002018040048BB
:1033500006488178491E49B2817090F90020914257
:1033600001DA41788170FEF701B8000060000020AA
:1033700006488178491C49B2817090F90120914238
:1033800001DD01788170FDF7F1BF000060000020D1
:10339000154830B4C26A154892F91840D0E90113B3
:1033A00014B1012C0FD018E05B1E83601268202A34
:1033B00000D123B1002B10DA172181600DE061B933
:1033C0000121416009E0491E416014683B22202C24
:1033D00000D12BB1002900DA426030BCFDF7C6BF36
:1033E0000129F9DBF9E7000008000020FC050020B6
:1033F000F0B4144800250124C36A134893F91860F7
:10340000D0E9011216B1012E0CD014E0521C8260DA
:10341000172A00DD85601A68202A0CD1826852B90B
:1034200071B108E0491C41601B68202B00D12AB112
:103430003B2900DD4560F0BCFDF798BF3B29FADD74
:103440004460F8E708000020FC05002070B5124C2D
:103450001049204605F0D6FE68B1204605F07CFEF6
:103460000F490E4B0A789854521CD0B2087032287B
:1034700001D1002008700B4D2046294605F0C2FE00
:10348000002806D02946204605F0A8FE064901205E
:10349000087070BD05000507004400403C06002090
:1034A000640400200400040766040020FEE7000016
:1034B00002490020C862FEF74DBE0000080000204F
:1034C00010B540F21C7004F073FD04F0EFF94FF4F6
:1034D0000064204604F0E8FC204604F0F3FCE01011
:1034E00004F090FD40F60F0004F062FDBDE81040CE
:1034F00005F02CBB10B500214FF4807003F072F87A
:103500000121084602F094FF07220521002003F064
:103510000BF80121022003F065F8002003F046F8C3
:103520000121084602F0BCFF4FF46021012002F0A7
:10353000D5FF002002F09AFF02F0A6FF0A2003F058
:103540009FF802F063FFBDE81040012003F03AB895
:1035500010B5094C00220749204603F0BFFA0022AB
:1035600081231146204603F069FB2046BDE8104048
:1035700003F03ABB801A0600005400402DE9F041E8
:10358000314C0126314D207D022804D1287810B11C
:1035900001F05CF80026FFF735FC2063687800270F
:1035A0004FF0010880B3287820B1207D012814D085
:1035B00098B114E02548383802F01CFCA87908B10D
:1035C000277501E084F8148001F040F88C206083B6
:1035D00001F0B0F80020BDE8F08101F037F81B4899
:1035E000383802F007FCA87908B1277501E084F8A3
:1035F000148001F09FF8FFF705FCA0F5D240783861
:10360000206368780026B0B92878A0B1287A40B144
:10361000207D022805D10020FEF79CFDFFF7F2FB7C
:10362000A0640A48383802F0E5FBA87908B127758C
:1036300001E084F81480FFF7E5FB41F2883108448B
:10364000A0643046C7E7000008000020B80500204D
:1036500010B540F2157004F0ABFC40F2115004F0CC
:10366000A7FC40F2125004F0A3FC40F20E7004F0EC
:103670009FFC40F2117004F09BFC40F2126004F0D9
:1036800097FC4FF4E06004F093FC40F2096004F012
:103690008FFC40F21C7004F08BFCBDE8104006204B
:1036A00004F0CCBA30B503461046064C07E013F8D8
:1036B000015BC2B26A4054F8222082EA1020491EFF
:1036C000F5D230BD5CE201082DE9F04101224FF056
:1036D000904602231146304603F08DF9022303225F
:1036E0000021304603F0AEF9504F4FF4F0742346FA
:1036F00002220121384603F07EF9234603220021ED
:10370000384603F09FF9202300220321304603F0BE
:1037100072F901220221304603F036F9012300221A
:103720000221304603F067F90123032200213046CD
:1037300003F088F94FF4007422460221384603F062
:1037400023F9022223461146384603F054F9002299
:1037500023461146384603F075F9224604213046C7
:1037600003F012F965002A460421304603F00CF9F3
:10377000234600220221304603F03DF9234603226E
:103780000121304603F05EF92B460022022130462B
:1037900003F031F92B4603220121304603F052F9A0
:1037A0004FF4204422460021384603F0EDF823462A
:1037B00000220221384603F01EF92346032200218D
:1037C000384603F03FF940F60444012223461146EF
:1037D000384603F010F9234603220021384603F04F
:1037E00031F904220121304603F0CEF808220121EC
:1037F000304603F0C9F8042301220221304603F0C9
:10380000FAF8042303220021304603F01BF90823B1
:1038100001220221304603F0EEF83046BDE8F041C7
:1038200008230322002103F00DB900000004004822
:103830002DE9F043002391B01A4619460BA802F077
:1038400095F90188ADF8001080788DF80200CF4816
:10385000009901F05FFDFF231A4619460BA802F0FC
:1038600085F90188ADF8001080788DF80200C7480E
:10387000009902F047F8DFF81483002508F13808B2
:10388000C34C98F80600012608B1257500E026759E
:10389000BE4801F0DDFFBD4802F0ACFA002005F0A3
:1038A0007DF9BC4B0DAA0CA9B84801F0DDFEA0279C
:1038B00090B9BDF93410BDF9300001EBD1716E2221
:1038C000A2EB610100EBD0700AB2A7EB600001B27D
:1038D000B04BAE4801F05AFD012005F05FF94FF4FE
:1038E000FA69484602F0CCFE002005F057F9A748D7
:1038F00001F0AEFFA548E838B0F80F10ADF80010A1
:10390000407C8DF80200A148009901F0FBFFA2491C
:103910009E4801F0E3FF8C20608300229FA19B481A
:1039200001F05FFC00EBD070A7EB600001B29BA33D
:1039300035229648009501F0B9FF00229CA19348DA
:1039400001F04FFC00EBD070A7EB600001B298A330
:1039500053228E48009501F0A9FFFF231A4619460D
:103960000BA802F003F90188ADF8001080788DF8FB
:1039700002008648009901F0C5FF00228FA183480C
:1039800001F02FFC00EBD070A7EB600001B28BA31D
:1039900089227E48009501F089FF8CA38DA28EA11B
:1039A00006A8FCF773FC002206A9784801F019FC70
:1039B00000EBD070A7EB600001B206ABB9227348F0
:1039C000009501F073FF012005F0E8F8484602F089
:1039D00057FE002005F0E2F8E562A56498F80500BE
:1039E0004746012802D102F007FF387302F03EFF7C
:1039F000A07010F17F0F4FF4A0772FD07F2858D000
:103A000030287DDD002000F037FF0320A071E07931
:103A1000002876D1E6715D4801F01AFF70495B48D5
:103A200001F05CFF00231A4619460FA802F09EF829
:103A3000FF2304461A4619460EA802F097F80146DD
:103A40002088ADF81400A0788DF816000888ADF82D
:103A5000100088788DF8120062A057E0002000F076
:103A60000BFFA671E07900285AD1E671474801F0B2
:103A7000EFFE5B49454801F031FF00231A46194625
:103A80000FA802F073F8FF2304461A4619460EA841
:103A900002F06CF801462088ADF81400A0788DF88B
:103AA00016000888ADF8100088788DF812004EA036
:103AB0002CE0002000F0E0FE0220A071E079002858
:103AC0002ED1E671314801F0C3FE45492F4801F07F
:103AD00005FF00231A4619460FA802F047F8FF23F6
:103AE00004461A4619460EA802F040F82188ADF89F
:103AF0001410A1788DF816100188ADF8101001E0AF
:103B000011E00DE080788DF8120038A0CDE90005B5
:103B100000210295F0233A4608460395FEF784FFFC
:103B200011B0BDE8F08310F11A0F4FF0000029DA50
:103B300000F0A2FE0420A071E0790028F0D1E67127
:103B4000124801F085FE2649104801F0C7FE002307
:103B50001A4619460FA802F009F8FF2304461A4630
:103B600019460EA802F002F82188ADF81410A178C9
:103B70008DF816100188ADF8101080788DF81200BD
:103B80001BA0C3E7FEF7E6FACAE7000080050020A5
:103B900008000020E2050108C2C6010864696769DF
:103BA00074616C20494E5645525445520000000045
:103BB000746563686E6F6C6F67790000454E45529F
:103BC000475920534156494E4700000031322E33A9
:103BD0002E370000562E00002573257300000000CC
:103BE000967201084533000045310000453200005F
:103BF00045340000F0B5944C8DB094A10AA8E26859
:103C0000FCF744FB91A10BA82269FCF73FFB91A1B3
:103C100008A86269FCF73AFB9049A4F17C0001F026
:103C20005DFEA4F17C0001F0ACFBC0F1780007B2AE
:103C3000002208A9A4F17C0001F0D3FA884CC6B296
:103C4000E06A007E00287DD000231A46194606A8A7
:103C500001F08CFFE06A007E002874D0FF231A4632
:103C6000194607A801F082FFBDF81800ADF814004E
:103C70009DF81A008DF81600BDF81C00ADF8100074
:103C80009DF81E008DF81200E06A0025007E0028D5
:103C90007CD0002008A90091CDE901053C2306F164
:103CA0001402394619200395FEF7BEFE664800222D
:103CB0000BA97C3801F095FAC6B2E06A007E0128B3
:103CC00065D000231A46194607A801F04FFFE06AA5
:103CD000007E01287DD0FF231A46194606A801F070
:103CE00045FFBDF81C00ADF814009DF81E008DF8CE
:103CF0001600BDF81800ADF810009DF81A008DF8F8
:103D00001200E06A007E012800D000200BA900917B
:103D1000CDE9010506F114023C23164639469B20E5
:103D20000395FEF781FE484800220AA97C3801F07D
:103D300058FAE06A007E022877D000231A46194616
:103D400007A801E05EE061E001F010FFE06A007E9C
:103D500002286FD0FF231A46194606A801F006FF75
:103D6000BDF81C00ADF814009DF81E008DF816007B
:103D7000BDF81800ADF810009DF81A008DF812007B
:103D8000E06A007E022859D0002001E042E043E0D2
:103D90000AA90091CDE901053C2332463946EB20C2
:103DA0000395FEF741FEFF231A46194606A801F0C7
:103DB000DDFE0188ADF8001080788DF80200224801
:103DC00000997C3801F09EFD00231A46194606A88A
:103DD00000E026E001F0CAFE0188ADF8001080780E
:103DE0008DF80200184800997C3801F093FAE06AD7
:103DF00090F9180020B3012824D01AA0FEF736FD50
:103E00000DB0F0BDFF231A46194620E73823A5223E
:103E1000132126E701203DE7FF231A46194653E701
:103E200003E03823A522132158E7FF231A46194639
:103E300086E7FFE73823A52213218EE70120A4E7B8
:103E40000AA0DBE70CA0D9E7FC050020253032648E
:103E5000000000002530346400000000638E01087B
:103E60000800002053657420646179005365742054
:103E70007965617200000000536574206D6F6E7487
:103E8000680000002DE9F0438BB08449844801F0BC
:103E900025FD834801F075FA814FC0F178007C3729
:103EA0000FFA80F97FA107A8BA68FCF7EFF90022A2
:103EB00007A97B4801F095F97C4DC6B2E86A007EFF
:103EC00000287CD000231A46194606A801F04EFEB1
:103ED000E86A007E002873D0FF231A4619460AA814
:103EE00001F044FEBDF81800ADF814009DF81A006A
:103EF0008DF81600BDF82800ADF810009DF82A00D6
:103F00008DF81200E86A0024007E00287ED000218F
:103F10000DF11C0840468DE813005720A0EB560019
:103F20003C23462249460394FEF77EFD5DA107A887
:103F30007A68FCF7ABF9002207A9594801F051F95A
:103F4000C6B2E86A007E01287DD000231A461946D1
:103F50000AA801F00BFEE86A007E012874D0FF2356
:103F60001A46194606A801F001FEBDF82800ADF872
:103F700014009DF82A008DF81600BDF81800ADF861
:103F800010009DF81A008DF81200E86A007E0128E2
:103F900071D00021CDF80080CDE90114CB20A0EB39
:103FA00056003C23462249460394FEF73DFDFF237D
:103FB0001A46194606A801F0D9FD018801E056E02D
:103FC0005AE0ADF8001080788DF80200344800996E
:103FD00001F098FC00231A46194606A801F0C6FD18
:103FE0000188ADF8001080788DF802002C48009907
:103FF00001F090F900231A4619460AA801F0B6FD0F
:10400000FF2307461A46194606A800E038E001F0EB
:10401000ADFD0646002226A1214801F0E2F83988CC
:10402000ADF81410B9788DF816103188ADF810106D
:10403000B1788DF812101EA1CDE90014029400EBA6
:10404000D070A02101E01DE020E0A1EB600000B2F3
:104050003723042249460394FEF7E6FCE86A007E13
:10406000D0B114A0FEF702FC0BB0BDE8F083FF2333
:104070001A46194629E70DE03823A52213212EE719
:10408000012145E7FF231A46194661E73823A52297
:10409000132167E701217DE709A0E3E7638E0108AB
:1040A0008005002025303264000000000800002058
:1040B0003A000000536574206D696E7574650000E8
:1040C00053657420686F7572000000002DE9F14F90
:1040D0008AB04449444801F001FC434DDFF80CB17B
:1040E0004D35002707EB4700002600EB0711412064
:1040F00007EB470A00EB410806EB4601132000EBF3
:10410000011906EB4A04224639A108A8FCF7BEF8BB
:10411000285D032801D9012028550A98844208D037
:10412000DBF82C0090F91800A04202D00A98401C3D
:1041300049D1DBF82C0090F91800A04206D13823B1
:10414000A522132106A801F011FD0BE0285D2649E8
:1041500000EB4000D93908440188ADF81810807888
:104160008DF81A00285D032836D000231A46194618
:1041700007A801F0FBFCBDF81800ADF814009DF88D
:104180001A008DF81600BDF81C00ADF810009DF85F
:104190001E008DF81200DBF82C0090F91800A042E8
:1041A00002D0285D03281BD00021002008AACDE9F9
:1041B0000020CDE902011F2329220FFA88F10FFA0E
:1041C00089F0FEF731FC761C062E95DB7F1C042F50
:1041D00088DB0BB0BDE8F08FFF231A461946C7E70E
:1041E0000221E2E7C2C60108800500200800002085
:1041F0002564000010B5084B65220C21074801F02A
:10420000C5F8054BBDE81040463365224FF48F7169
:10421000024801F0BBB800004312010880050020ED
:1042200070B5244C0246D3B2207EFF2800D12376FD
:10423000607A814208D1207E904205DDA07A617BC0
:10424000884201D0401CA0721B48E57A0179491BC5
:104250000025914217DB017B022914D0217E914277
:1042600011DDA572FF212176457302210173012121
:1042700021744571FEF7C6FD00F57A706063002079
:10428000FDF768FF12E0207E90420BDA02F0D8FAC8
:10429000E17A401A904205DBA07A617B884201D026
:1042A0002376A572A07A617B884201D1012070BD7E
:1042B000002070BD08000020B80500201FB54FF495
:1042C000E16003F075FE154C204604F061FE68467F
:1042D00004F009FF44F61F00ADF800000021ADF81E
:1042E000041040F2E730ADF802100290ADF806106D
:1042F0006946204604F08CFE0121204604F0DCFED5
:104300000121204604F0D4FE204604F07BFE00226A
:104310001146132003F01AFA1FBD000000200040D0
:1043200030B5224D89B0284604F032FE5320ADF856
:10433000100000244FF4FA60ADF814400690ADF878
:104340001240ADF816408DF81C4004A9284604F030
:104350005FFE01200090ADF80440ADF80840ADF8D4
:104360000640ADF80A40ADF80C406A4600212846E8
:1043700004F0BAFC00221146284604F0D2FD602267
:104380000021284604F0A6FD00221146284604F02C
:10439000D7FD0121284604F09CFE284604F09EFC2F
:1043A000284604F02FFE09B030BD0000004801404F
:1043B00030B54FF0804589B0284604F0E9FD532020
:1043C000ADF8100000244FF4FA70ADF814400690D8
:1043D000ADF81240ADF816408DF81C4004A92846EF
:1043E00004F016FE01200090ADF80440ADF808403E
:1043F000ADF80640ADF80A40ADF80C406A46002121
:10440000284604F071FC00221146284604F089FD7C
:1044100060220021284604F05DFD08220021284684
:1044200004F08EFD0121284604F053FE284604F0D6
:1044300055FC284604F0E6FD09B030BD2DE9F041F9
:104440004B4F384602F0CBFB7D1501224FF09044D4
:104450002B461146204602F0CEFA2B4603220021BD
:10446000204602F0EFFAA5616E00012233461146A4
:10447000204602F0C0FA334603220021204602F013
:10448000E1FAA66100E000BF2946204602F0D5FA15
:104490000128F8D100E000BF2946204602F0CDFAFD
:1044A0000128F8D1A56200E000BF2946204602F0AD
:1044B000C4FA0028F8D1A66200E000BF31462046C9
:1044C00002F0BBFA0028F8D1A66100E000BF314637
:1044D000204602F0B2FA0128F8D1A56100E000BF41
:1044E0002946204602F0A9FA0128F8D12A460421DB
:1044F000204602F049FA32460421204602F044FAEE
:104500002B4600220221204602F075FA2B46032298
:104510000121204602F096FA33460022022120466D
:1045200002F069FA334603220121204602F08AFA9A
:104530004FF40041384602F08CFB00BF00213846A2
:1045400002F087FB00BF384602F04EFB4FF480427A
:104550000849384602F0C2FA002281231146384643
:1045600002F06CFB3846BDE8F04102F03DBB0000B4
:1045700000540040801A06002DE9FC418046FEF7F9
:1045800041FC2E4C7825A0266063E16A4FF4FA675F
:1045900004F17C000B68A3F580729B3A07D1CA69CD
:1045A000D2F81CC09CF818C0BCF1040F03D0B3F5BE
:1045B000CE7F06D00AE0C2612048BC30E062C26112
:1045C0000FE0CA69D3691B7E042B05D0C969C1619C
:1045D000B8F1020F2AD02BE0C2611948E062616D88
:1045E000C161002004F0DAFA164801F031F9164BE7
:1045F00001AA6946134801F037F8BDF90410BDF966
:10460000000001EBD171A5EB610100EBD0700AB2A3
:10461000A6EB600001B20C4B0A4800F0B7FE012087
:1046200004F0BCFA384602F02BF802E0C969C16117
:10463000E062FEF7E7FB2063BDE8FC810800002094
:10464000A40200208005002082B100080A4810B5AD
:10465000C07900280FD0094CA5220021204604F083
:1046600060FC142002F00CF820460022BDE8104047
:10467000114604F056BC10BDB805002000480140AA
:1046800070B5204DEC6A606910B1BDE8704000471C
:10469000A06848B1A18839B194F9181000EB411015
:1046A0000021C461E8620176E86A0068052814D137
:1046B000154804F065F9144A107801F0C1FF132879
:1046C0000BD8507801F0BCFF0C2806D2E86A0D49DF
:1046D000C069DC31E9626865C861A06810B1E86A48
:1046E000806858B1FCF740FB002004F057FAFDF752
:1046F000EBFEBDE87040012004F050BAFEF73EFC2E
:10470000F2E7000008000020B4040020810705D172
:10471000642190FBF1F201FB120141B94FF4C87121
:1047200090FBF1F201FB120008B10020704701205C
:104730007047000030B5002385B01A46194601A81D
:1047400001F014FA0188ADF8001080788DF80200AD
:104750002448009900F0DEFDFF231A46194601A8FF
:1047600001F004FA0188ADF8001080788DF802009D
:104770001C48009901F0C6F81A4801F069F81A4D72
:104780008C241A4B6C8303AA02A9164800F06CFF14
:1047900098B9BDF90C10782201EBD171BDF9080070
:1047A000A2EB61010AB200EBD070A021A1EB600086
:1047B00001B20E4B0B4800F0E9FD4FF4FA6001F036
:1047C0005FFF08483830007828B16C830020FDF77F
:1047D000C1FC05B030BD034801F03AF8014801F0D2
:1047E000F5F9F6E780050020080000207352010863
:1047F00010B50F4CE16A086910B1BDE810400047E0
:104800008888002813D0002004F0C8F9E06A017EEF
:10481000491C49B201768288914201DB0021017670
:10482000FDF752FEBDE81040012004F0B7B910BDFD
:104830000800002010B50F4CE06AC16811B1BDE856
:10484000104008478088002813D0002004F0A6F903
:10485000E06A017E491E49B20176002902DA017937
:10486000491E0176FDF730FEBDE81040012004F03E
:1048700095B910BD080000202DE9F041040001D5D4
:10488000002402E0142C00DD1424184D1848E7B26F
:104890002F70417ADFF85C801648202608F128083E
:1048A00059B1202102F0A2F820B1C8F800606420BC
:1048B00001F0E6FE6F70BDE8F0810A2C09DD0D48BD
:1048C00018300660642001F0DBFEEC2000EB4400B1
:1048D00009E0202102F08AF820B1C8F800606420C5
:1048E00001F0CEFE60006870E5E7000008000020DF
:1048F000B80500200004004870B50C4D0120287058
:10490000FEF796FF0A4C0020E071FEF783FAFEF7EF
:1049100079FA6063FEF776FA2064A87A002804D159
:10492000BDE870400A20FFF7A7BF70BDB8050020A2
:104930000800002010B5002004F030F90648A0F56A
:104940002F71C86200210176FDF7BEFDBDE8104061
:10495000012004F023B90000C402002070B501F06A
:1049600021FF342001F0D2FE104D284601F0DCFE7C
:10497000342001F0CBFE0E4C4FF0FF324021204698
:10498000FEF790FE21461126086405E021682846BE
:1049900001F018FF241D2D1D761EF7D2342001F0E2
:1049A000B5FEBDE8704001F0B7BE000000F8010898
:1049B000B805002070B50F4E00250F4C86F82D501D
:1049C000F08DA0832846FFF757FF35700120A074B3
:1049D000A572FF2020762574E573002004F0DEF830
:1049E000A6F1380001F0F2F8A6F13800BDE87040F9
:1049F00000F02EBFB80500200800002010B588B0D8
:104A000000204FF48271CDE9001002904FF4007144
:104A100005900690CDE90310064C6946204604F047
:104A2000EAF80021204604F0D7F8204604F0DEF82A
:104A300008B010BD0038004070B5002211461C209F
:104A400002F084FE1C4C204604F08EFB0021204620
:104A500004F0EFFB0021204604F032FC0021204648
:104A600004F0FBFB0421204604F0EFFB0821204664
:104A700004F0FFFB4021204604F08EFB4FF416515A
:104A8000204604F03BFB204604F08EFB40F2067506
:104A90002946204604F08DFB0028F9D00521204648
:104AA00004F092FB0421204604F08EFBBDE8704028
:104AB000642001F0E5BD00000044004030B5002353
:104AC00085B01A46194601A801F050F80188ADF8E2
:104AD000001080788DF802002448009900F01AFC3C
:104AE000FF231A46194601A801F040F80188ADF8E5
:104AF000001080788DF802001C48009900F002FF39
:104B00001A4800F0A5FE1A4D8C241A4B6C8303AA98
:104B100002A9164800F0A8FD98B9BDF90C1078223A
:104B200001EBD171BDF90800A2EB61010AB200EB03
:104B3000D070A021A1EB600001B20E4B0B4800F039
:104B400025FC4FF4FA6001F09BFD084838300078EE
:104B500028B16C830020FDF7FDFA05B030BD034895
:104B600000F076FE014801F031F8F6E780050020FC
:104B700008000020625601082DE9FF4F80460069B9
:104B80009BB000287CD082781792022A01D0012A9B
:104B900076D1D8F814200792002216926FF06302A3
:104BA0000C92C0780D9002910020CFE21E98435CD9
:104BB000002009901890D8F810000524611C425C70
:104BC000015D02EB012111F0FF0129D0E21C855C9F
:104BD000A21C9942825C05EB02220FFA82F97CD179
:104BE000B9F1080F1CDB01211891211D04F1050BFF
:104BF000435C099310F80B10E71D01F07F0204924B
:104C0000A21D0025825C0A92C05D049A00F07F0A12
:104C10009A1A1798A2EB0A06022802D0012871D02E
:104C20006FE2C8096FD00A9A0D99A9F10800891A94
:104C30000026A1EB0A070E96119096E0D8F8100016
:104C400001190E980830085C95FBF7F10FFA81FB0B
:104C500010F0C00F58D000F03F0A05EB0A010DB26A
:104C6000B14606EB0A010EB2000678D5289840B18D
:104C7000404698F8193098F8182098F8171007E06F
:104C800077E20798C0F30743C0F30722C1B240465A
:104C900000F040FE1D990A98084410903844401EC8
:104CA00000B219900299049808440B9018E01099EA
:104CB000199B01EB090002B20B98584401B240461F
:104CC00000F0FCFDA7EB0901AAEB01000FFA80FA46
:104CD0004FF000090BF1010000E046E20FFA80FB03
:104CE00009EB0A00B842E2DC1098484400EB0A01E4
:104CF00002B20B98491E0BB2584401B2404600F074
:104D0000DDFD2CE0D5E036E0289949B1404698F821
:104D1000193098F8182098F8171000F0FBFD09E0FA
:104D20008006020E4046079900F026FA01464046EA
:104D300000F0E8FD1D990A980844304402B2049935
:104D40000298014401EB0B0001B2404600F0F2FD75
:104D50006D1C761C2DB236B201E0F01B06B2BE42CD
:104D6000FBDA0E98401C00B20E900E991198814209
:104D7000FFF664AFC5E10027A9F1080011900E9776
:104D8000384691E0D8F8100001190E980830085CF8
:104D900095FBF6F10FFA81FB10F0C00F53D000F035
:104DA0003F0A05EB0A010DB2B94607EB0A010FB243
:104DB000000673D5289838B1404698F8193098F80D
:104DC000182098F8171006E00798C0F30743C0F3BF
:104DD0000722C1B2404600F09DFD049902980844A4
:104DE00010903044401E00B219900A991D98084452
:104DF0000B9016E00B981099584402B201EB090091
:104E000001B24046199B00F041FDA6EB0901AAEB57
:104E100001000FFA80FA0BF101004FF000090FFAC0
:104E200080FB09EB0A00B042E4DC1098484400EB38
:104E30000A01491E0BB20B9959440AB201B240460D
:104E400000F024FD2AE0289949B1404698F819302D
:104E500098F8182098F8171000F05CFD09E080061B
:104E6000020E4046079900F087F90146404600F0DF
:104E700049FD1D990A98014401EB0B0002B2029909
:104E800004980844384401B2404600F053FD6D1CBC
:104E90007F1C2DB23FB201E0B81B07B2B742FBDA6C
:104EA0000E98401C00B20E9011998842FFF66AAF2E
:104EB00027E1289840B1404698F8193098F8182012
:104EC00098F8171000F026FDD8F81000C15DC90948
:104ED0007ED010F80B00C00962D00A9A0D99A9F192
:104EE0000800891A00261190A1EB0A070E96304699
:104EF00052E000BFD8F8100001190E980830085C85
:104F000000F07F09C00939D095FBF7F00FFA80FB5C
:104F100002990498B246084410900A991D980844D2
:104F20000B901BE0384403B20B981099504402B226
:104F300001EB0B0001B2404600F0C0FCA7EB0A00F9
:104F4000A9EB00010FFA81F92918304406B20BF1E0
:104F500001000DB24FF0000A0FFA80FB0AEB0900C6
:104F6000B8420B98DEDC504400EB090102B2109805
:104F70000BB2584401B2404600F0A0FC05EB09001A
:104F800005B206EB090000E0F01B06B2BE42FBDAF8
:104F90000E98401C00B20E9011998842AADBB0E036
:104FA0000027A9F108000E97109055E0D8F81000DE
:104FB000BA4601190E980830085C95FBF6F100F02E
:104FC0007F09C0090FFA81FB38D00299049800E0EC
:104FD00047E008440B900A991D980844CDF8440016
:104FE0000AEB0900B0421CDD0B98304403B2119863
:104FF000584402B20B98504401B2404600F046FCBF
:10500000A6EB0A00A9EB00010FFA81F92918384430
:1050100007B20BF101000DB24FF0000A0FFA80FB4E
:10502000DEE70B9901EB0A0000EB09010BB21199C5
:1050300059440AB201B2404600F028FC05EB0900D1
:1050400005B207EB090000E0B81B07B2B742FBDA74
:105050000E98401C00B20E900E9910988142A5DB6C
:105060004FE00027A9F108000597BB460F9045E0E7
:10507000D8F8100001190BF10800085C0E9001E04F
:10508000B81B07B2B742FBDA0598B94690FBF6F0B9
:105090000FFA80FA5FF0000509EB0500B04205D178
:1050A0000AF10100C5F100090FFA80FAC5F1070104
:1050B000012088400E9900B2014211D10A991D9831
:1050C000014401EB0A00411C0BB202B204990298A0
:1050D000014401EB0900284401B2404600F0EEFB18
:1050E0006D1CEDB2082DD7D30BF101000FFA80FB38
:1050F0000598083000B208373FB205900F998B45EC
:10510000B6DB299880B1169940566FF0630188424A
:105110000ADD0C90169A2998104490F901008842F3
:1051200002DD501C00B21690189860B102990998DF
:10513000084400B202900C9810F1640F03DD02994C
:10514000084400B202901598401C00B215901E98B9
:10515000FBF7D8F9159988423FF628AD07991FB09B
:105160004046BDE8F04F00F0CDBB04EB09010CB2A6
:1051700024E51FB0BDE8F08F7FB5CCB2C2F1FF03CC
:1051800014FB03F4C57D15FB0245C1F3072414FB92
:1051900003F4067E16FB0244C1F3074111FB03F141
:1051A000407E10FB0213C82295FBF2F094FBF2F153
:1051B00093FBF2F2FF2800DDFF20FF2900DDFF2135
:1051C000FF2A00DDFF22D3B2CAB2C1B203A800F0A9
:1051D000CDFC0188ADF80010827804B041EA0240AD
:1051E00070BD2DE9F74F0646006900284FD04FF0FB
:1051F00000096FF0630B4D464C4642E001984FF0BA
:10520000000A534610F804C0306905214A1C475C67
:10521000825C02EB072212F0FF0212D0CF1C10F8C2
:1052200007808F1C6245C75D08EB07273FB205D199
:10523000082F06DB01230A1D10F802A0394409B229
:10524000E4E7029888B110F909006FF06301884221
:105250000BDD029A834602EB090090F901008842B7
:1052600003DD09F101000FFA80F943B105EB0A00F3
:1052700005B21BF1640F02DD05EB0B0005B2641CE7
:1052800024B20198FBF73EF9A042B7D82846BDE802
:10529000FE8F2DE9F0418046CD18A81E03B21746B7
:1052A0000E464046069C00F0F1FA3C44A01E6D1EDE
:1052B00003B22DB23A462946404600F0FFFA641E7A
:1052C000701C24B201B22B462246404600F0DEFAA2
:1052D0007F1C23463AB231464046BDE8F04100F01B
:1052E000EDBA2DE9FC411E46054613460C46143026
:1052F000089F00F030FC0146D819A219401E521E2A
:1053000000B212B2CDE900202246284600F0EAF9A8
:10531000BDE8FC8103B5BDF80410A0F817109DF896
:10532000061041760CBD10B5417300240473B0F92A
:105330000630B0F90420012907D002290AD0032938
:1053400003D002814381447310BD03814281012156
:10535000017310BD0281438110BD704713B5034630
:1053600001A800F0F8FB1968C2B28C68C0F30721ED
:105370001846A0471CBD0368CAB2C1F307219B6849
:1053800018470069002800D0C07870472DE9FF4F0A
:1053900095B01D00934607D028785A2807D06FF0A3
:1053A000010019B0BDE8F08F4FF0FF30F9E76878E1
:1053B0000104A87801EB0020E97808445FEA000ABC
:1053C00002D56FF00200ECE728790104687901EB5F
:1053D0000020A97940180B9001D540B2E1E7EE79A1
:1053E000FF2E02D36FF00400DBE7687A297A00EB26
:1053F000012000B25FEA000802D56FF00500D0E797
:10540000E87AA97A00EB012007B2002F02DA6FF0E8
:105410000600C6E7304600F07BFE002403900994A6
:1054200001200694CDE90F041598407B20B14FEA86
:10543000880000F06DFE81468A494FF400600860E4
:105440001598407BC0B1CDF840B060210AF10C0046
:105450000C95CDE90D010CA800F017FEE8B10CA8E1
:1054600000F0FBFD401EC0B20A900CA800F0F5FD54
:10547000401E00F0FF0AC7E00BEB0700401E00B221
:105480001699009001EB0800401E03B215985A4689
:10549000006807681598B847D7E708210CA800F0FE
:1054A00003FE07460F9810B10020119733E01198C2
:1054B0004FF6FF7101EA002015993843497BB9B3D3
:1054C000069A49F822000698401C0690404521D1D2
:1054D000109802B2169800924044401E03B21598EC
:1054E00000680568DDE91501A8471098401C109078
:1054F0001598407B012821D0B8F1010508D400BFE0
:1055000039F8250001B21598FFF735FF6D1EF7D564
:105510000020069001200F900998401C09900398E4
:105520000755641C24B2B44201DBA01B04B287E01F
:10553000FFE701B21598FFF71EFFEBE7002506E035
:1055400039F8250001B21598FFF715FF6D1C454588
:10555000F6DBDDE70A98201A00E0A81905B2002D55
:10556000FBDB01E0A81B05B2B542FBDAA34603E072
:10557000ABEB06000FFA80FBB345F9DA0998641C1F
:10558000401C09900F9824B220B10398405D1190FF
:10559000002034E011984FF6FF7101EA00210398D2
:1055A000405D08431599497BA1B3069A49F822004A
:1055B0000698401C0690404520D1109802B21698DB
:1055C00000924044401E03B2159800680768DDE968
:1055D0001501B8471098401C10901598407B012881
:1055E0001ED0B8F1010707D439F8270001B2159889
:1055F000FFF7C1FE7F1EF7D50020069001200F9017
:105600000398425D00F80B20BAF1010000F0FF0A98
:10561000A0D213E0FFE701B21598FFF7ACFEEDE76B
:10562000002706E039F8270001B21598FFF7A3FE1E
:105630007F1C4745F6DBDFE7A01B04B2B442FBDA70
:105640000B99099888427FF706AF06494FF400602E
:1056500010390860039800F053FD484600F050FDF3
:1056600000209EE62804004810B52BB118785A286F
:1056700005D06FF0010010BD4FF0FF3010BD58781D
:105680009C78000400EB0420DC78E04202D56FF047
:10569000020010BD18795C79000400EB04209C79AD
:1056A000001901D540B210BDD879FF2802D36FF0A0
:1056B000040010BD587A1C7A00EB042000B2088068
:1056C000002802DA6FF0050010BDD87A997A00EB55
:1056D000012000B21080002802DA6FF0060010BD31
:1056E000002010BD2DE9FC479046DDE90A5406462E
:1056F0001F4689461046454501DAA8460546BC4284
:1057000001DA27461C46B6F9081041456FDDB6F9A7
:105710000A00B8426BDDB8F1000F03DA002D66DB3A
:105720004FF00008002F02DA002C60DB0027B27B6C
:10573000002AB6F92C200DD0F2B3337BEBB395429F
:1057400003DB90457CDA521E15B2A04244DC401EB9
:1057500004B241E082B3A94201DC491E0DB2A0426D
:1057600001DC401E04B2707B40B3012803D0022844
:105770003ED0032864D102EB080001B2501903B2F5
:10578000B6F9060091FBF0F200FB121293FBF0F168
:1057900000FB1135AA4255DD401E00B2CDE90004E0
:1057A00030683B464946D0F804C03046E047CDE972
:1057B000005430683B4602E014E003E018E00022A9
:1057C00044683AE0944203DB974239DA521E14B23D
:1057D000A94201DC491E0DB2CDE9005430683B46B8
:1057E000446829E0A942B0DC491E0DB2ADE727E0CC
:1057F000D01903B2101901B2B6F9060093FBF0F20A
:1058000000FB123391FBF0F200FB1214A3420FDDF8
:10581000401E00B2CDE90050306842464946476814
:105820003046B847CDE9005430680023446803E0AF
:10583000CDE9005430684468424649463046A047A6
:10584000BDE8FC87CDE9005430683B464468F4E786
:1058500038B504464569B0F81700ADF80000607E21
:105860008DF802002046009900F04CF8B4F90A00C7
:1058700000900022B4F9083011462046FFF731FDB0
:1058800029462046BDE8384000F03CB87CB51E46AD
:10589000044613460D46143000F05DF9CDE900636F
:1058A00001462A462046FFF71DFF7CBD7CB500243B
:1058B000069DCDE90045FFF75FF97CBD7CB5054647
:1058C00016460C46143000F046F9CDE90043014677
:1058D000334622462846FFF705FF7CBD30B50C78DD
:1058E00000234A785D1E5A2C06D1462A04D18A78B4
:1058F000022A04D0012A02D00361284630BD01618A
:10590000002030BD03B5BDF8041081829DF806105B
:1059100081750CBD1CB5044601A800F027F901886B
:10592000ADF8001080788DF8020020460099FFF74E
:10593000E9FF1CBDF8B50446002944DB002A42DB20
:10594000B4F9080088423EDDB4F90A0090423ADD1D
:10595000A07B98B1B4F92C0020B3237B002B94F8E2
:10596000303005D00BB981422DD081422BDC19E0BB
:105970000BB9824227D0824225DC13E0207BA38D25
:105980000028B4F90600034406D0194400E0091ABF
:1059900009B28842FBDB05E01A4400E0121A12B299
:1059A0009042FBDB08484FF40065056000922068D8
:1059B0000B4606682046B04720466169FFF7CEFCDB
:1059C000014810380560F8BD28040048704770474A
:1059D00038B504461D482060914201D2084600E0D7
:1059E0001046A08001D9084600E01046E0802181E1
:1059F000628102D94FF0010001E04FF000006073B6
:105A00004FF000014FF00100A073A18584F82A0037
:105A100084F82B009FED0E0B0B4684ED080B84F8E9
:105A200028100A46684604F10C0400F09FF801882B
:105A30008078A4F80B106073FF230C3C1A461946BB
:105A40002046FFF767FF204638BD0000C4E6010886
:105A5000000000000000F03F017B39B1817DCA07E2
:105A600004D021F0010181750120704700207047AA
:105A7000017B39B1817D8A0704D521F0020181754E
:105A8000012070470020704770B50446007803F08D
:105A900023FC00B10120E073A17B884207D00020E5
:105AA0006073FDF7AFF96060FDF7ACF9A060FDF73A
:105AB000A9F961680125401A618A88420AD9E07B08
:105AC000217B884206D0207320B1A561A07D40F0E3
:105AD0000100A075A08A78B1607B68B9207B58B1BD
