:020000040800F2
:10000000502100204D020008D52B0008652B000868
:10001000672B0008C51000086530000800000000CC
:10002000000000000000000000000000752D000826
:10003000E111000800000000192C0008772D0008CD
:1000400067020008670200086702000867020008EC
:1000500067020008670200086702000867020008DC
:1000600067020008670200086702000867020008CC
:1000700067020008670200086702000867020008BC
:10008000670200086702000800000000DD2E00087B
:10009000670200086702000867020008670200089C
:1000A000670200086702000867020008670200088C
:1000B0000530000800000000670200080000000092
:1000C000670200080000000067020008000000004E
:1000D0000000000000000000000000000000000020
:1000E000000000000000000067020008000000009F
:1000F0000000000000000000000000000000000000
:10010000670200080000000000000000000000007E
:1001100000000000000000000000000000000000DF
:1001200000000000000000000000000000000000CF
:1001300000000000000000000000000000000000BF
:10014000000000000000000000000000670200083E
:1001500000F002F800F06AF80AA090E8000C82446F
:100160008344AAF10107DA4501D100F05FF8AFF24C
:10017000090EBAE80F0013F0010F18BFFB1A43F085
:1001800001031847A0DA0100C0DA01000A444FF069
:10019000000C10F8013B13F0070408BF10F8014BE6
:1001A0001D1108BF10F8015B641E05D010F8016B2B
:1001B000641E01F8016BF9D113F0080F1EBF10F88F
:1001C000014BAD1C0C1B09D16D1E58BF01F801CBB2
:1001D000FAD505E014F8016B01F8016B6D1EF9D535
:1001E0009142D6D37047000000230024002500264A
:1001F000103A28BF78C1FBD8520728BF30C148BF8A
:100200000B607047642900F0A580732900F04983D2
:10021000002070471FB508F0E6FF9DE8030000F0DE
:10022000A7FC00F099FA1FBD10B510BD00F05AFCF4
:100230001146FFF7EFFF06F021FF00F0CFFC03B4FB
:10024000FFF7F2FF03BC00F0FBFC00000948804709
:1002500009480047FEE7FEE7FEE7FEE7FEE7FEE7A8
:10026000FEE7FEE7FEE7FEE704480549054A064BC0
:1002700070470000852D000851010008500700203C
:1002800050210020501D0020501D00200FB41CB52F
:10029000074B06AA7B4469460090059800F0D7FA00
:1002A0000020694600F0E6FA1CBC5DF814FB000073
:1002B000DD05000070B5044685690068C10601D5FA
:1002C000302600E02026C00707D070BDD4E9012108
:1002D00030469047206A401C20626D1EF6D570BDE6
:1002E00070B5044685690078C00707D170BDD4E9B0
:1002F000012120209047206A401C20626D1EF6D507
:1003000070BD70B50C460546012A05D028788006D8
:1003100000D5EA69002302E0012305E05B1C93425B
:1003200002D2E05C0028F9D1A869E618C01AA861D9
:10033000286A184428622846FFF7BCFF04E0D5E984
:10034000012114F8010B9047B442F8D32846FFF777
:10035000C7FF70BD2DE9F0410646002410687529DD
:10036000314616A510D0AFF30080002802DA4042D3
:1003700013A507E031688A0701D512A502E04907F5
:1003800004D511A5012401E0AFF3008000210A2269
:1003900006F1240709E0B0FBF2FCB0FBF2F302FB2C
:1003A0001C00303078541846491C0028F3D12346ED
:1003B0002A463046BDE8F04100F0EBB900000000ED
:1003C0002D0000002B000000200000002DE9F05F50
:1003D000894604464FF0000ADFF824B1FB44C0F818
:1003E00020A02046E168884700287DD0252806D037
:1003F000D4E901219047206A401C2062F1E70025E2
:100400005F462046E16888472028064607DB312EF4
:1004100005D2B81910F8200C08B10543F1E7A80778
:1004200001D525F00405C4F81CA00027C4F818A0C5
:100430002A2E09D0304605F027FD38B304EB870893
:10044000303EC8F8186019E059F8041B204604EB48
:1004500087029161E1688847012F064618D1E0695B
:10046000002820DA25F020051DE0D8F8180000EB60
:10047000800006EB40003038C8F818002046E168DC
:100480008847064605F000FD0028EED1012F0AD06E
:100490002E2E08D12046E16888477F1C0646022F91
:1004A00045F02005C4DBA069002803DA404245F08E
:1004B0000105A061E80701D025F01005A6B1A6F15D
:1004C0004100192802D8203645F400654A463146D5
:1004D000204625604D46FFF795FE60B1012807D004
:1004E000ED1D25F0070000E007E000F1080978E7BE
:1004F00005F1040975E730467AE7206ABDE8F09F08
:1005000034D7010010B5431C02E010F8011B71B193
:100510008107FAD14FF0013202C88C1A8C4314EAD9
:10052000C211F9D0C01A0A0603D0C01E10BDC01AED
:1005300010BD0A0401D0801E10BD0902FCD0401E6F
:1005400010BD02F0FF0343EA032242EA024200F038
:1005500002B84FF000020429C0F0128010F0030C22
:1005600000F0A581CCF1040CBCF1020F18BF00F81B
:10057000012BA8BF20F8022BA1EB0C0100F097B9CA
:100580005FEAC17C24BF00F8012B00F8012B48BFB3
:1005900000F8012B70470000014900F0ADB90000E0
:1005A000C006002010B503681C1404EB21449BB264
:1005B00089B2194494FBF2F302FB134394FBF2F467
:1005C00001EB034393FBF2F102FB113193FBF2F3D6
:1005D00001E05B1E11440029FBDB016003EB0440DA
:1005E00010BDF0B504464FF0FF3585B000680490AB
:1005F00060680290A0680390E06801902069009014
:10060000666906F18040B0F1004F7CD83C220021A1
:1006100004A8FFF7C7FF3C22014602A8FFF7C2FF6C
:100620001822014603A8FFF7BDFF411E40F2B55254
:1006300001A8FFF7B7FF0C22074668460021FFF725
:10064000B1FF414B00EB8700304400267B4411E0B2
:10065000511A01910099491C0229009102D00C29DC
:1006600008D105E0810705D00199491C019101E0FD
:10067000401C00960099019A595C9142E8DD00996E
:10068000012906D11C2A04D1810702D00221CDE91B
:100690000016A0F146018B293CD2DDE90061002261
:1006A00002E09F5C521C3944B242FADB012E02DDAB
:1006B000820700D0491E40F2B55340F26D16C217B2
:1006C00000EB927292105A4300F0030303FB0622E0
:1006D00083070A4400D1521E039E02EB4203049F8B
:1006E00006EBC303029EC3EB031306EB8303174E13
:1006F00033441E149BB2C6EB0616C3EB0313B600BD
:1007000007EB830300E005E006EB134666F31F43A7
:10071000360C02D0284605B0F0BD80C4029E40C40D
:10072000039E40C4019E761C44F80C6B009E44E975
:1007300002600720521C92FBF0F600FB162084E8B2
:1007400023001846E7E7000018D50100A039CEFDC8
:10075000704770477047000070B5064C7C44064DEA
:100760007D4403E0206820448047241DAC42F9D139
:1007700070BD0000E4D40100E8D4010010B500F021
:100780001BF9006810BD10B5044600F015F90460AF
:1007900010BD2DE9F0470D4699469246044600F1FA
:1007A00024080168880604D5E06921F01001216061
:1007B00000E00120A84201DD471B00E00027A169FD
:1007C0007A1902EB0900081AA0612078C00602D449
:1007D0002046FFF76FFD002608E0D4E901211AF852
:1007E00006009047206A401C761C20624E45F4DBD0
:1007F0002078C0060AD52046FFF75CFD06E0D4E964
:10080000012130209047206A401C2062381EA7F149
:100810000107F4DC07E0D4E9012118F8050090474E
:10082000206A401C2062281EA5F10105F3DC204649
:10083000FFF756FD2078000602D50220BDE8F087BC
:100840000120FBE701694A1C02610878704700B586
:100850008FB0CDE901310021059105497944CDE9F9
:10086000031011466846FFF7B1FD0FB000BD000050
:10087000E5FFFFFF0A6802F8010B0A60704710B538
:10088000436913B1AFF3008001E0FFF73AFD0120A7
:1008900010BD127800F124010A7000224A70012272
:1008A000EDE711684FF0FF32E9E74FF0000200B5C5
:1008B000134694469646203922BFA0E80C50A0E883
:1008C0000C50B1F12001BFF4F7AF090728BFA0E831
:1008D0000C5048BF0CC05DF804EB890028BF40F8FD
:1008E000042B08BF704748BF20F8022B11F0804F3F
:1008F00018BF00F8012B704770B50C460168002046
:100900004A1C3ED03C22B1FBF2F302FB1313B1FBB5
:10091000F2F12360B1FBF2F302FB1313B1FBF2F12E
:1009200018226360B1FBF2F302FB1313B1FBF2F187
:1009300046F2E0320A440721A360B2FBF1F301FB67
:10094000132140F2B553B2FBF3F5A161B2FBF3F111
:1009500003FB15228900B2F5B77F08D39B10521E06
:10096000B2FBF3F52944B2FBF3F503FB15220F4B61
:10097000E261616189077B440CD03B2A0AD3521C97
:1009800008E02C212046FFF790FF0120E0600AE0FC
:10099000521A401C195C9142FAD9521CC4E9032036
:1009A0004FF0FF302062204670BD0000EED1010004
:1009B000004870472007002000487047EC060020E0
:1009C00070B5064600F0B4F8056806F10B0020F09B
:1009D0000704B4429CBF002070BD2B466A68BAB1C0
:1009E0001068A04210D304F1080188423CBF50684F
:1009F000586007D35168101941601168091B0160E4
:100A000058601460101D70BD13465268002AE7D16B
:100A10002146284600F098F80028DED170BD70B558
:100A20000446051F00F084F80068002C14BF4468D9
:100A300070BD002C18BFAC423CBF20466468F8D3A0
:100A400001680A18AA4218BF456003D12A68054602
:100A50001144016028684119A1421CBF6C6070BD3F
:100A60006168696021680844286070BDAFF3008048
:100A700010B500F00EF8016919B100220261884733
:100A800001E08068804700F0B2F8000010B500F087
:100A9000AEF870B500F050F804680546A4B92020FF
:100AA000FFF78EFF040011D0094900202C60C4E933
:100AB00000010849A1602073206160610649A061BE
:100AC00009B100F09FF8E061204670BD00F08FF89A
:100AD000000000008D0A0008000000000048704778
:100AE000EC0600207546FFF7F9FFAE4605006946A3
:100AF000534620F00700854618B020B5FFF7B4FB39
:100B0000BDE820404FF000064FF000074FF000080E
:100B10004FF0000B21F00701AC46ACE8C009ACE88F
:100B2000C009ACE8C009ACE8C0098D4670470000B8
:100B300000487047F406002000487047280700204E
:100B4000704770477047704738B504460A46002022
:100B50006946AFF30080002808BF38BD02460099FF
:100B6000204600F073F8012038BD012000F08FB856
:100B7000F8B5AFF30080054600200C46102000BFFA
:100B80000646A819A0420DD9324669460020AFF3A7
:100B90000080070008BF00F07AF80098A04218BF54
:100BA0000546C419FFF7C4FF05600746F01D20F095
:100BB00007004619284600F00AF8B44208BFF8BDFD
:100BC000A21B31463868BDE8F84000F03FB800216C
:100BD0000160C0E9011070471020704710B504464D
:100BE000AFF300802046BDE81040FFF728BB10B5EA
:100BF000002000F045F8FFF717FBBDE8104001208A
:100C000000F01EB810B58820FFF7DAFE002801D0EA
:100C10000021017010BD802902D808B1017809B106
:100C200000207047012100F8081B704718B100F13F
:100C30000802914201D000207047002101707047E6
:100C400001491820ABBEFEE72600020003464068BB
:100C50008C46002818BF88423CBF03464068F8D342
:100C600018681844884207D00CF1030020F00700F0
:100C7000001D411A521A0146081D0A60FFF7CFBE37
:100C800010B500F011F8BDE8104000F008B810B53C
:100C900000F022F8BDE8104000F001B870470028CD
:100CA00001D0FFF7CDBF704710B5002102A000F0C2
:100CB0003BF8012010BD0000534947414252543ACD
:100CC0002041626E6F726D616C207465726D696E29
:100CD0006174696F6E00000010B5012805D0002115
:100CE00003A000F021F8012010BD09A1F8E70000E1
:100CF00053494752544D454D3A204F7574206F6605
:100D00002068656170206D656D6F7279000000006C
:100D10003A2048656170206D656D6F727920636F50
:100D2000727275707465640070B505460C460A20D1
:100D300000E06D1C00F011F835B128780028F8D1DA
:100D400002E0641C00F009F814B120780028F8D102
:100D5000BDE870400A20AFF3008008B569468DF801
:100D600000000320ABBE08BD2DE9F04FCF4ED04CA4
:100D700006F11E03B06AA3F1020A002702689AF87E
:100D8000011085B04FF001094FF0780B04F10D0C04
:100D900004F14405342A7DD022DC162A56D00FDC1B
:100DA000C2480B2A00F15400807848D00C2A48D061
:100DB0000D2A49D0152A6ED167721420F0714AE0CD
:100DC0001F2A4ED0202A55D02B2A7CD0332A62D11C
:100DD00090F91810197011F80C105970B5492DE1DF
:100DE000DFF8C882B2F5D37F08F11C0898F90180BA
:100DF0006AD012DC352A68D0A2F580729B3A65D0A1
:100E0000012A7DD00A2A46D1B8F1000F79D00020FE
:100E1000A071002876D0B77414E0A2F58072B93AB8
:100E200071D0452A70D0462A6FD0592A33D1017E1D
:100E3000C06990F918209E481430115402E0A07047
:100E400000E0E070012007E02071FBE784F80990E2
:100E5000007E401CA072022005B0BDE8F04F03F0F8
:100E600009B984F82C100029ECD0032800D1E772CE
:100E70006771D4E0017E491C49B2017601293CD159
:100E80002989A888C1EB011100EB8100E0857083FE
:100E9000874801E0BDE0B2E0383804F01FFA84482A
:100EA000854B02AA01A9383804F024F9BDF90800DD
:100EB000BDF9041000EBD072ABEB620002B201EBA3
:100EC000D171A02003E02CE0C7E0AAE02BE0A0EB6A
:100ED000610001B27648784B383803F09DFF4FF43B
:100EE0007A7005F0FFF87248383804F0F7F901F02D
:100EF00033FE306301F030FEF062B06A007E05E040
:100F000083E0A5E0A6E0AAE094E09BE0022876D189
:100F10002989A888C1EB011100EB8100E08570836D
:100F200090E7E1718EE7017E491C49B20176491EC6
:100F3000022948D205F10C0007C805F070FBA8B1E2
:100F40002869401E28616869A0F26C706861584881
:100F50004430FFF746FB00906846FFF71DFB286909
:100F6000401C2861686900F26C706861504838382C
:100F700004F0B4F94E48504B04AA03A9383804F0E1
:100F8000B9F8BDF91010BDF90C0001EBD172ABEB53
:100F900062010AB200EBD071A020A0EB610001B2A7
:100FA0004348454B383803F037FF4FF47A7005F06B
:100FB00099F83F48383804F091F901F0CDFD3063DD
:100FC00001F0CAFDF062B06A007E032817D105F176
:100FD0000C0007C805F023FBA0B12869401E28615A
:100FE0006869A0F26C70686131484430FFF7F9FA23
:100FF00000906846FFF7D0FA012003F03BF805B0F7
:10100000BDE8F08FB06A0776F9E7017E491C0176EA
:10101000F5E76171002985D0677284F82C70F7704C
:1010200010E72449027E4031C861A018B162007DFA
:101030000876E4E7017E59701E492031C861B1622B
:101040000F76DCE793F90010587801F80C00F9E608
:101050000120DDE686F81290F4E62172F2E65246AF
:10106000B8F1000F17D0017E491C49B20176012961
:1010700016D00229C3D101F04FFE03F0B5F9BFF33A
:101080004F8F0E4801680E4A01F4E0611143016080
:10109000BFF34F8FFEE705B0BDE8F04F01F064BD30
:1010A00082F801908AF80090A9E70000080000206B
:1010B00078050020600100203AA600080CED00E051
:1010C0000400FA05FEE700000848816A8A88002AC1
:1010D0000AD091F91800431C5BB20B76934201DBF6
:1010E00000220A7602F0A2BD70470000080000202E
:1010F0000848816A8A88002A0AD091F91800431E9C
:101100005BB20B76002B01DA521E0A7602F08EBD1E
:101110007047000008000020184810B5806A184C7D
:1011200090F91800022803D0012811D0B8B120E0AE
:10113000E068401EE0601CD11F2001E0E068401E16
:10114000E060D4E9041205F06AFA0028F6D010E055
:101150002069401E20610CD10C20206109E06069EB
:1011600040F2E371401E6061884202DA40F63300CB
:101170006061BDE8104000F035B8000008000020B4
:10118000BC05002070B51448144C0125806AD4E9D0
:10119000041290F91800022803D0012809D070B178
:1011A00016E0E068401CE06005F039FA80B9E560BF
:1011B0000EE0491C21610D290AD1256108E0521C6D
:1011C000A2F500606261343802D140F2E3706061E0
:1011D000BDE8704000F006B808000020BC05002003
:1011E000704700002DE9F04FFE4EA7B0B06A0068CE
:1011F0000B2807D00C2805D00D2803D0FA4804F09E
:101200006DF817E000231A46194601A804F0F4F916
:101210000188ADF8001080788DF80200F24800993E
:1012200004F0B6F8C8200346462200901146EE4866
:1012300003F09DFDB06AEB4F40F29B120168A025C0
:101240001C370024A1F29B10914277D01EDC20298C
:1012500075D012DCDFF88C836FF0180908F15408A0
:101260000D2950D004DC0B294DD00C2928D144E0A5
:10127000162951D01F2923D10BE12B29FCD033296A
:101280007ED034297DD035291AD1CFE34FF4A07810
:101290001F2877D008DC0128DAD00A2873D00B2861
:1012A000EAD01E280CD10DE2CE4F1E3763286BD03A
:1012B00064286AD07824772868D0B0F5137F01D0ED
:1012C000CAA0B4E3CD4B11AA10A9C74803F012FF7E
:1012D000BDF94410BDF9400001EBD171A4EB6101EF
:1012E00000EBD0700AB2A5EB600001B2C34BBE4860
:1012F00003F092FD27B0BDE8F08F02F02BFDC0A0F7
:1013000001F0BCF901E002F025FD98F902000F227E
:10131000494601F0E1F9EDE7BDA001F051F9B06AED
:1013200090F91800411C01EB4101890000EB80009D
:1013300001EB8000ADF8400000242DE0BCE1BEE1EF
:10134000A94804EB4407C83838440188ADF80010B8
:1013500080788DF80200A448009904F019F8BDF9CE
:1013600040005A2100EBD070A5EB6000009100EB2B
:10137000870004EB840100EB810001B20C2306E03E
:10138000E4E212E088E2FDE031E3F3E3F3E34B2231
:10139000954803F0ECFC641CB06A90F91800401CFE
:1013A000A042CDDC02F0D6FCA4E700219BA001F016
:1013B00035F99D498C4803F0D7FF787818B1FF23A1
:1013C0001A46194602E000231A4619461AA804F0E4
:1013D00013F9787818B13823A522132102E0FF23EE
:1013E0001A46194619A804F007F9BDF86800ADF8C7
:1013F00014009DF86A008DF81600BDF86400ADF881
:1014000010009DF866008DF81200787800B1012078
:1014100086A10091CDE9010464231A4619461420DF
:10142000039401F0ABF9787818B100231A461946F5
:1014300002E0FF231A46194619A804F0DDF878786F
:1014400018B1FF231A46194602E03823A5221321BA
:101450001AA804F0D1F8BDF86400ADF814009DF8A6
:1014600066008DF81600BDF86800ADF810009DF814
:101470006A008DF81200787848B100206CA10091C4
:10148000CDE9010464231A461946039474E001204F
:10149000F4E76549544803F067FF787818B1FF23F3
:1014A0001A46194602E000231A4619461CA804F001
:1014B000A3F8787818B13823A522132102E0FF237E
:1014C0001A4619461BA804F097F8BDF87000ADF84D
:1014D00014009DF872008DF81600BDF86C00ADF890
:1014E00010009DF86E008DF81200387800B10120D0
:1014F000797801B101214DA2CDE90021CDE90204A5
:1015000064231A464621142001F038F9787818B17E
:1015100000231A46194602E0FF231A4619461BA863
:1015200004F06AF8787818B1FF231A46194602E0E9
:101530003823A52213211CA804F05EF8BDF86C0026
:10154000ADF814009DF86E008DF81600BDF870001F
:10155000ADF810009DF872008DF81200387868B16F
:101560000020797861B1002131A2CDE90021642306
:10157000CDE902041A464621C82088E10120F0E79F
:101580000121F1E72849184803F0EEFE787818B1F8
:10159000FF231A46194602E000231A4619461EA8E0
:1015A00004F02AF8787818B13823A522132102E034
:1015B000FF231A4619461DA804F01EF8BDF878004E
:1015C000ADF814009DF87A008DF81600BDF874008F
:1015D000ADF810009DF876008DF81200787800B113
:1015E000012027E008000020400500204E6F7420F5
:1015F000696D706C656D656E746564003AA600086F
:1016000045636F203C20436F6D666F72740000006D
:10161000506F776572206C6576656C0050726F67ED
:1016200072616D6D650000001B8301084F4E000064
:101630004F464600FEA10091CDE9010478231A46E9
:101640003C211420039401F099F8787818B1002314
:101650001A46194602E0FF231A4619461DA803F050
:10166000CBFF787818B1FF231A46194602E03823D9
:10167000A52213211EA803F0BFFFBDF87400ADF82A
:1016800014009DF876008DF81600BDF87800ADF8CE
:1016900010009DF87A008DF81200787850B1002083
:1016A000E4A10091CDE9010478233C211A46B4203D
:1016B0000394ECE00120F3E702F04CF81AE602F0A4
:1016C00091F917E6DD49DE4803F04EFEB06A90F965
:1016D000180010B1012848D06BE000231A461946C3
:1016E00007A803F089FFFF2305461A46194606A8F6
:1016F00003F082FF01462888ADF81400A8788DF821
:1017000016000888ADF8100088788DF81200CDA07A
:10171000CDE90004002102943C2346464246084697
:10172000039401F02BF800231A46194606A803F08B
:1017300063FFFF2305461A46194607A803F05CFF1E
:101740002988ADF81410A9788DF816100188ADF825
:10175000101080788DF81200BFA0CDE900043C2362
:10176000029432462D21039420E000231A461946A4
:1017700007A803F041FFFF2305461A46194606A8AD
:1017800003F03AFF2988ADF81410A9788DF81610E7
:101790000188ADF8101080788DF81200B1A0CDE965
:1017A00000043C230294424600210394002000F0F0
:1017B000E5FFA249A24803F0D7FD787818B1FF23CE
:1017C0001A46194602E000231A46194620A803F0DB
:1017D00013FF787818B13823A522132102E0FF23E4
:1017E0001A4619461FA803F007FFBDF88000ADF8A0
:1017F00014009DF882008DF81600BDF87C00ADF84D
:1018000010009DF87E008DF81200787800B101205C
:1018100098A10091CDE901045A231A46732114209E
:10182000039400F0ABFF787818B100231A461946EC
:1018300002E0FF231A4619461FA803F0DDFE787860
:1018400018B1FF231A46194602E03823A5221321B6
:1018500020A803F0D1FEBDF87C00ADF814009DF87F
:101860007E008DF81600BDF88000ADF810009DF8E0
:1018700082008DF81200787860B100207EA100917E
:10188000CDE901045A231A467321D220039400F0B3
:1018900075FF2FE50120F1E76849694803F064FD11
:1018A00000231A46194622A803F0A6FEFF23054688
:1018B0001A46194621A803F09FFE2988ADF8141096
:1018C000A9788DF816100188ADF8101080788DF881
:1018D00012006AA0CDE9000402943C23454642462A
:1018E00046210020039400F049FF69A36AA26DA17C
:1018F00012A8FEF7CBFC002212A9514803F0B7F959
:101900000023ADF840001A46194621A803F074FEE2
:10191000FF2306461A46194622A803F06DFE01462B
:101920003088ADF81400B0788DF816000888ADF84E
:10193000100088788DF8120012A8CDE900043C232D
:10194000732102942A4600200394A0E7DFF8F08078
:10195000564E002508F1380808EB0500417B0729A1
:1019600000D94473FF231A46194617A803F044FE12
:101970000188ADF8001080788DF802003048009999
:1019800003F006FD4A492E4803F0EEFC00231A46F8
:10199000194618A803F030FEFF2307461A461946D9
:1019A00017A803F029FE3988ADF81410B9788DF81E
:1019B00016100188ADF8101080788DF8120056F8D6
:1019C0003500CDE9000406EBC50002940394B0F99C
:1019D0000610B0F904001E23322200F0CFFE354974
:1019E000174803F0C1FC6D1C072DB5DB82E497F9A5
:1019F000000007280CD2DFE800F004078184878A02
:101A00008D0000212CA001E000212DA000F006FE99
:101A100028490B4803F0A8FCDFF8249000254FF07C
:101A2000020B09F14509BA4600264DE04AE1CAE138
:101A3000353025003130302500000000639001086A
:101A400040050020526573657420616C6C206465EC
:101A5000766963650000000073657474696E67736E
:101A60003F00000041726520796F752073757265C3
:101A70003F000000596573004E6F0000437572729D
:101A8000656E74206669726D776172650000000092
:101A900031322E332E37000076657273696F6E3ADD
:101AA0002000000025732573000000005C920008F0
:101AB0007ABB010885D201084D6F6E646179000020
:101AC0005475657364617900C5EB051000EB800007
:101AD0005030BE4F0FFA80F8C6EB061000EB8000C6
:101AE000163000B21890B86A06EB850490F9180019
:101AF000A04212D1FF231A46194611E00021B4A0DA
:101B000084E70021B5A081E70021B7A07EE700218E
:101B1000B7A07BE70021B9A078E700231A46194651
:101B200024A803F069FDB86A90F91800A04203D117
:101B30003823A522132102E0FF231A46194623A8C1
:101B400003F05AFDBDF89000ADF814009DF8920026
:101B50008DF81600BDF88C00ADF810009DF88E00D1
:101B60008DF812009AF9002012F80910A14203D151
:101B7000012202E01FE0AFE00022B96A91F91810DB
:101B8000A14201D1012300E0002390491898583167
:101B900051F82410CDE90013CDE9022B32231A4667
:101BA000414600F0EBFD761C042E95DB6D1C022DEA
:101BB000FFF63AAF82E597F901006FF004010828BB
:101BC0000AD2DFE800F0040617191B1D1F218DA0A3
:101BD00000E08FA000F022FD9049914803F0C4FB83
:101BE00097F90100072811DA8E4900EB400001EB5C
:101BF000C0060DE08CA0EDE78EA0EBE790A0E9E732
:101C000092A0E7E794A0E5E796A0E3E7844E4C3680
:101C10000025A34605EB4500002400EB05114120FB
:101C200000EB410005EB450A0FFA80F904EB440193
:101C3000132000EB011804EB4A073A468BA108A8D1
:101C4000FEF724FBF05D032803D94FF00100F055A7
:101C500005E004D14FF0FF031A46194603E04FF0A8
:101C600000031A46194624A803F0C6FCF05D6C492F
:101C700000EB4002B939114403280A88ADF814205A
:101C800089788DF81610BDF89010ADF810109DF8F9
:101C900092108DF8121013D0002208A9CDE9001B74
:101CA000CDE902B220232A2249460FFA88F000F03B
:101CB00065FD641C062CB9DB6D1C042DAADBFDE45C
:101CC0000222EAE76FF0020169A000F0A7FC4FF0E2
:101CD000FF3001F0ABFFF1E402F03CF8B06A90F99C
:101CE000180058B1012824D002283ED0634B11AA15
:101CF00010A94B4803F0FEF9B0B363E0604B11AAA2
:101D000010A9474803F0F6F988B9BDF94410BDF9A8
:101D1000400001EBD171A4EB610100EBD0700AB27D
:101D2000A5EB600001B2564B3D4803F075F855A095
:101D300049E0564B11AA10A9394803F0DBF988B9DC
:101D4000BDF94410BDF9400001EBD171A4EB610174
:101D500000EBD0700AB2A5EB600001B24B4B3048EB
:101D600003F05AF84AA02EE01AE04A4B11AA10A933
:101D70002B4803F0BFF988B9BDF94410BDF9400004
:101D800001EBD171A4EB610100EBD0700AB2A5EBBD
:101D9000600001B23F4B224803F03EF83EA012E043
:101DA000BDF94410BDF9400001EBD171A4EB610114
:101DB00000EBD0700AB2A5EB600001B22F4B1848BF
:101DC00003F02AF837A000F0FBFB77E408000020BE
:101DD0005765646E657364617900000054687572BC
:101DE00073646179000000004672696461790000E3
:101DF00053617475726461790000000053756E64FC
:101E000061790000505245534554203100000000D4
:101E10005052455345542032000000007ABB01085F
:101E200040050020949200085052455345542033F9
:101E3000000000005052455345542034000000007B
:101E40005052455345542035000000005052455330
:101E50004554203600000000505245534554203769
:101E600000000000435553544F4D0000256400000E
:101E7000435553544F4D2032346800007F350108DC
:101E8000E1970008436F6D666F727400069C00084E
:101E900045636F00DE9F0008416E74692D66726FA6
:101EA000737400004F6666002DE9F043C94E80460A
:101EB000C94DB06A89B010B1687800287ED0B8F1F9
:101EC000010F21D0002006F0D2F8C348383803F0C3
:101ED00005FAFF231A46194606A803F08DFB018870
:101EE000ADF8001080788DF80200BB4800993838B2
:101EF00003F04EFAE87A002708B3012827D0022819
:101F000033D003286BD138E000231A46194601A8C4
:101F100003F072FB0188ADF8001080788DF80200A4
:101F2000AD480099383803F033FA5F200090AA4892
:101F3000C8233C226421383802F019FFC9E704F0B5
:101F400059F90022114600F0C7FBA44B06E004F04B
:101F500051F90022114600F0BFFBA14B9E480F2211
:101F60001621383802F058FF39E004F043F9002216
:101F7000114600F0B1FB9B4BF0E797489A4B3C228F
:101F80009621383802F048FF93489849383803F0D2
:101F9000EBF900231A46194608A803F02DFBFF238E
:101FA00004461A46194607A803F026FB2188ADF817
:101FB0001410A1788DF81610018800E004E1ADF846
:101FC000101080788DF8120089A0CDE900070297E3
:101FD0002D235222A0218C20039700F0CFFBF07C10
:101FE000042801D1B06AE8B300231A46194601A8B3
:101FF00003F002FB0188ADF8001080788DF8020034
:1020000075480099383803F0C3F9E97A1A20032992
:102010004FF02B0300903ED0708C7D22801D01B2CA
:102020006D48383802F0A3FEFF231A46194601A86E
:1020300003F0E2FA0188ADF8001080788DF8020014
:1020400065480099383803F0A3F9287B48B1E87A4D
:10205000032806D06048674B81221621383802F0E9
:10206000DBFE00E007E095F82C00012816D0687927
:10207000012824D019E0E87A5F4B032808D0708C3F
:102080007D22801D01B25448383802F0C5FEDCE7DD
:102090003B221621F7E73B221621C1E7574B472287
:1020A0004D481621383802F0B7FEE87A03287CD074
:1020B000687A05244FF00C09012806D007E0E87A79
:1020C0004F4B0328EBD19622EAE7687930B1707D57
:1020D000132829D80F281BD9042425E0AC7A052C15
:1020E00009D0042C09D0032C0AD0022C0CD0012CCE
:1020F0000CD0F77119E0142000E01020F07101E01D
:1021000086F80790002612E00820F7E70420F5E79C
:102110000A2801D3032407E0052801D9022403E09B
:1021200008B1012400E00024B47000261FE0354906
:1021300006EB460008440188ADF8001080788DF861
:10214000020025480099383803F022F906EB061002
:1021500000EB461000EBC600163001B21E483123DA
:10216000CD223838CDF8009002F001FE761CA64250
:10217000DDDBFF231A46194601A803F03DFA01886A
:10218000ADF8001080788DF80200134800993838B7
:1021900003F0FEF810481C49383803F0E5F8687A77
:1021A000012801D1687990B100E007E017A30097FA
:1021B0000948B7221521383803F0BEF8B8F1010FED
:1021C00002D0012005F053FF09B0BDE8F08311A350
:1021D0000097EDE70800002078050020D6150108DB
:1021E000B0130108BE0F01087F3501086390010894
:1021F0004F666600BA0C0108456401088B070108A8
:10220000850A010878040020D1CF01084155544FB8
:1022100000000000435553544F4D0000F0B5844E6C
:1022200087B0B06A00286ED08068E8B1814803F0BA
:1022300055F801F08FFDB06A816890F9180001EB44
:1022400040107C490068383129286FD022DC0C28E6
:1022500056D00EDC0C2856D2DFE800F0E8404346AA
:10226000494CE8E8E8E8E84F07B0BDE8F040FEF781
:10227000B9BF16284BD006DC0D2845D0152842D111
:102280006D4D6EA47FE01F2844D020283BD16D4DBA
:102290006DA478E040F29B13A0F29B1298426AD0A2
:1022A0000BDCA0F12A000C282DD2DFE800F05457F7
:1022B0005EBFBFBFBFBFBF40434E0B2A61D006DC2D
:1022C000012A5BD00A2A1ED1624D63A45BE01E2A5C
:1022D0004ED01F2A17D1634D63A454E0654D66A408
:1022E00051E0684D68A44EE0694D6AA44BE06B4D27
:1022F0006BA448E06D4D6EA445E0704D70A442E0C3
:10230000714D72A43FE091E0714D72A43BE0744DB9
:1023100074A438E091F82C00002801D0734D00E03F
:10232000734D01D073A42EE075A42CE010E0784D1D
:1023300078A428E04879002801D0784D00E0784D55
:1023400001D078A41FE078A41DE0784D78A41AE0AD
:102350007A4D7BA417E07D4D7DA414E0C87908B1C7
:102360007D4D00E07D4D7EA40DE07F4D7FA40AE011
:10237000804D81A407E04D4D81A404E0834D84A4E9
:1023800001E0864D86A4EDB32B4604AA03A9294893
:1023900002F0B0FEA02790B9BDF91010BDF90C00F5
:1023A00001EBD1717822A2EB610100EBD0700AB28F
:1023B000A7EB600001B22B461E4802F02DFDB06A6B
:1023C000816890F9180001EB40100068202825D1A1
:1023D0007749184802F0C8FF718B3C20B1FBF0F23E
:1023E00000FB1213B1FBF0F272A105A8FDF74EFF3E
:1023F000002205A90F4802F03AFC01460020009097
:10240000019000E00AE0029001EBD170A7EB6000C0
:1024100000B2002305AA672100F046FA002C05D07F
:1024200007B02046BDE8F04000F0CAB807B0F0BDE4
:10243000080000204005002042AF00084175746F7D
:1024400000000000C55401085365742074696D656F
:1024500072000000B5F400084272696768746E6526
:10246000737300001C3C0108496E666F726D6174E5
:10247000696F6E003C93000848656174206D6F645D
:1024800065000000FEAB0008506F77657200000029
:102490007EB7000854696D65720000007EC60008B2
:1024A00053657474696E67730000000079CE00088C
:1024B00050726F6772616D6D65000000E1970008F2
:1024C000436F6D666F727400069C000845636F0071
:1024D000DE9F0008416E74692D66726F7374000090
:1024E0007CB30008437573746F6D0000A6C10008CB
:1024F0005EBD000854696D6572206973206F6E00BF
:1025000054696D6572206973206F66660000000073
:102510002E1801085365747570000000281D01080D
:10252000EA2301084F6E00004F666600A52A0108E5
:10253000437573746F6D206461790000C1570108A1
:102540004461746520262074696D6500DBE3000832
:10255000446973706C6179001AD30008EFD90008E0
:10256000536F756E64000000832E01085365727608
:1025700069636500184201085265736574000000C4
:10258000536574206461746500000000284F0108E1
:102590005365742074696D6500000000D2EA00087C
:1025A0004175746F20737769746368206F66660085
:1025B0001B830108253032643A2530326400000064
:1025C0001CB5FF2304461A46194601A803F014F867
:1025D0000188ADF8001080788DF802000D48009950
:1025E00002F0D6FE0C490B4802F0BEFE0022214646
:1025F000084802F03CFB0021009100EBD070A021C4
:10260000A1EB600001B22346B922024802F094FE19
:102610001CBD000040050020639001087CB5FF232D
:102620000C4605461A46194601A802F0E5FF018846
:10263000ADF8001080788DF802000E48009902F085
:10264000A7FE0D490B4802F08FFE002229460948DB
:1026500002F00DFB0021009100EBD070A021A1EB56
:10266000600001B22B4604F11A02024802F064FE37
:102670007CBD000040050020639001081CB5FF23CD
:1026800004461A46194601A802F0B6FF0188ADF8C3
:10269000001080788DF802000D48009902F078FE55
:1026A0000C490B4802F060FE00222146084802F067
:1026B000DEFA0021009100EBD070A021A1EB6000B8
:1026C00001B223461022024802F036FE1CBD000073
:1026D000400500207ABB0108F0B5FF2387B01746FC
:1026E0000D4604461A46194606A802F085FF0188E1
:1026F000ADF8001080788DF802001A48009902F0B9
:1027000047FE224618A101A8FDF7C0FD174915484C
:1027100002F02AFE002201A9124802F0A8FA04469B
:1027200000EBD470A521A1EB60000544002607F161
:102730003C0201AB174629B20A48009602F0FCFDA4
:102740000B49084802F010FE281901B20C4609A3F3
:102750003A460448009602F0EFFD0748448407B06B
:10276000F0BD000040050020256400004E67010810
:1027700087810108B0430000080000202DE9FF4FC9
:102780008BB09346DDE91C54DDE918179946002209
:102790004448DDF86CA002F06AFA0490414802F067
:1027A00036FB80460B990BEBDB72049801EB620160
:1027B00000EBD070A1EB600000B202900C9909EB25
:1027C000D97201EB620108EBD870A1EB600000B296
:1027D00001900FB1294600E02146324802F0D8FDB1
:1027E000CDF80090DDE90B125B462E4802F0BFFAEF
:1027F00047B121462B4802F0CBFDBAF1000F1AD0A9
:1028000017B119E02946F5E7002611E0704209EBFF
:1028100040010BEB400003B20C9809B2304402B205
:102820000B980091304401B21E4802F078FA761CF1
:102830005645EBDB02E00FB1294600E0214619487E
:1028400002F0AEFA00200090DDE901211548189B46
:1028500002F072FD1A9878B10FB32146114802F0C8
:1028600097FD032000900198049B4044401D02B254
:102870000C48029902F07BFA00231A46194609A86F
:1028800002F0BAFE0188ADF8001080788DF80200E1
:102890000448009902F084FA0FB0BDE8F08F294691
:1028A000DCE70000400500202DE9FF4F83B01C004D
:1028B000DDE91187DDF840B00E46824603D0FF23E4
:1028C0001A46194602E000231A46194601A802F0EA
:1028D00093FE3948019902F05BFD002236480599C4
:1028E00002F0C5F98146344802F091FA054600EB42
:1028F000470000B2009009EB480003B2F01B02B29F
:10290000AAEB080001B22C4802F031FA74B100239E
:102910001A46194601A802F06FFE2748019902F0F5
:1029200037FD3CB1FF231A46194606E0FF231A463D
:102930001946EFE700231A46194601A802F05CFE8B
:102940001D48019902F02CFA0020009032465146B1
:102950001948059B02F0F0FCBBF1000F14D034B312
:1029600000231A46194602A802F046FE12480299B0
:1029700002F00EFD042000907019401D02B24B467B
:1029800051460D4802F0F3F900231A46194601A8F2
:1029900002F032FE0188ADF8001080788DF8020058
:1029A0000548009902F0FCF907B0BDE8F08FFF235D
:1029B0001A461946D7E70000400500207CB500F014
:1029C000CBF84C4CA16B884276D900F0C5F8A063D7
:1029D000E17C494E1A25022905D039B3032925D0B7
:1029E000042927D029E000231A46194601A802F03D
:1029F00003FE0188ADF8001080788DF802003E4893
:102A00000099383802F0C4FCF07A4FF02B03032809
:102A1000009508D0608C7D22801D01B23648383880
:102A200002F0A5F937E03B221621F7E700F5FA702E
:102A3000A06302E0A07900283ED1A0794FF0000306
:102A400080F00100A071F07A1A460328194601A807
:102A500033D002F0D1FD0188ADF8001080788DF8F8
:102A6000020025480099383802F092FC0095608CED
:102A70002B23801D01B220487D22383802F077F9DF
:102A8000A07940B1608C7D221C4B801D01B21A4898
:102A9000383802F0C1F9FF231A46194601A802F09E
:102AA000ABFD0188ADF8001080788DF80200124867
:102AB0000099383802F06CFC7CBD02F09DFD018865
:102AC000ADF8001080788DF802000B480099383876
:102AD00002F05EFC08482B233B2216213838009573
:102AE00002F045F9A0790028D5D03B22034B1621EE
:102AF000CDE70000080000207805002045640108AB
:102B000010B5124C00204FF09041A0740120886154
:102B100000F022F8A16B884216D9A07980F001005C
:102B2000A07100F019F800F5FA70A063084802F0EF
:102B3000D5FBA079002807D04022BDE81040054B06
:102B40006421034802F068B910BD000008000020AD
:102B500040050020135E010801480068704700002E
:102B600000000020FEE7FEE710B5174CA06AC06920
:102B700028B3002005F07BFAA26A04F11C0011685A
:102B8000332910D0A1F58073B93B02D10021017027
:102B90004170D069C4F82800FFF740FBBDE8104041
:102BA000012005F064BA09494B79002BF1D1D369B2
:102BB000074AA262D361497901704170ECE7BDE830
:102BC000104000F051BA00000800002078050020F5
:102BD000E001002070470907090E002806DA00F01E
:102BE0000F0000F1E02080F8141D704700F1E02094
:102BF00080F8001470470000024900204870FEF77A
:102C0000F1BA000024000020024901204870FEF7BC
:102C1000E9BA00002400002070470000F0B43C48EE
:102C20003B4A0024836A3B481C321968332957D039
:102C30001BDC162940D00FDC354A0B2902F1540267
:102C40002CD0032307240C292ED00D292ED0152992
:102C500030D1F0BCFEF788B81F2931D0202932D0FE
:102C60002B2927D1C07910704EE040F2A516A1F2B1
:102C7000A515B14238D00ADC342933D035292FD0FC
:102C8000A1F580719B392BD0012913D128E0012DAA
:102C90003CD0142D24D0592D0CD121E08078907097
:102CA0000A20107023202FE0C07800E00079907097
:102CB00013705470F0BC7047807A401E1876F9E7A4
:102CC00090F82C00CFE7C28D3C21B2FBF1F5114802
:102CD00044308560B2FBF1F501FB1521C0E90041EC
:102CE0001C76E7E74079BEE78079002807D000BF6F
:102CF0004FF00000107005D14FF0010004E04FF0DC
:102D00000100F7E74FF000005070D3E7007AAAE720
:102D1000080000207805002070B5154C0120002522
:102D2000207065701821A1700421E17005212171C6
:102D30006571A071E07125726572A072E5722573EC
:102D400003206073A073E07320746074A074E07457
:102D50000122182104F11400FDF7F3FB84F82C5034
:102D60004FF43470E08525636563A563E56370BD4A
:102D700078050020704710B503F0BCF9BDE810409D
:102D800000F0A4B8484810B546494160474A42603F
:102D900081608260016941F020010161016941F0B7
:102DA00040010161C168C907FCD1016921F020011E
:102DB0000161016941F010010161C16911F0060F63
:102DC0003B490AD0C269C2F34102012A07D0C26955
:102DD000C2F34102032A04D005E0A52202E0BB228F
:102DE00000E0CC220A80C169DF2202EA1121304AC8
:102DF000921C1180C169921CC1F307411180C16905
:102E0000090E921C1180016A921CC9B21180016ADC
:102E1000921CC1F307211180016921F010010161A9
:102E20002448016841F4700101602348016841F0C1
:102E30000101016001688907FCD541681F4A114002
:102E4000416041681E4A1140416001681D4A1140BD
:102E50000160C16A1C4A1140C162016B40F2031259
:102E600091430163016B21F480310163016B21F017
:102E700000410163416B21F001014163D0F8C010B2
:102E800021F48031C0F8C01000218160C0F8CC105E
:102E900005F03CF9BDE8104000214FF0006004F05F
:102EA0005DB900002301674500200240AB89EFCDEA
:102EB00000F8FF1F88ED00E0001002400C00FF0842
:102EC000FFFFC277FFFFF2FEF0FFFF3F02480168FD
:102ED000491C0160704700000000002010B5084C3C
:102EE0000121204605F051FB012807D10121204690
:102EF00005F048FBBDE8104000F004B810BD00002C
:102F0000002000407047000006488178491E49B201
:102F1000817090F90020914201DA41788170FEF7CA
:102F200061B900005C00002006488178491C49B264
:102F3000817090F90120914201DD01788170FEF7E6
:102F400051B900005C000020154830B4826A154871
:102F500092F91840D0E9011314B1012C0FD018E0F8
:102F60005B1E83601268202A00D123B1002B10DA87
:102F7000172181600DE061B90121416009E0491E1E
:102F8000416014683B22202C00D12BB1002900DACB
:102F9000426030BCFEF726B90129F9DBF9E70000F1
:102FA00008000020BC050020F0B4144800250124CE
:102FB000836A134893F91860D0E9011216B1012E03
:102FC0000CD014E0521C8260172A00DD85601A685C
:102FD000202A0CD1826852B971B108E0491C4160C5
:102FE0001B68202B00D12AB13B2900DD4560F0BCD5
:102FF000FEF7F8B83B29FADD4460F8E70800002046
:10300000BC05002070B5124C1049204605F056FB57
:1030100068B1204605F0FCFA0F490E4B0A78985427
:10302000521CD0B20870322801D1002008700B4D1C
:103030002046294605F042FB002806D029462046B6
:1030400005F028FB06490120087070BD0500050742
:1030500000440040E805002040040020040004076C
:1030600042040020FEE70000024900208862FEF7CB
:103070001BBF00000800002010B500214FF4807035
:1030800002F0F6FF0121084602F018FF0722052191
:10309000002002F08FFF0121022002F0E9FF002052
:1030A00002F0CAFF0121084602F040FF4FF4602100
:1030B000012002F059FF002002F01EFF02F02AFF5B
:1030C0000A2003F00FF802F0E7FEBDE810400120EF
:1030D00002F0BEBF10B5094C00220749204603F09C
:1030E000D3F9002281231146204603F07DFA2046C1
:1030F000BDE8104003F04EBA801A060000540040AC
:103100002DE9F041314C0126314DA07C022804D13B
:10311000287810B101F018F80026FFF71DFDE062D5
:10312000687800274FF0010880B3287820B1A07C90
:10313000012814D098B114E02548383802F0A0FBDB
:10314000A87908B1A77401E084F8128000F0FCFFB0
:103150008C20208301F05CF80020BDE8F08100F0B5
:10316000F3FF1B48383802F08BFBA87908B1A7742D
:1031700001E084F8128001F04BF8FFF7EDFCA0F5B8
:10318000D2407838E06268780026B0B92878A0B1DB
:10319000287A40B1A07C022805D10020FEF784FEE9
:1031A000FFF7DAFC60640A48383802F069FBA87956
:1031B00008B1A77401E084F81280FFF7CDFC41F25A
:1031C0008831084460643046C7E7000008000020EA
:1031D0007805002010B540F2157004F00FFB40F2A6
:1031E000115004F00BFB40F2125004F007FB40F2C8
:1031F0000E7004F003FB40F2117004F0FFFA40F28D
:10320000126004F0FBFA4FF4E06004F0F7FA40F2C9
:10321000096004F0F3FA40F21C7004F0EFFABDE824
:103220001040062004F0C4B930B503461046064CE1
:1032300007E013F8015BC2B26A4054F8222082EA28
:103240001020491EF5D230BD14D701082DE9F041F8
:1032500001224FF0904602231146304603F0A0F8B9
:10326000022303220021304603F0C2F8202300226B
:103270000321304603F094F801220221304603F086
:103280005DF8012300220221304603F089F8012372
:1032900003220021304603F0ABF83E4F4FF4007498
:1032A00022460221384603F049F8022223461146FD
:1032B000384603F075F8002223461146384603F0DD
:1032C00097F822460421304603F038F865002A4674
:1032D0000421304603F032F8234600220221304612
:1032E00003F05EF8234603220121304603F080F804
:1032F0002B4600220221304603F052F82B460322CF
:103300000121304603F074F84FF420442246002196
:10331000384603F013F8234600220221384603F012
:103320003FF8234603220021384603F061F840F6B7
:103330000444012223461146384603F031F823465F
:1033400003220021384603F053F8042201213046BD
:1033500002F0F4FF08220121304602F0EFFF0423BF
:1033600001220221304603F01BF80423032200212E
:10337000304603F03DF8082301220221304603F0D5
:103380000FF83046BDE8F04108230322002103F086
:103390002FB80000000400482DE9F043002391B04D
:1033A0001A4619460BA802F027F90188ADF800105B
:1033B00080788DF80200CD48009901F0F1FCFF23E0
:1033C0001A4619460BA802F017F90188ADF800104B
:1033D00080788DF80200C548009901F0D9FFDFF828
:1033E0000C83002508F13808C14C98F80600012626
:1033F00008B1A57400E0A674BC4801F06FFFBB489B
:1034000002F03EFA002004F032FEBA4B0DAA0CA9DD
:10341000B64801F06FFEA02790B9BDF93410BDF990
:10342000300001EBD1716E22A2EB610100EBD07094
:103430000AB2A7EB600001B2AE4BAC4801F0ECFC65
:10344000012004F014FE4FF4FA69484602F04AFEE7
:10345000002004F00CFEA54801F040FFA348C83846
:10346000B0F80F10ADF80010407C8DF802009F48B6
:10347000009901F08DFFA0499C4801F075FF8C2058
:10348000208300229DA1994801F0F1FB00EBD07050
:10349000A7EB600001B299A335229448009501F092
:1034A0004BFF00229AA1914801F0E1FB00EBD070A4
:1034B000A7EB600001B296A353228C48009501F05F
:1034C0003BFFFF231A4619460BA802F095F8018826
:1034D000ADF8001080788DF802008448009901F062
:1034E00057FF00228DA1814801F0C1FB00EBD07095
:1034F000A7EB600001B289A389227C48009501F006
:103500001BFF8AA38BA28CA106A8FCF7BFFE00229A
:1035100006A9764801F0ABFB00EBD070A7EB60008A
:1035200001B206ABB9227148009501F005FF0120F8
:1035300004F09DFD484602F0D5FD002004F097FD03
:10354000A562656498F80510012901D188F80B106F
:1035500002F066FE607010F17F0F4FF4A0772ED05E
:103560007F2857D030287DDD002000F0F3FE0320B7
:1035700020716079002876D166715C4801F0AEFE5A
:103580006F495A4801F0F0FE00231A4619460FA869
:1035900002F032F8FF2304461A4619460EA802F03C
:1035A0002BF82188ADF81410A1788DF81610018839
:1035B000ADF8101080788DF8120062A057E000205E
:1035C00000F0C8FE2671607900285AD1667147481C
:1035D00001F084FE5A49454801F0C6FE00231A4610
:1035E00019460FA802F008F8FF2304461A461946A8
:1035F0000EA802F001F801462088ADF81400A0786A
:103600008DF816000888ADF8100088788DF8120043
:103610004DA02CE0002000F09DFE0220207160797A
:1036200000282ED16671314801F058FE44492F48D8
:1036300001F09AFE00231A4619460FA801F0DCFF9C
:10364000FF2304461A4619460EA801F0D5FF21882B
:10365000ADF81410A1788DF816100188ADF810108F
:10366000807801E010E00CE08DF8120037A0CDE981
:10367000000500210295F0233A4608460395FFF71E
:103680007DF811B0BDE8F08310F11A0F4FF0000083
:1036900029DA00F05FFE0420207160790028F0D163
:1036A0006671124801F01AFE2549104801F05CFECF
:1036B00000231A4619460FA801F09EFFFF23044677
:1036C0001A4619460EA801F097FF2188ADF814108C
:1036D000A1788DF816100188ADF8101080788DF85B
:1036E00012001BA0C3E7FEF7DFFBCAE7400500207E
:1036F000080000209AFA00087ABB0108646967692B
:1037000074616C20494E56455254455200000000E9
:10371000746563686E6F6C6F67790000454E455243
:10372000475920534156494E4700000031322E334D
:103730002E370000562E0000257325730000000070
:103740004E67010845330000453100004532000056
:1037500045340000F0B5944C8DB094A10AA8E268FD
:10376000FCF794FD91A10BA82269FCF78FFD91A1B4
:1037700008A86269FCF78AFD9049A4F17C0001F079
:10378000F3FDA4F17C0001F042FBC0F1780007B228
:10379000002208A9A4F17C0001F069FA884CC6B2A5
:1037A000A06A007E00287DD000231A46194606A88C
:1037B00001F022FFA06A007E002874D0FF231A4681
:1037C000194607A801F018FFBDF81800ADF814005D
:1037D0009DF81A008DF81600BDF81C00ADF8100019
:1037E0009DF81E008DF81200A06A0025007E0028BA
:1037F0007CD0002008A90091CDE901053C2306F109
:103800001402394619200395FEF7B8FF66480022D6
:103810000BA97C3801F02BFAC6B2A06A007E012801
:1038200065D000231A46194607A801F0E5FEA06AF4
:10383000007E01287DD0FF231A46194606A801F014
:10384000DBFEBDF81C00ADF814009DF81E008DF8DD
:103850001600BDF81800ADF810009DF81A008DF89C
:103860001200A06A007E012800D000200BA9009160
:10387000CDE9010506F114023C23164639469B208A
:103880000395FEF77BFF484800220AA97C3801F027
:10389000EEF9A06A007E022877D000231A46194666
:1038A00007A801E05EE061E001F0A6FEA06A007EEC
:1038B00002286FD0FF231A46194606A801F09CFE85
:1038C000BDF81C00ADF814009DF81E008DF8160020
:1038D000BDF81800ADF810009DF81A008DF8120020
:1038E000A06A007E022859D0002001E042E043E0B7
:1038F0000AA90091CDE901053C2332463946EB2067
:103900000395FEF73BFFFF231A46194606A801F070
:1039100073FE0188ADF8001080788DF8020022480F
:1039200000997C3801F034FD00231A46194606A898
:1039300000E026E001F060FE0188ADF8001080781C
:103940008DF80200184800997C3801F029FAA06A25
:1039500090F9180020B3012824D01AA0FEF730FEF9
:103960000DB0F0BDFF231A46194620E73823A522E3
:10397000132126E701203DE7FF231A46194653E7A6
:1039800003E03823A522132158E7FF231A461946DE
:1039900086E7FFE73823A52213218EE70120A4E75D
:1039A0000AA0DBE70CA0D9E7BC0500202530326473
:1039B0000000000025303464000000001B83010873
:1039C00008000020536574206461790053657420F9
:1039D0007965617200000000536574206D6F6E742C
:1039E000680000002DE9F0438BB08449844801F061
:1039F000BBFC834801F00BFA814FC0F178007C37A3
:103A00000FFA80F97FA107A8BA68FCF73FFC0022F3
:103A100007A97B4801F02BF97C4DC6B2A86A007E4D
:103A200000287CD000231A46194606A801F0E4FDC0
:103A3000A86A007E002873D0FF231A4619460AA8F8
:103A400001F0DAFDBDF81800ADF814009DF81A0079
:103A50008DF81600BDF82800ADF810009DF82A007A
:103A60008DF81200A86A0024007E00287ED0002174
:103A70000DF11C0840468DE813005720A0EB5600BE
:103A80003C23462249460394FEF778FE5DA107A831
:103A90007A68FCF7FBFB002207A9594801F0E7F818
:103AA000C6B2A86A007E01287DD000231A461946B6
:103AB0000AA801F0A1FDA86A007E012874D0FF23A6
:103AC0001A46194606A801F097FDBDF82800ADF882
:103AD00014009DF82A008DF81600BDF81800ADF806
:103AE00010009DF81A008DF81200A86A007E0128C7
:103AF00071D00021CDF80080CDE90114CB20A0EBDE
:103B000056003C23462249460394FEF737FEFF2326
:103B10001A46194606A801F06FFD018801E056E03B
:103B20005AE0ADF8001080788DF802003448009912
:103B300001F02EFC00231A46194606A801F05CFD90
:103B40000188ADF8001080788DF802002C480099AB
:103B500001F026F900231A4619460AA801F04CFD87
:103B6000FF2307461A46194606A800E038E001F090
:103B700043FD0646002226A1214801F078F8398845
:103B8000ADF81410B9788DF816103188ADF8101012
:103B9000B1788DF812101EA1CDE90014029400EB4B
:103BA000D070A02101E01DE020E0A1EB600000B298
:103BB0003723042249460394FEF7E0FDA86A007EFD
:103BC000D0B114A0FEF7FCFC0BB0BDE8F083FF23DE
:103BD0001A46194629E70DE03823A52213212EE7BE
:103BE000012145E7FF231A46194661E73823A5223C
:103BF000132167E701217DE709A0E3E71B830108A3
:103C0000400500202530326400000000080000203C
:103C10003A000000536574206D696E75746500008C
:103C200053657420686F7572000000002DE9F14F34
:103C30008AB04449444801F097FB434DDFF80CB18A
:103C40004C35002707EB4700002600EB0711412009
:103C500007EB470A00EB410806EB4601132000EB97
:103C6000011906EB4A04224639A108A8FCF70EFB0D
:103C7000285D032801D9012028550A98844208D0DC
:103C8000DBF8280090F91800A04202D00A98401CE6
:103C900049D1DBF8280090F91800A04206D138235A
:103CA000A522132106A801F0A7FC0BE0285D2649F8
:103CB00000EB4000B93908440188ADF8181080784D
:103CC0008DF81A00285D032836D000231A461946BD
:103CD00007A801F091FCBDF81800ADF814009DF89C
:103CE0001A008DF81600BDF81C00ADF810009DF804
:103CF0001E008DF81200DBF8280090F91800A04291
:103D000002D0285D03281BD00021002008AACDE99D
:103D10000020CDE902011F2329220FFA88F10FFAB2
:103D200089F0FEF72BFD761C062E95DB7F1C042FF9
:103D300088DB0BB0BDE8F08FFF231A461946C7E7B2
:103D40000221E2E77ABB01084005002008000020BC
:103D50002564000010B5084B65220C21074801F0CE
:103D60005BF8054BBDE81040463365224FF48F7178
:103D7000024801F051B80000FB0601084005002090
:103D800070B5244C0246D3B2A07DFF2800D1A375A4
:103D9000E079814208D1A07D904205DD207AE17A68
:103DA000884201D0401C20721B48657A0179491B6A
:103DB0000025914217DBC17A022914D0A17D9142DE
:103DC00011DD2572FF21A17505730221C172012148
:103DD000A1734571FEF7C0FE00F57A7020630020E4
:103DE000FEF762F812E0A07D90420BDA02F002FAD0
:103DF000617A401A904205DB207AE17A884201D04C
:103E0000A3752572207AE17A884201D1012070BD24
:103E1000002070BD080000207805002030B5224D3C
:103E200089B0284604F01EFB5320ADF81000002492
:103E30004FF4FA60ADF814400690ADF81240ADF8BA
:103E400016408DF81C4004A9284604F04BFB0120C5
:103E50000090ADF80440ADF80840ADF80640ADF86C
:103E60000A40ADF80C406A460021284604F0A6F945
:103E700000221146284604F0BEFA6022002128469E
:103E800004F092FA00221146284604F0C3FA0121F8
:103E9000284604F084FB284604F08AF9284604F0FA
:103EA0001BFB09B030BD00000048014030B54FF0A9
:103EB000804589B0284604F0D5FA5320ADF81000AB
:103EC00000244FF4FA70ADF814400690ADF812409B
:103ED000ADF816408DF81C4004A9284604F002FBFA
:103EE00001200090ADF80440ADF80840ADF8064060
:103EF000ADF80A40ADF80C406A460021284604F0AF
:103F00005DF900221146284604F075FA602200216E
:103F1000284604F049FA08220021284604F07AFADB
:103F20000121284604F03BFB284604F041F92846CD
:103F300004F0D2FA09B030BD2DE9F0414B4F3846BC
:103F400002F023FB7D1501224FF090442B461146D1
:103F5000204602F025FA2B4603220021204602F0DB
:103F600047FAA5616E00012233461146204602F051
:103F700017FA334603220021204602F039FAA661DF
:103F800000E000BF2946204602F02CFA0128F8D1B3
:103F900000E000BF2946204602F024FA0128F8D1AB
:103FA000A56200E000BF2946204602F01BFA002867
:103FB000F8D1A66200E000BF3146204602F012FAB6
:103FC0000028F8D1A66100E000BF3146204602F08B
:103FD00009FA0128F8D1A56100E000BF2946204672
:103FE00002F000FA0128F8D12A460421204602F006
:103FF000A5F932460421204602F0A0F92B46002202
:104000000221204602F0CCF92B4603220121204652
:1040100002F0EEF9334600220221204602F0C0F9F8
:10402000334603220121204602F0E2F94FF4004119
:10403000384602F0E4FA00BF0021384602F0DFFA09
:1040400000BF384602F0A6FA4FF4804208493846CD
:1040500002F01AFA002281231146384602F0C4FA0F
:104060003846BDE8F04102F095BA00000054004027
:10407000801A06002DE9FC418046FEF76DFD2E4CAE
:104080007825A0262063A16A4FF4FA6704F178002E
:104090000B68A3F580729B3A07D1CA69D2F81CC09D
:1040A0009CF818C0BCF1040F03D0B3F5CE7F06D046
:1040B0000AE0C2612048B830A062C2610FE0CA695C
:1040C000D3691B7E042B05D0C969C161B8F1020F09
:1040D0002AD02BE0C2611948A062216DC161002085
:1040E00003F0C5FF164801F0F9F8164B01AA69461E
:1040F000134800F0FFFFBDF90410BDF9000001EB0B
:10410000D171A5EB610100EBD0700AB2A6EB6000A3
:1041100001B20C4B0A4800F07FFE012003F0A7FF1C
:10412000384601F0DFFF02E0C969C161A062FEF715
:1041300013FDE062BDE8FC8108000020A002002021
:10414000400500203AA600080A4810B5C0790028AA
:104150000FD0094CA5220021204604F04CF9142070
:1041600001F0C0FF20460022BDE81040114604F0D7
:1041700042B910BD7805002000480140194910B52A
:1041800082200883886A426912B1BDE81040104756
:1041900082684AB183883BB190F9183002EB431230
:1041A0000023D0618A6213768A6A1368052B05D1D1
:1041B000D3690C4A0B65D8328A62D361806810B12A
:1041C000886A806858B1FCF7CFFD002003F04FFFEC
:1041D000FEF724F8BDE81040012003F048BFFEF7C9
:1041E0001DFDF2E708000020810705D1642190FB46
:1041F000F1F201FB120141B94FF4C87190FBF1F2E9
:1042000001FB120008B10020704701207047000038
:1042100030B5002385B01A46194601A801F0ECF923
:104220000188ADF8001080788DF8020024480099CC
:1042300000F0B6FDFF231A46194601A801F0DCF98B
:104240000188ADF8001080788DF802001C480099B4
:1042500001F09EF81A4801F041F81A4D8C241A4BCF
:104260002C8303AA02A9164800F044FF98B9BDF9AF
:104270000C10782201EBD171BDF90800A2EB6101AD
:104280000AB200EBD070A021A1EB600001B20E4B8E
:104290000B4800F0C1FD4FF4FA6001F023FF08481D
:1042A0003830007828B12C830020FDF7FDFD05B0E3
:1042B00030BD034801F012F8014801F0CDF9F6E7EE
:1042C00040050020080000202B47010810B50F4CC6
:1042D000A16A086910B1BDE810400047888800282D
:1042E00013D0002003F0C3FEA06A017E491C49B22E
:1042F00001768288914201DB00210176FDF78EFF75
:10430000BDE81040012003F0B2BE10BD080000203F
:1043100010B50F4CA06AC16811B1BDE81040084744
:104320008088002813D0002003F0A1FEA06A017E3F
:10433000491E49B20176002902DA0179491E017647
:10434000FDF76CFFBDE81040012003F090BE10BDEA
:104350000800002070B50B4D040001D500240BE0CF
:10436000142C01DD142401E00A2C05DD2C70BDE8BD
:104370007040642001F0B6BE642001F0B3FE2C70E2
:1043800070BD00000800002070B50B4D01202870A2
:10439000FFF702F8094C00206071FEF7DDFB206397
:1043A000FEF7DAFBE063687A002804D1BDE87040CC
:1043B0000A20FFF7CFBF70BD78050020080000205D
:1043C00010B5002003F053FE0648A0F52E71886258
:1043D00000210176FDF722FFBDE81040012003F027
:1043E00046BE0000C002002070B501F0D9FE3420A6
:1043F00001F08AFE104D284601F094FE342001F0B1
:1044000083FE0E4C4FF0FF3240212046FEF70CFF9A
:1044100021461126086405E02168284601F0D0FEF7
:10442000241D2D1D761EF7D2342001F06DFEBDE84F
:10443000704001F06FBE000000F801087805002010
:1044400070B50F4E00250F4C86F82C50F08D608310
:104450002846FFF77FFF3570012020742572FF206A
:10446000A075A5736573002003F001FEA6F1380066
:1044700001F0F2F8A6F13800BDE8704000F02EBF60
:10448000780500200800002010B588B000204FF407
:104490008271CDE9001002904FF4007105900690F2
:1044A000CDE90310064C6946204603F00DFE0021BD
:1044B000204603F0FAFD204603F001FE08B010BDCF
:1044C0000038004070B5002211461C2002F0F8FDB3
:1044D0001C4C204604F0A4F80021204604F005F905
:1044E0000021204604F048F90021204604F011F98B
:1044F0000421204604F005F90821204604F015F9AE
:104500004021204604F0A4F84FF41651204604F050
:1045100051F8204604F0A4F840F2067529462046DA
:1045200004F0A3F80028F9D00521204604F0A8F8EB
:104530000421204604F0A4F8BDE87040642001F096
:10454000D1BD00000044004030B5002385B01A46BC
:10455000194601A801F050F80188ADF800108078E4
:104560008DF802002448009900F01AFCFF231A4637
:10457000194601A801F040F80188ADF800108078D4
:104580008DF802001C48009900F002FF1A4800F064
:10459000A5FE1A4D8C241A4B2C8303AA02A9164897
:1045A00000F0A8FD98B9BDF90C10782201EBD1718B
:1045B000BDF90800A2EB61010AB200EBD070A021A6
:1045C000A1EB600001B20E4B0B4800F025FC4FF44C
:1045D000FA6001F087FD08483830007828B12C8354
:1045E0000020FDF761FC05B030BD034800F076FE09
:1045F000014801F031F8F6E74005002008000020EE
:104600001A4B01082DE9FF4F804600699BB0002836
:104610007CD082781792022A01D0012A76D1D8F86C
:1046200014200792002216926FF063020C92C07859
:104630000D9002910020CFE21E98435C002009906B
:104640001890D8F810000524611C425C015D02EB53
:10465000012111F0FF0129D0E21C855CA21C9942C6
:10466000825C05EB02220FFA82F97CD1B9F1080FC6
:104670001CDB01211891211D04F1050B435C0993FA
:1046800010F80B10E71D01F07F020492A21D002517
:10469000825C0A92C05D049A00F07F0A9A1A179809
:1046A000A2EB0A06022802D0012871D06FE2C809E5
:1046B0006FD00A9A0D99A9F10800891A0026A1EB7A
:1046C0000A070E96119096E0D8F8100001190E987E
:1046D0000830085C95FBF7F10FFA81FB10F0C00F72
:1046E00058D000F03F0A05EB0A010DB2B14606EBC7
:1046F0000A010EB2000678D5289840B1404698F8D5
:10470000193098F8182098F8171007E077E2079802
:10471000C0F30743C0F30722C1B2404600F040FE99
:104720001D990A98084410903844401E00B2199010
:104730000299049808440B9018E01099199B01EB1A
:10474000090002B20B98584401B2404600F0FCFD4B
:10475000A7EB0901AAEB01000FFA80FA4FF000095C
:104760000BF1010000E046E20FFA80FB09EB0A00C2
:10477000B842E2DC1098484400EB0A0102B20B9800
:10478000491E0BB2584401B2404600F0DDFD2CE05A
:10479000D5E036E0289949B1404698F8193098F8A4
:1047A000182098F8171000F0FBFD09E08006020EB3
:1047B0004046079900F026FA0146404600F0E8FD21
:1047C0001D990A980844304402B2049902980144A1
:1047D00001EB0B0001B2404600F0F2FD6D1C761CAF
:1047E0002DB236B201E0F01B06B2BE42FBDA0E98E3
:1047F000401C00B20E900E9911988142FFF664AFF2
:10480000C5E10027A9F1080011900E97384691E004
:10481000D8F8100001190E980830085C95FBF6F1E5
:104820000FFA81FB10F0C00F53D000F03F0A05EBE8
:104830000A010DB2B94607EB0A010FB2000673D5A3
:10484000289838B1404698F8193098F8182098F808
:10485000171006E00798C0F30743C0F30722C1B260
:10486000404600F09DFD04990298084410903044A1
:10487000401E00B219900A991D9808440B9016E04A
:104880000B981099584402B201EB090001B240465E
:10489000199B00F041FDA6EB0901AAEB01000FFAFC
:1048A00080FA0BF101004FF000090FFA80FB09EBD1
:1048B0000A00B042E4DC1098484400EB0A01491EAB
:1048C0000BB20B9959440AB201B2404600F024FDE4
:1048D0002AE0289949B1404698F8193098F81820EC
:1048E00098F8171000F05CFD09E08006020E4046C3
:1048F000079900F087F90146404600F049FD1D99EF
:104900000A98014401EB0B0002B202990498084492
:10491000384401B2404600F053FD6D1C7F1C2DB29F
:104920003FB201E0B81B07B2B742FBDA0E98401C59
:1049300000B20E9011998842FFF66AAF27E12898DD
:1049400040B1404698F8193098F8182098F8171098
:1049500000F026FDD8F81000C15DC9097ED010F81E
:104960000B00C00962D00A9A0D99A9F10800891AB2
:1049700000261190A1EB0A070E96304652E000BFC8
:10498000D8F8100001190E980830085C00F07F0973
:10499000C00939D095FBF7F00FFA80FB0299049813
:1049A000B246084410900A991D9808440B901BE0E9
:1049B000384403B20B981099504402B201EB0B003B
:1049C00001B2404600F0C0FCA7EB0A00A9EB0001D1
:1049D0000FFA81F92918304406B20BF101000DB22B
:1049E0004FF0000A0FFA80FB0AEB0900B8420B985F
:1049F000DEDC504400EB090102B210980BB25844BF
:104A000001B2404600F0A0FC05EB090005B206EB40
:104A1000090000E0F01B06B2BE42FBDA0E98401C13
:104A200000B20E9011998842AADBB0E00027A9F1EC
:104A300008000E97109055E0D8F81000BA460119FA
:104A40000E980830085C95FBF6F100F07F09C0096C
:104A50000FFA81FB38D00299049800E047E008443F
:104A60000B900A991D980844CDF844000AEB090000
:104A7000B0421CDD0B98304403B21198584402B286
:104A80000B98504401B2404600F046FCA6EB0A00E9
:104A9000A9EB00010FFA81F92918384407B20BF18C
:104AA00001000DB24FF0000A0FFA80FBDEE70B9910
:104AB00001EB0A0000EB09010BB2119959440AB24B
:104AC00001B2404600F028FC05EB090005B207EBF7
:104AD000090000E0B81B07B2B742FBDA0E98401C91
:104AE00000B20E900E9910988142A5DB4FE000278E
:104AF000A9F108000597BB460F9045E0D8F81000D3
:104B000001190BF10800085C0E9001E0B81B07B218
:104B1000B742FBDA0598B94690FBF6F00FFA80FA37
:104B20005FF0000509EB0500B04205D10AF1010074
:104B3000C5F100090FFA80FAC5F10701012088408C
:104B40000E9900B2014211D10A991D98014401EB5E
:104B50000A00411C0BB202B204990298014401EB15
:104B60000900284401B2404600F0EEFB6D1CEDB296
:104B7000082DD7D30BF101000FFA80FB0598083000
:104B800000B208373FB205900F998B45B6DB2998E4
:104B900080B1169940566FF0630188420ADD0C908F
:104BA000169A2998104490F90100884202DD501CA1
:104BB00000B21690189860B102990998084400B2A2
:104BC00002900C9810F1640F03DD0299084400B2C2
:104BD00002901598401C00B215901E98FBF792FCAD
:104BE000159988423FF628AD07991FB04046BDE8A9
:104BF000F04F00F0CDBB04EB09010CB224E51FB06F
:104C0000BDE8F08F7FB5CCB2C2F1FF0314FB03F413
:104C1000C57D15FB0245C1F3072414FB03F4067E92
:104C200016FB0244C1F3074111FB03F1407E10FB68
:104C30000213C82295FBF2F094FBF2F193FBF2F21F
:104C4000FF2800DDFF20FF2900DDFF21FF2A00DD16
:104C5000FF22D3B2CAB2C1B203A800F0CDFC0188D2
:104C6000ADF80010827804B041EA024070BD2DE931
:104C7000F74F0646006900284FD04FF000096FF04B
:104C8000630B4D464C4642E001984FF0000A5346F4
:104C900010F804C0306905214A1C475C825C02EBB5
:104CA000072212F0FF0212D0CF1C10F807808F1CD1
:104CB0006245C75D08EB07273FB205D1082F06DB29
:104CC00001230A1D10F802A0394409B2E4E7029852
:104CD00088B110F909006FF0630188420BDD029A78
:104CE000834602EB090090F90100884203DD09F1D7
:104CF00001000FFA80F943B105EB0A0005B21BF180
:104D0000640F02DD05EB0B0005B2641C24B20198B0
:104D1000FBF7F8FBA042B7D82846BDE8FE8F2DE987
:104D2000F0418046CD18A81E03B217460E464046F5
:104D3000069C00F0F1FA3C44A01E6D1E03B22DB299
:104D40003A462946404600F0FFFA641E701C24B221
:104D500001B22B462246404600F0DEFA7F1C234675
:104D60003AB231464046BDE8F04100F0EDBA2DE9D7
:104D7000FC411E46054613460C461430089F00F0C1
:104D800030FC0146D819A219401E521E00B212B2C0
:104D9000CDE900202246284600F0EAF9BDE8FC8172
:104DA00003B5BDF80410A0F817109DF80610417661
:104DB0000CBD10B5417300240473B0F90630B0F98E
:104DC0000420012907D002290AD0032903D0028137
:104DD0004381447310BD038142810121017310BDE1
:104DE0000281438110BD704713B5034601A800F04E
:104DF000F8FB1968C2B28C68C0F307211846A047B7
:104E00001CBD0368CAB2C1F307219B68184700693B
:104E1000002800D0C07870472DE9FF4F95B01D00E5
:104E2000934607D028785A2807D06FF0010019B0B0
:104E3000BDE8F08F4FF0FF30F9E768780104A878FB
:104E400001EB0020E97808445FEA000A02D56FF020
:104E50000200ECE728790104687901EB0020A979C8
:104E600040180B9001D540B2E1E7EE79FF2E02D356
:104E70006FF00400DBE7687A297A00EB012000B2CA
:104E80005FEA000802D56FF00500D0E7E87AA97A5A
:104E900000EB012007B2002F02DA6FF00600C6E730
:104EA000304600F07BFE0024039009940120069414
:104EB000CDE90F041598407B20B14FEA880000F03F
:104EC0006DFE81468A494FF4006008601598407B6A
:104ED000C0B1CDF840B060210AF10C000C95CDE9CD
:104EE0000D010CA800F017FEE8B10CA800F0FBFDC6
:104EF000401EC0B20A900CA800F0F5FD401E00F064
:104F0000FF0AC7E00BEB0700401E00B216990090A5
:104F100001EB0800401E03B215985A460068076866
:104F20001598B847D7E708210CA800F003FE0746FC
:104F30000F9810B10020119733E011984FF6FF71D0
:104F400001EA002015993843497BB9B3069A49F81C
:104F500022000698401C0690404521D1109802B2CC
:104F6000169800924044401E03B2159800680568E8
:104F7000DDE91501A8471098401C10901598407B5A
:104F8000012821D0B8F1010508D400BF39F8250067
:104F900001B21598FFF735FF6D1EF7D5002006907A
:104FA00001200F900998401C099003980755641C34
:104FB00024B2B44201DBA01B04B287E0FFE701B2D8
:104FC0001598FFF71EFFEBE7002506E039F82500EE
:104FD00001B21598FFF715FF6D1C4545F6DBDDE7BF
:104FE0000A98201A00E0A81905B2002DFBDB01E0A9
:104FF000A81B05B2B542FBDAA34603E0ABEB060003
:105000000FFA80FBB345F9DA0998641C401C09903B
:105010000F9824B220B10398405D1190002034E035
:1050200011984FF6FF7101EA00210398405D084393
:105030001599497BA1B3069A49F822000698401CAD
:105040000690404520D1109802B216980092404434
:10505000401E03B2159800680768DDE91501B847DE
:105060001098401C10901598407B01281ED0B8F174
:10507000010707D439F8270001B21598FFF7C1FEE0
:105080007F1EF7D50020069001200F900398425D07
:1050900000F80B20BAF1010000F0FF0AA0D213E0E3
:1050A000FFE701B21598FFF7ACFEEDE7002706E039
:1050B00039F8270001B21598FFF7A3FE7F1C47457A
:1050C000F6DBDFE7A01B04B2B442FBDA0B990998C8
:1050D00088427FF706AF06494FF400601039086038
:1050E000039800F053FD484600F050FD00209EE676
:1050F0002804004810B52BB118785A2805D06FF055
:10510000010010BD4FF0FF3010BD58789C780004AE
:1051100000EB0420DC78E04202D56FF0020010BD05
:1051200018795C79000400EB04209C79001901D502
:1051300040B210BDD879FF2802D36FF0040010BD33
:10514000587A1C7A00EB042000B20880002802DAAA
:105150006FF0050010BDD87A997A00EB012000B2FB
:105160001080002802DA6FF0060010BD002010BD8C
:105170002DE9FC479046DDE90A5406461F4689465C
:105180001046454501DAA8460546BC4201DA2746E5
:105190001C46B6F9081041456FDDB6F90A00B84261
:1051A0006BDDB8F1000F03DA002D66DB4FF000086D
:1051B000002F02DA002C60DB0027B27B002AB6F950
:1051C0002C200DD0F2B3337BEBB3954203DB90453B
:1051D0007CDA521E15B2A04244DC401E04B241E00B
:1051E00082B3A94201DC491E0DB2A04201DC401E7F
:1051F00004B2707B40B3012803D002283ED00328BC
:1052000064D102EB080001B2501903B2B6F90600EE
:1052100091FBF0F200FB121293FBF0F100FB113551
:10522000AA4255DD401E00B2CDE9000430683B467D
:105230004946D0F804C03046E047CDE90054306814
:105240003B4602E014E003E018E0002244683AE044
:10525000944203DB974239DA521E14B2A94201DCB0
:10526000491E0DB2CDE9005430683B46446829E040
:10527000A942B0DC491E0DB2ADE727E0D01903B258
:10528000101901B2B6F9060093FBF0F200FB1233DD
:1052900091FBF0F200FB1214A3420FDD401E00B29E
:1052A000CDE9005030684246494647683046B84725
:1052B000CDE9005430680023446803E0CDE9005490
:1052C00030684468424649463046A047BDE8FC87FE
:1052D000CDE9005430683B464468F4E738B50446ED
:1052E0004569B0F81700ADF80000607E8DF8020047
:1052F0002046009900F04CF8B4F90A000090002212
:10530000B4F9083011462046FFF731FD2946204602
:10531000BDE8384000F03CB87CB51E460446134654
:105320000D46143000F05DF9CDE9006301462A46D0
:105330002046FFF71DFF7CBD7CB50024069DCDE90E
:105340000045FFF75FF97CBD7CB5054616460C4667
:10535000143000F046F9CDE90043014633462246B9
:105360002846FFF705FF7CBD30B50C7800234A784E
:105370005D1E5A2C06D1462A04D18A78022A04D00E
:10538000012A02D00361284630BD0161002030BDF2
:1053900003B5BDF8041081829DF8061081750CBD1F
:1053A0001CB5044601A800F027F90188ADF80010EB
:1053B00080788DF8020020460099FFF7E9FF1CBDB8
:1053C000F8B50446002944DB002A42DBB4F90800A2
:1053D00088423EDDB4F90A0090423ADDA07B98B1E4
:1053E000B4F92C0020B3237B002B94F8303005D087
:1053F0000BB981422DD081422BDC19E00BB98242DE
:1054000027D0824225DC13E0207BA38D0028B4F94D
:105410000600034406D0194400E0091A09B2884284
:10542000FBDB05E01A4400E0121A12B29042FBDBEB
:1054300008484FF400650560009220680B46066836
:105440002046B04720466169FFF7CEFC014810387E
:105450000560F8BD280400487047704738B5044619
:105460001D482060914201D2084600E01046A0800D
:1054700001D9084600E01046E0802181628102D90E
:105480004FF0010001E04FF0000060734FF00001A9
:105490004FF00100A073A18584F82A0084F82B0046
:1054A0009FED0E0B0B4684ED080B84F828100A467E
:1054B000684604F10C0400F09FF801888078A4F895
:1054C0000B106073FF230C3C1A4619462046FFF769
:1054D00067FF204638BD00007CDB010800000000AB
:1054E0000000F03F017B39B1817DCA0704D021F073
:1054F000010181750120704700207047017B39B19F
:10550000817D8A0704D521F0020181750120704751
:105510000020704770B50446007803F039F900B1F7
:105520000120E073A17B884207D000206073FDF763
:1055300013FB6060FDF710FBA060FDF70DFB6168D9
:105540000125401A618A88420AD9E07B217B884282
:1055500006D0207320B1A561A07D40F00100A075A8
:10556000A08A78B1607B68B9207B58B1FDF7F4FA66
:105570006168401AA18A884204D96573A07D40F011
:105580000200A075207CD0B1607BC0B1A0694FF44F
:10559000FA750E2800D96425042800D9FA25FDF7EC
:1055A000DBFA6168401AA84209D9FDF7D5FA6060B4
:1055B000A07D40F00100A075A069401CA061E07BC7
:1055C000A07370BD10B50170002141608173C1737B
:1055D0006424448282828175017341730374816102
:1055E00010BD01784278C908C9029208807841EA62
:1055F000421141EAD00070470170427083707047D9
:10560000034A4FF480601060024802F074BD00004D
:105610002804004800380040034A4FF480601060BE
:10562000024802F068BD000018040048003800403D
:1056300070B51546064A4FF480601060054C204650
:1056400002F059FD29462046BDE8704002F053BDE6
:10565000180400480038004010B52821FFF7D0FF9B
:105660004FF090410120886210BDFFF7E1BF0000BC
:105670002DE9F041814C4FF40065804625600426F9
:105680002660012000F02EFD7C4F10373E60322056
:1056900000F028FD2660782000F024FD3D601121F7
:1056A0004046FFF7ADFF3A214046FFF7A9FF05212D
:1056B0004046FFF7B1FFB2214046FFF7A1FF0C21A2
:1056C0004046FFF7A9FF0C214046FFF7A5FF002148
:1056D0004046FFF7A1FF33214046FFF79DFF3321EE
:1056E0004046FFF799FFB7214046FFF789FF352174
:1056F0004046FFF791FFBB214046FFF781FF28217D
:105700004046FFF789FFC0214046FFF779FF2C2173
:105710004046FFF781FFC2214046FFF771FF01219C
:105720004046FFF779FFC3214046FFF769FF0B2191
:105730004046FFF771FFC4214046FFF761FF20217B
:105740004046FFF769FFC6214046FFF759FF0F218A
:105750004046FFF761FF20214046FFF751FFD0216F
:105760004046FFF74DFFA4214046FFF755FFA1211A
:105770004046FFF751FFE0214046FFF741FFD021AF
:105780004046FFF749FF01214046FFF745FF08214A
:105790004046FFF741FF0F214046FFF73DFF112133
:1057A0004046FFF739FF2A214046FFF735FF3621F3
:1057B0004046FFF731FF55214046FFF72DFF4421BA
:1057C0004046FFF729FF3A214046FFF725FF0B210E
:1057D0004046FFF721FF06214046FFF71DFF11213C
:1057E0004046FFF719FF20214046FFF715FFE12152
:1057F0004046FFF705FFD0214046FFF70DFF02218D
:105800004046FFF709FF07214046FFF705FF0A2141
:105810004046FFF701FF0B214046FFF7FDFE182130
:105820004046FFF7F9FE34214046FFF7F5FE4321DD
:105830004046FFF7F1FE4A214046FFF7EDFE2B21DF
:105840004046FFF7E9FE1B214046FFF7E5FE1C211D
:105850004046FFF7E1FE22214046FFF7DDFE1F2113
:105860004046FFF7D9FE13214046FFF7C9FE292124
:105870004046FFF7C5FE2560BDE8F08118040048EA
:1058800010B52921FFF7BCFE4FF09041012088613F
:1058900010BD00002DE9F84F8246DDE90A964E481A
:1058A0004FF40067984615460C4607600096DAF8F4
:1058B00000004B464246D0F800C029465046E0471B
:1058C000A6EB0800A9EB0505401C6D1C04F0FF09C0
:1058D000C4F3072845430024142665E04A464146A0
:1058E0005046FFF7A5FE4A4641465046FFF7A0FE48
:1058F0004A4641465046FFF79BFE4A4641465046BF
:10590000FFF796FE4A4641465046FFF791FE4A464B
:1059100041465046FFF78CFE4A4641465046FFF747
:1059200087FE4A4641465046FFF782FE4A464146B8
:105930005046FFF77DFE4A4641465046FFF778FE47
:105940004A4641465046FFF773FE4A464146504696
:10595000FFF76EFE4A4641465046FFF769FE4A464B
:1059600041465046FFF764FE4A4641465046FFF71F
:105970005FFE4A4641465046FFF75AFE4A464146B8
:105980005046FFF755FE4A4641465046FFF750FE47
:105990004A4641465046FFF74BFE4A46414650466E
:1059A000FFF746FE641C24B295FBF6F0A04295DC9E
:1059B000002405E04A4641465046FFF739FE641C84
:1059C00095FBF6F006FB1050A042F3DC02481038BD
:1059D0000760BDE8F88F0000280400482DE9F04179
:1059E0008046407B069F1D4614460E46B8B30128EC
:1059F00004D002280DD0032827D11BE0B8F80400FA
:105A00000C46821A521EC01B401E16B205B21F461B
:105A10001BE0B8F80600811AC01B401E07B2491EE1
:105A2000B8F804000CB2811B491EC01A401E0EB209
:105A300005B20AE0B8F806001146821B521EC01AD1
:105A40003D46401E14B20E4607B2B54202DA304659
:105A50002E460546A74202DA20463C4607462A2142
:105A60004046FFF7CDFDC6F307214046FFF7D4FDC2
:105A7000F1B24046FFF7D0FDC5F307214046FFF7DE
:105A8000CBFDE9B24046FFF7C7FD2B214046FFF7AB
:105A9000B7FDC4F307214046FFF7BEFDE1B2404623
:105AA000FFF7BAFDC7F307214046FFF7B5FDF9B28E
:105AB0004046FFF7B1FD4046BDE8F0412C21FFF71D
:105AC0009FBDD0E902239A4202D0531C836011701B
:105AD000704710B50446C1684068091AFAF739FDE5
