:020000040800F2
:10000000A02100204D020008A12D0008312D00087C
:10001000332D0008211200081933000800000000E9
:10002000000000000000000000000000FD2F00089C
:100030003D13000800000000E52D0008FF2F000818
:100040006702000867020008452F000867020008E1
:1000500067020008670200086702000867020008DC
:1000600067020008670200086702000867020008CC
:1000700067020008670200086702000867020008BC
:1000800067020008670200080000000065310008F0
:10009000670200086702000867020008670200089C
:1000A000670200086702000867020008670200088C
:1000B000B9320008000000006702000800000000DC
:1000C000670200080000000067020008000000004E
:1000D0000000000000000000000000000000000020
:1000E000000000000000000067020008000000009F
:1000F0000000000000000000000000000000000000
:10010000670200080000000000000000000000007E
:1001100000000000000000000000000000000000DF
:1001200000000000000000000000000000000000CF
:1001300000000000000000000000000000000000BF
:10014000000000000000000000000000670200083E
:1001500000F002F800F06AF80AA090E8000C82446F
:100160008344AAF10107DA4501D100F05FF8AFF24C
:10017000090EBAE80F0013F0010F18BFFB1A43F085
:100180000103184790E20100B0E201000A444FF079
:10019000000C10F8013B13F0070408BF10F8014BE6
:1001A0001D1108BF10F8015B641E05D010F8016B2B
:1001B000641E01F8016BF9D113F0080F1EBF10F88F
:1001C000014BAD1C0C1B09D16D1E58BF01F801CBB2
:1001D000FAD505E014F8016B01F8016B6D1EF9D535
:1001E0009142D6D37047000000230024002500264A
:1001F000103A28BF78C1FBD8520728BF30C148BF8A
:100200000B607047642900F0A580732900F04983D2
:10021000002070471FB509F0DEFB9DE8030000F0E9
:10022000A7FC00F099FA1FBD10B510BD00F05AFCF4
:100230001146FFF7EFFF07F013F900F0CFFC03B40E
:10024000FFF7F2FF03BC00F0FBFC00000948804709
:1002500009480047FEE7FEE7FEE7FEE7FEE7FEE7A8
:10026000FEE7FEE7FEE7FEE704480549054A064BC0
:10027000704700000D30000851010008A007002061
:10028000A0210020A01D0020A01D00200FB41CB53F
:10029000074B06AA7B4469460090059800F0D7FA00
:1002A0000020694600F0E6FA1CBC5DF814FB000073
:1002B000DD05000070B5044685690068C10601D5FA
:1002C000302600E02026C00707D070BDD4E9012108
:1002D00030469047206A401C20626D1EF6D570BDE6
:1002E00070B5044685690078C00707D170BDD4E9B0
:1002F000012120209047206A401C20626D1EF6D507
:1003000070BD70B50C460546012A05D028788006D8
:1003100000D5EA69002302E0012305E05B1C93425B
:1003200002D2E05C0028F9D1A869E618C01AA861D9
:10033000286A184428622846FFF7BCFF04E0D5E984
:10034000012114F8010B9047B442F8D32846FFF777
:10035000C7FF70BD2DE9F0410646002410687529DD
:10036000314616A510D0AFF30080002802DA4042D3
:1003700013A507E031688A0701D512A502E04907F5
:1003800004D511A5012401E0AFF3008000210A2269
:1003900006F1240709E0B0FBF2FCB0FBF2F302FB2C
:1003A0001C00303078541846491C0028F3D12346ED
:1003B0002A463046BDE8F04100F0EBB900000000ED
:1003C0002D0000002B000000200000002DE9F05F50
:1003D000894604464FF0000ADFF824B1FB44C0F818
:1003E00020A02046E168884700287DD0252806D037
:1003F000D4E901219047206A401C2062F1E70025E2
:100400005F462046E16888472028064607DB312EF4
:1004100005D2B81910F8200C08B10543F1E7A80778
:1004200001D525F00405C4F81CA00027C4F818A0C5
:100430002A2E09D0304605F001FF38B304EB8708B7
:10044000303EC8F8186019E059F8041B204604EB48
:1004500087029161E1688847012F064618D1E0695B
:10046000002820DA25F020051DE0D8F8180000EB60
:10047000800006EB40003038C8F818002046E168DC
:100480008847064605F0DAFE0028EED1012F0AD093
:100490002E2E08D12046E16888477F1C0646022F91
:1004A00045F02005C4DBA069002803DA404245F08E
:1004B0000105A061E80701D025F01005A6B1A6F15D
:1004C0004100192802D8203645F400654A463146D5
:1004D000204625604D46FFF795FE60B1012807D004
:1004E000ED1D25F0070000E007E000F1080978E7BE
:1004F00005F1040975E730467AE7206ABDE8F09F08
:1005000024DF010010B5431C02E010F8011B71B19B
:100510008107FAD14FF0013202C88C1A8C4314EAD9
:10052000C211F9D0C01A0A0603D0C01E10BDC01AED
:1005300010BD0A0401D0801E10BD0902FCD0401E6F
:1005400010BD02F0FF0343EA032242EA024200F038
:1005500002B84FF000020429C0F0128010F0030C22
:1005600000F0A581CCF1040CBCF1020F18BF00F81B
:10057000012BA8BF20F8022BA1EB0C0100F097B9CA
:100580005FEAC17C24BF00F8012B00F8012B48BFB3
:1005900000F8012B70470000014900F0ADB90000E0
:1005A0001407002010B503681C1404EB21449BB20F
:1005B00089B2194494FBF2F302FB134394FBF2F467
:1005C00001EB034393FBF2F102FB113193FBF2F3D6
:1005D00001E05B1E11440029FBDB016003EB0440DA
:1005E00010BDF0B504464FF0FF3585B000680490AB
:1005F00060680290A0680390E06801902069009014
:10060000666906F18040B0F1004F7CD83C220021A1
:1006100004A8FFF7C7FF3C22014602A8FFF7C2FF6C
:100620001822014603A8FFF7BDFF411E40F2B55254
:1006300001A8FFF7B7FF0C22074668460021FFF725
:10064000B1FF414B00EB8700304400267B4411E0B2
:10065000511A01910099491C0229009102D00C29DC
:1006600008D105E0810705D00199491C019101E0FD
:10067000401C00960099019A595C9142E8DD00996E
:10068000012906D11C2A04D1810702D00221CDE91B
:100690000016A0F146018B293CD2DDE90061002261
:1006A00002E09F5C521C3944B242FADB012E02DDAB
:1006B000820700D0491E40F2B55340F26D16C217B2
:1006C00000EB927292105A4300F0030303FB0622E0
:1006D00083070A4400D1521E039E02EB4203049F8B
:1006E00006EBC303029EC3EB031306EB8303174E13
:1006F00033441E149BB2C6EB0616C3EB0313B600BD
:1007000007EB830300E005E006EB134666F31F43A7
:10071000360C02D0284605B0F0BD80C4029E40C40D
:10072000039E40C4019E761C44F80C6B009E44E975
:1007300002600720521C92FBF0F600FB162084E8B2
:1007400023001846E7E7000008DD0100A039CEFDD0
:10075000704770477047000070B5064C7C44064DEA
:100760007D4403E0206820448047241DAC42F9D139
:1007700070BD0000D4DC0100D8DC010010B500F031
:100780001BF9006810BD10B5044600F015F90460AF
:1007900010BD2DE9F0470D4699469246044600F1FA
:1007A00024080168880604D5E06921F01001216061
:1007B00000E00120A84201DD471B00E00027A169FD
:1007C0007A1902EB0900081AA0612078C00602D449
:1007D0002046FFF76FFD002608E0D4E901211AF852
:1007E00006009047206A401C761C20624E45F4DBD0
:1007F0002078C0060AD52046FFF75CFD06E0D4E964
:10080000012130209047206A401C2062381EA7F149
:100810000107F4DC07E0D4E9012118F8050090474E
:10082000206A401C2062281EA5F10105F3DC204649
:10083000FFF756FD2078000602D50220BDE8F087BC
:100840000120FBE701694A1C02610878704700B586
:100850008FB0CDE901310021059105497944CDE9F9
:10086000031011466846FFF7B1FD0FB000BD000050
:10087000E5FFFFFF0A6802F8010B0A60704710B538
:10088000436913B1AFF3008001E0FFF73AFD0120A7
:1008900010BD127800F124010A7000224A70012272
:1008A000EDE711684FF0FF32E9E74FF0000200B5C5
:1008B000134694469646203922BFA0E80C50A0E883
:1008C0000C50B1F12001BFF4F7AF090728BFA0E831
:1008D0000C5048BF0CC05DF804EB890028BF40F8FD
:1008E000042B08BF704748BF20F8022B11F0804F3F
:1008F00018BF00F8012B704770B50C460168002046
:100900004A1C3ED03C22B1FBF2F302FB1313B1FBB5
:10091000F2F12360B1FBF2F302FB1313B1FBF2F12E
:1009200018226360B1FBF2F302FB1313B1FBF2F187
:1009300046F2E0320A440721A360B2FBF1F301FB67
:10094000132140F2B553B2FBF3F5A161B2FBF3F111
:1009500003FB15228900B2F5B77F08D39B10521E06
:10096000B2FBF3F52944B2FBF3F503FB15220F4B61
:10097000E261616189077B440CD03B2A0AD3521C97
:1009800008E02C212046FFF790FF0120E0600AE0FC
:10099000521A401C195C9142FAD9521CC4E9032036
:1009A0004FF0FF302062204670BD0000DED901000C
:1009B0000048704774070020004870474007002037
:1009C00070B5064600F0B4F8056806F10B0020F09B
:1009D0000704B4429CBF002070BD2B466A68BAB1C0
:1009E0001068A04210D304F1080188423CBF50684F
:1009F000586007D35168101941601168091B0160E4
:100A000058601460101D70BD13465268002AE7D16B
:100A10002146284600F098F80028DED170BD70B558
:100A20000446051F00F084F80068002C14BF4468D9
:100A300070BD002C18BFAC423CBF20466468F8D3A0
:100A400001680A18AA4218BF456003D12A68054602
:100A50001144016028684119A1421CBF6C6070BD3F
:100A60006168696021680844286070BDAFF3008048
:100A700010B500F00EF8016919B100220261884733
:100A800001E08068804700F0B2F8000010B500F087
:100A9000AEF870B500F050F804680546A4B92020FF
:100AA000FFF78EFF040011D0094900202C60C4E933
:100AB00000010849A1602073206160610649A061BE
:100AC00009B100F09FF8E061204670BD00F08FF89A
:100AD000000000008D0A0008000000000048704778
:100AE000400700207546FFF7F9FFAE46050069464E
:100AF000534620F00700854618B020B5FFF7B4FB39
:100B0000BDE820404FF000064FF000074FF000080E
:100B10004FF0000B21F00701AC46ACE8C009ACE88F
:100B2000C009ACE8C009ACE8C0098D4670470000B8
:100B30000048704748070020004870477C070020A5
:100B4000704770477047704738B504460A46002022
:100B50006946AFF30080002808BF38BD02460099FF
:100B6000204600F073F8012038BD012000F08FB856
:100B7000F8B5AFF30080054600200C46102000BFFA
:100B80000646A819A0420DD9324669460020AFF3A7
:100B90000080070008BF00F07AF80098A04218BF54
:100BA0000546C419FFF7C4FF05600746F01D20F095
:100BB00007004619284600F00AF8B44208BFF8BDFD
:100BC000A21B31463868BDE8F84000F03FB800216C
:100BD0000160C0E9011070471020704710B504464D
:100BE000AFF300802046BDE81040FFF728BB10B5EA
:100BF000002000F045F8FFF717FBBDE8104001208A
:100C000000F01EB810B58820FFF7DAFE002801D0EA
:100C10000021017010BD802902D808B1017809B106
:100C200000207047012100F8081B704718B100F13F
:100C30000802914201D000207047002101707047E6
:100C400001491820ABBEFEE72600020003464068BB
:100C50008C46002818BF88423CBF03464068F8D342
:100C600018681844884207D00CF1030020F00700F0
:100C7000001D411A521A0146081D0A60FFF7CFBE37
:100C800010B500F011F8BDE8104000F008B810B53C
:100C900000F022F8BDE8104000F001B870470028CD
:100CA00001D0FFF7CDBF704710B5002102A000F0C2
:100CB0003BF8012010BD0000534947414252543ACD
:100CC0002041626E6F726D616C207465726D696E29
:100CD0006174696F6E00000010B5012805D0002115
:100CE00003A000F021F8012010BD09A1F8E70000E1
:100CF00053494752544D454D3A204F7574206F6605
:100D00002068656170206D656D6F7279000000006C
:100D10003A2048656170206D656D6F727920636F50
:100D2000727275707465640070B505460C460A20D1
:100D300000E06D1C00F011F835B128780028F8D1DA
:100D400002E0641C00F009F814B120780028F8D102
:100D5000BDE870400A20AFF3008008B569468DF801
:100D600000000320ABBE08BD2DE9F04FFB4FFC4E49
:100D700007F11E0EF86A9EF801100025026889B07E
:100D80004FF0010B07F1200A06F10E0906F14404A9
:100D9000352A70D02FDC1F2A64D01CDCEF490D2AC5
:100DA00001F15801897857D006DC0B2A52D00C2A61
:100DB0007ED1F170012009E0152A4FD0162A77D193
:100DC00086F80AB0007E401CF072022009B0BDE82F
:100DD000F04F03F003BB202A4ED02B2A69D0332AD0
:100DE00068D0342A64D171710029E3D0B57286F8D5
:100DF0002D507D71DEE7D94B40F2B9181E33A2F2B7
:100E0000B91C93F9013042457DD00FDCA2F5807208
:100E10004FF07F084FF0FF099B3A75D0012A74D03C
:100E20000A2A73D00B2A43D13172C3E7BCF1020FF7
:100E30006DD0BCF1450F6BD0BCF1460F69D0BCF151
:100E4000590F35D1017EC06990F91820C44815307A
:100E50001154AFE7B170ADE73171ABE7B572142053
:100E60007872B2E786F82D100029A3D0032800D1AC
:100E700035737571BDE777E1017E491C49B2017692
:100E8000012939D12189A088C1EB011100EB810032
:100E9000F085B883B248383804F0FAFBB048B14B5B
:100EA00002AA01A9383804F0FFFABDF9040002E0F3
:100EB000A3E036E060E1BDF90810AA4B01EBD17266
:100EC0007821A1EB62010AB200EBD071A020A0EB67
:100ED000610001B2A248383804F078F94FF47A7012
:100EE00005F0EEFA9E48383804F0D2FB01F01AFF04
:100EF000786301F017FF3863F86A007E02287CD11E
:100F0000A088218906E05DE10DE0BEE04FE17DE1D2
:100F10003DE145E1C1EB011100EB8100F085B883B3
:100F200048E7F17146E7017E8D4E491C49B20176D2
:100F30007036491EA6F5BA7A022967D204F10C0070
:100F400007C805F05EFDB8B32069401E20616069E6
:100F5000A0F26C706061A6F12C00FFF742FB0090DC
:100F60006846FFF719FB834607F08CFBDBF8180097
:100F700000B90720F070207D6438C0B205F094FA03
:100F80003070207C401CC0B205F08EFA7070207B5F
:100F900005F08AFAB070A6F808807148A6F80A90A1
:100FA0007030CAF8105007F0B5FB2069401C206172
:100FB000606900F26C7060616948383804F068FB61
:100FC0006748684B04AA03A9383804F06DFABDF9E4
:100FD0001000BDF90C1000EBD0727820A0EB62007D
:100FE00002B201EBD171A020A0EB610001B25C481C
:100FF0005C4B383804F0EAF800E043E04FF47A70D4
:1010000005F05EFA5648383804F042FBF86A007E74
:10101000032837D104F10C0007C805F0F2FC70B3C7
:101020002069401E20616069A0F26C7060614C48CC
:101030004430FFF7D6FA00906846FFF7ADFA07464E
:1010400007F020FBB86900B90720F070207D6438F4
:10105000C0B205F029FA3070207C401CC0B205F007
:1010600023FA7070207B05F01FFAB070A6F8088094
:101070003B48A6F80A907030CAF8105067E0FFE7C6
:10108000F86A057609B0BDE8F08F017E491C49B2C7
:101090000176012943D1207A05F006FA8DF808007F
:1010A000207905F001FA8DF80900207805F0FCF9A7
:1010B0008DF80A00ADF80C80ADF80E9001A807F08D
:1010C00029FB2748383804F0E3FA2548254B07AABE
:1010D00006A9383804F0E8F9BDF91C10BDF918006C
:1010E00001EBD1727821A1EB62010AB200EBD07161
:1010F000A020A0EB610001B219481A4B383804F067
:1011000065F84FF47A7005F0DBF91548383804F0CB
:10111000BFFA01F007FE786301F004FE3863F86A55
:10112000007E0228AED1207A05F0BEF98DF80400C9
:10113000207905F0B9F98DF80500207805F0B4F9AB
:101140008DF80600ADF80880ADF80A90684607F003
:10115000E1FA012003F042F994E7000008000020C2
:10116000B80500202AAE00082A49027EC861B018DE
:10117000F962407D087685E790F918208AF800200A
:10118000244912F809208AF80120403904E0214955
:10119000027E8AF801202039C861F9620D7671E774
:1011A0009AF900209AF8011002F8091002E623B11A
:1011B0000020B07118B13D75FCE50120F9E787F812
:1011C00014B0F7E57146BBB1027E521C52B20276F2
:1011D000012A16D0022ABFD101F0C4FE03F0DEFAC4
:1011E000BFF34F8F0C4801680C4A01F4E0611143D2
:1011F0000160BFF34F8FFEE709B0BDE8F04F01F08B
:1012000099BD81F801B08EF800B03BE707F0C6F950
:10121000D0E50000A40100200CED00E00400FA0578
:10122000FEE700000848C16A8A88002A0AD091F9BE
:101230001800431C5BB20B76934201DB00220A7656
:1012400002F076BE70470000080000200848C16A1E
:101250008A88002A0AD091F91800431E5BB20B76E7
:10126000002B01DA521E0A7602F062BE70470000BF
:1012700008000020184810B5C06A184C90F91800F2
:10128000022803D0012811D0B8B120E0E068401E48
:10129000E0601CD11F2001E0E068401EE060D4E95E
:1012A000041205F0AEFB0028F6D010E02069401EC5
:1012B00020610CD10C20206109E0606940F2E371EB
:1012C000401E6061884202DA40F633006061BDE88A
:1012D000104000F035B8000008000020FC05002098
:1012E00070B51448144C0125C06AD4E9041290F971
:1012F0001800022803D0012809D070B116E0E06878
:10130000401CE06005F07DFB80B9E5600EE0491C03
:1013100021610D290AD1256108E0521CA2F5006067
:101320006261343802D140F2E3706061BDE8704020
:1013300000F006B808000020FC05002070470000FF
:101340002DE9F04FFE4EA9B0F06A00680B2807D0D7
:101350000C2805D00D2803D0FA4804F099F917E0BD
:1013600000231A46194601A804F020FB0188ADF8B5
:10137000001080788DF80200F248009904F0E2F93C
:10138000C8200346462200901146EE4803F0C9FEED
:10139000F06AEB4F40F29B120168A0251E37002433
:1013A000A1F29B1091427BD01EDC202979D012DC67
:1013B000DFF88C836FF0180908F158080D2954D014
:1013C00004DC0B2951D00C292CD148E0162955D02A
:1013D0001F2927D10FE12B29FCD033297ED03429B6
:1013E0007DD035291ED1D3E34FF4A078202877D0C3
:1013F0000CDC0B28EED004DC0128D7D00A2811D150
:1014000072E11E286DD01F280CD1F7E2CC4F203797
:10141000632867D0642866D07824772876D0B0F522
:10142000137F01D0C8A0B4E3CB4B08AA13A9C548C9
:1014300004F03AF8BDF92010BDF94C0001EBD17170
:10144000A4EB610100EBD0700AB2A5EB600001B221
:10145000C14BBC4803F0BAFE29B0BDE8F08F02F0E2
:10146000FBFDBEA001F0F0F901E002F0F5FD98F9F6
:1014700002000F22494601F015FAEDE7BBA001F08A
:1014800085F9F06A90F91800411C01EB41018900CF
:1014900000EB800001EB8000ADF84C0000242CE054
:1014A000BDE1BFE1A74804EB4407E83838440188B0
:1014B000ADF8001080788DF80200A248009904F081
:1014C00041F9BDF94C005A2100EBD070A5EB60004A
:1014D000009100EB870004EB840105E011E316E0C6
:1014E000E5E2A2E1AFE3F0E300EB810001B20C23FF
:1014F0004B22944803F015FE641CF06A90F9180022
:10150000401CA042CEDC02F0A7FDA5E7F3E30021DA
:1015100099A001F069F99B498A4804F0FFF87878AE
:1015200018B1FF231A46194602E000231A4619464D
:101530001AA804F03BFA787818B13823A5221321B1
:1015400002E0FF231A46194619A804F02FFABDF845
:101550006800ADF814009DF86A008DF81600BDF81B
:101560006400ADF810009DF866008DF812007878E0
:1015700000B1012084A10091CDE9010464231A4641
:1015800019461420039401F0DFF9787818B100238C
:101590001A46194602E0FF231A46194619A804F014
:1015A00005FA787818B1FF231A46194602E0382365
:1015B000A52213211AA804F0F9F9BDF86400ADF8CA
:1015C00014009DF866008DF81600BDF86800ADF8AF
:1015D00010009DF86A008DF81200787848B100205C
:1015E0006AA10091CDE9010464231A4619460394C7
:1015F00074E00120F4E76349524804F08FF87878EA
:1016000018B1FF231A46194602E000231A4619466C
:101610001CA804F0CBF9787818B13823A52213213F
:1016200002E0FF231A4619461BA804F0BFF9BDF8D3
:101630007000ADF814009DF872008DF81600BDF82A
:101640006C00ADF810009DF86E008DF8120038782F
:1016500000B10120797801B101214BA2CDE900212F
:10166000CDE9020464231A464621142001F06CF9E6
:10167000787818B100231A46194602E0FF231A466B
:1016800019461BA804F092F9787818B1FF231A467E
:10169000194602E03823A52213211CA804F086F97C
:1016A000BDF86C00ADF814009DF86E008DF81600C2
:1016B000BDF87000ADF810009DF872008DF81200B2
:1016C000387868B10020797861B100212FA2CDE986
:1016D00000216423CDE902041A464621C8200DE208
:1016E0000120F0E70121F1E72649164804F016F839
:1016F000787818B1FF231A46194602E000231A46EB
:1017000019461EA804F052F9787818B13823A5229A
:10171000132102E0FF231A4619461DA804F046F9DA
:10172000BDF87800ADF814009DF87A008DF8160029
:10173000BDF87400ADF810009DF8760028E00000B8
:1017400008000020800500204E6F7420696D706CC9
:10175000656D656E746564002AAE000845636F2090
:101760003C20436F6D666F7274000000506F7765A8
:1017700072206C6576656C0050726F6772616D6D7A
:10178000650000000B8B01084F4E00004F464600DD
:101790008DF81200787800B10120FEA10091CDE90A
:1017A000010478231A463C211420039401F0CCF85C
:1017B000787818B100231A46194602E0FF231A462A
:1017C00019461DA804F0F2F8787818B1FF231A46DC
:1017D000194602E03823A52213211EA804F0E6F8DA
:1017E000BDF87400ADF814009DF876008DF8160071
:1017F000BDF87800ADF810009DF87A008DF8120061
:10180000787850B10020E4A10091CDE9010478235B
:101810003C211A46B420039470E10120F3E702F062
:101820001BF919E602F060FA16E6DD49DD4803F01F
:1018300075FFF06A90F9180010B1012848D06CE0EB
:1018400000231A46194607A804F0B0F8FF230546FE
:101850001A46194606A804F0A9F801462888ADF8EA
:101860001400A8788DF816000888ADF81000887864
:101870008DF81200CCA0CDE90004002102943C2395
:10188000464642460846039401F05EF800231A4695
:10189000194606A804F08AF8FF2305461A46194699
:1018A00007A804F083F82988ADF81410A9788DF8FA
:1018B00016100188ADF8101080788DF81200BFA0C6
:1018C000CDE900043C23029432462D21039421E00B
:1018D00000231A46194607A804F068F8FF230546B6
:1018E0001A46194606A804F061F801462888ADF8A2
:1018F0001400A8788DF816000888ADF810008878D4
:101900008DF81200B0A0CDE900043C2302944246B9
:1019100000210394002001F017F8A149A14803F029
:10192000FDFE787818B1FF231A46194602E000231D
:101930001A46194620A804F039F8787818B13823E7
:10194000A522132102E0FF231A4619461FA804F01E
:101950002DF8BDF88000ADF814009DF882008DF8D8
:101960001600BDF87C00ADF810009DF87E008DF8E3
:101970001200787800B1012097A10091CDE901040F
:101980005A231A4673211420039400F0DDFF78785F
:1019900018B100231A46194602E0FF231A461946D9
:1019A0001FA804F003F8787818B1FF231A461946E7
:1019B00002E03823A522132120A803F0F7FFBDF889
:1019C0007C00ADF814009DF87E008DF81600BDF87F
:1019D0008000ADF810009DF882008DF81200787834
:1019E00050B100207DA10091CDE901045A2373215B
:1019F0001A46D220039481E00120F3E76849694840
:101A000003F08CFE00231A46194622A803F0CEFFED
:101A1000FF2305461A46194621A803F0C7FF0146D1
:101A20002888ADF81400A8788DF816000888ADF85D
:101A3000100088788DF8120069A0CDE900040294A6
:101A40003C234546424646210020039400F07CFF9B
:101A500068A36AA26CA114A8FEF718FC002214A9BE
:101A6000504803F0DEFA0023ADF84C001A46194640
:101A700021A803F09BFFFF2306461A46194622A819
:101A800003F094FF3188ADF81410B1788DF816107A
:101A90000188ADF8101080788DF8120014A8CDE9F7
:101AA00000043C2302942A467321039425E03C4918
:101AB0003C4803F033FE00231A46194624A803F0DD
:101AC00075FFFF2305461A46194623A803F06EFF4B
:101AD00001462888ADF81400A8788DF8160008880B
:101AE000ADF8100088788DF8120049A0CDE9000407
:101AF0003C230294424646210394002000F024FF38
:101B0000AAE4DFF8A080474E002508F1380800BF9E
:101B100008EB0500817B072900D98473FF231A464F
:101B2000194609A803F042FF0188ADF8001080783B
:101B30008DF802001B48009903F004FE3A49194849
:101B400003F0ECFD00231A4619460AA803F02EFF05
:101B5000FF2307461A46194609A803F027FF3988CC
:101B6000ADF81410B9788DF816100188ADF8101082
:101B700080788DF8120056F83500CDE9000406EBA8
:101B8000C50002940394B0F90610B0F904004DE0CA
:101B900074E1F4E1353025003130302500000000DB
:101BA0005398010880050020526573657420616CAC
:101BB0006C20646576696365000000007365747469
:101BC000696E67733F00000041726520796F752070
:101BD000737572653F000000596573004E6F000019
:101BE00043757272656E74206669726D7761726595
:101BF0000000000031322E332E37000076657273FC
:101C0000696F6E3A20000000257325730000000004
:101C100046696E64206D6520696E20747579612057
:101C2000617070004C9A00086AC301081E233222BA
:101C300000F08AFED349D44803F070FD6D1C072DD7
:101C4000FFF666AF08E497F9000007280CD2DFE83A
:101C500000F004073336393D40000021CBA001E0FD
:101C60000021CCA000F0C0FDC649C74803F056FDD6
:101C7000DFF81493DFF824B3002509F14609BA46CA
:101C8000C5EB051000EB80005030C44F00260FFA62
:101C900080F85C3FC6EB061000EB8000163000B207
:101CA0000A90F86A06EB850490F91800A04213D157
:101CB000FF231A46194612E00021B9A0D2E70021FD
:101CC000BAA0CFE70021BCA0CCE750E00021BCA027
:101CD000C8E70021BDA0C5E700231A46194626A87B
:101CE00003F064FEF86A90F91800A04204D138238A
:101CF000A522132103E0CBE0FF231A46194625A8AD
:101D000003F054FEBDF89800ADF814009DF89A0059
:101D10008DF81600BDF89400ADF810009DF89600FF
:101D20008DF812009AF90020022112F80900A04251
:101D300001D1012200E00022F86A90F91800A042C7
:101D400001D1012300E000235BF82400CDE900036A
:101D5000CDE9022132231A4641460A9800F0F4FDEB
:101D6000761C042E96DB6D1C022D89DB59E597F954
:101D700001006FF0040108280AD2DFE800F0040631
:101D800017191B1D1F2193A000E095A000F02CFD4A
:101D900096497D4803F0C2FC97F90100072811DA43
:101DA000934900EB400001EBC0060DE091A0EDE788
:101DB00093A0EBE795A0E9E797A0E7E799A0E5E70F
:101DC0009BA0E3E7704E4D360025A346002405EBAB
:101DD000450000EB0510412101EB400005EB450AF1
:101DE0000FFA80F904EB4401132000EB011804EB17
:101DF0004A073A4690A10BA8FEF748FAF05D03287F
:101E000003D94FF00100F05505E004D14FF0FF0376
:101E10001A46194603E04FF000031A46194625A852
:101E200003F0C4FDF05D584900EB4002D93911447C
:101E300003280A88ADF8142089788DF81610BDF8AB
:101E40009410ADF810109DF896108DF8121013D064
:101E500000220BA9CDE9001BCDE902B220232A22E2
:101E600049460FFA88F000F06FFD641C062CB9DBC0
:101E70006D1C042DAADBD4E40222EAE76FF0020114
:101E80006EA000F0B1FC4FF0FF3002F051F8C8E452
:101E900002F0E2F8F06A90F9180058B1012824D055
:101EA00002283ED0684B08AA13A9374803F0FCFA71
:101EB000B0B363E0654B08AA13A9334803F0F4FA02
:101EC00088B9BDF92010BDF94C0001EBD171A4EB2C
:101ED000610100EBD0700AB2A5EB600001B25B4B70
:101EE000294803F073F95AA049E05B4B08AA13A9EB
:101EF000254803F0D9FA88B9BDF92010BDF94C0086
:101F000001EBD171A4EB610100EBD0700AB2A5EB3B
:101F1000600001B2504B1C4803F058F94FA02EE06E
:101F20001AE04F4B08AA13A9174803F0BDFA88B965
:101F3000BDF92010BDF94C0001EBD171A4EB61019A
:101F400000EBD0700AB2A5EB600001B2444B0E4822
:101F500003F03CF943A012E0BDF92010BDF94C009C
:101F600001EBD171A4EB610100EBD0700AB2A5EBDB
:101F7000600001B2344B044803F028F93CA000F0A3
:101F800005FC4EE475DA0108800500204D6F6E6493
:101F90006179000054756573646179006400002004
:101FA0005765646E657364617900000054687572EA
:101FB0007364617900000000467269646179000011
:101FC00053617475726461790000000053756E642A
:101FD0006179000050524553455420310000000003
:101FE0005052455345542032000000006AC3010896
:101FF000849A000850524553455420330000000095
:10200000505245534554203400000000505245536F
:1020100045542035000000005052455345542036A9
:102020000000000050524553455420370000000086
:10203000435553544F4D00002564000043555354FD
:102040004F4D2032346800006F3D0108D19F0008D9
:10205000436F6D666F727400F6A3000845636F00EE
:10206000CEA70008416E74692D66726F737400000C
:102070004F6666002DE9F043C94E8046C94DF06AAF
:1020800089B010B1687800287ED0B8F1010F21D056
:10209000002006F0D7FBC348383803F0F9FAFF23D5
:1020A0001A46194606A803F081FC0188ADF8001015
:1020B00080788DF80200BB480099383803F042FB65
:1020C000287B002708B3012827D0022833D0032813
:1020D0006BD138E000231A46194601A803F066FCCC
:1020E0000188ADF8001080788DF80200AD480099A5
:1020F000383803F027FB5F200090AA48C8233C2211
:102100006421383803F00DF8C9E704F061FA0022C1
:10211000114600F0C7FBA44B06E004F059FA002278
:10212000114600F0BFFBA14B9E480F221621383804
:1021300003F04CF839E004F04BFA0022114600F0AD
:10214000B1FB9B4BF0E797489A4B3C2296213838DD
:1021500003F03CF893489849383803F0DFFA00233D
:102160001A46194608A803F021FCFF2304461A4624
:10217000194607A803F01AFC2188ADF81410A178BD
:102180008DF81610018800E004E1ADF81010807899
:102190008DF8120089A0CDE9000702972D23522265
:1021A000A0218C20039700F0CFFB707D042801D183
:1021B000F06AE8B300231A46194601A803F0F6FBBB
:1021C0000188ADF8001080788DF8020075480099FC
:1021D000383803F0B7FA297B1A2003294FF02B0374
:1021E00000903ED0B08C7D22801D01B26D48383801
:1021F00002F097FFFF231A46194601A803F0D6FB09
:102200000188ADF8001080788DF8020065480099CB
:10221000383803F097FA687B48B1287B032806D04A
:102220006048674B81221621383802F0CFFF00E06A
:1022300007E095F82D00012816D06879012824D0F0
:1022400019E0287B5F4B032808D0B08C7D22801DCD
:1022500001B25448383802F0B9FFDCE73B221621BE
:10226000F7E73B221621C1E7574B47224D4816217D
:10227000383802F0ABFF287B03287CD0A87A0524ED
:102280004FF00C09012806D007E0287B4F4B0328AC
:10229000EBD19622EAE7687930B1F07D132829D88E
:1022A0000F281BD9042425E0EC7A052C09D0042C36
:1022B00009D0032C0AD0022C0CD0012C0CD0777240
:1022C00019E0142000E01020707201E086F80990F7
:1022D000002612E00820F7E70420F5E70A2801D3DA
:1022E000032407E0052801D9022403E008B10124F2
:1022F00000E00024F47000261FE0354906EB46009C
:1023000008440188ADF8001080788DF80200254857
:102310000099383803F016FA06EB061000EB461069
:1023200000EBC600163001B21E483123CD223838EA
:10233000CDF8009002F0F5FE761CA642DDDBFF230F
:102340001A46194601A803F031FB0188ADF80010C8
:1023500080788DF8020013480099383803F0F2F9BC
:1023600010481C49383803F0D9F9A87A012801D15E
:10237000687990B100E007E017A300970948B722F9
:102380001521383803F0B2F9B8F1010F02D001205D
:1023900006F058FA09B0BDE8F08311A30097EDE705
:1023A00008000020B8050020C61D0108A01B010878
:1023B000AE1701086F3D0108539801084F6666008B
:1023C000AA140108356C01087B0F01087512010879
:1023D00098040020C1D701084155544F0000000067
:1023E000435553544F4D0000F0B5844E87B0F06A0A
:1023F00000286ED08068E8B1814803F049F901F007
:102400002BFEF06A816890F9180001EB40107C49BE
:102410000068383129286FD022DC0C2856D00EDC19
:102420000C2856D2DFE800F0E8404346494CE8E883
:10243000E8E8E84F07B0BDE8F040FEF781BF162896
:102440004BD006DC0D2845D0152842D16D4D6EA429
:102450007FE01F2844D020283BD16D4D6DA478E04B
:1024600040F29B13A0F29B1298426AD00BDCA0F1C1
:102470002A000C282DD2DFE800F054575EBFBFBF02
:10248000BFBFBF40434E0B2A61D006DC012A5BD0A0
:102490000A2A1ED1624D63A45BE01E2A4ED01F2A79
:1024A00017D1634D63A454E0654D66A451E0684DB7
:1024B00068A44EE0694D6AA44BE06B4D6BA448E004
:1024C0006D4D6EA445E0704D70A442E0714D72A454
:1024D0003FE091E0714D72A43BE0744D74A438E08C
:1024E00091F82D00002801D0734D00E0734D01D00C
:1024F00073A42EE075A42CE010E0784D78A428E0B9
:102500004879002801D0784D00E0784D01D078A4BA
:102510001FE078A41DE0784D78A41AE07A4D7BA4E2
:1025200017E07D4D7DA414E0C87908B17D4D00E031
:102530007D4D7EA40DE07F4D7FA40AE0804D81A4F7
:1025400007E04D4D81A404E0834D84A401E0864D55
:1025500086A4EDB32B4604AA03A9294802F0A4FFE0
:10256000A02790B9BDF91010BDF90C0001EBD17195
:102570007822A2EB610100EBD0700AB2A7EB6000F9
:1025800001B22B461E4802F021FEF06A816890F9E4
:10259000180001EB40100068202825D17749184821
:1025A00003F0BCF8B18B3C20B1FBF0F200FB12133E
:1025B000B1FBF0F272A105A8FDF768FE002205A9A3
:1025C0000F4802F02EFD014600200090019000E02F
:1025D0000AE0029001EBD170A7EB600000B200238B
:1025E00005AA672100F046FA002C05D007B0204666
:1025F000BDE8F04000F0CAB807B0F0BD0800002008
:102600008005002032B700084175746F000000009B
:10261000B55C01085365742074696D657200000033
:10262000A5FC00084272696768746E6573730000E8
:102630000C440108496E666F726D6174696F6E00BB
:102640002C9B000848656174206D6F646500000074
:10265000EEB30008506F7765720000006EBF00088F
:1026600054696D65720000006ECE00085365747485
:10267000696E67730000000069D6000850726F67CA
:1026800072616D6D65000000D19F0008436F6D663B
:102690006F727400F6A3000845636F00CEA70008B0
:1026A000416E74692D66726F737400006CBB000814
:1026B000437573746F6D000096C900084EC500081D
:1026C00054696D6572206973206F6E0054696D6581
:1026D00072206973206F6666000000001E200108EA
:1026E000536574757000000018250108DA2B010885
:1026F0004F6E00004F666600953201084375737493
:102700006F6D206461790000B15F010844617465F8
:1027100020262074696D6500CBEB00084469737056
:102720006C6179000ADB0008DFE10008536F756E09
:1027300064000000733601085365727669636500B2
:10274000084A0108526573657400000053657420DF
:102750006461746500000000185701085365742017
:1027600074696D6500000000C2F200084175746F65
:1027700020737769746368206F6666000B8B0108AD
:10278000253032643A253032640000001CB5FF2346
:1027900004461A46194601A803F008F90188ADF865
:1027A000001080788DF802000D48009902F0CAFFF1
:1027B0000C490B4802F0B2FF00222146084802F003
:1027C00030FC0021009100EBD070A021A1EB600053
:1027D00001B22346B922024802F088FF1CBD000066
:1027E00080050020539801087CB5FF230C46054660
:1027F0001A46194601A803F0D9F80188ADF800106F
:1028000080788DF802000E48009902F09BFF0D4978
:102810000B4802F083FF00222946094802F001FC20
:102820000021009100EBD070A021A1EB600001B26B
:102830002B4604F11A02024802F058FF7CBD00004A
:1028400080050020539801081CB5FF2304461A4652
:10285000194601A803F0AAF80188ADF800108078A5
:102860008DF802000D48009902F06CFF0C490B48EE
:1028700002F054FF00222146084802F0D2FB00215A
:10288000009100EBD070A021A1EB600001B22346C3
:102890001022024802F02AFF1CBD00008005002023
:1028A0006AC30108F0B5FF2387B017460D460446FA
:1028B0001A46194606A803F079F80188ADF8001009
:1028C00080788DF802001A48009902F03BFF2246FA
:1028D00018A101A8FDF7DAFC1749154802F01EFF00
:1028E000002201A9124802F09CFB044600EBD470C0
:1028F000A521A1EB60000544002607F13C0201ABD5
:10290000174629B20A48009602F0F0FE0B49084823
:1029100002F004FF281901B20C4609A33A46044804
:10292000009602F0E3FE0748848407B0F0BD000083
:1029300080050020256400003E6F010877890108AA
:10294000B0430000080000202DE9FF4F8BB09346F4
:10295000DDE91C54DDE91817994600224448DDF8EA
:102960006CA002F05EFB0490414802F02AFC804615
:102970000B990BEBDB72049801EB620100EBD0705A
:10298000A1EB600000B202900C9909EBD97201EB47
:10299000620108EBD870A1EB600000B201900FB1AA
:1029A000294600E02146324802F0CCFECDF80090E6
:1029B000DDE90B125B462E4802F0B3FB47B121461E
:1029C0002B4802F0BFFEBAF1000F1AD017B119E080
:1029D0002946F5E7002611E0704209EB40010BEBB8
:1029E000400003B20C9809B2304402B20B98009137
:1029F000304401B21E4802F06CFB761C5645EBDBFE
:102A000002E00FB1294600E02146194802F0A2FB7E
:102A100000200090DDE901211548189B02F066FEB8
:102A20001A9878B10FB32146114802F08BFE0320AB
:102A300000900198049B4044401D02B20C4802994A
:102A400002F06FFB00231A46194609A802F0AEFFF8
:102A50000188ADF8001080788DF8020004480099D4
:102A600002F078FB0FB0BDE8F08F2946DCE70000EC
:102A7000800500202DE9FF4F83B01C00DDE91187A0
:102A8000DDF840B00E46824603D0FF231A461946B1
:102A900002E000231A46194601A802F087FF3948D0
:102AA000019902F04FFE00223648059902F0B9FA6A
:102AB0008146344802F085FB054600EB470000B232
:102AC000009009EB480003B2F01B02B2AAEB080029
:102AD00001B22C4802F025FB74B100231A461946B6
:102AE00001A802F063FF2748019902F02BFE3CB1D8
:102AF000FF231A46194606E0FF231A461946EFE758
:102B000000231A46194601A802F050FF1D480199FA
:102B100002F020FB00200090324651461948059BE8
:102B200002F0E4FDBBF1000F14D034B300231A46C9
:102B3000194602A802F03AFF1248029902F002FE7A
:102B4000042000907019401D02B24B4651460D48BA
:102B500002F0E7FA00231A46194601A802F026FF00
:102B60000188ADF8001080788DF8020005480099C2
:102B700002F0F0FA07B0BDE8F08FFF231A461946BD
:102B8000D7E70000800500207CB500F0CBF84C4C66
:102B9000E16B884276D900F0C5F8E063617D494E6B
:102BA0001A25022905D039B3032925D0042927D0B5
:102BB00029E000231A46194601A802F0F7FE018811
:102BC000ADF8001080788DF802003E480099383842
:102BD00002F0B8FD307B4FF02B030328009508D09E
:102BE000A08C7D22801D01B23648383802F099FA57
:102BF00037E03B221621F7E700F5FA70E06302E0C8
:102C0000207A00283ED1207A4FF0000380F00100A6
:102C10002072307B1A460328194601A833D002F0EF
:102C2000C5FE0188ADF8001080788DF802002548B7
:102C30000099383802F086FD0095A08C2B23801D6A
:102C400001B220487D22383802F06BFA207A40B178
:102C5000A08C7D221C4B801D01B21A48383802F02E
:102C6000B5FAFF231A46194601A802F09FFE018813
:102C7000ADF8001080788DF80200124800993838BD
:102C800002F060FD7CBD02F091FE0188ADF80010FD
:102C900080788DF802000B480099383802F052FD18
:102CA00008482B233B2216213838009502F039FAC8
:102CB000207A0028D5D03B22034B1621CDE7000017
:102CC00008000020B8050020356C010810B5124C32
:102CD00000204FF0904120750120886100F022F81B
:102CE000E16B884216D9207A80F00100207200F052
:102CF00019F800F5FA70E063084802F0C9FC207A80
:102D0000002807D04022BDE81040054B642103484D
:102D100002F05CBA10BD0000080000208005002011
:102D200003660108014800687047000000000020A9
:102D3000FEE7FEE710B5174CE06AC06928B3002033
:102D400005F080FDE26A04F11E001168332910D0FD
:102D5000A1F58073B93B02D1002101704170D069A7
:102D6000C4F82C00FFF740FBBDE81040012005F03F
:102D700069BD09494B79002BF1D1D369074AE26259
:102D8000D361497901704170ECE7BDE8104000F073
:102D9000C5BA000008000020B8050020E4010020AA
:102DA00070470907090E002806DA00F00F0000F14D
:102DB000E02080F8141D704700F1E02080F8001436
:102DC00070470000024900204870FEF7B9BA0000C1
:102DD00026000020024901204870FEF7B1BA000029
:102DE00026000020704700002DE9F041524E534C60
:102DF0000025F36AA4F1440006F11E021968332984
:102E000066D01CDC162951D010DC4B4A0B2902F18C
:102E100058023DD0032307240C293FD00D293FD071
:102E2000152941D1BDE8F041FDF79EBF1F2941D0D2
:102E3000202942D02B2937D1C079107078E040F298
:102E4000A51CA1F2A517614562D01ADC34295DD01A
:102E500035293DD03A4FA1F580719B393AD00129EF
:102E600022D1384605F0E0FB387903F009FBA06079
:102E7000787903F005FB6060B87903F001FB20600E
:102E800041E0012F56D0142F22D0592F0CD11FE032
:102E9000807890700A201070232049E0C07800E00C
:102EA0000079907013705470BDE8F081C07A401EB4
:102EB0001876F9E790F82D00BFE7C18D3C20B1FBF3
:102EC000F0F2A260B1FBF0F200FB1210C4E9005076
:102ED0001D76E9E71A4805F0A7FBB87803F0D0FAA9
:102EE000E060787803F0CCFA2061387803F0C8FA13
:102EF000132802D240F2E37004E0387803F0C0FAFD
:102F000000F5FA606061F06A0576CDE7407994E7F4
:102F10008079002807D000BF4FF00000107005D165
:102F20004FF0010004E04FF00100F7E74FF0000020
:102F30005070B9E7007A80E708000020FC05002007
:102F4000B404002010B54FF48074204605F0D8FB7F
:102F5000002806D0204605F0CBFBBDE8104005F068
:102F60004DBB10BD2DE9F041234C012700252770F2
:102F700065701820A0700420E07005202071657134
:102F8000A771E77125726572A572E7722573657383
:102F90000326A673E67326746674A674E674267513
:102FA0000122182104F11500FDF7CBFA84F82D5009
:102FB0004FF43470E085A4F1200005654565856512
:102FC000C56505F05FFBA4F582707F210181FF21BB
:102FD000418120210170C670477087700561122100
:102FE000C56001714571857105F094FB002800D121
:102FF000FEE7BDE8F0810000B8050020704710B57D
:1030000003F066FABDE8104000F0A4B8484810B5D7
:1030100046494160474A426081608260016941F0EF
:1030200020010161016941F040010161C168C907E6
:10303000FCD1016921F020010161016941F0100119
:103040000161C16911F0060F3B490AD0C269C2F3A0
:103050004102012A07D0C269C2F34102032A04D007
:1030600005E0A52202E0BB2200E0CC220A80C16973
:10307000DF2202EA1121304A921C1180C169921CA0
:10308000C1F307411180C169090E921C1180016AC8
:10309000921CC9B21180016A921CC1F307211180F0
:1030A000016921F0100101612448016841F47001B7
:1030B00001602348016841F001010160016889074E
:1030C000FCD541681F4A1140416041681E4A1140C9
:1030D000416001681D4A11400160C16A1C4A1140EB
:1030E000C162016B40F2031291430163016B21F451
:1030F00080310163016B21F000410163416B21F0DC
:1031000001014163D0F8C01021F48031C0F8C01033
:1031100000218160C0F8CC1005F0E2FBBDE8104052
:1031200000214FF0006004F00FBA00002301674552
:1031300000200240AB89EFCD00F8FF1F88ED00E0D2
:10314000001002400C00FF08FFFFC277FFFFF2FEF5
:10315000F0FFFF3F02480168491C01607047000012
:103160000000002010B5084C0121204605F0FBFDB1
:10317000012807D10121204605F0F2FDBDE81040ED
:1031800000F004B810BD00000020004009494FF4D1
:1031900080720879401EC0B208714B78834201D911
:1031A000054B01E0044B10331A60002801D11420B4
:1031B000087170470800002018040048064881780C
:1031C000491E49B2817090F90020914201DA41789C
:1031D0008170FEF7B5B800006000002006488178D5
:1031E000491C49B2817090F90120914201DD0178BA
:1031F0008170FEF7A5B8000060000020154830B4CB
:10320000C26A154892F91840D0E9011314B1012C93
:103210000FD018E05B1E83601268202A00D123B112
:10322000002B10DA172181600DE061B901214160A6
:1032300009E0491E416014683B22202C00D12BB1CB
:10324000002900DA426030BCFEF77AB80129F9DBC8
:10325000F9E7000008000020FC050020F0B4144845
:1032600000250124C36A134893F91860D0E90112BC
:1032700016B1012E0CD014E0521C8260172A00DD1A
:1032800085601A68202A0CD1826852B971B108E0B1
:10329000491C41601B68202B00D12AB13B2900DD6D
:1032A0004560F0BCFEF74CB83B29FADD4460F8E716
:1032B00008000020FC05002070B5124C1049204683
:1032C00005F0F4FD68B1204605F09AFD0F490E4B5C
:1032D0000A789854521CD0B20870322801D10020CC
:1032E00008700B4D2046294605F0E0FD002806D069
:1032F0002946204605F0C6FD06490120087070BD2C
:1033000005000507004400403C060020640400203E
:103310000400040766040020FEE7000002490020C4
:10332000C862FEF7A7BE00000800002010B540F2FA
:103330001C7004F0EDFC04F069F94FF400642046C1
:1033400004F062FC204604F06DFCE01004F00AFD7D
:1033500040F60F0004F0DCFCBDE8104005F04ABA6E
:1033600010B500214FF4807003F05CF8012108468D
:1033700002F07EFF07220521002002F0F5FF012167
:10338000022003F04FF8002003F030F80121084636
:1033900002F0A6FF4FF46021012002F0BFFF0020E1
:1033A00002F084FF02F090FF0A2003F089F802F097
:1033B0004DFFBDE81040012003F024B810B5094CC2
:1033C00000220749204603F051FA002281231146CA
:1033D000204603F0FBFA2046BDE8104003F0CCBACB
:1033E000801A0600005400402DE9F041314C0126BE
:1033F000314D207D022804D1287810B101F058F811
:103400000026FFF78FFC2063687800274FF0010843
:1034100080B3287820B1207D012814D098B114E021
:103420002548383802F006FCA87908B1277501E074
:1034300084F8148001F03CF88C20608301F09CF843
:103440000020BDE8F08101F033F81B48383802F065
:10345000F1FBA87908B1277501E084F8148001F028
:103460008BF8FFF75FFCA0F5D240783820636878CE
:103470000026B0B92878A0B1287A40B1207D022872
:1034800005D10020FEF7F6FDFFF74CFCA0640A48CA
:10349000383802F0CFFBA87908B1277501E084F82D
:1034A0001480FFF73FFC41F288310844A0643046A5
:1034B000C7E7000008000020B805002010B540F262
:1034C000157004F025FC40F2115004F021FC40F28C
:1034D000125004F01DFC40F20E7004F019FC40F292
:1034E000117004F015FC40F2126004F011FC4FF46E
:1034F000E06004F00DFC40F2096004F009FC40F2C9
:103500001C7004F005FCBDE81040062004F046BA2B
:1035100030B503461046064C07E013F8015BC2B213
:103520006A4054F8222082EA1020491EF5D230BDAC
:1035300004DF01082DE9F04101224FF090460223FB
:103540001146304603F01FF90223032200213046C2
:1035500003F040F9504F4FF4F0742346022201214A
:10356000384603F010F9234603220021384603F0C1
:1035700031F9202300220321304603F004F901220F
:103580000221304603F0C8F8012300220221304610
:1035900003F0F9F8012303220021304603F01AF961
:1035A0004FF4007422460221384603F0B5F8022297
:1035B00023461146384603F0E6F80022234611461A
:1035C000384603F007F922460421304603F0A4F8F8
:1035D00065002A460421304603F09EF82346002267
:1035E0000221304603F0CFF8234603220121304662
:1035F00003F0F0F82B4600220221304603F0C3F816
:103600002B4603220121304603F0E4F84FF4204416
:1036100022460021384603F07FF82346002202218B
:10362000384603F0B0F8234603220021384603F061
:10363000D1F840F60444012223461146384603F0EF
:10364000A2F8234603220021384603F0C3F80422DF
:103650000121304603F060F808220121304603F0D2
:103660005BF8042301220221304603F08CF8042386
:1036700003220021304603F0ADF808230122022185
:10368000304603F080F83046BDE8F04108230322BD
:10369000002103F09FB80000000400482DE9F0432A
:1036A000002391B01A4619460BA802F07FF9018851
:1036B000ADF8001080788DF80200CD48009901F037
:1036C00049FDFF231A4619460BA802F06FF901883D
:1036D000ADF8001080788DF80200C548009902F01E
:1036E00031F8DFF80C83002508F13808C14C98F850
:1036F0000600012608B1257500E02675BC4801F0DA
:10370000C7FFBB4802F096FA002005F09BF8BA4BC1
:103710000DAA0CA9B64801F0C7FEA02790B9BDF9C3
:103720003410BDF9300001EBD1716E22A2EB6101C2
:1037300000EBD0700AB2A7EB600001B2AE4BAC4810
:1037400001F044FD012005F07DF84FF4FA69484688
:1037500002F0B6FE002005F075F8A54801F098FFCC
:10376000A348E838B0F80F10ADF80010407C8DF891
:1037700002009F48009901F0E5FFA0499C4801F034
:10378000CDFF8C20608300229DA1994801F049FC67
:1037900000EBD070A7EB600001B299A335229448EA
:1037A000009501F0A3FF00229AA1914801F039FC95
:1037B00000EBD070A7EB600001B296A353228C48B7
:1037C000009501F093FFFF231A4619460BA802F05B
:1037D000EDF80188ADF8001080788DF8020084487B
:1037E000009901F0AFFF00228DA1814801F019FC82
:1037F00000EBD070A7EB600001B289A389227C485E
:10380000009501F073FF8AA38BA28CA106A8FCF798
:103810003DFD002206A9764801F003FC00EBD070C4
:10382000A7EB600001B206ABB9227148009501F028
:103830005DFF012005F006F8484602F041FE002039
:1038400005F000F8E562A56498F80510012901D19A
:1038500088F80C1002F0D2FEA07010F17F0F4FF428
:10386000A0772ED07F2857D030287DDD002000F0B3
:1038700025FF0320A071E079002876D1E6715C482D
:1038800001F006FF6F495A4801F048FF00231A462D
:1038900019460FA802F08AF8FF2304461A46194673
:1038A0000EA802F083F82188ADF81410A1788DF8E5
:1038B00016100188ADF8101080788DF8120062A003
:1038C00057E0002000F0FAFEA671E07900285AD1F6
:1038D000E671474801F0DCFE5A49454801F01EFFF9
:1038E00000231A4619460FA802F060F8FF23044689
:1038F0001A4619460EA802F059F801462088ADF87C
:103900001400A0788DF816000888ADF810008878AB
:103910008DF812004DA02CE0002000F0CFFE022018
:10392000A071E07900282ED1E671314801F0B0FE97
:1039300044492F4801F0F2FE00231A4619460FA809
:1039400002F034F8FF2304461A4619460EA802F086
:103950002DF82188ADF81410A1788DF81610018883
:10396000ADF81010807801E010E00CE08DF8120046
:1039700037A0CDE9000500210295F0233A4608461C
:103980000395FEF7E1FF11B0BDE8F08310F11A0FC7
:103990004FF0000029DA00F091FE0420A071E079D8
:1039A0000028F0D1E671124801F072FE2549104856
:1039B00001F0B4FE00231A4619460FA801F0F6FFE5
:1039C000FF2304461A4619460EA801F0EFFF21888E
:1039D000ADF81410A1788DF816100188ADF810100C
:1039E00080788DF812001BA0C3E7FEF743FBCAE7FF
:1039F00080050020080000208A0201086AC301082F
:103A00006469676974616C20494E56455254455249
:103A100000000000746563686E6F6C6F677900006A
:103A2000454E4552475920534156494E47000000E4
:103A300031322E332E370000562E000025732573A9
:103A4000000000003E6F01084533000045310000D2
:103A50004532000045340000F0B5944C8DB094A17F
:103A60000AA8E268FCF712FC91A10BA82269FCF7F6
:103A70000DFC91A108A86269FCF708FC9049A4F12B
:103A80007C0001F04BFEA4F17C0001F09AFBC0F138
:103A9000780007B2002208A9A4F17C0001F0C1FA65
:103AA000884CC6B2E06A007E00287DD000231A460A
:103AB000194606A801F07AFFE06A007E002874D05B
:103AC000FF231A46194607A801F070FFBDF8180039
:103AD000ADF814009DF81A008DF81600BDF81C0012
:103AE000ADF810009DF81E008DF81200E06A002568
:103AF000007E00287CD0002008A90091CDE90105B6
:103B00003C2306F11402394619200395FEF71CFFE9
:103B1000664800220BA97C3801F083FAC6B2E06A3D
:103B2000007E012865D000231A46194607A801F037
:103B30003DFFE06A007E01287DD0FF231A4619462A
:103B400006A801F033FFBDF81C00ADF814009DF885
:103B50001E008DF81600BDF81800ADF810009DF895
:103B60001A008DF81200E06A007E012800D00020C3
:103B70000BA90091CDE9010506F114023C2316467C
:103B800039469B200395FEF7DFFE484800220AA92C
:103B90007C3801F046FAE06A007E022877D00023E4
:103BA0001A46194607A801E05EE061E001F0FEFE5A
:103BB000E06A007E02286FD0FF231A46194606A845
:103BC00001F0F4FEBDF81C00ADF814009DF81E00D5
:103BD0008DF81600BDF81800ADF810009DF81A0019
:103BE0008DF81200E06A007E022859D0002001E022
:103BF00042E043E00AA90091CDE901053C233246A9
:103C00003946EB200395FEF79FFEFF231A4619461F
:103C100006A801F0CBFE0188ADF8001080788DF881
:103C20000200224800997C3801F08CFD00231A46DE
:103C3000194606A800E026E001F0B8FE0188ADF8BC
:103C4000001080788DF80200184800997C3801F047
:103C500081FAE06A90F9180020B3012824D01AA054
:103C6000FEF794FD0DB0F0BDFF231A46194620E77C
:103C70003823A522132126E701203DE7FF231A461A
:103C8000194653E703E03823A522132158E7FF2301
:103C90001A46194686E7FFE73823A52213218EE747
:103CA0000120A4E70AA0DBE70CA0D9E7FC0500206F
:103CB000253032640000000025303464000000002C
:103CC0000B8B0108080000205365742064617900A3
:103CD000536574207965617200000000536574209B
:103CE0006D6F6E74680000002DE9F0438BB084495D
:103CF000844801F013FD834801F063FA814FC0F15D
:103D000078007C370FFA80F97FA107A8BA68FCF722
:103D1000BDFA002207A97B4801F083F97C4DC6B2A9
:103D2000E86A007E00287CD000231A46194606A8BF
:103D300001F03CFEE86A007E002873D0FF231A469B
:103D400019460AA801F032FEBDF81800ADF81400BB
:103D50009DF81A008DF81600BDF82800ADF8100087
:103D60009DF82A008DF81200E86A0024007E0028E1
:103D70007ED000210DF11C0840468DE8130057202D
:103D8000A0EB56003C23462249460394FEF7DCFD97
:103D90005DA107A87A68FCF779FA002207A95948BB
:103DA00001F03FF9C6B2E86A007E01287DD0002309
:103DB0001A4619460AA801F0F9FDE86A007E0128B2
:103DC00074D0FF231A46194606A801F0EFFDBDF88E
:103DD0002800ADF814009DF82A008DF81600BDF8F3
:103DE0001800ADF810009DF81A008DF81200E86A6E
:103DF000007E012871D00021CDF80080CDE90114AA
:103E0000CB20A0EB56003C23462249460394FEF704
:103E10009BFDFF231A46194606A801F0C7FD01883D
:103E200001E056E05AE0ADF8001080788DF802000D
:103E30003448009901F086FC00231A46194606A86A
:103E400001F0B4FD0188ADF8001080788DF8020013
:103E50002C48009901F07EF900231A4619460AA859
:103E600001F0A4FDFF2307461A46194606A800E004
:103E700038E001F09BFD0646002226A1214801F012
:103E8000D0F83988ADF81410B9788DF8161031884B
:103E9000ADF81010B1788DF812101EA1CDE9001404
:103EA000029400EBD070A02101E01DE020E0A1EB26
:103EB000600000B23723042249460394FEF744FD14
:103EC000E86A007ED0B114A0FEF760FC0BB0BDE83C
:103ED000F083FF231A46194629E70DE03823A5226F
:103EE00013212EE7012145E7FF231A46194661E712
:103EF0003823A522132167E701217DE709A0E3E725
:103F00000B8B010880050020253032640000000082
:103F1000080000203A000000536574206D696E753A
:103F20007465000053657420686F757200000000AE
:103F30002DE9F14F8AB04449444801F0EFFB434D6D
:103F4000DFF80CB14D35002707EB4700002600EBEA
:103F50000711412007EB470A00EB410806EB460139
:103F6000132000EB011906EB4A04224639A108A8E8
:103F7000FCF78CF9285D032801D9012028550A98FF
:103F8000844208D0DBF82C0090F91800A04202D03F
:103F90000A98401C49D1DBF82C0090F91800A04287
:103FA00006D13823A522132106A801F0FFFC0BE05F
:103FB000285D264900EB4000D93908440188ADF856
:103FC000181080788DF81A00285D032836D0002359
:103FD0001A46194607A801F0E9FCBDF81800ADF82B
:103FE00014009DF81A008DF81600BDF81C00ADF8FD
:103FF00010009DF81E008DF81200DBF82C0090F9DF
:104000001800A04202D0285D03281BD00021002008
:1040100008AACDE90020CDE902011F2329220FFAC9
:1040200088F10FFA89F0FEF78FFC761C062E95DBDF
:104030007F1C042F88DB0BB0BDE8F08FFF231A46EE
:104040001946C7E70221E2E76AC30108800500209C
:10405000080000202564000010B5084B65220C21E3
:10406000074801F0B3F8054BBDE810404633652220
:104070004FF48F71024801F0A9B80000EB0E01085F
:104080008005002070B5244C0246D3B2207EFF2864
:1040900000D12376607A814208D1207E904205DDEE
:1040A000A07A617B884201D0401CA0721B48E57A4F
:1040B0000179491B0025914217DB017B022914D0AD
:1040C000217E914211DDA572FF21217645730221E7
:1040D0000173012121744571FEF724FE00F57A7009
:1040E00060630020FDF7C6FF12E0207E90420BDAED
:1040F00002F06EFAE17A401A904205DBA07A617B09
:10410000884201D02376A572A07A617B884201D1D2
:10411000012070BD002070BD08000020B8050020FF
:104120001FB54FF4E16003F0F3FD154C204604F099
:1041300083FD684604F02BFE44F61F00ADF8000036
:104140000021ADF8041040F2E730ADF80210029003
:10415000ADF806106946204604F0AEFD0121204668
:1041600004F0FEFD0121204604F0F6FD204604F097
:104170009DFD00221146132003F098F91FBD000099
:104180000020004030B5224D89B0284604F054FD8F
:104190005320ADF8100000244FF4FA60ADF814403D
:1041A0000690ADF81240ADF816408DF81C4004A9F9
:1041B000284604F081FD01200090ADF80440ADF8E0
:1041C0000840ADF80640ADF80A40ADF80C406A462C
:1041D0000021284604F0DCFB00221146284604F0AA
:1041E000F4FC60220021284604F0C8FC002211469D
:1041F000284604F0F9FC0121284604F0BEFD2846BB
:1042000004F0C0FB284604F051FD09B030BD0000A9
:104210000048014030B54FF0804589B0284604F091
:104220000BFD5320ADF8100000244FF4FA70ADF8E8
:1042300014400690ADF81240ADF816408DF81C40C1
:1042400004A9284604F038FD01200090ADF8044090
:10425000ADF80840ADF80640ADF80A40ADF80C40A6
:104260006A460021284604F093FB002211462846A6
:1042700004F0ABFC60220021284604F07FFC0822F9
:104280000021284604F0B0FC0121284604F075FD09
:10429000284604F077FB284604F008FD09B030BD3D
:1042A0002DE9F0414B4F384602F061FB7D150122AC
:1042B0004FF090442B461146204602F064FA2B46FC
:1042C00003220021204602F085FAA5616E0001223A
:1042D00033461146204602F056FA334603220021A7
:1042E000204602F077FAA66100E000BF294620468A
:1042F00002F06BFA0128F8D100E000BF2946204601
:1043000002F063FA0128F8D1A56200E000BF294657
:10431000204602F05AFA0028F8D1A66200E000BF59
:104320003146204602F051FA0028F8D1A66100E09B
:1043300000BF3146204602F048FA0128F8D1A561B5
:1043400000E000BF2946204602F03FFA0128F8D1DC
:104350002A460421204602F0DFF932460421204695
:1043600002F0DAF92B4600220221204602F00BFA75
:104370002B4603220121204602F02CFA334600226C
:104380000221204602F0FFF9334603220121204694
:1043900002F020FA4FF40041384602F022FB00BF41
:1043A0000021384602F01DFB00BF384602F0E4FA57
:1043B0004FF480420849384602F058FA002281231F
:1043C0001146384602F002FB3846BDE8F04102F0E3
:1043D000D3BA000000540040801A06002DE9FC41C9
:1043E0008046FEF79FFC2E4C7825A0266063E16A8C
:1043F0004FF4FA6704F17C000B68A3F580729B3AD6
:1044000007D1CA69D2F81CC09CF818C0BCF1040FCF
:1044100003D0B3F5CE7F06D00AE0C2612048BC309D
:10442000E062C2610FE0CA69D3691B7E042B05D02C
:10443000C969C161B8F1020F2AD02BE0C2611948E5
:10444000E062616DC161002004F0FCF9164801F0E2
:104450001FF9164B01AA6946134801F025F8BDF96A
:104460000410BDF9000001EBD171A5EB610100EB77
:10447000D0700AB2A6EB600001B20C4B0A4800F003
:10448000A5FE012004F0DEF9384602F019F802E03A
:10449000C969C161E062FEF745FC2063BDE8FC81AB
:1044A00008000020A4020020800500202AAE000899
:1044B0000A4810B5C07900280FD0094CA522002168
:1044C000204604F082FB142001F0FAFF204600226F
:1044D000BDE81040114604F078BB10BDB8050020BF
:1044E00000480140194910B582204883C86A4269D2
:1044F00012B1BDE81040104782684AB183883BB1D1
:1045000090F9183002EB43120023D061CA6213768F
:10451000CA6A1368052B05D1D3690C4A4B65DC3296
:10452000CA62D361806810B1C86A806858B1FCF76C
:104530001BFC002004F086F9FDF756FFBDE8104093
:10454000012004F07FB9FEF74FFCF2E708000020DD
:10455000810705D1642190FBF1F201FB120141B901
:104560004FF4C87190FBF1F201FB120008B100207A
:10457000704701207047000030B5002385B01A460F
:10458000194601A801F012FA0188ADF800108078F0
:104590008DF802002448009900F0DCFDFF231A4644
:1045A000194601A801F002FA0188ADF800108078E0
:1045B0008DF802001C48009901F0C4F81A4801F077
:1045C00067F81A4D8C241A4B6C8303AA02A916486B
:1045D00000F06AFF98B9BDF90C10782201EBD17197
:1045E000BDF90800A2EB61010AB200EBD070A02176
:1045F000A1EB600001B20E4B0B4800F0E7FD4FF459
:10460000FA6001F05DFF08483830007828B16C830B
:104610000020FDF72FFD05B030BD034801F038F84C
:10462000014801F0F3F9F6E78005002008000020BA
:104630001B4F010810B50F4CE16A086910B1BDE8C5
:10464000104000478888002813D0002004F0FAF8B2
:10465000E06A017E491C49B201768288914201DB01
:1046600000210176FDF7C0FEBDE81040012004F0F6
:10467000E9B810BD0800002010B50F4CE06AC16811
:1046800011B1BDE8104008478088002813D00020F1
:1046900004F0D8F8E06A017E491E49B2017600298B
:1046A00002DA0179491E0176FDF79EFEBDE8104051
:1046B000012004F0C7B810BD080000202DE9F0412A
:1046C000040001D5002402E0142C00DD1424184D50
:1046D0001848E7B22F70417ADFF85C801648202630
:1046E00008F1280859B1202102F048F820B1C8F893
:1046F0000060642001F0E4FE6F70BDE8F0810A2CD8
:1047000009DD0D4818300660642001F0D9FEEC2068
:1047100000EB440009E0202102F030F820B1C8F895
:104720000060642001F0CCFE60006870E5E70000E6
:1047300008000020B80500200004004870B50B4DAB
:1047400001202870FEF7AAFF094C0020E071FEF757
:10475000E9FA6063FEF7E6FA2064A87A002804D13B
:10476000BDE870400A20FFF7A9BF70BDB805002062
:104770000800002010B5002004F064F80648A0F5F9
:104780002F71C86200210176FDF72EFEBDE81040B2
:10479000012004F057B80000C402002070B501F0F9
:1047A000EDFE342001F09EFE104D284601F0A8FEDB
:1047B000342001F097FE0E4C4FF0FF32402120468E
:1047C000FEF7A6FE21461126086405E0216828466A
:1047D00001F0E4FE241D2D1D761EF7D2342001F0D9
:1047E00081FEBDE8704001F083BE000000F80108C2
:1047F000B805002070B50F4E00250F4C86F82D50DF
:10480000F08DA0832846FFF759FF35700120A07472
:10481000A572FF2020762574E573002004F012F8BD
:10482000A6F1380001F0F2F8A6F13800BDE87040BA
:1048300000F02EBFB80500200800002010B588B099
:1048400000204FF48271CDE9001002904FF4007106
:1048500005900690CDE90310064C6946204604F009
:104860001EF80021204604F00BF8204604F012F850
:1048700008B010BD0038004070B5002211461C2061
:1048800002F014FE1C4C204604F0C2FA002120461F
:1048900004F023FB0021204604F066FB00212046A3
:1048A00004F02FFB0421204604F023FB08212046BE
:1048B00004F033FB4021204604F0C2FA4FF41651B5
:1048C000204604F06FFA204604F0C2FA40F2067562
:1048D0002946204604F0C1FA0028F9D005212046D7
:1048E00004F0C6FA0421204604F0C2FABDE8704084
:1048F000642001F0E5BD00000044004030B5002315
:1049000085B01A46194601A801F050F80188ADF8A3
:10491000001080788DF802002448009900F01AFCFD
:10492000FF231A46194601A801F040F80188ADF8A6
:10493000001080788DF802001C48009900F002FFFA
:104940001A4800F0A5FE1A4D8C241A4B6C8303AA5A
:1049500002A9164800F0A8FD98B9BDF90C107822FC
:1049600001EBD171BDF90800A2EB61010AB200EBC5
:10497000D070A021A1EB600001B20E4B0B4800F0FB
:1049800025FC4FF4FA6001F09BFD084838300078B0
:1049900028B16C830020FDF76DFB05B030BD0348E6
:1049A00000F076FE014801F031F8F6E780050020BE
:1049B000080000200A5301082DE9FF4F80460069D6
:1049C0009BB000287CD082781792022A01D0012A5D
:1049D00076D1D8F814200792002216926FF0630265
:1049E0000C92C0780D9002910020CFE21E98435C9B
:1049F000002009901890D8F810000524611C425C32
:104A0000015D02EB012111F0FF0129D0E21C855C60
:104A1000A21C9942825C05EB02220FFA82F97CD13A
:104A2000B9F1080F1CDB01211891211D04F1050BC0
:104A3000435C099310F80B10E71D01F07F0204920C
:104A4000A21D0025825C0A92C05D049A00F07F0AD4
:104A50009A1A1798A2EB0A06022802D0012871D0F0
:104A60006FE2C8096FD00A9A0D99A9F10800891A56
:104A70000026A1EB0A070E96119096E0D8F81000D8
:104A800001190E980830085C95FBF7F10FFA81FBCD
:104A900010F0C00F58D000F03F0A05EB0A010DB22C
:104AA000B14606EB0A010EB2000678D5289840B14F
:104AB000404698F8193098F8182098F8171007E031
:104AC00077E20798C0F30743C0F30722C1B240461C
:104AD00000F040FE1D990A98084410903844401E8A
:104AE00000B219900299049808440B9018E01099AC
:104AF000199B01EB090002B20B98584401B24046E1
:104B000000F0FCFDA7EB0901AAEB01000FFA80FA07
:104B10004FF000090BF1010000E046E20FFA80FBC4
:104B200009EB0A00B842E2DC1098484400EB0A01A5
:104B300002B20B98491E0BB2584401B2404600F035
:104B4000DDFD2CE0D5E036E0289949B1404698F8E3
:104B5000193098F8182098F8171000F0FBFD09E0BC
:104B60008006020E4046079900F026FA01464046AC
:104B700000F0E8FD1D990A980844304402B20499F7
:104B80000298014401EB0B0001B2404600F0F2FD37
:104B90006D1C761C2DB236B201E0F01B06B2BE428F
:104BA000FBDA0E98401C00B20E900E9911988142CB
:104BB000FFF664AFC5E10027A9F1080011900E9738
:104BC000384691E0D8F8100001190E980830085CBA
:104BD00095FBF6F10FFA81FB10F0C00F53D000F0F7
:104BE0003F0A05EB0A010DB2B94607EB0A010FB205
:104BF000000673D5289838B1404698F8193098F8CF
:104C0000182098F8171006E00798C0F30743C0F380
:104C10000722C1B2404600F09DFD04990298084465
:104C200010903044401E00B219900A991D98084413
:104C30000B9016E00B981099584402B201EB090052
:104C400001B24046199B00F041FDA6EB0901AAEB19
:104C500001000FFA80FA0BF101004FF000090FFA82
:104C600080FB09EB0A00B042E4DC1098484400EBFA
:104C70000A01491E0BB20B9959440AB201B24046CF
:104C800000F024FD2AE0289949B1404698F81930EF
:104C900098F8182098F8171000F05CFD09E08006DD
:104CA000020E4046079900F087F90146404600F0A1
:104CB00049FD1D990A98014401EB0B0002B20299CB
:104CC00004980844384401B2404600F053FD6D1C7E
:104CD0007F1C2DB23FB201E0B81B07B2B742FBDA2E
:104CE0000E98401C00B20E9011998842FFF66AAFF0
:104CF00027E1289840B1404698F8193098F81820D4
:104D000098F8171000F026FDD8F81000C15DC90909
:104D10007ED010F80B00C00962D00A9A0D99A9F153
:104D20000800891A00261190A1EB0A070E9630465A
:104D300052E000BFD8F8100001190E980830085C46
:104D400000F07F09C00939D095FBF7F00FFA80FB1E
:104D500002990498B246084410900A991D98084494
:104D60000B901BE0384403B20B981099504402B2E8
:104D700001EB0B0001B2404600F0C0FCA7EB0A00BB
:104D8000A9EB00010FFA81F92918304406B20BF1A2
:104D900001000DB24FF0000A0FFA80FB0AEB090088
:104DA000B8420B98DEDC504400EB090102B21098C7
:104DB0000BB2584401B2404600F0A0FC05EB0900DC
:104DC00005B206EB090000E0F01B06B2BE42FBDABA
:104DD0000E98401C00B20E9011998842AADBB0E0F8
:104DE0000027A9F108000E97109055E0D8F81000A0
:104DF000BA4601190E980830085C95FBF6F100F0F0
:104E00007F09C0090FFA81FB38D00299049800E0AD
:104E100047E008440B900A991D980844CDF84400D7
:104E20000AEB0900B0421CDD0B98304403B2119824
:104E3000584402B20B98504401B2404600F046FC80
:104E4000A6EB0A00A9EB00010FFA81F929183844F2
:104E500007B20BF101000DB24FF0000A0FFA80FB10
:104E6000DEE70B9901EB0A0000EB09010BB2119987
:104E700059440AB201B2404600F028FC05EB090093
:104E800005B207EB090000E0B81B07B2B742FBDA36
:104E90000E98401C00B20E900E9910988142A5DB2E
:104EA0004FE00027A9F108000597BB460F9045E0A9
:104EB000D8F8100001190BF10800085C0E9001E011
:104EC000B81B07B2B742FBDA0598B94690FBF6F07B
:104ED0000FFA80FA5FF0000509EB0500B04205D13A
:104EE0000AF10100C5F100090FFA80FAC5F10701C6
:104EF000012088400E9900B2014211D10A991D98F3
:104F0000014401EB0A00411C0BB202B20499029861
:104F1000014401EB0900284401B2404600F0EEFBD9
:104F20006D1CEDB2082DD7D30BF101000FFA80FBF9
:104F30000598083000B208373FB205900F998B45AD
:104F4000B6DB299880B1169940566FF0630188420C
:104F50000ADD0C90169A2998104490F901008842B5
:104F600002DD501C00B21690189860B102990998A1
:104F7000084400B202900C9810F1640F03DD02990E
:104F8000084400B202901598401C00B215901E987B
:104F9000FBF7B8FA159988423FF628AD07991FB07C
:104FA0004046BDE8F04F00F0CDBB04EB09010CB268
:104FB00024E51FB0BDE8F08F7FB5CCB2C2F1FF038E
:104FC00014FB03F4C57D15FB0245C1F3072414FB54
:104FD00003F4067E16FB0244C1F3074111FB03F103
:104FE000407E10FB0213C82295FBF2F094FBF2F115
:104FF00093FBF2F2FF2800DDFF20FF2900DDFF21F7
:10500000FF2A00DDFF22D3B2CAB2C1B203A800F06A
:10501000CDFC0188ADF80010827804B041EA02406E
:1050200070BD2DE9F74F0646006900284FD04FF0BC
:1050300000096FF0630B4D464C4642E001984FF07B
:10504000000A534610F804C0306905214A1C475C29
:10505000825C02EB072212F0FF0212D0CF1C10F884
:1050600007808F1C6245C75D08EB07273FB205D15B
:10507000082F06DB01230A1D10F802A0394409B2EB
:10508000E4E7029888B110F909006FF063018842E3
:105090000BDD029A834602EB090090F90100884279
:1050A00003DD09F101000FFA80F943B105EB0A00B5
:1050B00005B21BF1640F02DD05EB0B0005B2641CA9
:1050C00024B20198FBF71EFAA042B7D82846BDE8E3
:1050D000FE8F2DE9F0418046CD18A81E03B2174679
:1050E0000E464046069C00F0F1FA3C44A01E6D1EA0
:1050F00003B22DB23A462946404600F0FFFA641E3C
:10510000701C24B201B22B462246404600F0DEFA63
:105110007F1C23463AB231464046BDE8F04100F0DC
:10512000EDBA2DE9FC411E46054613460C461430E7
:10513000089F00F030FC0146D819A219401E521EEB
:1051400000B212B2CDE900202246284600F0EAF96A
:10515000BDE8FC8103B5BDF80410A0F817109DF858
:10516000061041760CBD10B5417300240473B0F9EC
:105170000630B0F90420012907D002290AD00329FA
:1051800003D002814381447310BD03814281012118
:10519000017310BD0281438110BD704713B50346F2
:1051A00001A800F0F8FB1968C2B28C68C0F30721AF
:1051B0001846A0471CBD0368CAB2C1F307219B680B
:1051C00018470069002800D0C07870472DE9FF4FCC
:1051D00095B01D00934607D028785A2807D06FF065
:1051E000010019B0BDE8F08F4FF0FF30F9E76878A3
:1051F0000104A87801EB0020E97808445FEA000A7E
:1052000002D56FF00200ECE728790104687901EB20
:105210000020A97940180B9001D540B2E1E7EE7962
:10522000FF2E02D36FF00400DBE7687A297A00EBE7
:10523000012000B25FEA000802D56FF00500D0E758
:10524000E87AA97A00EB012007B2002F02DA6FF0AA
:105250000600C6E7304600F07BFE00240390099468
:1052600001200694CDE90F041598407B20B14FEA48
:10527000880000F06DFE81468A494FF400600860A6
:105280001598407BC0B1CDF840B060210AF10C0008
:105290000C95CDE90D010CA800F017FEE8B10CA8A3
:1052A00000F0FBFD401EC0B20A900CA800F0F5FD16
:1052B000401E00F0FF0AC7E00BEB0700401E00B2E3
:1052C0001699009001EB0800401E03B215985A464B
:1052D000006807681598B847D7E708210CA800F0C0
:1052E00003FE07460F9810B10020119733E0119884
:1052F0004FF6FF7101EA002015993843497BB9B395
:10530000069A49F822000698401C0690404521D193
:10531000109802B2169800924044401E03B21598AD
:1053200000680568DDE91501A8471098401C109039
:105330001598407B012821D0B8F1010508D400BFA1
:1053400039F8250001B21598FFF735FF6D1EF7D526
:105350000020069001200F900998401C09900398A6
:105360000755641C24B2B44201DBA01B04B287E0E1
:10537000FFE701B21598FFF71EFFEBE7002506E0F7
:1053800039F8250001B21598FFF715FF6D1C45454A
:10539000F6DBDDE70A98201A00E0A81905B2002D17
:1053A000FBDB01E0A81B05B2B542FBDAA34603E034
:1053B000ABEB06000FFA80FBB345F9DA0998641CE1
:1053C000401C09900F9824B220B10398405D1190C1
:1053D000002034E011984FF6FF7101EA0021039894
:1053E000405D08431599497BA1B3069A49F822000C
:1053F0000698401C0690404520D1109802B216989D
:1054000000924044401E03B2159800680768DDE929
:105410001501B8471098401C10901598407B012842
:105420001ED0B8F1010707D439F8270001B215984A
:10543000FFF7C1FE7F1EF7D50020069001200F90D8
:105440000398425D00F80B20BAF1010000F0FF0A5A
:10545000A0D213E0FFE701B21598FFF7ACFEEDE72D
:10546000002706E039F8270001B21598FFF7A3FEE0
:105470007F1C4745F6DBDFE7A01B04B2B442FBDA32
:105480000B99099888427FF706AF06494FF40060F0
:1054900010390860039800F053FD484600F050FDB5
:1054A00000209EE62804004810B52BB118785A2831
:1054B00005D06FF0010010BD4FF0FF3010BD5878DF
:1054C0009C78000400EB0420DC78E04202D56FF009
:1054D000020010BD18795C79000400EB04209C796F
:1054E000001901D540B210BDD879FF2802D36FF062
:1054F000040010BD587A1C7A00EB042000B208802A
:10550000002802DA6FF0050010BDD87A997A00EB16
:10551000012000B21080002802DA6FF0060010BDF2
:10552000002010BD2DE9FC479046DDE90A540646EF
:105530001F4689461046454501DAA8460546BC4245
:1055400001DA27461C46B6F9081041456FDDB6F969
:105550000A00B8426BDDB8F1000F03DA002D66DBFC
:105560004FF00008002F02DA002C60DB0027B27B2E
:10557000002AB6F92C200DD0F2B3337BEBB3954261
:1055800003DB90457CDA521E15B2A04244DC401E7B
:1055900004B241E082B3A94201DC491E0DB2A0422F
:1055A00001DC401E04B2707B40B3012803D0022806
:1055B0003ED0032864D102EB080001B2501903B2B7
:1055C000B6F9060091FBF0F200FB121293FBF0F12A
:1055D00000FB1135AA4255DD401E00B2CDE90004A2
:1055E00030683B464946D0F804C03046E047CDE934
:1055F000005430683B4602E014E003E018E000226B
:1056000044683AE0944203DB974239DA521E14B2FE
:10561000A94201DC491E0DB2CDE9005430683B4679
:10562000446829E0A942B0DC491E0DB2ADE727E08D
:10563000D01903B2101901B2B6F9060093FBF0F2CB
:1056400000FB123391FBF0F200FB1214A3420FDDBA
:10565000401E00B2CDE900503068424649464768D6
:105660003046B847CDE9005430680023446803E071
:10567000CDE9005430684468424649463046A04768
:10568000BDE8FC87CDE9005430683B464468F4E748
:1056900038B504464569B0F81700ADF80000607EE3
:1056A0008DF802002046009900F04CF8B4F90A0089
:1056B00000900022B4F9083011462046FFF731FD72
:1056C00029462046BDE8384000F03CB87CB51E466F
:1056D000044613460D46143000F05DF9CDE9006331
:1056E00001462A462046FFF71DFF7CBD7CB50024FD
:1056F000069DCDE90045FFF75FF97CBD7CB5054609
:1057000016460C46143000F046F9CDE90043014638
:10571000334622462846FFF705FF7CBD30B50C789E
:1057200000234A785D1E5A2C06D1462A04D18A7875
:10573000022A04D0012A02D00361284630BD01614B
:10574000002030BD03B5BDF8041081829DF806101D
:1057500081750CBD1CB5044601A800F027F901882D
:10576000ADF8001080788DF8020020460099FFF710
:10577000E9FF1CBDF8B50446002944DB002A42DBE2
:10578000B4F9080088423EDDB4F90A0090423ADDDF
:10579000A07B98B1B4F92C0020B3237B002B94F8A4
:1057A000303005D00BB981422DD081422BDC19E07D
:1057B0000BB9824227D0824225DC13E0207BA38DE7
:1057C0000028B4F90600034406D0194400E0091A81
:1057D00009B28842FBDB05E01A4400E0121A12B25B
:1057E0009042FBDB08484FF400650560009220689A
:1057F0000B4606682046B04720466169FFF7CEFC9D
:10580000014810380560F8BD28040048704770470B
:1058100038B504461D482060914201D2084600E098
:105820001046A08001D9084600E01046E0802181A2
:10583000628102D94FF0010001E04FF00000607377
:105840004FF000014FF00100A073A18584F82A00F9
:1058500084F82B009FED0E0B0B4684ED080B84F8AB
:1058600028100A46684604F10C0400F09FF80188ED
:105870008078A4F80B106073FF230C3C1A4619467D
:105880002046FFF767FF204638BD00006CE30108A3
:10589000000000000000F03F017B39B1817DCA07A4
:1058A00004D021F00101817501207047002070476C
:1058B000017B39B1817D8A0704D521F00201817510
:1058C000012070470020704770B50446007803F04F
:1058D00057FB00B10120E073A17B884207D0002074
:1058E0006073FDF71FFA6060FDF71CFAA060FDF71A
:1058F00019FA61680125401A618A88420AD9E07B59
:10590000217B884206D0207320B1A561A07D40F0A4
:105910000100A075A08A78B1607B68B9207B58B17E
:10592000FDF700FA6168401AA18A884204D96573BC
:10593000A07D40F00200A075207CD0B1607BC0B19A
:10594000A0694FF4FA750E2800D96425042800D9FF
:10595000FA25FDF7E7F96168401AA84209D9FDF771
:10596000E1F96060A07D40F00100A075A069401CD5
:10597000A061E07BA07370BD10B501700021416093
:105980008173C1736424448282828175017341737F
:105990000374816110BD01784278C908C902920878
:1059A000807841EA421141EAD000704701704270AC
:1059B00083707047034A4FF480601060024802F021
:1059C00085BF00002804004800380040034A4FF417
:1059D00080601060024802F079BF0000180400489F
:1059E0000038004070B51546064A4FF480601060DC
:1059F000054C204602F06AFF29462046BDE870406B
:105A000002F064BF180400480038004010B5282197
:105A1000FFF7D0FF4FF090410120886210BDFFF7E3
:105A2000E1BF00002DE9F041814C4FF40065804654
:105A3000256004262660012000F042FD7C4F1037CF
:105A40003E60322000F03CFD2660782000F038FDFA
:105A50003D6011214046FFF7ADFF3A214046FFF778
:105A6000A9FF05214046FFF7B1FFB2214046FFF7ED
:105A7000A1FF0C214046FFF7A9FF0C214046FFF78C
:105A8000A5FF00214046FFF7A1FF33214046FFF765
:105A90009DFF33214046FFF799FFB7214046FFF7AE
:105AA00089FF35214046FFF791FFBB214046FFF7B4
:105AB00081FF28214046FFF789FFC0214046FFF7BC
:105AC00079FF2C214046FFF781FFC2214046FFF7B6
:105AD00071FF01214046FFF779FFC3214046FFF7E0
