:020000040800F2
:10000000B82100204D020008853700084536000859
:100010001537000861150008253D000800000000A4
:10002000000000000000000000000000E1390008AE
:100030002D17000800000000C9370008E339000848
:1000400067020008670200082939000867020008F3
:1000500067020008670200086702000867020008DC
:1000600067020008670200086702000867020008CC
:1000700067020008670200086702000867020008BC
:10008000670200086702000800000000493B000802
:10009000670200086702000867020008670200089C
:1000A000670200086702000867020008670200088C
:1000B000C53C0008000000006702000800000000C6
:1000C000670200080000000067020008000000004E
:1000D0000000000000000000000000000000000020
:1000E000000000000000000067020008000000009F
:1000F0000000000000000000000000000000000000
:10010000670200080000000000000000000000007E
:1001100000000000000000000000000000000000DF
:1001200000000000000000000000000000000000CF
:1001300000000000000000000000000000000000BF
:10014000000000000000000000000000670200083E
:1001500000F002F800F06AF80AA090E8000C82446F
:100160008344AAF10107DA4501D100F05FF8AFF24C
:10017000090EBAE80F0013F0010F18BFFB1A43F085
:10018000010318470CF401002CF401000A444FF05D
:10019000000C10F8013B13F0070408BF10F8014BE6
:1001A0001D1108BF10F8015B641E05D010F8016B2B
:1001B000641E01F8016BF9D113F0080F1EBF10F88F
:1001C000014BAD1C0C1B09D16D1E58BF01F801CBB2
:1001D000FAD505E014F8016B01F8016B6D1EF9D535
:1001E0009142D6D37047000000230024002500264A
:1001F000103A28BF78C1FBD8520728BF30C148BF8A
:100200000B607047642900F0A580732900F08D838E
:10021000002070471FB50BF012FC9DE8030000F0B2
:100220001DFD00F0DDFA1FBD10B510BD00F0D0FCC3
:100230001146FFF7EFFF08F0CFFC00F045FD03B4D7
:10024000FFF7F2FF03BC00F071FD00000948804792
:1002500009480047FEE7FEE7FEE7FEE7FEE7FEE7A8
:10026000FEE7FEE7FEE7FEE704480549054A064BC0
:1002700070470000F139000851010008B80700205C
:10028000B8210020B81D0020B81D00200FB41CB5F7
:10029000074B06AA7B4469460090059800F01BFBBB
:1002A0000020694600F02AFB1CBC5DF814FB00002E
:1002B0006506000070B5044685690068C10601D571
:1002C000302600E02026C00707D070BDD4E9012108
:1002D00030469047206A401C20626D1EF6D570BDE6
:1002E00070B5044685690078C00707D170BDD4E9B0
:1002F000012120209047206A401C20626D1EF6D507
:1003000070BD70B50C460546012A05D028788006D8
:1003100000D5EA69002302E0012305E05B1C93425B
:1003200002D2E05C0028F9D1A869E618C01AA861D9
:10033000286A184428622846FFF7BCFF04E0D5E984
:10034000012114F8010B9047B442F8D32846FFF777
:10035000C7FF70BD2DE9F0410646002410687529DD
:10036000314616A510D0AFF30080002802DA4042D3
:1003700013A507E031688A0701D512A502E04907F5
:1003800004D511A5012401E0AFF3008000210A2269
:1003900006F1240709E0B0FBF2FCB0FBF2F302FB2C
:1003A0001C00303078541846491C0028F3D12346ED
:1003B0002A463046BDE8F04100F02FBA00000000A8
:1003C0002D0000002B000000200000002DE9F05F50
:1003D000894604464FF0000ADFF824B1FB44C0F818
:1003E00020A02046E168884700287DD0252806D037
:1003F000D4E901219047206A401C2062F1E70025E2
:100400005F462046E16888472028064607DB312EF4
:1004100005D2B81910F8200C08B10543F1E7A80778
:1004200001D525F00405C4F81CA00027C4F818A0C5
:100430002A2E09D0304607F003FA38B304EB8708B8
:10044000303EC8F8186019E059F8041B204604EB48
:1004500087029161E1688847012F064618D1E0695B
:10046000002820DA25F020051DE0D8F8180000EB60
:10047000800006EB40003038C8F818002046E168DC
:100480008847064607F0DCF90028EED1012F0AD094
:100490002E2E08D12046E16888477F1C0646022F91
:1004A00045F02005C4DBA069002803DA404245F08E
:1004B0000105A061E80701D025F01005A6B1A6F15D
:1004C0004100192802D8203645F400654A463146D5
:1004D000204625604D46FFF795FE60B1012807D004
:1004E000ED1D25F0070000E007E000F1080978E7BE
:1004F00005F1040975E730467AE7206ABDE8F09F08
:10050000A0F0010010B5431C02E010F8011B71B10E
:100510008107FAD14FF0013202C88C1A8C4314EAD9
:10052000C211F9D0C01A0A0603D0C01E10BDC01AED
:1005300010BD0A0401D0801E10BD0902FCD0401E6F
:1005400010BD032A40F2308010F0030C00F015803B
:1005500011F8013BBCF1020F624498BF11F801CBC6
:1005600000F8013B38BF11F8013BA2F1040298BF2B
:1005700000F801CB38BF00F8013B11F0030300F095
:10058000D881083AC0F0088051F8043B083A51F885
:1005900004CBA0E80810F5E7121D5CBF51F8043B3E
:1005A00040F8043BAFF30080D20724BF11F8013BB1
:1005B00011F801CB48BF11F8012B24BF00F8013B13
:1005C00000F801CB48BF00F8012B704702F0FF0391
:1005D00043EA032242EA024200F002B84FF000026E
:1005E0000429C0F0128010F0030C00F0D681CCF189
:1005F000040CBCF1020F18BF00F8012BA8BF20F8B3
:10060000022BA1EB0C0100F0C8B95FEAC17C24BF4A
:1006100000F8012B00F8012B48BF00F8012B7047B0
:10062000014900F0DFB900002C07002010B5036875
:100630001C1404EB21449BB289B2194494FBF2F3DD
:1006400002FB134394FBF2F401EB034393FBF2F13F
:1006500002FB113193FBF2F301E05B1E1144002910
:10066000FBDB016003EB044010BDF0B504464FF026
:10067000FF3585B00068049060680290A068039020
:10068000E068019020690090666906F18040B0F151
:10069000004F7CD83C22002104A8FFF7C7FF3C2272
:1006A000014602A8FFF7C2FF1822014603A8FFF780
:1006B000BDFF411E40F2B55201A8FFF7B7FF0C2263
:1006C000074668460021FFF7B1FF414B00EB87006A
:1006D000304400267B4411E0511A01910099491CD5
:1006E0000229009102D00C2908D105E0810705D02C
:1006F0000199491C019101E0401C00960099019A62
:10070000595C9142E8DD0099012906D11C2A04D1E7
:10071000810702D00221CDE90016A0F146018B2904
:100720003CD2DDE90061002202E09F5C521C3944AA
:10073000B242FADB012E02DD820700D0491E40F2F0
:10074000B55340F26D16C21700EB927292105A43E5
:1007500000F0030303FB062283070A4400D1521E64
:10076000039E02EB4203049F06EBC303029EC3EB0E
:10077000031306EB8303174E33441E149BB2C6EBE0
:100780000616C3EB0313B60007EB830300E005E096
:1007900006EB134666F31F43360C02D0284605B01D
:1007A000F0BD80C4029E40C4039E40C4019E761CDE
:1007B00044F80C6B009E44E902600720521C92FB37
:1007C000F0F600FB162084E823001846E7E7000057
:1007D000FCED0100A039CEFD704770477047000066
:1007E00070B5064C7C44064D7D4403E020682044EF
:1007F0008047241DAC42F9D170BD0000C8ED010056
:10080000CCED010010B500F04DF9006810BD10B539
:10081000044600F047F9046010BD2DE9F0470D468D
:1008200099469246044600F124080168880604D5DA
:10083000E06921F01001216000E00120A84201DD03
:10084000471B00E00027A1697A1902EB0900081A8A
:10085000A0612078C00602D42046FFF72BFD0026B9
:1008600008E0D4E901211AF806009047206A401CEC
:10087000761C20624E45F4DB2078C0060AD520465F
:10088000FFF718FD06E0D4E9012130209047206AE7
:10089000401C2062381EA7F10107F4DC07E0D4E910
:1008A000012118F805009047206A401C2062281E8C
:1008B000A5F10105F3DC2046FFF712FD20780006C4
:1008C00002D50220BDE8F0870120FBE701694A1C40
:1008D00002610878704700B58FB0CDE90131002181
:1008E000059105497944CDE9031011466846FFF7A3
:1008F0006DFD0FB000BD0000E5FFFFFF0A6802F8C4
:10090000010B0A60704710B5436913B1AFF3008063
:1009100001E0FFF7F6FC012010BD127800F1240180
:100920000A7000224A700122EDE711684FF0FF3291
:10093000E9E710B5203AC0F00B80B1E81850203A32
:10094000A0E81850B1E81850A0E81850BFF4F5AF6F
:100950005FEA027C24BFB1E81850A0E8185044BFF9
:1009600018C918C0BDE810405FEA827C24BF51F866
:10097000043B40F8043B08BF7047D20728BF31F85A
:10098000023B48BF11F8012B28BF20F8023B48BFAB
:1009900000F8012B70474FF0000200B51346944653
:1009A0009646203922BFA0E80C50A0E80C50B1F1C7
:1009B0002001BFF4F7AF090728BFA0E80C5048BFDB
:1009C0000CC05DF804EB890028BF40F8042B08BF79
:1009D000704748BF20F8022B11F0804F18BF00F875
:1009E000012B704770B50C46016800204A1C3ED0B0
:1009F0003C22B1FBF2F302FB1313B1FBF2F12360D3
:100A0000B1FBF2F302FB1313B1FBF2F118226360A6
:100A1000B1FBF2F302FB1313B1FBF2F146F2E03249
:100A20000A440721A360B2FBF1F301FB132140F25A
:100A3000B553B2FBF3F5A161B2FBF3F103FB152251
:100A40008900B2F5B77F08D39B10521EB2FBF3F5B5
:100A50002944B2FBF3F503FB15220F4BE261616100
:100A600089077B440CD03B2A0AD3521C08E02C2176
:100A70002046FFF790FF0120E0600AE0521A401C78
:100A8000195C9142FAD9521CC4E903204FF0FF309F
:100A90002062204670BD00006EEA010000487047E9
:100AA0008C070020004870475807002070B50646A4
:100AB00000F0B4F8056806F10B0020F00704B4421A
:100AC0009CBF002070BD2B466A68BAB11068A04276
:100AD00010D304F1080188423CBF5068586007D326
:100AE0005168101941601168091B01605860146059
:100AF000101D70BD13465268002AE7D121462846D2
:100B000000F098F80028DED170BD70B50446051FCE
:100B100000F084F80068002C14BF446870BD002CFD
:100B200018BFAC423CBF20466468F8D301680A187D
:100B3000AA4218BF456003D12A68054611440160E6
:100B400028684119A1421CBF6C6070BD6168696072
:100B500021680844286070BDAFF3008010B500F034
:100B60000EF8016919B100220261884701E080682E
:100B7000804700F0B2F8000010B500F0AEF870B594
:100B800000F050F804680546A4B92020FFF78EFF56
:100B9000040011D0094900202C60C4E90001084973
:100BA000A1602073206160610649A06109B100F075
:100BB0009FF8E061204670BD00F08FF80000000053
:100BC000790B00080000000000487047580700201B
:100BD0007546FFF7F9FFAE4605006946534620F01B
:100BE0000700854618B020B5FFF73EFBBDE8204062
:100BF0004FF000064FF000074FF000084FF0000BD9
:100C000021F00701AC46ACE8C009ACE8C009ACE88B
:100C1000C009ACE8C0098D46704700000048704725
:100C20006007002000487047940700207047704715
:100C30007047704738B504460A4600206946AFF34E
:100C40000080002808BF38BD02460099204600F009
:100C500073F8012038BD012000F08FB8F8B5AFF36C
:100C60000080054600200C46102000BF0646A8194B
:100C7000A0420DD9324669460020AFF3008007003C
:100C800008BF00F07AF80098A04218BF0546C419C2
:100C9000FFF7C4FF05600746F01D20F00700461966
:100CA000284600F00AF8B44208BFF8BDA21B31463E
:100CB0003868BDE8F84000F03FB800210160C0E9A5
:100CC000011070471020704710B50446AFF3008044
:100CD0002046BDE81040FFF7B2BA10B5002000F082
:100CE00045F8FFF7A1FABDE81040012000F01EB85A
:100CF00010B58820FFF7DAFE002801D0002101702E
:100D000010BD802902D808B1017809B100207047D0
:100D1000012100F8081B704718B100F10802914248
:100D200001D0002070470021017070470149182050
:100D3000ABBEFEE726000200034640688C46002852
:100D400018BF88423CBF03464068F8D3186818446F
:100D5000884207D00CF1030020F00700001D411A63
:100D6000521A0146081D0A60FFF7CFBE10B500F009
:100D700011F8BDE8104000F008B810B500F022F8F6
:100D8000BDE8104000F001B87047002801D0FFF71F
:100D9000CDBF704710B5002102A000F03BF8012044
:100DA00010BD0000534947414252543A2041626EFF
:100DB0006F726D616C207465726D696E6174696FBC
:100DC0006E00000010B5012805D0002103A000F03E
:100DD00021F8012010BD09A1F8E70000534947524E
:100DE000544D454D3A204F7574206F6620686561FB
:100DF00070206D656D6F7279000000003A204865C3
:100E00006170206D656D6F727920636F727275709D
:100E10007465640070B505460C460A2000E06D1C40
:100E200000F011F835B128780028F8D102E0641CF0
:100E300000F009F814B120780028F8D1BDE870401E
:100E40000A20AFF3008008B569468DF80000032042
:100E5000ABBE08BD2DE9FE4FFE4DFF4F05F11C0E48
:100E6000A86A9EF80120002601684FF001094FF0A2
:100E70000C0A4FF0540B05F11E0307F10E0C07F19D
:100E80004404352976D030DC1F2974D01BDCF14AAC
:100E90000D2902F1500292786ED006DC0B297DD02C
:100EA0000C296BD1FA70012009E015297AD0162996
:100EB00064D187F80A90007E401CF8720220BDE8D9
:100EC000FE4F03F00FBF20297FD02B296FD033298D
:100ED0006ED0342952D17A71002A6AD0BE7287F856
:100EE0002D606E7102F0B0FBDDE7B1F5FF7F7DD0C4
:100EF00046DCD84B40F2A51803F11C03A1F2A51C57
:100F000093F90130414572D013DCD34FA1F58071C4
:100F100007F170079B396BD001292FD1017E491C45
:100F20000176384609F0A4F9A86A007E01287DD030
:100F3000BDE2BCF1010F7AD0BCF1140F1ED1714695
:100F4000002B75D0027E521C52B20276012A70D05C
:100F5000022A13D102F0F8FC04F08EF9BFF34F8F90
:100F6000BE480168BE4A01F4E06111430160BFF36D
:100F70004F8FFEE7B0E21DE012E00FE084E011E0E9
:100F8000A1F58071FF397DD013297CD0B1F5756F43
:100F900089D0A1F57061513976D184E7BA7082E7C2
:100FA0003A7180E7BE721420687287E70DE0D0E0E6
:100FB000A2E28FE287F82D20002A95D006F0D6FE17
:100FC000032800D13E737E718BE7017E491C49B234
:100FD000017601297ED12189A088C1EB011100EBA6
:100FE0008100F88568839C48383802E08DE29AE2F7
:100FF000B1E005F068FCFF231A46194602A805F087
:101000008DFF0188ADF8001080788DF802009248BD
:101010000099383805F046FE8F48CDE900BA5C23C8
:101020004E227221383804F0B3FE03E0AAE185E2D3
:1010300086E289E288488B49383805F08AFC00232B
:101040001A46194602A805F069FF0188ADF800109C
:1010500080788DF8020080480099383805F022FE2B
:10106000FF231A46194602A805F058FF0188ADF87B
:10107000001080788DF8020077480099383804F025
:101080004BFE02E049E22FE2D1E07348002276A154
:10109000383804F0D0FD80466F48383804F073FECD
:1010A00000EBD0727821A1EB62010AB208EBD87193
:1010B0009E20A0EB610001B267486BA33838009610
:1010C00005F02FFCFF231A46194602A805F026FF5B
:1010D000018800E02AE0ADF8001080788DF8020069
:1010E0005D480099383805F0DDFD00231A461946A1
:1010F00002A805F013FF0188ADF8001080788DF884
:10110000020055480099383804F006FE4FF47A7012
:1011100006F0D8FC5048383805F0D5FB02F08CFAC0
:10112000286302F089FAE86202F08EFAA86A007E6B
:1011300002287CD12189A088C1EB011100EB81003C
:10114000F8856883012003F0CDFDBDE8FE4F02F075
:101150007BBAFA71A7E6017E491C01763E487030E1
:1011600009F086F8A86A90F91800401E02287DD27E
:1011700004F10C0007C807F036F868B32069401E78
:1011800020616069A0F26C70606133484430FFF701
:101190006CFA00906846FFF743FA806900B90720AF
:1011A000F870207D6438C0B206F080FC3870207C76
:1011B000401CC0B206F07AFC7870207B06F076FC0A
:1011C000B8702548703009F0C9F82069401C2061CA
:1011D000606900F26C7060611F48383805F073FB7D
:1011E000FF231A46194602A805F098FE0188ADF8BB
:1011F000001080788DF8020017480099383805F003
:1012000051FD1548CDE900BA5C234E2272213838D1
:1012100004F0BEFD10481349383805F09AFB00234E
:101220001A46194602A805F079FE018800E0A4E0FC
:10123000ADF8001080788DF8020007480099383822
:1012400005F030FDFF231A46194602A805F066FE98
:1012500001880CE008000020D00500200CED00E023
:101260000400FA05969F01084F4B000051E0ADF8CD
:10127000001080788DF80200B648009904F04CFD0B
:101280000022AFF21C01B34804F0D5FC8046B148FF
:1012900004F079FD00EBD0727821A1EB62010AB273
:1012A00008EBD8719E20A0EB610001B2AFF24803B9
:1012B000A848009605F035FBFF231A46194602A8F8
:1012C00005F02CFE0188ADF8001080788DF8020042
:1012D000A048009905F0E6FC00231A46194602A82A
:1012E00005F01CFE0188ADF8001080788DF8020032
:1012F0009848009904F010FD4FF47A7006F0E2FB74
:10130000944805F0E0FA02F097F9286302F094F9A6
:10131000E862A86A007E03282FD104F10C0007C8F8
:1013200006F061FF58B32069401E20616069A0F299
:101330006C70606187487C30FFF797F900906846D1
:10134000FFF76EF9806900B90720F870207D6438D6
:10135000C0B206F0ABFB3870207C401CC0B206F077
:10136000A5FB7870207B06F0A1FBB8707948A83007
:1013700008F0F4FF012003F0B5FCBDE8FE8FA86A79
:101380000676FAE7207A06F091FB3871207906F0AC
:101390008DFB78716F48BE71A83008F0DFFF6D4893
:1013A00005F091FAFF231A46194602A805F0B6FD8A
:1013B0000188ADF8001080788DF80200654800992A
:1013C00005F070FCCDE900BA5C234E227221614821
:1013D00004F0DEFC60495F4805F0BBFA00231A46C2
:1013E000194602A805F09AFD0188ADF80010807832
:1013F0008DF802005748009905F054FCFF231A4667
:10140000194602A805F08AFD0188ADF80010807821
:101410008DF802004F48009904F07EFC0022AFF2E4
:10142000B8114C4804F007FC80464A4804F0ABFC75
:1014300000EBD0727821A1EB62010AB208EBD871FF
:101440009E20A0EB610001B2AFF2E4134148009688
:1014500005F067FAFF231A46194602A805F05EFD5B
:101460000188ADF8001080788DF8020039480099A5
:1014700005F018FC00231A46194602A805F04EFD97
:101480000188ADF8001080788DF80200314800998D
:1014900004F042FC4FF47A7006F014FB2D4805F07E
:1014A00012FA02F0C9F8286302F0C6F8E862A86AE6
:1014B000007E02287FF465AF207A06F0F7FA3871D3
:1014C000207906F0F3FA78712248BE71A83008F04E
:1014D00045FFE8E43E73E6E42049027EC861B8189F
:1014E000A962407D087648E7017EC06990F918201E
:1014F00018484D301154D6E490F91810197011F8AD
:101500000C1059701549403903E0017E5970134998
:101510002039C861A9620E762FE793F90010587838
:1015200001F80C00BFE423B10020B87118B12E758A
:10153000B9E40120F9E785F81490B4E43A72B2E412
:10154000BDE8FE4F02F0E8B881F801908EF80090F7
:1015500013E7000098050020969F01089C010020D9
:10156000FEE7000070B5FF2388B015460E4604461E
:101570001A46194607A805F0D1FC0188ADF80010FD
:1015800080788DF802001C48009905F08BFB2246FC
:101590001AA101A8FEF77AFE1949174805F0D9F9F2
:1015A000002201A9144804F046FB044600EBD47065
:1015B000A521A1EB600006440020009001AB05F1DD
:1015C0003C0231B20C4805F085FB0E490A4805F093
:1015D000C0F90DA00DA30068069006A80090301970
:1015E00001B20C4605F13F02034805F073FB0848C1
:1015F000448408B070BD00009805002025640000F8
:10160000BB840108CC9D0108F99C0000B043000098
:10161000080000200848816A8A88002A0AD091F9C7
:101620001800431C5BB20B76934201DB00220A7662
:1016300003F020B970470000080000200848816AC4
:101640008A88002A0AD091F91800431E5BB20B76F3
:10165000002B01DA521E0A7603F00CB97047000025
:1016600008000020184810B5806A184C90F918003E
:10167000022803D0012811D0B8B120E0E068401E54
:10168000E0601CD11F2001E0E068401EE060D4E96A
:10169000041206F0A8FD0028F6D010E02069401ED4
:1016A00020610CD10C20206109E0606940F2E371F7
:1016B000401E6061884202DA40F633006061BDE896
:1016C000104000F035B8000008000020140600208B
:1016D00070B51448144C0125806AD4E9041290F9BD
:1016E0001800022803D0012809D070B116E0E06884
:1016F000401CE06006F077FD80B9E5600EE0491C13
:1017000021610D290AD1256108E0521CA2F5006073
:101710006261343802D140F2E3706061BDE870402C
:1017200000F006B8080000201406002070470000F2
:101730002DE9F04FFE4FADB0B86A00680B2806D017
:101740000C2804D00D2802D0FA4805F0BCF8B86A7D
:10175000F74C40F29B1200681C3401250026A0F2D1
:101760009B114FF0A0094FF0020A04F1380B904290
:101770007ED01EDC20287CD012DCDFF8B4836FF032
:10178000180A08F150080D2874D004DC0B28FBD08F
:101790000C282ED1BBE016286DD01F2829D16DE171
:1017A0002B28FCD0332867D0342866D0352820D1A8
:1017B000E6E3DFF87C83632908F11E087DD00CDCAA
:1017C0000B29ECD004DC0129D5D00A2911D1DCE1A8
:1017D0001E2973D01F290CD109E364296FD0782406
:1017E00077296DD0B1F5137F05D0A1F57061B439BB
:1017F00067D0D1A0C5E3FF231A4619461AA805F001
:101800008DFB0188ADF8001080788DF80200C94882
:10181000009905F047FA0C215420CDE900015C2322
:101820004E227221C34804F0B3FAC749C14805F0FB
:1018300090F800231A4619461AA805F06FFB018894
:10184000ADF8001080788DF80200BA48009905F0D4
:1018500029FAFF231A4619461AA805F05FFB0188EA
:10186000ADF8001080788DF80200B248009905E0CC
:10187000E1E1E3E151E059E043E3A6E004F04CFA92
:101880000022B2A1AB4804F0D6F9ADF82800A9486F
:1018900004F079FAADF81C0000EBD070BDF9281007
:1018A000A4EB600002B201EBD1709E21A1EB6000BD
:1018B00001B2A6A39F48009604E0F4E3C1E1F3E37C
:1018C000F3E3F0E205F02DF8FF231A4619461AA8B3
:1018D00005F024FB0188ADF8001080788DF8020037
:1018E0009448009905F0DEF900231A4619461AA813
:1018F00005F014FB0188ADF8001080788DF8020027
:101900008C48009904F008FA2DB0BDE8F08F03F080
:1019100027F88FA001F0FCFB01E003F021F898F913
:1019200002000F22514601F021FCEDE78CA001F0EE
:1019300091FBB86A90F91800411C01EB4101890044
:1019400000EB800001EB8000ADF82800002423E0CC
:10195000784804EB4405E83828440188ADF80010C5
:1019600080788DF802007348009905F09BF9BDF965
:1019700028005A21009100EBD071A9EB610000EB27
:10198000850004EB840100EB810001B20C234B22A3
:10199000684804F0A8F9641CB86A90F91800401C63
:1019A000A042D5DCFF231A4619461BA805F0B6FA5B
:1019B0000188ADF8001080788DF802005D4800992C
:1019C00005F070F902F0CCFF9EE7002167A001F05E
:1019D0006FFB5D49574804F0BCFF00231A461946C7
:1019E0001DA805F09BFAFF2307461A4619461CA8B6
:1019F00005F094FA014606953888ADF81400B878D9
:101A00008DF816000888ADF8100088788DF812005F
:101A1000607800B1012058A10091CDE9010664234E
:101A20001A4619461420039601F0F8FB00231A46C3
:101A300019461CA805F072FAFF2307461A461946F4
:101A40001DA805F06BFA06953988ADF81410B97821
:101A50008DF816100188ADF8101080788DF81200FE
:101A6000607848B1002045A10091CDE901066423CA
:101A70001A461946039658E00120F4E732492D48EA
:101A800004F067FF00231A4619461FA805F046FA1E
:101A9000FF2307461A4619461EA805F03FFA069589
:101AA0003988ADF81410B9788DF816100188ADF8A2
:101AB000101080788DF81200207800B10120617834
:101AC00001B101212CA2CDE90021CDE90206642358
:101AD0001A464621142001F0A1FB00231A4619469C
:101AE0001EA805F01BFAFF2307461A4619461FA831
:101AF00005F014FA06953988ADF81410B9788DF808
:101B000016100188ADF8101080788DF8120020783A
:101B100068B10020617899B3002118A2CDE90021B5
:101B20006423CDE902061A464621C8205AE128E07E
:101B300008000020980500204E6F7420696D706CBD
:101B4000656D656E74656400969F01084F4B0000DB
:101B500045636F203C20436F6D666F727400000018
:101B6000506F776572206C6576656C0050726F6798
:101B700072616D6D650000004F4E00004F464600DB
:101B800001E00120C6E70121C7E7FE49FE4804F055
:101B9000E0FE00231A46194621A805F0BFF9FF23ED
:101BA00007461A46194620A805F0B8F9069539885F
:101BB000ADF81410B9788DF816100188ADF8101032
:101BC00080788DF81200607800B10120EFA10091BB
:101BD000CDE9010678231A463C211420039601F032
:101BE0001DFB00231A46194620A805F097F9FF238C
:101BF00007461A46194621A805F090F901460695B0
:101C00003888ADF81400B8788DF816000888ADF85B
:101C1000100088788DF81200607850B10020DCA1A7
:101C20000091CDE9010678233C211A46B4200396A1
:101C3000D8E00120F3E702F007FC65E602F016FDAC
:101C400062E6D549D04804F084FEB86A90F91800DD
:101C500010B101284DD072E000231A46194609A898
:101C600005F05CF9FF2307461A46194608A805F057
:101C700055F9014606953888ADF81400B8788DF806
:101C800016000888ADF8100088788DF81200C3A0FF
:101C9000CDE900064FF4A077002102963C233A4696
:101CA0000846039601F0BAFA00231A46194608A816
:101CB00005F034F9FF2380461A46194609A805F0B5
:101CC0002DF90695B8F80020ADF8142098F8021008
:101CD0008DF816100188ADF8101080788DF812007C
:101CE000B3A0CDE900063C2302963A462D21039687
:101CF00022E000231A46194609A805F00FF9FF2330
:101D000007461A46194608A805F008F906953988C5
:101D1000ADF81410B9788DF816100188ADF81010D0
:101D200080788DF81200A5A0CDE900063C2302962C
:101D30004FF4A07200210396002001F06FFA96493B
:101D4000914804F006FE00231A46194623A805F020
:101D5000E5F8FF2307461A46194622A805F0DEF8E3
:101D600006953988ADF81410B9788DF816100188E9
:101D7000ADF8101080788DF81200607800B1012065
:101D800092A10091CDE901065A231A46732114202D
:101D9000039601F043FA00231A46194622A805F0DB
:101DA000BDF8FF2307461A46194623A805F0B6F8E2
:101DB000014606953888ADF81400B8788DF81600FD
:101DC0000888ADF8100088788DF81200607860B14E
:101DD00000207FA10091CDE901065A231A46732104
:101DE000D220039601F01AFA8EE50120F1E76A4944
:101DF000654804F0AEFD00231A46194625A805F0F3
:101E00008DF8FF2304461A46194624A805F086F8E3
:101E100006952188ADF81410A1788DF81610018868
:101E2000ADF8101080788DF812006AA0CDE9000698
:101E30004FF4A07702963C233A46462100200396B1
:101E400001F0ECF968A36AA26CA115A8FEF71EFACE
:101E5000002215A94C4803F0EEFE0023ADF828003F
:101E60001A46194624A805F059F8FF2304461A46D5
:101E7000194625A805F052F806952188ADF81410EA
:101E8000A1788DF816100188ADF8101080788DF8C3
:101E9000120015A8CDE900063C23732102963A46AC
:101EA000002003969EE73C49374804F052FD00238A
:101EB0001A46194627A805F031F8FF2304461A46AA
:101EC000194626A805F02AF8014606952088ADF89F
:101ED0001400A0788DF816000888ADF810008878F6
:101EE0008DF8120047A0CDE9000602963C234FF47E
:101EF000A07246210020039601F090F908F0E6F860
:101F000002E52148CC3808F0B3F90024BA46B046BF
:101F10001D4838300719B87B072801D987F80E808B
:101F2000FF231A46194628A804F0F8FF0188ADF8E7
:101F3000001080788DF802001348009904F0B2FE7A
:101F40003449114804F005FD00231A46194629A812
:101F500004F0E4FFFF2306461A46194628A804F0B9
:101F6000DDFF06953188ADF81410B1788DF81610A4
:101F70000188ADF8101080788DF8120026494DE0E8
:101F8000B0E102E2969F0108980500203530250057
:101F9000313030250000000022AE01085265736523
:101FA0007420616C6C2064657669636500000000D4
:101FB00073657474696E67733F0000004172652039
:101FC000796F7520737572653F0000005965730065
:101FD0004E6F000043757272656E74206669726D93
:101FE000776172650000000031322E352E3200001C
:101FF00076657273696F6E3A200000002573257351
:1020000000000000436F6E6E656374696E672E2E6C
:102010002E00000078DD0108B4BA000851F8342021
:10202000CDE9002801EBC406CDF80880CDF80C807E
:10203000B6F90610B6F904001E23322201F0EEF8BC
:10204000EB49EC4804F085FC00231A46194628A801
:1020500004F064FFFF2381461A46194629A804F0BC
:102060005DFF0695B9F800200146ADF8142099F8F7
:1020700002008DF816000888ADF810008878DD4958
:102080008DF81200CC390220C978491EA14201D135
:10209000012200E00022DAF8281091F91810A1427C
:1020A00004D1012303E017E092E025E10023BF7B88
:1020B0005BF82710CDE90013CDE90220F088322328
:1020C0001E3001B2B6F904001A4601F0A7F8641CEC
:1020D000072CFFF61DAF17E498F9000007280CD273
:1020E000DFE800F004074A4D505356000021C2A01B
:1020F00001E00021C2A000F0DBFFBD49BD4804F0B3
:1021000028FCDFF8F092002409F14609C4EB041022
:10211000002500EB800050300FFA80F7C5EB05106A
:1021200000EB8000163000B20023149005EB84060B
:102130001A4619462BA804F0F1FEFF2302901A4616
:1021400019462AA804F0EAFE0146012006900298EA
:102150000288ADF8142080788DF816000888ADF854
:10216000100088788DF8120098F9002012F80910F4
:10217000B14210D101220FE00021A3A0BBE7002152
:10218000A4A0B8E70021A6A0B5E70021A6A0B2E769
:102190000021A8A0AFE70022A849896A91F9181088
:1021A000B14201D1012300E000235BF82610CDE904
:1021B0000013CDE9022A32231A463946149801F059
:1021C0002DF86D1C042DA9DB641C022C9EDB34E56C
:1021D00098F901006FF0040108280AD2DFE800F046
:1021E000040617191B1D1F2195A000E097A000F001
:1021F0005FFF99497F4804F0ACFB98F9010007287C
:1022000011DA964900EB400001EBC0070DE094A005
:10221000EDE796A0EBE798A0E9E79AA0E7E79CA096
:10222000E5E79EA0E3E7734F4D370024AB4600255A
:1022300004EB440000EB0410412101EB400004EBEF
:10224000440A0FFA80F900BF05EB4501132000EBAB
:10225000011805EB4A06324692A10BA8FEF716F8C4
:10226000B85D032802D907F806B005E004D14FF0A5
:10227000FF031A46194603E04FF000031A461946B9
:1022800029A804F04BFECDF818B0B85D594900EB11
:102290004002D939114403280A88ADF814208978FE
:1022A0008DF81610BDF8A410ADF810109DF8A6100A
:1022B0008DF8121014D0002200200BA9CDE90010D7
:1022C000CDE9020220232A2249460FFA88F000F0C5
:1022D000A5FF6D1C062DB7DB641C042CA7DBACE44A
:1022E0000222E9E76FF002016FA000F0E1FE4FF07B
:1022F000FF3002F0BFFAA0E402F032FBB86A90F9B6
:10230000180058B1012826D0022840D0694B07AAEE
:102310000AA9384803F078FFC0B365E04F4B07AA1D
:10232000A8330AA9334803F06FFF90B9BDF91C1018
:10233000BDF9280001EBD171A4EB61010AB200EBF9
:10234000D071A9EB6100454B01B2A833294803F0D5
:10235000EDFD59A049E05A4B07AA0AA9254803F008
:1023600053FF88B9BDF91C10BDF9280001EBD171EC
:10237000A4EB61010AB200EBD071A9EB610001B2DC
:102380004F4B1C4803F0D2FD4EA02EE01AE04E4BFE
:1023900007AA0AA9174803F037FF88B9BDF91C102E
:1023A000BDF9280001EBD171A4EB61010AB200EB89
:1023B000D071A9EB610001B2434B0E4803F0B6FDAA
:1023C00042A012E0BDF91C10BDF9280001EBD1714B
:1023D000A4EB61010AB200EBD071A9EB610001B27C
:1023E000344B044803F0A2FD3BA000F033FE24E48C
:1023F00080D10108980500204D6F6E64617900005E
:1024000054756573646179005765646E65736461C2
:1024100079000000546875727364617900000000EF
:102420004672696461790000536174757264617900
:102430000000000053756E64617900000800002000
:10244000505245534554203100000000505245532E
:10245000455420320000000078DD0108ECBA000885
:10246000505245534554203300000000505245530C
:102470004554203400000000505245534554203547
:102480000000000050524553455420360000000023
:1024900050524553455420370000000043555354D3
:1024A0004F4D000025640000435553544F4D2032DA
:1024B0003468000063510108436F6D666F727400E9
:1024C0004BC2000845636F0023C60008416E746963
:1024D0002D66726F737400004F6666002DE9F0433D
:1024E000CC4C0746CC4EA06A8BB010B17078002857
:1024F0007ED0012F06D0002007F0C8FFC64838382C
:1025000004F0E1F9FF231A46194607A804F006FD76
:102510000188ADF8001080788DF80200BE4800995F
:10252000383804F0BFFB307B4FF0000830B1012891
:102530000CD0022818D0032853D11EE005F03AFC35
:102540000F22002100F012FEB44B06E005F032FC31
:102550000F22002100F00AFEB14B0F22AE480C21E1
:10256000383803F0E3FC3CE005F024FC0F220021A6
:1025700000F0FCFDAB4B0D22F0E7A748AA4B3C2234
:102580009621383803F0D2FCA348A849383804F023
:10259000E0F900231A46194609A804F0BFFCFF23FE
:1025A00005461A46194608A804F0B8FC0121069110
:1025B0002988ADF81410A9788DF816100188ADF8A7
:1025C000101080789AA1CDE900188DF81200CDF88E
:1025D00008802D235222A0219120CDF80C8000F0FC
:1025E0001DFE607D042801D1A06AE8B3002300E04D
:1025F00003E11A46194601A804F090FC0188ADF8E1
:10260000001080788DF8020083480099383804F073
:1026100049FB317B1A2003294FF02B0300903ED059
:10262000608C88220C3001B27B48383803F05BFBA9
:10263000FF231A46194601A804F070FC0188ADF882
:10264000001080788DF8020073480099383804F043
:1026500029FB707B58B1307B032808D06E488C2250
:102660000C21744B383800E009E003F05FFC96F869
:102670002D00012816D07079012816D01FE0307B7C
:102680006D4B032808D0608C89220C3001B262485F
:10269000383803F04BFCDCE732220C21F7E732221A
:1026A0000C21C1E7654B4D2204E0307B644B0328CD
:1026B0000FD0502258480C21383803F037FC307BBB
:1026C00003287CD0B07A05254FF00C09012802D0F0
:1026D00003E09322EEE7707930B1E07D13282AD829
:1026E0000F281CD9042526E0F57A052D0AD0042DE3
:1026F0000AD0032D0BD0022D0DD0012D0DD084F862
:10270000098019E0142000E01020607201E084F8D4
:102710000990002412E00820F7E70420F5E70A28D2
:1027200001D3032507E0052801D9022503E008B1FC
:10273000012500E00025E57000241DE0414904EB7F
:10274000440008440188ADF8001080788DF802003C
:1027500031480099383804F0A5FA3520604300EB81
:10276000C4000B3001B22C483523D5223838CDF8BF
:10277000009003F0B8FA641CAC42DFDBFF231A467A
:10278000194603A804F0CAFB0188ADF80010807850
:102790008DF8020020480099383804F083FA0023AD
:1027A0001A46194603A804F0B9FB0188ADF80010D9
:1027B00080788DF8020018480099383800E017E05A
:1027C00003F0AAFA14482049383804F0C2F8B07A65
:1027D000012801D1707998B11CA01DA30068019057
:1027E00001A800900C48C2220B21383804F099F857
:1027F000012F02D0012007F049FE0BB0BDE8F083A5
:1028000015A117A3D1E90001CDE9010101A80090AC
:10281000E8E7000008000020D0050020D0330108C0
:102820006A3101087D2C01086351010822AE0108BC
:102830004F66660003290108927C0108651F0108A4
:102840002E240108B004002047EE01080202029C79
:102850004155544F0000000002020202029C000099
:10286000435553544F4D00002DE9F04FFE4D89B0B4
:10287000A86A00287DD0806850B3FC4804F023F893
:1028800002F06EF8A86AA946F84D816890F9180020
:10289000002401EB40100C2102680620A0273835E7
:1028A0004FF09F0A4FF078084FF03C0B26462B2A3A
:1028B0007DD021DC0D2A7BD00FDC0D2A79D2DFE818
:1028C00002F078447EB3B6B97878787878BCBF00E7
:1028D00009B0BDE8F04FFEF72BBF202A6AD006DC16
:1028E000152A68D0162A67D01F2A62D186E1292AC4
:1028F0007ED02A2AF9D160E240F2A51CA2F2A513EB
:10290000624576D010DC352A74D006DC2C2A72D0D1
:10291000332A71D0342AE8D115E2A2F580729B3AAD
:102920006BD0012AE1D1A5E2162B67D006DC012B82
:1029300077D0142B76D0152BD7D156E2A3F5706340
:10294000AA3B70D0012BD0D18EE20E21CDE9001030
:1029500054235C221946104605F0C6F8FF231A4698
:10296000194605A804F0DAFA0188ADF8001080785D
:1029700000E0E1E28DF80200BC48009904F092F911
:10298000BB49BA4803F0E5FF0022BAA1B74803F0FB
:1029900052F9ADF8080000EBD071AAEB610001B26A
:1029A000B4A36E22B148009603F0BBFF05E00FE22E
:1029B000C0E058E22EE1C0E0EFE0B0A485E2CDE94E
:1029C000001054235C221946104605F08DF81E2095
:1029D00000900A2378228321A44803F084F926205A
:1029E00000900A2370229321A04803F07CF906E0AE
:1029F000E0E142E2DBE1F2E118E138E201E22E201F
:102A000000900A236822A321984803F06CF936202D
:102A100000900A236022B321944803F064F99AA439
:102A200053E22DE2DEE1EFE1994D9AA432E29B4DB3
:102A30009BA42FE29D4D9EA42CE2A04DA0A429E2D0
:102A4000FF231A46194604A804F068FA0188ADF875
:102A5000001080788DF802008448009904F022F973
:102A600000231A46194604A804F058FA0188ADF864
:102A7000001080788DF802007C48009903F04CF932
:102A80004E200346009051227921784803F076FFCA
:102A900000231A46194604A804F040FA0188ADF84C
:102AA000001080788DF802007048009904F0FAF860
:102AB000FF231A46194604A804F030FA0188ADF83D
:102AC000001080788DF802006848009903F024F91E
:102AD0003C23462296216548CDF800B003F04EFF16
:102AE000322000903C234622A021604803F0FBF8EE
:102AF000FF231A46194604A804F010FA0188ADF81D
:102B0000001080788DF802005848009904F0CAF847
:102B100000231A46194604A804F000FA0188ADF80B
:102B2000001080788DF802005048009903F0F4F806
:102B300065A4CAE1654D66A4ACE1CDE9001054235B
:102B40005C221946104604F0CFFFFF231A461946AF
:102B500006A804F0E3F90188ADF8001080788DF83C
:102B600002004248009904F09DF85C493F4803F098
:102B7000F0FE00225AA13D4803F05DF8ADF80800D0
:102B800000EBD070A7EB600001B255A35D2237487F
:102B9000009603F0C6FE53A497E1CDE9001054233C
:102BA0005C221946104604F09FFFFF231A4619467F
:102BB00007A804F0B3F90188ADF8001080788DF80B
:102BC00002002A48009904F06DF84449274803F0B0
:102BD000C0FE002245A1254803F02DF8ADF80800FD
:102BE00000EBD0709D21A1EB600001B23FA35C22FD
:102BF0001E48009603F095FE3DA466E195F82D0071
:102C0000002801D03C4D00E03C4D01D03CA441E106
:102C10003EA43FE1CDE900104FF054034FF0850290
:102C20001946104604F060FF3CA44EE13E4B03AA57
:102C300002A90E4803F0E8FA88B9BDF90C10BDF9F5
:102C4000080001EBD172A8EB620100EBD0700AB270
:102C5000A7EB600001B2344B044803F067F9334B33
:102C600003AA02A9014863E008000020980500209B
:102C700078DD01084D4F444500000000486561744F
:102C8000206D6F6465000000506F77657200000072
:102C9000DDCC000854696D657200000071DD00082C
:102CA00053657474696E677300000000E6E5000800
:102CB00050726F6772616D6D6500000094BB000813
:102CC000436F6D666F72740045636F0023C6000822
:102CD000416E74692D66726F73740000B1CE010885
:102CE000410000004175746F0000000043000000C7
:102CF000437573746F6D000099D8000851D40008B3
:102D000054696D6572206973206F6E0054696D653A
:102D100072206973206F666600000000536574209E
:102D200074696D6572000000BF390108EA37010857
:102D300003F06AFA28B9824B7922A321814803F073
:102D4000F5F881A4C1E0824B03AA02A97D4803F0F3
:102D50005BFA88B9BDF90C10BDF9080001EBD1721E
:102D6000A8EB620100EBD0700AB2A7EB600001B2E1
:102D7000774B744803F0DAF8687908B1754B00E0D6
:102D8000754B03AA02A96F4803F03EFA48B9687967
:102D900008B1704B00E0704B7B22A321694803F01F
:102DA000C5F8687908B16DA48FE06DA48DE06D4D14
:102DB0006DA46FE06F4D70A46CE0CDE9001054235A
:102DC0005C221946104604F08FFE6E4D6EA461E041
:102DD000E87908B16E4D00E06E4D6FA45AE0704D79
:102DE00070A457E0714D72A454E0CDE90010542353
:102DF0005C221946104604F077FE6C4D6EA4933D9C
:102E000048E0704D70A445E0CDE9001054238522C0
:102E10001946104604F068FEFF231A46194608A812
:102E200004F07CF80188ADF8001080788DF802007D
:102E30004448009903F036FF6649424803F089FD93
:102E4000002265A13F4802F0F6FEADF8080000EB55
:102E5000D071AAEB610001B25FA36E2239480096DF
:102E600003F05FFD5EA430E0504D60A412E0644DBD
:102E700064A40FE0664D67A40CE0694D69A409E005
:102E8000CDE9001054235C221946104604F02CFEB4
:102E9000674D68A4CDB12B4601AA6946294803F0C5
:102EA000B3F9E8BBBDF90410BDF9000001EBD17224
:102EB000A8EB620100EBD0700AB2A7EB600001B290
:102EC0002B46204803F032F82EE0D9F828004D4672
:102ED000816890F9180001EB40100068202823D188
:102EE0005849184803F035FD698B5846B1FBF0F29C
:102EF0000BFB1213B1FBFBF253A103A8FDF7C6F9BC
:102F0000002203A90F4802F096FE00EBD070A7EB59
:102F1000600000230096019600B203AA672100E03A
:102F200002E0029600F030FA002C05D009B02046ED
:102F3000BDE8F04F00F08EB809B0BDE8F08F00009A
:102F4000EA37010898050020536574757000000089
:102F5000BF3901085B3F0108624201084F6E000063
:102F60004F66660059450108437573746F6D2064A0
:102F7000617900003C6E010844617465202620746C
:102F8000696D65000BF90008446973706C61790024
:102F900014ED0008D7F30008536F756E640000004D
:102FA000674A0108536572766963650093580108A2
:102FB0005265736574000000496E666F726D6174CE
:102FC000696F6E009B7F0108436F6E6E6563746965
:102FD0006F6E000078DD0108535441525400000028
:102FE000436F6E6E656374696E670000526573654A
:102FF0007420636F6E6E656374696F6E000000000D
:10300000E6E5000853657420646174650000000003
:103010009F6801085365742074696D6500000000A5
:10302000140301084272696768746E657373000067
:103030000CFD00084175746F207377697463682014
:103040006F666600969F0108253032643A2530325B
:10305000640000001CB5FF2304461A46194601A867
:1030600003F05CFF0188ADF8001080788DF8020055
:103070000D48009903F016FE0C490B4803F069FC5B
:1030800000222146084802F0D6FD0021009100EB05
:10309000D070A021A1EB600001B22346B922024802
:1030A00003F03FFC1CBD00009805002022AE010883
:1030B0007CB5FF230C4605461A46194601A803F0C5
:1030C0002DFF0188ADF8001080788DF802000E48C1
:1030D000009903F0E7FD0D490B4803F03AFC00228C
:1030E0002946094802F0A7FD0021009100EBD070AD
:1030F000A021A1EB600001B22B4604F11A020248A4
:1031000003F00FFC7CBD00009805002022AE0108F2
:103110001CB5FF2304461A46194601A803F0FEFE1B
:103120000188ADF8001080788DF802000D480099F4
:1031300003F0B8FD0C490B4803F00BFC00222146BC
:10314000084802F078FD0021009100EBD070A0212A
:10315000A1EB600001B223461022024803F0E1FB1C
:103160001CBD00009805002078DD010870B5FF2324
:1031700088B015460E4604461A46194607A803F0BD
:10318000CDFE0188ADF8001080788DF802001C4853
:10319000009903F087FD22461AA101A8FDF776F8F1
:1031A0001949174803F0D5FB002201A9144802F081
:1031B00042FD044600EBD470A521A1EB600006445B
:1031C0000020009001AB05F13C0231B20C4803F045
:1031D000A8FB0E490A4803F0BCFB0DA00DA3006834
:1031E000069006A80090301901B20C4605F13F0286
:1031F000034803F096FB0848448408B070BD000003
:103200009805002025640000BB840108CC9D0108BE
:10321000F99C0000B0430000080000202DE9FF4F9A
:103220008BB08B46DDE91C54DDE9181792461E462B
:1032300000225448DDF86C8002F0FDFC05905148F6
:1032400002F0A1FD81460B990AEBDA72059801EBB9
:10325000620100EBD070A1EB600000B206EBD67209
:1032600003900BEB620109EBD970A1EB600000B297
:1032700002900FB1294600E02146424803F012FDBA
:103280000720CDE9006053465A463E480B9902F0AC
:103290007FFD47B121463B4803F004FDB8F1000F24
:1032A00039D017B138E02946F5E72946354803F00B
:1032B000F9FC2146334802F02FFD0720CDE90060DC
:1032C00053465A462F480B9902F062FD21462D487D
:1032D00003F0E8FC29462B4802F01EFDC8F100006F
:1032E00006EB4002072112B20AEB4000CDE90021B3
:1032F00003B20BEB080002B20B98404401B2214824
:1033000002F046FD29461F4803F0CCFC21461D482B
:1033100002F002FD02E00FB1294600E02146194803
:1033200002F0FAFC0020DDE9022100901548189B0C
:1033300003F0F7FA1A9878B10FB32146114803F059
:10334000B1FC032000900298059B4844401D02B246
:103350000C48039902F0C7FC00231A46194609A835
:1033600003F0DCFD0188ADF8001080788DF80200D4
:103370000448009902F0D0FC0FB0BDE8F08F294658
:10338000DCE70000980500202DE9FF4F83B01C000A
:10339000DDE91187DDF840B00E46824603D0FF23F9
:1033A0001A46194602E000231A46194601A803F0FE
:1033B000B5FD3948019903F075FC0022364805999E
:1033C00002F039FC8146344802F0DDFC054600EB92
:1033D000470000B2009009EB480003B2F01B02B2B4
:1033E000AAEB080001B22C4802F07DFC74B1002366
:1033F0001A46194601A803F091FD2748019903F0E8
:1034000051FC3CB1FF231A46194606E0FF231A4639
:103410001946EFE700231A46194601A803F07EFD7E
:103420001D48019902F078FC002000903246514678
:103430001948059B03F075FABBF1000F14D034B3A3
:1034400000231A46194602A803F068FD12480299A3
:1034500003F028FC042000907019401D02B24B4676
:1034600051460D4802F03FFC00231A46194601A8B8
:1034700003F054FD0188ADF8001080788DF802004B
:103480000548009902F048FC07B0BDE8F08FFF2323
:103490001A461946D7E70000980500207CB500F0D1
:1034A000CBF84D4CA16B884279D900F0C5F8A063E8
:1034B000617D4A4E1A25022905D039B3032928D047
:1034C00004292AD02CE000231A46194601A803F04B
:1034D00025FD0188ADF8001080788DF802003F4886
:1034E0000099383803F0DEFB307B4FF02B030328C4
:1034F000009508D0608C89220B3001B237483838EB
:1035000002F0F1FB3AE03B221621F7E700F57A7072
:1035100001E000F5FA70A06302E0207A00283ED1B5
:10352000207A4FF0000380F001002072307B1A46B1
:103530000328194601A833D003F0F0FC0188ADF848
:10354000001080788DF8020024480099383803F084
:10355000A9FB0095608C2B230C3001B21F488922F7
:10356000383802F0C0FB207A40B1608C89221C4BB5
:103570000C3001B21948383802F0D8FCFF231A4643
:10358000194601A803F0CAFC0188ADF80010807844
:103590008DF8020011480099383803F083FB7CBD98
:1035A00003F0BCFC0188ADF8001080788DF80200B3
:1035B0000A480099383803F075FB08482B233B2252
:1035C00016213838009502F08EFB207A0028D5D0DD
:1035D0003B22034B1621CDE708000020D005002038
:1035E000927C010810B5114C00202075012006F0D6
:1035F0004DFF00F021F8A16B884216D9207A80F0A7
:103600000100207200F018F800F5FA70A063084875
:1036100003F059F9207A002807D04022BDE8104075
:10362000044B6421024802F081BC10BD0800002058
:103630009805002060760108014800687047000086
:1036400000000020FEE700002DE9F0472E4C207816
:10365000D0B194F82D0008B96079A8B12B4806F0D4
:1036600007FE2A4E0025307800F00F01000900EB1C
:10367000800001EB4000C0B2132809D2607938B154
:1036800084F82D5065712573BDE8F04706F0BEBD86
:1036900006F0BCFD94F82D00DFF870904FF08047E5
:1036A00009F114094FF003084FF4807A01281ED065
:1036B0006079012826D189F8095089F80A5089F8DB
:1036C0000B504FF08030C9F8000004F04FFB20731E
:1036D000C9F804700D4889F80880143006F06EFDB2
:1036E000504606F029FEBDE8F04706F0B1BD89F866
:1036F000095089F80A50B07989F80B000448C9E9E3
:103700000007E7E7BDE8F087D0050020CC040020E3
:1037100000808080FEE7000010B5174CA06AC069E9
:1037200028B3002006F0B2FEA26A04F11C00116862
:10373000332910D0A1F58073B93B02D1002101706B
:103740004170D069C4F82800FFF78EF8BDE810403A
:10375000012006F09BBE09494B79002BF1D1D369BA
:10376000074AA262D361497901704170ECE7BDE874
:10377000104000F0D9BA000008000020D005002059
:10378000DC01002070470907090E002806DA00F066
:103790000F0000F1E02080F8141D704700F1E020D8
:1037A00080F8001470470000024900204870FDF7BF
:1037B000BFBF000024000020024901204870FDF72F
:1037C000B7BF000024000020704700002DE9F04141
:1037D000524E534C0025B36AA4F1440006F11C027A
:1037E0001968332966D01CDC162951D010DC4B4AED
:1037F0000B2902F150023DD0032307240C293FD0AE
:103800000D293FD0152941D1BDE8F041FDF722BB7C
:103810001F2941D0202942D02B2937D1C0791070DF
:1038200078E040F2A51CA1F2A517614562D01ADC30
:1038300034295DD035293DD03A4FA1F580719B39AF
:103840003AD0012922D1384606F012FD387904F029
:1038500019F9A060787904F015F96060B87904F07E
:1038600011F9206041E0012F56D0142F22D0592F9A
:103870000CD11FE0807890700A201070232049E05E
:10388000C07800E00079907013705470BDE8F0814A
:10389000C07A401E1876F9E790F82D00BFE7C18D79
:1038A0003C20B1FBF0F2A260B1FBF0F200FB121081
:1038B000C4E900501D76E9E71A4806F0D9FCB8784B
:1038C00004F0E0F8E060787804F0DCF82061387803
:1038D00004F0D8F8132802D240F2E37004E03878FC
:1038E00004F0D0F800F5FA606061B06A0576CDE7C3
:1038F000407994E78079002807D000BF4FF000009E
:10390000107005D14FF0010004E04FF00100F7E71F
:103910004FF000005070B9E7007A80E708000020FF
:1039200014060020CC04002010B54FF4807420460B
:1039300006F00AFD002806D0204606F0FDFCBDE892
:10394000104006F023BC10BD2DE9F041234C0127A7
:103950000025277065701820A0700420E0700520F5
:1039600020716571A771E77125726572A572E772A2
:10397000257365730326A673E67326746674A674AE
:10398000E67426750122182104F11500FCF71EFECD
:1039900084F82D504FF43470E085A4F120000565C3
:1039A00045658565C56506F091FCA4F582707F21AB
:1039B0000181FF21418120210170C670477087700D
:1039C00005611121C560017158214171857106F0B1
:1039D000C5FC002800D1FEE7BDE8F081D00500203D
:1039E000704710B504F076F8BDE8104000F0A4B8B8
:1039F000484810B546494160474A4260816082604C
:103A0000016941F020010161016941F0400101615A
:103A1000C168C907FCD1016921F020010161016978
:103A200041F010010161C16911F0060F3B490AD054
:103A3000C269C2F34102012A07D0C269C2F341023E
:103A4000032A04D005E0A52202E0BB2200E0CC223C
:103A50000A80C169DF2202EA1121304A921C1180DA
:103A6000C169921CC1F307411180C169090E921C02
:103A70001180016A921CC9B21180016A921CC1F3C3
:103A800007211180016921F01001016124480168BA
:103A900041F4700101602348016841F001010160B7
:103AA00001688907FCD541681F4A1140416041689F
:103AB0001E4A1140416001681D4A11400160C16AFF
:103AC0001C4A1140C162016B40F203129143016331
:103AD000016B21F480310163016B21F0004101632E
:103AE000416B21F001014163D0F8C01021F4803115
:103AF000C0F8C01000218160C0F8CC1006F02AFD8B
:103B0000BDE8104000214FF0006005F0E3B8000070
:103B10002301674500200240AB89EFCD00F8FF1F6D
:103B200088ED00E0001002400C00FF08FFFFC277A4
:103B3000FFFFF2FEF0FFFF3F02480168491C0160F1
:103B4000704700000000002010B5084C01212046FD
:103B500006F043FF012807D10121204606F03AFF75
:103B6000BDE8104000F004B810BD00000020004087
:103B700009494FF480720879401EC0B208714B7831
:103B8000834201D9054B01E0044B10331A60002831
:103B900001D1142008717047080000201804004863
:103BA00010B50B4C0F226FF0180194F90200FDF7CD
:103BB000D9FCA078401E40B2A07094F90010884251
:103BC00001DA6078A070BDE81040FDF7B1BD0000DB
:103BD0005800002010B50B4C0F226FF0180194F91B
:103BE0000200FDF7BFFCA078401C40B2A07094F921
:103BF0000110884201DD2078A070BDE81040FDF77B
:103C000097BD000058000020154830B4826A15485E
:103C100092F91840D0E9011314B1012C0FD018E02B
:103C20005B1E83601268202A00D123B1002B10DABA
:103C3000172181600DE061B90121416009E0491E51
:103C4000416014683B22202C00D12BB1002900DAFE
:103C5000426030BCFDF76CBD0129F9DBF9E70000DB
:103C60000800002014060020F0B4144800250124A8
:103C7000836A134893F91860D0E9011216B1012E36
:103C80000CD014E0521C8260172A00DD85601A688F
:103C9000202A0CD1826852B971B108E0491C4160F8
:103CA0001B68202B00D12AB13B2900DD4560F0BC08
:103CB000FDF73EBD3B29FADD4460F8E7080000202F
:103CC0001406002070B5124C1049204606F028FF5B
:103CD00068B1204606F0CEFE0F490E4B0A78985484
:103CE000521CD0B20870322801D1002008700B4D50
:103CF0002046294606F014FF002806D02946204613
:103D000006F0FAFE06490120087070BD050005079F
:103D100000440040540600207C04002004000407F6
:103D20007E040020FEE70000024900208862FEF7C2
:103D3000D5BB00000800002010B540F21C7005F053
:103D4000F5FB05F029F84FF40064204605F06AFB06
:103D5000204605F075FBE01005F012FC40F60F0060
:103D600005F0E4FBBDE8104006F068BB10B500218B
:103D70004FF4807003F058FE0121084603F07AFDED
:103D800007220521002003F0F1FD0121022003F0AC
:103D90004BFE002003F02CFE0121084603F0A2FD9B
:103DA0004FF46021012003F0BBFD002003F080FDF3
:103DB00003F08CFD0A2003F085FE03F049FDBDE809
:103DC0001040012003F020BE10B5094C0022074925
:103DD000204604F03DF9002281231146204604F0DC
:103DE000E7F92046BDE8104004F0B8B9801A060093
:103DF000005400402DE9F041334C0126334D207D25
:103E0000022804D1287810B101F08CF80026FFF7C1
:103E100013FCE062687800274FF00108A0B328780F
:103E200020B1207D012815D0A0B115E027483838F1
:103E300003F0B8F9A87908B1277501E084F8148077
:103E400001F070F8002006F021FB01F001F90020DC
:103E5000BDE8F08101F066F81C48383803F0A2F99B
:103E6000A87908B1277501E084F81480002006F0D5
:103E70000DFB01F0EDF8FFF7DFFBA0F5D24078383D
:103E8000E06268780026B0B92878A0B1287A70B1CD
:103E9000207D02280BD1A87908B1277501E084F8AC
:103EA00014800020FEF71AFBFFF7C6FB606407488A
:103EB000383803F077F9FFF7BFFB41F28831084447
:103EC00060643046C4E7000008000020D0050020F0
:103ED00010B540F2157005F029FB40F2115005F0C5
:103EE00025FB40F2125005F021FB40F20E7005F068
:103EF0001DFB40F2117005F019FB40F2126005F055
:103F000015FB4FF4E06005F011FB40F2096005F08D
:103F10000DFB40F21C7005F009FBBDE810400620C7
:103F200005F04AB930B503461046064C07E013F8D1
:103F3000015BC2B26A4054F8222082EA1020491E76
:103F4000F5D230BD80F001082DE9F04101224FF09B
:103F5000904602231146304604F007F8022303225C
:103F60000021304604F028F8504F4FF4F0742346F7
:103F700002220121384603F0F8FF234603220021E4
:103F8000384604F019F8202300220321304603F0BC
:103F9000ECFF01220221304603F0B0FF0123002292
:103FA0000221304603F0E1FF0123032200213046C5
:103FB00004F002F84FF4007422460221384603F060
:103FC0009DFF022223461146384603F0CEFF002211
:103FD00023461146384603F0EFFF224604213046BF
:103FE00003F08CFF65002A460421304603F086FF6B
:103FF000234600220221304603F0B7FF2346032266
:104000000121304603F0D8FF2B4600220221304622
:1040100003F0ABFF2B4603220121304603F0CCFF17
:104020004FF4204422460021384603F067FF234620
:1040300000220221384603F098FF23460322002184
:10404000384603F0B9FF40F60444012223461146E6
:10405000384603F08AFF234603220021384603F046
:10406000ABFF04220121304603F048FF0822012162
:10407000304603F043FF042301220221304603F0BF
:1040800074FF042303220021304603F095FF082328
:1040900001220221304603F068FF3046BDE8F041BE
:1040A00008230322002103F087BF0000000400481A
:1040B0002DE9F043002391B01A4619460CA802F0EE
:1040C0002DFF0188ADF8001080788DF80200C748F8
:1040D000009901F021FEFF231A4619460CA802F0B0
:1040E0001DFF0188ADF8001080788DF80200BF48F0
:1040F000009902F0D7FDDFF8F482002508F13808B6
:10410000BB4C98F80600012608B1257500E026751D
:10411000B64802F0D8FBB54803F044F8002006F09A
:10412000B5F9B44B0EAA0DA9B04802F06DF8A0275E
:1041300090B9BDF93810BDF9340001EBD1716E2290
:10414000A2EB610100EBD0700AB2A7EB600001B2F4
:10415000A84BA64801F0EAFE012006F097F94FF4BB
:10416000FA69484603F0AEFC002006F08FF99F483C
:1041700002F0A9FB9D48E838C168E83002F092FDE2
:104180009D499A4802F0E5FB00229CA1974801F066
:1041900052FD00EBD070A7EB600001B297A3502254
:1041A0009248009502F0BDFB002298A18F4801F0D3
:1041B00042FD00EBD070A7EB600001B293A3782220
:1041C0008A48009502F0ADFB9449884802F0C1FB93
:1041D000FF231A4619460CA802F0A0FE0188ADF88C
:1041E000001080788DF802008048009902F05AFD96
:1041F0008BA38DA28DA107A8FCF748F8002207A980
:104200007A4801F018FD00EBD070A7EB600001B216
:1042100007ABB9227548009502F083FB012006F038
:1042200035F9484603F04EFC002006F02FF9A56250
:10423000656498F805004746012802D103F096FD11
:10424000387303F0CDFDA07010F17F0F4FF4A0770D
:104250002FD07F2858D030287EDD002000F09AFF34
:104260000320A071E079002877D1E6715F4802F061
:104270002AFB70495D4802F06CFB00231A46194680
:1042800010A802F04BFEFF2304461A4619460FA859
:1042900002F044FE06962188ADF81410A1788DF83E
:1042A00016100188ADF8101080788DF8120062A009
:1042B00058E0002000F06EFFA671E07900285ED182
:1042C000E6714A4802F0FFFA5A49484802F041FBB9
:1042D00000231A46194610A802F020FEFF230446C8
:1042E0001A4619460FA802F019FE06962188ADF865
:1042F0001410A1788DF816100188ADF81010807890
:104300008DF812004DA02DE0002000F043FF0220A8
:10431000A071E079002832D1E671344802F0D3FA76
:104320004449324802F015FB00231A46194610A8EA
:1043300002F0F4FDFF2304461A4619460FA802F0C6
:10434000EDFD06962188ADF81410A1788DF81610B1
:104350000188ADF8101001E014E010E080788DF8CD
:10436000120037A0CDE9000500210295F0233A465E
:1043700008460395FEF752FF012006F087F811B0BA
:10438000BDE8F08310F11A0F4FF000002ADA00F0B8
:1043900001FF0420A071E0790028F0D1E6711348F4
:1043A00002F091FA2349114802F0D3FA00231A4689
:1043B000194610A802F0B2FDFF2304461A4619461A
:1043C0000FA802F0ABFD06962188ADF81410A17875
:1043D0008DF816100188ADF8101080788DF8120055
:1043E00018A0BFE7FEF77AF8C9E70000980500209B
:1043F00008000020E809010801D601084555524F80
:1044000054454348204D4554414C000050414E45D1
:104410004C204845415445520000000078DD010819
:1044200031322E352E320000562E20002573257392
:1044300000000000BB840108453300004531000046
:1044400045320000453400002DE9F043784C8DB032
:1044500078A10BA8E268FBF719FF76A10CA82269E6
:10446000FBF714FF75A108A86269FBF70FFF7549F8
:10447000A4F17C0002F06DFAA4F17C0001F083FC51
:10448000C0F178000FFA80F9002208A9A4F17C009D
:1044900001F0D1FB0023C7B21A46194607A802F063
:1044A0003DFDFF2304461A4619460AA802F036FDD0
:1044B000012606962188ADF81410A1788DF8161003
:1044C0000188ADF81010604D80788DF81200A86A50
:1044D0000024007E00287CD0002008A90091CDE9AE
:1044E00001043C2307F1140249460F200394FEF710
:1044F00095FE4F4800220CA97C3801F09CFB00235C
:10450000C7B21A4619460AA802F008FDFF238046E2
:104510001A46194607A802F001FD0696B8F80020D1
:10452000ADF8142098F802108DF816100188ADF837
:10453000101080788DF81200A86A007E012800D043
:1045400000200CA90091CDE9010407F114023C23DD
:104550009046494696200394FEF760FE34480022B8
:104560000BA97C3801F067FB00231A4619460AA8FC
:1045700002F0D4FCFF2307461A46194607A802F0AA
:10458000CDFC06963988ADF81410B9788DF8161060
:104590000188ADF8101080788DF81200A86A007EAE
:1045A00002283ED000200BA90091CDE901043C2354
:1045B00042464946E6200394FEF730FEFF231A46A2
:1045C000194607A802F0AAFC0188ADF8001080780F
:1045D00000E024E08DF80200154800997C3802F0D4
:1045E00061FB00231A46194607A802F097FC0188D0
:1045F000ADF8001080788DF802000D4800997C38E5
:1046000001F08AFBA86A90F9180060B101280CD06B
:104610000EA000BFFEF71EFD0DB0BDE8F083012027
:104620005BE70120BFE70BA0F4E70DA0F2E7000075
:104630001406002025303264000000002530346468
:1046400000000000969F01080800002053657420B8
:10465000646179005365742079656172000000001F
:10466000536574206D6F6E74680000002DE9F0478B
:104670008CB07449744802F06CF9734801F083FB04
:10468000714FC0F178007C370FFA80FA6FA107A84C
:10469000BA68FBF7FBFD002207A96B4801F0CBFAD3
:1046A0000023C6B21A4619460AA802F037FCFF23B7
:1046B00004461A4619460BA802F030FC012506955F
:1046C0002188ADF81410A1788DF816100188ADF886
:1046D0001010DFF8808180788DF81200D8F828005B
:1046E0000024007E00287DD05FF000010DF11C0940
:1046F00048468DE813005720A0EB56003C23462285
:1047000051460394FEF78AFD50A107A87A68FBF78B
:10471000BDFD002207A94C4801F08DFA0023C6B266
:104720001A4619460BA802F0F9FBFF2307461A4662
:1047300019460AA802F0F2FB06953988ADF8141064
:10474000B9788DF816100188ADF8101080788DF8C2
:104750001200D8F828004746007E01286DD00021BD
:10476000CDF80090CDE90114CB20A0EB56003C23FE
:10477000462251460394FEF751FDFF231A4619467F
:104780000AA802F0CBFB0188ADF8001080788DF804
:1047900002002D48009902F085FA00231A461946B6
:1047A0000AA802F0BBFB0188ADF8001080788DF8F4
:1047B00002002548009901F0AFFA00231A46194675
:1047C0000BA802F0ABFBFF2380461A4619460AA845
:1047D00002F0A4FB064600221FA11B4801F02BFAA1
:1047E000069500E027E0B8F80020ADF8142098F80E
:1047F00002108DF816103188ADF81010B1788DF8D0
:10480000121015A1CDE9001400EBD070A021A1EB8E
:104810006000029400B23723042251460394FEF74D
:10482000FDFCB86A007E50B10CA000BFFEF712FC80
:104830000CB0BDE8F087012158E7012190E70AA0FC
:10484000F4E70000969F01089805002025303264A7
:1048500000000000080000203A00000053657420AA
:104860006D696E757465000053657420686F7572AC
:10487000000000002DE9F04F834689B034493548E7
:1048800002F067F8334F4D37002606EB460000254F
:1048900000EB0611412006EB460A00EB410800BF81
:1048A00005EB4501132000EB011905EB4A042246F4
:1048B00029A107A8FBF7EAFC385D032801D90120EC
:1048C00038555C4508D02548806A90F91800A04208
:1048D00002D0BBF1FF3F30D100231A46194608A889
:1048E00002F01CFB01210691395D1A4B01EB4102DC
:1048F000D93B1A441388ADF8143092788DF81620FD
:104900000288ADF8102080788DF812001348806A74
:1049100090F91800A04219D0032917D000210020D7
:1049200007AACDE90020CDE9020120232A220FFAAF
:1049300088F10FFA89F0FEF771FC6D1C062DAFDBD4
:10494000761C042EA1DB09B0BDE8F08F0221E6E75A
:1049500078DD01089805002025640000080000208B
:1049600010B5084B65220C21074801F0DFFA054B12
:10497000BDE81040463365224FF48F71024801F0C4
:10498000D5BA0000D51E01089805002070B5244C4A
:104990000246D3B2207EFF2800D12376607A81427E
:1049A00008D1207E904205DDA07A617B884201D04B
:1049B000401CA0721B48E57A0179491B00259142F1
:1049C00017DB017B022914D0217E914211DDA572F3
:1049D000FF21217645730221017301212174457164
:1049E000FEF72AFE00F57A7020630020FDF776FDC1
:1049F00012E0207E90420BDA03F0DCF9E17A401AF3
:104A0000904205DBA07A617B884201D02376A572B3
:104A1000A07A617B884201D1012070BD002070BD69
:104A200008000020D00500201FB54FF4E16004F01D
:104A30007DFD154C204605F039FF684605F0E1FF85
:104A400044F61F00ADF800000021ADF8041040F25C
:104A5000E730ADF802100290ADF806106946204626
:104A600005F064FF0121204605F0B4FF0121204636
:104A700005F0ACFF204605F053FF0022114613203D
:104A800004F0DAF81FBD00000020004030B5224DD0
:104A900089B0284605F00AFF5320ADF81000002425
:104AA0004FF4FA60ADF814400690ADF81240ADF83E
:104AB00016408DF81C4004A9284605F037FF012058
:104AC0000090ADF80440ADF80840ADF80640ADF8F0
:104AD0000A40ADF80C406A460021284605F092FDD8
:104AE00000221146284605F0AAFE60220021284631
:104AF00005F07EFE00221146284605F0AFFE01219A
:104B0000284605F074FF284605F076FD284605F096
:104B100007FF09B030BD00000048014030B54FF03C
:104B2000804589B0284605F0C1FE5320ADF810003D
:104B300000244FF4FA70ADF814400690ADF812401E
:104B4000ADF816408DF81C4004A9284605F0EEFE8D
:104B500001200090ADF80440ADF80840ADF80640E3
:104B6000ADF80A40ADF80C406A460021284605F031
:104B700049FD00221146284605F061FE6022002111
:104B8000284605F035FE08220021284605F066FE7D
:104B90000121284605F02BFF284605F02DFD28466B
:104BA00005F0BEFE09B030BD2DE9F0414B4F38464F
:104BB00003F0CFFA7D1501224FF090442B461146A9
:104BC000204603F0D2F92B4603220021204603F0B1
:104BD000F3F9A5616E00012233461146204603F029
:104BE000C4F9334603220021204603F0E5F9A6610B
:104BF00000E000BF2946204603F0D9F90128F8D18A
:104C000000E000BF2946204603F0D1F90128F8D181
:104C1000A56200E000BF2946204603F0C8F900283D
:104C2000F8D1A66200E000BF3146204603F0BFF98C
:104C30000028F8D1A66100E000BF3146204603F00D
:104C4000B6F90128F8D1A56100E000BF2946204649
:104C500003F0ADF90128F8D12A460421204603F0DB
:104C60004DF932460421204603F048F92B46002234
:104C70000221204603F079F92B4603220121204628
:104C800003F09AF9334600220221204603F06DF921
:104C9000334603220121204603F08EF94FF40041F0
:104CA000384603F090FA00BF0021384603F08BFA33
:104CB00000BF384603F052FA4FF4804208493846A4
:104CC00003F0C6F9002281231146384603F070FA3A
:104CD0003846BDE8F04103F041BA000000540040FE
:104CE000801A06002DE9FE4F8346FEF7A5FC884C8E
:104CF00000250C262063A16A54274FF078080B6822
:104D00004FF09E09A3F580724FF4FA6A04F1740023
:104D10009B3A07D1CA69D2F81CC09CF818C0BCF1F4
:104D2000040F03D0B3F5CE7F57D05BE0C261784863
:104D3000B430A062C261002005F0A8FB754801F004
:104D4000C2FDFF231A46194602A802F0E7F80188BF
:104D5000ADF8001080788DF802006E48009901F0DF
:104D6000A1FFCDE900765C234E227221694801F053
:104D70000FF86949674801F0ECFD00231A4619460F
:104D800002A802F0CBF80188ADF8001080788DF809
:104D900002006048009901F085FFFF231A4619467A
:104DA00002A802F0BBF80188ADF8001080788DF8F9
:104DB00002005848009900F0AFFF002257A1554863
:104DC00000F039FF0646534800F0DDFF00EBD072DB
:104DD000A8EB620002B2009560E0CA69D3691B7E4D
:104DE000042B05D0C969C161BBF1020F7ED089E0F7
:104DF000C2614B48A062E16CC161002005F046FB36
:104E0000444801F060FDFF231A46194602A802F04B
:104E100085F80188ADF8001080788DF802003D48D3
:104E2000009901F03FFFCDE900765C234E2272210C
:104E3000384800F0ADFF3849364801F08AFD0023BC
:104E40001A46194602A802F069F80188ADF8001068
:104E500080788DF802002F48009901F023FFFF238E
:104E60001A46194602A802F059F80188ADF8001058
:104E700080788DF802002748009900F04DFF00224D
:104E800026A1244800F0D7FE0646224800F07BFF0A
:104E900000EBD072A8EB62010AB2009506EBD67166
:104EA000A9EB610001B21DA31A4801F03AFDFF23EE
:104EB0001A46194602A802F031F80188ADF8001030
:104EC00080788DF802001348009901F0EBFE002372
:104ED0001A46194602A802F021F80188ADF8001020
:104EE00080788DF802000B48009900E008E000F09F
:104EF00013FF012005F0CAFA504602F0E3FD02E07C
:104F0000C969C161A062FEF797FBE062BDE8FE8F50
:104F10000800002098050020969F01084F4B0000D4
:104F20009C0200200A4810B5C07900280FD0094C17
:104F3000A5220021204605F082FC142002F0C2FDCB
:104F400020460022BDE81040114605F078BC10BD97
:104F5000D0050020004801407CB5314CA56A686945
:104F600018B102B0BDE870400047A86848B1A988F0
:104F700039B195F9181000EB41100021C561A0620C
:104F80000176A06A00680B2803D00C2801D00D28F8
:104F900017D100231A46194601A801F0BFFF018866
:104FA000ADF8001080788DF802001E48009901F0DD
:104FB00079FEC8200346462200901146194800F0A9
:104FC00092FEA06A0068052816D11648CC3805F074
:104FD0004FF9144ACC3A107802F054FD13280BD83C
:104FE000507802F04FFD0C2806D2A06A0C49C06927
:104FF000D431A162E064C861A86810B1A06A806879
:1050000058B1FBF727FF002005F040FAFDF72CFC14
:10501000BDE87C40012005F039BAFEF7D7FBF2E786
:105020000800002098050020810705D1642190FB2D
:10503000F1F201FB120141B94FF4C87190FBF1F29A
:1050400001FB120008B100207047012070470000EA
:105050001FB500231A461946684601F05FFF018814
:10506000ADF80C1080788DF80E002648039900F0FA
:1050700053FEFF231A461946684601F04FFF018888
:10508000ADF80C1080788DF80E001E48039901F0E1
:1050900009FE1C4801F017FC1B4B02AA01A9194884
:1050A00001F0B2F898B9BDF90810782201EBD1717E
:1050B000BDF90400A2EB61010AB200EBD070A0219F
:1050C000A1EB600001B2104B0E4800F02FFF012051
:1050D00005F0DCF94FF4FA6002F0F4FC09483830CE
:1050E000007800284FF0000002D0FDF7F7F91FBD4F
:1050F00005F0CCF9034801F0E6FB024801F03EFF61
:105100001FBD000098050020A65D010810B50F4CDA
:10511000A16A086910B1BDE81040004788880028DE
:1051200013D0002005F0B2F9A06A017E491C49B2F3
:1051300001768288914201DB00210176FDF794FB24
:10514000BDE81040012005F0A1B910BD0800002005
:1051500010B50F4CA06AC16811B1BDE810400847F6
:105160008088002813D0002005F090F9A06A017E05
:10517000491E49B20176002902DA0179491E0176F9
:10518000FDF772FBBDE81040012005F07FB910BDAE
:10519000080000202DE9F041040001D5002402E0C0
:1051A000142C00DD1424184D1848E7B22F70417AF2
:1051B000DFF85C801648202608F1280859B1202124
:1051C00002F0CEFE20B1C8F80060642002F07AFC44
:1051D0006F70BDE8F0810A2C09DD0D4818300660BB
:1051E000642002F06FFCEC2000EB440009E0202179
:1051F00002F0B6FE20B1C8F80060642002F062FC44
:1052000060006870E5E7000008000020D00500207D
:105210000004004870B50C4D01202870FEF748FFCF
:105220000A4C0020E071FEF70FFAFEF705FA206342
:10523000FEF702FAE063A87A002804D1BDE87040C6
:105240000A20FFF7A7BF70BDD0050020080000208E
:1052500010B5002005F01AF90648A0F525718862FE
:1052600000210176FDF700FBBDE81040012005F0AC
:105270000DB900009C02002070B502F04DFD3420F5
:1052800002F0FEFC104D284602F008FD342002F02A
:10529000F7FC0E4C4FF0FF3240212046FEF742FE55
:1052A00021461126086405E02168284602F044FDE5
:1052B000241D2D1D761EF7D2342002F0E1FCBDE83E
:1052C000704002F0E3BC000000F80108D0050020A7
:1052D00070B5114E0025114C86F82D50F08D60836D
:1052E0002846FFF757FF35700120A074A572FF20F4
:1052F00020762574E573002005F0C8F8A6F1380083
:1053000001F03CFEA6F1380001F0DDFA03F04CFD9F
:10531000FEF792F9206370BDD00500200800002040
:1053200010B588B000204FF48271CDE900100290D2
:105330004FF4007105900690CDE90310064C6946C4
:10534000204605F0E6F80021204605F0D3F8204677
:1053500005F0DAF808B010BD0038004070B5002242
:1053600011461C2003F068FC1C4C204605F08AFB0B
:105370000021204605F0EBFB0021204605F02EFC25
:105380000021204605F0F7FB0421204605F0EBFB49
:105390000821204605F0FBFB4021204605F08AFB52
:1053A0004FF41651204605F037FB204605F08AFBE6
:1053B00040F206752946204605F089FB0028F9D001
:1053C0000521204605F08EFB0421204605F08AFBCE
:1053D000BDE87040642002F075BB0000004400404E
:1053E0001FB500231A461946684601F097FD01884B
:1053F000ADF80C1080788DF80E002648039900F067
:105400008BFCFF231A461946684601F087FD018888
:10541000ADF80C1080788DF80E001E48039901F04D
:1054200041FC1C4801F04FFA1B4B02AA01A9194884
:1054300000F0EAFE98B9BDF90810782201EBD171AD
:10544000BDF90400A2EB61010AB200EBD070A0210B
:10545000A1EB600001B2104B0E4800F067FD012087
:1054600005F014F84FF4FA6002F02CFB09483830CC
:10547000007800284FF0000002D0FDF72FF81FBD84
:1054800005F004F8034801F01EFA024801F076FD29
:105490001FBD000098050020406301082DE9FF4F63
:1054A000804600699BB000287CD082781792022A3F
:1054B00001D0012A76D1D8F8142007920022169242
:1054C0006FF063020C92C0780D9002910020CFE241
:1054D0001E98435C002009901890D8F8100005240D
:1054E000611C425C015D02EB012111F0FF0129D03A
:1054F000E21C855CA21C9942825C05EB02220FFA39
:1055000082F97CD1B9F1080F1CDB01211891211D12
:1055100004F1050B435C099310F80B10E71D01F033
:105520007F020492A21D0025825C0A92C05D049A4B
:1055300000F07F0A9A1A1798A2EB0A06022802D0F6
:10554000012871D06FE2C8096FD00A9A0D99A9F1AC
:105550000800891A0026A1EB0A070E96119096E022
:10556000D8F8100001190E980830085C95FBF7F187
:105570000FFA81FB10F0C00F58D000F03F0A05EB86
:105580000A010DB2B14606EB0A010EB2000678D54B
:10559000289840B1404698F8193098F8182098F8A3
:1055A000171007E077E20798C0F30743C0F307221C
:1055B000C1B2404601F07EFB1D990A980844109044
:1055C0003844401E00B219900299049808440B9088
:1055D00018E01099199B01EB090002B20B9858448E
:1055E00001B2404601F0A5F9A7EB0901AAEB0100C1
:1055F0000FFA80FA4FF000090BF1010000E046E2DB
:105600000FFA80FB09EB0A00B842E2DC109848442C
:1056100000EB0A0102B20B98491E0BB2584401B2CA
:10562000404601F086F92CE0D5E036E0289949B1F2
:10563000404698F8193098F8182098F8171001F09B
:1056400039FB09E08006020E4046079900F0BEFAD9
:105650000146404601F026FB1D990A980844304453
:1056600002B204990298014401EB0B0001B24046DA
:1056700001F038FB6D1C761C2DB236B201E0F01B38
:1056800006B2BE42FBDA0E98401C00B20E900E9994
:1056900011988142FFF664AFC5E10027A9F1080027
:1056A00011900E97384691E0D8F8100001190E9825
:1056B0000830085C95FBF6F10FFA81FB10F0C00F83
:1056C00053D000F03F0A05EB0A010DB2B94607EBD3
:1056D0000A010FB2000673D5289838B1404698F8F1
:1056E000193098F8182098F8171006E00798C0F3BA
:1056F0000743C0F30722C1B2404601F0DBFA049928
:105700000298084410903044401E00B219900A9943
:105710001D9808440B9016E00B981099584402B25B
:1057200001EB090001B24046199B01F0EAF8A6EB33
:105730000901AAEB01000FFA80FA0BF101004FF00A
:1057400000090FFA80FB09EB0A00B042E4DC109874
:10575000484400EB0A01491E0BB20B9959440AB2A6
:1057600001B2404601F0CDF82AE0289949B14046FF
:1057700098F8193098F8182098F8171001F09AFA4C
:1057800009E08006020E4046079900F01FFA014624
:10579000404601F087FA1D990A98014401EB0B007D
:1057A00002B2029904980844384401B2404601F01C
:1057B00099FA6D1C7F1C2DB23FB201E0B81B07B2F5
:1057C000B742FBDA0E98401C00B20E901199884245
:1057D000FFF66AAF27E1289840B1404698F81930A3
:1057E00098F8182098F8171001F064FAD8F810000B
:1057F000C15DC9097ED010F80B00C00962D00A9AB9
:105800000D99A9F10800891A00261190A1EB0A0749
:105810000E96304652E000BFD8F8100001190E98DD
:105820000830085C00F07F09C00939D095FBF7F01B
:105830000FFA80FB02990498B246084410900A9926
:105840001D9808440B901BE0384403B20B98109944
:10585000504402B201EB0B0001B2404601F069F87E
:10586000A7EB0A00A9EB00010FFA81F929183044CF
:1058700006B20BF101000DB24FF0000A0FFA80FBE7
:105880000AEB0900B8420B98DEDC504400EB09013A
:1058900002B210980BB2584401B2404601F049F8E8
:1058A00005EB090005B206EB090000E0F01B06B2AB
:1058B000BE42FBDA0E98401C00B20E90119988424D
:1058C000AADBB0E00027A9F108000E97109055E080
:1058D000D8F81000BA4601190E980830085C95FBFC
:1058E000F6F100F07F09C0090FFA81FB38D0029968
:1058F000049800E047E008440B900A991D9808447A
:10590000CDF844000AEB0900B0421CDD0B9830448E
:1059100003B21198584402B20B98504401B2404669
:1059200000F0EFFFA6EB0A00A9EB00010FFA81F9E6
:105930002918384407B20BF101000DB24FF0000AEC
:105940000FFA80FBDEE70B9901EB0A0000EB09017F
:105950000BB2119959440AB201B2404600F0D1FF8E
:1059600005EB090005B207EB090000E0B81B07B220
:10597000B742FBDA0E98401C00B20E900E991098B8
:105980008142A5DB4FE00027A9F108000597BB463F
:105990000F9045E0D8F8100001190BF10800085CE1
:1059A0000E9001E0B81B07B2B742FBDA0598B94682
:1059B00090FBF6F00FFA80FA5FF0000509EB0500A6
:1059C000B04205D10AF10100C5F100090FFA80FAD1
:1059D000C5F10701012088400E9900B2014211D1A2
:1059E0000A991D98014401EB0A00411C0BB202B256
:1059F00004990298014401EB0900284401B2404691
:105A000000F097FF6D1CEDB2082DD7D30BF101000C
:105A10000FFA80FB0598083000B208373FB20590B6
:105A20000F998B45B6DB299880B1169940566FF0D7
:105A3000630188420ADD0C90169A2998104490F967
:105A40000100884202DD501C00B21690189860B127
:105A500002990998084400B202900C9810F1640F62
:105A600003DD0299084400B202901598401C00B270
:105A700015901E98FAF746FD159988423FF628AD15
:105A800007991FB04046BDE8F04F01F00BB904EB99
:105A900009010CB224E51FB0BDE8F08F2DE9F347F2
:105AA00005462DED020B2DED068BB0EE408AF0EE93
:105AB000608A88B09FED410B9FED429B9DF8469018
:105AC00053EC102B51EC180B05F022FC09D2BDF859
:105AD000440040EA094008B0BDEC068B04B0BDE8C4
