:020000040800F2
:10000000E02100204D0200088D3700084D36000821
:100010001D3700086D1500082D3D00080000000088
:10002000000000000000000000000000E9390008A6
:100030003917000800000000D1370008EB3900082C
:1000400067020008670200083139000867020008EB
:1000500067020008670200086702000867020008DC
:1000600067020008670200086702000867020008CC
:1000700067020008670200086702000867020008BC
:10008000670200086702000800000000513B0008FA
:10009000670200086702000867020008670200089C
:1000A000670200086702000867020008670200088C
:1000B000CD3C0008000000006702000800000000BE
:1000C000670200080000000067020008000000004E
:1000D0000000000000000000000000000000000020
:1000E000000000000000000067020008000000009F
:1000F0000000000000000000000000000000000000
:10010000670200080000000000000000000000007E
:1001100000000000000000000000000000000000DF
:1001200000000000000000000000000000000000CF
:1001300000000000000000000000000000000000BF
:10014000000000000000000000000000670200083E
:1001500000F002F800F06AF80AA090E8000C82446F
:100160008344AAF10107DA4501D100F05FF8AFF24C
:10017000090EBAE80F0013F0010F18BFFB1A43F085
:100180000103184714F0010034F001000A444FF055
:10019000000C10F8013B13F0070408BF10F8014BE6
:1001A0001D1108BF10F8015B641E05D010F8016B2B
:1001B000641E01F8016BF9D113F0080F1EBF10F88F
:1001C000014BAD1C0C1B09D16D1E58BF01F801CBB2
:1001D000FAD505E014F8016B01F8016B6D1EF9D535
:1001E0009142D6D37047000000230024002500264A
:1001F000103A28BF78C1FBD8520728BF30C148BF8A
:100200000B607047642900F0A580732900F08D838E
:10021000002070471FB50BF016FA9DE8030000F0B0
:100220001DFD00F0DDFA1FBD10B510BD00F0D0FCC3
:100230001146FFF7EFFF08F09FFC00F045FD03B407
:10024000FFF7F2FF03BC00F071FD00000948804792
:1002500009480047FEE7FEE7FEE7FEE7FEE7FEE7A8
:10026000FEE7FEE7FEE7FEE704480549054A064BC0
:1002700070470000F939000851010008E00700202C
:10028000E0210020E01D0020E01D00200FB41CB57F
:10029000074B06AA7B4469460090059800F01BFBBB
:1002A0000020694600F02AFB1CBC5DF814FB00002E
:1002B0006506000070B5044685690068C10601D571
:1002C000302600E02026C00707D070BDD4E9012108
:1002D00030469047206A401C20626D1EF6D570BDE6
:1002E00070B5044685690078C00707D170BDD4E9B0
:1002F000012120209047206A401C20626D1EF6D507
:1003000070BD70B50C460546012A05D028788006D8
:1003100000D5EA69002302E0012305E05B1C93425B
:1003200002D2E05C0028F9D1A869E618C01AA861D9
:10033000286A184428622846FFF7BCFF04E0D5E984
:10034000012114F8010B9047B442F8D32846FFF777
:10035000C7FF70BD2DE9F0410646002410687529DD
:10036000314616A510D0AFF30080002802DA4042D3
:1003700013A507E031688A0701D512A502E04907F5
:1003800004D511A5012401E0AFF3008000210A2269
:1003900006F1240709E0B0FBF2FCB0FBF2F302FB2C
:1003A0001C00303078541846491C0028F3D12346ED
:1003B0002A463046BDE8F04100F02FBA00000000A8
:1003C0002D0000002B000000200000002DE9F05F50
:1003D000894604464FF0000ADFF824B1FB44C0F818
:1003E00020A02046E168884700287DD0252806D037
:1003F000D4E901219047206A401C2062F1E70025E2
:100400005F462046E16888472028064607DB312EF4
:1004100005D2B81910F8200C08B10543F1E7A80778
:1004200001D525F00405C4F81CA00027C4F818A0C5
:100430002A2E09D0304607F0EDF938B304EB8708CF
:10044000303EC8F8186019E059F8041B204604EB48
:1004500087029161E1688847012F064618D1E0695B
:10046000002820DA25F020051DE0D8F8180000EB60
:10047000800006EB40003038C8F818002046E168DC
:100480008847064607F0C6F90028EED1012F0AD0AA
:100490002E2E08D12046E16888477F1C0646022F91
:1004A00045F02005C4DBA069002803DA404245F08E
:1004B0000105A061E80701D025F01005A6B1A6F15D
:1004C0004100192802D8203645F400654A463146D5
:1004D000204625604D46FFF795FE60B1012807D004
:1004E000ED1D25F0070000E007E000F1080978E7BE
:1004F00005F1040975E730467AE7206ABDE8F09F08
:10050000A8EC010010B5431C02E010F8011B71B10A
:100510008107FAD14FF0013202C88C1A8C4314EAD9
:10052000C211F9D0C01A0A0603D0C01E10BDC01AED
:1005300010BD0A0401D0801E10BD0902FCD0401E6F
:1005400010BD032A40F2308010F0030C00F015803B
:1005500011F8013BBCF1020F624498BF11F801CBC6
:1005600000F8013B38BF11F8013BA2F1040298BF2B
:1005700000F801CB38BF00F8013B11F0030300F095
:10058000D881083AC0F0088051F8043B083A51F885
:1005900004CBA0E80810F5E7121D5CBF51F8043B3E
:1005A00040F8043BAFF30080D20724BF11F8013BB1
:1005B00011F801CB48BF11F8012B24BF00F8013B13
:1005C00000F801CB48BF00F8012B704702F0FF0391
:1005D00043EA032242EA024200F002B84FF000026E
:1005E0000429C0F0128010F0030C00F0D681CCF189
:1005F000040CBCF1020F18BF00F8012BA8BF20F8B3
:10060000022BA1EB0C0100F0C8B95FEAC17C24BF4A
:1006100000F8012B00F8012B48BF00F8012B7047B0
:10062000014900F0DFB900005407002010B503684D
:100630001C1404EB21449BB289B2194494FBF2F3DD
:1006400002FB134394FBF2F401EB034393FBF2F13F
:1006500002FB113193FBF2F301E05B1E1144002910
:10066000FBDB016003EB044010BDF0B504464FF026
:10067000FF3585B00068049060680290A068039020
:10068000E068019020690090666906F18040B0F151
:10069000004F7CD83C22002104A8FFF7C7FF3C2272
:1006A000014602A8FFF7C2FF1822014603A8FFF780
:1006B000BDFF411E40F2B55201A8FFF7B7FF0C2263
:1006C000074668460021FFF7B1FF414B00EB87006A
:1006D000304400267B4411E0511A01910099491CD5
:1006E0000229009102D00C2908D105E0810705D02C
:1006F0000199491C019101E0401C00960099019A62
:10070000595C9142E8DD0099012906D11C2A04D1E7
:10071000810702D00221CDE90016A0F146018B2904
:100720003CD2DDE90061002202E09F5C521C3944AA
:10073000B242FADB012E02DD820700D0491E40F2F0
:10074000B55340F26D16C21700EB927292105A43E5
:1007500000F0030303FB062283070A4400D1521E64
:10076000039E02EB4203049F06EBC303029EC3EB0E
:10077000031306EB8303174E33441E149BB2C6EBE0
:100780000616C3EB0313B60007EB830300E005E096
:1007900006EB134666F31F43360C02D0284605B01D
:1007A000F0BD80C4029E40C4039E40C4019E761CDE
:1007B00044F80C6B009E44E902600720521C92FB37
:1007C000F0F600FB162084E823001846E7E7000057
:1007D00004EA0100A039CEFD704770477047000061
:1007E00070B5064C7C44064D7D4403E020682044EF
:1007F0008047241DAC42F9D170BD0000D0E9010052
:10080000D4E9010010B500F04DF9006810BD10B535
:10081000044600F047F9046010BD2DE9F0470D468D
:1008200099469246044600F124080168880604D5DA
:10083000E06921F01001216000E00120A84201DD03
:10084000471B00E00027A1697A1902EB0900081A8A
:10085000A0612078C00602D42046FFF72BFD0026B9
:1008600008E0D4E901211AF806009047206A401CEC
:10087000761C20624E45F4DB2078C0060AD520465F
:10088000FFF718FD06E0D4E9012130209047206AE7
:10089000401C2062381EA7F10107F4DC07E0D4E910
:1008A000012118F805009047206A401C2062281E8C
:1008B000A5F10105F3DC2046FFF712FD20780006C4
:1008C00002D50220BDE8F0870120FBE701694A1C40
:1008D00002610878704700B58FB0CDE90131002181
:1008E000059105497944CDE9031011466846FFF7A3
:1008F0006DFD0FB000BD0000E5FFFFFF0A6802F8C4
:10090000010B0A60704710B5436913B1AFF3008063
:1009100001E0FFF7F6FC012010BD127800F1240180
:100920000A7000224A700122EDE711684FF0FF3291
:10093000E9E710B5203AC0F00B80B1E81850203A32
:10094000A0E81850B1E81850A0E81850BFF4F5AF6F
:100950005FEA027C24BFB1E81850A0E8185044BFF9
:1009600018C918C0BDE810405FEA827C24BF51F866
:10097000043B40F8043B08BF7047D20728BF31F85A
:10098000023B48BF11F8012B28BF20F8023B48BFAB
:1009900000F8012B70474FF0000200B51346944653
:1009A0009646203922BFA0E80C50A0E80C50B1F1C7
:1009B0002001BFF4F7AF090728BFA0E80C5048BFDB
:1009C0000CC05DF804EB890028BF40F8042B08BF79
:1009D000704748BF20F8022B11F0804F18BF00F875
:1009E000012B704770B50C46016800204A1C3ED0B0
:1009F0003C22B1FBF2F302FB1313B1FBF2F12360D3
:100A0000B1FBF2F302FB1313B1FBF2F118226360A6
:100A1000B1FBF2F302FB1313B1FBF2F146F2E03249
:100A20000A440721A360B2FBF1F301FB132140F25A
:100A3000B553B2FBF3F5A161B2FBF3F103FB152251
:100A40008900B2F5B77F08D39B10521EB2FBF3F5B5
:100A50002944B2FBF3F503FB15220F4BE261616100
:100A600089077B440CD03B2A0AD3521C08E02C2176
:100A70002046FFF790FF0120E0600AE0521A401C78
:100A8000195C9142FAD9521CC4E903204FF0FF309F
:100A90002062204670BD000076E6010000487047E5
:100AA000B4070020004870478007002070B5064654
:100AB00000F0B4F8056806F10B0020F00704B4421A
:100AC0009CBF002070BD2B466A68BAB11068A04276
:100AD00010D304F1080188423CBF5068586007D326
:100AE0005168101941601168091B01605860146059
:100AF000101D70BD13465268002AE7D121462846D2
:100B000000F098F80028DED170BD70B50446051FCE
:100B100000F084F80068002C14BF446870BD002CFD
:100B200018BFAC423CBF20466468F8D301680A187D
:100B3000AA4218BF456003D12A68054611440160E6
:100B400028684119A1421CBF6C6070BD6168696072
:100B500021680844286070BDAFF3008010B500F034
:100B60000EF8016919B100220261884701E080682E
:100B7000804700F0B2F8000010B500F0AEF870B594
:100B800000F050F804680546A4B92020FFF78EFF56
:100B9000040011D0094900202C60C4E90001084973
:100BA000A1602073206160610649A06109B100F075
:100BB0009FF8E061204670BD00F08FF80000000053
:100BC000790B0008000000000048704780070020F3
:100BD0007546FFF7F9FFAE4605006946534620F01B
:100BE0000700854618B020B5FFF73EFBBDE8204062
:100BF0004FF000064FF000074FF000084FF0000BD9
:100C000021F00701AC46ACE8C009ACE8C009ACE88B
:100C1000C009ACE8C0098D46704700000048704725
:100C20008807002000487047BC07002070477047C5
:100C30007047704738B504460A4600206946AFF34E
:100C40000080002808BF38BD02460099204600F009
:100C500073F8012038BD012000F08FB8F8B5AFF36C
:100C60000080054600200C46102000BF0646A8194B
:100C7000A0420DD9324669460020AFF3008007003C
:100C800008BF00F07AF80098A04218BF0546C419C2
:100C9000FFF7C4FF05600746F01D20F00700461966
:100CA000284600F00AF8B44208BFF8BDA21B31463E
:100CB0003868BDE8F84000F03FB800210160C0E9A5
:100CC000011070471020704710B50446AFF3008044
:100CD0002046BDE81040FFF7B2BA10B5002000F082
:100CE00045F8FFF7A1FABDE81040012000F01EB85A
:100CF00010B58820FFF7DAFE002801D0002101702E
:100D000010BD802902D808B1017809B100207047D0
:100D1000012100F8081B704718B100F10802914248
:100D200001D0002070470021017070470149182050
:100D3000ABBEFEE726000200034640688C46002852
:100D400018BF88423CBF03464068F8D3186818446F
:100D5000884207D00CF1030020F00700001D411A63
:100D6000521A0146081D0A60FFF7CFBE10B500F009
:100D700011F8BDE8104000F008B810B500F022F8F6
:100D8000BDE8104000F001B87047002801D0FFF71F
:100D9000CDBF704710B5002102A000F03BF8012044
:100DA00010BD0000534947414252543A2041626EFF
:100DB0006F726D616C207465726D696E6174696FBC
:100DC0006E00000010B5012805D0002103A000F03E
:100DD00021F8012010BD09A1F8E70000534947524E
:100DE000544D454D3A204F7574206F6620686561FB
:100DF00070206D656D6F7279000000003A204865C3
:100E00006170206D656D6F727920636F727275709D
:100E10007465640070B505460C460A2000E06D1C40
:100E200000F011F835B128780028F8D102E0641CF0
:100E300000F009F814B120780028F8D1BDE870401E
:100E40000A20AFF3008008B569468DF80000032042
:100E5000ABBE08BD2DE9FE4FFE4DFF4E05F11C0E49
:100E6000A86A9EF80120002701684FF0010B05F1E8
:100E70001E0A06F10E0906F14404352970D030DC53
:100E80001F2962D01BDCF34A0D2902F1540292782B
:100E900055D006DC0B2950D00C297CD1F2700120F2
:100EA00009E015294DD0162975D186F80AB0007EC3
:100EB000401CF0720220BDE8FE4F03F011BF202954
:100EC0004FD02B2968D0332967D0342963D1727170
:100ED000002A7CD0B77286F82D706F7102F0B8FBD3
:100EE000DDE7DC4B40F2B9181C33A1F2B91C93F9D1
:100EF000013041456CD00FDCDFF85C83A1F58071D7
:100F000008F170089B397CD001297BD00A297AD05E
:100F10000B2940D13272C2E7BCF1450F74D0BCF14D
:100F2000460F72D0BCF1590F70D0ACF5606CBCF5B7
:100F3000CB7C30D108F0CEFEB1E7B270AFE73271B2
:100F4000ADE7B77214206872B4E786F82D20002A46
:100F5000A5D006F0F5FE032800D137737771BCE702
:100F6000A1E2017E491C49B2017601297ED1218985
:100F7000A088C1EB011100EB8100F0856883B648C1
:100F8000383805F08AFCFF231A46194602A805F0F6
:100F9000AFFF018802E01AE1AAE094E2ADF8001088
:100FA00080788DF80200AC480099383805F064FE6E
:100FB0000C215420CDE90001A7485C234E22722168
:100FC000383804F0CFFEA448A449383801E068E27C
:100FD0009FE205F0A8FC00231A46194602A805F076
:100FE00087FF0188ADF8001080788DF802009A48DC
:100FF0000099383805F040FEFF231A46194602A82A
:1010000005E077E092E179E268E270E253E205F010
:101010006FFF0188ADF8001080788DF802008E48CF
:101020000099383804F062FE8B4800228CA13838D1
:1010300004F0EBFD80468848383804F08EFE00EB63
:10104000D0727821A1EB62010AB208EBD8719E2020
:10105000A0EB610001B2804881A33838009705F009
:101060004AFCFF231A46194602A800E02DE005F0CD
:101070003FFF0188ADF8001080788DF802007648B7
:101080000099383805F0F8FD00231A46194602A8E1
:1010900005F02EFF0188ADF8001080788DF8020071
:1010A0006D480099383804F021FE4FF47A7006F04C
:1010B000F3FC6948383805F0F0FB02F0C1FA286308
:1010C00002F0BEFAE86202F0C3FAA86A007E0228C3
:1010D0007DD12189A088C1EB011100EB8100F08551
:1010E0006883012003F0FCFDBDE8FE4F02F0B0BABA
:1010F000F271D4E6017E491C01765748703008F041
:10110000BBFEA86A90F91800401E02287DD204F1A7
:101110000C0007C807F051F878B32069401E206121
:101120006069A0F26C7060614B484430FFF79DFA33
:1011300000906846FFF774FA806900B9072088F8C4
:101140000300207D43466438C0B206F099FC187055
:10115000207C401CC0B206F093FC5870207B06F047
:101160008FFC98703C48703008F0FCFE2069401CF1
:101170002061606900F26C7060613748383805F0B2
:101180008CFBFF231A46194602A805F0B1FE018820
:10119000ADF8001080788DF802002F48009938389B
:1011A00005F06AFD0C215420CDE900012A485C239A
:1011B0004E227221383804F0D5FD274827493838A7
:1011C00005F0B1FB00231A46194602A800E0A8E08A
:1011D00005F08EFE0188ADF8001080788DF80200D1
:1011E0001D480099383805F047FDFF231A46194677
:1011F00002A805F07DFE0188ADF8001080788DF81A
:10120000020015480099383800E054E004F06EFD03
:101210001148002212A1383804F0F7FC06460E48A7
:10122000383804F09AFD00EBD0717820A0EB610013
:1012300002B206EBD6719E20A0EB610001B2064817
:1012400007A33838009705F056FBFF231A461946C6
:1012500002A807E008000020F80500209E9B010876
:101260004F4B000005F044FE0188ADF80010807877
:101270008DF80200B848009905F0FEFC00231A46DC
:10128000194602A805F034FE0188ADF800108078F8
:101290008DF80200B048009904F028FD4FF47A70F0
:1012A00006F0FAFBAC4805F0F8FA02F0C9F9286339
:1012B00002F0C6F9E862A86A007E032831D104F181
:1012C0000C0007C806F079FF68B32069401E206152
:1012D0006069A0F26C7060619F487C30FFF7C5F9CF
:1012E00000906846FFF79CF9806900B9072088F8EC
:1012F0000300207D43466438C0B206F0C1FB18707D
:10130000207C401CC0B206F0BBFB5870207B06F06E
:10131000B7FB98709048A83008F024FE012003F035
:10132000DFFCBDE8FE8FA86A0776FAE7017E491C5C
:1013300001768948A83008F09FFDA86A007E012840
:101340007ED1207A06F09CFB88F804004346207981
:1013500006F096FB587180489F71A83008F002FE95
:101360007D4805F09AFAFF231A46194602A805F0AF
:10137000BFFD0188ADF8001080788DF80200764836
:10138000009905F079FC0C215420CDE900015C2383
:101390004E227221704804F0E5FC70496E4805F059
:1013A000C2FA00231A46194602A805F0A1FD0188D9
:1013B000ADF8001080788DF802006748009905F0BC
:1013C0005BFCFF231A46194602A805F091FD01882F
:1013D000ADF8001080788DF802005F48009904F0A5
:1013E00085FC0022AFF288115B4804F00EFC064633
:1013F000594804F0B2FC00EBD0717820A0EB6100FA
:1014000002B206EBD6719E20A0EB610001B2AFF2F2
:10141000B0135148009705F06EFAFF231A4619469B
:1014200002A805F065FD0188ADF8001080788DF800
:1014300002004948009905F01FFC00231A4600E00D
:101440001AE0194602A805F053FD0188ADF8001016
:1014500080788DF802004048009904F047FC4FF472
:101460007A7006F019FB3C4805F017FA02F0E8F82C
:10147000286302F0E5F8E862A86A007E02287FF49B
:1014800054AF207A06F0FCFA88F80400434620792D
:1014900006F0F6FA587130489F71A83008F062FDE6
:1014A000FDE43773FBE42E49027EC861B018A962DF
:1014B000407D087635E7017EC06990F918202648FE
:1014C0004D301154EBE490F918208AF8002024499B
:1014D00012F809208AF80120403904E02049027EF0
:1014E0008AF801202039C861A9620F7619E79AF9B4
:1014F00000209AF8011002F80910D0E423B100206E
:10150000B07118B12F75CAE40120F9E785F814B05D
:10151000C5E47146BBB1027E521C52B20276012A6A
:1015200015D0022AC6D102F013FA03F09BFEBFF3D6
:101530004F8F0C4801680C4A01F4E06111430160CF
:10154000BFF34F8FFEE7BDE8FE4F02F0E9B881F828
:1015500001B08EF800B0E4E6C00500209E9B0108B3
:10156000A00100200CED00E00400FA05FEE70000F9
:1015700070B5FF2388B015460E4604461A46194634
:1015800007A805F0B5FC0188ADF8001080788DF84B
:1015900002001C48009905F06FFB22461AA101A821
:1015A000FEF774FE1949174805F0BDF9002201A99C
:1015B000144804F02AFB044600EBD470A521A1EBEB
:1015C000600006440020009001AB05F13C0231B2FE
:1015D0000C4805F069FB0E490A4805F0A4F90DA076
:1015E0000DA30068069006A80090301901B20C46C1
:1015F00005F13F02034805F057FB0848448408B052
:1016000070BD0000C005002025640000C3800108F3
:10161000D4990108F99C0000B043000008000020A4
:101620000848816A8A88002A0AD091F91800431C68
:101630005BB20B76934201DB00220A7603F018B905
:1016400070470000080000200848816A8A88002A44
:101650000AD091F91800431E5BB20B76002B01DA19
:10166000521E0A7603F004B97047000008000020FB
:10167000184810B5806A184C90F91800022803D059
:10168000012811D0B8B120E0E068401EE0601CD114
:101690001F2001E0E068401EE060D4E9041206F07B
:1016A0008CFD0028F6D010E02069401E20610CD18E
:1016B0000C20206109E0606940F2E371401E606126
:1016C000884202DA40F633006061BDE8104000F065
:1016D00035B80000080000203C06002070B5144812
:1016E000144C0125806AD4E9041290F918000228EC
:1016F00003D0012809D070B116E0E068401CE0601A
:1017000006F05BFD80B9E5600EE0491C21610D2902
:101710000AD1256108E0521CA2F5006062613438EC
:1017200002D140F2E3706061BDE8704000F006B89D
:10173000080000203C060020704700002DE9F04F13
:10174000FE4FADB0B86A00680B2806D00C2804D054
:101750000D2802D0FA4805F0A0F8B86AF74C40F21C
:101760009B1200681C3401250026A0F29B114FF04B
:10177000A0094FF0020A04F13C0B90427ED01EDC1F
:1017800020287CD012DCDFF8B4836FF0180A08F14F
:1017900054080D2874D004DC0B28FBD00C282ED163
:1017A000BBE016286DD01F2829D16DE12B28FCD075
:1017B000332867D0342866D0352820D1E5E3DFF818
:1017C0007C83632908F11E087DD00CDC0B29ECD04A
:1017D00004DC0129D5D00A2911D1DCE11E2973D0FE
:1017E0001F290CD107E364296FD0782477296DD0A5
:1017F000B1F5137F05D0A1F57061B43967D0D1A0E0
:10180000C4E3FF231A4619461AA805F071FB0188A4
:10181000ADF8001080788DF80200C948009905F0F5
:101820002BFA0C215420CDE900015C234E227221B9
:10183000C34804F097FAC749C14805F074F800237B
:101840001A4619461AA805F053FB0188ADF8001096
:1018500080788DF80200BA48009905F00DFAFF2350
:101860001A4619461AA805F043FB0188ADF8001086
:1018700080788DF80200B248009905E0E1E1E3E1EB
:1018800051E059E03EE3A6E004F030FA0022B2A1B4
:10189000AB4804F0BAF9ADF82800A94804F05DFAA5
:1018A000ADF81C0000EBD070BDF92810A4EB60006F
:1018B00002B201EBD1709E21A1EB600001B2A6A3A0
:1018C0009F48009604E0F0E3C1E1EFE3EFE3EDE2CF
:1018D00005F011F8FF231A4619461AA805F008FB6F
:1018E0000188ADF8001080788DF8020094480099C6
:1018F00005F0C2F900231A4619461AA805F0F8FAAD
:101900000188ADF8001080788DF802008C480099AD
:1019100004F0ECF92DB0BDE8F08F03F01FF88FA0B4
:1019200001F0F8FB01E003F019F898F902000F222A
:10193000514601F01DFCEDE78CA001F08DFBB86A6B
:1019400090F91800411C01EB4101890000EB800077
:1019500001EB8000ADF82800002423E0784804EB78
:101960004405E83828440188ADF8001080788DF8E7
:1019700002007348009905F07FF9BDF928005A214B
:10198000009100EBD071A9EB610000EB850004EB46
:10199000840100EB810001B20C234B22684804F063
:1019A0008CF9641CB86A90F91800401CA042D5DC80
:1019B000FF231A4619461BA805F09AFA0188ADF8CC
:1019C000001080788DF802005D48009905F054F908
:1019D00002F0C4FF9EE7002167A001F06BFB5D49A8
:1019E000574804F0A0FF00231A4619461DA805F029
:1019F0007FFAFF2307461A4619461CA805F078FA15
:101A0000014606953888ADF81400B8788DF81600B0
:101A10000888ADF8100088788DF81200607800B161
:101A2000012058A10091CDE9010664231A46194608
:101A30001420039601F0F4FB00231A4619461CA853
:101A400005F056FAFF2307461A4619461DA805F069
:101A50004FFA06953988ADF81410B9788DF816103C
:101A60000188ADF8101080788DF81200607848B1C8
:101A7000002045A10091CDE9010664231A461946CC
:101A8000039658E00120F4E732492D4804F04BFF5B
:101A900000231A4619461FA805F02AFAFF23074615
:101AA0001A4619461EA805F023FA06953988ADF89E
:101AB0001410B9788DF816100188ADF810108078E0
:101AC0008DF81200207800B10120617801B1012168
:101AD0002CA2CDE90021CDE9020664231A46462155
:101AE000142001F09DFB00231A4619461EA805F09C
:101AF000FFF9FF2307461A4619461FA805F0F8F913
:101B000006953988ADF81410B9788DF8161001884B
:101B1000ADF8101080788DF81200207868B10020A0
:101B2000617899B3002118A2CDE900216423CDE9A1
:101B300002061A464621C820E1E128E008000020FC
:101B4000C00500204E6F7420696D706C656D656E08
:101B5000746564009E9B01084F4B000045636F2035
:101B60003C20436F6D666F7274000000506F7765A4
:101B700072206C6576656C0050726F6772616D6D76
:101B8000650000004F4E00004F46460001E0012076
:101B9000C6E70121C7E7FE49FE4804F0C4FE002362
:101BA0001A46194621A805F0A3F9FF2307461A464D
:101BB000194620A805F09CF906953988ADF814104F
:101BC000B9788DF816100188ADF8101080788DF86E
:101BD0001200607800B10120EFA10091CDE901066B
:101BE00078231A463C211420039601F019FB0023A8
:101BF0001A46194620A805F07BF9FF2307461A4626
:101C0000194621A805F074F9014606953888ADF803
:101C10001400B8788DF816000888ADF810008878A0
:101C20008DF81200607850B10020DCA10091CDE960
:101C3000010678233C211A46B42003965FE1012077
:101C4000F3E702F0FFFB65E602F00EFD62E6D54920
:101C5000D04804F068FEB86A90F9180010B1012865
:101C60004DD072E000231A46194609A805F040F944
:101C7000FF2307461A46194608A805F039F9014618
:101C800006953888ADF81400B8788DF816000888E5
:101C9000ADF8100088788DF81200C3A0CDE90006D9
:101CA0004FF4A077002102963C233A46084603965B
:101CB00001F0B6FA00231A46194608A805F018F9EB
:101CC000FF2380461A46194609A805F011F9069522
:101CD000B8F80020ADF8142098F802108DF816100E
:101CE0000188ADF8101080788DF81200B3A0CDE90E
:101CF00000063C2302963A462D21039622E000235B
:101D00001A46194609A805F0F3F8FF2307461A46B4
:101D1000194608A805F0ECF806953988ADF81410B6
:101D2000B9788DF816100188ADF8101080788DF80C
:101D30001200A5A0CDE900063C2302964FF4A07244
:101D400000210396002001F06BFA9649914804F0B7
:101D5000EAFD00231A46194623A805F0C9F8FF2317
:101D600007461A46194622A805F0C2F80695398892
:101D7000ADF81410B9788DF816100188ADF8101070
:101D800080788DF81200607800B1012092A1009156
:101D9000CDE901065A231A4673211420039601F057
:101DA0003FFA00231A46194622A805F0A1F8FF239E
:101DB00007461A46194623A805F09AF801460695E3
:101DC0003888ADF81400B8788DF816000888ADF89A
:101DD000100088788DF81200607850B100207FA143
:101DE0000091CDE901065A2373211A46D2200396A9
:101DF00085E00120F3E76B49664804F094FD002379
:101E00001A46194625A805F073F8FF2304461A461A
:101E1000194624A805F06CF806952188ADF8141031
:101E2000A1788DF816100188ADF8101080788DF823
:101E300012006BA0CDE900064FF4A07702963C2378
:101E40003A4646210020039601F0EAF969A36BA205
:101E50006DA115A8FEF71AFA002215A94D4803F046
:101E6000D4FE0023ADF828001A46194624A805F030
:101E70003FF8FF2304461A46194625A805F038F80E
:101E800006952188ADF81410A1788DF816100188F8
:101E9000ADF8101080788DF8120015A8CDE9000675
:101EA0003C2302963A467321039627E03D49394880
:101EB00004F039FD00231A46194627A805F018F842
:101EC000FF2304461A46194626A805F011F80146D4
:101ED00006952088ADF81400A0788DF816000888C3
:101EE000ADF8100088788DF8120049A0CDE9000601
:101EF0003C2302964FF4A07246210396002001F085
:101F00008FF907E52348CC3807F0B6FF0024BA461E
:101F1000B046204838300719B87B072801D987F820
:101F20000E80FF231A46194628A804F0E1FF018815
:101F3000ADF8001080788DF802001648009904F082
:101F40009BFE3749134804F0EEFC00231A4619465D
:101F500029A804F0CDFFFF2306461A46194628A8F3
:101F600004F0C6FF06953188ADF81410B1788DF8ED
:101F700016100188ADF810102A4980788DF81200EB
:101F800051F83420CDE900284EE0ADE1FFE100003A
:101F90009E9B0108C00500203530250031303025DA
:101FA000000000002AAA0108526573657420616C64
:101FB0006C20646576696365000000007365747465
:101FC000696E67733F00000041726520796F75206C
:101FD000737572653F000000596573004E6F000015
:101FE00043757272656E74206669726D7761726591
:101FF0000000000031322E342E31000076657273FD
:10200000696F6E3A20000000257325730000000000
:10201000436F6E6E656374696E672E2E2E0000002E
:1020200080D90108BCB6000801EBC406CDF80880D1
:10203000CDF80C80B6F90610B6F904001E23322242
:1020400001F0EEF8EB49EC4804F06DFC00231A4671
:10205000194628A804F04CFFFF2381461A4619466A
:1020600029A804F045FF0695B9F800200146ADF80F
:10207000142099F802008DF816000888ADF81000B9
:102080008878DD498DF81200CC390220C978491EC4
:10209000A14201D1012200E00022DAF8281091F9D2
:1020A0001810A14204D1012303E017E092E025E1DA
:1020B0000023BF7B5BF82710CDE90013CDE9022098
:1020C000F08832231E3001B2B6F904001A4601F03E
:1020D000A7F8641C072CFFF61CAF1BE498F900005E
:1020E00007280CD2DFE800F004074A4D5053560091
:1020F0000021C2A001E00021C2A000F0DBFFBD4929
:10210000BD4804F010FCDFF8F092002409F1460904
:10211000C4EB0410002500EB800050300FFA80F76C
:10212000C5EB051000EB8000163000B200231490C0
:1021300005EB84061A4619462BA804F0D9FEFF23A6
:1021400002901A4619462AA804F0D2FE0146012040
:10215000069002980288ADF8142080788DF8160059
:102160000888ADF8100088788DF8120098F90020E2
:1021700012F80910B14210D101220FE00021A3A0F2
:10218000BBE70021A4A0B8E70021A6A0B5E7002185
:10219000A6A0B2E70021A8A0AFE70022A849896A5B
:1021A00091F91810B14201D1012300E000235BF83E
:1021B0002610CDE90013CDE9022A32231A4639460A
:1021C000149801F02DF86D1C042DA9DB641C022C61
:1021D0009EDB38E598F901006FF0040108280AD267
:1021E000DFE800F0040617191B1D1F2195A000E071
:1021F00097A000F05FFF99497F4804F094FB98F99D
:102200000100072811DA964900EB400001EBC007F6
:102210000DE094A0EDE796A0EBE798A0E9E79AA07F
:10222000E7E79CA0E5E79EA0E3E7734F4D37002466
:10223000AB46002504EB440000EB0410412101EB08
:10224000400004EB440A0FFA80F900BF05EB45019A
:10225000132000EB011805EB4A06324692A10BA8A9
:10226000FEF714F8B85D032802D907F806B005E0B8
:1022700004D14FF0FF031A46194603E04FF0000364
:102280001A46194629A804F033FECDF818B0B85DF7
:10229000594900EB4002D939114403280A88ADF8A6
:1022A000142089788DF81610BDF8A410ADF8101020
:1022B0009DF8A6108DF8121014D0002200200BA952
:1022C000CDE90010CDE9020220232A2249460FFA67
:1022D00088F000F0A5FF6D1C062DB7DB641C042CF4
:1022E000A7DBB0E40222E9E76FF002016FA000F083
:1022F000E1FE4FF0FF3002F0BBFAA4E402F02EFB47
:10230000B86A90F9180058B1012826D0022840D0A8
:10231000694B07AA0AA9384803F060FFC0B365E01B
:102320004F4B07AAA8330AA9334803F057FF90B9C7
:10233000BDF91C10BDF9280001EBD171A4EB6101BE
:102340000AB200EBD071A9EB6100454B01B2A83392
:10235000294803F0D5FD59A049E05A4B07AA0AA91C
:10236000254803F03BFF88B9BDF91C10BDF92800D2
:1023700001EBD171A4EB61010AB200EBD071A9EBC2
:10238000610001B24F4B1C4803F0BAFD4EA02EE095
:102390001AE04E4B07AA0AA9174803F01FFF88B995
:1023A000BDF91C10BDF9280001EBD171A4EB61014E
:1023B0000AB200EBD071A9EB610001B2434B0E48A9
:1023C00003F09EFD42A012E0BDF91C10BDF92800EB
:1023D00001EBD171A4EB61010AB200EBD071A9EB62
:1023E000610001B2344B044803F08AFD3BA000F0C9
:1023F00033FE28E488CD0108C00500204D6F6E64CF
:102400006179000054756573646179005765646E85
:102410006573646179000000546875727364617952
:1024200000000000467269646179000053617475B0
:10243000726461790000000053756E646179000078
:102440000800002050524553455420310000000040
:1024500050524553455420320000000080D90108F5
:10246000F4B6000850524553455420330000000094
:1024700050524553455420340000000050524553FB
:102480004554203500000000505245534554203635
:102490000000000050524553455420370000000012
:1024A000435553544F4D0000256400004355535489
:1024B0004F4D2032346800006B4D0108436F6D664C
:1024C0006F72740053BE000845636F002BC2000892
:1024D000416E74692D66726F737400004F666600FA
:1024E0002DE9F043CC4C0746CC4EA06A8BB010B11E
:1024F000707800287ED0012F06D0002007F0CAFD9A
:10250000C648383804F0C9F9FF231A46194607A807
:1025100004F0EEFC0188ADF8001080788DF8020020
:10252000BE480099383804F0A7FB307B4FF0000814
:1025300030B101280CD0022818D0032853D11EE056
:1025400005F022FC0F22002100F012FEB44B06E041
:1025500005F01AFC0F22002100F00AFEB14B0F22F9
:10256000AE480C21383803F0CBFC3CE005F00CFC05
:102570000F22002100F0FCFDAB4B0D22F0E7A74835
:10258000AA4B3C229621383803F0BAFCA348A8494C
:10259000383804F0C8F900231A46194609A804F08F
:1025A000A7FCFF2305461A46194608A804F0A0FC1C
:1025B000012106912988ADF81410A9788DF816101C
:1025C0000188ADF8101080789AA1CDE900188DF837
:1025D0001200CDF808802D235222A0219120CDF8A1
:1025E0000C8000F01DFE607D042801D1A06AE8B3D4
:1025F000002300E003E11A46194601A804F078FC24
:102600000188ADF8001080788DF8020083480099A9
:10261000383804F031FB317B1A2003294FF02B03AB
:1026200000903ED0608C88220C3001B27B48383854
:1026300003F043FBFF231A46194601A804F058FC97
:102640000188ADF8001080788DF802007348009979
:10265000383804F011FB707B58B1307B032808D068
:102660006E488C220C21744B383800E009E003F0EE
:1026700047FC96F82D00012816D07079012816D055
:102680001FE0307B6D4B032808D0608C89220C3012
:1026900001B26248383803F033FCDCE732220C2107
:1026A000F7E732220C21C1E7654B4D2204E0307B75
:1026B000644B03280FD0502258480C21383803F0BF
:1026C0001FFC307B03287CD0B07A05254FF00C0925
:1026D000012802D003E09322EEE7707930B1E07D6B
:1026E00013282AD80F281CD9042526E0F57A052DB1
:1026F0000AD0042D0AD0032D0BD0022D0DD0012DB0
:102700000DD084F8098019E0142000E010206072D8
:1027100001E084F80990002412E00820F7E7042083
:10272000F5E70A2801D3032507E0052801D902258A
:1027300003E008B1012500E00025E57000241DE05C
:10274000414904EB440008440188ADF8001080784A
:102750008DF8020031480099383804F08DFA3520A0
:10276000604300EBC4000B3001B22C483523D52266
:102770003838CDF8009003F0A0FA641CAC42DFDBDF
:10278000FF231A46194603A804F0B2FB0188ADF8EE
:10279000001080788DF8020020480099383804F045
:1027A0006BFA00231A46194603A804F0A1FB01881E
:1027B000ADF8001080788DF802001848009938387C
:1027C00000E017E003F092FA14482049383804F08A
:1027D000AAF8B07A012801D1707998B11CA01DA384
:1027E0000068019001A800900C48C2220B213838E3
:1027F00004F081F8012F02D0012007F04BFC0BB050
:10280000BDE8F08315A117A3D1E90001CDE90101CD
:1028100001A80090E8E7000008000020F80500206B
:10282000D82F0108722D0108852801086B4D010879
:102830002AAA01084F6666000B2501089A7801084C
:102840006D1B010836200108D80400204FEA01085A
:102850000202029C4155544F000000000202020295
:10286000029C0000435553544F4D00002DE9F04F9A
:10287000FE4D89B0A86A00287DD0806850B3FC481E
:1028800004F00BF802F06AF8A86AA946F84D8168CE
:1028900090F91800002401EB40100C21026806207A
:1028A000A02738354FF09F0A4FF078084FF03C0BC7
:1028B00026462B2A7DD021DC0D2A7BD00FDC0D2A69
:1028C00079D2DFE802F078447EB3B6B978787878C8
:1028D00078BCBF0009B0BDE8F04FFEF72FBF202A3B
:1028E0006AD006DC152A68D0162A67D01F2A62D162
:1028F00086E1292A7ED02A2AF9D160E240F2A51C7D
:10290000A2F2A513624576D010DC352A74D006DC1D
:102910002C2A72D0332A71D0342AE8D115E2A2F5DC
:1029200080729B3A6BD0012AE1D1A5E2162B67D0C9
:1029300006DC012B77D0142B76D0152BD7D156E29D
:10294000A3F57063AA3B70D0012BD0D18EE20E218B
:10295000CDE9001054235C221946104605F0AEF86C
:10296000FF231A46194605A804F0C2FA0188ADF8FB
:102970000010807800E0E1E28DF80200BC48009988
:1029800004F07AF9BB49BA4803F0CDFF0022BAA19E
:10299000B74803F03AF9ADF8080000EBD071AAEBA4
:1029A000610001B2B4A36E22B148009603F0A3FF08
:1029B00005E00FE2C0E058E22EE1C0E0EFE0B0A495
:1029C00085E2CDE9001054235C221946104605F03B
:1029D00075F81E2000900A2378228321A44803F072
:1029E0006CF9262000900A2370229321A04803F05E
:1029F00064F906E0E0E142E2DBE1F2E118E138E20D
:102A000001E22E2000900A236822A321984803F0B7
:102A100054F9362000900A236022B321944803F031
:102A20004CF99AA453E22DE2DEE1EFE1994D9AA42C
:102A300032E29B4D9BA42FE29D4D9EA42CE2A04D23
:102A4000A0A429E2FF231A46194604A804F050FA6C
:102A50000188ADF8001080788DF802008448009954
:102A600004F00AF900231A46194604A804F040FAB3
:102A70000188ADF8001080788DF802007C4800993C
:102A800003F034F94E200346009051227921784812
:102A900003F05EFF00231A46194604A804F028FA42
:102AA0000188ADF8001080788DF802007048009918
:102AB00004F0E2F8FF231A46194604A804F018FAB5
:102AC0000188ADF8001080788DF802006848009900
:102AD00003F00CF93C23462296216548CDF800B05E
:102AE00003F036FF322000903C234622A0216048AC
:102AF00003F0E3F8FF231A46194604A804F0F8F996
:102B00000188ADF8001080788DF8020058480099CF
:102B100004F0B2F800231A46194604A804F0E8F9B4
:102B20000188ADF8001080788DF8020050480099B7
:102B300003F0DCF865A4CAE1654D66A4ACE1CDE91B
:102B4000001054235C221946104604F0B7FFFF23FF
:102B50001A46194606A804F0CBF90188ADF8001012
:102B600080788DF802004248009904F085F85C49AD
:102B70003F4803F0D8FE00225AA13D4803F045F833
:102B8000ADF8080000EBD070A7EB600001B255A3D0
:102B90005D223748009603F0AEFE53A497E1CDE9DD
:102BA000001054235C221946104604F087FFFF23CF
:102BB0001A46194607A804F09BF90188ADF80010E1
:102BC00080788DF802002A48009904F055F84449AD
:102BD000274803F0A8FE002245A1254803F015F878
:102BE000ADF8080000EBD0709D21A1EB600001B2B0
:102BF0003FA35C221E48009603F07DFE3DA466E1E3
:102C000095F82D00002801D03C4D00E03C4D01D04E
:102C10003CA441E13EA43FE1CDE900104FF0540354
:102C20004FF085021946104604F048FF3CA44EE1DF
:102C30003E4B03AA02A90E4803F0D0FA88B9BDF9A9
:102C40000C10BDF9080001EBD172A8EB620100EB9A
:102C5000D0700AB2A7EB600001B2344B044803F015
:102C60004FF9334B03AA02A9014863E00800002092
:102C7000C005002080D901084D4F444500000000E8
:102C800048656174206D6F6465000000506F776562
:102C900072000000E5C8000854696D65720000000C
:102CA00079D9000853657474696E67730000000079
:102CB000EEE1000850726F6772616D6D6500000093
:102CC0009CB70008436F6D666F72740045636F00B8
:102CD0002BC20008416E74692D66726F7374000018
:102CE000B9CA0108410000004175746F000000007E
:102CF00043000000437573746F6D0000A1D4000899
:102D000059D0000854696D6572206973206F6E0098
:102D100054696D6572206973206F6666000000005B
:102D20005365742074696D6572000000C735010831
:102D3000F233010803F052FA28B9824B7922A32119
:102D4000814803F0DDF881A4C1E0824B03AA02A907
:102D50007D4803F043FA88B9BDF90C10BDF90800AD
:102D600001EBD172A8EB620100EBD0700AB2A7EBC5
:102D7000600001B2774B744803F0C2F8687908B17B
:102D8000754B00E0754B03AA02A96F4803F026FAC1
:102D900048B9687908B1704B00E0704B7B22A321E1
:102DA000694803F0ADF8687908B16DA48FE06DA4AF
:102DB0008DE06D4D6DA46FE06F4D70A46CE0CDE9BA
:102DC000001054235C221946104604F077FE6E4D25
:102DD0006EA461E0E87908B16E4D00E06E4D6FA41D
:102DE0005AE0704D70A457E0714D72A454E0CDE9E3
:102DF000001054235C221946104604F05FFE6C4D0F
:102E00006EA4933D48E0704D70A445E0CDE90010FC
:102E1000542385221946104604F050FEFF231A461B
:102E2000194608A804F064F80188ADF8001080780D
:102E30008DF802004448009903F01EFF664942489D
:102E400003F071FD002265A13F4802F0DEFEADF8FF
:102E5000080000EBD071AAEB610001B25FA36E2203
:102E60003948009603F047FD5EA430E0504D60A461
:102E700012E0644D64A40FE0664D67A40CE0694D58
:102E800069A409E0CDE9001054235C2219461046DC
:102E900004F014FE674D68A4CDB12B4601AA694623
:102EA000294803F09BF9E8BBBDF90410BDF9000007
:102EB00001EBD172A8EB620100EBD0700AB2A7EB74
:102EC000600001B22B46204803F01AF82EE0D9F832
:102ED00028004D46816890F9180001EB4010006809
:102EE000202823D15849184803F01DFD698B584606
:102EF000B1FBF0F20BFB1213B1FBFBF253A103A8E1
:102F0000FDF7C4F9002203A90F4802F07EFE00EB92
:102F1000D070A7EB600000230096019600B203AAD0
:102F2000672100E002E0029600F030FA002C05D0A4
:102F300009B02046BDE8F04F00F08EB809B0BDE8FA
:102F4000F08F0000F2330108C0050020536574754E
:102F500070000000C7350108633B01086A3E0108A4
:102F60004F6E00004F66660061410108437573743F
:102F70006F6D206461790000446A010844617465E2
:102F800020262074696D650013F50008446973708C
:102F90006C6179001CE90008DFEF0008536F756E63
:102FA000640000006F46010853657276696365002E
:102FB0009B5401085265736574000000496E666F8A
:102FC000726D6174696F6E00A37B0108436F6E6E52
:102FD000656374696F6E000080D9010853544152D3
:102FE00054000000436F6E6E656374696E67000085
:102FF000526573657420636F6E6E656374696F6E7E
:1030000000000000EEE100085365742064617465FF
:1030100000000000A76401085365742074696D65A1
:10302000000000001CFF00084272696768746E654A
:103030007373000014F900084175746F2073776989
:10304000746368206F6666009E9B010825303264B9
:103050003A253032640000001CB5FF2304461A46AE
:10306000194601A803F044FF0188ADF800108078EC
:103070008DF802000D48009903F0FEFD0C490B4845
:1030800003F051FC00222146084802F0BEFD002159
:10309000009100EBD070A021A1EB600001B22346AB
:1030A000B922024803F027FC1CBD0000C005002027
:1030B0002AAA01087CB5FF230C4605461A46194684
:1030C00001A803F015FF0188ADF8001080788DF895
:1030D00002000E48009903F0CFFD0D490B4803F0A4
:1030E00022FC00222946094802F08FFD00210091B0
:1030F00000EBD070A021A1EB600001B22B4604F1DF
:103100001A02024803F0F7FB7CBD0000C005002056
:103110002AAA01081CB5FF2304461A46194601A82D
:1031200003F0E6FE0188ADF8001080788DF802000B
:103130000D48009903F0A0FD0C490B4803F0F3FB88
:1031400000222146084802F060FD0021009100EBBA
:10315000D070A021A1EB600001B2234610220248EA
:1031600003F0C9FB1CBD0000C005002080D9010888
:1031700070B5FF2388B015460E4604461A46194618
:1031800007A803F0B5FE0188ADF8001080788DF82F
:1031900002001C48009903F06FFD22461AA101A805
:1031A000FDF774F81949174803F0BDFB002201A987
:1031B000144802F02AFD044600EBD470A521A1EBCF
:1031C000600006440020009001AB05F13C0231B2E2
:1031D0000C4803F090FB0E490A4803F0A4FB0DA035
:1031E0000DA30068069006A80090301901B20C46A5
:1031F00005F13F02034803F07EFB0848448408B011
:1032000070BD0000C005002025640000C3800108D7
:10321000D4990108F99C0000B04300000800002088
:103220002DE9FF4F8BB08B46DDE91C54DDE9181703
:1032300092461E4600225448DDF86C8002F0E5FC00
:103240000590514802F089FD81460B990AEBDA722C
:10325000059801EB620100EBD070A1EB600000B2B9
:1032600006EBD67203900BEB620109EBD970A1EB70
:10327000600000B202900FB1294600E021464248AA
:1032800003F0FAFC0720CDE9006053465A463E4859
:103290000B9902F067FD47B121463B4803F0ECFC77
:1032A000B8F1000F39D017B138E02946F5E72946C3
:1032B000354803F0E1FC2146334802F017FD0720B2
:1032C000CDE9006053465A462F480B9902F04AFD5B
:1032D00021462D4803F0D0FC29462B4802F006FD7C
:1032E000C8F1000006EB4002072112B20AEB4000D1
:1032F000CDE9002103B20BEB080002B20B98404469
:1033000001B2214802F02EFD29461F4803F0B4FC0B
:1033100021461D4802F0EAFC02E00FB1294600E018
:103320002146194802F0E2FC0020DDE9022100906C
:103330001548189B03F0DFFA1A9878B10FB32146AD
:10334000114803F099FC032000900298059B484423
:10335000401D02B20C48039902F0AFFC00231A464C
:10336000194609A803F0C4FD0188ADF80010807863
:103370008DF802000448009902F0B8FC0FB0BDE8D7
:10338000F08F2946DCE70000C00500202DE9FF4F43
:1033900083B01C00DDE91187DDF840B00E4682469F
:1033A00003D0FF231A46194602E000231A461946A5
:1033B00001A803F09DFD3948019903F05DFC00224E
:1033C0003648059902F021FC8146344802F0C5FCDC
:1033D000054600EB470000B2009009EB480003B23D
:1033E000F01B02B2AAEB080001B22C4802F065FC07
:1033F00074B100231A46194601A803F079FD274845
:10340000019903F039FC3CB1FF231A46194606E046
:10341000FF231A461946EFE700231A46194601A86A
:1034200003F066FD1D48019902F060FC0020009049
:10343000324651461948059B03F05DFABBF1000F77
:1034400014D034B300231A46194602A803F050FDE5
:103450001248029903F010FC042000907019401DDE
:1034600002B24B4651460D4802F027FC00231A4693
:10347000194601A803F03CFD0188ADF800108078E2
:103480008DF802000548009902F030FC07B0BDE855
:10349000F08FFF231A461946D7E70000C005002029
:1034A0007CB500F0CDF84D4CA16B884279D900F085
:1034B000C7F8A063617D4A4E1A25022905D039B3A9
:1034C000032928D004292AD02CE000231A461946C3
:1034D00001A803F00DFD0188ADF8001080788DF88B
:1034E00002003F480099383803F0C6FB307B4FF0AC
:1034F0002B030328009508D0608C89220B3001B281
:103500003748383802F0D9FB3AE03B221621F7E77A
:1035100000F5FA6001E000F5FA70A06302E0207A9D
:1035200000283ED1207A4FF0000380F00100207285
:10353000307B1A460328194601A833D003F0D8FC83
:103540000188ADF8001080788DF8020024480099B9
:10355000383803F091FB0095608C2B230C3001B2BE
:103560001F488922383802F0A8FB207A40B1608CCD
:1035700089221C4B0C3001B21948383802F0C0FCCB
:10358000FF231A46194601A803F0B2FC0188ADF8E2
:10359000001080788DF8020011480099383803F047
:1035A0006BFB7CBD03F0A4FC0188ADF800108078B3
:1035B0008DF802000A480099383803F05DFB08488E
:1035C0002B233B2216213838009502F076FB207A17
:1035D0000028D5D03B22034B1621CDE70800002060
:1035E000F80500209A78010810B5124C00204FF021
:1035F000904120750120886100F022F8A16B88427B
:1036000016D9207A80F00100207200F019F800F538
:10361000FA70A063084803F040F9207A002807D028
:103620004022BDE81040054B6421034802F068BC0D
:1036300010BD000008000020C005002068720108CD
:10364000014800687047000000000020FEE700000D
:103650002DE9F0472E4C2078D0B194F82D0008B910
:103660006079A8B12B4806F007FC2A4E0025307877
:1036700000F00F01000900EB800001EB4000C0B238
:10368000132809D2607938B184F82D5065712573FB
:10369000BDE8F04706F0BEBB06F0BCFB94F82D0079
:1036A000DFF870904FF0804709F114094FF00308DC
:1036B0004FF4807A01281ED06079012826D189F83C
:1036C000095089F80A5089F80B504FF08030C9F83A
:1036D000000004F035FB2073C9F804700D4889F828
:1036E0000880143006F06EFB504606F029FCBDE859
:1036F000F04706F0B1BB89F8095089F80A50B07953
:1037000089F80B000448C9E90007E7E7BDE8F0873E
:10371000F8050020F404002000808080FEE700000F
:1037200010B5174CA06AC06928B3002006F0B2FC9F
:10373000A26A04F11C001168332910D0A1F580732E
:10374000B93B02D1002101704170D069C4F8280052
:10375000FFF78CF8BDE81040012006F09BBC09493A
:103760004B79002BF1D1D369074AA262D361497921
:1037700001704170ECE7BDE8104000F0D9BA0000DC
:1037800008000020F8050020E0010020704709072C
:10379000090E002806DA00F00F0000F1E02080F8A2
:1037A000141D704700F1E02080F8001470470000FD
:1037B000024900204870FDF7C1BF0000240000202E
:1037C000024901204870FDF7B9BF00002400002025
:1037D000704700002DE9F041524E534C0025B36A6A
:1037E000A4F1440006F11C021968332966D01CDCE0
:1037F000162951D010DC4B4A0B2902F154023DD05E
:10380000032307240C293FD00D293FD0152941D18E
:10381000BDE8F041FDF71EBB1F2941D0202942D051
:103820002B2937D1C079107078E040F2A51CA1F2A5
:10383000A517614562D01ADC34295DD035293DD009
:103840003A4FA1F580719B393AD0012922D13846EF
:1038500006F012FB387904F0FFF8A060787904F0E4
:10386000FBF86060B87904F0F7F8206041E0012FC0
:1038700056D0142F22D0592F0CD11FE08078907091
:103880000A201070232049E0C07800E00079907091
:1038900013705470BDE8F081C07A401E1876F9E7C5
:1038A00090F82D00BFE7C18D3C20B1FBF0F2A26083
:1038B000B1FBF0F200FB1210C4E900501D76E9E7FD
:1038C0001A4806F0D9FAB87804F0C6F8E0607878BB
:1038D00004F0C2F82061387804F0BEF8132802D250
:1038E00040F2E37004E0387804F0B6F800F5FA60CE
:1038F0006061B06A0576CDE7407994E78079002869
:1039000007D000BF4FF00000107005D14FF001004C
:1039100004E04FF00100F7E74FF000005070B9E706
:10392000007A80E7080000203C060020F404002014
:1039300010B54FF48074204606F00AFB002806D02C
:10394000204606F0FDFABDE8104006F023BA10BD8F
:103950002DE9F041234C01270025277065701820C0
:10396000A0700420E070052020716571A771E771D7
:1039700025726572A572E772257365730326A673B7
:10398000E67326746674A674E674267501221821FF
:1039900004F11500FCF71AFE84F82D504FF4347032
:1039A000E085A4F12000056545658565C56506F0DF
:1039B00091FAA4F582707F210181FF2141812021AC
:1039C0000170C6704770877005611121C560017173
:1039D00058214171857106F0C5FA002800D1FEE733
:1039E000BDE8F081F8050020704710B504F05CF8E0
:1039F000BDE8104000F0A4B8484810B54649416001
:103A0000474A426081608260016941F020010161A2
:103A1000016941F040010161C168C907FCD1016938
:103A200021F020010161016941F010010161C169CA
:103A300011F0060F3B490AD0C269C2F34102012AC4
:103A400007D0C269C2F34102032A04D005E0A522CF
:103A500002E0BB2200E0CC220A80C169DF2202EA38
:103A60001121304A921C1180C169921CC1F3074197
:103A70001180C169090E921C1180016A921CC9B2A1
:103A80001180016A921CC1F307211180016921F0A4
:103A9000100101612448016841F47001016023486C
:103AA000016841F00101016001688907FCD54168A6
:103AB0001F4A1140416041681E4A1140416001683F
:103AC0001D4A11400160C16A1C4A1140C162016B6C
:103AD00040F2031291430163016B21F480310163D1
:103AE000016B21F000410163416B21F00101416351
:103AF000D0F8C01021F48031C0F8C01000218160DE
:103B0000C0F8CC1006F02AFBBDE8104000214FF0B1
:103B1000006005F0AFB800002301674500200240B7
:103B2000AB89EFCD00F8FF1F88ED00E000100240E8
:103B30000C00FF08FFFFC277FFFFF2FEF0FFFF3F20
:103B400002480168491C0160704700000000002025
:103B500010B5084C0121204606F043FD012807D18D
:103B60000121204606F03AFDBDE8104000F004B8FF
:103B700010BD00000020004009494FF48072087910
:103B8000401EC0B208714B78834201D9054B01E059
:103B9000044B10331A60002801D1142008717047BB
:103BA000080000201804004810B50B4C0F226FF0DD
:103BB000180194F90200FDF7DBFCA078401E40B22A
:103BC000A07094F90010884201DA6078A070BDE816
:103BD0001040FDF7B3BD00005C00002010B50B4C99
:103BE0000F226FF0180194F90200FDF7C1FCA078D4
:103BF000401C40B2A07094F90110884201DD207889
:103C0000A070BDE81040FDF799BD00005C000020E9
:103C1000154830B4826A154892F91840D0E901136A
:103C200014B1012C0FD018E05B1E83601268202AAB
:103C300000D123B1002B10DA172181600DE061B9AA
:103C40000121416009E0491E416014683B22202C9B
:103C500000D12BB1002900DA426030BCFDF76EBD07
:103C60000129F9DBF9E70000080000203C060020EC
:103C7000F0B4144800250124836A134893F91860AE
:103C8000D0E9011216B1012E0CD014E0521C826052
:103C9000172A00DD85601A68202A0CD1826852B983
:103CA00071B108E0491C41601B68202B00D12AB18A
:103CB0003B2900DD4560F0BCFDF740BD3B29FADD46
:103CC0004460F8E7080000203C06002070B5124C64
:103CD0001049204606F028FD68B1204606F0CEFCCB
:103CE0000F490E4B0A789854521CD0B208703228F3
:103CF00001D1002008700B4D2046294606F014FD26
:103D0000002806D02946204606F0FAFC0649012084
:103D1000087070BD05000507004400407C060020C7
:103D2000A004002004000407A2040020FEE7000015
:103D3000024900208862FEF7D3BB00000800002083
:103D400010B540F21C7005F079FB04F0F5FF4FF45C
:103D50000064204605F0EEFA204605F0F9FAE0107E
:103D600005F096FB40F60F0005F068FBBDE810403B
:103D700006F068B910B500214FF4807003F03EFEE4
:103D80000121084603F060FD07220521002003F011
:103D9000D7FD0121022003F031FE002003F012FEC6
:103DA0000121084603F088FD4FF46021012003F053
:103DB000A1FD002003F066FD03F072FD0A2003F070
:103DC0006BFE03F02FFDBDE81040012003F006BE9E
:103DD00010B5094C00220749204604F023F90022BF
:103DE00081231146204604F0CDF92046BDE810405D
:103DF00004F09EB9801A0600005400402DE9F041FD
:103E0000304C0126304D207D022804D1287810B195
:103E100001F086F80026FFF713FCE06268780027BF
:103E20004FF0010870B3287820B1207D012812D00E
:103E300088B112E02448383803F09EF9A87908B117
:103E4000277501E084F8148001F06AF801F0FEF8AB
:103E50000020BDE8F08101F063F81B48383803F01A
:103E60008BF9A87908B1277501E084F8148001F076
:103E7000EDF8FFF7E5FBA0F5D2407838E06268780E
:103E80000026B0B92878A0B1287A40B1207D022858
:103E900005D10020FEF724FBFFF7D2FB60640A483F
:103EA000383803F069F9A87908B1277501E084F87A
:103EB0001480FFF7C5FB41F2883108446064304646
:103EC000C7E7000008000020F805002010B540F208
:103ED000157005F0B3FA40F2115005F0AFFA40F258
:103EE000125005F0ABFA40F20E7005F0A7FA40F25E
:103EF000117005F0A3FA40F2126005F09FFA4FF43A
:103F0000E06005F09BFA40F2096005F097FA40F294
:103F10001C7005F093FABDE81040062005F0D4B8F7
:103F200030B503461046064C07E013F8015BC2B2F9
:103F30006A4054F8222082EA1020491EF5D230BD92
:103F400088EC01082DE9F04101224FF09046022350
:103F50001146304603F0F3FF0223032200213046CE
:103F600004F014F8504F4FF4F0742346022201215C
:103F7000384603F0E4FF234603220021384604F0CC
:103F800005F8202300220321304603F0D8FF012248
:103F90000221304603F09CFF01230022022130461B
:103FA00003F0CDFF012303220021304603F0EEFF92
:103FB0004FF4007422460221384603F089FF0222A2
:103FC00023461146384603F0BAFF00222346114625
:103FD000384603F0DBFF22460421304603F078FF29
:103FE00065002A460421304603F072FF2346002272
:103FF0000221304603F0A3FF23460322012130466D
:1040000003F0C4FF2B4600220221304603F097FF45
:104010002B4603220121304603F0B8FF4FF4204421
:1040200022460021384603F053FF23460022022196
:10403000384603F084FF234603220021384603F06C
:10404000A5FF40F60444012223461146384603F0FA
:1040500076FF234603220021384603F097FF04220F
:104060000121304603F034FF08220121304603F0DD
:104070002FFF042301220221304603F060FF0423B6
:1040800003220021304603F081FF08230122022190
:10409000304603F054FF3046BDE8F04108230322C8
:1040A000002103F073BF0000000400482DE9F04335
:1040B000002391B01A4619460CA802F019FF018896
:1040C000ADF8001080788DF80200C748009901F023
:1040D0000DFEFF231A4619460CA802F009FF0188BD
:1040E000ADF8001080788DF80200BF48009902F00A
:1040F000C3FDDFF8F482002508F13808BB4C98F8BE
:104100000600012608B1257500E02675B64802F0C4
:10411000C4FBB54803F030F8002005F0BBFFB44BFA
:104120000EAA0DA9B04802F059F8A02790B9BDF920
:104130003810BDF9340001EBD1716E22A2EB6101A0
:1041400000EBD0700AB2A7EB600001B2A84BA64802
:1041500001F0D6FE012005F09DFF4FF4FA694846B4
:1041600003F09AFC002005F095FF9F4802F095FBB4
:104170009D48E838C168E83002F07EFD9D499A48C4
:1041800002F0D1FB00229CA1974801F03EFD00EB1C
:10419000D070A7EB600001B297A35022924800951F
:1041A00002F0A9FB002298A18F4801F02EFD00EB40
:1041B000D070A7EB600001B293A378228A480095E3
:1041C00002F099FB9449884802F0ADFBFF231A46A0
:1041D00019460CA802F08CFE0188ADF8001080781A
:1041E0008DF802008048009902F046FD8BA38DA255
:1041F0008DA107A8FCF74AF8002207A97A4801F028
:1042000004FD00EBD070A7EB600001B207ABB92250
:104210007548009502F06FFB012005F03BFF484612
:1042200003F03AFC002005F035FFA562656498F8BC
:1042300005004746012802D103F082FD387303F0E0
:10424000B9FDA07010F17F0F4FF4A0772FD07F2819
:1042500058D030287EDD002000F092FF0320A071AE
:10426000E079002877D1E6715F4802F016FB7049CB
:104270005D4802F058FB00231A46194610A802F0C8
:1042800037FEFF2304461A4619460FA802F030FEF7
:1042900006962188ADF81410A1788DF816100188C3
:1042A000ADF8101080788DF8120062A058E0002060
:1042B00000F066FFA671E07900285ED1E6714A48F9
:1042C00002F0EBFA5A49484802F02DFB00231A4647
:1042D000194610A802F00CFEFF2304461A461946A0
:1042E0000FA802F005FE06962188ADF81410A178FB
:1042F0008DF816100188ADF8101080788DF8120036
:104300004DA02DE0002000F03BFF0220A071E079DD
:10431000002832D1E671344802F0BFFA44493248ED
:1043200002F001FB00231A46194610A802F0E0FD36
:10433000FF2304461A4619460FA802F0D9FD069637
:104340002188ADF81410A1788DF816100188ADF809
:10435000101001E014E010E080788DF8120037A012
:10436000CDE9000500210295F0233A460846039561
:10437000FEF756FF012005F08DFE11B0BDE8F08379
:1043800010F11A0F4FF000002ADA00F0F9FE0420B5
:10439000A071E0790028F0D1E671134802F07DFAAF
:1043A0002349114802F0BFFA00231A46194610A803
:1043B00002F09EFDFF2304461A4619460FA802F09C
:1043C00097FD06962188ADF81410A1788DF8161087
:1043D0000188ADF8101080788DF8120018A0BFE7A2
:1043E000FEF77EF8C9E70000C005002008000020A5
:1043F000F005010809D201084555524F544543487C
:10440000204D4554414C000050414E454C204845FC
:10441000415445520000000080D9010831322E3449
:104420002E310000562E2000257325730000000059
:10443000C3800108453300004531000045320000CB
:10444000453400002DE9F043784C8DB078A10BA8DD
:10445000E268FBF71BFF76A10CA82269FBF716FFA9
:1044600075A108A86269FBF711FF7549A4F17C00EA
:1044700002F059FAA4F17C0001F06FFCC0F1780061
:104480000FFA80F9002208A9A4F17C0001F0BDFB1D
:104490000023C7B21A46194607A802F029FDFF23D8
:1044A00004461A4619460AA802F022FD012606967D
:1044B0002188ADF81410A1788DF816100188ADF898
:1044C0001010604D80788DF81200A86A0024007EDC
:1044D00000287CD0002008A90091CDE901043C23EC
:1044E00007F1140249460F200394FEF799FE4F4846
:1044F00000220CA97C3801F088FB0023C7B21A46C1
:1045000019460AA802F0F4FCFF2380461A46194611
:1045100007A802F0EDFC0696B8F80020ADF81420CC
:1045200098F802108DF816100188ADF810108078F8
:104530008DF81200A86A007E012800D000200CA986
:104540000091CDE9010407F114023C23904649464D
:1045500096200394FEF764FE344800220BA97C38B1
:1045600001F053FB00231A4619460AA802F0C0FCCA
:10457000FF2307461A46194607A802F0B9FC06961B
:104580003988ADF81410B9788DF816100188ADF897
:10459000101080788DF81200A86A007E02283ED0A4
:1045A00000200BA90091CDE901043C234246494675
:1045B000E6200394FEF734FEFF231A46194607A8A7
:1045C00002F096FC0188ADF80010807800E024E04D
:1045D0008DF80200154800997C3802F04DFB00234D
:1045E0001A46194607A802F083FC0188ADF80010AE
:1045F00080788DF802000D4800997C3801F076FB38
:10460000A86A90F9180060B101280CD00EA000BF74
:10461000FEF722FD0DB0BDE8F08301205BE701202D
:10462000BFE70BA0F4E70DA0F2E700003C06002076
:1046300025303264000000002530346400000000A2
:104640009E9B010808000020536574206461790076
:104650005365742079656172000000005365742011
:104660006D6F6E74680000002DE9F0478CB07449DE
:10467000744802F058F9734801F06FFB714FC0F1B4
:1046800078007C370FFA80FA6FA107A8BA68FBF7A9
:10469000FDFD002207A96B4801F0B7FA0023C6B25E
:1046A0001A4619460AA802F023FCFF2304461A46BC
:1046B00019460BA802F01CFC012506952188ADF8CF
:1046C0001410A1788DF816100188ADF81010DFF8DD
:1046D000808180788DF81200D8F828000024007EB0
:1046E00000287DD05FF000010DF11C0948468DE8DF
:1046F00013005720A0EB56003C234622514603945A
:10470000FEF78EFD50A107A87A68FBF7BFFD0022D7
:1047100007A94C4801F079FA0023C6B21A46194697
:104720000BA802F0E5FBFF2307461A4619460AA824
:1047300002F0DEFB06953988ADF81410B9788DF8D3
:1047400016100188ADF8101080788DF81200D8F896
:1047500028004746007E01286DD00021CDF800904A
:10476000CDE90114CB20A0EB56003C234622514654
:104770000394FEF755FDFF231A4619460AA802F0D6
:10478000B7FB0188ADF8001080788DF802002D4845
:10479000009902F071FA00231A4619460AA802F09D
:1047A000A7FB0188ADF8001080788DF8020025483D
:1047B000009901F09BFA00231A4619460BA802F053
:1047C00097FBFF2380461A4619460AA802F090FB81
:1047D000064600221FA11B4801F017FA069500E0CB
:1047E00027E0B8F80020ADF8142098F802108DF8F2
:1047F00016103188ADF81010B1788DF8121015A18F
:10480000CDE9001400EBD070A021A1EB6000029470
:1048100000B23723042251460394FEF701FDB86A23
:10482000007E50B10CA000BFFEF716FC0CB0BDE836
:10483000F087012158E7012190E70AA0F4E7000082
:104840009E9B0108C0050020253032640000000056
:10485000080000203A000000536574206D696E75F1
:104860007465000053657420686F75720000000065
:104870002DE9F04F834689B03449354802F053F8AA
:10488000334F4D37002606EB4600002500EB06119E
:10489000412006EB460A00EB410800BF05EB45014D
:1048A000132000EB011905EB4A04224629A107A8B1
:1048B000FBF7ECFC385D032801D9012038555C4535
:1048C00008D02548806A90F91800A04202D0BBF1B8
:1048D000FF3F30D100231A46194608A802F008FB12
:1048E00001210691395D1A4B01EB4102D93B1A4473
:1048F0001388ADF8143092788DF816200288ADF840
:10490000102080788DF812001348806A90F9180002
:10491000A04219D0032917D00021002007AACDE911
:104920000020CDE9020120232A220FFA88F10FFA94
:1049300089F0FEF775FC6D1C062DAFDB761C042E8E
:10494000A1DB09B0BDE8F08F0221E6E780D90108BC
:10495000C0050020256400000800002010B5084BA9
:1049600065220C21074801F0CBFA054BBDE8104049
:10497000463365224FF48F71024801F0C1BA00003E
:10498000DD1A0108C005002070B5244C0246D3B2E0
:10499000207EFF2800D12376607A814208D1207ED4
:1049A000904205DDA07A617B884201D0401CA07254
:1049B0001B48E57A0179491B0025914217DB017BF1
:1049C000022914D0217E914211DDA572FF212176AA
:1049D000457302210173012121744571FEF730FEF8
:1049E00000F57A7020630020FDF77AFD12E0207E4A
:1049F00090420BDA03F0C8F9E17A401A904205DBE5
:104A0000A07A617B884201D02376A572A07A617B6F
:104A1000884201D1012070BD002070BD0800002037
:104A2000F80500201FB54FF4E16004F007FD154CB8
:104A3000204605F03FFD684605F0E7FD44F61F00FF
:104A4000ADF800000021ADF8041040F2E730ADF8F9
:104A500002100290ADF806106946204605F06AFD86
:104A60000121204605F0BAFD0121204605F0B2FDE6
:104A7000204605F059FD00221146132004F0ACF841
:104A80001FBD00000020004030B5224D89B02846EF
:104A900005F010FD5320ADF8100000244FF4FA602B
:104AA000ADF814400690ADF81240ADF816408DF800
:104AB0001C4004A9284605F03DFD01200090ADF8FA
:104AC0000440ADF80840ADF80640ADF80A40ADF836
:104AD0000C406A460021284605F098FB002211464A
:104AE000284605F0B0FC60220021284605F084FC31
:104AF00000221146284605F0B5FC0121284605F0A4
:104B00007AFD284605F07CFB284605F00DFD09B02E
:104B100030BD00000048014030B54FF0804589B0FD
:104B2000284605F0C7FC5320ADF8100000244FF4D0
:104B3000FA70ADF814400690ADF81240ADF816408A
:104B40008DF81C4004A9284605F0F4FC01200090D3
:104B5000ADF80440ADF80840ADF80640ADF80A40A5
:104B6000ADF80C406A460021284605F04FFB0022B4
:104B70001146284605F067FC60220021284605F012
:104B80003BFC08220021284605F06CFC0121284648
:104B900005F031FD284605F033FB284605F0C4FC3E
:104BA00009B030BD2DE9F0414B4F384603F0BBFA58
:104BB0007D1501224FF090442B461146204603F00C
:104BC000BEF92B4603220021204603F0DFF9A56140
:104BD0006E00012233461146204603F0B0F93346F9
:104BE00003220021204603F0D1F9A66100E000BFB6
:104BF0002946204603F0C5F90128F8D100E000BF9E
:104C00002946204603F0BDF90128F8D1A56200E04D
:104C100000BF2946204603F0B4F90028F8D1A66267
:104C200000E000BF3146204603F0ABF90028F8D180
:104C3000A66100E000BF3146204603F0A2F901283A
:104C4000F8D1A56100E000BF2946204603F099F99C
:104C50000128F8D12A460421204603F039F93246CA
:104C60000421204603F034F92B460022022120467D
:104C700003F065F92B4603220121204603F086F953
:104C8000334600220221204603F059F9334603221D
:104C90000121204603F07AF94FF40041384603F031
:104CA0007CFA00BF0021384603F077FA00BF38468F
:104CB00003F03EFA4FF480420849384603F0B2F957
:104CC000002281231146384603F05CFA3846BDE8DD
:104CD000F04103F02DBA000000540040801A060095
:104CE0002DE9FE4F8346FEF7ABFC884C00250C26D1
:104CF0002063A16A54274FF078080B684FF09E0993
:104D0000A3F580724FF4FA6A04F178009B3A07D158
:104D1000CA69D2F81CC09CF818C0BCF1040F03D0BB
:104D2000B3F5CE7F57D05BE0C2617848B830A0625F
:104D3000C261002005F0AEF9754801F0AEFDFF2319
:104D40001A46194602A802F0D3F80188ADF80010FF
:104D500080788DF802006E48009901F08DFFCDE952
:104D600000765C234E227221694800F0FBFF6949FE
:104D7000674801F0D8FD00231A46194602A802F040
:104D8000B7F80188ADF8001080788DF8020060480F
:104D9000009901F071FFFF231A46194602A802F09C
:104DA000A7F80188ADF8001080788DF80200584807
:104DB000009900F09BFF002257A1554800F025FF05
:104DC0000646534800F0C9FF00EBD072A8EB620022
:104DD00002B2009560E0CA69D3691B7E042B05D03E
:104DE000C969C161BBF1020F7ED089E0C2614B4845
:104DF000A062216DC161002005F04CF9444801F02A
:104E00004CFDFF231A46194602A802F071F80188EA
:104E1000ADF8001080788DF802003D48009901F04F
:104E20002BFFCDE900765C234E227221384800F03A
:104E300099FF3849364801F076FD00231A46194695
:104E400002A802F055F80188ADF8001080788DF8BE
:104E500002002F48009901F00FFFFF231A46194660
:104E600002A802F045F80188ADF8001080788DF8AE
:104E700002002748009900F039FF002226A12448AB
:104E800000F0C3FE0646224800F067FF00EBD07238
:104E9000A8EB62010AB2009506EBD671A9EB61009E
:104EA00001B21DA31A4801F026FDFF231A46194638
:104EB00002A802F01DF80188ADF8001080788DF886
:104EC00002001348009901F0D7FE00231A46194644
:104ED00002A802F00DF80188ADF8001080788DF876
:104EE00002000B48009900E008E000F0FFFE0120FE
:104EF00005F0D0F8504602F0CFFD02E0C969C1616B
:104F0000A062FEF79DFBE062BDE8FE8F0800002076
:104F1000C00500209E9B01084F4B0000A00200200E
:104F20000A4810B5C07900280FD0094CA5220021ED
:104F3000204605F088FA142002F0AEFD204600223B
:104F4000BDE81040114605F07EBA10BDF8050020FE
:104F5000004801407CB5314CA56A686918B102B0BF
:104F6000BDE870400047A86848B1A98839B195F9F3
:104F7000181000EB41100021C561A0620176A06A03
:104F800000680B2803D00C2801D00D2817D100236E
:104F90001A46194601A801F0ABFF0188ADF80010D0
:104FA00080788DF802001E48009901F065FEC82047
:104FB0000346462200901146194800F07EFEA06A82
:104FC0000068052816D11648CC3804F055FF144A5D
:104FD000CC3A107802F040FD13280BD8507802F03C
:104FE0003BFD0C2806D2A06A0C49C069D831A162E9
:104FF0002065C861A86810B1A06A806858B1FBF745
:1050000029FF002005F046F8FDF730FCBDE87C40A4
:10501000012005F03FB8FEF7DDFBF2E708000020B5
:10502000C0050020810705D1642190FBF1F201FB4E
:10503000120141B94FF4C87190FBF1F201FB12006B
:1050400008B1002070470120704700001FB5002301
:105050001A461946684601F04BFF0188ADF80C105E
:1050600080788DF80E002248039900F03FFEFF2360
:105070001A461946684601F03BFF0188ADF80C104E
:1050800080788DF80E001A48039901F0F5FD184854
:1050900001F003FC174B02AA01A9154801F09EF884
:1050A00098B9BDF90810782201EBD171BDF904005F
:1050B000A2EB61010AB200EBD070A021A1EB60006D
:1050C00001B20C4B0A4800F01BFF4FF4FA6002F0EB
:1050D000E3FC07483830007818B10020FDF700FAEB
:1050E0001FBD034801F0D9FB014801F031FF1FBD8E
:1050F000C0050020AE59010810B50F4CA16A08691F
:1051000010B1BDE8104000478888002813D0002067
:1051100004F0C0FFA06A017E491C49B20176828872
:10512000914201DB00210176FDF7A0FBBDE81040B4
:10513000012004F0AFBF10BD0800002010B50F4CD7
:10514000A06AC16811B1BDE81040084780880028F6
:1051500013D0002004F09EFFA06A017E491E49B2D0
:105160000176002902DA0179491E0176FDF77EFBFE
:10517000BDE81040012004F08DBF10BD08000020E4
:105180002DE9F041040001D5002402E0142C00DDDB
:105190001424184D1848E7B22F70417ADFF85C806C
:1051A0001648202608F1280859B1202102F0C2FE35
:1051B00020B1C8F80060642002F06EFC6F70BDE89A
:1051C000F0810A2C09DD0D4818300660642002F0D9
:1051D00063FCEC2000EB440009E0202102F0AAFE71
:1051E00020B1C8F80060642002F056FC60006870CE
:1051F000E5E7000008000020F80500200004004852
:1052000070B50C4D01202870FEF750FF0A4C0020AD
:10521000E071FEF71DFAFEF713FA2063FEF710FAAD
:10522000E063A87A002804D1BDE870400A20FFF7A7
:10523000A7BF70BDF80500200800002010B50020B1
:1052400004F028FF0648A0F52E718862002101763F
:10525000FDF70CFBBDE81040012004F01BBF00006F
:10526000C002002070B502F041FD342002F0F2FCD3
:10527000104D284602F0FCFC342002F0EBFC0E4CF2
:105280004FF0FF3240212046FEF74AFE214611260C
:10529000086405E02168284602F038FD241D2D1D14
:1052A000761EF7D2342002F0D5FCBDE8704002F043
:1052B000D7BC000000F80108F805002070B50F4EBB
:1052C00000250F4C86F82D50F08D60832846FFF79F
:1052D00057FF35700120A074A572FF202076257439
:1052E000E573002004F0D6FEA6F1380001F030FE90
:1052F000A6F13800BDE8704001F0CFBAF8050020F3
:105300000800002010B588B000204FF48271CDE96C
:10531000001002904FF4007105900690CDE9031043
:10532000064C6946204604F0F8FE0021204604F0B1
:10533000E5FE204604F0ECFE08B010BD0038004049
:1053400070B5002211461C2003F046FC1C4C204680
:1053500005F09CF90021204605F0FDF900212046CA
:1053600005F040FA0021204605F009FA0421204604
:1053700005F0FDF90821204605F00DFA40212046F0
:1053800005F09CF94FF41651204605F049F92046E6
:1053900005F09CF940F206752946204605F09BF978
:1053A0000028F9D00521204605F0A0F90421204667
:1053B00005F09CF9BDE87040642002F06DBB000070
:1053C000004400401FB500231A461946684601F004
:1053D0008FFD0188ADF80C1080788DF80E00224802
:1053E000039900F083FCFF231A461946684601F032
:1053F0007FFD0188ADF80C1080788DF80E001A48FA
:10540000039901F039FC184801F047FA174B02AA3A
:1054100001A9154800F0E2FE98B9BDF908107822FC
:1054200001EBD171BDF90400A2EB61010AB200EBFE
:10543000D070A021A1EB600001B20C4B0A4800F033
:105440005FFD4FF4FA6002F027FB07483830007820
:1054500018B10020FDF744F81FBD034801F01DFA04
:10546000014801F075FD1FBDC0050020485F01081F
:105470002DE9FF4F804600699BB000287CD08278E0
:105480001792022A01D0012A76D1D8F81420079267
:10549000002216926FF063020C92C0780D90029178
:1054A0000020CFE21E98435C002009901890D8F8A5
:1054B00010000524611C425C015D02EB012111F02A
:1054C000FF0129D0E21C855CA21C9942825C05EB9D
:1054D00002220FFA82F97CD1B9F1080F1CDB0121FD
:1054E0001891211D04F1050B435C099310F80B1072
:1054F000E71D01F07F020492A21D0025825C0A9242
:10550000C05D049A00F07F0A9A1A1798A2EB0A0667
:10551000022802D0012871D06FE2C8096FD00A9A20
:105520000D99A9F10800891A0026A1EB0A070E9629
:10553000119096E0D8F8100001190E980830085C18
:1055400095FBF7F10FFA81FB10F0C00F58D000F077
:105550003F0A05EB0A010DB2B14606EB0A010EB295
:10556000000678D5289840B1404698F8193098F848
:10557000182098F8171007E077E20798C0F3074360
:10558000C0F30722C1B2404601F07EFB1D990A9884
:10559000084410903844401E00B2199002990498B3
:1055A00008440B9018E01099199B01EB090002B216
:1055B0000B98584401B2404601F0A5F9A7EB090148
:1055C000AAEB01000FFA80FA4FF000090BF101007D
:1055D00000E046E20FFA80FB09EB0A00B842E2DC89
:1055E0001098484400EB0A0102B20B98491E0BB216
:1055F000584401B2404601F086F92CE0D5E036E08F
:10560000289949B1404698F8193098F8182098F828
:10561000171001F039FB09E08006020E4046079999
:1056200000F0BEFA0146404601F026FB1D990A989B
:105630000844304402B204990298014401EB0B0083
:1056400001B2404601F038FB6D1C761C2DB236B21B
:1056500001E0F01B06B2BE42FBDA0E98401C00B21D
:105660000E900E9911988142FFF664AFC5E10027B4
:10567000A9F1080011900E97384691E0D8F8100073
:1056800001190E980830085C95FBF6F10FFA81FBC2
:1056900010F0C00F53D000F03F0A05EB0A010DB225
:1056A000B94607EB0A010FB2000673D5289838B146
:1056B000404698F8193098F8182098F8171006E026
:1056C0000798C0F30743C0F30722C1B2404601F078
:1056D000DBFA04990298084410903044401E00B24E
:1056E00019900A991D9808440B9016E00B98109990
:1056F000584402B201EB090001B24046199B01F087
:10570000EAF8A6EB0901AAEB01000FFA80FA0BF107
:1057100001004FF000090FFA80FB09EB0A00B042CC
:10572000E4DC1098484400EB0A01491E0BB20B99C7
:1057300059440AB201B2404601F0CDF82AE0289956
:1057400049B1404698F8193098F8182098F8171081
:1057500001F09AFA09E08006020E4046079900F02F
:105760001FFA0146404601F087FA1D990A98014444
:1057700001EB0B0002B2029904980844384401B2CC
:10578000404601F099FA6D1C7F1C2DB23FB201E03A
:10579000B81B07B2B742FBDA0E98401C00B20E905D
:1057A00011998842FFF66AAF27E1289840B1404638
:1057B00098F8193098F8182098F8171001F064FA42
:1057C000D8F81000C15DC9097ED010F80B00C009DF
:1057D00062D00A9A0D99A9F10800891A0026119041
:1057E000A1EB0A070E96304652E000BFD8F8100031
:1057F00001190E980830085C00F07F09C00939D003
:1058000095FBF7F00FFA80FB02990498B246084422
:1058100010900A991D9808440B901BE0384403B27D
:105820000B981099504402B201EB0B0001B24046B4
:1058300001F069F8A7EB0A00A9EB00010FFA81F962
:105840002918304406B20BF101000DB24FF0000AE6
:105850000FFA80FB0AEB0900B8420B98DEDC5044DB
:1058600000EB090102B210980BB2584401B2404655
:1058700001F049F805EB090005B206EB090000E06C
:10588000F01B06B2BE42FBDA0E98401C00B20E902E
:1058900011998842AADBB0E00027A9F108000E9711
:1058A000109055E0D8F81000BA4601190E9808304B
:1058B000085C95FBF6F100F07F09C0090FFA81FB47
:1058C00038D00299049800E047E008440B900A9908
:1058D0001D980844CDF844000AEB0900B0421CDDD5
:1058E0000B98304403B21198584402B20B985044BC
:1058F00001B2404600F0EFFFA6EB0A00A9EB000161
:105900000FFA81F92918384407B20BF101000DB2E2
:105910004FF0000A0FFA80FBDEE70B9901EB0A005B
:1059200000EB09010BB2119959440AB201B2404689
:1059300000F0D1FF05EB090005B207EB090000E01C
:10594000B81B07B2B742FBDA0E98401C00B20E90AB
:105950000E9910988142A5DB4FE00027A9F10800BD
:105960000597BB460F9045E0D8F8100001190BF1E0
:105970000800085C0E9001E0B81B07B2B742FBDAE2
:105980000598B94690FBF6F00FFA80FA5FF0000533
:1059900009EB0500B04205D10AF10100C5F100098B
:1059A0000FFA80FAC5F10701012088400E9900B274
:1059B000014211D10A991D98014401EB0A00411CD2
:1059C0000BB202B204990298014401EB0900284489
:1059D00001B2404600F097FF6D1CEDB2082DD7D301
:1059E0000BF101000FFA80FB0598083000B2083770
:1059F0003FB205900F998B45B6DB299880B1169977
:105A000040566FF0630188420ADD0C90169A29987F
:105A1000104490F90100884202DD501C00B216903B
:105A2000189860B102990998084400B202900C9845
:105A300010F1640F03DD0299084400B2029015983A
:105A4000401C00B215901E98FAF75CFD159988422B
:105A50003FF628AD07991FB04046BDE8F04F01F072
:105A60000BB904EB09010CB224E51FB0BDE8F08FBF
:105A70002DE9F34705462DED020B2DED068BB0EE1B
:105A8000408AF0EE608A88B09FED410B9FED429B0B
:105A90009DF8469053EC102B51EC180B05F03CFA96
:105AA00009D2BDF8440040EA094008B0BDEC068BBD
:105AB00004B0BDE8F08753EC192B51EC180B05F03E
:105AC00065FB03D2B0EE498AF0EE698A287D05F0C5
:105AD0000FFA53EC182B05F05BFA41EC1A0B53EC60
