:020000040800F2
:10000000F01B0020F5010008DB020008D702000801
:10001000D9020008D3020008E9040008000000002B
:10002000000000000000000000000000FF020008C7
:10003000D502000800000000FD02000801030008CE
:100040000F0200080F0200080F0200080F0200084C
:100050000F0200080F0200080F0200080F0200083C
:100060000F0200080F0200080F0200080F0200082C
:100070000F0200080F0200080F0200080F0200081C
:100080000F0200080F0200080000000069040008C9
:100090000F0200080F0200080F0200080F020008FC
:1000A0000F0200080F0200080F0200080F020008EC
:1000B00095040008000000000F0200080000000086
:1000C0000F020008000000000F02000800000000FE
:1000D0000000000000000000000000000000000020
:1000E00000000000000000000F02000800000000F7
:1000F0000000000000000000000000000000000000
:100100000F020008000000000000000000000000D6
:1001100000000000000000000000000000000000DF
:1001200000000000000000000000000000000000CF
:1001300000000000000000000000000000000000BF
:100140000000000000000000000000000F02000896
:1001500000F002F800F03EF80AA090E8000C82449B
:100160008344AAF10107DA4501D100F033F8AFF278
:10017000090EBAE80F0013F0010F18BFFB1A43F085
:10018000010318477018000090180000103A24BFAF
:1001900078C878C1FAD8520724BF30C830C144BFEC
:1001A00004680C607047000000230024002500262E
:1001B000103A28BF78C1FBD8520728BF30C148BFCA
:1001C0000B6070471FB501F0DCFB00F037F81FBD76
:1001D00010B510BD00F048F81146FFF7F3FF00F02E
:1001E000ADFE00F066F803B4FFF7F2FF03BC00F0C9
:1001F00069F800000948804709480047FEE7FEE724
:10020000FEE7FEE7FEE7FEE7FEE7FEE7FEE7FEE7C6
:1002100004480549054A064B7047000011030008D1
:1002200051010008F0010020F01B0020F017002011
:10023000F0170020704770477047000070B5064CFB
:100240007C44064D7D4403E0206820448047241D03
:10025000AC42F9D170BD0000D0170000D0170000EB
:1002600000487047900100207546FFF7F9FFAE4641
:1002700005006946534620F00700854618B020B5B2
:10028000FFF7C6FFBDE820404FF000064FF0000723
:100290004FF000084FF0000B21F00701AC46ACE82E
:1002A000C009ACE8C009ACE8C009ACE8C0098D469B
:1002B000704710B50446AFF300802046BDE81040FB
:1002C000FFF791BF01491820ABBEFEE726000200F0
:1002D0007047FEE77047FEE7FEE770470907090E23
:1002E000002806DA00F00F0000F1E02080F8141D6D
:1002F000704700F1E02080F80014704770477047A5
:1003000010B500F0EDFCBDE8104000F0A5B800000D
:10031000484810B546494160474A42608160826062
:10032000016941F020010161016941F04001016171
:10033000C168C907FCD1016921F02001016101698F
:1003400041F010010161C16911F0060F3B490AD06B
:10035000C269C2F34102012A07D0C269C2F3410255
:10036000032A04D005E0A52202E0BB2200E0CC2253
:100370000A80C169DF2202EA1121304A921C1180F1
:10038000C169921CC1F307411180C169090E921C19
:100390001180016A921CC9B21180016A921CC1F3DA
:1003A00007211180016921F01001016124480168D1
:1003B00041F4700101602348016841F001010160CE
:1003C00001688907FCD541681F4A114041604168B6
:1003D0001E4A1140416001681D4A11400160C16A16
:1003E0001C4A1140C162016B40F203129143016348
:1003F000016B21F480310163016B21F00041016345
:10040000416B21F001014163D0F8C01021F480312B
:10041000C0F8C01000218160C0F8CC1000F08EFF41
:10042000BDE8104000214FF0006000F0EDBD00007D
:100430002301674500200240AB89EFCD00F8FF1F84
:1004400088ED00E0001002400C00FF08FFFFC277BB
:10045000FFFFF2FEF0FFFF3F02480168491C016008
:10046000704700000400002010B5084C0121204610
:1004700001F0A7F9012807D10121204601F09EF9DA
:10048000BDE8104000F004B810BD0000002000409E
:100490007047000070B5104C0E49204601F026FA56
:1004A00018B1BDE8704000F009BF0C4D2046294648
:1004B00001F01CFA40B12946204601F003FA084930
:1004C0000120087000F0FAFE2046BDE870400549A2
:1004D00001F00CBA050005070044004004000407C1
:1004E0000100002007000707FEE710B500214FF4C8
:1004F000807000F0BFFB0121084600F0F9FA0722E6
:100500000521002000F05EFB0121022000F0B2FB7B
:10051000002000F093FB0121084600F021FB4FF47E
:100520006021012000F03AFB002000F0FFFA00F00B
:100530000BFB0A2000F0CCFB00F0C8FABDE810402D
:10054000012000F087BB000010B50B4C00220949C8
:10055000204600F065FC002281231146204600F071
:10056000E2FC204600F0DAFC2046BDE81040012104
:1005700000F04CBC801A06000054004010B540F258
:10058000115000F071FE40F2125000F06DFE40F28A
:100590000E7000F069FE40F2117000F065FE40F24E
:1005A000126000F061FE4FF4E06000F05DFE40F28A
:1005B000096000F059FE40F2157000F055FEBDE8EC
:1005C0001040062000F02ABD2DE9F04101224FF035
:1005D000904602231146304600F0BEFB0223032260
:1005E0000021304600F0DAFB2023002203213046B0
:1005F00000F0B2FB01220221304600F07BFB012318
:1006000000220221304600F0A7FB01230322002133
:10061000304600F0C3FB3E4F4FF4007422460221E7
:10062000384600F067FB022223461146384600F0A8
:1006300093FB002223461146384600F0AFFB2246CA
:100640000421304600F056FB65002A46042130465E
:1006500000F050FB234601220221304600F07CFBD3
:10066000234603220121304600F098FB2B4601224D
:100670000221304600F070FB2B4603220121304658
:1006800000F08CFB4FF4204422460021384600F055
:1006900031FB234600220221384600F05DFB234651
:1006A00003220021384600F079FB40F60444012281
:1006B00023461146384600F04FFB23460322002113
:1006C000384600F06BFB04220121304600F012FB9B
:1006D00008220121304600F00DFB042301220221F3
:1006E000304600F039FB042303220021304600F09D
:1006F00055FB082301220221304600F02DFB304635
:10070000BDE8F04108230322002100F047BB0000B0
:100710000004004830B5234D89B0284600F0BAFFE8
:100720005320ADF8100000244FF4FA60ADF81440E7
:100730000690ADF81240ADF816408DF81C4004A9A3
:10074000284600F0EBFF01200090ADF80440ADF822
:100750000840ADF80640ADF80A40ADF80C406A46D6
:100760000021284600F042FEA5220021284600F084
:100770005AFF60220021284600F02EFF0022114679
:10078000284600F05FFF0121284601F024F82846A2
:1007900000F0BFFF012000F09BFA284600F0B4FFF4
:1007A00009B030BD0048014030B54FF0804589B0F8
:1007B000284600F06FFF5320ADF8100000244FF4DE
:1007C000FA70ADF814400690ADF81240ADF816403E
:1007D0008DF81C4004A9284600F0A0FF01200090DD
:1007E000ADF80440ADF80840ADF80640ADF80A4059
:1007F000ADF80C406A460021284600F0F7FD0022C3
:100800001146284600F00FFF60220021284600F024
:10081000E3FE08220021284600F014FF01212846AB
:1008200000F0D9FF284600F0DBFD284600F071FFFC
:1008300009B030BD10B588B000204FF48271CDE909
:10084000001002904FF4007105900690CDE903105E
:10085000064C6946204600F05AFD0021204600F073
:1008600047FD204600F04EFD08B010BD00380040A6
:1008700070B5002211461C2000F078FB1C4C20466D
:1008800000F0E6FF0021204601F047F80021204655
:1008900001F06BF80021204601F053F804212046B6
:1008A00001F047F80821204601F057F84021204682
:1008B00000F0E6FF4FF41651204600F097FF204667
:1008C00000F0E6FF40F206752946204600F0E5FFFD
:1008D0000028F9D00521204600F0EAFF0421204637
:1008E00000F0E6FFBDE87040642000F0F1B90000C0
:1008F0000044004003B5BDF8041081829DF8061045
:1009000081750CBD1CB5044601A800F05EF8018895
:10091000ADF8001080788DF8020020460099FFF7AE
:10092000E9FF1CBD38B504461D482060914201D244
:10093000084600E01046A08001D9084600E01046B5
:10094000E0802181628102D94FF0010001E04FF087
:10095000000060734FF000014FF00100A073A1850B
:1009600084F82A0084F82B009FED0E0B0B4684EDD3
:10097000080B84F828100A46684604F10C0400F0BD
:1009800024F801888078A4F80B106073FF230C3CD6
:100990001A4619462046FFF7B5FF204638BD00002D
:1009A00094190008000000000000F03F10B501702D
:1009B000002141608173C173642444828282817505
:1009C000017341730374816110BD017042708370C3
:1009D00070470000FF2310B51A4619463948FFF743
:1009E000F4FF384C5A23F222FF21E01CFFF7EDFF01
:1009F0004F239322EB21A01DFFF7E7FF4F236D222A
:100A0000E32104F10900FFF7E0FF4A235622E02129
:100A100004F10C00FFF7D9FF0023ED22FF2104F1C0
:100A20000F00FFF7D2FFFF230F341A461946E01CD0
:100A3000FFF7CBFFBC2375220E21A01DFFF7C5FFDA
:100A400000231A46194604F10900FFF7BEFF1D48AE
:100A50004FF4FA64002322460C211C30FFF7A6FF56
:100A60001848002322460B213830FFF79FFF154816
:100A7000002322460A215430FFF798FF1148002333
:100A8000224609217030FFF791FF0E48A410012380
:100A9000224607218C30FFF789FF0A4801232246AE
:100AA0000621A830FFF782FF0648F021C8304FF436
:100AB000A072FFF737FF04490160012180F82A1076
:100AC00010BD000020000020C81900080748016878
:100AD00041F00801016001680907FCD4016841F098
:100AE0000401016001684907FCD4704708240140F3
:100AF0000905A1F5801101280CD0022809D10A4866
:100B0000026822F44012026001F4401102681143AD
:100B10000160704704480C38026822F470020260D9
:100B200001F47001F2E70000382401400549002873
:100B3000086802D040F4006001E020F40060086022
:100B4000704700000824014004480168C90703D128
:100B5000016841F001010160704700000824014074
:100B60000D4A00294FEAC0710AD019B1116841F449
:100B70008011116080070ED5106840F4004009E034
:100B800019B1116821F480111160800703D5106834
:100B900020F400401060704708240140084A0128F2
:100BA00009D0022806D1106820F4E04010601068D7
:100BB000084310607047106820F46020F6E70000DA
:100BC0000824014070B51F23062802D21A4D2C6854
:100BD00014E00C280CD2184E361F3468801F00EB2E
:100BE0008005AB409C4301FA05F0204330600DE0E6
:100BF00010280BD2104D083D2C680C3800EB8006F5
:100C0000B3409C4301FA06F02043286007230A29D9
:100C100003D2094C243C206805E013290AD2064C73
:100C2000283C20680A3901EB41018B4098438A40F7
:100C30000243226070BD00003424014004490A6868
:100C400022F040720A600A6802430A60704700009E
:100C5000042401400649C20703D00A6842F4800216
:100C60000A60800703D5086840F4001008607047E8
:100C700008240140154B1A1F00294FEAC05111D01A
:100C8000002903DA116841F480711160410503D530
:100C9000116841F480611160800715D5186840F033
:100CA000020010E0002903DA116821F4807111605C
:100CB000410503D5116821F480611160800703D5D7
:100CC000186820F0020018607047000008240140F6
:100CD0000249486048680028FCD1704704000020A1
:100CE00003484168002902D04168491E41607047AD
:100CF00004000020F0B5036A446A002501260F278E
:100D000006FA05FC1CEA020F09D04FEA850C07FA27
:100D10000CFE23EA0E0301FA0CFE4EEA03036D1CDF
:100D2000ADB2082DECD3082506FA05FC1CEA020F2B
:100D30000BD04FEA850CACF1200C07FA0CFE24EA2C
:100D40000E0401FA0CFE4EEA04046D1CADB2102D27
:100D5000EAD303624462F0BD2DE9F0478946016899
:100D60009246C268002401274FF0030C07FA04F5ED
:100D70001D420BD066000CFA06F5A943AA4309FAF6
:100D800006F80AFA06F548EA01012A43641CA4B2EF
:100D9000102CEBD30160C260BDE8F087F0B50129EB
:100DA000416831D099434160816801270325A2F54C
:100DB0007F44FF3C13D0002407FA04F61E4208D0FB
:100DC000660005FA06FC21EA0C0102FA06FC4CEA70
:100DD0000101641CA4B2102CEED38160F0BDC66B7F
:100DE0005FF0000407FA04F21A4206D04FEA440CFE
:100DF00005FA0CFC4CEA01011643641CA4B2102C49
:100E0000F0D38160C663F0BD1943CCE701290168C6
:100E100003D021F480610160704741F48061FAE7FA
:100E20002DE9F041044616460D46022000F03EF939
:100E3000374BB0FBF3F13F2900D33F21626822F02A
:100E40007F020A436260334A954214D8B0FBF3F143
:100E5000491C3F2901D33F2102E0022900D8022189
:100E600021626900B0FBF1F0042800D20420E1699E
:100E7000C0F30B0029E0DFF8A0C005EBC5034FF479
:100E80007A7705EB450203EB0513654521D84FF44E
:100E900096756943B1FBF7F1491C216246B1B0FB7D
:100EA000F3F0E16941F48041E161010506D007E01A
:100EB000B0FBF2F0E16921F48041F5E740F0010078
:100EC000E16941F40041E161E1690143E161BDE8AB
:100ED000F081C1EB0111C900B1FBF7F1491C21629E
:100EE00086B1B0FBF3F0E16941F48041E161E16971
:100EF00041F40041E161E1690143E1610120C4F88D
:100F00009000E4E7B0FBF2F0E16921F48041EDE705
:100F100040420F00A0860100801A0600016841F0DF
:100F200001010160704710B5046824F002040C430D
:100F30000460C3F309010A43826010BD00F030FA77
:100F4000FFF71CFBFFF740FB4FF090410220886148
:100F5000FFF78EFCFFF76EFCFFF7C7FAFFF7F4FA16
:100F6000FFF7D8FBFFF720FCFEE7000070B5054651
:100F70001F4800240E460068234600F4E0614FF449
:100F8000A06081420FD006DCB1F5407F16D0B1F5EC
:100F9000806F06D10FE0B1F5C06F09D0B1F5E06FF9
:100FA00004D000F027F80224234608E0042306E0DA
:100FB0000124032303E00324012300E00424C4F1FB
:100FC00004008640C3F104010F20C84010403043A4
:100FD00005F1E021000181F8000405F01F01012066
:100FE00088406909890001F1E021C1F8000170BD64
:100FF0000CED00E002490843024908607047000018
:101000000000FA050CED00E0024A114001430248DD
:101010000160704780FFFF1F08ED00E021494A682A
:1010200022F440424A600A6B1F4B1A400A630A28A6
:1010300027D2DFE800F005091113151A272B2F33EB
:10104000086B20F4803002E0086B40F480300863C5
:10105000086B20F4807013E0486804E0486807E0FB
:10106000486840F48040486007E0486840F48040A9
:101070004860086B40F000400863086B40F48070E3
:1010800008637047486840F40040ECE7486840F463
:101090000040EDE7486840F44040E4E7486840F429
:1010A0004040E5E700100240FFFEFE7F2DE9F047DB
:1010B00063A688B056CE8DE8560062A28046D2E97B
:1010C0000012CDE904125FA20020D2E90012CDE99E
:1010D00006125F4A0546034651685E4EC1F3810120
:1010E00019B1012901D0022901D0314627E0516808
:1010F0005468C1F38341C4F3C067D46AE40F0FB1ED
:10110000113102E00F2913D0891C04B11F3154683A
:10111000D76AC4F30044C7F3807774B1D46A04F08B
:101120000F04641C37B14C4FB7FBF4F4614306E085
:101130001021EAE7B6FBF4F4F8E7484C6143546841
:10114000C4F303141DF8047021FA07F457680DF175
:10115000100CC7F302271CF8077024FA07F9576828
:101160000DF1180CC7F3C2274FF4004A1CF80770A2
:1011700024FA07F7B8F1070F06D2DFE808F00408F1
:101180000A0C0E3E4600084608B0BDE8F08720462F
:10119000FAE74846F8E73846F6E7106BC00506D48C
:1011A000106BC00301D42E4D25E02E4D23E0506876
:1011B000C0F38131106BC00F31B1012909D0022970
:1011C0000ED0032917D112E008B1032003E07D08F7
:1011D00011E018B10520B4FBF0F50CE0BD080AE001
:1011E00008B10720F7E70620B7FBF0F503E008B1E8
:1011F0000920F0E7FD082846C6E7106B400602D438
:1012000048F21200C0E75046BEE7106B80070ED0D0
:10121000106B00F0030001280BD0106B00F00300EE
:10122000022808D0106BC043800706D006E03B467A
:1012300004E00B4602E0534600E033461846A3E7BD
:101240000000000000000000010203040607080976
:101250000010024000127A00006CDC0200093D0020
:10126000809FD500003FAB01054901EB90110A6852
:1012700000F01F030120984002430A6070470000FD
:1012800000100240054901EB90110A6800F01F03AD
:101290000120984082430A6070470000001002401D
:1012A000054901EB90110A6800F01F0301209840E6
:1012B00002430A60704700000010024010B5094C5C
:1012C000607850B9084800F0BFFA084A21785054B5
:1012D000491C21706078002802D0002020706070C6
:1012E00010BD00000000002000440040100000205D
:1012F0000029416803D041F001014160704741F08D
:101300000201FAE7016841F040010160704702689C
:1013100002F441530A681A434B6813438A681A431C
:10132000CB6813430A691A434B698969134319430C
:101330000160C16921F40061C161704715484168CD
:101340004160416841F400514160416841F480616D
:1013500041604168104A11404160C16A0F4A114022
:10136000C162416841F001614160C16AC1620168C6
:1013700041F08071016001688901FCD5416821F06C
:1013800003014160416841F0020141604168090781
:10139000FCD5704700100240FFFFC0F7F0FFFF3F91
:1013A00070B50E484FF47A710068B0FBF1F0401E42
:1013B000B0F1807F11D24FF0E024606165170F21FA
:1013C0002846FEF78BFF0020A061072020612846F9
:1013D000BDE870400021FEF781BFFEE70C00002051
:1013E000016841F0800101607047000030B5764B24
:1013F000764C31B3012962D002297DD003297CD1FA
:10140000016A21F480510162C16921F44071C16116
:10141000016A146841EA04310162016A21F4005151
:101420000162016AD48841EA04310162984264D1C0
:10143000416821F4804141604168528941EA82114A
:1014400084E0016A21F001010162816921F0030158
:101450008161016A156829430162016A21F0020174
:101460000162016AD58829430162984207D0A042EF
:1014700005D05749884202D05649884267D1016A4F
:1014800021F004010162016A938819430162016A33
:1014900021F008010162016A138919430162416860
:1014A00021F480714160416853891943416041686A
:1014B00021F40071416041689289114346E0016A5C
:1014C00021F010010162816921F440718161016A9A
:1014D000156841EA05110162016A21F020010162EB
:1014E000016AD58841EA05110162984224D1016A56
:1014F00021F04001016201E02AE028E0016A9388BE
:1015000041EA03110162016A21F080010162016A6E
:10151000138941EA03110162416821F4806141604D
:101520004168538941EA83014160416821F40061C7
:1015300041604168928907E0A04208D1416821F4E6
:10154000806141604168528941EA8201416030BD59
:10155000016A21F480710162C16921F00301C16156
:10156000016A146841EA04210162016A21F40071F0
:101570000162016AD48841EA042101629842E6D1FD
:10158000016A21F480610162016A938841EA0321C2
:101590000162016A21F400610162016A138941EA72
:1015A00003210162416821F48051416041685389FF
:1015B00041EA03114160416821F4005141604168F2
:1015C000928941EA0211C1E7002C0140004001402C
:1015D000004401400048014071B1012913D00229A3
:1015E0001AD0032907D1C16921F4E041C161C16961
:1015F00041EA0221C1617047816921F07001816176
:101600008169114306E0816921F4E04181618169CA
:1016100041EA022181617047C16921F07001C16115
:10162000C1691143E6E739B1012907D0022907D082
:10163000032900D102647047426370478263704798
:10164000C263704771B1012913D002291AD003294E
:1016500007D1C16921F40061C161C16941EA022178
:10166000C1617047816921F008018161816911437D
:1016700006E0816921F400618161816941EA02210A
:1016800081617047C16921F00801C161C1691143DD
:10169000E6E700001A4B10B5C21A4FF4E051984229
:1016A0001DD00ADCB0F1804F1CD0164A80181CD027
:1016B000884223D14FF4816409E0B2F5A05F17D0CE
:1016C000B2F5C05F17D08A4218D140F212342046DA
:1016D000FFF7E6FD2046BDE81040FFF7D3BD40F21E
:1016E0000B34F4E74FF48064F1E740F20144EEE795
:1016F0004FF44474EBE740F21134E8E710BD00000A
:10170000002C014000FCFFBF016821F001010160D5
:101710007047016841F0010101607047F0B50A8827
:101720008262204A204B4FF08047904203D0B8425B
:1017300001D098420BD1046824F07004046004685E
:101740004D882C43046004688D882C4304608C68A9
:10175000C462164C164D174E90420CD0B8420AD0B7
:10176000984208D0144B984205D0A04203D0A8421A
:1017700001D0B04207D1036823F4407303600368CB
:10178000CF883B430360904205D0A04203D0A842DB
:1017900001D0B04201D1097B0163416941F00101EF
:1017A0004161F0BD002C01400004004000400140B8
:1017B000004401400048014000200040C94301614D
:1017C0007047C26800690A40084202D00AB101208D
:1017D0007047002070470129416C03D021F400417B
:1017E0004164704741F40041FAE7000070B50D46CE
:1017F000044614490020611804D0B1F5744F04D197
:10180000062000E00220FFF751FC21684FF6F0723D
:1018100009040BD5400000EB5500B0FBF5F000EAE1
:101820000201C0F3420241EA020008E000EB550069
:10183000B0FBF5F101EA020001F00F010843E0609E
:1018400070BD000000BCFFBF406AC0F308007047D5
:101850000A4910B5401805D0B0F5744F0CD140F2CC
:101860000E3401E040F211442046FFF719FD2046F6
:10187000BDE81040FFF706BD10BD000000BCFFBF73
:10188000826822F04002826082680A438260704768
:10189000016841F001010160704700EB91100068A0
:1018A00001F01F0201219140084000D00120704743
:1018B00000EB9110026801F01F03012199400A43D7
:1018C00002607047084A914205D150F8D01F21F4B8
:1018D000004101607047026AC1F30443012199404D
:1018E0000A4302627047000009340F3410B5C1F397
:1018F0008912835800EB915001F01F04012202FA73
:1019000004F400682340C1F304418A40104202D02D
:101910000BB1012010BD002010BD026822F00102B1
:101920000260026822F4C062026002680A43026038
:101930007047026822F00402026002680A430260F3
:101940007047026822F001020260426822F44052AD
:10195000426042680A4342607047026822F008020F
:10196000026002680A4302607047026822F00102C6
:101970000260026822F48052026002680A43026038
:1019800070474FF04070E1EE100A70470000000011
:101990000000000000000000000000000000000047
:1019A0000000000000000000000000000000000037
:1019B0000000000000000000000000000000000027
:1019C0000000000000000000000000000000000017
:1019D0000000000000000000000000000000000007
:1019E00000000000000000000000000000000000F7
:1019F00000000000181A000800000020100000007D
:101A00008C010008281A000810000020E01B0000CC
:101A1000A8010008C1EFFFFF000000000000000067
:081A20000000000000BD0105FB
:04000005080001519D
:00000001FF
