:020000040800F2
:10000000702300204D02000815310008D52F00088C
:10001000A530000861150008D13600080000000076
:100020000000000000000000000000008D33000808
:100030002D17000800000000593100088F33000818
:100040006702000867020008B9320008670200086A
:1000500067020008670200086702000867020008DC
:1000600067020008670200086702000867020008CC
:1000700067020008670200086702000867020008BC
:10008000670200086702000800000000F53400085D
:10009000670200086702000867020008670200089C
:1000A000670200086702000867020008670200088C
:1000B0007136000800000000670200080000000020
:1000C000670200080000000067020008000000004E
:1000D0000000000000000000000000000000000020
:1000E000000000000000000067020008000000009F
:1000F0000000000000000000000000000000000000
:10010000670200080000000000000000000000007E
:1001100000000000000000000000000000000000DF
:1001200000000000000000000000000000000000CF
:1001300000000000000000000000000000000000BF
:10014000000000000000000000000000670200083E
:1001500000F002F800F06AF80AA090E8000C82446F
:100160008344AAF10107DA4501D100F05FF8AFF24C
:10017000090EBAE80F0013F0010F18BFFB1A43F085
:1001800001031847C8D30100E8D301000A444FF027
:10019000000C10F8013B13F0070408BF10F8014BE6
:1001A0001D1108BF10F8015B641E05D010F8016B2B
:1001B000641E01F8016BF9D113F0080F1EBF10F88F
:1001C000014BAD1C0C1B09D16D1E58BF01F801CBB2
:1001D000FAD505E014F8016B01F8016B6D1EF9D535
:1001E0009142D6D37047000000230024002500264A
:1001F000103A28BF78C1FBD8520728BF30C148BF8A
:100200000B607047642900F0A580732900F08D838E
:10021000002070471FB50BF094F99DE8030000F033
:100220001DFD00F0DDFA1FBD10B510BD00F0D0FCC3
:100230001146FFF7EFFF08F033FA00F045FD03B475
:10024000FFF7F2FF03BC00F071FD00000948804792
:1002500009480047FEE7FEE7FEE7FEE7FEE7FEE7A8
:10026000FEE7FEE7FEE7FEE704480549054A064BC0
:10027000704700009D3300085101000870090020FC
:1002800070230020701F0020701F00200FB41CB5C9
:10029000074B06AA7B4469460090059800F01BFBBB
:1002A0000020694600F02AFB1CBC5DF814FB00002E
:1002B0006506000070B5044685690068C10601D571
:1002C000302600E02026C00707D070BDD4E9012108
:1002D00030469047206A401C20626D1EF6D570BDE6
:1002E00070B5044685690078C00707D170BDD4E9B0
:1002F000012120209047206A401C20626D1EF6D507
:1003000070BD70B50C460546012A05D028788006D8
:1003100000D5EA69002302E0012305E05B1C93425B
:1003200002D2E05C0028F9D1A869E618C01AA861D9
:10033000286A184428622846FFF7BCFF04E0D5E984
:10034000012114F8010B9047B442F8D32846FFF777
:10035000C7FF70BD2DE9F0410646002410687529DD
:10036000314616A510D0AFF30080002802DA4042D3
:1003700013A507E031688A0701D512A502E04907F5
:1003800004D511A5012401E0AFF3008000210A2269
:1003900006F1240709E0B0FBF2FCB0FBF2F302FB2C
:1003A0001C00303078541846491C0028F3D12346ED
:1003B0002A463046BDE8F04100F02FBA00000000A8
:1003C0002D0000002B000000200000002DE9F05F50
:1003D000894604464FF0000ADFF824B1FB44C0F818
:1003E00020A02046E168884700287DD0252806D037
:1003F000D4E901219047206A401C2062F1E70025E2
:100400005F462046E16888472028064607DB312EF4
:1004100005D2B81910F8200C08B10543F1E7A80778
:1004200001D525F00405C4F81CA00027C4F818A0C5
:100430002A2E09D0304606F0F1FE38B304EB8708C7
:10044000303EC8F8186019E059F8041B204604EB48
:1004500087029161E1688847012F064618D1E0695B
:10046000002820DA25F020051DE0D8F8180000EB60
:10047000800006EB40003038C8F818002046E168DC
:100480008847064606F0CAFE0028EED1012F0AD0A2
:100490002E2E08D12046E16888477F1C0646022F91
:1004A00045F02005C4DBA069002803DA404245F08E
:1004B0000105A061E80701D025F01005A6B1A6F15D
:1004C0004100192802D8203645F400654A463146D5
:1004D000204625604D46FFF795FE60B1012807D004
:1004E000ED1D25F0070000E007E000F1080978E7BE
:1004F00005F1040975E730467AE7206ABDE8F09F08
:1005000098D0010010B5431C02E010F8011B71B136
:100510008107FAD14FF0013202C88C1A8C4314EAD9
:10052000C211F9D0C01A0A0603D0C01E10BDC01AED
:1005300010BD0A0401D0801E10BD0902FCD0401E6F
:1005400010BD032A40F2308010F0030C00F015803B
:1005500011F8013BBCF1020F624498BF11F801CBC6
:1005600000F8013B38BF11F8013BA2F1040298BF2B
:1005700000F801CB38BF00F8013B11F0030300F095
:10058000D881083AC0F0088051F8043B083A51F885
:1005900004CBA0E80810F5E7121D5CBF51F8043B3E
:1005A00040F8043BAFF30080D20724BF11F8013BB1
:1005B00011F801CB48BF11F8012B24BF00F8013B13
:1005C00000F801CB48BF00F8012B704702F0FF0391
:1005D00043EA032242EA024200F002B84FF000026E
:1005E0000429C0F0128010F0030C00F0D681CCF189
:1005F000040CBCF1020F18BF00F8012BA8BF20F8B3
:10060000022BA1EB0C0100F0C8B95FEAC17C24BF4A
:1006100000F8012B00F8012B48BF00F8012B7047B0
:10062000014900F0DFB90000E008002010B50368C0
:100630001C1404EB21449BB289B2194494FBF2F3DD
:1006400002FB134394FBF2F401EB034393FBF2F13F
:1006500002FB113193FBF2F301E05B1E1144002910
:10066000FBDB016003EB044010BDF0B504464FF026
:10067000FF3585B00068049060680290A068039020
:10068000E068019020690090666906F18040B0F151
:10069000004F7CD83C22002104A8FFF7C7FF3C2272
:1006A000014602A8FFF7C2FF1822014603A8FFF780
:1006B000BDFF411E40F2B55201A8FFF7B7FF0C2263
:1006C000074668460021FFF7B1FF414B00EB87006A
:1006D000304400267B4411E0511A01910099491CD5
:1006E0000229009102D00C2908D105E0810705D02C
:1006F0000199491C019101E0401C00960099019A62
:10070000595C9142E8DD0099012906D11C2A04D1E7
:10071000810702D00221CDE90016A0F146018B2904
:100720003CD2DDE90061002202E09F5C521C3944AA
:10073000B242FADB012E02DD820700D0491E40F2F0
:10074000B55340F26D16C21700EB927292105A43E5
:1007500000F0030303FB062283070A4400D1521E64
:10076000039E02EB4203049F06EBC303029EC3EB0E
:10077000031306EB8303174E33441E149BB2C6EBE0
:100780000616C3EB0313B60007EB830300E005E096
:1007900006EB134666F31F43360C02D0284605B01D
:1007A000F0BD80C4029E40C4039E40C4019E761CDE
:1007B00044F80C6B009E44E902600720521C92FB37
:1007C000F0F600FB162084E823001846E7E7000057
:1007D000F4CD0100A039CEFD70477047704700008E
:1007E00070B5064C7C44064D7D4403E020682044EF
:1007F0008047241DAC42F9D170BD000084CD0100BA
:1008000088CD010010B500F04DF9006810BD10B59D
:10081000044600F047F9046010BD2DE9F0470D468D
:1008200099469246044600F124080168880604D5DA
:10083000E06921F01001216000E00120A84201DD03
:10084000471B00E00027A1697A1902EB0900081A8A
:10085000A0612078C00602D42046FFF72BFD0026B9
:1008600008E0D4E901211AF806009047206A401CEC
:10087000761C20624E45F4DB2078C0060AD520465F
:10088000FFF718FD06E0D4E9012130209047206AE7
:10089000401C2062381EA7F10107F4DC07E0D4E910
:1008A000012118F805009047206A401C2062281E8C
:1008B000A5F10105F3DC2046FFF712FD20780006C4
:1008C00002D50220BDE8F0870120FBE701694A1C40
:1008D00002610878704700B58FB0CDE90131002181
:1008E000059105497944CDE9031011466846FFF7A3
:1008F0006DFD0FB000BD0000E5FFFFFF0A6802F8C4
:10090000010B0A60704710B5436913B1AFF3008063
:1009100001E0FFF7F6FC012010BD127800F1240180
:100920000A7000224A700122EDE711684FF0FF3291
:10093000E9E710B5203AC0F00B80B1E81850203A32
:10094000A0E81850B1E81850A0E81850BFF4F5AF6F
:100950005FEA027C24BFB1E81850A0E8185044BFF9
:1009600018C918C0BDE810405FEA827C24BF51F866
:10097000043B40F8043B08BF7047D20728BF31F85A
:10098000023B48BF11F8012B28BF20F8023B48BFAB
:1009900000F8012B70474FF0000200B51346944653
:1009A0009646203922BFA0E80C50A0E80C50B1F1C7
:1009B0002001BFF4F7AF090728BFA0E80C5048BFDB
:1009C0000CC05DF804EB890028BF40F8042B08BF79
:1009D000704748BF20F8022B11F0804F18BF00F875
:1009E000012B704770B50C46016800204A1C3ED0B0
:1009F0003C22B1FBF2F302FB1313B1FBF2F12360D3
:100A0000B1FBF2F302FB1313B1FBF2F118226360A6
:100A1000B1FBF2F302FB1313B1FBF2F146F2E03249
:100A20000A440721A360B2FBF1F301FB132140F25A
:100A3000B553B2FBF3F5A161B2FBF3F103FB152251
:100A40008900B2F5B77F08D39B10521EB2FBF3F5B5
:100A50002944B2FBF3F503FB15220F4BE261616100
:100A600089077B440CD03B2A0AD3521C08E02C2176
:100A70002046FFF790FF0120E0600AE0521A401C78
:100A8000195C9142FAD9521CC4E903204FF0FF309F
:100A90002062204670BD000066CA01000048704711
:100AA00040090020004870470C09002070B5064638
:100AB00000F0B4F8056806F10B0020F00704B4421A
:100AC0009CBF002070BD2B466A68BAB11068A04276
:100AD00010D304F1080188423CBF5068586007D326
:100AE0005168101941601168091B01605860146059
:100AF000101D70BD13465268002AE7D121462846D2
:100B000000F098F80028DED170BD70B50446051FCE
:100B100000F084F80068002C14BF446870BD002CFD
:100B200018BFAC423CBF20466468F8D301680A187D
:100B3000AA4218BF456003D12A68054611440160E6
:100B400028684119A1421CBF6C6070BD6168696072
:100B500021680844286070BDAFF3008010B500F034
:100B60000EF8016919B100220261884701E080682E
:100B7000804700F0B2F8000010B500F0AEF870B594
:100B800000F050F804680546A4B92020FFF78EFF56
:100B9000040011D0094900202C60C4E90001084973
:100BA000A1602073206160610649A06109B100F075
:100BB0009FF8E061204670BD00F08FF80000000053
:100BC000790B000800000000004870470C09002065
:100BD0007546FFF7F9FFAE4605006946534620F01B
:100BE0000700854618B020B5FFF73EFBBDE8204062
:100BF0004FF000064FF000074FF000084FF0000BD9
:100C000021F00701AC46ACE8C009ACE8C009ACE88B
:100C1000C009ACE8C0098D46704700000048704725
:100C200014090020004870474809002070477047A9
:100C30007047704738B504460A4600206946AFF34E
:100C40000080002808BF38BD02460099204600F009
:100C500073F8012038BD012000F08FB8F8B5AFF36C
:100C60000080054600200C46102000BF0646A8194B
:100C7000A0420DD9324669460020AFF3008007003C
:100C800008BF00F07AF80098A04218BF0546C419C2
:100C9000FFF7C4FF05600746F01D20F00700461966
:100CA000284600F00AF8B44208BFF8BDA21B31463E
:100CB0003868BDE8F84000F03FB800210160C0E9A5
:100CC000011070471020704710B50446AFF3008044
:100CD0002046BDE81040FFF7B2BA10B5002000F082
:100CE00045F8FFF7A1FABDE81040012000F01EB85A
:100CF00010B58820FFF7DAFE002801D0002101702E
:100D000010BD802902D808B1017809B100207047D0
:100D1000012100F8081B704718B100F10802914248
:100D200001D0002070470021017070470149182050
:100D3000ABBEFEE726000200034640688C46002852
:100D400018BF88423CBF03464068F8D3186818446F
:100D5000884207D00CF1030020F00700001D411A63
:100D6000521A0146081D0A60FFF7CFBE10B500F009
:100D700011F8BDE8104000F008B810B500F022F8F6
:100D8000BDE8104000F001B87047002801D0FFF71F
:100D9000CDBF704710B5002102A000F03BF8012044
:100DA00010BD0000534947414252543A2041626EFF
:100DB0006F726D616C207465726D696E6174696FBC
:100DC0006E00000010B5012805D0002103A000F03E
:100DD00021F8012010BD09A1F8E70000534947524E
:100DE000544D454D3A204F7574206F6620686561FB
:100DF00070206D656D6F7279000000003A204865C3
:100E00006170206D656D6F727920636F727275709D
:100E10007465640070B505460C460A2000E06D1C40
:100E200000F011F835B128780028F8D102E0641CF0
:100E300000F009F814B120780028F8D1BDE870401E
:100E40000A20AFF3008008B569468DF80000032042
:100E5000ABBE08BD2DE9FE4FFD4DFE4F05F11C0E4A
:100E6000A86A9EF80120002601684FF001094FF0A2
:100E70000C0A4FF0540B05F11E0307F10E0C07F19D
:100E8000EC04352974D030DC1F2972D01BDCF04A09
:100E90000D2902F14C0292786CD006DC0B297BD034
:100EA0000C2969D1FA70012009E0152978D016299A
:100EB00062D187F80A90007E401CF8720220BDE8DB
:100EC000FE4F03F0E9BB20297ED02B2978D03329AF
:100ED00077D0342950D17A71002A73D0BE7287F846
:100EE000D5606E7102F078F8DDE7B1F5FF7F6AD06A
:100EF00043DCD74B40F2A51803F11C03A1F2A51C5B
:100F000093F9013041457DD011DCD34FA1F58071BB
:100F10009B3978D001292FD1017E491C01763846B2
:100F200008F028FFA86A007E01286DD0BEE2BCF15F
:100F3000010F6AD0BCF1140F1ED17146002B65D091
:100F4000027E521C52B20276012A7DD0022A13D1AF
:100F500002F0C2F903F06AFEBFF34F8FBF48016889
:100F6000BF4A01F4E06111430160BFF34F8FFEE718
:100F7000B1E219E012E00FE083E0A1F58071FF39E2
:100F80007DD013297CD0B1F5756F8CD0A1F570613F
:100F9000513976D187E703E0BA7084E73A7182E786
:100FA000BE721420687289E787F8D520002A9BD08A
:100FB00006F0CAFB032800D13E737E7191E703E07F
:100FC000C7E098E285E29FE2017E491C49B20176C2
:100FD00001297DD12189A088C1EB011100EB81009D
:100FE000A7F8D60068839B48383805F048F9FF23F6
:100FF0001A46194602A805F06DFC0188ADF80010EC
:10100000807804E08EE2A6E0BBE196E297E28DF8FC
:10101000020090480099383805F020FB8D48CDE952
:1010200000BA5C234E227221383804F08DFB8948C7
:101030008C49383805F069F900231A46194602A888
:1010400005F048FC018800E07DE2ADF800108078F2
:101050008DF802007F480099383805F0FFFAFF2329
:101060001A46194602A805F035FC0188ADF80010B3
:1010700080788DF8020077480099383802E04BE21A
:1010800031E2D5E004F024FB7248002276A1383822
:1010900004F0ADFA80466F48383804F050FB00EB9E
:1010A000D0727821A1EB62010AB208EBD8719E20C0
:1010B000A0EB610001B267486BA33838009605F0D9
:1010C0000CF9FF231A46194602A805F003FC00E0BC
:1010D0002BE00188ADF8001080788DF802005D48A3
:1010E0000099383805F0BAFA00231A46194602A8C2
:1010F00005F0F0FB0188ADF8001080788DF8020053
:1011000054480099383804F0E3FA4FF47A7006F046
:10111000C7F95048383805F0B2F801F055FF286398
:1011200001F052FFE86201F057FFA86A007E022832
:101130007ED12189A088C1EB011100EB8100A7F8C5
:10114000D6006883012003F0A7FABDE8FE4F01F046
:1011500043BFFA71A7E6017E491C01763E4808F0BC
:1011600009FEA86A90F91800401E02287ED204F1F8
:101170000C0007C806F041FD60B32069401E2061E5
:101180006069A0F26C70606133482C38FFF76DFA2B
:1011900000906846FFF744FA806900B90720F870AC
:1011A000207D6438C0B206F06FF93870207C401C96
:1011B000C0B206F069F97870207B06F065F9B87066
:1011C000254808F04DFE2069401C2061606900F24E
:1011D0006C7060611F48383805F051F8FF231A46DB
:1011E000194602A805F076FB0188ADF8001080785A
:1011F0008DF8020017480099383805F02FFA154885
:10120000CDE900BA5C234E227221383804F09CFAF2
:1012100010481449383805F078F800231A46194662
:1012200002A805F057FB0188ADF80010807800E0B7
:10123000A2E08DF8020007480099383805F00EFA50
:10124000FF231A46194602A805F044FB01880EE068
:1012500008000020B0050020C80600200CED00E0CA
:101260000400FA050D8401084F4B000051E0ADF871
:10127000001080788DF80200B548009904F028FA33
:101280000022AFF21C01B24804F0B1F98046B04828
:1012900004F055FA00EBD0727821A1EB62010AB29A
:1012A00008EBD8719E20A0EB610001B2AFF24803B9
:1012B000A748009605F011F8FF231A46194602A820
:1012C00005F008FB0188ADF8001080788DF8020069
:1012D0009F48009905F0C2F900231A46194602A852
:1012E00005F0F8FA0188ADF8001080788DF802005A
:1012F0009748009904F0ECF94FF47A7006F0D0F8B2
:10130000934804F0BCFF01F05FFE286301F05CFE2F
:10131000E862A86A007E03282ED104F10C0007C8F9
:1013200006F06BFC50B32069401E20616069A0F29A
:101330006C7060618748FFF798F900906846FFF786
:101340006FF9806900B90720F870207D6438C0B259
:1013500006F09AF83870207C401CC0B206F094F871
:101360007870207B06F090F8B8707A482C3008F03E
:1013700077FD012003F090F9BDE8FE8FA86A06769C
:10138000FAE7207A06F080F83871207906F07CF8C8
:1013900078717048BE712C3008F062FD6C4804F022
:1013A0006EFFFF231A46194602A805F093FA01883A
:1013B000ADF8001080788DF802006548009905F0BE
:1013C0004DF9CDE900BA5C234E227221604804F049
:1013D000BBF961495E4804F098FF00231A4619469C
:1013E00002A805F077FA0188ADF8001080788DF832
:1013F00002005748009905F031F9FF231A461946B3
:1014000002A805F067FA0188ADF8001080788DF821
:1014100002004F48009904F05BF90022AFF2B811C6
:101420004B4804F0E4F88046494804F088F900EBA2
:10143000D0727821A1EB62010AB208EBD8719E202C
:10144000A0EB610001B2AFF2E0134148009604F056
:1014500044FFFF231A46194602A805F03BFA01880B
:10146000ADF8001080788DF802003948009905F039
:10147000F5F800231A46194602A805F02BFA018850
:10148000ADF8001080788DF802003148009904F022
:101490001FF94FF47A7006F003F82D4804F0EFFEC0
:1014A00001F092FD286301F08FFDE862A86A007EDA
:1014B00002287FF465AF207A05F0E6FF38712079C5
:1014C00005F0E2FF78712348BE712C3008F0C8FCAB
:1014D000E9E43E73E7E42149027EC861B818A962D5
:1014E000407D087648E7017EC06990F918201848C9
:1014F0004D301154D7E490F91810197011F80C10F0
:1015000059701649403903E0017E5970134920395A
:10151000C861A9620E762FE793F90010587801F898
:101520000C00C0E423B10020B87118B12E75BAE4E4
:101530000120F9E785F81490B5E43A72B3E4BDE808
:10154000FE4F01F0B1BD81F801908EF8009013E7D5
:10155000780500209C0600200D84010878010020F9
:10156000FEE7000070B5FF2388B015460E4604461E
:101570001A46194607A805F0ADF90188ADF8001024
:1015800080788DF802001C48009905F067F8224623
:101590001AA101A8FEF77AFE1949174804F0B5FE12
:1015A000002201A9144804F022F8044600EBD4708C
:1015B000A521A1EB600006440020009001AB05F1DD
:1015C0003C0231B20C4805F061F80E490A4804F0BB
:1015D0009CFE0DA00DA30068069006A8009030198F
:1015E00001B20C4605F13F02034805F04FF80848E8
:1015F000448408B070BD0000780500202564000018
:101600003269010843820108F99C0000B0430000E0
:10161000080000200848816A8A88002A0AD091F9C7
:101620001800431C5BB20B76934201DB00220A7662
:1016300002F0FABD70470000080000200848816AE7
:101640008A88002A0AD091F91800431E5BB20B76F3
:10165000002B01DA521E0A7602F0E6BD7047000048
:1016600008000020184810B5806A184C90F918003E
:10167000022803D0012811D0B8B120E0E068401E54
:10168000E0601CD11F2001E0E068401EE060D4E96A
:10169000041206F0B2FA0028F6D010E02069401ECD
:1016A00020610CD10C20206109E0606940F2E371F7
:1016B000401E6061884202DA40F633006061BDE896
:1016C000104000F035B80000080000209C06002003
:1016D00070B51448144C0125806AD4E9041290F9BD
:1016E0001800022803D0012809D070B116E0E06884
:1016F000401CE06006F081FA80B9E5600EE0491C0C
:1017000021610D290AD1256108E0521CA2F5006073
:101710006261343802D140F2E3706061BDE870402C
:1017200000F006B8080000209C060020704700006A
:101730002DE9F041FE4F9AB0B86A00680B2806D038
:101740000C2804D00D2802D0FA4804F098FDB86A9D
:10175000F74E40F29B120168002401251C36A1F2CD
:101760009B1091427ED017DC1F2920D00DDCF04C5D
:101770006FF0180504F14C040B2974D00C2973D0B8
:101780000D29FAD016291CD1B3E020296DD02B29C0
:10179000EBD0342915D1F9E04FF4A0781E2865D09C
:1017A00006DC0128F2D00A287ED00B2809D145E1B9
:1017B0001F287AD0B0F5137F09D0A0F57060B43837
:1017C00074D0DDA001F00EF91AB0BDE8F081FF235E
:1017D0001A4619460CA805F07DF80188ADF80010EE
:1017E00080788DF80200D348009904F037FF0C216F
:1017F0005420CDE900015C234E227221CD4803F034
:10180000A3FFD149CB4804F080FD00231A461946B6
:101810000CA805F05FF80188ADF8001080788DF80D
:101820000200C448009904F019FFFF231A46194624
:101830000CA805F04FF80188ADF8001080788DF8FD
:101840000200BC48009903F043FF0022BFA1B94841
:1018500003F0CDFE0546B74803F071FF00EBD070F2
:10186000782204E0C5E13BE034E0C5E1C7E1A2EB4A
:10187000600002B205EBD5709E21A1EB600001B2C1
:10188000B2A3AC48009404F028FDFF231A46194681
:101890000CA805F01FF80188ADF8001080788DF8CD
:1018A0000200A448009902E025E17BE2D3E204F0C3
:1018B000D5FE00231A4619460CA805F00BF801883E
:1018C000ADF8001080788DF802009A48009903F076
:1018D000FFFE79E702F01EFD9DA001F0E1F801E0B6
:1018E00002F018FD94F902000F22294601F006F9D2
:1018F0006AE79BA001F076F8B86A90F91800411CDD
:1019000001EB4101890000EB800001EB8005002420
:1019100023E000BF874804EB4406E83830440188E0
:10192000ADF8001080788DF802008248009904F02C
:1019300095FE5A20009005EBD570A021A1EB600028
:1019400000EB860004EB840100EB810001B20C2364
:101950004B22784803F0A3FE641CB86A90F9180083
:10196000401CA042D6DCFF231A4619460DA804F0FD
:10197000B1FF0188ADF8001080788DF802006D4845
:10198000009904F06BFE02F0C5FC1DE7002177A072
:1019900001F056F86C49674804F0B7FC00231A467A
:1019A00019460FA804F096FFFF2307461A4619466A
:1019B0000EA804F08FFF06953988ADF81410B97899
:1019C0008DF816100188ADF8101080788DF812008F
:1019D000707800B1012068A10091CDE90104642371
:1019E0001A4619461420039401F0E0F800231A4621
:1019F00019460EA804F06EFFFF2307461A46194643
:101A00000FA804F067FF06953988ADF81410B9786F
:101A10008DF816100188ADF8101080788DF812003E
:101A2000707848B1002055A10091CDE901046423EC
:101A30001A461946039458E00120F4E742493D480C
:101A400004F063FC00231A46194611A804F042FF73
:101A5000FF2307461A46194610A804F03BFF0695D7
:101A60003988ADF81410B9788DF816100188ADF8E2
:101A7000101080788DF81200307800B10120717854
:101A800001B101213CA2CDE90021CDE9020464238A
:101A90001A464621142001F089F800231A461946F7
:101AA00010A804F017FFFF2307461A46194611A88D
:101AB00004F010FF06953988ADF81410B9788DF848
:101AC00016100188ADF8101080788DF8120030786B
:101AD00068B10020717861B1002128A2CDE9002110
:101AE0006423CDE902041A464621C82055E10120AD
:101AF000F0E70121F1E714490E4804F006FC002349
:101B00001A46194613A804F0E5FEFF2307461A46B5
:101B1000194612A804F0DEFE06953988ADF81410B7
:101B2000B9788DF816100188ADF81010807827E08C
:101B300008000020780500204E6F7420696D706CDD
:101B4000656D656E746564000D8401084F4B00007F
:101B500045636F203C20436F6D666F727400000018
:101B6000506F776572206C6576656C0050726F6798
:101B700072616D6D650000004F4E00004F464600DB
:101B80008DF81200707800B10120C9A10091CDE953
:101B9000010478231A463C211420039401F006F82E
:101BA00000231A46194612A804F094FEFF230746A4
:101BB0001A46194613A804F08DFE06953988ADF82B
:101BC0001410B9788DF816100188ADF810108078CF
:101BD0008DF81200707850B10020B6A10091CDE9C7
:101BE000010478233C211A46B4200394D5E0012057
:101BF000F3E702F005F9E7E502F012FAE4E5AF4990
:101C0000AF4804F082FBB86A90F9180010B10128BF
:101C10004CD070E000231A46194617A804F05AFE6B
:101C2000FF2307461A46194616A804F053FE0695E8
:101C30003988ADF81410B9788DF816100188ADF810
:101C4000101080788DF812009EA0CDE900040021CC
:101C500002943C23474642460846039400F0A6FF00
:101C600000231A46194616A804F034FEFF238046C6
:101C70001A46194617A804F02DFE0695B8F800205C
:101C8000ADF81420014698F802008DF81600088877
:101C9000ADF8100088788DF812008FA0CDE900040F
:101CA0003C2302943A462D21039421E000231A4656
:101CB000194617A804F00EFEFF2307461A461946D8
:101CC00016A804F007FE06953988ADF81410B97807
:101CD0008DF816100188ADF8101080788DF812007C
:101CE00080A0CDE900043C230294424600210394E5
:101CF000002000F05BFF7149714804F006FB0023EF
:101D00001A46194615A804F0E5FDFF2307461A46B2
:101D1000194614A804F0DEFD06953988ADF81410B4
:101D2000B9788DF816100188ADF8101080788DF80C
:101D30001200707800B101206EA10091CDE901047C
:101D40005A231A4673211420039400F02FFF002316
:101D50001A46194614A804F0BDFDFF2307461A468B
:101D6000194615A804F0B6FD06953988ADF814108B
:101D7000B9788DF816100188ADF8101080788DF8BC
:101D80001200707860B100205BA10091CDE90104E0
:101D90005A231A467321D220039400F007FF13E55B
:101DA0000120F1E74549464804F0AFFA00231A46FE
:101DB000194617A804F08EFDFF2306461A46194659
:101DC00016A804F087FD06953188ADF81410B17897
:101DD0008DF816100188ADF8101080788DF812007B
:101DE00046A0CDE9000402943C23474642464621E2
:101DF0000020039400F0DAFE45A347A249A107A8FA
:101E0000FEF744FA002207A92D4803F0F0FB002357
:101E10001A46194616A804F05DFDFF2306461A4629
:101E2000194617A804F056FD06953188ADF8141030
:101E3000B1788DF816100188ADF8101080788DF803
:101E4000120007A8CDE900043C23732102943A460E
:101E500000200394A1E71949194804F056FA002319
:101E60001A46194619A804F035FDFF2306461A46FE
:101E7000194618A804F02EFD014606953088ADF8E5
:101E80001400B0788DF816000888ADF81000887836
:101E90008DF8120025A0CDE9000402943C234246AF
:101EA00046210020039400F081FE07F08FFE8BE4B2
:101EB00035302500313030250000000099920108AE
:101EC00078050020526573657420616C6C20646530
:101ED000766963650000000073657474696E6773EA
:101EE0003F00000041726520796F7520737572653F
:101EF0003F000000596573004E6F00004375727219
:101F0000656E74206669726D77617265000000000D
:101F100031322E352E32000076657273696F6E3A5B
:101F2000200000002573257300000000436F6E6ED3
:101F3000656374696E672E2E2E0000002DE9F04354
:101F4000E04C0746E04EA06A8BB010B170780028D4
:101F50007ED0012F06D0002008F01AF8DA48383871
:101F600004F08DF900231A46194607A804F0B2FCC4
:101F70000188ADF8001080788DF80200D2480099F1
:101F8000383804F06BFB1A250095608C53230C3015
:101F900001B2CD488922383803F081FBFF231A466D
:101FA000194607A804F096FC0188ADF80010807867
:101FB0008DF80200C4480099383804F04FFB70795E
:101FC0004FF0000950B105F0E3FB40B20F220021B1
:101FD00000F094FD607D042862D063E0307BC0B3E4
:101FE000012846D002284DD00328F3D1B648B74B7C
:101FF0003C229621383803F075FCB348B449383890
:1020000004F083F900231A46194609A804F062FC7B
:10201000FF2380461A46194608A804F05BFC0146D7
:1020200001200690B8F80020ADF8142098F80200BE
:102030008DF816000888ADF810008878A5A1CDE9C4
:1020400000192D238DF81200CDF80890522201E0DE
:102050002CE106E0A0219120CDF80C9000F0A6FD27
:10206000B8E705F0B1FB0F22002100F047FD9A4BC5
:1020700006E005F0A9FB0F22002100F03FFD974B81
:102080000F2207E005F0A0FB0F22002100F036FD33
:10209000934B0D228C480C21383803F023FC99E730
:1020A000A06AE8B300231A46194601A804F012FCFE
:1020B0000188ADF8001080788DF802008248009900
:1020C000383804F0CBFA307B009503283FD0608C81
:1020D000532388220C3001B27B48383803F0DFFAF2
:1020E000FF231A46194601A804F0F4FB0188ADF855
:1020F000001080788DF8020073480099383804F099
:10210000ADFA707B48B1307B032806D06E48754B22
:102110008C220C21383803F0E5FB96F8D50000E05E
:1021200005E0012817D07079012817D020E0307B16
:102130006D4B032808D0608C89220C3001B26248B4
:10214000383803F0CFFBDCE732220C21F7E72B23F2
:1021500032220C21C0E7654B4D2204E0307B644BFA
:1021600003280FD0502258480C21383803F0BAFB0E
:10217000307B03287ED0B07A05254FF00C0801286B
:1021800002D003E09322EEE7707930B1207E13286D
:102190002AD80F281CD9042526E0F57A052D0AD067
:1021A000042D0AD0032D0BD0022D0DD0012D0DD002
:1021B00084F8099019E0142000E01020607201E01A
:1021C00084F80980002412E00820F7E70420F5E7EE
:1021D0000A2801D3032507E0052801D9022503E0D9
:1021E00008B1012500E00025E57000241DE041490B
:1021F00004EB440008440188ADF8001080788DF8A5
:10220000020031480099383804F028FA352060433C
:1022100000EBC4000B3001B22B483523D5223838EF
:10222000CDF8008003F03BFA641CAC42DFDBFF23F7
:102230001A46194603A804F04DFB0188ADF80010BA
:1022400080788DF8020020480099383804F006FAAA
:1022500000231A46194603A804F03CFB0188ADF898
:10226000001080788DF8020017480099383803F084
:102270002FFA00E015E014481F49383804F045F8FB
:10228000B07A012801D1707998B11CA01CA3006814
:10229000019001A800900C48C2220B21383804F0AC
:1022A0001CF8012F02D0012007F072FE0BB0BDE830
:1022B000F08315A116A3D1E90001CDE9010101A820
:1022C0000090E8E708000020B0050020DA3501089A
:1022D000999201084F666600C42A01085E28010829
:1022E00071230108F71F0108096101085916010847
:1022F000221B0108900400203DCE01080202029C2E
:102300004155544F0000000002020202029C0000EE
:10231000435553544F4D00002DE9F043F94D87B01C
:10232000A86A00287ED0806838B3F74803F0A7FF7A
:1023300001F0F0FFA86AF44B0024816890F91800BE
:10234000A84601EB40109F25026806200C21A0271B
:1023500038334FF03C0926462B2A78D021DC0D2A51
:1023600076D00FDC0D2A71D2DFE802F0704073A83E
:10237000ABAE7070707070B0B30007B0BDE8F043E2
:10238000FFF7D6B9202A7DD006DC152A7BD0162A85
:102390007AD01F2A5AD176E1292A76D02A2AF9D171
:1023A0008CE140F2A51CA2F2A51362456ED00CDCB4
:1023B000352A4BD002DC2C2AECD191E1A2F58072B7
:1023C0009B3A76D0012AE5D159E2162B72D006DC71
:1023D000012B70D0142B6FD0152BDBD186E1A3F528
:1023E0007063AA3B69D0012BD4D142E20E21CDE922
:1023F000001054235C221946104605F063F8FF23B1
:102400001A46194603A804F065FA0188ADF80010D1
:1024100080788DF80200BC48009904F01FF9BB4990
:10242000B94800E08EE203F070FF0022B8A1B64880
:1024300003F0DDF800EBD070A5EB600001B2B4A3AF
:102440006E22B148009603F048FFB3A443E240E196
:10245000B9E0CDE9001054235C221946104605F07E
:1024600031F81E2000900A2378228321A64803F029
:1024700016F9262000900A2370229321A24803F027
:102480000EF904E00BE1A1E0CEE014E1FAE12E2028
:1024900000900A236822A3219B4803F000F936200C
:1024A00000900A236022B321974803F0F8F89DA416
:1024B00011E2E1E1ACE1E8E115E1ACE19B4D9CA466
:1024C000EDE19D4D9DA4EAE19FA404E2A14DA2A4EB
:1024D000E5E1FF231A46194602A804F0FBF901883A
:1024E000ADF8001080788DF802008748009904F05C
:1024F000B5F800231A46194602A804F0EBF9018842
:10250000ADF8001080788DF802007F48009903F044
:10251000DFF84E2003460090512279217A4803F0DB
:1025200009FF00231A46194602A804F0D3F90188CE
:10253000ADF8001080788DF802007348009904F01F
:102540008DF8FF231A46194602A804F0C3F9018842
:10255000ADF8001080788DF802006B48009903F008
:10256000B7F83C23462296216748CDF8009003F047
:10257000E1FE322000903C234622A021624803F075
:102580008EF8FF231A46194602A804F0A3F9018821
:10259000ADF8001080788DF802005B48009904F0D7
:1025A0005DF800231A46194602A804F093F9018841
:1025B000ADF8001080788DF802005348009903F0C0
:1025C00087F867A487E1674D67A468E1CDE900104B
:1025D00054235C221946104604F074FFFF231A4668
:1025E000194604A804F076F90188ADF80010807847
:1025F0008DF802004448009904F030F85D494248E3
:1026000003F083FE00225CA13F4802F0F0FF00EBE4
:10261000D070A7EB600001B257A35D223A48009644
:1026200003F05BFE55A456E1CDE9001054235C2273
:102630001946104604F046FFFF231A46194605A81E
:1026400004F048F90188ADF8001080788DF8020098
:102650002D48009904F002F846492B4803F055FE36
:10266000002248A1284802F0C2FF00EBD0709D2153
:10267000A1EB600001B243A35C222348009603F063
:102680002CFE41A427E193F8D500002801D0404D4D
:1026900000E0404D01D040A401E142A4FFE0CDE9BB
:1026A00000104FF054034FF085021946104604F015
:1026B00009FF40A40FE1424D42A4F0E0CDE9001033
:1026C00054235C221946104604F0FCFE404D41A400
:1026D000E5E0D87908B1414D00E0414D41A4DEE08C
:1026E000424D43A4DBE0444D44A4D8E0CDE90010C2
:1026F00054235C221946104604F0E4FE3E4D41A4EA
:10270000933DCCE008000020780500206EBD010854
:102710004D4F44450000000048656174206D6F64B2
:1027200065000000506F776572000000D1C300089B
:1027300054696D657200000065D4000853657474B7
:10274000696E67730000000050726F6772616D6D93
:102750006500000060B60008436F6D666F7274001C
:1027600045636F0017BD0008416E74692D66726F76
:102770007374000028B30108410000004175746FB4
:102780000000000043000000437573746F6D00008B
:102790008DCF000845CB000854696D6572206973C0
:1027A000206F6E0054696D6572206973206F6666D4
:1027B000000000005365742074696D6572000000AC
:1027C000B35201084461746520262074696D650068
:1027D000FFEF0008446973706C61790008E4000839
:1027E000CBEA0008536F756E64000000DE2E01080E
:1027F00053657276696365000A3D01085265736529
:1028000074000000496E666F726D6174696F6E00CE
:102810004E4D4FA443E0CDE90010542385221946C4
:10282000104604F04FFEFF231A46194606A804F08E
:1028300051F80188ADF8001080788DF80200474803
:10284000009903F00BFF4649444803F05EFD002267
:1028500044A1424802F0CBFE00EBD070A5EB600033
:1028600001B240A36E223D48009603F036FD3FA41E
:1028700031E0414D41A412E0454D46A40FE0484DE2
:1028800048A40CE04A4D4BA409E0CDE900105423C4
:102890005C221946104604F015FE494D49A4D5B1F5
:1028A0002B4601AA69462D4803F08AF9F0BBBDF911
:1028B0000410BDF9000001EBD1717822A2EB610197
:1028C00000EBD0700AB2A7EB600001B22B462348A0
:1028D00003F008F82EE0D8F828004546816890F902
:1028E000180001EB40100068202823D139491B480B
:1028F00003F00BFD698B4846B1FBF0F209FB1213A4
:10290000B1FBF9F234A103A8FDF7C0FC002203A932
:10291000124802F06CFE00EBD070A7EB60000023C1
:102920000096019600B203AA672100E002E0029639
:1029300000F0F2F9002C05D007B02046BDE8F043C6
:1029400000F050B807B0BDE8F08300001264010841
:10295000436F6E6E656374696F6E000078050020CA
:102960006EBD01085354415254000000436F6E6E17
:10297000656374696E6700000A3D010852657365FE
:102980007420636F6E6E656374696F6E0000000083
:10299000DADC00085365742064617465000000008F
:1029A000164D01085365742074696D6500000000C0
:1029B00008FA00084272696768746E6573730000F4
:1029C00000F400084175746F2073776974636820A0
:1029D0006F6666000D840108253032643A25303276
:1029E000640000001CB5FF2304461A46194601A8DE
:1029F00003F070FF0188ADF8001080788DF80200B8
:102A00000D48009903F02AFE0C490B4803F07DFCA9
:102A100000222146084802F0EAFD0021009100EB67
:102A2000D070A021A1EB600001B22346B922024878
:102A300003F053FC1CBD00007805002099920108AA
:102A40007CB5FF230C4605461A46194601A803F03B
:102A500041FF0188ADF8001080788DF802000E4823
:102A6000009903F0FBFD0D490B4803F04EFC0022DA
:102A70002946094802F0BBFD0021009100EBD0700F
:102A8000A021A1EB600001B22B4604F11A0202481A
:102A900003F023FC7CBD000078050020999201081A
:102AA0001CB5FF2304461A46194601A803F012FF7D
:102AB0000188ADF8001080788DF802000D4800996B
:102AC00003F0CCFD0C490B4803F01FFC002221460B
:102AD000084802F08CFD0021009100EBD070A0218D
:102AE000A1EB600001B223461022024803F0F5FB7F
:102AF0001CBD0000780500206EBD010870B5FF23E5
:102B000088B015460E4604461A46194607A803F033
:102B1000E1FE0188ADF8001080788DF802001C48B5
:102B2000009903F09BFD22461AA101A8FDF7AEFB18
:102B30001949174803F0E9FB002201A9144802F0E3
:102B400056FD044600EBD470A521A1EB60000644BD
:102B50000020009001AB05F13C0231B20C4803F0BB
:102B6000BCFB0E490A4803F0D0FB0DA00DA3006882
:102B7000069006A80090301901B20C4605F13F02FC
:102B8000034803F0AAFB0848448408B070BD000065
:102B9000780500202564000032690108438201089D
:102BA000F99C0000B0430000080000202DE9FF4F11
:102BB0008BB08B46DDE91C54DDE9181792461E46A2
:102BC00000225448DDF86C8002F011FD0590514858
:102BD00002F0B5FD81460B990AEBDA72059801EB1C
:102BE000620100EBD070A1EB600000B206EBD67280
:102BF00003900BEB620109EBD970A1EB600000B20E
:102C000002900FB1294600E02146424803F026FD1C
:102C10000720CDE9006053465A463E480B9902F022
:102C200093FD47B121463B4803F018FDB8F1000F72
:102C300039D017B138E02946F5E72946354803F081
:102C40000DFD2146334802F043FD0720CDE9006029
:102C500053465A462F480B9902F076FD21462D48DF
:102C600003F0FCFC29462B4802F032FDC8F10000BD
:102C700006EB4002072112B20AEB4000CDE9002129
:102C800003B20BEB080002B20B98404401B221489A
:102C900002F05AFD29461F4803F0E0FC21461D487A
:102CA00002F016FD02E00FB1294600E02146194866
:102CB00002F00EFD0020DDE9022100901548189B6E
:102CC00003F00BFB1A9878B10FB32146114803F0BB
:102CD000C5FC032000900298059B4844401D02B2A9
:102CE0000C48039902F0DBFC00231A46194609A898
:102CF00003F0F0FD0188ADF8001080788DF8020037
:102D00000448009902F0E4FC0FB0BDE8F08F2946BA
:102D1000DCE70000780500202DE9FF4F83B01C00A0
:102D2000DDE91187DDF840B00E46824603D0FF236F
:102D30001A46194602E000231A46194601A803F074
:102D4000C9FD3948019903F089FC002236480599EC
:102D500002F04DFC8146344802F0F1FC054600EBE0
:102D6000470000B2009009EB480003B2F01B02B22A
:102D7000AAEB080001B22C4802F091FC74B10023C8
:102D80001A46194601A803F0A5FD2748019903F04A
:102D900065FC3CB1FF231A46194606E0FF231A469C
:102DA0001946EFE700231A46194601A803F092FDE1
:102DB0001D48019902F08CFC0020009032465146DB
:102DC0001948059B03F089FABBF1000F14D034B306
:102DD00000231A46194602A803F07CFD1248029906
:102DE00003F03CFC042000907019401D02B24B46D9
:102DF00051460D4802F053FC00231A46194601A81B
:102E000003F068FD0188ADF8001080788DF80200AD
:102E10000548009902F05CFC07B0BDE8F08FFF2385
:102E20001A461946D7E70000780500207CB500F067
:102E3000CBF84D4C616B884279D900F0C5F86063DE
:102E4000617D4A4E1A25022905D039B3032928D0BD
:102E500004292AD02CE000231A46194601A803F0C1
:102E600039FD0188ADF8001080788DF802003F48E8
:102E70000099383803F0F2FB307B0095032809D025
:102E8000608C532389220B3001B23848383802F065
:102E900006FC3BE02B233B221621F6E700F57A7077
:102EA00001E000F5FA70606302E0207A00283ED16C
:102EB000207A4FF0000380F001002072307B1A4628
:102EC0000328194601A833D003F004FD0188ADF8AA
:102ED000001080788DF8020024480099383803F0FB
:102EE000BDFB0095608C53230C3001B21F48892232
:102EF000383802F0D4FB207A40B1608C89221C4B18
:102F00000C3001B21948383802F0ECFCFF231A46A5
:102F1000194601A803F0DEFC0188ADF800108078A6
:102F20008DF8020011480099383803F097FB7CBDFA
:102F300003F0D0FC0188ADF8001080788DF8020015
:102F40000A480099383803F089FB08482B233B22B4
:102F500016213838009502F0A2FB207A0028D5D03F
:102F60003B22034B1621CDE708000020B0050020CE
:102F70000961010810B5114C00202075012007F0EF
:102F800007F800F021F8616B884216D9207A80F0AA
:102F90000100207200F018F800F5FA70606308482C
:102FA00003F06DF9207A002807D04022BDE81040D8
:102FB000044B6421024802F095BC10BD08000020BB
:102FC00078050020D75A01080148006870470000C2
:102FD00000000020FEE700002DE9F0472E4C20788D
:102FE000D0B194F8D50008B96079A8B12B4806F0A3
:102FF000C1FE2A4E0025307800F00F01000900EBD9
:10300000800001EB4000C0B2132809D2607938B1CA
:1030100084F8D55065712573BDE8F04706F078BE99
:1030200006F076FE94F8D500DFF870904FF08047F8
:1030300009F114094FF003084FF4807A01281ED0DB
:103040006079012826D189F8095089F80A5089F851
:103050000B504FF08030C9F8000004F075FB20736E
:10306000C9F804700D4889F80880143006F028FE6D
:10307000504606F0E3FEBDE8F04706F06BBE89F867
:10308000095089F80A50B07989F80B000448C9E959
:103090000007E7E7BDE8F087B0050020AC0400209A
:1030A00000808080FEE7000010B5174CA06AC06960
:1030B00028B3002006F06CFFA26A04F11C0011681E
:1030C000332910D0A1F58073B93B02D100210170E2
:1030D0004170D069C4F82800FFF71EF9BDE8104020
:1030E000012006F055BF09494B79002BF1D1D36976
:1030F000074AA262D361497901704170ECE7BDE8EB
:10310000104000F0E7BA000008000020B0050020E1
:10311000B801002070470907090E002806DA00F000
:103120000F0000F1E02080F8141D704700F1E0204E
:1031300080F8001470470000024900204870FEF734
:10314000F7BA000024000020024901204870FEF771
:10315000EFBA000024000020704700002DE9F04184
:10316000524E534C0025B36AA4F1EC0006F11C0248
:103170001968332967D01CDC162951D010DC4B4A62
:103180000B2902F14C023DD0032307240C293FD028
:103190000D293FD0152941D1BDE8F041FDF75ABEB8
:1031A0001F2941D0202942D02B2937D1C079107056
:1031B00078E040F2A51CA1F2A517614563D01ADCA6
:1031C00034295ED035293ED03A4FA1F580719B3924
:1031D0003BD0012922D1384606F0CCFD387904F0E5
:1031E0003FF9A060787904F03BF96060B87904F0A9
:1031F00037F9206042E0012F56D0142F23D0592FE9
:103200000CD120E0807890700A201070232049E0D3
:10321000C07800E00079907013705470BDE8F081C0
:10322000C07A401E1876F9E790F8D500BFE7B0F8ED
:10323000D6103C20B1FBF0F2A260B1FBF0F200FB33
:103240001210C4E900501D76E8E71A4806F092FD16
:10325000B87804F005F9E060787804F001F92061AD
:10326000387804F0FDF8132802D240F2E37004E04D
:10327000387804F0F5F800F5FA606061B06A057618
:10328000CCE7407993E78079002806D04FF0000022
:10329000107005D14FF0010004E04FF00100F7E796
:1032A0004FF000005070B9E7007A80E70800002076
:1032B0009C060020AC04002010B54FF4807420461A
:1032C00006F0C4FD002806D0204606F0B7FDBDE894
:1032D000104006F0DBBC10BD2DE9F0412A4C01275F
:1032E0000025277065701820A0700420E07005206C
:1032F00020716771A771E77125726572A572E77217
:10330000257365730326A673E67326746674A67424
:10331000E67426750522A82104F12D00FDF756F963
:103320001E2084F859000A2084F85A00012218212E
:1033300004F11500FDF74AF984F8D5504FF43470C4
:10334000A4F8D60004F1600040F8785F456085601D
:10335000C56006F03DFDA4F582707F210181FF214B
:10336000418120210170C67047708770056112216C
:10337000C56001714571857106F072FD002800D1AC
:10338000FEE7BDE8F0810000B0050020704710B5F1
:1033900004F08EF8BDE8104000F0A4B8484810B51D
:1033A00046494160474A426081608260016941F05C
:1033B00020010161016941F040010161C168C90753
:1033C000FCD1016921F020010161016941F0100186
:1033D0000161C16911F0060F3B490AD0C269C2F30D
:1033E0004102012A07D0C269C2F34102032A04D074
:1033F00005E0A52202E0BB2200E0CC220A80C169E0
:10340000DF2202EA1121304A921C1180C169921C0C
:10341000C1F307411180C169090E921C1180016A34
:10342000921CC9B21180016A921CC1F3072111805C
:10343000016921F0100101612448016841F4700123
:1034400001602348016841F00101016001688907BA
:10345000FCD541681F4A1140416041681E4A114035
:10346000416001681D4A11400160C16A1C4A114057
:10347000C162016B40F2031291430163016B21F4BD
:1034800080310163016B21F000410163416B21F048
:1034900001014163D0F8C01021F48031C0F8C010A0
:1034A00000218160C0F8CC1006F0D6FDBDE81040C8
:1034B00000214FF0006005F071B90000230167455D
:1034C00000200240AB89EFCD00F8FF1F88ED00E03F
:1034D000001002400C00FF08FFFFC277FFFFF2FE62
:1034E000F0FFFF3F02480168491C0160704700007F
:1034F0000000002010B5084C0121204606F0EFFF27
:10350000012807D10121204606F0E6FFBDE8104062
:1035100000F004B810BD00000020004009494FF43D
:1035200080720879401EC0B208714B78834201D97D
:10353000054B01E0044B10331A60002801D1142020
:1035400008717047080000201804004810B50B4CA3
:103550000F226FF0180194F90200FEF703F8A0782B
:10356000401E40B2A07094F90010884201DA6078E1
:10357000A070BDE81040FEF7DBB80000540000204A
:1035800010B50B4C0F226FF0180194F90200FDF7F3
:10359000E9FFA078401C40B2A07094F90110884265
:1035A00001DD2078A070BDE81040FEF7C1B8000032
:1035B00054000020154830B4826A154892F918402A
:1035C000D0E9011314B1012C0FD018E05B1E836009
:1035D0001268202A00D123B1002B10DA1721816054
:1035E0000DE061B90121416009E0491E41601468A4
:1035F0003B22202C00D12BB1002900DA426030BCE4
:10360000FEF796B80129F9DBF9E700000800002071
:103610009C060020F0B4144800250124836A134856
:1036200093F91860D0E9011216B1012E0CD014E004
:10363000521C8260172A00DD85601A68202A0CD18E
:10364000826852B971B108E0491C41601B68202BA7
:1036500000D12AB13B2900DD4560F0BCFEF768B817
:103660003B29FADD4460F8E7080000209C060020B2
:1036700070B5124C1049204606F0D4FF68B12046C0
:1036800006F07AFF0F490E4B0A789854521CD0B2BC
:103690000870C82801D1002008700B4D204629462B
:1036A00006F0C0FF002806D02946204606F0A6FFF7
:1036B00006490120087070BD050005070044004060
:1036C000DC06002058040020040004075A040020EF
:1036D000FEE70000024900208862FEF72FBC0000D0
:1036E0000800002010B540F21C7005F0CDFC05F07C
:1036F000B7F84FF40064204605F042FC204605F080
:103700004DFCE01005F0EAFC40F60F0005F0BCFCB3
:10371000BDE8104006F014BC10B500214FF48070D5
:1037200003F070FE0121084603F092FD07220521F7
:10373000002003F009FE0121022003F063FE0020B7
:1037400003F044FE0121084603F0BAFD4FF4602166
:10375000012003F0D3FD002003F098FD03F0A4FD49
:103760000A2003F09DFE03F061FDBDE8104001203A
:1037700003F038BE10B5094C00220749204604F07A
:1037800071F9002281231146204604F01BFA2046DD
:10379000BDE8104004F0ECB9801A06000054004067
:1037A0002DE9F041334C0126334D207D022804D110
:1037B000287810B101F090F80026FFF705FCE062D0
:1037C000687800274FF00108A0B3287820B1207D49
:1037D000012815D0A0B115E02748383803F0BEF90C
:1037E000A87908B1277501E084F8148001F074F815
:1037F000002006F0CDFB01F005F90020BDE8F081C6
:1038000001F06AF81C48383803F0A8F9A87908B123
:10381000277501E084F81480002006F0B9FB01F060
:10382000F1F8FFF7D1FBA0F5D2407838E062687874
:103830000026B0B92878A0B1287A70B1207D02287E
:103840000BD1A87908B1277501E084F81480002015
:10385000FEF774FBFFF7B8FB20640748383803F025
:103860007DF9FFF7B1FB41F288310844206430460E
:10387000C4E7000008000020B005002010B540F2A9
:10388000157005F001FC40F2115005F0FDFB40F20F
:10389000125005F0F9FB40F20E7005F0F5FB40F216
:1038A000117005F0F1FB40F2126005F0EDFB4FF4F2
:1038B000E06005F0E9FB40F2096005F0E5FB40F24D
:1038C0001C7005F0E1FBBDE81040062005F022BAAF
:1038D00030B503461046064C07E013F8015BC2B250
:1038E0006A4054F8222082EA1020491EF5D230BDE9
:1038F00078D001082DE9F04101224FF090460223D3
:103900001146304604F03BF80223032200213046E2
:1039100004F05CF8504F4FF4F0742346022201216A
:10392000384604F02CF8234603220021384604F0E0
:103930004DF8202300220321304604F020F8012214
:103940000221304603F0E4FF012300220221304629
:1039500004F015F8012303220021304604F036F864
:103960004FF4007422460221384603F0D1FF0222B0
:1039700023461146384604F002F800222346114639
:10398000384604F023F822460421304603F0C0FFF5
:1039900065002A460421304603F0BAFF2346002280
:1039A0000221304603F0EBFF23460322012130467B
:1039B00004F00CF82B4600220221304603F0DFFF12
:1039C0002B4603220121304604F000F84FF4204436
:1039D00022460021384603F09BFF234600220221A5
:1039E000384603F0CCFF234603220021384603F07B
:1039F000EDFF40F60444012223461146384603F009
:103A0000BEFF234603220021384603F0DFFF0422D5
:103A10000121304603F07CFF08220121304603F0EB
:103A200077FF042301220221304603F0A8FF04237C
:103A300003220021304603F0C9FF0823012202219E
:103A4000304603F09CFF3046BDE8F04108230322D6
:103A5000002103F0BBBF0000000400482DE9F04343
:103A6000002391B01A4619460CA802F033FF0188D2
:103A7000ADF8001080788DF80200CA48009901F076
:103A800027FEFF231A4619460CA802F023FF0188DF
:103A9000ADF8001080788DF80200C248009902F05D
:103AA000DDFDDFF80083012608F13808BE4C98F8E8
:103AB0000600002508B1257500E02675B94802F01A
:103AC000DEFBB84803F04AF8002006F061FAB74B75
:103AD0000EAA0DA9B34802F073F8A02790B9BDF95A
:103AE0003810BDF9340001EBD1716E22A2EB6101F7
:103AF00000EBD0700AB2A7EB600001B2AB4BA94853
:103B000001F0F0FE012006F043FA4FF4FA6948464E
:103B100003F0C6FC002006F03BFAA24802F0AFFB1F
:103B2000A048E838C168E83002F098FDA0499D48F7
:103B300002F0EBFB00229FA19A4801F058FD00EB38
:103B4000D070A7EB600001B29AA35022954800956F
:103B500002F0C3FB00229BA1924801F048FD00EB5C
:103B6000D070A7EB600001B296A378228D48009533
:103B700002F0B3FB97498B4802F0C7FBFF231A46BC
:103B800019460CA802F0A6FE0188ADF80010807856
:103B90008DF802008348009902F060FD8EA390A288
:103BA00090A107A8FCF772FB002207A97D4801F04D
:103BB0001EFD00EBD070A7EB600001B207ABB9228D
:103BC0007848009502F089FB012006F0E1F94846AB
:103BD00003F066FC002006F0DBF9A562256498F886
:103BE00005004746012802D103F0AEFD387303F00B
:103BF00001FEA07010F17F0F4FF4A0770DD07F2849
:103C00003BD030287EDD002000F09EFFE5700320D1
:103C1000A071E07900285DD02AE0002000F094FF38
:103C2000E570A671E07918BBE6715E4802F027FBEB
:103C30006E495C4802F069FB00231A46194610A839
:103C400002F048FEFF2304461A4619460FA802F068
:103C500041FE06962188ADF81410A1788DF8161053
:103C60000188ADF8101080788DF8120060A087E010
:103C700004F0FEFD11B0BDE8F083002000F064FF09
:103C8000E5700220A071E0790028F1D1E671454885
:103C900002F0F5FA5549434802F037FB00231A4673
:103CA000194610A802F016FEFF2304461A461946CC
:103CB0000FA802F00FFE06962188ADF81410A17827
:103CC0008DF816100188ADF8101080788DF812006C
:103CD00048A055E0E671334802F0D1FA4349314833
:103CE00002F013FB00231A46194610A802F0F2FD59
:103CF000FF2304461A4619460FA802F0EBFD06966C
:103D0000218800E00CE0ADF81410A1788DF81610B1
:103D10000188ADF8101080788DF8120036A02FE0E1
:103D200010F11A0F4FF0000038DA00F00DFFE570C7
:103D30000420A071E07900289AD1E671194802F0B8
:103D40009EFA2A49174802F0E0FA00231A4619465B
:103D500010A802F0BFFDFF2304461A4619460FA81B
:103D600002F0B8FD06962188ADF81410A1788DF800
:103D700016100188ADF8101080788DF812001FA081
:103D8000CDE9000500210295F0233A460846039547
:103D9000FEF70CFF012006F0FBF869E7FEF7CEF80E
:103DA00068E700007805002008000020DC0001081A
:103DB000F7B501084555524F54454348204D4554E9
:103DC000414C000050414E454C204845415445521D
:103DD000000000006EBD010831322E352E32000089
:103DE000562E20002573257300000000326901085B
:103DF00045310000453200004533000045340000E5
:103E00002DE9F043764C8DB076A10BA8E268FCF763
:103E10003DFA74A10CA82269FCF738FA73A108A82E
:103E20006269FCF733FA7349A4F5927002F06DFAF7
:103E3000A4F5927001F083FCC0F178000FFA80F9CC
:103E4000002208A9A4F5927001F0D1FB0023C7B2AB
:103E50001A46194607A802F03DFDFF2304461A46FC
:103E600019460AA802F036FD012606962188ADF80B
:103E70001410A1788DF816100188ADF810105E4D61
:103E800080788DF81200A86A0024007E00287DD07A
:103E9000002008A90091CDE901043C2307F1140298
:103EA00049460F200394FEF781FE00220CA95348D7
:103EB00001F09DFB0023C7B21A4619460AA802F07A
:103EC00009FDFF2380461A46194607A802F002FDA5
:103ED0000696B8F80020ADF8142098F802108DF876
:103EE00016100188ADF8101080788DF81200A86ABD
:103EF000007E012800D000200CA90091CDE901042A
:103F000007F114023C239046494696200394FEF79D
:103F10004DFE00220BA9394801F069FB00231A4627
:103F200019460AA802F0D6FCFF2307461A4619468E
:103F300007A802F0CFFC06963988ADF81410B978BE
:103F40008DF816100188ADF8101080788DF81200E9
:103F5000A86A007E02283CD000200BA90091CDE980
:103F600001043C2342464946E6200394FEF71EFE28
:103F7000FF231A46194607A802F0ACFC0188ADF8E9
:103F8000001080788DF802001C4800E01FE00099C6
:103F900002F064FB00231A46194607A802F09AFCB7
:103FA0000188ADF8001080788DF802001348009960
:103FB00001F08EFBA86A90F9180060B101280CD0BE
:103FC0000FA000BFFEF70EFD0DB0BDE8F08301208D
:103FD0005FE70120C1E70CA0F4E70EA0F2E70000C4
:103FE0009C06002025303264000000002530346437
:103FF000000000000D840108080000207805002062
:104000005365742064617900536574207965617229
:1040100000000000536574206D6F6E74680000002E
:104020002DE9F0478CB07349734802F06EF972487D
:1040300001F085FB714FC0F178000FFA80FA70A192
:1040400007A8BA68FCF722F9002207A96A4801F01C
:10405000CEFA0023C6B21A4619460AA802F03AFC64
:10406000FF2304461A4619460BA802F033FC01252B
:1040700006952188ADF81410A1788DF816100188E6
:10408000ADF81010DFF8808180788DF81200D8F834
:1040900028000024007E00287ED000210DF11C099C
:1040A00048468DE813005720A0EB56003C234622DB
:1040B00051460394FEF77AFD51A107A87A68FCF7F0
:1040C000E5F8002207A94C4801F091FA0023C6B296
:1040D0001A4619460BA802F0FDFBFF2307461A46B5
:1040E00019460AA802F0F6FB06953988ADF81410B7
:1040F000B9788DF816100188ADF8101080788DF819
:104100001200D8F828004746007E01286DD0002113
:10411000CDF80090CDE90114CB20A0EB56003C2354
:10412000462251460394FEF741FDFF231A461946E5
:104130000AA802F0CFFB0188ADF8001080788DF856
:1041400002002D48009902F089FA00231A46194608
:104150000AA802F0BFFB0188ADF8001080788DF846
:1041600002002548009901F0B3FA00231A461946C7
:104170000BA802F0AFFBFF2380461A4619460AA897
:1041800002F0A8FB0646002220A11B4801F02FFAEE
:104190000695B8F8002000E025E0ADF8142098F866
:1041A00002108DF816103188ADF81010B1788DF826
:1041B000121016A1CDE9001400EBD070A021A1EBE4
:1041C0006000029400B23723042251460394FEF7A4
:1041D000EDFCB86A007E50B10DA000BFFEF702FCF6
:1041E0000CB0BDE8F087012158E7012190E70BA052
:1041F000F4E700000D840108780500209C060020EB
:104200002530326400000000080000203A00000061
:10421000536574206D696E75746500005365742074
:10422000686F7572000000002DE9F04F834689B079
:104230003449354802F069F8334F4D37002606EB14
:104240004600002500EB0611412006EB460A00EB74
:10425000410800BF05EB4501132000EB011905EBF8
:104260004A04224629A107A8FCF710F8385D032864
:1042700001D9012038555C4508D02548806A90F95D
:104280001800A04202D0BBF1FF3F30D100231A46F4
:10429000194608A802F01EFB01210691395D1A4B50
:1042A00001EB4102D93B1A441388ADF814309278DF
:1042B0008DF816200288ADF8102080788DF8120055
:1042C0001348806A90F91800A04219D0032917D02A
:1042D0000021002007AACDE90020CDE9020120231A
:1042E0002A220FFA88F10FFA89F0FEF75FFC6D1CA5
:1042F000062DAFDB761C042EA1DB09B0BDE8F08FE4
:104300000221E6E76EBD0108780500202564000063
:104310000800002010B5084B65220C21074801F069
:10432000E1FA054BBDE81040463365224FF48F712A
:10433000024801F0D7BA0000C9150108780500202D
:1043400070B5244C0246D3B2607EFF2800D163765C
:10435000607A814208D1607E904205DDA07A617B5F
:10436000884201D0401CA0721B48E57A0179491BA4
:104370000025914217DB017B022914D0617E914216
:1043800011DDA572FF2161764573022101730121C0
:1043900021744571FEF718FE00F57A702063002045
:1043A000FDF7CCFD12E0607E90420BDA03F00CFAD0
:1043B000E17A401A904205DBA07A617B884201D005
:1043C0006376A572A07A617B884201D1012070BD1D
:1043D000002070BD08000020B00500201FB54FF47C
:1043E000E16004F051FE154C204605F0E1FF6846FF
:1043F00006F089F844F61F00ADF800000021ADF882
:10440000041040F2E730ADF802100290ADF806104B
:104410006946204606F00CF80121204606F05CF8BB
:104420000121204606F054F8204605F0FBFF00224B
:104430001146132004F064F91FBD00000020004065
:1044400030B5224D89B0284605F0B2FF5320ADF8B3
:10445000100000244FF4FA60ADF814400690ADF857
:104460001240ADF816408DF81C4004A9284605F00E
:10447000DFFF01200090ADF80440ADF80840ADF832
:104480000640ADF80A40ADF80C406A4600212846C7
:1044900005F03AFE00221146284605F052FF602240
:1044A0000021284605F026FF00221146284605F087
:1044B00057FF0121284606F01CF8284605F01EFE8D
:1044C000284605F0AFFF09B030BD000000480140AC
:1044D00030B54FF0804589B0284605F069FF53207C
:1044E000ADF8100000244FF4FA70ADF814400690B7
:1044F000ADF81240ADF816408DF81C4004A92846CE
:1045000005F096FF01200090ADF80440ADF808409A
:10451000ADF80640ADF80A40ADF80C406A460021FF
:10452000284605F0F1FD00221146284605F009FF56
:1045300060220021284605F0DDFE082200212846E1
:1045400005F00EFF0121284605F0D3FF284605F0AF
:10455000D5FD284605F066FF09B030BD2DE9F041D4
:104560004B4F384603F0FFFA7D1501224FF090447F
:104570002B461146204603F002FA2B460322002167
:10458000204603F023FAA5616E000122334611464E
:10459000204603F0F4F9334603220021204603F0BD
:1045A00015FAA66100E000BF2946204603F009FA8B
:1045B0000128F8D100E000BF2946204603F001FAA7
:1045C0000128F8D1A56200E000BF2946204603F08B
:1045D000F8F90028F8D1A66200E000BF3146204675
:1045E00003F0EFF90028F8D1A66100E000BF3146E2
:1045F000204603F0E6F90128F8D1A56100E000BFEC
:104600002946204603F0DDF90128F8D12A46042185
:10461000204603F07DF932460421204603F078F964
:104620002B4600220221204603F0A9F92B46032243
:104630000121204603F0CAF9334600220221204618
:1046400003F09DF9334603220121204603F0BEF911
:104650004FF40041384603F0C0FA00BF002138464D
:1046600003F0BBFA00BF384603F082FA4FF48042F1
:104670000849384603F0F6F90022812311463846EE
:1046800003F0A0FA3846BDE8F04103F071BA00002B
:1046900000540040801A06002DE9FE4F8346FEF7C5
:1046A00093FC884C00250C262063A16A54274FF008
:1046B00078080B684FF09E09A3F580724FF4FA6AF0
:1046C00004F150009B3A07D1CA69D2F81CC09CF88B
:1046D00018C0BCF1040F03D0B3F5CE7F57D05BE018
:1046E000C26178489030A062C261002005F050FCA1
:1046F000754801F0C4FDFF231A46194602A802F0CE
:10470000E9F80188ADF8001080788DF802006E4855
:10471000009901F0A3FFCDE900765C234E227221BF
:10472000694801F011F86949674801F0EEFD00237E
:104730001A46194602A802F0CDF80188ADF800101B
:1047400080788DF802006048009901F087FFFF2310
:104750001A46194602A802F0BDF80188ADF800100B
:1047600080788DF802005848009900F0B1FF0022CF
:1047700057A1554800F03BFF0646534800F0DFFFC5
:1047800000EBD072A8EB620002B2009560E0CA694B
:10479000D3691B7E042B05D0C969C161BBF1020F2F
:1047A0007ED089E0C2614B48A062A16CC16100204B
:1047B00005F0EEFB444801F062FDFF231A4619465E
:1047C00002A802F087F80188ADF8001080788DF813
:1047D00002003D48009901F041FFCDE900765C23DD
:1047E0004E227221384800F0AFFF3849364801F0B8
:1047F0008CFD00231A46194602A802F06BF80188C6
:10480000ADF8001080788DF802002F48009901F073
:1048100025FFFF231A46194602A802F05BF801881B
:10482000ADF8001080788DF802002748009900F05C
:104830004FFF002226A1244800F0D9FE0646224858
:1048400000F07DFF00EBD072A8EB62010AB2009588
:1048500006EBD671A9EB610001B21DA31A4801F065
:104860003CFDFF231A46194602A802F033F80188DE
:10487000ADF8001080788DF802001348009901F01F
:10488000EDFE00231A46194602A802F023F801881B
:10489000ADF8001080788DF802000B48009900E018
:1048A00008E000F015FF012005F072FB504602F011
:1048B000F7FD02E0C969C161A062FEF785FBE06215
:1048C000BDE8FE8F08000020780500200D84010857
:1048D0004F4B0000780200200A4810B5C07900282C
:1048E0000FD0094CA5220021204605F02AFD1420F6
:1048F00002F0D6FD20460022BDE81040114605F02A
:1049000020BD10BDB0050020004801407CB5314CF1
:10491000A56A686918B102B0BDE870400047A86890
:1049200048B1A98839B195F9181000EB4110002160
:10493000C561A0620176A06A00680B2803D00C282C
:1049400001D00D2817D100231A46194601A801F0FD
:10495000C1FF0188ADF8001080788DF802001E4874
:10496000009901F07BFEC8200346462200901146C4
:10497000194800F094FEA06A0068052816D1164870
:10498000CC3805F0F7F9144ACC3A107802F068FDFB
:1049900013280BD8507802F063FD0C2806D2A06AC9
:1049A0000C49C069B031A162A064C861A86810B1A7
:1049B000A06A806858B1FCF74DFA002005F0E8FACB
:1049C000FDF7AAFCBDE87C40012005F0E1BAFEF746
:1049D000C5FBF2E70800002078050020810705D11B
:1049E000642190FBF1F201FB120141B94FF4C8714F
:1049F00090FBF1F201FB120008B10020704701208A
:104A0000704700001FB500231A461946684601F09A
:104A100061FF0188ADF80C1080788DF80E002648F3
:104A2000039900F055FEFF231A461946684601F027
:104A300051FF0188ADF80C1080788DF80E001E48EB
:104A4000039901F00BFE1C4801F019FC1B4B02AA54
:104A500001A9194801F0B4F898B9BDF908107822F5
:104A600001EBD171BDF90400A2EB61010AB200EBC8
:104A7000D070A021A1EB600001B2104B0E4800F0F5
:104A800031FF012005F084FA4FF4FA6002F008FDCE
:104A900009483830007800284FF0000002D0FDF7B8
:104AA0004DFA1FBD05F074FA034801F0E8FB024817
:104AB00001F040FF1FBD0000780500201D420108E5
:104AC00010B50F4CA16A086910B1BDE8104000474D
:104AD0008888002813D0002005F05AFAA06A017EC9
:104AE000491C49B201768288914201DB002101769E
:104AF000FDF712FCBDE81040012005F049BA10BDD9
:104B00000800002010B50F4CA06AC16811B1BDE8C3
:104B1000104008478088002813D0002005F038FA9C
:104B2000A06A017E491E49B20176002902DA0179A4
:104B3000491E0176FDF7F0FBBDE81040012005F0AD
:104B400027BA10BD080000202DE9F041040001D56E
:104B5000002402E0142C00DD1424184D1848E7B29C
:104B60002F70417ADFF85C801648202608F128086B
:104B700059B1202102F0FEFE20B1C8F80060642087
:104B800002F08EFC6F70BDE8F0810A2C09DD0D4843
:104B900018300660642002F083FCEC2000EB440037
:104BA00009E0202102F0E6FE20B1C8F80060642090
:104BB00002F076FC60006870E5E700000800002065
:104BC000B00500200004004870B50C4D012028708D
:104BD000FEF744FF0A4C0020E071FEF7FDF9FEF7F6
:104BE000F3F92063FEF7F0F9A063A87A002804D156
:104BF000BDE870400A20FFF7A7BF70BDB0050020D8
:104C00000800002010B5002005F0C2F90648A0F504
:104C10001C71886200210176FDF77EFBBDE8104023
:104C2000012005F0B5B900007802002070B502F04F
:104C300061FD342002F012FD104D284602F01CFDEB
:104C4000342002F00BFD0E4C4FF0FF32E8212046DD
:104C5000FEF73EFE21463B26C1F8E80005E021684C
:104C6000284602F057FD241D2D1D761EF7D2342054
:104C700002F0F4FCBDE8704002F0F6BC00F8010858
:104C8000B005002070B5124E0025124C86F8D550A4
:104C9000B6F8D60060832846FFF756FF357001202E
:104CA000A074A572FF2060762574E573002005F0DE
:104CB0006FF9A6F1380001F03DFEA6F1380001F0D1
:104CC000DEFA03F0D5FDFEF77FF9206370BD00002A
:104CD000B00500200800002010B588B000204FF477
:104CE0008271CDE9001002904FF40071059006909A
:104CF000CDE90310064C6946204605F08CF90021E9
:104D0000204605F079F9204605F080F908B010BD7D
:104D10000038004070B5002211461C2003F0F0FC62
:104D20001C4C204605F030FC0021204605F091FC8B
:104D30000021204605F0D4FC0021204605F09DFC12
:104D40000421204605F091FC0821204605F0A1FC35
:104D50004021204605F030FC4FF41651204605F066
:104D6000DDFB204605F030FC40F206752946204662
:104D700005F02FFC0028F9D00521204605F034FC71
:104D80000421204605F030FCBDE87040642002F0AC
:104D900087BB0000004400401FB500231A46194697
:104DA000684601F097FD0188ADF80C1080788DF809
:104DB0000E002648039900F08BFCFF231A46194683
:104DC000684601F087FD0188ADF80C1080788DF8F9
:104DD0000E001E48039901F041FC1C4801F04FFAF7
:104DE0001B4B02AA01A9194800F0EAFE98B9BDF9C7
:104DF0000810782201EBD171BDF90400A2EB61012A
:104E00000AB200EBD070A021A1EB600001B2104B00
:104E10000E4800F067FD012005F0BAF84FF4FA6083
:104E200002F03EFB09483830007800284FF00000BF
:104E300002D0FDF783F81FBD05F0AAF8034801F082
:104E40001EFA024801F076FD1FBD00007805002023
:104E5000B74701082DE9FF4F804600699BB0002845
:104E60007CD082781792022A01D0012A76D1D8F814
:104E700014200792002216926FF063020C92C07801
:104E80000D9002910020CFE21E98435C0020099013
:104E90001890D8F810000524611C425C015D02EBFB
:104EA000012111F0FF0129D0E21C855CA21C99426E
:104EB000825C05EB02220FFA82F97CD1B9F1080F6E
:104EC0001CDB01211891211D04F1050B435C0993A2
:104ED00010F80B10E71D01F07F020492A21D0025BF
:104EE000825C0A92C05D049A00F07F0A9A1A1798B1
:104EF000A2EB0A06022802D0012871D06FE2C8098D
:104F00006FD00A9A0D99A9F10800891A0026A1EB21
:104F10000A070E96119096E0D8F8100001190E9825
:104F20000830085C95FBF7F10FFA81FB10F0C00F19
:104F300058D000F03F0A05EB0A010DB2B14606EB6E
:104F40000A010EB2000678D5289840B1404698F87C
:104F5000193098F8182098F8171007E077E20798AA
:104F6000C0F30743C0F30722C1B2404601F07EFB05
:104F70001D990A98084410903844401E00B21990B8
:104F80000299049808440B9018E01099199B01EBC2
:104F9000090002B20B98584401B2404601F0A5F94D
:104FA000A7EB0901AAEB01000FFA80FA4FF0000904
:104FB0000BF1010000E046E20FFA80FB09EB0A006A
:104FC000B842E2DC1098484400EB0A0102B20B98A8
:104FD000491E0BB2584401B2404601F086F92CE05C
:104FE000D5E036E0289949B1404698F8193098F84C
:104FF000182098F8171001F039FB09E08006020E1E
:105000004046079900F0BEFA0146404601F026FBF3
:105010001D990A980844304402B204990298014448
:1050200001EB0B0001B2404601F038FB6D1C761C11
:105030002DB236B201E0F01B06B2BE42FBDA0E988A
:10504000401C00B20E900E9911988142FFF664AF99
:10505000C5E10027A9F1080011900E97384691E0AC
:10506000D8F8100001190E980830085C95FBF6F18D
:105070000FFA81FB10F0C00F53D000F03F0A05EB90
:105080000A010DB2B94607EB0A010FB2000673D54B
:10509000289838B1404698F8193098F8182098F8B0
:1050A000171006E00798C0F30743C0F30722C1B208
:1050B000404601F0DBFA049902980844109030440D
:1050C000401E00B219900A991D9808440B9016E0F2
:1050D0000B981099584402B201EB090001B2404606
:1050E000199B01F0EAF8A6EB0901AAEB01000FFAFF
:1050F00080FA0BF101004FF000090FFA80FB09EB79
:105100000A00B042E4DC1098484400EB0A01491E52
:105110000BB20B9959440AB201B2404601F0CDF8E6
:105120002AE0289949B1404698F8193098F8182093
:1051300098F8171001F09AFA09E08006020E40462E
:10514000079900F01FFA0146404601F087FA1D99C1
:105150000A98014401EB0B0002B20299049808443A
:10516000384401B2404601F099FA6D1C7F1C2DB203
:105170003FB201E0B81B07B2B742FBDA0E98401C01
:1051800000B20E9011998842FFF66AAF27E1289885
:1051900040B1404698F8193098F8182098F8171040
:1051A00001F064FAD8F81000C15DC9097ED010F88A
:1051B0000B00C00962D00A9A0D99A9F10800891A5A
:1051C00000261190A1EB0A070E96304652E000BF70
:1051D000D8F8100001190E980830085C00F07F091B
:1051E000C00939D095FBF7F00FFA80FB02990498BB
:1051F000B246084410900A991D9808440B901BE091
:10520000384403B20B981099504402B201EB0B00E2
:1052100001B2404601F069F8A7EB0A00A9EB0001D2
:105220000FFA81F92918304406B20BF101000DB2D2
:105230004FF0000A0FFA80FB0AEB0900B8420B9806
:10524000DEDC504400EB090102B210980BB2584466
:1052500001B2404601F049F805EB090005B206EB42
:10526000090000E0F01B06B2BE42FBDA0E98401CBB
:1052700000B20E9011998842AADBB0E00027A9F194
:1052800008000E97109055E0D8F81000BA460119A2
:105290000E980830085C95FBF6F100F07F09C00914
:1052A0000FFA81FB38D00299049800E047E00844E7
:1052B0000B900A991D980844CDF844000AEB0900A8
:1052C000B0421CDD0B98304403B21198584402B22E
:1052D0000B98504401B2404600F0EFFFA6EB0A00E5
:1052E000A9EB00010FFA81F92918384407B20BF134
:1052F00001000DB24FF0000A0FFA80FBDEE70B99B8
:1053000001EB0A0000EB09010BB2119959440AB2F2
:1053100001B2404600F0D1FF05EB090005B207EBF2
:10532000090000E0B81B07B2B742FBDA0E98401C38
:1053300000B20E900E9910988142A5DB4FE0002735
:10534000A9F108000597BB460F9045E0D8F810007A
:1053500001190BF10800085C0E9001E0B81B07B2C0
:10536000B742FBDA0598B94690FBF6F00FFA80FADF
:105370005FF0000509EB0500B04205D10AF101001C
:10538000C5F100090FFA80FAC5F107010120884034
:105390000E9900B2014211D10A991D98014401EB06
:1053A0000A00411C0BB202B204990298014401EBBD
:1053B0000900284401B2404600F097FF6D1CEDB291
:1053C000082DD7D30BF101000FFA80FB05980830A8
:1053D00000B208373FB205900F998B45B6DB29988C
:1053E00080B1169940566FF0630188420ADD0C9037
:1053F000169A2998104490F90100884202DD501C49
:1054000000B21690189860B102990998084400B249
:1054100002900C9810F1640F03DD0299084400B269
:1054200002901598401C00B215901E98FBF76AF880
:10543000159988423FF628AD07991FB04046BDE850
:10544000F04F01F00BB904EB09010CB224E51FB0D9
:10545000BDE8F08F2DE9F34705462DED020B2DED4C
:10546000068BB0EE408AF0EE608A88B09FED410B6B
:105470009FED429B9DF8469053EC102B51EC180B7E
:1054800005F0C8FC09D2BDF8440040EA094008B064
:10549000BDEC068B04B0BDE8F08753EC192B51EC42
:1054A000180B05F0F1FD03D2B0EE498AF0EE698ADF
:1054B000287D05F09BFC53EC182B05F0E7FC41EC34
:1054C0001A0B53EC182B51EC190B05F0DFFE884634
:1054D000044648EC190B9DF8440005F087FC53EC9A
:1054E000192B05F0D3FC53EC1A2B05F0C3F905F08A
:1054F00009FC0646687D05F079FC53EC182B05F095
:10550000C5FC41EC1A0B48EC194B9DF8450005F021
:105510006DFC53EC192B05F0B9FC53EC1A2B05F07C
:10552000A9F905F0EFFB0746A87D05F05FFC53ECF9
:10553000182B05F0ABFC41EC180B48EC194B484616
:1055400005F054FC53EC192B05F0A0FC53EC182B80
:1055500005F090F905F0D6FBC3B2FAB2F1B205A896
:1055600001F0B8F90188ADF80010827841EA0240F4
:105570008DE70000000000000000000000000000B7
:105580000000F03F7FB5CCB2C2F1FF0314FB03F47F
:10559000C57D15FB0245C1F3072414FB03F4067E09
:1055A00016FB0244C1F3074111FB03F1407E10FBDF
:1055B0000213C82295FBF2F094FBF2F193FBF2F296
:1055C000FF2800DDFF20FF2900DDFF21FF2A00DD8D
:1055D000FF22D3B2CAB2C1B203A801F07BF901889D
:1055E000ADF80010827804B041EA024070BD2DE9A8
:1055F000F74F0646006900284FD04FF000096FF0C2
:10560000630B4D464C4642E001984FF0000A53466A
:1056100010F804C0306905214A1C475C825C02EB2B
:10562000072212F0FF0212D0CF1C10F807808F1C47
:105630006245C75D08EB07273FB205D1082F06DB9F
:1056400001230A1D10F802A0394409B2E4E70298C8
:1056500088B110F909006FF0630188420BDD029AEE
:10566000834602EB090090F90100884203DD09F14D
:1056700001000FFA80F943B105EB0A0005B21BF1F6
:10568000640F02DD05EB0B0005B2641C24B2019827
:10569000FAF738FFA042B7D82846BDE8FE8F2DE9BB
:1056A000FC411E46054613460C461430089F01F087
:1056B00006F90146D819A219401E521E00B212B2B4
:1056C000CDE900202246284600F023FDBDE8FC81FC
:1056D00003B5BDF80410A0F817109DF80610417628
:1056E0000CBD10B5417300240473B0F90630B0F955
:1056F0000420012907D002290AD0032903D00281FE
:105700004381447310BD038142810121017310BDA7
:105710000281438110BD704713B5034601A801F013
:10572000CEF81968C2B28C68C0F307211846A047AA
:105730001CBD0368CAB2C1F307219B681847006902
:10574000002800D0C07870472DE9FF4F87B01E4673
:10575000DDE914749246012C07DA0097DDE90701B0
:10576000FFF79DFF0BB0BDE8F08FB4EB670F00DDD6
:105770007C10B4EB660F00DD7410079890F82910C8
:10578000781E0FFA80F9701E0FFA80F859B10121C6
:10579000CDE90241CDE90094079843460068C56908
:1057A000DDE90701A847A6EB440003B20AEB0700B6
:1057B000001B02B208989B46204405B2009429467B
:1057C0000798FFF76CFFA7EB440000B200900AEBCC
:1057D000040007B2DDE9070133463A46FFF75FFFF1
:1057E0005B462946524600940798FFF758FFA8EBFE
:1057F000440000B20490A9EB440000B20390C4F14D
:1058000001000FFA80F86000404200B24FF0010A38
:105810000026029063E000BFB8F1000F08DB641EB1
:10582000029824B2801C00B2029040440FFA80F823
:105830000AF102000FFA80FA08EB0A000FFA80F86A
:105840000498761C05EB000B36B20BEB060003B296
:10585000381B02B20FFA8BF189460092079800F0CC
:105860002CFDA81B01B2009A2B460591079800F069
:1058700024FD0BEB040003B2B81B02B29346494669
:105880000093079800F019FD281B01B25A462B46D9
:105890000191079800F011FD0498A919084403B27A
:1058A00003983919084402B293464946079800F014
:1058B00004FD0398B919084402B2009B49460092BE
:1058C000079800F0FAFC5A462B460599079800F015
:1058D000F4FCDDE900212B46079800F0EEFCA6421F
:1058E0009ADB3FE72DE9FF4F95B01D00934607D0A7
:1058F00028785A2807D06FF0010019B0BDE8F08F62
:105900004FF0FF30F9E768780104A87801EB002038
:10591000E97808445FEA000A02D56FF00200ECE77C
:1059200028790104687901EB0020A97940180B90CF
:1059300001D540B2E1E7EE79FF2E02D36FF004000B
:10594000DBE7687A297A00EB012000B25FEA000801
:1059500002D56FF00500D0E7E87AA97A00EB0120C4
:1059600007B2002F02DA6FF00600C6E7304601F0FA
:105970009EFA00240390099401200694CDE90F04B7
:105980001598407B20B14FEA880001F090FA8146DB
:105990008A494FF4006008601598407BC0B1CDF88B
:1059A00040B060210AF10C000C95CDE90D010CA866
:1059B00001F037FAE8B10CA801F01BFA401EC0B2A2
:1059C0000A900CA801F015FA401E00F0FF0AC7E08B
:1059D0000BEB0700401E00B21699009001EB080087
:1059E000401E03B215985A46006807681598B847D4
:1059F000D7E708210CA801F023FA07460F9810B149
:105A00000020119733E011984FF6FF7101EA002052
:105A100015993843497BB9B3069A49F8220006988C
:105A2000401C0690404521D1109802B21698009271
:105A30004044401E03B2159800680568DDE9150171
:105A4000A8471098401C10901598407B012821D041
:105A5000B8F1010508D400BF39F8250001B2159846
:105A6000FFF767FE6D1EF7D50020069001200F900E
:105A70000998401C099003980755641C24B2B4424D
:105A800001DBA01B04B287E0FFE701B21598FFF726
:105A900050FEEBE7002506E039F8250001B2159825
:105AA000FFF747FE6D1C4545F6DBDDE70A98201A37
:105AB00000E0A81905B2002DFBDB01E0A81B05B230
:105AC000B542FBDAA34603E0ABEB06000FFA80FB1E
:105AD000B345F9DA0998641C401C09900F9824B268
