:020000040800F2
:10000000A02100204D020008212F0008E12D00084A
:10001000B12E00081D1200089934000800000000ED
:100020000000000000000000000000007D3100081A
:100030003913000800000000652F00087F31000818
:100040006702000867020008C53000086702000860
:1000500067020008670200086702000867020008DC
:1000600067020008670200086702000867020008CC
:1000700067020008670200086702000867020008BC
:10008000670200086702000800000000E53200086F
:10009000670200086702000867020008670200089C
:1000A000670200086702000867020008670200088C
:1000B000393400080000000067020008000000005A
:1000C000670200080000000067020008000000004E
:1000D0000000000000000000000000000000000020
:1000E000000000000000000067020008000000009F
:1000F0000000000000000000000000000000000000
:10010000670200080000000000000000000000007E
:1001100000000000000000000000000000000000DF
:1001200000000000000000000000000000000000CF
:1001300000000000000000000000000000000000BF
:10014000000000000000000000000000670200083E
:1001500000F002F800F06AF80AA090E8000C82446F
:100160008344AAF10107DA4501D100F05FF8AFF24C
:10017000090EBAE80F0013F0010F18BFFB1A43F085
:1001800001031847C0F20100E0F201000A444FF0F9
:10019000000C10F8013B13F0070408BF10F8014BE6
:1001A0001D1108BF10F8015B641E05D010F8016B2B
:1001B000641E01F8016BF9D113F0080F1EBF10F88F
:1001C000014BAD1C0C1B09D16D1E58BF01F801CBB2
:1001D000FAD505E014F8016B01F8016B6D1EF9D535
:1001E0009142D6D37047000000230024002500264A
:1001F000103A28BF78C1FBD8520728BF30C148BF8A
:100200000B607047642900F0A580732900F04983D2
:10021000002070471FB50AF0F6FB9DE8030000F0D0
:10022000A7FC00F099FA1FBD10B510BD00F05AFCF4
:100230001146FFF7EFFF07F0CBFE00F0CFFC03B451
:10024000FFF7F2FF03BC00F0FBFC00000948804709
:1002500009480047FEE7FEE7FEE7FEE7FEE7FEE7A8
:10026000FEE7FEE7FEE7FEE704480549054A064BC0
:10027000704700008D31000851010008A0070020E0
:10028000A0210020A01D0020A01D00200FB41CB53F
:10029000074B06AA7B4469460090059800F0D7FA00
:1002A0000020694600F0E6FA1CBC5DF814FB000073
:1002B000DD05000070B5044685690068C10601D5FA
:1002C000302600E02026C00707D070BDD4E9012108
:1002D00030469047206A401C20626D1EF6D570BDE6
:1002E00070B5044685690078C00707D170BDD4E9B0
:1002F000012120209047206A401C20626D1EF6D507
:1003000070BD70B50C460546012A05D028788006D8
:1003100000D5EA69002302E0012305E05B1C93425B
:1003200002D2E05C0028F9D1A869E618C01AA861D9
:10033000286A184428622846FFF7BCFF04E0D5E984
:10034000012114F8010B9047B442F8D32846FFF777
:10035000C7FF70BD2DE9F0410646002410687529DD
:10036000314616A510D0AFF30080002802DA4042D3
:1003700013A507E031688A0701D512A502E04907F5
:1003800004D511A5012401E0AFF3008000210A2269
:1003900006F1240709E0B0FBF2FCB0FBF2F302FB2C
:1003A0001C00303078541846491C0028F3D12346ED
:1003B0002A463046BDE8F04100F0EBB900000000ED
:1003C0002D0000002B000000200000002DE9F05F50
:1003D000894604464FF0000ADFF824B1FB44C0F818
:1003E00020A02046E168884700287DD0252806D037
:1003F000D4E901219047206A401C2062F1E70025E2
:100400005F462046E16888472028064607DB312EF4
:1004100005D2B81910F8200C08B10543F1E7A80778
:1004200001D525F00405C4F81CA00027C4F818A0C5
:100430002A2E09D0304606F053FC38B304EB870867
:10044000303EC8F8186019E059F8041B204604EB48
:1004500087029161E1688847012F064618D1E0695B
:10046000002820DA25F020051DE0D8F8180000EB60
:10047000800006EB40003038C8F818002046E168DC
:100480008847064606F02CFC0028EED1012F0AD042
:100490002E2E08D12046E16888477F1C0646022F91
:1004A00045F02005C4DBA069002803DA404245F08E
:1004B0000105A061E80701D025F01005A6B1A6F15D
:1004C0004100192802D8203645F400654A463146D5
:1004D000204625604D46FFF795FE60B1012807D004
:1004E000ED1D25F0070000E007E000F1080978E7BE
:1004F00005F1040975E730467AE7206ABDE8F09F08
:1005000054EF010010B5431C02E010F8011B71B15B
:100510008107FAD14FF0013202C88C1A8C4314EAD9
:10052000C211F9D0C01A0A0603D0C01E10BDC01AED
:1005300010BD0A0401D0801E10BD0902FCD0401E6F
:1005400010BD02F0FF0343EA032242EA024200F038
:1005500002B84FF000020429C0F0128010F0030C22
:1005600000F0A581CCF1040CBCF1020F18BF00F81B
:10057000012BA8BF20F8022BA1EB0C0100F097B9CA
:100580005FEAC17C24BF00F8012B00F8012B48BFB3
:1005900000F8012B70470000014900F0ADB90000E0
:1005A0001407002010B503681C1404EB21449BB20F
:1005B00089B2194494FBF2F302FB134394FBF2F467
:1005C00001EB034393FBF2F102FB113193FBF2F3D6
:1005D00001E05B1E11440029FBDB016003EB0440DA
:1005E00010BDF0B504464FF0FF3585B000680490AB
:1005F00060680290A0680390E06801902069009014
:10060000666906F18040B0F1004F7CD83C220021A1
:1006100004A8FFF7C7FF3C22014602A8FFF7C2FF6C
:100620001822014603A8FFF7BDFF411E40F2B55254
:1006300001A8FFF7B7FF0C22074668460021FFF725
:10064000B1FF414B00EB8700304400267B4411E0B2
:10065000511A01910099491C0229009102D00C29DC
:1006600008D105E0810705D00199491C019101E0FD
:10067000401C00960099019A595C9142E8DD00996E
:10068000012906D11C2A04D1810702D00221CDE91B
:100690000016A0F146018B293CD2DDE90061002261
:1006A00002E09F5C521C3944B242FADB012E02DDAB
:1006B000820700D0491E40F2B55340F26D16C217B2
:1006C00000EB927292105A4300F0030303FB0622E0
:1006D00083070A4400D1521E039E02EB4203049F8B
:1006E00006EBC303029EC3EB031306EB8303174E13
:1006F00033441E149BB2C6EB0616C3EB0313B600BD
:1007000007EB830300E005E006EB134666F31F43A7
:10071000360C02D0284605B0F0BD80C4029E40C40D
:10072000039E40C4019E761C44F80C6B009E44E975
:1007300002600720521C92FBF0F600FB162084E8B2
:1007400023001846E7E7000038ED0100A039CEFD90
:10075000704770477047000070B5064C7C44064DEA
:100760007D4403E0206820448047241DAC42F9D139
:1007700070BD000004ED010008ED010010B500F0AF
:100780001BF9006810BD10B5044600F015F90460AF
:1007900010BD2DE9F0470D4699469246044600F1FA
:1007A00024080168880604D5E06921F01001216061
:1007B00000E00120A84201DD471B00E00027A169FD
:1007C0007A1902EB0900081AA0612078C00602D449
:1007D0002046FFF76FFD002608E0D4E901211AF852
:1007E00006009047206A401C761C20624E45F4DBD0
:1007F0002078C0060AD52046FFF75CFD06E0D4E964
:10080000012130209047206A401C2062381EA7F149
:100810000107F4DC07E0D4E9012118F8050090474E
:10082000206A401C2062281EA5F10105F3DC204649
:10083000FFF756FD2078000602D50220BDE8F087BC
:100840000120FBE701694A1C02610878704700B586
:100850008FB0CDE901310021059105497944CDE9F9
:10086000031011466846FFF7B1FD0FB000BD000050
:10087000E5FFFFFF0A6802F8010B0A60704710B538
:10088000436913B1AFF3008001E0FFF73AFD0120A7
:1008900010BD127800F124010A7000224A70012272
:1008A000EDE711684FF0FF32E9E74FF0000200B5C5
:1008B000134694469646203922BFA0E80C50A0E883
:1008C0000C50B1F12001BFF4F7AF090728BFA0E831
:1008D0000C5048BF0CC05DF804EB890028BF40F8FD
:1008E000042B08BF704748BF20F8022B11F0804F3F
:1008F00018BF00F8012B704770B50C460168002046
:100900004A1C3ED03C22B1FBF2F302FB1313B1FBB5
:10091000F2F12360B1FBF2F302FB1313B1FBF2F12E
:1009200018226360B1FBF2F302FB1313B1FBF2F187
:1009300046F2E0320A440721A360B2FBF1F301FB67
:10094000132140F2B553B2FBF3F5A161B2FBF3F111
:1009500003FB15228900B2F5B77F08D39B10521E06
:10096000B2FBF3F52944B2FBF3F503FB15220F4B61
:10097000E261616189077B440CD03B2A0AD3521C97
:1009800008E02C212046FFF790FF0120E0600AE0FC
:10099000521A401C195C9142FAD9521CC4E9032036
:1009A0004FF0FF302062204670BD00000EEA0100CB
:1009B0000048704774070020004870474007002037
:1009C00070B5064600F0B4F8056806F10B0020F09B
:1009D0000704B4429CBF002070BD2B466A68BAB1C0
:1009E0001068A04210D304F1080188423CBF50684F
:1009F000586007D35168101941601168091B0160E4
:100A000058601460101D70BD13465268002AE7D16B
:100A10002146284600F098F80028DED170BD70B558
:100A20000446051F00F084F80068002C14BF4468D9
:100A300070BD002C18BFAC423CBF20466468F8D3A0
:100A400001680A18AA4218BF456003D12A68054602
:100A50001144016028684119A1421CBF6C6070BD3F
:100A60006168696021680844286070BDAFF3008048
:100A700010B500F00EF8016919B100220261884733
:100A800001E08068804700F0B2F8000010B500F087
:100A9000AEF870B500F050F804680546A4B92020FF
:100AA000FFF78EFF040011D0094900202C60C4E933
:100AB00000010849A1602073206160610649A061BE
:100AC00009B100F09FF8E061204670BD00F08FF89A
:100AD000000000008D0A0008000000000048704778
:100AE000400700207546FFF7F9FFAE46050069464E
:100AF000534620F00700854618B020B5FFF7B4FB39
:100B0000BDE820404FF000064FF000074FF000080E
:100B10004FF0000B21F00701AC46ACE8C009ACE88F
:100B2000C009ACE8C009ACE8C0098D4670470000B8
:100B30000048704748070020004870477C070020A5
:100B4000704770477047704738B504460A46002022
:100B50006946AFF30080002808BF38BD02460099FF
:100B6000204600F073F8012038BD012000F08FB856
:100B7000F8B5AFF30080054600200C46102000BFFA
:100B80000646A819A0420DD9324669460020AFF3A7
:100B90000080070008BF00F07AF80098A04218BF54
:100BA0000546C419FFF7C4FF05600746F01D20F095
:100BB00007004619284600F00AF8B44208BFF8BDFD
:100BC000A21B31463868BDE8F84000F03FB800216C
:100BD0000160C0E9011070471020704710B504464D
:100BE000AFF300802046BDE81040FFF728BB10B5EA
:100BF000002000F045F8FFF717FBBDE8104001208A
:100C000000F01EB810B58820FFF7DAFE002801D0EA
:100C10000021017010BD802902D808B1017809B106
:100C200000207047012100F8081B704718B100F13F
:100C30000802914201D000207047002101707047E6
:100C400001491820ABBEFEE72600020003464068BB
:100C50008C46002818BF88423CBF03464068F8D342
:100C600018681844884207D00CF1030020F00700F0
:100C7000001D411A521A0146081D0A60FFF7CFBE37
:100C800010B500F011F8BDE8104000F008B810B53C
:100C900000F022F8BDE8104000F001B870470028CD
:100CA00001D0FFF7CDBF704710B5002102A000F0C2
:100CB0003BF8012010BD0000534947414252543ACD
:100CC0002041626E6F726D616C207465726D696E29
:100CD0006174696F6E00000010B5012805D0002115
:100CE00003A000F021F8012010BD09A1F8E70000E1
:100CF00053494752544D454D3A204F7574206F6605
:100D00002068656170206D656D6F7279000000006C
:100D10003A2048656170206D656D6F727920636F50
:100D2000727275707465640070B505460C460A20D1
:100D300000E06D1C00F011F835B128780028F8D1DA
:100D400002E0641C00F009F814B120780028F8D102
:100D5000BDE870400A20AFF3008008B569468DF801
:100D600000000320ABBE08BD2DE9F04FFA4DFB4E4D
:100D700005F11E0EE86A9EF801200027016885B083
:100D80004FF0010B05F1200A06F10E0906F14404AB
:100D9000352974D031DC1F2966D01CDCEE4A0D29C0
:100DA00002F15802927859D006DC0B2954D00C2954
:100DB0007ED1F270012009E0152951D0162977D192
:100DC00086F80AB0007E401CF072022005B0BDE833
:100DD000F04F03F0D1BB202952D02B2969D0332901
:100DE00068D0342964D17271002AE3D0B77286F8D2
:100DF0002D706F7101F0F6FFDCE7D74B40F2B918A8
:100E00001E33A1F2B91C93F9013041457ED00FDCAD
:100E1000DFF84883A1F5807108F170089B3976D01E
:100E2000012975D00A2974D00B2941D13272C1E74A
:100E3000BCF1020F6ED0BCF1450F6CD0BCF1460F77
:100E40006AD0BCF1590F33D1017EC06990F91820E6
:100E5000C24815301154ADE7B270ABE73271A9E763
:100E6000B77214206872B0E786F82D20002AA1D04E
:100E700006F034F9032800D137737771B9E771E1CF
:100E8000017E491C49B2017601293BD12189A08804
:100E9000C1EB011100EB8100F085A883AF48383821
:100EA00005F0A7F8AD48AE4B01AA02A9383802E018
:100EB000B2E043E05EE104F03DFDBDF90410BDF990
:100EC000080001EBD1727821A1EB62010AB200EBBC
:100ED000D071A020A0EB610001B2A048A04B38382F
:100EE00004F0BAFB4FF47A7006F03CF89B483838AF
:100EF00005F07FF801F06EFF686301F06BFF286377
:100F000001F070FFE86A007E022806E058E117E071
:100F1000C5E04AE178E138E140E17DD12189A0884E
:100F2000C1EB011100EB8100F085A883012003F0E3
:100F300023FB05B0BDE8F04F01F054BFF27139E773
:100F4000017E491C01768548703008F08BF9E86A0B
:100F500090F91800401E022865D204F10C0007C861
:100F600006F0F9FA78B32069401E20616069A0F2AA
:100F70006C70606179484430FFF733FB009068463D
:100F8000FFF70AFB806900B9072088F80300207D7D
:100F900043466438C0B205F0D9FF1870207C401C6D
:100FA000C0B205F0D3FF5870207B05F0CFFF9870DA
:100FB0006A48703008F0CCF92069401C20616069F3
:100FC00000F26C7060616548383805F012F86348CB
:100FD000634B04AA03A9383804F0ACFCBDF9101027
:100FE000BDF90C0001EBD1727821A1EB62010AB2CC
:100FF00000EBD071A020A0EB610001B25748584B24
:10100000383804F029FB4FF47A7005F0ABFF5348F1
:10101000383804F0EEFF00E03BE001F0DBFE6863EF
:1010200001F0D8FE2863E86A007E032831D104F17C
:101030000C0007C806F08FFA70B32069401E2061CB
:101040006069A0F26C70606144484430FFF7C9FAEF
:1010500000906846FFF7A0FA806900B9072088F879
:101060000300207D43466438C0B205F06FFF18705E
:10107000207C401CC0B205F069FF5870207B05F051
:1010800065FF98703548703008F062F9012003F070
:1010900073FA05B0BDE8F08FE86A0776F9E7017EDC
:1010A000491C01762D48703008F0DCF8E86A007EB3
:1010B00001283CD1207A05F049FF88F80400434616
:1010C000207905F043FF587124489F71703008F073
:1010D0003FF92248383804F08CFF2048204B02AA00
:1010E00001A9383804F026FCBDF90800BDF9041048
:1010F00000EBD0727820A0EB620002B201EBD1715C
:10110000A020A0EB610001B21448154B383804F060
:10111000A3FA4FF47A7005F025FF1048383804F030
:1011200068FF01F057FE686301F054FE2863E86A27
:10113000007E0228ADD1207A05F008FF88F804006F
:101140004346207905F002FF587104489F717030C2
:1011500008F0FEF82EE6000008000020B805002088
:101160005ABE00082A49027EC861B018E962407D73
:1011700008768EE790F918208AF80020244912F8A2
:1011800009208AF80120403904E02149027E8AF8CA
:1011900001202039C861E9620F767AE79AF90020C8
:1011A0009AF8011002F8091004E623B10020B0718A
:1011B00018B12F75FEE50120F9E785F814B0F9E5BF
:1011C0007146BBB1027E521C52B20276012A16D081
:1011D000022ACED101F086FF03F0C0FBBFF34F8F90
:1011E0000C4801680C4A01F4E06111430160BFF34F
:1011F0004F8FFEE705B0BDE8F04F01F05BBE81F810
:1012000001B08EF800B044E707F08AFFD2E5000095
:10121000A40100200CED00E00400FA05FEE7000048
:101220000848C16A8A88002A0AD091F91800431C2C
:101230005BB20B76934201DB00220A7602F046BFD6
:1012400070470000080000200848C16A8A88002A08
:101250000AD091F91800431E5BB20B76002B01DA1D
:10126000521E0A7602F032BF7047000008000020CC
:10127000184810B5C06A184C90F91800022803D01D
:10128000012811D0B8B120E0E068401EE0601CD118
:101290001F2001E0E068401EE060D4E9041206F07F
:1012A0005AF90028F6D010E02069401E20610CD1C8
:1012B0000C20206109E0606940F2E371401E60612A
:1012C000884202DA40F633006061BDE8104000F069
:1012D00035B8000008000020FC05002070B5144857
:1012E000144C0125C06AD4E9041290F918000228B0
:1012F00003D0012809D070B116E0E068401CE0601E
:1013000006F029F980B9E5600EE0491C21610D293C
:101310000AD1256108E0521CA2F5006062613438F0
:1013200002D140F2E3706061BDE8704000F006B8A1
:1013300008000020FC050020704700002DE9F04F58
:10134000FE4EA9B0F06A00680B2807D00C2805D023
:101350000D2803D0FA4804F04CFE17E000231A468B
:10136000194601A805F032F80188ADF80010807820
:101370008DF80200F248009904F0F4FEC8200346FC
:10138000462200901146EE4804F043F8F06AEB4D17
:1013900040F29B1201681E35A0270024A1F29B1089
:1013A0004FF0020805F13E0A91427BD01EDC202955
:1013B00079D012DCDFF884836FF0180908F158083F
:1013C0000D2954D004DC0B2951D00C292CD148E034
:1013D000162955D01F2927D10FE12B29FCD03329FD
:1013E0007ED034297DD035291ED1D3E34FF4A079A6
:1013F000202877D00CDC0B28EED004DC0128D7D0D5
:101400000A2811D172E11E286DD01F280CD1F8E2F4
:10141000CA4D2035632867D0642866D078247728A1
:1014200076D0B0F5137F01D0C6A0B4E3C94B11AAA2
:1014300010A9C34804F07EFABDF94410BDF940007C
:1014400001EBD171A4EB610100EBD0700AB2A7EB04
:10145000600001B2BF4BBA4804F0FEF829B0BDE805
:10146000F08F02F0C7FEBCA001F046FA01E002F0E6
:10147000C1FE98F902000F22494601F06BFAEDE730
:10148000B9A001F0DBF9F06A90F91800411C01EBFA
:101490004101890000EB800001EB8000ADF84000C5
:1014A00000242CE0BDE1BFE1A54804EB4405E83889
:1014B00028440188ADF8001080788DF80200A0481B
:1014C000009904F04FFEBDF940005A2100EBD070A6
:1014D000A7EB6000009100EB850004EB840105E0C0
:1014E00013E316E0E7E2A2E1F2E3F2E300EB8100AE
:1014F00001B20C234B22924803F08BFF641CF06A6C
:1015000090F91800401CA042CEDC02F073FEA5E763
:10151000F7E3002197A001F0BFF99949884804F04A
:10152000AEFD687818B1FF231A46194602E0002381
:101530001A4619461AA804F049FF687818B13823EA
:10154000A522132102E0FF231A46194619A804F028
:101550003DFFBDF86800ADF814009DF86A008DF8F5
:101560001600BDF86400ADF810009DF866008DF817
:101570001200687800B1012082A10091CDE9010438
:1015800064231A4619461420039401F035FA68784A
:1015900018B100231A46194602E0FF231A461946DD
:1015A00019A804F013FF687818B1FF231A461946EA
:1015B00002E03823A52213211AA804F007FFBDF882
:1015C0006400ADF814009DF866008DF81600BDF8B3
:1015D0006800ADF810009DF86A008DF81200687878
:1015E00048B1002068A10091CDE9010464231A46A6
:1015F0001946039474E00120F4E76149504804F06F
:101600003EFD687818B1FF231A46194602E0002310
:101610001A4619461CA804F0D9FE687818B1382378
:10162000A522132102E0FF231A4619461BA804F045
:10163000CDFEBDF87000ADF814009DF872008DF875
:101640001600BDF86C00ADF810009DF86E008DF826
:101650001200287800B10120697801B1012149A266
:10166000CDE90021CDE9020464231A464621142065
:1016700001F0C2F9687818B100231A46194602E051
:10168000FF231A4619461BA804F0A0FE687818B17B
:10169000FF231A46194602E03823A52213211CA86D
:1016A00004F094FEBDF86C00ADF814009DF86E00D7
:1016B0008DF81600BDF87000ADF810009DF87200AE
:1016C0008DF81200287868B10020697861B1002196
:1016D0002DA2CDE900216423CDE902041A4646215A
:1016E000C8200FE20120F0E70121F1E72449144866
:1016F00004F0C5FC687818B1FF231A46194602E0C9
:1017000000231A4619461EA804F060FE687818B136
:101710003823A522132102E0FF231A4619461DA8EB
:1017200004F054FEBDF87800ADF814009DF87A007E
:101730008DF81600BDF8740028E0000008000020B5
:10174000800500204E6F7420696D706C656D656E4C
:10175000746564005ABE000845636F203C20436FE7
:101760006D666F7274000000506F776572206C6553
:1017700076656C0050726F6772616D6D6500000078
:101780003B9B01084F4E00004F464600ADF810004D
:101790009DF876008DF81200687800B10120FEA156
:1017A0000091CDE9010478231A463C2114200394CA
:1017B00001F022F9687818B100231A46194602E0B0
:1017C000FF231A4619461DA804F000FE687818B1D8
:1017D000FF231A46194602E03823A52213211EA82A
:1017E00004F0F4FDBDF87400ADF814009DF8760027
:1017F0008DF81600BDF87800ADF810009DF87A005D
:101800008DF81200687850B10020E4A10091CDE974
:10181000010478233C211A46B420039472E101208C
:10182000F3E702F0E7F919E602F02CFB16E6DD49D2
:10183000DD4804F024FCF06A90F9180010B101288A
:1018400049D06DE000231A46194607A804F0BEFDF2
:10185000FF2306461A46194606A804F0B7FD0146BE
:101860003088ADF81400B0788DF816000888ADF80F
:10187000100088788DF81200CCA0CDE9000400217A
:1018800002943C234F464A460846039401F0B4F8BC
:1018900000231A46194606A804F098FDFF230646C1
:1018A0001A46194607A804F091FD01463088ADF8A4
:1018B0001400B0788DF816000888ADF8100088780C
:1018C0008DF81200BEA0CDE900043C2302943A46F4
:1018D0002D21039421E000231A46194606A804F09E
:1018E00075FDFF2306461A46194607A804F06EFD4B
:1018F00001463088ADF81400B0788DF816000888DD
:10190000ADF8100088788DF81200B0A0CDE9000481
:101910003C2302944A4600210394002001F06CF815
:10192000A049A14804F0ABFB687818B1FF231A4620
:10193000194602E000231A46194620A804F046FD85
:10194000687818B13823A522132102E0FF231A4634
:1019500019461FA804F03AFDBDF88000ADF8140048
:101960009DF882008DF81600BDF87C00ADF81000DF
:101970009DF87E008DF81200687800B1012097A1D3
:101980000091CDE901045A231A46732114200394CF
:1019900001F032F8687818B100231A46194602E0BF
:1019A000FF231A4619461FA804F010FD687818B1E5
:1019B000FF231A46194602E03823A522132120A846
:1019C00004F004FDBDF87C00ADF814009DF87E0025
:1019D0008DF81600BDF88000ADF810009DF882006B
:1019E0008DF81200687850B100207DA10091CDE9FA
:1019F00001045A2373211A46D220039482E0012065
:101A0000F3E76849684804F03AFB00231A46194690
:101A100022A804F0DBFCFF2305461A46194621A83C
:101A200004F0D4FC01462888ADF81400A8788DF89D
:101A300016000888ADF8100088788DF8120069A0AB
:101A4000CDE9000402943C234D464A46462100203D
:101A5000039400F0D1FF68A369A26CA112A8FEF75D
:101A600015FC002212A9504803F053FC0023ADF8E6
:101A700040001A46194621A804F0A8FCFF23064698
:101A80001A46194622A804F0A1FC01463088ADF898
:101A90001400B0788DF816000888ADF8100088782A
:101AA0008DF8120012A8CDE900043C2302942A46C6
:101AB0007321039425E03B493B4804F0E0FA0023FE
:101AC0001A46194626A804F081FCFF2305461A464B
:101AD000194625A804F07AFC01462888ADF81400C0
:101AE000A8788DF816000888ADF8100088788DF871
:101AF000120048A0CDE900043C2302944A46462146
:101B00000394002000F078FFA8E42748CC3807F0C1
:101B1000A9FBDFF894B0C14600250BF1380BA046B5
:101B20000BEB0507B87B072801D987F80E80FF2348
:101B30001A46194623A804F049FC0188ADF80010A4
:101B400080788DF802001848009904F00BFB3649A4
:101B5000154804F094FA00231A46194624A804F004
:101B600035FCFF2304461A46194623A804F02EFC30
:101B70002188ADF81410A1788DF816100188ADF801
:101B800010102A4980788DF8120051F83520CDE9DF
:101B900000284DE0CCE101E2353025003130302520
:101BA0000000000083A801088005002052657365CD
:101BB0007420616C6C2064657669636500000000C8
:101BC00073657474696E67733F000000417265202D
:101BD000796F7520737572653F0000005965730059
:101BE0004E6F000043757272656E74206669726D87
:101BF000776172650000000031322E332E3700000D
:101C000076657273696F6E3A200000002573257344
:101C10000000000046696E64206D6520696E2074C6
:101C200075796120617070009AD301087CAA000860
:101C300001EBC504CDF80880CDF80C80B4F906108E
:101C4000B4F904001E23322200F0D6FEFA49FB4804
:101C500004F015FAF06A90F91800A84203D1FF23A6
:101C60001A46194602E000231A46194623A804F032
:101C7000ADFBF06A90F91800A84203D13823A522E1
:101C8000132102E0FF231A46194624A804F09EFB04
:101C9000BDF88C00ADF814009DF88E008DF816008C
:101CA000BDF89000E549ADF810009DF89200CC39E0
:101CB0008DF81200C978491EA94201D1012100E026
:101CC0000021F26A92F91820AA4203D1012202E00F
:101CD00018E0A6E00022BF7B5AF827300093CDF829
:101CE0000C90CDE90121E08832231E3001B2B4F915
:101CF00004001A4600F080FE6D1C072DFFF610AFA1
:101D000005E41FE195F9000007280CD2DFE800F098
:101D10000407303336393C000021C9A001E000211E
:101D2000C9A000F0B9FDC449C44804F0A8F9DFF81F
:101D30000C93002409F146093746AB46C4EB041066
:101D4000002600EB800050300FFA80F8C6EB06103A
:101D500000EB8000163000B21790F86A06EB84059D
:101D600090F91800A84212D1FF231A46194611E033
:101D70000021B7A0D5E70021B8A0D2E70021BAA082
:101D8000CFE70021BAA0CCE70021BCA0C9E700231F
:101D90001A46194627A804F019FBF86A90F91800AA
:101DA000A84203D13823A522132102E0FF231A46BB
:101DB000194624A804F00AFBBDF89C00ADF81400F5
:101DC0009DF89E008DF81600BDF89000ADF810004B
:101DD0009DF892008DF812009BF90020022112F864
:101DE0000900A84201D1012200E00022F86A90F91E
:101DF0001800A84201D1012300E000235AF8250071
:101E0000CDE90003CDE9022132231A464146179855
:101E100000F0F2FD761C042E98DB641C022C8DDB96
:101E200001E595F901006FF0040108280AD2DFE806
:101E300000F0040617191B1D1F2192A000E094A0BA
:101E400000F02AFD95497D4804F019F995F9010043
:101E5000072811DA924900EB400001EBC0060DE0C3
:101E600090A0EDE792A0EBE794A0E9E796A0E7E762
:101E700098A0E5E79AA0E3E7704E4D360025A3460B
:101E800005EB4500002400EB0511412000EB41006B
:101E900005EB450A0FFA80F904EB4401132000EB2F
:101EA000011804EB4A073A468FA108A8FEF7EEF99D
:101EB000F05D032803D94FF00100F05505E004D18F
:101EC0004FF0FF031A46194603E04FF000031A468D
:101ED000194627A804F07AFAF05D584900EB400251
:101EE000D939114403280A88ADF8142089788DF86F
:101EF0001610BDF89C10ADF810109DF89E108DF8CE
:101F0000121013D0002208A9CDE9001BCDE902B2BE
:101F100020232A2249460FFA88F000F06DFD641C48
:101F2000062CB9DB6D1C042DAADB7CE40222EAE757
:101F30006FF002016DA000F0AFFC4FF0FF3002F037
:101F4000C5F870E402F056F9F06A90F9180058B13B
:101F5000012824D002283ED0674B11AA10A9374887
:101F600003F0E8FCB0B363E0644B11AA10A9334856
:101F700003F0E0FC88B9BDF94410BDF9400001EB65
:101F8000D171A4EB610100EBD0700AB2A7EB600045
:101F900001B25A4B294803F05FFB59A049E05A4B64
:101FA00011AA10A9254803F0C5FC88B9BDF9441051
:101FB000BDF9400001EBD171A4EB610100EBD070E1
:101FC0000AB2A7EB600001B24F4B1C4803F044FB80
:101FD0004EA02EE01AE04E4B11AA10A9174803F0AC
:101FE000A9FC88B9BDF94410BDF9400001EBD171DD
:101FF000A4EB610100EBD0700AB2A7EB600001B264
:10200000434B0E4803F028FB42A012E0BDF94410F8
:10201000BDF9400001EBD171A4EB610100EBD07080
:102020000AB2A7EB600001B2334B044803F014FB83
:102030003BA000F003FC67E5A5EA0108800500204D
:102040004D6F6E6461790000547565736461790049
:102050005765646E65736461790000005468757239
:102060007364617900000000467269646179000060
:1020700053617475726461790000000053756E6479
:102080006179000050524553455420310000000052
:102090005052455345542032000000009AD30108A5
:1020A000B4AA0008505245534554203300000000A4
:1020B00050524553455420340000000050524553BF
:1020C00045542035000000005052455345542036F9
:1020D00000000000505245534554203700000000D6
:1020E000435553544F4D000025640000435553544D
:1020F0004F4D2032346800009F4D010801B00008A8
:10210000436F6D666F72740026B4000845636F00FC
:10211000FEB70008416E74692D66726F737400001B
:102120004F6666002DE9F043C94E8046C94DF06AFE
:1021300089B010B1687800287ED0B8F1010F21D0A5
:10214000002007F09DF9C348383803F052FFFF2301
:102150001A46194606A804F039F90188ADF80010AE
:1021600080788DF80200BB480099383803F0FAFFF8
:10217000287B002708B3012827D0022833D0032862
:102180006BD138E000231A46194601A804F01EF965
:102190000188ADF8001080788DF80200AD480099F4
:1021A000383803F0DFFF5F200090AA48C8233C22A4
:1021B0006421383803F02DF9C9E704F0B3FF002299
:1021C000114600F0C7FBA44B06E004F0ABFF002271
:1021D000114600F0BFFBA14B9E480F221621383854
:1021E00003F03AFA39E004F09DFF0022114600F0B6
:1021F000B1FB9B4BF0E797489A4B3C22962138382D
:1022000003F02AFA93489849383803F038FF00233E
:102210001A46194608A804F0D9F8FF2304461A46BE
:10222000194607A804F0D2F82188ADF81410A17857
:102230008DF81610018800E004E1ADF810108078E8
:102240008DF8120089A0CDE9000702972D235222B4
:10225000A0218C20039700F0CFFB707D042801D1D2
:10226000F06AE8B300231A46194601A804F0AEF854
:102270000188ADF8001080788DF80200754800994B
:10228000383803F06FFF297B1A2003294FF02B0306
:1022900000903ED0B08C7D22801D01B26D48383850
:1022A00003F0B7F8FF231A46194601A804F08EF888
:1022B0000188ADF8001080788DF80200654800991B
:1022C000383803F04FFF687B48B1287B032806D0DD
:1022D0006048674B81221621383803F0BDF900E0D1
:1022E00007E095F82D00012816D06879012824D040
:1022F00019E0287B5F4B032808D0B08C7D22801D1D
:1023000001B25448383803F0A7F9DCE73B22162124
:10231000F7E73B221621C1E7574B47224D481621CC
:10232000383803F099F9287B03287CD0A87A052453
:102330004FF00C09012806D007E0287B4F4B0328FB
:10234000EBD19622EAE7687930B1F07D132829D8DD
:102350000F281BD9042425E0EC7A052C09D0042C85
:1023600009D0032C0AD0022C0CD0012C0CD077728F
:1023700019E0142000E01020707201E086F8099046
:10238000002612E00820F7E70420F5E70A2801D329
:10239000032407E0052801D9022403E008B1012441
:1023A00000E00024F47000261FE0354906EB4600EB
:1023B00008440188ADF8001080788DF802002548A7
:1023C0000099383803F0CEFE06EB061000EB4610FD
:1023D00000EBC600163001B21E483123CD2238383A
:1023E000CDF8009003F015F8761CA642DDDBFF2344
:1023F0001A46194601A803F0E9FF0188ADF800105C
:1024000080788DF8020013480099383803F0AAFE4E
:1024100010481C49383803F032FEA87A012801D14F
:10242000687990B100E007E017A300970948B72248
:102430001521383803F00BFEB8F1010F02D001204E
:1024400007F01EF809B0BDE8F08311A30097EDE78F
:1024500008000020B8050020F62D0108D02B010847
:10246000DE2701089F4D010883A801084F6666001A
:10247000DA240108657C0108AB1F0108A5220108C8
:1024800098040020F1E701084155544F0000000076
:10249000435553544F4D0000F0B5844E87B0F06A59
:1024A00000286ED08068E8B1814803F0A2FD01F0F9
:1024B000A1FEF06A816890F9180001EB40107C4998
:1024C0000068383129286FD022DC0C2856D00EDC69
:1024D0000C2856D2DFE800F0E8404346494CE8E8D3
:1024E000E8E8E84F07B0BDE8F040FEF727BF162840
:1024F0004BD006DC0D2845D0152842D16D4D6EA479
:102500007FE01F2844D020283BD16D4D6DA478E09A
:1025100040F29B13A0F29B1298426AD00BDCA0F110
:102520002A000C282DD2DFE800F054575EBFBFBF51
:10253000BFBFBF40434E0B2A61D006DC012A5BD0EF
:102540000A2A1ED1624D63A45BE01E2A4ED01F2AC8
:1025500017D1634D63A454E0654D66A451E0684D06
:1025600068A44EE0694D6AA44BE06B4D6BA448E053
:102570006D4D6EA445E0704D70A442E0714D72A4A3
:102580003FE091E0714D72A43BE0744D74A438E0DB
:1025900091F82D00002801D0734D00E0734D01D05B
:1025A00073A42EE075A42CE010E0784D78A428E008
:1025B0004879002801D0784D00E0784D01D078A40A
:1025C0001FE078A41DE0784D78A41AE07A4D7BA432
:1025D00017E07D4D7DA414E0C87908B17D4D00E081
:1025E0007D4D7EA40DE07F4D7FA40AE0804D81A447
:1025F00007E04D4D81A404E0834D84A401E0864DA5
:1026000086A4EDB32B4604AA03A9294803F092F946
:10261000A02790B9BDF91010BDF90C0001EBD171E4
:102620007822A2EB610100EBD0700AB2A7EB600048
:1026300001B22B461E4803F00FF8F06A816890F94A
:10264000180001EB40100068202825D17749184870
:1026500003F015FDB18B3C20B1FBF0F200FB12132F
:10266000B1FBF0F272A105A8FDF710FE002205A94A
:102670000F4802F04EFE014600200090019000E05D
:102680000AE0029001EBD170A7EB600000B20023DA
:1026900005AA672100F046FA002C05D007B02046B5
:1026A000BDE8F04000F0CAB807B0F0BD0800002057
:1026B0008005002062C700084175746F00000000AB
:1026C000E56C01085365742074696D657200000043
:1026D000D50C01084272696768746E6573730000F7
:1026E0003C540108496E666F726D6174696F6E00CB
:1026F0005CAB000848656174206D6F646500000084
:102700001EC40008506F7765720000009ECF00085D
:1027100054696D65720000009EDE00085365747494
:10272000696E67730000000099E6000850726F67D9
:1027300072616D6D6500000001B00008436F6D6649
:102740006F72740026B4000845636F00FEB700087E
:10275000416E74692D66726F737400009CCB000823
:10276000437573746F6D0000C6D900087ED50008EC
:1027700054696D6572206973206F6E0054696D65D0
:1027800072206973206F6666000000004E300108F9
:102790005365747570000000483501080A3C010853
:1027A0004F6E00004F666600C542010843757374A2
:1027B0006F6D206461790000E16F01084461746508
:1027C00020262074696D6500FBFB00084469737066
:1027D0006C6179003AEB00080FF20008536F756ED8
:1027E00064000000A34601085365727669636500C2
:1027F000385A0108526573657400000053657420EF
:102800006461746500000000486701085365742026
:1028100074696D6500000000F20201084175746F73
:1028200020737769746368206F6666003B9B0108BC
:10283000253032643A253032640000001CB5FF2395
:1028400004461A46194601A803F0C0FD0188ADF8F8
:10285000001080788DF802000D48009903F082FC8A
:102860000C490B4803F00BFC00222146084802F0FB
:1028700050FD0021009100EBD070A021A1EB600081
:1028800001B22346B922024803F0E1FB1CBD00005F
:102890008005002083A801087CB5FF230C4605466F
:1028A0001A46194601A803F091FD0188ADF8001001
:1028B00080788DF802000E48009903F053FC0D4912
:1028C0000B4803F0DCFB00222946094802F021FDF9
:1028D0000021009100EBD070A021A1EB600001B2BB
:1028E0002B4604F11A02024803F0B1FB7CBD000044
:1028F0008005002083A801081CB5FF2304461A4662
:10290000194601A803F062FD0188ADF80010807837
:102910008DF802000D48009903F024FC0C490B4887
:1029200003F0ADFB00222146084802F0F2FC002132
:10293000009100EBD070A021A1EB600001B2234612
:102940001022024803F083FB1CBD0000800500201C
:102950009AD30108F0B5FF2387B017460D46044609
:102960001A46194606A803F031FD0188ADF800109B
:1029700080788DF802001A48009903F0F3FB224694
:1029800018A101A8FDF782FC1749154803F077FB51
:10299000002201A9124802F0BCFC044600EBD470EE
:1029A000A521A1EB60000544002607F13C0201AB24
:1029B000174629B20A48009603F049FB0B4908481C
:1029C00003F05DFB281901B20C4609A33A460448FE
:1029D000009603F03CFB0748848407B0F0BD00007C
:1029E00080050020256400006E7F0108A79901087A
:1029F000B0430000080000202DE9FF4F8BB0934644
:102A0000DDE91C54DDE91817994600224448DDF839
:102A10006CA002F07EFC0490414802F04AFD804622
:102A20000B990BEBDB72049801EB620100EBD070A9
:102A3000A1EB600000B202900C9909EBD97201EB96
:102A4000620108EBD870A1EB600000B201900FB1F9
:102A5000294600E02146324803F084FBCDF800907F
:102A6000DDE90B125B462E4802F0D3FC47B121464C
:102A70002B4803F077FBBAF1000F1AD017B119E019
:102A80002946F5E7002611E0704209EB40010BEB07
:102A9000400003B20C9809B2304402B20B98009186
:102AA000304401B21E4802F08CFC761C5645EBDB2C
:102AB00002E00FB1294600E02146194802F0C2FCAD
:102AC00000200090DDE901211548189B03F0BFFAB2
:102AD0001A9878B10FB32146114803F043FB032045
:102AE00000900198049B4044401D02B20C4802999A
:102AF00002F08FFC00231A46194609A803F066FC71
:102B00000188ADF8001080788DF802000448009923
:102B100002F098FC0FB0BDE8F08F2946DCE700001A
:102B2000800500202DE9FF4F83B01C00DDE91187EF
:102B3000DDF840B00E46824603D0FF231A46194600
:102B400002E000231A46194601A803F03FFC394869
:102B5000019903F007FB00223648059902F0D9FBE2
:102B60008146344802F0A5FC054600EB470000B260
:102B7000009009EB480003B2F01B02B2AAEB080078
:102B800001B22C4802F045FC74B100231A461946E4
:102B900001A803F01BFC2748019903F0E3FA3CB1BC
:102BA000FF231A46194606E0FF231A461946EFE7A7
:102BB00000231A46194601A803F008FC1D48019994
:102BC00002F040FC00200090324651461948059B17
:102BD00003F03DFABBF1000F14D034B300231A46C2
:102BE000194602A803F0F2FB1248029903F0BAFA60
:102BF000042000907019401D02B24B4651460D480A
:102C000002F007FC00231A46194601A803F0DEFB78
:102C10000188ADF8001080788DF802000548009911
:102C200002F010FC07B0BDE8F08FFF231A461946EA
:102C3000D7E70000800500207CB500F0CBF84C4CB5
:102C4000E16B884276D900F0C5F8E063617D494EBA
:102C50001A25022905D039B3032925D0042927D004
:102C600029E000231A46194601A803F0AFFB0188AA
:102C7000ADF8001080788DF802003E480099383891
:102C800003F070FA307B4FF02B030328009508D037
:102C9000A08C7D22801D01B23648383802F0B9FB85
:102CA00037E03B221621F7E700F5FA70E06302E017
:102CB000207A00283ED1207A4FF0000380F00100F6
:102CC0002072307B1A460328194601A833D003F03E
:102CD0007DFB0188ADF8001080788DF80200254852
:102CE0000099383803F03EFA0095A08C2B23801D04
:102CF00001B220487D22383802F08BFB207A40B1A7
:102D0000A08C7D221C4B801D01B21A48383802F07D
:102D1000A3FCFF231A46194601A803F057FB0188BC
:102D2000ADF8001080788DF802001248009938380C
:102D300003F018FA7CBD03F049FB0188ADF80010E0
:102D400080788DF802000B480099383803F00AFAB1
:102D500008482B233B2216213838009502F059FBF6
:102D6000207A0028D5D03B22034B1621CDE7000066
:102D700008000020B8050020657C010810B5124C41
:102D800000204FF0904120750120886100F022F86A
:102D9000E16B884216D9207A80F00100207200F0A1
:102DA00019F800F5FA70E063084803F022F9207A78
:102DB000002807D04022BDE81040054B642103489D
:102DC00002F04ABC10BD0000080000208005002071
:102DD00033760108014800687047000000000020B9
:102DE000FEE700002DE9F0472E4C2078D0B194F892
:102DF0002D0008B96079A8B12B4806F033FA2A4EA5
:102E00000025307800F00F01000900EB800001EB95
:102E10004000C0B2132809D2607938B184F82D502F
:102E200065712573BDE8F04706F0EAB906F0E8F9E8
:102E300094F82D00DFF870904FF0804709F11409E5
:102E40004FF003084FF4807A01281ED060790128E2
:102E500026D189F8095089F80A5089F80B504FF0AB
:102E60008030C9F8000004F039F92073C9F8047003
:102E70000D4889F80880143006F09AF9504606F09B
:102E800055FABDE8F04706F0DDB989F8095089F830
:102E90000A50B07989F80B000448C9E90007E7E750
:102EA000BDE8F087B8050020B404002000808080D1
:102EB000FEE7000010B5174CE06AC06928B3002097
:102EC00006F0DEFAE26A04F11E001168332910D020
:102ED000A1F58073B93B02D1002101704170D06926
:102EE000C4F82C00FFF7D8FABDE81040012006F026
:102EF000C7BA09494B79002BF1D1D369074AE2627D
:102F0000D361497901704170ECE7BDE8104000F0F1
:102F1000C5BA000008000020B8050020E401002028
:102F200070470907090E002806DA00F00F0000F1CB
:102F3000E02080F8141D704700F1E02080F80014B4
:102F400070470000024900204870FEF7F7B9000002
:102F500026000020024901204870FEF7EFB900006A
:102F600026000020704700002DE9F041524E534CDE
:102F70000025F36AA4F1440006F11E021968332902
:102F800066D01CDC162951D010DC4B4A0B2902F10B
:102F900058023DD0032307240C293FD00D293FD0F0
:102FA000152941D1BDE8F041FDF7DEBE1F2941D012
:102FB000202942D02B2937D1C079107078E040F217
:102FC000A51CA1F2A517614562D01ADC34295DD099
:102FD00035293DD03A4FA1F580719B393AD001296E
:102FE00022D1384606F03EF9387903F09BFFA06005
:102FF000787903F097FF6060B87903F093FF206061
:1030000041E0012F56D0142F22D0592F0CD11FE0B0
:10301000807890700A201070232049E0C07800E08A
:103020000079907013705470BDE8F081C07A401E32
:103030001876F9E790F82D00BFE7C18D3C20B1FB71
:10304000F0F2A260B1FBF0F200FB1210C4E90050F4
:103050001D76E9E71A4806F005F9B87803F062FF33
:10306000E060787803F05EFF2061387803F05AFF63
:10307000132802D240F2E37004E0387803F052FFE4
:1030800000F5FA606061F06A0576CDE7407994E773
:103090008079002807D000BF4FF00000107005D1E4
:1030A0004FF0010004E04FF00100F7E74FF000009F
:1030B0005070B9E7007A80E708000020FC05002086
:1030C000B404002010B54FF48074204606F036F9A1
:1030D000002806D0204606F029F9BDE8104006F089
:1030E0004FB810BD2DE9F041234C01270025277072
:1030F00065701820A0700420E070052020716571B3
:10310000A771E77125726572A572E7722573657301
:103110000326A673E67326746674A674E674267591
:103120000122182104F11500FDF70BFA84F82D5047
:103130004FF43470E085A4F1200005654565856590
:10314000C56506F0BDF8A4F582707F210181FF21DD
:10315000418120210170C67047708770056111217F
:10316000C560017158214171857106F0F1F80028A0
:1031700000D1FEE7BDE8F081B8050020704710B52A
:1031800003F0F8FEBDE8104000F0A4B8484810B5C0
:1031900046494160474A426081608260016941F06E
:1031A00020010161016941F040010161C168C90765
:1031B000FCD1016921F020010161016941F0100198
:1031C0000161C16911F0060F3B490AD0C269C2F31F
:1031D0004102012A07D0C269C2F34102032A04D086
:1031E00005E0A52202E0BB2200E0CC220A80C169F2
:1031F000DF2202EA1121304A921C1180C169921C1F
:10320000C1F307411180C169090E921C1180016A46
:10321000921CC9B21180016A921CC1F3072111806E
:10322000016921F0100101612448016841F4700135
:1032300001602348016841F00101016001688907CC
:10324000FCD541681F4A1140416041681E4A114047
:10325000416001681D4A11400160C16A1C4A114069
:10326000C162016B40F2031291430163016B21F4CF
:1032700080310163016B21F000410163416B21F05A
:1032800001014163D0F8C01021F48031C0F8C010B2
:1032900000218160C0F8CC1006F040F9BDE8104074
:1032A00000214FF0006004F011BF000023016745CA
:1032B00000200240AB89EFCD00F8FF1F88ED00E051
:1032C000001002400C00FF08FFFFC277FFFFF2FE74
:1032D000F0FFFF3F02480168491C01607047000091
:1032E0000000002010B5084C0121204606F059FBD3
:1032F000012807D10121204606F050FBBDE810400F
:1033000000F004B810BD00000020004009494FF44F
:1033100080720879401EC0B208714B78834201D98F
:10332000054B01E0044B10331A60002801D1142032
:10333000087170470800002018040048064881788A
:10334000491E49B2817090F90020914201DA41781A
:103350008170FDF7F3BF000060000020064881780F
:10336000491C49B2817090F90120914201DD017838
:103370008170FDF7E3BF000060000020154830B405
:10338000C26A154892F91840D0E9011314B1012C12
:103390000FD018E05B1E83601268202A00D123B191
:1033A000002B10DA172181600DE061B90121416025
:1033B00009E0491E416014683B22202C00D12BB14A
:1033C000002900DA426030BCFDF7B8BF0129F9DB03
:1033D000F9E7000008000020FC050020F0B41448C4
:1033E00000250124C36A134893F91860D0E901123B
:1033F00016B1012E0CD014E0521C8260172A00DD99
:1034000085601A68202A0CD1826852B971B108E02F
:10341000491C41601B68202B00D12AB13B2900DDEB
:103420004560F0BCFDF78ABF3B29FADD4460F8E750
:1034300008000020FC05002070B5124C1049204601
:1034400006F052FB68B1204606F0F8FA0F490E4B21
:103450000A789854521CD0B20870322801D100204A
:1034600008700B4D2046294606F03EFB002806D08A
:103470002946204606F024FB06490120087070BD4D
:1034800005000507004400403C06002064040020BD
:103490000400040766040020FEE700000249002043
:1034A000C862FEF73FBE00000800002010B540F2E1
:1034B0001C7005F0EFF904F06BFE4FF40064204639
:1034C00005F064F9204605F06FF9E01005F00CFAFC
:1034D00040F60F0005F0DEF9BDE8104005F0A8BF8A
:1034E00010B500214FF4807003F0EEFC0121084676
:1034F00003F010FC07220521002003F087FC0121C6
:10350000022003F0E1FC002003F0C2FC0121084688
:1035100003F038FC4FF46021012003F051FC00203F
:1035200003F016FC03F022FC0A2003F01BFD03F05D
:10353000DFFBBDE81040012003F0B6BC10B5094C1C
:1035400000220749204603F03BFF00228123114659
:10355000204603F0E5FF2046BDE8104003F0B6BF6B
:10356000801A0600005400402DE9F041314C01263C
:10357000314D207D022804D1287810B101F066F881
:103580000026FFF727FC2063687800274FF001082A
:1035900080B3287820B1207D012814D098B114E0A0
:1035A0002548383803F056F8A87908B1277501E0A6
:1035B00084F8148001F04AF88C20608301F0BAF896
:1035C0000020BDE8F08101F041F81B48383803F0D5
:1035D00041F8A87908B1277501E084F8148001F05A
:1035E000A9F8FFF7F7FBA0F5D24078382063687898
:1035F0000026B0B92878A0B1287A40B1207D0228F1
:1036000005D10020FEF78EFDFFF7E4FBA0640A4819
:10361000383803F01FF8A87908B1277501E084F85D
:103620001480FFF7D7FB41F288310844A06430468C
:10363000C7E7000008000020B805002010B540F2E0
:10364000157005F027F940F2115005F023F940F20A
:10365000125005F01FF940F20E7005F01BF940F210
:10366000117005F017F940F2126005F013F94FF4EC
:10367000E06005F00FF940F2096005F00BF940F247
:103680001C7005F007F9BDE81040062004F048BFA3
:1036900030B503461046064C07E013F8015BC2B292
:1036A0006A4054F8222082EA1020491EF5D230BD2B
:1036B00034EF01082DE9F04101224FF0904602233A
:1036C0001146304603F009FE022303220021304652
:1036D00003F02AFE504F4FF4F074234602220121DA
:1036E000384603F0FAFD234603220021384603F052
:1036F0001BFE202300220321304603F0EEFD0122B1
:103700000221304603F0B2FD01230022022130469F
:1037100003F0E3FD012303220021304603F004FE01
:103720004FF4007422460221384603F09FFD022226
:1037300023461146384603F0D0FD002223461146A9
:10374000384603F0F1FD22460421304603F08EFD99
:1037500065002A460421304603F088FD23460022F6
:103760000221304603F0B9FD2346032201213046F1
:1037700003F0DAFD2B4600220221304603F0ADFDB6
:103780002B4603220121304603F0CEFD4FF42044A6
:1037900022460021384603F069FD2346002202211B
:1037A000384603F09AFD234603220021384603F0F1
:1037B000BBFD40F60444012223461146384603F07F
:1037C0008CFD234603220021384603F0ADFD042280
:1037D0000121304603F04AFD08220121304603F062
:1037E00045FD042301220221304603F076FD042327
:1037F00003220021304603F097FD08230122022115
:10380000304603F06AFD3046BDE8F041082303224C
:10381000002103F089BD0000000400482DE9F043B9
:10382000002391B01A4619460BA802F0CFFD01887B
:10383000ADF8001080788DF80200D448009901F0AE
:1038400001FEFF231A4619460BA802F0BFFD0188AE
:10385000ADF8001080788DF80200CC48009902F095
:1038600081FCDFF82883002508F13808C84C98F857
:103870000600012608B1257500E02675C34802F050
:10388000B8FBC24802F0E6FE002005F0F9FDC14B8E
:103890000DAA0CA9BD4802F04DF8A02790B9BDF9BA
:1038A0003410BDF9300001EBD1716E22A2EB610141
:1038B00000EBD0700AB2A7EB600001B2B54BB34881
:1038C00001F0CAFE14200721CDE90001034632228F
:1038D0001146AE4801F0F2FD012005F0D1FD4FF494
:1038E000FA69484603F03EFB002005F0C9FDA748F1
:1038F00002F07FFBA549E839B1F80F00ADF80000F0
:10390000487C8DF80200A148009902F02BFCA249E6
:103910009E4802F0B4FB8C20608300229FA19B484C
:1039200001F0F7FC00EBD070A7EB600001B29BA3A5
:1039300035229648009502F08AFB00229CA193480C
:1039400001F0E7FC00EBD070A7EB600001B298A398
:1039500053228E48009502F07AFBFF231A4619463F
:103960000BA802F033FD0188ADF8001080788DF8C7
:1039700002008648009902F0F5FB00228FA18348DF
:1039800001F0C7FC00EBD070A7EB600001B28BA385
:1039900089227E48009502F05AFB8CA38DA28EA14D
:1039A00006A8FCF773FC002206A9784801F0B1FCD8
:1039B00000EBD070A7EB600001B206ABB9227348F0
:1039C000009502F044FB012005F05AFD484603F043
:1039D000C9FA002005F054FDE562A56498F80500D9
:1039E0004746012802D103F079FB387303F0B0FB9E
:1039F000A07010F17F0F4FF4A0772ED07F2857D002
:103A000030287DDD002000F037FF0320A071E07931
:103A1000002876D1E6715D4802F0EBFA70495B4808
:103A200002F02DFB00231A4619460FA802F0CEFC27
:103A3000FF2304461A4619460EA802F0C7FC218847
:103A4000ADF81410A1788DF816100188ADF810109B
:103A500080788DF8120063A058E0002000F00CFF81
:103A6000A671E07900285BD1E671484802F0C1FAFE
:103A70005B49464802F003FB00231A4619460FA88B
:103A800002F0A4FCFF2304461A4619460EA802F0D1
:103A90009DFC01462088ADF81400A0788DF8160032
:103AA0000888ADF8100088788DF812004EA02DE03F
:103AB000002000F0E1FE0220A071E07900282FD163
:103AC000E671324802F095FA4549304802F0D7FADB
:103AD00000231A4619460FA802F078FCFF2304467B
:103AE0001A4619460EA802F071FC01462088ADF86E
:103AF0001400A0788DF816000888ADF8100001E0D9
:103B000011E00DE088788DF8120038A0CDE90005AD
:103B100000210295F0233A4608460395FEF76CFF14
:103B200011B0BDE8F08310F11A0F4FF0000029DA50
:103B300000F0A2FE0420A071E0790028F0D1E67127
:103B4000124802F056FA2649104802F098FA00236B
:103B50001A4619460FA802F039FCFF2304461A46FC
:103B600019460EA802F032FC2188ADF81410A17895
:103B70008DF816100188ADF8101080788DF81200BD
:103B80001BA0C3E7FEF7CEFACAE7000080050020BD
:103B900008000020BA1201089AD301086469676915
:103BA00074616C20494E5645525445520000000045
:103BB000746563686E6F6C6F67790000454E45529F
:103BC000475920534156494E4700000031322E33A9
:103BD0002E370000562E00002573257300000000CC
:103BE0006E7F01084533000045310000453200007A
:103BF00045340000F0B5944C8DB094A10AA8E26859
:103C0000FCF744FB91A10BA82269FCF73FFB91A1B3
:103C100008A86269FCF73AFB9049A4F17C0002F025
:103C20002EFAA4F17C0001F044FCC0F1780007B248
:103C3000002208A9A4F17C0001F06BFB884CC6B2FD
:103C4000E06A007E00287DD000231A46194606A8A7
:103C500002F0BCFBE06A007E002874D0FF231A4605
:103C6000194607A802F0B2FBBDF81800ADF8140021
:103C70009DF81A008DF81600BDF81C00ADF8100074
:103C80009DF81E008DF81200E06A0025007E0028D5
:103C90007CD0002008A90091CDE901053C2306F164
:103CA0001402394619200395FEF7A6FE6648002245
:103CB0000BA97C3801F02DFBC6B2E06A007E01281A
:103CC00065D000231A46194607A802F07FFBE06A78
:103CD000007E01287DD0FF231A46194606A802F06F
:103CE00075FBBDF81C00ADF814009DF81E008DF8A2
:103CF0001600BDF81800ADF810009DF81A008DF8F8
:103D00001200E06A007E012800D000200BA900917B
:103D1000CDE9010506F114023C23164639469B20E5
:103D20000395FEF769FE484800220AA97C3801F095
:103D3000F0FAE06A007E022877D000231A4619467E
:103D400007A801E05EE061E002F040FBE06A007E6F
:103D500002286FD0FF231A46194606A802F036FB48
:103D6000BDF81C00ADF814009DF81E008DF816007B
:103D7000BDF81800ADF810009DF81A008DF812007B
:103D8000E06A007E022859D0002001E042E043E0D2
:103D90000AA90091CDE901053C2332463946EB20C2
:103DA0000395FEF729FEFF231A46194606A802F0DE
:103DB0000DFB0188ADF8001080788DF802002248D4
:103DC00000997C3802F0CEF900231A46194606A85D
:103DD00000E026E002F0FAFA0188ADF800108078E1
:103DE0008DF80200184800997C3801F02BFBE06A3E
:103DF00090F9180020B3012824D01AA0FEF71EFD68
:103E00000DB0F0BDFF231A46194620E73823A5223E
:103E1000132126E701203DE7FF231A46194653E701
:103E200003E03823A522132158E7FF231A46194639
:103E300086E7FFE73823A52213218EE70120A4E7B8
:103E40000AA0DBE70CA0D9E7FC050020253032648E
:103E50000000000025303464000000003B9B010896
:103E60000800002053657420646179005365742054
:103E70007965617200000000536574206D6F6E7487
:103E8000680000002DE9F0438BB08449844802F0BB
:103E9000F6F8834801F00DFB814FC0F178007C37C4
:103EA0000FFA80F97FA107A8BA68FCF7EFF90022A2
:103EB00007A97B4801F02DFA7C4DC6B2E86A007E66
:103EC00000287CD000231A46194606A802F07EFA84
:103ED000E86A007E002873D0FF231A4619460AA814
:103EE00002F074FABDF81800ADF814009DF81A003D
:103EF0008DF81600BDF82800ADF810009DF82A00D6
:103F00008DF81200E86A0024007E00287ED000218F
:103F10000DF11C0840468DE813005720A0EB560019
:103F20003C23462249460394FEF766FD5DA107A89F
:103F30007A68FCF7ABF9002207A9594801F0E9F9C2
:103F4000C6B2E86A007E01287DD000231A461946D1
:103F50000AA802F03BFAE86A007E012874D0FF2329
:103F60001A46194606A802F031FABDF82800ADF845
:103F700014009DF82A008DF81600BDF81800ADF861
:103F800010009DF81A008DF81200E86A007E0128E2
:103F900071D00021CDF80080CDE90114CB20A0EB39
:103FA00056003C23462249460394FEF725FDFF2395
:103FB0001A46194606A802F009FA018801E056E0FF
:103FC0005AE0ADF8001080788DF80200344800996E
:103FD00002F0C8F800231A46194606A802F0F6F9BE
:103FE0000188ADF8001080788DF802002C48009907
:103FF00001F028FA00231A4619460AA802F0E6F949
:10400000FF2307461A46194606A800E038E002F0EA
:10401000DDF90646002226A1214801F07AF9398807
:10402000ADF81410B9788DF816103188ADF810106D
:10403000B1788DF812101EA1CDE90014029400EBA6
:10404000D070A02101E01DE020E0A1EB600000B2F3
:104050003723042249460394FEF7CEFCE86A007E2B
:10406000D0B114A0FEF7EAFB0BB0BDE8F083FF234C
:104070001A46194629E70DE03823A52213212EE719
:10408000012145E7FF231A46194661E73823A52297
:10409000132167E701217DE709A0E3E73B9B0108C6
:1040A0008005002025303264000000000800002058
:1040B0003A000000536574206D696E7574650000E8
:1040C00053657420686F7572000000002DE9F14F90
:1040D0008AB04449444801F0D2FF434DDFF80CB1A7
:1040E0004D35002707EB4700002600EB0711412064
:1040F00007EB470A00EB410806EB4601132000EBF3
:10410000011906EB4A04224639A108A8FCF7BEF8BB
:10411000285D032801D9012028550A98844208D037
:10412000DBF82C0090F91800A04202D00A98401C3D
:1041300049D1DBF82C0090F91800A04206D13823B1
:10414000A522132106A802F041F90BE0285D2649BB
:1041500000EB4000D93908440188ADF81810807888
:104160008DF81A00285D032836D000231A46194618
:1041700007A802F02BF9BDF81800ADF814009DF85F
:104180001A008DF81600BDF81C00ADF810009DF85F
:104190001E008DF81200DBF82C0090F91800A042E8
:1041A00002D0285D03281BD00021002008AACDE9F9
:1041B0000020CDE902011F2329220FFA88F10FFA0E
:1041C00089F0FEF719FC761C062E95DB7F1C042F68
:1041D00088DB0BB0BDE8F08FFF231A461946C7E70E
:1041E0000221E2E79AD301088005002008000020A0
:1041F0002564000010B5084B65220C21074801F02A
:104200002BFA054BBDE81040463365224FF48F7101
:10421000024801F021BA00001B1F010880050020A0
:1042200070B5244C0246D3B2207EFF2800D12376FD
:10423000607A814208D1207E904205DDA07A617BC0
:10424000884201D0401CA0721B48E57A0179491BC5
:104250000025914217DB017B022914D0217E914277
:1042600011DDA572FF212176457302210173012121
:1042700021744571FEF7AEFD00F57A706063002091
:10428000FDF750FF12E0207E90420BDA02F04AFF69
:10429000E17A401A904205DBA07A617B884201D026
:1042A0002376A572A07A617B884201D1012070BD7E
:1042B000002070BD08000020B80500201FB54FF495
:1042C000E16004F0E7FA154C204605F0D3FA6846A1
:1042D00005F07BFB44F61F00ADF800000021ADF8AF
:1042E000041040F2E730ADF802100290ADF806106D
:1042F0006946204605F0FEFA0121204605F04EFBF6
:104300000121204605F046FB204605F0EDFA00228B
:104310001146132003F08CFE1FBD0000002000405A
:1043200030B5224D89B0284605F0A4FA5320ADF8E7
:10433000100000244FF4FA60ADF814400690ADF878
:104340001240ADF816408DF81C4004A9284605F02F
:10435000D1FA01200090ADF80440ADF80840ADF866
:104360000640ADF80A40ADF80C406A4600212846E8
:1043700005F02CF900221146284605F044FA602287
:104380000021284605F018FA00221146284605F0BB
:1043900049FA0121284605F00EFB284605F010F9E0
:1043A000284605F0A1FA09B030BD000000480140E0
:1043B00030B54FF0804589B0284605F05BFA5320B0
:1043C000ADF8100000244FF4FA70ADF814400690D8
:1043D000ADF81240ADF816408DF81C4004A92846EF
:1043E00005F088FA01200090ADF80440ADF80840CF
:1043F000ADF80640ADF80A40ADF80C406A46002121
:10440000284605F0E3F800221146284605F0FBF99E
:1044100060220021284605F0CFF908220021284615
:1044200005F000FA0121284605F0C5FA284605F0F6
:10443000C7F8284605F058FA09B030BD2DE9F0411B
:104440004B4F384603F03DF87D1501224FF0904464
:104450002B461146204602F040FF2B460322002146
:10446000204602F061FFA5616E000122334611462D
:10447000204602F032FF334603220021204602F09C
:1044800053FFA66100E000BF2946204602F047FF27
:104490000128F8D100E000BF2946204602F03FFF86
:1044A0000128F8D1A56200E000BF2946204602F0AD
:1044B00036FF0028F8D1A66200E000BF3146204652
:1044C00002F02DFF0028F8D1A66100E000BF3146C0
:1044D000204602F024FF0128F8D1A56100E000BFCA
:1044E0002946204602F01BFF0128F8D12A46042164
:1044F000204602F0BBFE32460421204602F0B6FE02
:104500002B4600220221204602F0E7FE2B46032222
:104510000121204602F008FF3346002202212046F6
:1045200002F0DBFE334603220121204602F0FCFEAE
:104530004FF40041384602F0FEFF00BF002138462C
:1045400002F0F9FF00BF384602F0C0FF4FF480428E
:104550000849384602F034FF0022812311463846CC
:1045600002F0DEFF3846BDE8F04102F0AFBF0000C8
:1045700000540040801A06002DE9FC418046FEF7F9
:1045800029FC2E4C7825A0266063E16A4FF4FA6777
:1045900004F17C000B68A3F580729B3A07D1CA69CD
:1045A000D2F81CC09CF818C0BCF1040F03D0B3F5BE
:1045B000CE7F06D00AE0C2612048BC30E062C26112
:1045C0000FE0CA69D3691B7E042B05D0C969C1619C
:1045D000B8F1020F2AD02BE0C2611948E062616D88
:1045E000C161002004F04CFF164801F002FD164B9B
:1045F00001AA6946134801F09DF9BDF90410BDF9FF
:10460000000001EBD171A5EB610100EBD0700AB2A3
:10461000A6EB600001B20C4B0A4801F01DF8012026
:1046200004F02EFF384602F09DFC02E0C969C1612A
:10463000E062FEF7CFFB2063BDE8FC8108000020AC
:10464000A4020020800500205ABE00080A4810B5C8
:10465000C07900280FD0094CA5220021204605F082
:10466000D2F8142002F07EFC20460022BDE8104063
:10467000114605F0C8B810BDB8050020004801403B
:1046800070B5204DEC6A606910B1BDE8704000471C
:10469000A06848B1A18839B194F9181000EB411015
:1046A0000021C461E8620176E86A0068052814D137
:1046B000154804F0D7FD144A107802F033FC132893
:1046C0000BD8507802F02EFC0C2806D2E86A0D496F
:1046D000C069DC31E9626865C861A06810B1E86A48
:1046E000806858B1FCF740FB002004F0C9FEFDF7DC
:1046F000D3FEBDE87040012004F0C2BEFEF734FCDA
:10470000F2E7000008000020B4040020810705D172
:10471000642190FBF1F201FB120141B94FF4C87121
:1047200090FBF1F201FB120008B10020704701205C
:104730007047000030B5002385B01A46194601A81D
:1047400001F044FE0188ADF8001080788DF8020079
:104750002448009900F076FEFF231A46194601A866
:1047600001F034FE0188ADF8001080788DF8020069
:104770001C48009901F0F6FC1A4801F03AFC1A4D69
:104780008C241A4B6C8303AA02A9164801F0D2F8B4
:1047900098B9BDF90C10782201EBD171BDF9080070
:1047A000A2EB61010AB200EBD070A021A1EB600086
:1047B00001B20E4B0B4800F04FFF4FF4FA6002F0CD
:1047C000D1FB08483830007828B16C830020FDF711
:1047D000A9FC05B030BD034801F00BFC014801F015
:1047E00025FEF6E780050020080000204B5F010849
:1047F00010B50F4CE16A086910B1BDE810400047E0
:104800008888002813D0002004F03AFEE06A017E78
:10481000491C49B201768288914201DB0021017670
:10482000FDF73AFEBDE81040012004F029BE10BD9E
:104830000800002010B50F4CE06AC16811B1BDE856
:10484000104008478088002813D0002004F018FE8C
:10485000E06A017E491E49B20176002902DA017937
:10486000491E0176FDF718FEBDE81040012004F056
:1048700007BE10BD080000202DE9F041040001D55D
:10488000002402E0142C00DD1424184D1848E7B26F
:104890002F70417ADFF85C801648202608F128083E
:1048A00059B1202102F014FD20B1C8F80060642045
:1048B00002F058FB6F70BDE8F0810A2C09DD0D484D
:1048C00018300660642002F04DFBEC2000EB440041
:1048D00009E0202102F0FCFC20B1C8F8006064204F
:1048E00002F040FB60006870E5E70000080000206F
:1048F000B80500200004004870B50C4D0120287058
:10490000FEF78CFF0A4C0020E071FEF76BFAFEF711
:1049100061FA6063FEF75EFA2064A87A002804D189
:10492000BDE870400A20FFF7A7BF70BDB8050020A2
:104930000800002010B5002004F0A2FD0648A0F5F4
:104940002F71C86200210176FDF7A6FDBDE8104079
:10495000012004F095BD0000C402002070B502F0F3
:1049600093FB342002F044FB104D284602F04EFB2E
:10497000342002F03DFB0E4C4FF0FF324021204628
:10498000FEF786FE21461126086405E021682846C8
:1049900002F08AFB241D2D1D761EF7D2342002F072
:1049A00027FBBDE8704002F029BB000000F80108B9
:1049B000B805002070B50F4E00250F4C86F82D501D
:1049C000F08DA0832846FFF757FF35700120A074B3
:1049D000A572FF2020762574E573002004F050FDB9
:1049E000A6F1380001F022FDA6F13800BDE87040C4
:1049F00001F0FFBAB80500200800002010B588B00B
:104A000000204FF48271CDE9001002904FF4007144
:104A100005900690CDE90310064C6946204604F047
:104A20005CFD0021204604F049FD204604F050FDC5
:104A300008B010BD0038004070B5002211461C209F
:104A400003F0F6FA1C4C204605F000F80021204641
:104A500005F061F80021204605F0A4F80021204669
:104A600005F06DF80421204605F061F80821204684
:104A700005F071F84021204605F000F84FF416517A
:104A8000204604F0ADFF204605F000F840F2067520
:104A90002946204604F0FFFF0028F9D005212046D2
:104AA00005F004F80421204605F000F8BDE8704048
:104AB000642002F057BA00000044004030B50023E3
:104AC00085B01A46194601A801F080FC0188ADF8AE
:104AD000001080788DF802002448009900F0B2FCA4
:104AE000FF231A46194601A801F070FC0188ADF8B1
:104AF000001080788DF802001C48009901F032FB0C
:104B00001A4801F076FA1A4D8C241A4B6C8303AACA
:104B100002A9164800F00EFF98B9BDF90C107822D2
:104B200001EBD171BDF90800A2EB61010AB200EB03
:104B3000D070A021A1EB600001B20E4B0B4800F039
:104B40008BFD4FF4FA6002F00DFA08483830007817
:104B500028B16C830020FDF7E5FA05B030BD0348AD
:104B600001F047FA014801F061FCF6E780050020FA
:104B7000080000203A6301082DE9FF4F80460069D4
:104B80009BB000287CD082781792022A01D0012A9B
:104B900076D1D8F814200792002216926FF06302A3
:104BA0000C92C0780D9002910020CFE21E98435CD9
:104BB000002009901890D8F810000524611C425C70
:104BC000015D02EB012111F0FF0129D0E21C855C9F
:104BD000A21C9942825C05EB02220FFA82F97CD179
:104BE000B9F1080F1CDB01211891211D04F1050BFF
:104BF000435C099310F80B10E71D01F07F0204924B
:104C0000A21D0025825C0A92C05D049A00F07F0A12
:104C10009A1A1798A2EB0A06022802D0012871D02E
:104C20006FE2C8096FD00A9A0D99A9F10800891A94
:104C30000026A1EB0A070E96119096E0D8F8100016
:104C400001190E980830085C95FBF7F10FFA81FB0B
:104C500010F0C00F58D000F03F0A05EB0A010DB26A
:104C6000B14606EB0A010EB2000678D5289840B18D
:104C7000404698F8193098F8182098F8171007E06F
:104C800077E20798C0F30743C0F30722C1B240465A
:104C900001F070FA1D990A98084410903844401E9B
:104CA00000B219900299049808440B9018E01099EA
:104CB000199B01EB090002B20B98584401B240461F
:104CC00001F0CDF9A7EB0901AAEB01000FFA80FA78
:104CD0004FF000090BF1010000E046E20FFA80FB03
:104CE00009EB0A00B842E2DC1098484400EB0A01E4
:104CF00002B20B98491E0BB2584401B2404601F073
:104D0000AEF92CE0D5E036E0289949B1404698F854
:104D1000193098F8182098F8171001F02BFA09E0CC
:104D20008006020E4046079900F0BEFA0146404652
:104D300001F018FA1D990A980844304402B2049907
:104D40000298014401EB0B0001B2404601F022FA47
:104D50006D1C761C2DB236B201E0F01B06B2BE42CD
:104D6000FBDA0E98401C00B20E900E991198814209
:104D7000FFF664AFC5E10027A9F1080011900E9776
:104D8000384691E0D8F8100001190E980830085CF8
:104D900095FBF6F10FFA81FB10F0C00F53D000F035
:104DA0003F0A05EB0A010DB2B94607EB0A010FB243
:104DB000000673D5289838B1404698F8193098F80D
:104DC000182098F8171006E00798C0F30743C0F3BF
:104DD0000722C1B2404601F0CDF904990298084477
:104DE00010903044401E00B219900A991D98084452
:104DF0000B9016E00B981099584402B201EB090091
:104E000001B24046199B01F012F9A6EB0901AAEB89
:104E100001000FFA80FA0BF101004FF000090FFAC0
:104E200080FB09EB0A00B042E4DC1098484400EB38
:104E30000A01491E0BB20B9959440AB201B240460D
:104E400001F0F5F82AE0289949B1404698F8193060
:104E500098F8182098F8171001F08CF909E08006EE
:104E6000020E4046079900F01FFA0146404601F045
:104E700079F91D990A98014401EB0B0002B20299DD
:104E800004980844384401B2404601F083F96D1C8F
:104E90007F1C2DB23FB201E0B81B07B2B742FBDA6C
:104EA0000E98401C00B20E9011998842FFF66AAF2E
:104EB00027E1289840B1404698F8193098F8182012
:104EC00098F8171001F056F9D8F81000C15DC9091B
:104ED0007ED010F80B00C00962D00A9A0D99A9F192
:104EE0000800891A00261190A1EB0A070E96304699
:104EF00052E000BFD8F8100001190E980830085C85
:104F000000F07F09C00939D095FBF7F00FFA80FB5C
:104F100002990498B246084410900A991D980844D2
:104F20000B901BE0384403B20B981099504402B226
:104F300001EB0B0001B2404601F091F8A7EB0A002B
:104F4000A9EB00010FFA81F92918304406B20BF1E0
:104F500001000DB24FF0000A0FFA80FB0AEB0900C6
:104F6000B8420B98DEDC504400EB090102B2109805
:104F70000BB2584401B2404601F071F805EB09004C
:104F800005B206EB090000E0F01B06B2BE42FBDAF8
:104F90000E98401C00B20E9011998842AADBB0E036
:104FA0000027A9F108000E97109055E0D8F81000DE
:104FB000BA4601190E980830085C95FBF6F100F02E
:104FC0007F09C0090FFA81FB38D00299049800E0EC
:104FD00047E008440B900A991D980844CDF8440016
:104FE0000AEB0900B0421CDD0B98304403B2119863
:104FF000584402B20B98504401B2404601F017F8F1
:10500000A6EB0A00A9EB00010FFA81F92918384430
:1050100007B20BF101000DB24FF0000A0FFA80FB4E
:10502000DEE70B9901EB0A0000EB09010BB21199C5
:1050300059440AB201B2404600F0F9FF05EB0900FD
:1050400005B207EB090000E0B81B07B2B742FBDA74
:105050000E98401C00B20E900E9910988142A5DB6C
:105060004FE00027A9F108000597BB460F9045E0E7
:10507000D8F8100001190BF10800085C0E9001E04F
:10508000B81B07B2B742FBDA0598B94690FBF6F0B9
:105090000FFA80FA5FF0000509EB0500B04205D178
:1050A0000AF10100C5F100090FFA80FAC5F1070104
:1050B000012088400E9900B2014211D10A991D9831
:1050C000014401EB0A00411C0BB202B204990298A0
:1050D000014401EB0900284401B2404600F0BFFF43
:1050E0006D1CEDB2082DD7D30BF101000FFA80FB38
:1050F0000598083000B208373FB205900F998B45EC
:10510000B6DB299880B1169940566FF0630188424A
:105110000ADD0C90169A2998104490F901008842F3
:1051200002DD501C00B21690189860B102990998DF
:10513000084400B202900C9810F1640F03DD02994C
:10514000084400B202901598401C00B215901E98B9
:10515000FBF7D8F9159988423FF628AD07991FB09B
:105160004046BDE8F04F00F0FDBF04EB09010CB272
:1051700024E51FB0BDE8F08F2DE9F34705462DED7E
:10518000020B2DED068BB0EE408AF0EE608A88B0FF
:105190009FED410B9FED429B9DF8469053EC102BE9
:1051A00051EC180B05F098F809D2BDF8440040EA1C
:1051B000094008B0BDEC068B04B0BDE8F08753ECA5
:1051C000192B51EC180B05F0C1F903D2B0EE498A46
:1051D000F0EE698A287D05F06BF853EC182B05F08A
:1051E000B7F841EC1A0B53EC182B51EC190B05F0E6
:1051F000AFFA8846044648EC190B9DF8440005F0C8
:1052000057F853EC192B05F0A3F853EC1A2B04F0C4
:1052100093FD04F0D9FF0646687D05F049F853EC8C
:10522000182B05F095F841EC1A0B48EC194B9DF83A
:10523000450005F03DF853EC192B05F089F853ECC7
:105240001A2B04F079FD04F0BFFF0746A87D05F096
:105250002FF853EC182B05F07BF841EC180B48ECB9
:10526000194B484605F024F853EC192B05F070F85B
:1052700053EC182B04F060FD04F0A6FFC3B2FAB2A1
:10528000F1B205A801F0A2F80188ADF8001082780B
:1052900041EA02408DE7000000000000000000002D
:1052A000000000000000F03F7FB5CCB2C2F1FF0368
:1052B00014FB03F4C57D15FB0245C1F3072414FB61
:1052C00003F4067E16FB0244C1F3074111FB03F110
:1052D000407E10FB0213C82295FBF2F094FBF2F122
:1052E00093FBF2F2FF2800DDFF20FF2900DDFF2104
:1052F000FF2A00DDFF22D3B2CAB2C1B203A801F077
:1053000065F80188ADF80010827804B041EA0240E7
:1053100070BD2DE9F74F0646006900284FD04FF0C9
:1053200000096FF0630B4D464C4642E001984FF088
:10533000000A534610F804C0306905214A1C475C36
:10534000825C02EB072212F0FF0212D0CF1C10F891
:1053500007808F1C6245C75D08EB07273FB205D168
:10536000082F06DB01230A1D10F802A0394409B2F8
:10537000E4E7029888B110F909006FF063018842F0
:105380000BDD029A834602EB090090F90100884286
:1053900003DD09F101000FFA80F943B105EB0A00C2
:1053A00005B21BF1640F02DD05EB0B0005B2641CB6
:1053B00024B20198FBF7A6F8A042B7D82846BDE86A
:1053C000FE8F2DE9F0418046CD18A81E03B2174686
:1053D0000E464046069C00F02AFE3C44A01E6D1E70
:1053E00003B22DB23A462946404600F038FE641E0C
:1053F000701C24B201B22B462246404600F017FE34
:105400007F1C23463AB231464046BDE8F04100F0E9
:1054100026BE2DE9FC411E46054613460C461430B7
:10542000089F00F0C8FF0146D819A219401E521E5D
:1054300000B212B2CDE900202246284600F023FD3A
:10544000BDE8FC8103B5BDF80410A0F817109DF865
:10545000061041760CBD10B5417300240473B0F9F9
:105460000630B0F90420012907D002290AD0032907
:1054700003D002814381447310BD03814281012125
:10548000017310BD0281438110BD704713B50346FF
:1054900001A800F090FF1968C2B28C68C0F3072120
:1054A0001846A0471CBD0368CAB2C1F307219B6818
:1054B00018470069002800D0C07870472DE9FF4FD9
:1054C00087B01E46DDE914749246012C07DA009776
:1054D000DDE90701FFF79DFF0BB0BDE8F08FB4EBEE
:1054E000670F00DD7C10B4EB660F00DD74100798C9
:1054F00090F82910781E0FFA80F9701E0FFA80F8C4
:1055000059B10121CDE90241CDE900940798434604
:105510000068C569DDE90701A847A6EB440003B2AE
:105520000AEB0700001B02B208989B46204405B214
:10553000009429460798FFF76CFFA7EB440000B2E0
:1055400000900AEB040007B2DDE9070133463A4652
:10555000FFF75FFF5B462946524600940798FFF726
:1055600058FFA8EB440000B20490A9EB440000B23D
:105570000390C4F101000FFA80F86000404200B2CD
:105580004FF0010A0026029063E000BFB8F1000F5F
:1055900008DB641E029824B2801C00B202904044D2
:1055A0000FFA80F80AF102000FFA80FA08EB0A00FD
:1055B0000FFA80F80498761C05EB000B36B20BEB63
:1055C000060003B2381B02B20FFA8BF18946009233
:1055D000079800F02CFDA81B01B2009A2B460591FC
:1055E000079800F024FD0BEB040003B2B81B02B2D5
:1055F000934649460093079800F019FD281B01B215
:105600005A462B460191079800F011FD0498A919FC
:10561000084403B203983919084402B29346494634
:10562000079800F004FD0398B919084402B2009BE2
:1056300049460092079800F0FAFC5A462B46059915
:10564000079800F0F4FCDDE900212B46079800F0F4
:10565000EEFCA6429ADB3FE72DE9FF4F95B01D0017
:10566000934607D028785A2807D06FF0010019B068
:10567000BDE8F08F4FF0FF30F9E768780104A878B3
:1056800001EB0020E97808445FEA000A02D56FF0D8
:105690000200ECE728790104687901EB0020A97980
:1056A00040180B9001D540B2E1E7EE79FF2E02D30E
:1056B0006FF00400DBE7687A297A00EB012000B282
:1056C0005FEA000802D56FF00500D0E7E87AA97A12
:1056D00000EB012007B2002F02DA6FF00600C6E7E8
:1056E000304601F048F90024039009940120069403
:1056F000CDE90F041598407B20B14FEA880001F0F6
:105700003AF981468A494FF4006008601598407B59
:10571000C0B1CDF840B060210AF10C000C95CDE984
:105720000D010CA801F0E1F8E8B10CA801F0C5F8F2
:10573000401EC0B20A900CA801F0BFF8401E00F055
:10574000FF0AC7E00BEB0700401E00B2169900905D
:1057500001EB0800401E03B215985A46006807681E
:105760001598B847D7E708210CA801F0CDF80746EF
:105770000F9810B10020119733E011984FF6FF7188
:1057800001EA002015993843497BB9B3069A49F8D4
:1057900022000698401C0690404521D1109802B284
:1057A000169800924044401E03B2159800680568A0
:1057B000DDE91501A8471098401C10901598407B12
:1057C000012821D0B8F1010508D400BF39F825001F
:1057D00001B21598FFF767FE6D1EF7D50020069001
:1057E00001200F900998401C099003980755641CEC
:1057F00024B2B44201DBA01B04B287E0FFE701B290
:105800001598FFF750FEEBE7002506E039F8250074
:1058100001B21598FFF747FE6D1C4545F6DBDDE745
:105820000A98201A00E0A81905B2002DFBDB01E060
:10583000A81B05B2B542FBDAA34603E0ABEB0600BA
:105840000FFA80FBB345F9DA0998641C401C0990F3
:105850000F9824B220B10398405D1190002034E0ED
:1058600011984FF6FF7101EA00210398405D08434B
:105870001599497BA1B3069A49F822000698401C65
:105880000690404520D1109802B2169800924044EC
:10589000401E03B2159800680768DDE91501B84796
:1058A0001098401C10901598407B01281ED0B8F12C
:1058B000010707D439F8270001B21598FFF7F3FD67
:1058C0007F1EF7D50020069001200F900398425DBF
:1058D00000F80B20BAF1010000F0FF0AA0D213E09B
:1058E000FFE701B21598FFF7DEFDEDE7002706E0C0
:1058F00039F8270001B21598FFF7D5FD7F1C474501
:10590000F6DBDFE7A01B04B2B442FBDA0B9909987F
:1059100088427FF706AF06494FF4006010390860EF
:10592000039801F020F8484601F01DF800209EE69B
:105930002804004810B52BB118785A2805D06FF00C
:10594000010010BD4FF0FF3010BD58789C78000466
:1059500000EB0420DC78E04202D56FF0020010BDBD
:1059600018795C79000400EB04209C79001901D5BA
:1059700040B210BDD879FF2802D36FF0040010BDEB
:10598000587A1C7A00EB042000B20880002802DA62
:105990006FF0050010BDD87A997A00EB012000B2B3
:1059A0001080002802DA6FF0060010BD002010BD44
:1059B0002DE9FF4F14462DED0E8B8BB0DDE927B896
:1059C0005FEA0B007ED45FEA08007BD404EB08009A
:1059D00000B25FEA0B0102907ED01A9A5FEA0801DA
:1059E00002EB0B0000B281466ED00BFB0BFA4FEAC4
:1059F0004A0008FB08F106904800CDE90410500069
:105A000000B20190600000B200900AEB010004F0C7
:105A100038FC41EC100B01F085F8B0EE40BAF0EE26
:105A200060BA9FEDFE0B51EC1B0B53EC102B04F0F6
:105A30008FFC9FEDFCEB53EC1E2B04F07DF904F082
:105A4000C3FB401C01B25046079104F01AFC53EC12
:105A50001B2B04F025FA53EC1E2B04F06DF904F017
:105A6000B3FB07990027084408900AFB08F04000A0
:105A700046421C991A983D4608440390A0EB0B003F
:105A800003B226989B46204402B2099049461998D1
:105A900000F0CDFA5B4649462246199800F0C7FA55
:105AA0000998A0EB080003B2DDE9022001B2984694
:105AB000199800F0D4FADDE919014346029A00F082
:105AC000CEFA02E0D1E107E014E04FF00108B7EEB2
:105AD00000AA9FEDD6DBE3E00346A2EB080002B28A
